:040000006F20C01499
:10000400000000000000000090000020AE0400206A
:10001400A9BDF9F3900000200000000000000000DA
:10002400900000209000002000000000000000006C
:10003400900000200000000090000020000000005C
:1000440090000020900000209000002090000020EC
:1000540090000020900000209000002090000020DC
:1000640090000020900000209000002092000020CA
:10007400A2050020900000209000002090000020A5
:1000840090000020900000209000002090000020AC
:1000940001A0B737004083C74740730020304111A7
:1000A400B7170040985F3AC6945F3247E39CE6FE78
:1000B40032454101828073270080218B93874185DB
:1000C40009CB7327008023AAE18498435D9B7310B6
:1000D40007800100010037170040930670052300D4
:1000E400D704930680FA2300D70401000100834655
:1000F400B70493F6F60DA305D7042300070473266B
:1001040000809443A18AD18E7390068023AA01842F
:100114000100010093760502638406180347A700D3
:10012400118B25E773270080218B09CB732700806F
:1001340023AAE18498435D9B7310078001000100AA
:1001440037170040930670052300D704930680FAFE
:100154002300D704010001008346A70093E646006C
:100164002305D70023000704F32600809843218B3E
:10017400558F7310078023AA01840100010013071F
:10018400004B010001007D176DFF73270080218B58
:1001940009CB7327008023AAE18498435D9B7310E5
:1001A4000780010001003717004093067005230003
:1001B400D704930680FA2300D704010001007D8947
:1001C4002314A7000100010001000100230007041B
:1001D400F32600809843218B558F7310078023AA40
:1001E40001840100010073270080218B09CB732750
:1001F400008023AAE18498435D9B7310078001006B
:10020400010037170040930670052300D7049306B6
:1002140080FA2300D7040100010001000100B72681
:10022400004013061005A383C68023000704F326A9
:1002340000809843218B558F7310078023AA018473
:100244000100010073270080218B09CB73270080F4
:1002540023AAE18498435D9B731007800100010089
:1002640037170040930670052300D704930680FADD
:100274002300D704010001008346B70493E606086F
:10028400A305D70423000704732700809C43A18B94
:10029400D98F7390078023AA018401000100828012
:1002A40093760504638B06140347A700418B25E767
:1002B40073270080218B09CB7327008023AAE18454
:1002C40098435D9B731007800100010037170040BD
:1002D400930670052300D704930680FA2300D704FD
:1002E400010001008346A70093E606012305D70019
:1002F40023000704F32600809843218B558F731045
:10030400078023AA0184010001001307007D010076
:1003140001007D176DFF73270080218B09CB7327A4
:10032400008023AAE18498435D9B73100780010039
:10033400010037170040930670052300D704930685
:1003440080FA2300D704010001009376F50193E6B7
:1003540006042314D700010001000100010023005A
:100364000704F32600809843218B558F7310078070
:1003740023AA018401000100130760046310E5044B
:1003840073270080218B09CB7327008023AAE18483
:1003940098435D9B731007800100010037170040EC
:1003A400930670052300D704930680FA2300D7042C
:1003B40001000100B72600400946B5B57327008047
:1003C400218B09CB7327008023AAE18498435D9B8A
:1003D4007310078001000100371700409306700571
:1003E4002300D704930680FA2300D70401000100F8
:1003F400B7260040130620053DB573270080218BE6
:1004040009CB7327008023AAE18498435D9B731072
:100414000780010001003717004093067005230090
:10042400D704930680FA2300D70401000100835601
:10043400870093E6060C2314D700C5BB41118146FF
:1004440001468145114506C63524F3270080A18B5A
:100454009386418589CBF327008023AAF1849C42AB
:10046400DD9B7390078001000100B717004013075C
:1004740070052380E704130780FA2380E704010052
:10048400010003C76704136717002383E70423806D
:100494000704732700809C42A18BD98F7390078037
:1004A40023AA018401000100B240410182808146F7
:1004B4000146814511457D2AF3270080A18B1387CE
:1004C400418589CBF327008023AAF1841C43DD9B5B
:1004D4007390078001000100B71700409306700570
:1004E4002380D704930680FA2380D70401000100F7
:1004F400FD562396D70223800704F32600801C436D
:10050400A18BD58F7390078023AA01840100010079
:10051400F3270080A18B89CBF327008023AAF184E1
:100524001C43DD9B7390078001000100B717004056
:10053400930670052380D704930680FA2380D7049A
:100544000100010083C6670493E616002383D704E1
:1005540023800704F32600801C43A18BD58F73905E
:10056400078023AA01840100010001A0BD473305CF
:10057400F50201007D1575FD8280411122C426C259
:1005840006C6AA84014463179400B24022449244EC
:100594004101828005041305803E4204C13F41802D
:1005A400DDB7B7170040130700032388E702854728
:1005B40023AEF18473002030230304801547230302
:1005C400E48001002302A480828083076480E3CE58
:1005D40007FE23030480828083076480E3CE07FE42
:1005E40003454480828083076480E3CE07FE2302B0
:1005F400A4808280411126C44AC24EC006C6137725
:10060400F50BAD47AA892E8995446306F700194571
:100614006537653F8D444E854537FD59FD14639814
:100624003401B240A24412498249410182801355E7
:1006340009011375F50F453F2209CDB7011126CCE9
:1006440006CEB704080051371545BD3771376937F1
:100654002AC6A53F32459377150089EB136515002B
:100664001375F50FF240E24405618280FD14E9FC44
:100674000145CDBF397126DC4ADA4ED852D656D45C
:100684005AD25ED006DE62CE66CCB7E700E07D5774
:1006940083AA070022C603AA470023A0E71823A2BF
:1006A400E718B7170040130770052380E704130702
:1006B40080FA2380E70483C74704930B75FFB6844D
:1006C400E20793FBFB0F8546AA892E8B32893724D8
:1006D4000040E187015763FA76016308D500894633
:1006E400130700026313D5000157D98F93F7F70F4F
:1006F400B71C00402382FC0411472303E480130544
:10070400F00F5D3D094CD135636D7C11B7050700D1
:10071400DA9537870700795563F2E504B3879500C6
:10072400636EF702370B0800A94733EB6501639941
:10073400F90689E48144513D26850DA0DA850945F1
:10074400553D05090345F9FFFD14050B693D81C4B9
:100754009377FB0FFDF7DD3569FD7D55B717004035
:10076400130770052380E704130780FA2380E70446
:1007740003C74704418B2382E704F250B7E700E044
:1007840023A0571123A24711E25432445259C259AB
:10079400325AA25A125B825B724CE24C2161828013
:1007A400A5476395F90685691309F00FB306990007
:1007B400B3742B01B6941349F9FFB3749900856B94
:1007C40033796901416B9387F9FFB3F7270199E303
:1007D40063FC340193D94900C147E3E637FF99BF6D
:1007E4000569C1697D19D9B71305800D638869014D
:1007F400130500026384790113051008CA85DD3BE3
:10080400353D21DD4E99B3843441D9B7DA852D4580
:10081400D533CA94E30099F205097D3BA30FA9FEE1
:10082400D5BF9387F9FF93F7F70F6361FC0C83C778
:100834001C0413073008631FF70437070800636BB1
:10084400EB04B3079B00B706100063F5D704334BE2
:10085400EB0089476393F9068980D549E38C04EC5E
:10086400DA850945413B11090327C9FF9147232034
:10087400E48003076480E34E07FE23033481FD17FD
:10088400EDFBFD14110B81C49377FB0FE9FF7D335E
:1008940071F5E1B5B717004003C75704B70708005F
:1008A4001377070219E3B78707007955E378FBEA62
:1008B40033079B00E3FFE7F855B58547E382F9F278
:1008C400DA852D45053B9389F4FFE38504E6293356
:1008D40093F7390091EB83260480032709009307DB
:1008E4004900E39AE6E43E89CE84F1BFB5476396B6
:1008F400F9001305900BC93135BDB1471305B00A92
:10090400E38BF9FE99476391F904B7050800B365D1
:10091400BB002D45C53181448D4BA1497539639682
:100924007401832704802320F9008504E39834FFAD
:100934008327048013172B01635507002312F90042
:10094400D5BB2322F900FDB39D476399F902814584
:100954001305B0044531BD442320090023220900B6
:10096400FD599D3993F77400CA9703C70700FD1416
:10097400398D2380A700E39634FF6DBBA1476392B2
:10098400F9046D398144630D0B008D479304C00352
:100994006308FB009304000563048B019304400483
:1009A4001375C507E30895D8194539313939054513
:1009B400213126850D3909453D314931E31C05D6E0
:1009C40069BB91476399F90013056006F536F53E56
:1009D400130590090DB7E38F09D4F154A9BB19CDC0
:1009E40091CD09CE81473387F5008346070033074D
:1009F400F50085072300D700E317F6FE828019C9A6
:100A040091C909CA910583A7C5FF11057D16232E37
:100A1400F5FEC5BF828001C919C62A960505A30F34
:100A2400B5FEE31DA6FE828081473307F500030768
:100A3400070019E33E8582808507C5BF01112E8614
:100A440026CAAA84131506019305F004418122CC19
:100A540006CE32C6EF00B0602A8401C53246A685B0
:100A6400BD3F2285F2406244D244056182808547BD
:100A740015C18DC105C28147B306F5003387F50062
:100A840083C60600034707006398E6008507E3155D
:100A9400F6FE85473E8582808147EDBF9307F6FFCA
:100AA400BE952A966313C5008280FD1583C7150081
:100AB4000505A30FF5FEFDB7AA87014581CF09CE31
:100AC4003E96850703C7F7FF6317B700E39BC7FE8E
:100AD40005458280828001458280797197370000C4
:100AE4009387472222D4804306D626D24AD04ECEBC
:100AF40052CC56CA5AC85EC679C0B7C4C901014BA4
:100B0400973900009389891F9384F437173A0000BA
:100B1400130A8A1F973A0000938A8A19173900002A
:100B24001309C9228357240095E35C44631D0B0019
:100B3400173700002328F71C832BC4002285EF00FD
:100B4400305F5E84B9A82326FB00FDB783A70900A4
:100B540082971C443307F5406376F5000327490068
:100B64001D8F2A9763E2E4089737000023AA07142D
:100B74008355240003450400974000E0E7804013B8
:100B84005C405844A1CB0C4403264900AE97BE8672
:100B940063E4B70063E4C700B386C74014C4228B80
:100BA4003A8449F097370000938787109C4B094794
:100BB4006372F706F917173700002323F710B250B2
:100BC400225492540259F249624AD24A424BB24BDD
:100BD4004561828063170B009737000023A4E71256
:100BE400A1BF2326EB0089BF03274A0209CF63EF85
:100BF400A7003385A74083A70A016376F5009737DA
:100C0400000023AFA70A228B404461BF0327490099
:100C1400BA97C5B79737000023A4070A4DB7411107
:100C240022C4173400001304640B1C4006C626C2F9
:100C34004AC091C782979737000023A1070A9737C4
:100C4400000083C7772A858B973400009384842916
:100C540095C397370000A389072883C774001547F5
:100C6400637AF700E52B83C77400F5178A07A29708
:100C74009C4382971C4491C382971739000013093F
:100C84002908032709001736000003467602973720
:100C9400000083C7E70193961700BA9683D606002F
:100CA400D5CE9737000083C7A70063E3C70C9737F7
:100CB4000000238F07FE1C40639D07129737000036
:100CC40083C7D72291CF83C7740093F7F70F89EBBB
:100CD40097370000A38C0720978001E0E7808067A6
:100CE40097370000938787019C43638407109737E5
:100CF40000009387A705DC43173700002322F7FC85
:100D0400E93B9737000093872700DC53FDC317376F
:100D140000001307E7F9184B9737000083C7170043
:100D24006369F70C83C7740015476364F70C97373E
:100D3400000083C7E71F918BCDEF03260900973688
:100D4400000083C6F6F663CCD70A2244B24092442C
:100D540002494101174300E06700E340850793F728
:100D6400F70F973600002385F6F4E3E2C7F215BFC8
:100D740086073E9783550700231007009737000026
:100D8400239C07F697370000938707F59C43173594
:100D940000000345E5F113172500BA979C43829799
:100DA4009737000083D747F517370000034747F00C
:100DB40093C7F7FF7D8D93171700032709003E970C
:100DC400835707005D8D2310A7009737000083C762
:100DD40027EE91C7850717370000230BF7EC173769
:100DE40000000347E7EC9737000083C777ECE37014
:100DF400F7ECB240224492440249410182801397A5
:100E040017003297035707006DF785072DBFAD67AD
:100E140037C70040BD072326F7200F10000097377F
:100E240000009387E7E8C84F83278726BD66BD0681
:100E340093C7F7FF99836A052326D7205D8D8280A7
:100E44004111B7170040985F3AC6945F3247E39C5C
:100E5400E6FE3245410182801305F00F82800111C4
:100E640022CC604126CA4AC84EC652C406CEAA84C1
:100E74001D4A130965058549BC446364F4000545AE
:100E8400B9A003C7D40083474400631A470503C7C6
:100E940084026304F7000040C5B70347540083C7C6
:100EA4005405E31AF7FE1946CA8513056400C136D2
:100EB400E31335FF0347C40083C79402E31DF7FC23
:100EC4000357E40083D7A402E317F7FC0145F2407B
:100ED4006244D2444249B249224A05618280E31CF9
:100EE400F7FA0347540083C75405E316F7FA194683
:100EF400CA8513056400A53EE31F35F9C1BF01117E
:100F0400973700009387070E22CC03A4070C26CA48
:100F140006CE2AC42EC6854419E40145F240624433
:100F2400D244056182808347910003471400858B76
:100F34006304F7000044CDB719469305A1001305D7
:100F440024003536E31895FE0545C9BF1737000060
:100F5400130747F81C439306001094C301000100D3
:100F6400010001001C4323A0070083461500034829
:100F74002500A2064208C29603480500C29603480B
:100F840035006208C29694D783465500034865002D
:100F9400A2064208C29603484500C296034875005B
:100FA4006208C296D4D7834695000348A500A206DA
:100FB4004208C29603488500C2960348B5006208F9
:100FC400C29694DB8346D5000348E500A206420896
:100FD400C2960348C5000345F500C2966205AA9669
:100FE400D4DB83C6150003C52500A2064205AA96D4
:100FF40003C50500AA9603C535006205AA9694CFD9
:1010040083C6550003C56500A2064205AA9603C51A
:101014004500AA9603C575006205AA96D4CF83C677
:10102400950003C5A500A2064205AA9603C585003E
:10103400AA9603C5B5006205AA9694D383C6D500C3
:1010440003C5E500A2064205AA9603C5C50083C5EB
:10105400F500AA96E205AE96D4D3D443F59AD4C348
:10106400D44393E61600D4C3944393E6160094C382
:10107400BA879443D842058B59E3984E014523001F
:10108400E6009843184F2183A300E6009843184FC5
:1010940041832301E6009843184F6183A301E600CE
:1010A4009C43D84F2302E600D84F2183A302E600D5
:1010B400D84F41832303E600D84F6183A303E6009E
:1010C40098532304E60098532183A304E60098531D
:1010D40041832305E60098536183A305E600D853B2
:1010E4002306E600D8532183A306E600D8534183A0
:1010F4002307E600DC53E183A307F60082800100A6
:101104008DBF17370000130727DD1443411122C494
:101114009C5E4AC006C6998326C2858B3A841739D9
:101124000000130929DBD1CB9C5E97340000938423
:1011340064DB93F7F7F99CDE173700000347E7DA1F
:1011440093070008631BF700832709009C4393F768
:10115400070417370000230AF7D883C7040093F75E
:1011640007049DC397370000938747B99C43829730
:101174009737000023A0A7D883C7040093F7F70B81
:10118400173700002300F7D683C7440093F70704FA
:101194008DE7854717370000A308F7D49737000079
:1011A400938707D69C43096798C7130700FC9736B3
:1011B4000000238BE6D2D844F8D31C40985F1183F7
:1011C400058B09CB985F3D9B98DF05479736000058
:1011D400238CE6D0985F1D83058B11CB985F137722
:1011E400F7F798DF854717370000230FF7CE8327DB
:1011F4000900D8430583058B19C7D843759BD8C309
:10120400D843799BD8C3B240224492440249410155
:101214008280397106DE16DC1ADA1ED82AD62ED45C
:1012240032D236D03ACE3ECC42CA46C872C676C412
:101234007AC27EC0F935F250E2525253C25332554B
:10124400A255125682567247E2475248C248324E5D
:10125400A24E124F824F2161730020309737000055
:10126400938707CA9443973700009387A7C703C798
:101274000700058B11CB97370000238707C69737E4
:101284000000A38307C6828003C71700058B65F798
:10129400F85271FF83C75700DDB7173800001308F1
:1012A400A8C3032708001C5F9583858BD1E709C673
:1012B4001C5BBD832300F60085CA83270800985B66
:1012C4004607935767016356070093E707C0C207B1
:1012D400C18303970600C207C18709C7BA970947A4
:1012E400B3C7E7022390F60085CD834715008DCB65
:1012F4009736000083C666BF93F6060413879700EB
:1013040089478DCA3A950347050085469947137660
:10131400F7066311D60262076187B947634C070079
:10132400832708009C5FED838D8B17370000A30093
:10133400F7BC81473E8582808547EDBF411122C4B9
:1013440006C6173400001304A4BB18403DE9AE8759
:101354007453FDFE3E85B28597370000238507B898
:10136400978001E0E78080D2973700009387C7B663
:101374009C43B70680009843558F98C3D857719BF8
:10138400D8D797370000A38107B697370000A38BFF
:1013940007B41C40094798C31440173700001307CB
:1013A40067B483472700858B89EB83473700858B98
:1013B400D9C797370000238907B2B24022444101BC
:1013C40082808D476310F502973700009387C7B07A
:1013D4009C43B70680009843558F98C3D857719B98
:1013E400D8D75DBF8547E319F5FA5447F977FD1758
:1013F400F58F5CC70F1000001C40096798C71307DE
:1014040000F8173600002301E6AE17370000130773
:10141400A7AC1043184231830D8B11E713076019F1
:10142400F8D3D4C795BF1842094631830D8B631591
:10143400C7001307E043EDB71307E01BD5B7FC5211
:10144400ADF3A5BF5D71A2C4A6C22A8413068002AF
:101454002800AE849305100886C6CAC04EDE52DC4E
:10146400EFF06FDB3545978001E0E78040011733EB
:101474000000130363A6832703009376F41F173E2B
:101484000000130E2EAD23A40700984B973E0000D6
:10149400938E0EA7370FFCFF1367F70398CBF84F13
:1014A400130510F8B7020400137707E0558FF8CF3F
:1014B4009843F576FD16758F98C39843B7063300A5
:1014C400930380251377F7E798C3984311497D1F49
:1014D4001377F7E71367071098C303270E008549AE
:1014E400930F80021C47D58F1CC783A70E001307D8
:1014F400900D3400B8CB014793553700A69583C7A8
:10150400050013767700B3D7C740858BE1C38327E3
:10151400030083280E00239C07042390070603A8D6
:10152400C8021378D8FF23A6080383A807001378FA
:10153400F70793F808F833E8080123A0070103A884
:1015440047023368580023A2070383A80E0001480A
:1015540023A2780603DA07066307480303A80703F0
:10156400038A06001358F800620813588841635828
:101574000A0103A807031358F8002380060103D8BF
:1015840007061378F80F03AA480663060A0003DA6D
:101594008705E37F49FB03A847023378E80123A2C8
:1015A400070383870600635CF40003C805003396D1
:1015B400C9001346F6FF337606012380C5003E8634
:1015C40063D3A7002A86131586016185050713775F
:1015D400F70F8506E312F7F3B6402644964406490E
:1015E400F259625A6161828097360000938646916F
:1015F4009C42D847131617016355060298471316E1
:101604001701635006027D57B8D717270000130748
:10161400276A584F0507172600002329E66A116731
:1016240098C798470D83058B1DC3173700000347E0
:10163400878B13671700173600002306E68A130703
:1016440000F8173600002301E68A214798C7984717
:10165400058B09CF173700000347D7881367170096
:1016640017360000A300E688054798C79847098302
:10167400058B09E798470583058B31CF98471736C3
:10168400000013062686173500001305E584098338
:10169400058B630307101841184331830D8B75EBD9
:1016A400AC4B184E93F5050203471700CDCD79EFE7
:1016B40013077006D8CF03470600136717001736C1
:1016C40000002301E682114798C718415C57F19B3B
:1016D40093E717005CD79C4298479316370163D66B
:1016E40006029736000083C66697C18A1737000042
:1016F4001307478FC5CE034787071367070297363B
:101704000000238DE694056798C798479316270130
:1017140063D10602172700000347077D620761872C
:1017240063570700054797260000238FE67A096769
:1017340098C798479316070163D6060297360000A8
:1017440083C6D691858A173700001307A789ADCEC3
:10175400034797071367270097360000A380E69096
:10176400216798C7828029D785456315B700130779
:10177400B00689B789456315B7001307F0061DBF86
:101784008D456315B700130730072DB713075007AE
:1017940015B71307600739BF0347360013671700EF
:1017A40017260000A301E674094739BF834687075B
:1017B4000946BD8A6388C600034787078D463D8B6B
:1017C400E313D7F4114725BF83469707918AC9DAF3
:1017D400034797071367870041B7397106DE16DCA4
:1017E4001ADA1ED82AD62ED432D236D03ACE3ECCED
:1017F40042CA46C872C676C47AC27EC0F533F25075
:10180400E2525253C2533255A2551256825672476F
:10181400E2475248C248324EA24E124F824F2161D3
:1018240073002030972700009387876D984385675E
:10183400938707777CD3972700009387A7719C43EE
:1018440083A60709139656006358060083A6070962
:1018540013966600634406007453FDF2828071C5DA
:10186400AA870145E9C58D07C207C183F19BC20759
:10187400C18313074003636FF702172700001307A0
:101884002776084317270000130707751443639846
:10189400A6021727000013072747185B014541CB11
:1018A4004111C20706C60545DD8D0297B2400145C8
:1018B400410182801727000013074772D9B70357E5
:1018C400650035E303574500636FF704B306F7403B
:1018D4002146637CD60203280500938687001D8F6A
:1018E400AA966117172600000356E63C2392E600E9
:1018F40023A006012393060014C12312F500130745
:1019040086FF972600002398E63A2313B50097250F
:10191400000083D5453AB387F54017270000231C00
:10192400F7382105828008419DB701458280828075
:101934000DC1972700009387A76A03A30700972781
:1019440000009387676983A8070081469A8763E349
:101954001701828003A80700636DF50A636BA80A68
:1019640013878700E367E5FE03D667002167050751
:101974006317E60003C7C18E05072386E18E97250A
:1019840000009385E53203D6470003D7650023930F
:10199400070032974207418317250000231DE530D5
:1019A400638A670217250000130545630841630332
:1019B400F50203D5660019ED83D7460023A006017E
:1019C40021073E9621062392C60097270000239400
:1019D400E72EB6879843E30E17F797260000938601
:1019E400E65F9442E307D7F683566700BDF283D6D9
:1019F4004700035647001843A106B2962392D70026
:101A040098C383D76500A107172700002315F72A79
:101A14008280BE86C28725BF032785116302071211
:101A2400411122C406C68347C5008345E5042A84C0
:101A340093F7C70F2306F500834697000356C700A4
:101A440013958601618563F2C508635B050603454A
:101A5400870093F6F607A304D700054693E627000C
:101A64006314C50093E617002306D4005C4389077A
:101A74005CC3A30AB400032504112E864C43090554
:101A8400EFE0FFF58327841103465401D44303D7C1
:101A9400C700B296118FD4C32396E7008947A30DDC
:101AA400F400034764039727000083C7072763787C
:101AB400F7048347C40093E707012306F40081A0D9
:101AC40093E717002306F4006DB79376F60F635D72
:101AD400050203458700854513E627006314B50016
:101AE40013E617002306C400A30AD400A3040700C6
:101AF4008547A30DF400832784119C43DDF3B24092
:101B0400224401454101828093E717002306F40033
:101B1400A30AD400A3040700032504114C430905B8
:101B2400EFE0FFEB8327841103465401D44303D72A
:101B3400C700B296118FD4C32396E7008D4755BFD3
:101B440005458280972700009387875C9C43411159
:101B540022C406C6858B2A84C5EF4165130525F585
:101B6400973002E0E780A09045C58347A500231580
:101B7400F50083270412BDE72320A4122322A41214
:101B840085472311F404232005008347640154414D
:101B94002316F5000347D4002304E5000547A304F6
:101BA400E500172700001307E733184F13851702C2
:101BB40015811C437D151375F50F9CC25C43DCC273
:101BC4001C479CC65C47DCC61C4B9CCA5C4BDCCAED
:101BD4001C4F9CCE5C4FDCCE19CD938606021307B6
:101BE4000702C1BF8327441288C3835724042322D6
:101BF400A412850779B79727000083D7273F850765
:101C0400172700002314F73EB2402244410182808A
:101C14008347C40023090400054593C747002306EE
:101C2400F400DDB78347850193F7E70FD5EF8347CA
:101C34009501DDEB034625018346C50009CA8345AA
:101C44006503172700000347570D63E7E50013F703
:101C5400060141CF014709C6C18A0357651C81C6E5
:101C64008356A51C369751C31307C71217250000C6
:101C74000355450EB335A70237460F00411113062D
:101C84000624814622C426C206C67D543305A70213
:101C9400975002E0E780207D9727000083C757080C
:101CA400B384A700972700009387C73303A7870946
:101CB4008327070963F387003E84184375FB97273E
:101CC40000009387A7039C43829781476364A40021
:101CD400B307A440B2402244B3B7970093C7170098
:101CE40092443E854101828081473E8582809727C8
:101CF40000009387E72098437C53FDFF828079712D
:101D040026D206D622D44AD04ECE52CC56CA5AC86F
:101D14005EC68347550303447513AA843E94137423
:101D2400F40F9307400263F687001304B4FD1374A1
:101D3400F40F03AA841383AAC413A38B84122286E8
:101D44005285D685975002E0E780606C058915E5D9
:101D540003CBD41201498149337B6403930B5002B2
:101D64004A865285D685975002E0E780406A058905
:101D740015C5639169031374F90F238B8412B25050
:101D8400225492540259F249624AD24A424BB24B0B
:101D9400456182808509E20993D989410509E311E6
:101DA40079FDE1BF8327850903560504797193D62C
:101DB4000701BD8EC206C182358E135776409357F4
:101DC4005640898B058B5D8F93573640918B5D8F81
:101DD40093571640A18B5D8F93171600C18B5D8FAF
:101DE4009317360093F707025D8F931756009355A8
:101DF400860093F707041E065D8F1376F60F518F46
:101E040093D7554013D63540118A898BD18F13D679
:101E14007540D18F13D61540218AD18F13961500A2
:101E2400418AD18F1396350013760602D18F13960B
:101E34005500137606049E05D18F93F5F50FCD8FCB
:101E4400A20745465D8F3307C70222D42A8426D2CF
:101E540052CC56CA032A8413832AC4135AC806D6FA
:101E64003697420741839357774013555740098962
:101E7400858BC98F135537401189C98F1355174066
:101E84002189C98F131517004189C98F131537008C
:101E940013750502C98F13155700935587001375E1
:101EA40005041E07C98F1377F70FD98F13D5354053
:101EB40013D755401189098B498F13D57540498F24
:101EC40013D515402189498F139515004189498FF0
:101ED4001395350013750502498F13955500137535
:101EE40005049E05498F93F5F50F4D8F2207D98F71
:101EF400B387C7024AD04ECE5EC662C4B697C20745
:101F0400C18313D7774013D557400989058B498F6F
:101F140013D537401189498F13D517402189498F2B
:101F2400139517004189498F1395370013750502DE
:101F3400498F1395570093D58700137505049E07A1
:101F4400498F93F7F70FD98F13D5354013D75540E1
:101F54001189098B498F13D57540498F13D51540C5
:101F64002189498F139515004189498F13953500AF
:101F740013750502498F13955500137505049E05C5
:101F8400498F93F5F50F4D8F2207D98FB387C70279
:101F9400130650025285D685B697BD8E93940601DA
:101FA400C18033F6C402137BF60F975002E0E7803A
:101FB400004605890DED8347D41201498149B38454
:101FC4009702130C5002C1804A865285D6859750D9
:101FD40002E0E780C0430589937BF90F11C563864E
:101FE4003403850993F9F90F0509E31F89FD230BD0
:101FF4006413B250225492540259F249624AD24AAA
:10200400424BB24B224C456182805E8BCDB77971D5
:1020140022D406D683C735002E8423160100A307D5
:10202400F10083C74500100802C02307F10083C7ED
:1020340055008A8502C2A306F10002C402C802CA7E
:1020440002CC02CEEFE09FF00347F1018347040086
:1020540001456310F7020347E1018347140001457A
:102064006319F7000345D101834724001D8D1335FF
:102074001500B25022544561828001119727000057
:10208400938747F622CC03A4870C26CA4AC84EC6B7
:1020940006CEAA8413092500854915C083C71400F8
:1020A40003473400858B6304F700405CFDB7194691
:1020B400930544004A85EFE09F9BE31835FF228592
:1020C400F2406244D2444249B249056182804111DE
:1020D40097270000938707F122C403A4870C26C224
:1020E4004AC006C693042500054901E82285B2408A
:1020F40022449244024941018280A6851305A40228
:102104003937E30525FF405CCDB74111972700001F
:10211400938747ED22C403A4870C26C24AC006C68F
:1021240093042500054901E82285B24022449244E3
:10213400024941018280A6851305A401C93DE30536
:0821440025FF405CCDB700004F
:10214C009711002093814197176100201301C1EA78
:10215C001305400097E5FF1F938505EA170600203D
:10216C00130606FE63FAC5008322050023A0550062
:10217C0011059105E3EAC5FE17850200130585E9F3
:10218C00970500209385C5FB1386018463FAC5006F
:10219C008322050023A0550011059105E3EAC5FE35
:1021AC001385018497250020938545F76377B50047
:1021BC00232005001105E36DB5FEFD42739002BCB2
:1021CC008D4273904280930280087390023097E2A4
:1021DC00FF1F938262E293E23200739052309712A7
:1021EC000000938202D773901234730020303D4369
:1021FC002A876373C3029377F700BDEFADE593763F
:10220C0006FF3D8ABA960CC34CC30CC74CC741079A
:10221C00E36BD7FE11E28280B306C3408A069702B5
:10222C00000096966780A6002307B700A306B700A8
:10223C002306B700A305B7002305B700A304B70016
:10224C002304B700A303B7002303B700A302B7000E
:10225C002302B700A301B7002301B700A300B70006
:10226C002300B700828093F5F50F93968500D58DEA
:10227C0093960501D58D61B79396270097020000C0
:10228C0096968682E78086FA9680C1171D8F3E96B9
:10229C00E374C3F8A5B74111177502001305454D3A
:1022AC0006C6EF50525BB2408547A381F1844101D1
:1022BC008280B305B04017750200130525566F5088
:1022CC009259011122CC36C606CE2E84EF209009ED
:1022DC00B24637460F00130606243376C50291CA60
:1022EC00B285177502001305655232C6EF50B2560F
:1022FC00324622856244F240814505616FB0317FE0
:10230C0081E9B28517750200130545496F50B25427
:10231C008547639DF500177502001305654909C6CD
:10232C00177502001305C5496F50326789476398CA
:10233C00F500177502001305A5497DD682808D47DF
:10234C00E39EF5FE177502001305854971DEB28513
:10235C00177502001305054A55BF011122CC26CA78
:10236C004AC84EC606CEAA892E8981441384C194CC
:10237C0003C5618463E3A4060E050905CE85229589
:10238C00194697E0FF1FE780006583C5618493972A
:10239C003500850593F5F50FA2971386F5FFA380FD
:1023AC0027010E0622962383B1846244834876006B
:1023BC0003486600834756000347460083463600B1
:1023CC00F240D2444249B249034626001775020036
:1023DC001305852A05616F501248939534008905C1
:1023EC001946A2954E8597E0FF1FE780C06709E567
:1023FC00850493F4F40FADBFF2406244D2444249D9
:10240C00B249056182808347250049476364F71E02
:10241C00177702001307C7F98A07BA979C43011173
:10242C0022CC06CE26CA4AC8BA972A8482870504CB
:10243C001374F40F83C76184637DF4009315340027
:10244C0089051946A6954A8597E0FF1FE780A0618C
:10245C0079DD83C76184639E8702177502001305BB
:10246C002525EF509253014685450D452383018464
:10247C00EFA071511775020013058522EF50F25130
:10248C00E5A001449384C194170900201309C9E203
:10249C0055B7177502001305E522EF5012509387BC
:1024AC00C1940E04930624003E9403461400BE9679
:1024BC0081450145EFA0D1490566130606C8930571
:1024CC00002003C5C184EF20F01517750200130519
:1024DC0065206DB79305002003C5C184EF20D0366D
:1024EC0083451400B9ED0355A4008947A383F184F7
:1024FC002393A1808547A381F18403C6C184DD4762
:10250C006C002316F100EF70503113060064A145E6
:10251C0003C5C184EF2010110564130604C8C1451E
:10252C0003C5C184EF201010130604969305001008
:10253C0003C5C184EF20100F177502001305851A0F
:10254C0035BF177502001305E51AEF50D230177519
:10255C0002001305E514EF50524423830184014615
:10256C0085450D45EFA03142F2406244D2444249C8
:10257C0005618280A3830184F9579305001003C57C
:10258C00C1842393F1802381018423830184A3815B
:10259C000184EF20702B834564001775020013052E
:1025AC002517EF50522B177502001305650FEF50CE
:1025BC00D23E75B71775020013054517C1B51775CF
:1025CC0002001305A5175DBD17750200130505184C
:1025DC00EF50B23C03C76184A547E3E7E7F88345B6
:1025EC00440013055400953B41B7177502001305C1
:1025FC00E516F9BF8280011117050000130545246B
:10260C0006CE22CCEF2050581384C184856523005C
:10261C00A400938505960945EF40303CD1451D45F6
:10262C00EF40B03B930540062145EF40103B93052E
:10263C0040063545EF40703A85470D47700091458F
:10264C001305F0402304F100A304F1002305E1007D
:10265C00A305F10002C6EFB03170300085451305BB
:10266C008040EFB0716F13069100854513059040C3
:10267C00EFB0916E1306A10085451305A040EFB095
:10268C00B16D1306B10085451305D040EFB0D16C88
:10269C00EF80902603450400EF8060520345040050
:1026AC008545EF20E05FF2406244056182807971DC
:1026BC0022D406D603D4E18411C403C7718489479C
:1026CC006309F70017750200130545F3EF50F22C60
:1026DC0085A8354697750200938505F70808EF50D5
:1026EC00320C930700102316F1000147B1478146C5
:1026FC0031469305200503D56180231281002313F5
:10270C00F100EF7070272AC421C10C083146EF503C
:10271C0032094C0003D56180EF70F01B19C94800D9
:10272C0093052005EF70706C177502001305C5EE4C
:10273C0071BF0C08177502001305C5EEEF50B211EE
:10274C00B250225445618280177502001305C5EE04
:10275C00B5BF011106CE03D7018411C783C771849D
:10276C008946638BD70017750200130525C9EF50F6
:10277C00D222F240056182802312E100814601479A
:10278C000946C94503D56180231601002313F100C6
:10279C00EF70901E2AC405CD85472300F500A300D9
:1027AC00050003C6C1844C0003D56180EF70901105
:1027BC0011C94800C945EF70506317750200130525
:1027CC00E5C575B7177502001305C5C64DB7177566
:1027DC000200130525C761BF03474500ED47631E83
:1027EC00F704011126CA8344A5004AC80329C50071
:1027FC00A68517750200130525E622CC4EC606CE1B
:10280C000144EF50520597790200938969E693775A
:10281C00F40F63EB97006244F240D2444249B24950
:10282C00294505616F503207B307890083C507003E
:10283C004E850504EF503202D9BF82805D719397AB
:10284C000501A6C286C6A2C4CAC04EDE52DC56DA48
:10285C005AD85ED662D466D2C187AE8463DC072AAE
:10286C0003C5C184EF20C00F2A8415C5034705009A
:10287C009307000B631EF70003C7718489478345D8
:10288C004500130A85006307F7025285EF70F05577
:10289C002285EF20C0052165258DB640264496443F
:1028AC000649F259625AD25A425BB25B225C925C84
:1028BC00616182808D476381F50285476391F502E2
:1028CC00834785006397E7048345C50017750200AD
:1028DC00130545B9EF502278A381018429A89307E9
:1028EC00F007639DF50083558500177502001305ED
:1028FC00E5B8EF5042768345440041BFAD47639441
:10290C00F5025C4517750200130505B983C5070070
:10291C00D1B729476393E7028345C50017750200B9
:10292C00130585B645BFCD476393F50217750200B5
:10293C001305C5B8EF50720645B74947639EE700CB
:10294C008345C50017750200130505B661B7ED4741
:10295C006394F500513545B783C72184C9DF05471A
:10296C006398E70A9D47639CF5028357840085CBE7
:10297C005C4417750200130565B583C5170003C6C3
:10298C00370003C7070083C72700A2052206D98D8D
:10299C005D8E2395B1842394C184EF50C26B834721
:1029AC0044001D47639BE70403471400E947E39485
:1029BC00E7F483D7A184A1C72314F1009387818402
:1029CC0083D70700094717750200130565B3231554
:1029DC00F100930720302316F10093078002238126
:1029EC00E1842307F100EF50427B03C6C1842C0025
:1029FC0003D56180EF70806CFDBD05474DBF177529
:102A0C0002001305E5B0EF50427923810184E5B54E
:102A1C000947E392E7EEA547638DF506834744002B
:102A2C0025476390E70E03471400E947E395E7EC6D
:102A3C0083D7E1846389070C177502001305C5B4AD
:102A4C00EF50A27583D5418481CD8505C205C18126
:102A5C0017750200130505B52390B184EF50A25FE2
:102A6C009305004003C5C184EF20802383D74184A4
:102A7C0091CF17750200130565B4EF50027285658E
:102A8C009385058003C5C184EF20802123810184B7
:102A9C00A1B583578400D9D30329C400834AA40069
:102AAC00C169138B19FF814CC919977B0200938B59
:102ABC00ABAA177C0200130C2CA783578400E3FFEE
:102ACC00FCF4834519008347090003475900A2050C
:102ADC00DD8D8347690003462900A207D98F639CCB
:102AEC0067012392B1846285EF50E256850C93FC0A
:102AFC00FC0F5699D9B7E39B37FF2397B1845E85BA
:102B0C00E5B7054725B717750200130525ACEF503F
:102B1C00C268ADBF93F7150085C317F6FF1F1306E8
:102B2C00E66297F5FF1F9385A56103C5C184EFA0ED
:102B3C00815C13C5140095B393F7052081CB4165D7
:102B4C007D15EFC0215D13C5042081BB93F7850073
:102B5C0095C7C1572314F100239401842395018454
:102B6C00854783C6C18409462C0003D56180238127
:102B7C00F184EF70A07613C5840005B393F70501BB
:102B8C0091CF13078025814613064006D14503D506
:102B9C006180EFC0A15713C5040101B393F705027F
:102BAC009DC3014789460946814503D56180EFC025
:102BBC00A158AA8517750200130505A3EF50A24969
:102BCC0013C50402D9B993F70508B5C383C731847B
:102BDC00B9E79387018483D7070001478146231403
:102BEC00F10009468947C94503D5618023180100C6
:102BFC002315F100EF7040582AC615C185472300F4
:102C0C00F500B24703C6C1842C00A380070003D58E
:102C1C006180EF70204B19E58547A381F18413C5C2
:102C2C000408A5B9C9452800EF70301CCDBF93F737
:102C3C0005108DC303D56180EFC0014D05661306E9
:102C4C0006969305001003C5C184EF20A01D13C583
:102C5C000410A1B1056413040480B3F7850099C76F
:102C6C00CD3C33C584004205418105B993F705403D
:102C7C000145E38407C2253C13C5044039B9834799
:102C8C00050081EF371700405C418326070A93C784
:102C9C00F7FFF58F2320F70A82800547639CE70036
:102CAC00371700405C418326070C93C7F7FFF58F5D
:102CBC002320F70C82808347050091EB37170040E7
:102CCC008327070A5441D58F2320F70A82800547B2
:102CDC00639AE700371700408327070C5441D58FC0
:102CEC002320F70C82808347150081EF37170040B3
:102CFC001C458326070A93C7F7FFF58F2320F70A95
:102D0C0082800547639CE700371700401C458326EB
:102D1C00070C93C7F7FFF58F2320F70C8280411126
:102D2C0022C406C6834705002A8485E748418545A9
:102D3C00EF102041371700408327C70A5440D58F26
:102D4C002326F70A2285253F22852244B2404101E1
:102D5C0059BF0547E398E7FE48418545EF10C04849
:102D6C00371700408327C70C5440D58F2326F70C08
:102D7C00D1BF8347150091EB371700408327070A13
:102D8C001445D58F2320F70A82800547639AE70004
:102D9C00371700408327070C1445D58F2320F70CD9
:102DAC0082800347150019EBB717004083A7470A29
:102DBC000845E98FB337F0003E8582808546814710
:102DCC00E31CD7FEB717004083A7470CD5B779454E
:102DDC0017D3FF1F67000379411106C622C42A844A
:102DEC001937F5372285613DDD3722855D3F11E5C9
:102DFC000145B24022444101828022859D3FC13F62
:102E0C002285453775F522857D35D1370545D5B7F2
:102E1C00411122C426C24AC006C62A89AE84214466
:102E2C00593D93978401E1874A8563D60702653D36
:102E3C004A85B1357D14613F4A8586041374F40FBD
:102E4C009D3D93F4F40F613769FCB24022449244E7
:102E5C00024941018280313FE1BF411106C622C4C3
:102E6C0026C22A8449352285193D9304803E853734
:102E7C002285053F19C9FD14C204C180F5F81775E8
:102E8C0002001305A59AEF50021D2285193F19CD9A
:102E9C0022851535177502001305859AEF50A21B74
:102EAC000145B24022449244410182800D37228573
:102EBC001935313F0545F5B7411106C622C426C266
:102ECC004AC0A1442A890144393D11374A85E5336A
:102EDC00FD3D4A856D3306044A851374F40FD135D4
:102EEC0019C113641400FD1493F4F40FCD35F9FCDF
:102EFC002285B24022449244024941018280411110
:102F0C0006C622C42A84453BD93522859D35C13558
:102F1C002285B5336D3D2285F9332244B2404101FF
:102F2C007DB5011122CC2EC62A8406CE6933B2455A
:102F3C00228581ED4D3B613D22859133493D2285B2
:102F4C009D3B6244F240056159B52535EDB7411101
:102F5C00054506C622C4EF1080331305800497D0B4
:102F6C00FF1FE780C014371400408327840A85456F
:102F7C001305001093E707202324F40AEF10601CBC
:102F8C008D4513050020EF10C01BEF1000540D45AC
:102F9C00EF10C05695450545EF10E0573707000870
:102FAC00B7E700E023A0E710EF10606EEF105001C0
:102FBC00EFC0C118EFF02FE417F5FF1F1305C5196B
:102FCC00B93B17F5FF1F1305E519913B9145130507
:102FDC000008EF1060218327C40C1305007D93E7D4
:102FEC0007082326F40C97D0FF1FE78080587D2C10
:102FFC001305007D97D0FF1FE780A0573D291305CF
:10300C00007D97D0FF1FE780C05629281305007D4F
:10301C0097D0FF1FE780E055BD2B97E0FF1FE7809F
:10302C0080BFE5BF411117F5FF1F1305E51206C65A
:10303C0065339305400C17F5FF1F1305E511C93BCC
:10304C0017F5FF1F13054511093D9305100217F5E0
:10305C00FF1F130565106D3B17F5FF1F1305C50FFB
:10306C00ED3B9305100B17F5FF1F1305E50E4D33C4
:10307C0017F5FF1F1305450ECD33B24017F5FF1F93
:10308C001305850D4101A5BD39715AD02A8B17F551
:10309C00FF1F1305650C06DE32C622DC26DA4AD881
:1030AC004ED652D456D25ECE2E8A3D339305400C6A
:1030BC0017F5FF1F1305450AA13B17F5FF1F130555
:1030CC00A509613B9305C00E17F5FF1F1305C50835
:1030DC00813317F5FF1F130525084133954517F567
:1030EC00FF1F130565072D3317F5FF1F1305C506C5
:1030FC00AD33054597D0FF1FE780A04717F5FF1F9D
:10310C0013058505D1399305500C17F5FF1F1305D1
:10311C00A504FD3917F5FF1F130505043D3B17F5F5
:10312C00FF1F13056503493B85452A8917F5FF1FCA
:10313C0013058502FD3317F5FF1F1305E501AD3BA4
:10314C00AA8B854517F5FF1F13050501D93B17F50C
:10315C00FF1F130565008D33854517F5FF1F1305FC
:10316C00A5FFC13317F5FF1F130505FFB133AA8463
:10317C00854517F5FF1F130525FE653317F5FF1F52
:10318C00130585FD153BAA8A854517F5FF1F130509
:10319C00A5FC413B17F5FF1F130505FC313B85458D
:1031AC0017F5FF1F130545FBAD3B17F5FF1F130567
:1031BC00A5FA19332A84854517F5FF1F1305C5F9A0
:1031CC008D3317F5FF1F130525F9FD31AA898545A8
:1031DC0017F5FF1F130545F8A93317F5FF1F130546
:1031EC00A5F7D939854517F5FF1F1305E5F6153BEE
:1031FC00854517F5FF1F130525F6253317F5FF1F1A
:10320C00130585F55539814517F5FF1F1305C5F4D1
:10321C00093B17F5FF1F130525F4D53113958400D1
:10322C0033655501220933697901420523102B01BD
:10323C004181EF40B24297670200938727618C432C
:10324C00976402009384C460EF40625A8C40EF4054
:10325C00025A976702009387E75F8C43EF40320274
:10326C00EF40723A2310AA00131584003365350120
:10327C0042054181EF40923E976702009387C75DFC
:10328C008C43EF40C2568C40EF406256EF40B23751
:10329C003246F25062542310A600D2544259B2590D
:1032AC00225A925A025BF24B21618280411117F52E
:1032BC00FF1F130565EA06C6EFF01FB29305400C1D
:1032CC0017F5FF1F130545E9EFF09FB417F5FF1F26
:1032DC00130585E8EFF07FB89305F00317F5FF1F92
:1032EC00130585E7EFF0DFB217F5FF1F1305C5E6F1
:1032FC00EFF0BFB69305600817F5FF1F1305C5E582
:10330C00EFF01FB117F5FF1F130505E5EFF0FFB444
:10331C00B24017F5FF1F130525E441016FF03FBEC6
:10332C00411126C2AA8417F5FF1F1305E5E206C654
:10333C0022C44AC0EFF05FAA9305400C17F5FF1F9B
:10334C00130585E1EFF0DFAC17F5FF1F1305C5E0A2
:10335C00EFF0BFB09305400E17F5FF1F1305C5DF47
:10336C00EFF01FAB17F5FF1F130505DFEFF0FFAEF6
:10337C009305800B17F5FF1F130505DEEFF05FA912
:10338C0017F5FF1F130545DDEFF03FAD054597D051
:10339C00FF1FE780001E17F5FF1F1305E5DBEFF09D
:1033AC00BFA39305500C17F5FF1F1305E5DAEFF0DB
:1033BC003FA617F5FF1F130525DAEFF01FAA17F527
:1033CC00FF1F130565D9EFF03FAF85452A8417F52C
:1033DC00FF1F130565D8EFF0DFB417F5FF1F1305BA
:1033EC00A5D7EFF07FAD2A89854517F5FF1F13058B
:1033FC00A5D6EFF01FB317F5FF1F1305E5D5EFF0BA
:10340C00BFAB814517F5FF1F130505D52204EFF05F
:10341C005FB13364240117F5FF1F1305E5D3137453
:10342C00F47FEFF0DFAD3334800023808400B240B2
:10343C0022449244024941018280411117F5FF1F39
:10344C00130585D106C6EFF03F999305400C17F58F
:10345C00FF1F130565D0EFF0BF9B17F5FF1F13057A
:10346C00A5CFEFF09F9F9305600317F5FF1F130582
:10347C00A5CEEFF0FF9917F5FF1F1305E5CDEFF083
:10348C00DF9D9305600417F5FF1F1305E5CCEFF0E6
:10349C003F9817F5FF1F130525CCEFF01F9CB2408A
:1034AC0017F5FF1F130545CB41016FF05FA5011107
:1034BC009397050122CC06CEC1872E8463DF0700CB
:1034CC0003C5A180EF10C04919C1EF10404221651E
:1034DC00218DF24062440561828093F7250091CBE7
:1034EC002146894503C5A180EF10D0131345240054
:1034FC00CDB793F74500A1CB1305F100A30701004D
:10350C0005358347F1008DC7138601859385218589
:10351C0013858180EFF05FB783D6018503D62185B3
:10352C0083D581801765020013054533EF40B23215
:10353C000966130606F4914503C5A180EF10900EA1
:10354C001345440079B793F7850099CB13060064B3
:10355C00A14503C5A180EF10F00C1345840095BF65
:10356C0093F7050199CB1306000AC14503C5A18049
:10357C00EF10500B13450401A9BF93F70502014549
:10358C00A9DB41469305000203C5A180EF10900909
:10359C00134504023DBF411117050000130565F1E9
:1035AC0006C622C4EF10505E1384A180130600647B
:1035BC00A1452300A400EF10F006034504002244AB
:1035CC00B2400966130606F4914541016F1090054F
:1035DC00B717004003C777051377E70FA38BE704F2
:1035EC00130700F8A38DE7043D47238CE70413076A
:1035FC005003A38CE7048280B717004083C7E7020F
:10360C000D8993F7C70FC98F73270080218B938681
:10361C00418509CB7327008023AAE18498425D9BE6
:10362C007310078001000100371700401306700566
:10363C002300C704130680FA2300C704010001000D
:10364C002307F70223000704732700809C42A18BF9
:10365C00D98F7390078023AA018401000100828016
:10366C0041112A83014E930E407E130F0019930FC4
:10367C00400663E66E149308001913034006B378F2
:10368C001503854E0D4FA14F337365020D8913350C
:10369C00150063E0BE161308F6FF794672984208CF
:1036AC00135808013307C70213D61700BE07329709
:1036BC006146B3F6C60213068070B386C60236970F
:1036CC00A166F58F42075D8FB716004083C7F602DF
:1036DC0093F70708A307F1000346F10083C7F6022E
:1036EC0093F70708E394C7FE8347F100B716004031
:1036FC0093F7F70F63890714F3270080A18B938648
:10370C0041856398071401000100B71700401306A8
:10371C0070052380C704130680FA2380C7040100B8
:10372C00010023AA070303C6170313660608A38820
:10373C00C70223800704732600809C42A18BD18F83
:10374C007390078023AA0184010001001166B7154C
:10375C0000407D16DC59C85DA98FF18FE5FFF3277A
:10376C000080A18B89CBF327008023AAF1849C4293
:10377C00DD9B7390078001000100B7170040130612
:10378C0070052380C704130680FA2380C704010048
:10379C000100D8DB03C7170313670704A388E702EC
:1037AC0023800704732700809C42A18BD98F7390D0
:1037BC00078023AA018401000100410182807D134E
:1037CC003368E3039308E016630E08003368F303D1
:1037DC009308D016630808009378330093B8180048
:1037EC009388D81633081E01131E0801135E0E01B0
:1037FC0049B56393E50305486386080001486303F4
:10380C0003002A8871087298FD15131E0801C20561
:10381C00135E0E01C181B5BD13F8150063F4BF0032
:10382C007908D5B713381800E5BF83C7F60293F7AC
:10383C000708A307F1000346F10083C7F60293F7CC
:10384C000708E394C7FE8347F10093F7F70FF1DF06
:10385C0065B5F327008023AAF1849C42DD9B73900D
:10386C00078055B55971E2C486D6A2D4A6D2CAD067
:10387C00CECED2CCD6CADAC8DEC6E6C2EAC06EDE7E
:10388C002A8C02D6EF007034F3270080A18B138DA5
:10389C00418591CBF327008023AAF18483270D0067
:1038AC00DD9B7390078001000100B71700401307E0
:1038BC0070052380E704130780FA2380E7040100D6
:1038CC00010003C7F7021377770FA387E70203C73B
:1038DC00F70213678700A387E70223800704732787
:1038EC00008083270D00A18BD98F7390078023AAAA
:1038FC00018401000100F3270080A18B91CBF327F9
:10390C00008023AAF18483270D00DD9B7390078030
:10391C0001000100B7170040130770052380E7046E
:10392C00130780FA2380E7040100010003C7E702B4
:10393C001377C70F2387E70203C7E7021367170044
:10394C002387E702238007047327008083270D0059
:10395C00A18BD98F7390078023AA018401000100E9
:10396C00130780C13347E5029169938709E8130671
:10397C0050023D69B7440F0093840424856B130BEC
:10398C00A004014A814A13047005FD19B347F502DE
:10399C003307C7023EC2930709A61309803E33477B
:1039AC00F7023AC4334725030549331989011359E2
:1039BC0039403345950293840BFAB3948401811BEF
:1039CC003306C702B346F6023309E90236C6330B97
:1039DC00670313076055B3049502130500103309F0
:1039EC00E902B346FB02130B80FAB3C4A40236C837
:1039FC00B347F902939634003719004036CC930440
:103A0C0009043ECA73260080218A11CA73260080DD
:103A1C0023AAC18403260D005D9A73100680010051
:103A2C000100930770052380F400238064010100DA
:103A3C000100034639051376860FA309C904034612
:103A4C00390513661600A309C904238004007325E5
:103A5C00008003260D00218A498E7310068023AA4C
:103A6C00018401000100916CE17D73260080218AA4
:103A7C0011CA7326008023AAC18403260D005D9A07
:103A8C007310068001000100930770052380F40079
:103A9C002380640101000100034639051366060208
:103AAC00A309C90403560905336696012318C904F2
:103ABC00035609053366B601420641822318C90430
:103ACC00238004007325008003260D00218A498E73
:103ADC007310068023AA01840100010003463905F6
:103AEC00137606026307061603463905218A6DDE36
:103AFC006810EF00B01173260080218A11CA73265A
:103B0C00008023AAC18403260D005D9A73100680E1
:103B1C000100010023808400238064010100010066
:103B2C00034639051376F60DA309C9040346390576
:103B3C0013660602A309C9040356090533669601E8
:103B4C002318C904035609053366B601420641829F
:103B5C002318C904238004007325008003260D005C
:103B6C00218A498E7310068023AA0184010001006A
:103B7C000346390513760602630906100346390518
:103B8C00218A6DFE97C0FF1FE780E0502A8632CE57
:103B9C0097C0FF1FE78020507246E30AC5FE03560C
:103BAC0009053255336696012318C904EF00D00776
:103BBC0003463905218A6DDE03550905034629059F
:103BCC00924733F5A9003386C90232951D8DA24761
:103BDC0063D5A700B2476346F50E09466365560FD9
:103BEC00C247850A1316150093FAFA0F3346F602EC
:103BFC006354A03A050609453346A6027325008096
:103C0C00218911C97325008023AAA18403250D00E5
:103C1C005D997310058001000100238084002380CE
:103C2C006401010001000355C9022A964206418233
:103C3C002316C902238004007325008003260D007F
:103C4C00218A498E7310068023AA01840100010089
:103C5C0029BD73260080218A11CA7326008023AAED
:103C6C00C18403260D005D9A7310068001000100CB
:103C7C002380840023806401010001000346390580
:103C8C0013660602A309C90425BD73260080218A88
:103C9C0011CA7326008023AAC18403260D005D9AE5
:103CAC0073100680010001002380840023806401CE
:103CBC00010001000346390513660602A309C90475
:103CCC0051BDE38F0AF073260080218A11CA732636
:103CDC00008023AAC18403260D005D9A7310068010
:103CEC000100010023808400238064010100010095
:103CFC00034639051375FC0F1376860FA309C90407
:103D0C0003463905498EA309C9042380040073288E
:103D1C00008003260D00218A33660601731006808D
:103D2C0023AA018401000100034639051D8A63178B
:103D3C00862773260080218A11CA7326008023AA45
:103D4C00C18403260D005D9A7310068001000100EA
:103D5C00238084002380640101000100034639059F
:103D6C0011651376F60DA309C904034639051366CC
:103D7C000602A309C90403560905498E2318C90470
:103D8C00035609052165498E2318C90423800400B4
:103D9C007325008003260D00218A498E731006803E
:103DAC0023AA01840100010003463905137606029B
:103DBC00630E062003463905218A6DDE6810B9258D
:103DCC0073260080218A11CA7326008023AAC1841D
:103DDC0003260D005D9A73100680010001002380FC
:103DEC00840023806401010001000346390511653C
:103DFC001376F60DA309C9040346390513660602AA
:103E0C00A309C90403560905498E2318C90403568E
:103E1C0009052165498E2318C904238004007325E4
:103E2C00008003260D00218A498E7310068023AA78
:103E3C000184010001000346390513760602630371
:103E4C00061C03463905218A6DFE97C0FF1FE780CB
:103E5C008024AA8C97C0FF1FE780E023E30C95FF1A
:103E6C00035609051165498E32552318C9046D2B6B
:103E7C0003463905218A6DDE73260080218A13855D
:103E8C00418509CA7326008023AAC18410415D9A1A
:103E9C0073100680010001002380840023806401DC
:103EAC0001000100034639051376F60DA309C90478
:103EBC0023800400732800801041218A3366060198
:103ECC007310068023AA0184010001000358090520
:103EDC0003462905E24733F809013386C9023298B3
:103EEC003308F8401306800C3306C802D247334619
:103EFC00F60263550015050609483346060363515F
:103F0C00C0140358C9029308F00F13585800329884
:103F1C0063D6081F094663734619F3270080A18BEB
:103F2C0089CBF327008023AAF1841C41DD9B73907D
:103F3C00078001000100371700409307700523002C
:103F4C00F704930780FA2300F7040100010083565D
:103F5C00C70289678117D58FC207C1832316F70261
:103F6C0023000704732700801C41A18BD98F739009
:103F7C00078023AA018401000100B65026549654F0
:103F8C000659F649664AD64A464BB64B264C964CD1
:103F9C00064DF25D656182807D16B1B97326008095
:103FAC00218A11CA7326008023AAC18403260D001E
:103FBC005D9A731006800100010023808400238029
:103FCC00640101000100034639052DBB73260080F6
:103FDC00218A11CA7326008023AAC18403260D00EE
:103FEC005D9A7310068001000100238084002380F9
:103FFC006401010001000346390513660602A3099A
:10400C00C90469B373260080218A11CA7326008003
:10401C0023AAC18403260D005D9A7310068001004B
:10402C000100238084002380640101000100034609
:10403C00390513660602A309C904C5B37D166DBD07
:10404C0055CE0358C902B308C040135858006357E3
:10405C00180B094663744605F3270080A18B89CBA6
:10406C00F327008023AAF1841C41DD9B7390078009
:10407C0001000100B7170040130770052380E70407
:10408C00130780FA2380E7040100010003D7C7025D
:10409C007D8B2396E70223800704E9B57326008005
:1040AC00218A09CA7326008023AAC18410415D9A13
:1040BC0073100680010001002380840023806401BA
:1040CC00010001000356C9021376F60F3366760120
:1040DC00420641822316C902238004007328008003
:1040EC001041218A336606017310068023AA0184CD
:1040FC0001000100050A137AFA0F29B2F327008098
:10410C00A18B89CBF327008023AAF1841C41DD9B72
:10411C007390078001000100B7170040130770056A
:10412C002380E704130780FA2380E70401000100D1
:10413C0003D7C70216063A96420641822396C70257
:10414C0099BF914763EEB7021757020013074772E6
:10415C008A05BA959C41BA978287B717004003A786
:10416C00470B1345F5FF698F23AAE70A03A7070B33
:10417C00698F23A8E70A03A7070A798D23A0A70A4A
:10418C008280B717004083A6470B1347F5FFF98EC3
:10419C0023AAD70A83A6070B558D23A8A70A83A6A3
:1041AC00070A758F23A0E70A8280B717004003A780
:1041BC00470B498F23AAE70A03A7070B1345F5FF03
:1041CC0045BFB717004083A6470B1347F5FF758F04
:1041DC0023AAE70A03A7070A598D4DB7B717004062
:1041EC0003A7470B498FEDB7914763EEB7021757FB
:1041FC000200130727698A05BA959C41BA978287F2
:10420C00B717004003A7470D1345F5FF698F23AA85
:10421C00E70C03A7070D698F23A8E70C03A7070C6E
:10422C00798D23A0A70C8280B717004083A6470D79
:10423C001347F5FFF98E23AAD70C83A6070D558DCE
:10424C0023A8A70C83A6070C758F23A0E70C8280EC
:10425C00B717004003A7470D498F23AAE70C03A704
:10426C00070D1345F5FF45BFB717004083A6470D53
:10427C001347F5FF758F23AAE70C03A7070C598D7D
:10428C004DB7B717004003A7470D498FEDB7411144
:10429C0022C43717004006C683472702035707027C
:1042AC001384418593F7F70F4207418325E9137770
:1042BC00F79F420793F7F7074183F3260080A18A03
:1042CC0089CAF326008023AAD1841440DD9A739006
:1042DC00068001000100B71600401306700523800C
:1042EC00C604130680FA2380C6040100010093F76C
:1042FC00F70F2381F6022390E6022380060473272E
:10430C0000801C40A18BD98F7390078023AA018455
:10431C0001000100B24022444101828093E707086A
:10432C0013670740F3260080A18A89CAF326008010
:10433C0023AAD1841440DD9A7390068001000100F9
:10434C00B7160040130670052380C604130680FAC6
:10435C002380C604010001002381F6022390E602AB
:10436C0023800604732700801C40A18BD98F739087
:10437C00078023AA018401000100294597C0FF1F73
:10438C00E780401EF3270080A18B89CBF3270080A8
:10439C0023AAF1841C40DD9B73900780010001006F
:1043AC00B7170040130770052380E704130780FA42
:1043BC002380E7040100010003D7070213670720DD
:1043CC002390E702238007041DBFB717004003D5D5
:1043DC008700420541819377050491EB9377F501B2
:1043EC003755E801130505803345F5028280937734
:1043FC00050C130700046397E7009377F501374525
:10440C009C1CCDB72165130505D0828037E700E0F1
:10441C001C435443A183E206D58F1CC1FD572320B6
:10442C00F7182322F718828013178500B7E700E0EE
:10443C0023A0E710618123A2A7108280B7F700E0C8
:10444C008847CC478280814737370040A14663C4F8
:10445C00C700328582800345B740E38EA6FE3385C4
:10446C00F5000345050085072304A740CDB79387C6
:10447C00C1809C4317070020130747CA3E95636C05
:10448C00E50017470020130727976366A70023A6AC
:10449C00A1803E858280FD57EDBF411122C406C626
:1044AC002A8425372947B307E502B2408D83B3D759
:1044BC00870222449507B3D7E70237370040C2077B
:1044CC00C1832316F74041018280716541111305A8
:1044DC00052006C6D937B7370040130770F823817B
:1044EC00E7400D47A381E74013070004A380E74092
:1044FC0005472387E740B2404101828037370040AF
:10450C00834727401A0593F7F703C98F93F7F70FE3
:10451C002301F7408280B737004003C7174019C901
:10452C00D98DA380B74003C707401367870023804A
:10453C00E740828093C5F5FFF98DA380B740828058
:10454C0011456FF02FB2411193962500AA852D4588
:10455C0006C697C0FF1FE7806011B24001454101BC
:10456C008280411126C29394250022C44AC02A8419
:10457C003289A686AA850146254506C697C0FF1F27
:10458C00E780C00EA6864A86A285294597C0FF1FE4
:10459C00E780C00DB24022449244024901454101DA
:1045AC008280011122CC06CE3714004026CA4AC89C
:1045BC004EC652C483447405034AB405834984052A
:1045CC0003499405EFF0CF808347A40593F4F40FCF
:1045DC00137AFA0F93E71700230DF40493F9F90FEC
:1045EC001379F90FB717004003C7A705058B6DFFAB
:1045FC0003D5C705A38D4705238C3705A38C270549
:10460C00A38B9704F2406244D2444249B249224AF5
:10461C000561828041119397050122C406C6C187AA
:10462C002E8463DB07002D2E11C1D1242165218D31
:10463C00B24022444101828093F7150013C5150046
:10464C00E5FB9397250163D00702EF502111CD3D77
:10465C0037F60200130606E0896503C58185EF0075
:10466C00607C0965E9B7939715010145E3D207FC16
:10467C00175502001305C526EF30323213060064BD
:10468C00916503C58185EF00E07911654DB71D710A
:10469C0049469755020093852520175502001305AE
:1046AC00A54886CE97C0FF1FE780E03B01E9175570
:1046BC0002001305A51FEF30522E01A0B7F600E043
:1046CC00795798CAFD57DCCA0567B7E700E023A005
:1046DC00E7101306F00290C223A0E71801000100B6
:1046EC001306C0038145480897C0FF1FE78020329E
:1046FC0097E7FF1F938707D63ECA89679387078082
:10470C00231CF100B5472304F102A167938707E04E
:10471C003ECEB7070105938707103ED0ED47231215
:10472C00F10285472303F102970700009387E7E125
:10473C00BEC497070000938707E3BEC685679387BF
:10474C0017D02315F10297070000938767CF3EDA45
:10475C00B7F50700970700009387E7E43EDE814634
:10476C0097070000938707DE7000E1051945BEC06E
:10477C0097C0FF1FE78080EF58088147994670006B
:10478C003E960346060085070507A30CC700E39871
:10479C00D7FED24791C70357810185676373F70032
:1047AC0001A04808EF001042AA8501C91755020064
:1047BC0013050511EF30320A01A0F6402561828005
:1047CC00411117050000130525E506C622C4EF00AC
:1047DC00B03B138481852300A400112803450400F9
:1047EC002244B240130600328965410125AD4111C6
:1047FC0006C6F3270080A18B1387418589CBF3274D
:10480C00008023AAF1841C43DD9B73900780010078
:10481C000100B7170040930670052380D704930658
:10482C0080FA2380D7040100010083C6F70293F6B7
:10483C00A60FA387D70223800704F32600801C430E
:10484C00A18BD58F7390078023AA018401000100EE
:10485C00F3270080A18B89CBF327008023AAF18456
:10486C001C43DD9B7390078001000100B7170040CB
:10487C00930670052380D704930680FA2380D7040F
:10488C000100010083C6F70293E62600A387D70236
:10489C0023800704F32600801C43A18BD58F7390D3
:1048AC00078023AA0184010001000545EFE0DFD455
:1048BC00EFF01FC91305407E81470147814605462D
:1048CC008545EFE0FFD9B240014541016F005064CE
:1048DC0023AC05FE1C4191E7010001000CC1828054
:1048EC00BA8703A787FF6DFF23ACB7FE82801DC17B
:1048FC008346E5FF1307F00F9147639EE6004111D5
:10490C0006C697D0FF1FE7802002B24081473E8544
:10491C004101828095473E85828001E90145828074
:10492C000145B24022444101828095654111938535
:10493C0005D022C4C98D2A842105C2054205C18136
:10494C00418106C697D0FF1FE780E0F071D9FD5773
:10495C0023200500231285002303F5002105D1B780
:10496C0017F7FF1F1307C7331C43411122C426C27C
:10497C004AC006C601440149BA8489E7A165E92504
:10498C001DC401A803C7E7FF631AA7020DCCA165DC
:10499C00012E9840832784FF6319E40217F7FF1F49
:1049AC002320F730FD57232C04FE230FF4FE228521
:1049BC00B2402244924402494101828011E03E8976
:1049CC0083A787FF5DBF3E84E5BF232CF9FED9BFCB
:1049DC00B1CD411122C406C62A8497F7FF1F83C7A5
:1049EC00772C2E856375F400894763E887000137BF
:1049FC000D45B24022444101828083A785FF99E78F
:104A0C0003C7E5FF9307F00F6305F700CD35154598
:104A1C00CDB7238F85FE17F5FF1F130565284D3D78
:104A2C0022852244B240A16541019DAC154582808E
:104A3C0097F7FF1F23A60726828097F7FF1F938700
:104A4C00A72B9C4399E33E85828003D727006316EE
:104A5C00B70003C70700E308A7FEDC47E5B7C9C1E9
:104A6C00797122D406D626D24AD04ECE0144414783
:104A7C00B3D78540858BA5C31205314722953305E5
:104A8C00E50297F7FF1F9387272B03A9070085449F
:104A9C00B3948400C204C180BE892A9903270900FB
:104AAC0011C7032549002EC60297B245314733047E
:104ABC00E40283A709003E941C4489E723200900E3
:104ACC0023220900B2502254A58D02599254F24966
:104ADC002E85456182800504E31CE4F88144DDB732
:104AEC002E85828041111397050122C406C626C269
:104AFC004AC041872E84635E07009D3511C1C53BBA
:104B0C00A1673D8C2285B240224492440249410166
:104B1C008280EDD9AA8701474146B356E440858A85
:104B2C008DCE9207BA97B146B387D70297F6FF1F7F
:104B3C009386862003A906008544B394E400C2043E
:104B4C00C1803E99832709000325490082972320C1
:104B5C00090023220900258C75B70507E31FC7FA46
:104B6C008144D5BF97F7FF1F938747199C53411179
:104B7C0022C406C61384018199C782971C403E95B6
:104B8C0023A8A18039A097F7FF1F938767169C4332
:104B9C00EDF70840B74703009387D73F3305F5027D
:104BAC00B7A72600938737ECB24022443E9523A842
:104BBC00A180410182807DC197F7FF1F9387471326
:104BCC009C43797122D426D24AD04ECE52CC56CAAE
:104BDC005AC806D65EC63A8AB689328BAE8A2A89FC
:104BEC00829797F7FF1F938727159843BE8401443C
:104BFC00B146C147B30BD40233067701104251EAD8
:104C0C00C165938505F0414597D0FF1FE780A0C48F
:104C1C001DE597F7FF1F9387670E9C5B2D4589C792
:104C2C001145814582972D45B25022549254025918
:104C3C00F249624AD24A424BB24B4561828097F7A5
:104C4C00FF1F9387670B984329E397F7FF1F23A553
:104C5C00A70A230005009C4005473317870023262D
:104C6C000500232465012311E50023224501DE976D
:104C7C0023A0270123A2570123A447010145E38563
:104C8C0009FA238089004DB73E875C47F5FF48C77A
:104C9C00C9B70504E310F4F6214579B709458280BC
:104CAC0097F7FF1F83C717006371F50217F7FF1FF4
:104CBC00130747049317150008433E9583570500C7
:104CCC00DD8D2310B500014582800D45828097F75C
:104CDC00FF1F83C737FD6373F50217F7FF1F130719
:104CEC00670193171500084393C5F5FF3E9583574D
:104CFC000500FD8D2310B500014582800D45828095
:104D0C00130705FF1377F70FFD4763EAE70AB14670
:104D1C00B306D50297F7FF1F93870702984389477D
:104D2C003697184351CF011122CC4EC605449359E6
:104D3C0045003D893315A40013140501418026CA92
:104D4C004E85AE84A2854AC806CEEFF01FCF2A89C5
:104D5C00814731CDA2854E859D3F97F7FF1F9387E5
:104D6C0027F99C43829797F7FF1F83D7E7FD33877B
:104D7C0097022A84814613060064B3B79702130581
:104D8C000732B335E500BE95EF20E26CB307850022
:104D9C0097F6FF1F9386C6FA3E87D44263E4A700BA
:104DAC0063E4D7003387D7402324E9008147F240DE
:104DBC006244D2444249B2493E85056182808947AA
:104DCC003E858280011126CA06CE22CC4AC84EC628
:104DDC00BD47894463E0A70431473307E50297F7E1
:104DEC00FF1F938767F59C438944BA979C439DC3E7
:104DFC0005443314A400420441802E890145A28548
:104E0C00EFF0BFC3AA89814411C5A2850145C13504
:104E1C0023A42901F240624426854249D244B24976
:104E2C000561828097F7FF1F83C7D7E76364F5009E
:104E3C0001458280011197F7FF1F938767EB56C2DC
:104E4C0083AA070006CE22CC26CA4AC84EC652C434
:104E5C00638E0A0A17FAFF1F130A8AEE83244A008C
:104E6C00B74736FE938707C8AE8997F5FF1F83D5E2
:104E7C00A5EDBE94B387C5022A8432898146B3B5A9
:104E8C00C50213850732B337F50013060064BE95CF
:104E9C00EF20625C63ECA406829A97F5FF1F83D522
:104EAC00A5EAB3872503AA84130600648146B3B52B
:104EBC00250313850732B337F500BE95EF20A259B1
:104ECC00B3079500BE8403274A0063E4A70063E49C
:104EDC00E700B384E740CE852285EFF01FB601C50D
:104EEC0004C505452DA0936504F0C205C18141455B
:104EFC0097D0FF1FE780209605E597F7FF1F938754
:104F0C00E7DF9C5B81C7A285114582970145F24082
:104F1C006244D2444249B249224A924A0561828093
:104F2C0097F7FF1F938747DD9C439DE397F7FF1F80
:104F3C0023A4A7DC85472326050004C523113501CE
:104F4C0023008500A300F5002322050059BFBA8772
:104F5C00D84775FFC8C7F9BF59C9797122D426D271
:104F6C004AD04ECE52CC56CA5EC662C466C206D673
:104F7C005AC83689328AAE89AA844144314C97FA90
:104F8C00FF1F938A6ADB854C930B0003330B84035E
:104F9C0003A70A005A971C43B1E79375F400B39525
:104FAC00BC0013554440C2055286C1811375F50FE0
:104FBC00953D0DC983A70A000145DA9784C323A246
:104FCC0037016304090023008900B2502254925423
:104FDC000259F249624AD24A424BB24B224C924C91
:104FEC00456182800504E31374FB2145F9BF094533
:104FFC008280411122C426C24AC006C62A842E8948
:10500C00B2840D35CA852285EFF03FA305CD97F507
:10501C00FF1F83D565D3B38795022A8413060064DA
:10502C008146B3B5950213850732B337F500BE95AB
:10503C00EF20624248C00145B240224492440249EA
:10504C00410182802145CDBF411122C426C24AC0F4
:10505C0006C62A892E84EFF05F9EAA8419C12311FB
:10506C000500A2854A85EFF09FC697F7FF1F83C7FF
:10507C0067C3639B270197F7FF1F83D727C75D8CF7
:10508C0097F7FF1F239487C6014591E01945B2405D
:10509C00224492440249410182809307F00263E862
:1050AC00A7044111B14722C43304F50226C297F478
:1050BC00FF1F938464C89C4006C6A29798438947F7
:1050CC000DC39377F5008545B395F500C205C181F5
:1050DC0011819D3F9C40A29723A0070023A20700AB
:1050EC008147B240224492443E85410182808947E7
:1050FC003E858280411106C622C4EFF01F9411E553
:10510C000145B24022444101828097F7FF1F9387EB
:10511C0027BE9C430045829797F7FF1F938747C292
:10512C006368A402D843B74636FE938606C8330597
:10513C00A4403697E376E5FC13070064B335E5022B
:10514C0003D6870081463305E502EF20C23055BFF8
:10515C00D8433A94C1BF411122C426C217F4FF1F91
:10516C00130404BE97F4FF1F9384C4B394485840AF
:10517C0097F7FF1F9387C7B706C69C436393E60850
:10518C0082975440B74736FE938707C8B697338744
:10519C00A7003A856364F7006364D7003305D740F2
:1051AC0097F4FF1F938444D39C4C81CF97F7FF1F38
:1051BC00938787D994433707CDFF7D179C46F98F8A
:1051CC009CC611E1484097F7FF1F938727B3DC5328
:1051DC00829719E59C4C8DC3EF40C16EEF30514462
:1051EC009C4C99CB97F7FF1F938707D69843B7062C
:1051FC0033001C47D58F1CC7B24022449244410156
:10520C0082808297984897F7FF1F83C777B05440E6
:10521C001D8FB307A7003E8563E4E700E3E2D7F8F0
:10522C003385D740B5BF411106C697F7FF1F23A79B
:10523C00A7B00295B24097F7FF1F23A1A7A801457D
:10524C0041018280994763E9B7008A0597F7FF1FF0
:10525C00938707A8BE9588C182804111714681450C
:10526C0017F5FF1F1305C5A606C697F7FF1F23A545
:10527C0007A897F7FF1F23A307AC97F7FF1F23A9D6
:10528C0007A697B0FF1FE780807813068002814540
:10529C0017F5FF1F130505A197B0FF1FE7802077B7
:1052AC00EF90F17497F7FF1F83C7B7A613D52700AC
:1052BC008D8B3E958D473305F50285453905137564
:1052CC00F50F97F7FF1F2380A79E99473305F5022B
:1052DC001305052497C0FF1FE780E05717F7FF1F42
:1052EC00232CA7A459CD994717F6FF1F0346A69B5D
:1052FC003306F60281451306062497B0FF1FE7809C
:10530C00007197F7FF1F938727A39C43938707246C
:10531C0017F7FF1F232CF79A17F7FF1F0347A798C0
:10532C000A07BA9717F7FF1F2326F79CEFF04FF0E9
:10533C000D2B97F7FF1F93876799944397F7FF1FE0
:10534C0083C7579613972700369717F6FFFF130658
:10535C00467110C3138717001377F70F0A07369798
:10536C0017F6FFFF1306467810C31387370089071B
:10537C0093F7F70F8A0797F5FF1FA385E592B6976A
:10538C0090C3B2404101828097F7FF1F83C797916A
:10539C0017F7FF1F0347279163F3E70217F7FF1F68
:1053AC001307C79218439386170017F6FF1FA30B1A
:1053BC00D68E93962700369708C33E858280930736
:1053CC00F00FE5BF1C41638B071641777D8FB70645
:1053DC00002089476315D71603574500630107164C
:1053EC00411122C419462A849305F00F690506C69B
:1053FC0097B0FF1FE780C06B05478D47630BE51225
:10540C001C4481CB5858994763050712185C6302FA
:10541C0007121306C003814517F5FF1F1305058EF0
:10542C0097B0FF1FE780A05E1306C003A28517F597
:10543C00FF1F1305A58C97B0FF1FE780C05917F706
:10544C00FF1F0357678C97F7FF1F9387278B19E76D
:10545C001307001097F6FF1F2398E68A17F7FF1F14
:10546C000347A78A11E7054797F6FF1F238FE688A6
:10547C0017F7FF1F0357878911E76D4797F6FF1F33
:10548C002396E68817F7FF1F0347378811E7154760
:10549C0097F6FF1FA38BE68617F7FF1F0347278797
:1054AC0011E7054797F6FF1F2383E68617F7FF1FC3
:1054BC000347F78519E703C7F70097F6FF1FA38883
:1054CC00E68417F7FF1F0347A78411E7354797F6C4
:1054DC00FF1F238FE68217F7FF1F0347B78319E7D8
:1054EC001307800297F6FF1FA386E68217F7FF1FAC
:1054FC000347178219E71307D00297F6FF1FA389FA
:10550C00E6800347840119E71307C00397F6FF1FD2
:10551C002382E6809C5791C7829797E7FF1F2397BA
:10552C00A778FD5717F7FF1FA302F7A8EFF0FFD2DC
:10553C008147B24022443E854101828089473E85A5
:10554C00828001114EC697E9FF1F9389697F83A75B
:10555C00090006CE22CC26CA4AC852C48297130927
:10556C000064B335250303DA89008146528633057E
:10557C002503EF10526E97E7FF1F9387A772804F9A
:10558C00AA8401456306940233858440636E9400BB
:10559C0003A5490052868146B335A9023305A902F9
:1055AC00EF10726B018D269597E7FF1F23A897705C
:1055BC00F2406244D2444249B249224A0561828097
:1055CC00011122CC0A852E84414697450200938511
:1055DC0025DD06CEEF20D21C180806043A9403559C
:1055EC0004FF97E7FF1F83D74776F2406244AA97E0
:1055FC0037450F00130505243355F50205618280EC
:10560C0097E7FF1F83D7677451471D45637CF702EB
:10561C00794719456378F70213072003154563731F
:10562C00F7021307B0041145637EF7001307400619
:10563C000D456379F7001307600909456374F7009A
:10564C0013B5B70F8280011122CC06CE2A842EC648
:10565C00EFF04FD1B245F240818D33A5A5022295D2
:10566C0062441375F50F05618280011122CC06CEC0
:10567C002A842EC6EFF00FCFB245F240818D33A5B0
:10568C00A502229562444205418105618280011187
:10569C0022CC06CE2A842EC6EFF0CFCCB245F240F7
:1056AC00818D33B5A502229562440561828097E70E
:1056BC00FF1F9387A764985739CB411122C426C288
:1056CC0006C6BE84029717E7FF1F0357275E2A847E
:1056DC0015CBBA876373A700AA87C207C183BA86A2
:1056EC006373E400A286C206C182958F5147635B47
:1056FC00F700DC5491C38297EF40410697E7FF1FF8
:10570C002396875AB240224492444101828082807F
:10571C0097E7FF1F9387875EDC57011106CEAA859A
:10572C0081C72AC68297B245C1C59C410545B5CFF4
:10573C00DC41A5CF83D78500ADCB83D7A500B5C7FA
:10574C0083C7C500BDE3414617E5FF1F1305455F41
:10575C0097B0FF1FE780202897E7FF1F9387475ECE
:10576C009C4317E7FF1F2325F75897E7FF1F83C7B5
:10577C00775A8DE79307800217E5FF1F0355C55C29
:10578C003305F50237460F00130606248146814582
:10579C00EF10724C97E7FF1FA38EA756170500005A
:1057AC00130565DAEFF03FA80145F24005618280F0
:1057BC0097E7FF1F83C7E7551397870161876354EA
:1057CC00070497E7FF1F23AD074E97B7FF1F93877B
:1057DC00876317E7FF1F2325F7567D5797E7FF1FB2
:1057EC0023A2E756B7873200938727A197E6FF1FBE
:1057FC0023ACF65497E7FF1F238A0754B7C7004022
:10580C0023A4E72691BF13F7170005CFB787200312
:10581C00938707D017E7FF1F2328F752B707C0A8B5
:10582C0017E7FF1F2320F75297B7FF1F9387C76017
:10583C0017E7FF1F2326F75097E7FF1F2388075012
:10584C0021BF617797E6FF1F2390E65081CB93072A
:10585C00003217E7FF1F231AF74EC9B7930720032F
:10586C00CDBF011122CC17E4FF1F130424490844B7
:10587C0006CE26CA4AC801E90545F2406244D24424
:10588C004249056182805C58E5DB185C75D7700075
:10589C00854582971844B247E300F7FE9305E00470
:1058AC0017E5FF1F0355454697C0FF1FE780A0FA79
:1058BC0017E7FF1F2328A74061D117E6FF1F0356E8
:1058CC00A6449305F00F97B0FF1FE7804014814466
:1058DC0017E9FF1F1309093D97E7FF1F83C7E7422D
:1058EC000326090263C1F402328597C0FF1FE780CB
:1058FC00A003014597E7FF1F23A6073C97E7FF1F6F
:10590C0023A4073C9DBF97E5FF1F83D5E53FB387D5
:10591C0095020844185C898185043E9508C202975B
:10592C0065BF011156C297EAFF1F938A2A3D83A7D0
:10593C008A0022CC4AC84EC606CE26CA52C45AC0C9
:10594C00AA892E8432896385072203A74A03630739
:10595C0007147D476366A71497E4FF1F9384843470
:10596C0003AA040263170A0A9565938515E017E5E7
:10597C00FF1F0355653997C0FF1FE780C0ED97E700
:10598C00FF1F23A1A7342A86630A051083A74A03A5
:10599C0003A58A0097E5FF1F83D505378981829778
:1059AC0083A78A0003AA040217E7FF1F232EF730F0
:1059BC008947639CF908C1476312F40E97E5FF1FF2
:1059CC0083D58534938505FC9147B3C5F5028A05CB
:1059DC00D29503C705009307A005631DF70A83C77B
:1059EC0015006399370B4A852286910597B0FF1FE6
:1059FC00E78060FE9C505285639347150145F24049
:105A0C006244D2444249B249224A924A024B05614D
:105A1C008280D850E38EE7F89565938525E017E5ED
:105A2C00FF1F0355652E97C0FF1FE780C0E22A8A2F
:105A3C0035C52A8683A74A0303A58A0097E5FF1F6D
:105A4C0083D5852C89818297A5B78D47639DF900F5
:105A5C00C1476315F40497E5FF1F83D5E52A9385A9
:105A6C0045FDF199B5B79147639AF9006318340372
:105A7C0097E5FF1F83D54529A115E5B7C147639F5E
:105A8C00F900A14763EC870097E5FF1F83D5C52775
:105A9C00C115C1BF9C5052856397470D294585B7E9
:105AAC001307F006568B6361A70A130A05FE194704
:105ABC00334AEA0217E7FF1F0357072597EAFF1F30
:105ACC00938A4A1E330AEA023E9A83A74A026395D6
