:040000006F20A02F9E
:100004000000000000000000E2030000E403000020
:1000140000000000F82200000000000000000000C2
:10002400F8220000F8220000000000000000000098
:10003400F822000000000000F82200000000000088
:10004400F8220000F8220000F8220000F822000044
:10005400F8220000F8220000F8220000F822000034
:10006400F8220000F8220000F8220000F822000024
:10007400F8220000F8220000F8220000F822000014
:10008400F8220000F822000054140000F8220000B6
:10009400F8220000F8220000F8220000F8220000F4
:1000A400F8220000F8220000F8220000F8220000E4
:1000B40092120000F8220000F8220000F82200004A
:1000C400F8220000F8220000F8220000F8220000C4
:1000D400F8220000D40500005406000018110000A6
:1000E400F8220000F8220000F8220000F8220000A4
:1000F400F8220000F8220000F8220000F822000094
:1001040000000000F8220000F8220000F82200009D
:10011400F8220000F8220000F8220000F822000073
:10012400F8220000F8220000F8220000F822000063
:10013400F8220000F8220000F8220000F822000053
:10014400F8220000F8220000F8220000F822000043
:10015400F8220000F8220000F8220000F822000033
:10016400F8220000F8220000F8220000F822000023
:10017400F8220000F8220000F8220000F822000013
:10018400F8220000F8220000F8220000F822000003
:10019400F8220000F8220000F8220000F8220000F3
:1001A400000000000000000000000000000000004B
:0C01B4000000000000000000000000003F
:1001C000397101436EC619A0397141536AC866CAB4
:1001D00062CC5ECE19A0397101535AD056D252D496
:1001E0004ED64AD826DA22DC06DE3301614082820E
:1001F00041114AC026C222C406C68282B24D4101C4
:10020000024D924C224CB24B4101024B924A224A7F
:10021000B2494101024992442244B24041018280E4
:100220003D432A876373C3029377F700BDEFADE5C3
:10023000937606FF3D8ABA960CC34CC30CC74CC7D5
:100240004107E36BD7FE11E28280B306C3408A0602
:100250009702000096966780A6002307B700A306C2
:10026000B7002306B700A305B7002305B700A30412
:10027000B7002304B700A303B7002303B700A3020A
:10028000B7002302B700A301B7002301B700A30002
:10029000B7002300B700828093F5F50F9396850091
:1002A000D58D93960501D58D61B79396270097025A
:1002B000000096968682E78086FA9680C1171D8F89
:1002C0003E96E374C3F8A5B73367B500FD530D8BB5
:1002D00079E7B7877F7F9387F7F710419441B3722F
:1002E000F6003363F600BE92B3E262006395720CCF
:1002F0006318D6065041D441B372F6003363F6005A
:10030000BE92B3E262006396720A631BD604104584
:100310009445B372F6003363F600BE92B3E2620016
:10032000639F7208631ED6025045D445B372F6002F
:100330003363F600BE92B3E2620063987208631101
:10034000D60210499449B372F6003363F600BE92A8
:10035000B3E26200639172085105D105E30FD6F64E
:100360001317060193970601631CF7001357060144
:1003700093D706013305F7409375F50F91E9828015
:100380004183C1833305F7409375F50F91E1828076
:100390001377F70F93F7F70F3305F740828010219B
:1003A0009421050585056313D60075FA3305D640FB
:1003B000828011059105E314D6FE01458280210556
:1003C000A105E31ED6FC014582803105B105E31885
:1003D000D6FC014582804105C105E312D6FC0145EA
:1003E000828001A0B707EFBE37E700E093870708D8
:1003F0003CC701A0EFF25FDD1165797185451105FC
:100400003714014002CA02CC02CE02D002D202D47A
:1004100002D602C602C8EF20C0638D4493070020B5
:10042000E14B4C0813050480FC8226CC5ECEEF2005
:1004300060339307004011494C0813050480FC8287
:10044000374A01404ACEF169EF20C0319389092033
:10045000370B0C000C1013050A804ED05AD402D270
:1004600023160102EF20807513050A8005469305C7
:100470005052EF20007F05469305404213050A8045
:10048000EF20207E93075013854A7C8668008547BD
:100490005C8756C8EF20203B13050A808545EF2076
:1004A000E07A854537050200EF20805C85451145DF
:1004B000EF20205A4C0813050480231A210126CC72
:1004C0005ECEEF20202AA1474C0813050480FC8251
:1004D0004ACEEF2020294ED0B74900400C1013859A
:1004E00009405AD402D223160102EF20206D138551
:1004F0000940054693055052EF20A0760546930526
:10050000404213850940EF20C075930760136800CF
:100510007C862307510156C8EF20E032138509403D
:100520008545EF20A07285455145EF208052414A14
:100530004C0837150140231A41014ACEEF20802292
:10054000930900024C0837150140231A31014ACEA5
:10055000EF20402141494C0813050480231A410132
:100560004ACE26CCEF20002013050480C145EF20A1
:10057000002C4C0813050480231A31014ACE26CCE6
:10058000EF20401E1305048093050002EF20202A6F
:10059000930700044C0813050480FC824ACE26CC45
:1005A000EF20401C1305048093050004EF20202851
:1005B000930700084C0813050480FC824ACE26CC21
:1005C000EF20401A9305000813050480EF20202631
:1005D00045613DB1411126C4B744014093055052D5
:1005E0001385048022C6EF20206C05C51384418842
:1005F0001A20930770021385048063E8E704EF2054
:10060000206A1A20930717001EA0938781A3BA9728
:1006100088A3B74401409305404213850480EF202E
:10062000A06819CD13850480EF208067138441886A
:100630000E2099C513850480EF2000662310040066
:100640003244A244410173002030EF206065231042
:100650000400C1B7411126C4B7440040930550526D
:100660001385044022C6EF20206405C513846188E9
:100670001A20930770021385044063E8E704EF2013
:1006800020621A20930717001EA0938701A6BA972D
:1006900088A3B74400409305404213850440EF20EF
:1006A000A06019CD13850440EF20805F138461881A
:1006B0000E2099C513850440EF20005E231004002E
:1006C0003244A244410173002030EF20605D2310CA
:1006D0000400C1B7B7070460F917BE234111C20770
:1006E000C1837C8728874101828003D701A9B7078E
:1006F0000460239FE7FE8280938781A8D623256725
:10070000130717346396E602B227B7060460239FE7
:10071000C6FE1356850092A21375F50F8AA2DE2736
:10072000239FF6FE93D785009EA293F5F50F8EA228
:100730008280138781A86C235623054625679387FB
:1007400081A8130717346399C5046399E6041D470C
:100750006366A7001387C1833A9508217D15137539
:10076000F50F9946014763E6A600138741843A9541
:100770001821B706046013056003239FA6FE936546
:1007800087008EA2137707029623B22309CB63FA60
:10079000C60092A3B6A331A0E382E6FC8280E36A9E
:1007A000D6FEB62737060460231FD6FE23100600A8
:1007B000231006009623FD1693D58640C205C181FD
:1007C0000EA293F6F60F16A2D627231FD6FE2310ED
:1007D000060023100600BE23FD1793D68740C206ED
:1007E000C18216A293F7F70F1EA24DBFEFF25FA0D2
:1007F000138781A85623938781A805E9370740010D
:10080000238307001307070F98C3256713071734BF
:10081000639AE60037072A001307C70298C7130731
:10082000B002DAA701453137F5B20547F8A337071B
:10083000F00013070714C9BFEFF29F9B41118545D4
:10084000114502C202C402C6EF20A020E17737148E
:1008500001407C82C1473EC64C008D471305048091
:100860003EC4EF103070A16513050480EF10307C9A
:1008700041014DB2EFF2DF97938781A89A23A2231B
:100880008145AA8401453304E402BD35B93D814761
:100890003707046063938700B5BA06A38507DDBFF9
:1008A000EFF27F931971371401407937A165130571
:1008B0000480EF10107813054006EFE0816A1305FD
:1008C0000480A165EF10B076854513050010EF2078
:1008D0006016854513058006EF20A0178D449167AB
:1008E000C149130504C08A857C804EC426C2EF101E
:1008F0007067F17793873773614A130504408A85DF
:100900007C8052C426C2EF10F06537250140930762
:1009100000F88A85130505807C8052C426C2EF103A
:1009200070641305044005698A852310210152C4AF
:1009300026C2EF10306313050440130909808A852D
:10094000231021014EC4056926C2EF10B061930542
:10095000098013050440EF10D06D85473EC6BD47A2
:100960003ECA9167BED87C00BEDCC8003C10BEDE2B
:1009700002C802CC02D202D402D626D802DA02DCA5
:1009800002DE82C082C282C482C6CEC882CA82CE41
:1009900082CC82D082D2CAD482D682DAEF10D04FF3
:1009A00085450145EF10305A13052003EFE0615BE8
:1009B000B7070460239F07FE313B938781A8130785
:1009C00015F0CAA34207C16741839387F7EF1384E9
:1009D00081A863E7E700A567938707306313F502F3
:1009E000B70704601307300D239FE7FEE5314AA0E7
:1009F000D5314AA0C53122054AA0E9395E205D8D76
:100A00004AA05A20A56793871734631CF71E370442
:100A100004601307F00C9307E4FF231FE4FE239107
:100A200007001306100CB2A313070003BAA3930622
:100A3000D00E231FD4FE93064006B6A38D46B6A360
:100A4000C946B6A393061008B6A39306800E231FCB
:100A5000D4FE93065008B6A3C146B6A39305A007DB
:100A6000AEA39305B00C231FB4FE93059003AEA371
:100A70009305C002AEA32391070093054003AEA3E4
:100A80008945AEA39305700F231FB4FE93050002A2
:100A9000AEA39305A00E231FB4FE2391070023915C
:100AA00007009305000C231FB4FEED45AEA3231FE2
:100AB000C4FE0546B2A39305500C231FB4FEBAA38F
:100AC000BAA31307700C231FE4FE1307700BBAA31D
:100AD00013076003231FE4FE13078004BAA3130760
:100AE000A003231FE4FE13075005BAA31307100B3E
:100AF000231FE4FE239107006947BAA31307600B85
:100B0000231FE4FEA945AEA31307200ABAA31307C7
:100B1000200F231FE4FE2391070013076002231F09
:100B2000E4FEB2A31307000E231FE4FE3D47BAA361
:100B30001305A002AAA313088002239107012148EC
:100B400023910701B9482391170123910701130845
:100B50004005239107011308900A23910701130808
:100B6000300423910701AEA3BAA323910700239178
:100B7000070023910700239107009305100E231F00
:100B8000B4FE23910700D545AEA3DD45AEA39D4538
:100B9000AEA3C545AEA31948239107011308B002BF
:100BA0002391070193086005239117019308C0035F
:100BB00023911701954823911701B6A3BAA3930671
:100BC000F003B6A3B6A3BAA3231F04FF2391070023
:100BD00023910700B2A3B6A3231FA4FE239107000D
:100BE00023910700239107001307F00EBAA3231FD8
:100BF000B4FE13058007EFE0C13693079002231F70
:100C0000F4FE0145E536371501409165130505C031
:100C1000EF10F04141657D15B13909616FF0EFDEEC
:100C2000138781A85623256713071734938781A854
:100C3000639AE60203D8A700B70604601387E6FFAD
:100C4000239F06FF13588500239006011375F50FA7
:100C50008AA2CA27239FA6FE93D6850036A393F5C2
:100C6000F50F2EA39627B7070460239FD7FE92A304
:100C70008280EFF2EFD493F4760093D73600B3344A
:100C80009000BE9493D71600B384F402130906FEB5
:100C90001379F90F4111930A40023146373B0200A4
:100CA000B72B0200372C020093F7F40F3EC0B30AB3
:100CB000590393174900AA892E8D3EC22E84814C78
:100CC000130B4B88938B4B29130C0CE23309C9028D
:100CD000138A81A8024693F7FC0F63E5C700410120
:100CE0006FF0CFD1B1476395F606B3872C01E29739
:100CF000130384008423931D030193DD0D011396D8
:100D0000840161866354060603D68188A2854E85D8
:100D10003AC636C43137A2463247050403562A0084
:100D2000420493971400418093F4F70FE379C4FAD7
:100D30003306A4416319D604850983570A00C20902
:100D400093D90901E3FDF9F8EA8D850C6E8459B752
:100D5000C1476396F6009247E697DE9751BFE14799
:100D6000E39FF6F6B3875C01DA9759B75DF7B707EB
:100D7000002003D6871EA2854E853AC636C44D355F
:100D80003247A24659BFE39C8DF6C1B7EFF2CFC3FD
:100D90002A96AE9613190601939906014111AE8465
:100DA0001359090193D909013A8A135B17002A8460
:100DB000930AE005937BF50F9023130706FE137744
:100DC000F70F63F5EA0041016FF08FC363662401FA
:100DD000D294C2045E84C1803EC6E3F634FF22850D
:100DE0000147D286A6857135B2475A9442044180A4
:100DF0008507D9B7EFF24FBD138AF6FF2A8CAE896B
:100E0000B28B3A8D135B17001374FA0F814C0149B2
:100E10009304F00FA94A631694046FF06FBEB38772
:100E200057037D171377F70FE31B97FEB3D7FB022A
:100E3000B3F7570313F6F70F6319090263D74C038F
:100E400085E70147EA861306000262855A9CCE8533
:100E5000420C7D14393D850C135C0C011374F40FA6
:100E60005DBF2287854775BF05490147EA8613069E
:100E70000603E1BFEFF24FB53304A6402A8BAE8CD8
:100E8000B384B640854B63478000814B01C4330473
:100E9000C540FD5B054C63479000014C81C4B384A1
:100EA000D5407D5C2289635394002689814A014A9A
:100EB0008149130D190063543D016FF06FB4939590
:100EC0000C0113150B010146C1814181229A893B16
:100ED000A69A63554901330A2A415E9B635559011D
:100EE000B38A2A41E29C8509C20993D90901E1B775
:100EF000EFF28FAD139B060113140501131A0601BF
:100F000093940501135A0A01135B0B014180C180C0
:100F1000B30B4401B38A6401C20BC20A93DB0B0119
:100F200093DA0A013A86D6855E85B30944413A8947
:100F3000C209FD3193D90901D685B38A64414A8635
:100F40004E85C20AF13993DA0A014A86D6855E8552
:100F5000C139D6854E85B30A9A00B30964014A8621
:100F6000C209C20A753993D9090193DA0A01330417
:100F700064414A86D6854E8542045D314180B38402
:100F800044414A86D6852285C2045939C1804A86A1
:100F9000A6854E8571314A86A685228551316FF02E
:100FA0002FA6EFF24FA3939716000D44AA892E8A1D
:100FB000B28AB6841D8C3A8921CF014915A04A8B8B
:100FC000DA8656874A86D2854E85050B1537E3D9D2
:100FD00064FF635B0400931729003E94190405091C
:100FE000E3DF24FD6FF06FA2B30799408A073E94B8
:100FF0002904FD14EDB75687A6864A86D2854E850C
:10100000C53D635A0400931729003E94190405094D
:10101000E3D324FFC1BFB30799408A073E94290454
:10102000FD14F5B7EFF22F9B797185453705040064
:1010300002CA02CC02CE02D002D202D402D602C62A
:1010400002C8EF10F02285452145EF10902037149B
:10105000014093070040FC820D49E1474C0813050D
:1010600004C04ACC3ECE056AEF10C06F93070A80D9
:1010700091494C08130504C0FC824ECEEF10806EDF
:10108000F167B7540040938707203ED00C10B70794
:101090000C00138504803ED402D223160102EF1007
:1010A000F03113850480054693055052EF10703BD4
:1010B00005469305404213850480EF10903A93074C
:1010C00070137C8685475C87680085473EC8EF10B3
:1010D0008077138504808545EF105037854521457D
:1010E000EF1030174C08130504C0231A41014ECEEF
:1010F000EF1040678967FC824C08C147130504C0A4
:101100003ECE4ACCEF1000668965130504C0EF108F
:10111000007245616FF06F8F411126C4B7540040D3
:10112000930550521385048022C6EF10F03705C591
:101130001384A1881A20930770021385048063E842
:10114000E704EF10F0351A20930717001EA09387CD
:1011500081A9BA9788A3B7540040930540421385EC
:101160000480EF10703419CD13850480EF105033D4
:101170001384A1880E2099C513850480EF10D03107
:10118000231004003244A244410173002030EF10C8
:10119000303123100400C1B7EFF28F850945EF10FD
:1011A000206AC52EEFD03156EFF08FEFEFF08FA40D
:1011B000953DED2831659305F0051305F53495202F
:1011C000130700802394E188EF60010DEFB0014226
:1011D000EFB0414B138501AC37490040B7440140A3
:1011E00037040020EFB0912A13090940938404804A
:1011F000130404014A8593058007EF10F029930535
:1012000080072685EF1050290545EFD06017EFC005
:10121000A0485C40014582971305C003EFD071548C
:10122000D1BFEFE2FFFC01112E84AA84854505455C
:1012300002CA02CC231E010002C602C8EF105003EE
:101240004C0837050040E484E082231D0100231B85
:101250000100EF10B0059305000237050040EF10C4
:1012600030120546854537050040EF1050109307B2
:10127000C0127C86680085473EC823070100EF1036
:10128000805C854537050040EF10F00C05616FE08C
:101290007FF8854537050040EF10101011C58545D2
:1012A00037050040EF10D01073002030EFE25FF4FC
:1012B00039711306000281450810EFE07FF685457D
:1012C000214502CA02CC02CE02C602C8EF106078E5
:1012D000854513050020EF10C0773165EF10605C85
:1012E0003715014089474C08130505C037240140D4
:1012F000FC8202CEEF10004713050440EF10C00837
:1013000089673ED60C10A54713050440230AF10255
:1013100002D002D202D402D8EF10000B854513058B
:101320000440EF10401D9D460546A54513050440A9
:10133000EF10C014854513050440EF10E012930729
:1013400020227C86680085473EC823070100EF10F5
:10135000804F05469305004813050440EF10200D0B
:10136000854513050440EF10800B814513050440AB
:10137000EF10C01D13050440EF10C00C930404408F
:101380002685EF10C00C6DFD130504403724014085
:10139000EF10600C930404402685EF10600C6DFD87
:1013A00013050440EF10001C2396A18821616FE013
:1013B0007FE60397C18881472A97634F070009CDCD
:1013C00005669306F6FFB6876358C700AA876305CC
:1013D000D50093170701C1833E858280EFE25FE16C
:1013E0001387418056233E234AA336A31EA3B697F4
:1013F000AA970D45B3C7A70285669386A6B43E8714
:10140000C207C18363F3D7003687FD779387674BA5
:10141000BA97C207C18313072024370400203E85F2
:101420006374F7001305202442054181EF00A26E8A
:10143000B737020083A5075EEFF05149B7370200C6
:1014400083A5475EEFF0B173EF00225B2305A41E76
:101450006FE05FDC411122C637240140930500484C
:1014600013050440EF10200C01CDD14513050440B5
:10147000EF10A009420541852D3F2397A188B93F70
:10148000372501409305004813050540EF10600B18
:101490003244410173002030B71702409843B70629
:1014A000FFF041111367170098C3D84337060200B5
:1014B000758FD8C39843B706F7FEFD16758F98C38E
:1014C0009843B706FCFFFD16758F98C3D843B7063F
:1014D00001FFFD16758FD8C39843B70600ECFD16C3
:1014E000758F98C33707FF0098C723A6070202C469
:1014F00002C69843C166558F98C3B7160240056768
:101500009C42F18F3EC6A24785073EC4B24781E7A1
:10151000A247E397E7FEB71702409C431397E70003
:101520006357070685473EC632478547631FF70462
:10153000B7170240D843B706C1FFFD16D8C3D8433A
:10154000D8C3D84313670740D8C3D843758FD8C3CF
:10155000D843B7062900558FD8C39843B706000172
:10156000558F98C3984393166700E3DD06FED84372
:10157000B7160240719BD8C3D84313672700D8C35E
:101580002147DC42B18BE39EE7FE4101828002C627
:1015900061BFB7160240D8421146318B9387C18094
:1015A000630BC7022146630DC70237177A00130782
:1015B000072098C337170240584311839376F700EA
:1015C0003707002013070700369714239843335733
:1015D000D70098C382803727B700130707B0D1BF61
:1015E000D842D442416649833D8BF18E13062700D1
:1015F00015CF3D47630FE6024147630FE6024547BB
:1016000081456313E6004146A1E2374702400327C4
:101610000780418B0DC737177A0013070720330661
:10162000C70290C3C1D99843058361B78145494634
:10163000E1BF85453546C9BF81453D46F1B73717FE
:101640003D0013070790E1BF371502405855931628
:10165000F700585563DF060411833D8B930617008E
:101660003727B700130707B03357D70298C354552D
:10167000A182BD8A8DE295463307D702058398C3C0
:1016800037170240585794433D8B050733D7E6027E
:1016900098C3984369B705456394A600E546E9BF3A
:1016A0003D456396A600D1463387E602C9BF890649
:1016B000E5BF3D8B930617003727B700130707B028
:1016C0003357D702F1B7EFE2BFB2371401402A898E
:1016D000A144130404C093178901E187054663C33D
:1016E00007000146930500022285EF10C014014651
:1016F000A1452285EF102014FD1406090546A145D9
:10170000228593F4F40F1379F90FEF10C012E1F46E
:101710006FE05FB0EFE2DFAD37140140AA8401460D
:10172000130504C0A145EF100011130504C00146C4
:1017300093050002EF1020100146930500081305E1
:101740000440EF10400F2685BD3F1945EFD0017EC4
:101750000146A145130504C0EF10E00D0545EFD08B
:10176000E17C130504C00546A145EF10C00C13052C
:1017700004C00146A145EF10000C41498144130407
:1017800004C00146A1452285EF10E00AA14522854B
:101790000546EF10400A8604C204C1452285C18077
:1017A000EF10400801C58504C204C1807D1913797A
:1017B000F90FE31809FC37150140054693050008A9
:1017C00013050540EF10200713D544006FE09FA4D8
:1017D000EFE27FA0411140002A8A9309E100A28430
:1017E00022895285053F8AA08904E39C34FF8547FE
:1017F00015463E8793161700CA960E208A226374F8
:10180000B5000AA08EA2050793160701C182E393D3
:10181000C6FE85070904E39EC7FC28843C83AA977B
:1018200028854101AA97C207C1830D4533D5A70278
:101830006FE0BF9DEFE2DF9B2A8403C50181411168
:101840002EC67937AA8403C511815937B24506A03F
:101850008AA1054541016FE0FF9BEFE27F994111AD
:1018600085451305800237140140EF10801EE17793
:10187000930480044C00130504C07C8226C6EF004C
:10188000706E130504C0A165EF00707AC1474C006B
:10189000130504C07C8226C6EF00D06C130504C07B
:1018A000C145EF00D0789307000241498D444C00B8
:1018B000130504C07C824AC626C4EF00B06A130533
:1018C00004C093050002EF009076930700084C00D7
:1018D000130504407C824AC626C4EF00B068130595
:1018E000044093050008EF009074A1474C001305D5
:1018F00004C07C824AC626C4EF00D066130504C02B
:10190000A145EF00D07237050020130505019305AE
:10191000250141050537054541016FE0BF8FEFE225
:101920003F8D4111AA842E8428009305A100193708
:1019300009E5014541016FE0FF8D9305E100680075
:10194000D53D65D9308638846368C7009307160390
:1019500063D8E700E31FE6FC93071703E3CBC7FC5C
:1019600034873C8563E8D7009385160363D8F50078
:10197000E391F6FC93851703E3CDD5FA32970587FB
:10198000B6979AA085871EA005456DB7EFE25F86E2
:10199000AA8437150140A165130505C0370400204E
:1019A000EF0050681304040141E1B705002037053A
:1019B0000020938525021305050285C08D37830716
:1019C000440163C70700930700FC5CA81C485CC483
:1019D0004828137505086FE0FF8391376DD10A28F9
:1019E000EF0002070C4CEFF09119AA8403150402D2
:1019F000EF000206AA852685EFF0A136EFF0F17F11
:101A00000AA82A28EF00C2044C4CEFF05117AA8410
:101A100003152402EF00C203AA852685EFF0613486
:101A2000EFF0B17D2AA861BF5C2813978701618719
:101A30006356070093F7F7075CA859BFFD572326A5
:101A400004001CC871B7EFE20FF92A842394C188FF
:101A50001306D500511542064205AE8641824181EA
:101A6000AE84EFF02FC19386D400938544FF130A10
:101A7000140093891400C206C205C1822286228501
:101A8000C181420AC209EFF0EFBE135A0A0193D98D
:101A90000901CE85528501461309F4FFEFF04F98F6
:101AA000420913590901CE859389F4FF4A850146FD
:101AB000C209EFF0EF9693D90901CE855285014610
:101AC000EFF00F96CE854A850146EFF06F9503D66D
:101AD000818801479946A6852285EFF08FCC6FE07B
:101AE000CFF2EFE24FEF3E84BA84130700802394D5
:101AF000E188B73702004111AA8A2E8AB289368955
:101B00009387875E4147C1461306800C9305C00842
:101B10001305800246C442C6EFF04FA7B737020054
:101B20009387C75E4147C1461306800C9305C008E2
:101B300013058007EFF08FA5B73702009387075F83
:101B40004147C1461306800C9305000A1305800225
:101B5000EFF0CFA3B73702009387475F4147C146F5
:101B60001306800C9305000A13058007EFF00FA2FF
:101B7000B73702009387875F4147C1461306800C41
:101B80009305400B13058002EFF04FA0B73702001A
:101B90009387C75F4147C1461306800C9305400BEE
:101BA00013058007EFF08F9EB73702009387076019
:101BB0004147C1461306800C9305800C1305800233
:101BC000EFF0CF9CB7370200938747604147C1468B
:101BD0001306800C9305800C13058007EFF00F9B14
:101BE000B7370200938787604147C1461306800CD0
:101BF0009305C00D13058002EFF04F9956864147BB
:101C000091469305C00813050004EFF0AF9E52867D
:101C1000414791469305C00813050009EFF08F9DD9
:101C20004E86414791469305000A13050004EFF0E4
:101C30006F9C4A86414791469305000A13050009A7
:101C4000EFF04F9B2686414791469305400B1305C5
:101C50000004EFF02F9A2286414791469305400BEE
:101C600013050009EFF00F9932484147914642862B
:101C70009305800C13050004EFF0CF97A24841476D
:101C8000914646869305800C13050009EFF08F9668
:101C90000356010341478D469305C00D1305000609
:101CA000EFF04F9541016FE04FD6EFE26FD1416405
:101CB000FD475D717D571305F4FF2394F188B70745
:101CC00000202394E71EEFE0FFBA9307008013057E
:101CD000F4FF2394F188EFE0FFB9B7370200938750
:101CE00087624147C1461306800C9305800229454F
:101CF00023940188EFF08F89B737020093874764F8
:101D00004147C1461306800C930580032945EFF037
:101D1000EF87B7370200938707664147C14613062E
:101D2000800C930580042945EFF04F86B7370200F9
:101D30009387C7674147C1461306800C930580050A
:101D40002945EFF0AF84B737020093878769414791
:101D5000C1461306800C930580062945EFF00F83DA
:101D600013060480D1455145EFF0FFCD3704002024
:101D7000930704011307000098CF238A0700B737A1
:101D8000020003A7076283A74762014981443ED04E
:101D900082574EDA130404013ACE3AD23ED85C4060
:101DA000054582975C281307000493F6070C639B94
:101DB000E60293F7F7FB98085CA893972400BA977C
:101DC0001A28850493F4F40F2398E7FE3A28239900
:101DD000E7FE89476387F41863E2970285476382C9
:101DE000F416014929450509EFD0A11742091359F5
:101DF00009019307803EE3F427FBE5A98D47638A39
:101E0000F4189147E39FF4FC035A010483594104F9
:101E100003592104835A610433053A419357F5412C
:101E20003D8D1D8DB307594113D7F741B98F998F58
:101E3000B387F7023305A5023E95EFE0116CEFD0B2
:101E4000A115EFE0D165035B8104835BC104131D21
:101E500005018354A10433057B41035CE1049357DE
:101E6000F5413D8D1D8DB387844113D7F741B98F5F
:101E7000998FB387F702135D0D013305A5023E95D7
:101E8000EFE0B167EFD04111EFE07161931D050103
:101E90006A85EFF0514893DD0D01AA8C6E85EFF055
:101EA000313BAA856685EFF061222AD4EFF0915389
:101EB000B737020003A6876183A6C7612ADC2EDE3E
:101EC000EFE0610F634005026257F2577246825697
:101ED0003A85BE85EFE041036346A00063040D0030
:101EE00063910D0E938781A8AE2303D581A8C16CA1
:101EF000B1153115C20542051386FCFFC181418130
:101F0000EFF07FB4D145514513860C80EFF0BFB39D
:101F1000B737020083A5475E2255EFF04146EFF048
:101F2000D12D420541812AC0E2885E88A6875A8762
:101F3000D6864E86CA855285EFF0BFBA01498144E4
:101F4000B9BD41691306F9FFD1455145EFF0BFAF67
:101F500003D581A813060980D14531154205418179
:101F600035A003D581A8C1691386F9FF3115420553
:101F7000D1454181EFF03FAD138981A883552900F8
:101F8000138609805145B115C205C181EFF0BFAB81
:101F900089BD138A81A883552A0041691306F9FF78
:101FA000B115C205C1815145EFF0FFA983552A0043
:101FB00003D581A813060980B115C2053115C18169
:101FC00071BF33056A419357F5413D8D1D8DB307B0
:101FD000994013D7F741B98F998FB387F70233052B
:101FE000A5023E95EFE07151EFC0117B2AD43385F5
:101FF00079419356F541358D158DB3868A4113D6B7
:10200000F641B18E918EB386D6022ED63305A50247
:102010003695EFE0914EEFC031782257B2572A8DB6
:10202000AE8D3A85BE85EFE0914742054181EFF0E4
:10203000912EEE852AD46A85EFE0714642054181F2
:10204000EFF01121A257AA853E85EFF021082A8DD5
:10205000EFF05139B737020003A6876183A6C76145
:102060002AD42ED6EFD03175634C05002257B257D3
:102070001256C2563A85BE85EFD01169635EA00242
:10208000938781A8AE2303D581A8C16CB115311502
:10209000C20542051386FCFFC1814181EFF0BF9A62
:1020A000D145514513860C80EFF0FF99B7370200F8
:1020B00083A5475E6A8595B5338569419357F54198
:1020C0003D8D1D8DB3879A4013D7F741B98F998FF6
:1020D000B387F7023305A5023E95EFE01142EFC04A
:1020E000B16B2AD433057A419356F541358D158D60
:1020F000B306894113D6F641B18E918EB386D602CE
:102100002ED63305A5023695EFE0313FEFC0D168FA
:102110002257B2572A8DAE8D3A85BE85EFE0313811
:1021200042054181EFF0311FEE852AD46A85EFE048
:10213000113742054181EFF0B111A257AA853E85C2
:10214000EFE0D1782A8DEFF0F129B737020003A62E
:10215000876183A6C7612AD42ED6EFD0D165E3412B
:1021600005F22257B2571256C2563A85BE85EFD0B5
:10217000B159E347A0F083DA81A8938781A813853A
:102180008AFD03DB2700EFF0B10CAA8B33854941B0
:10219000EFF0110CAA855E85EFE05173AA8B08CC95
:1021A0005685EFF0F10A2A8C33053A01EFF0510A17
:1021B000DE85EFF0C11CAA856285EFF06145373AF4
:1021C000020083250A61EFF0811BEFF0E17C0AB089
:1021D00013058BFDEFF0D107AA8933852441EFF079
:1021E0003107AA854E85EFE0716EAA8948CC5A85E1
:1021F000EFF011062A8C33059900EFF07105CE85BA
:10220000EFF0E117AA856285EFF0814083250A612E
:102210008944EFF0C116EFF021782AB05E85EFF027
:10222000A1779357F5413D8D1D8D63CBA4004E855D
:10223000EFF081769357F5413D8D1D8D63DCA4064B
:102240009305CBFE1385CAFEC164C2054205138601
:10225000F4FFC1814181EFF00FFF13860480D14567
:102260005145EFF04FFEB73702009387876A414729
:10227000C1461306800CE94513058002EFE01FB14B
:10228000834444021387018193B714002302F402AC
:102290009387118189E8930600F914A3130700FDC1
:1022A00098A30149EDBC930600FD14A3130700F9A0
:1022B00098A369B152574164FD471305F4FF239475
:1022C000F188EFE02FDBB73702009387C76B4147F8
:1022D000C1461306800C9305E00613053002EFE0BB
:1022E000FFAA1305803EEFC0D1471305F4FFEFE0CE
:1022F0006FD861616FD09FF001A097E1FF1F9381BC
:10230000E16E17B100201301E14F17D5030013054B
:10231000A5D397E5FF1F9385E5CE1386418863FA21
:10232000C5008322050023A0550011059105E3EAAD
:10233000C5FE13854188978500209385659E637748
:10234000B500232005001105E36DB5FEFD42739035
:1023500002BCAD4273904280B76200009382820853
:102360007390023097E2FFFF938202CA93E2320039
:1023700073905230EFF04F9297F2FFFF938202E298
:102380007390123473002030EFD29FE6B7270140DC
:1023900093870740631CF500854513050020C52D74
:1023A000814513050020E5256FD0DFE6B7370140F2
:1023B00093870780E31AF5FE854513050040C12D7C
:1023C000814513050040C5B75C413707F1E01307AD
:1023D000F7EF944D7D8F9C41D58FD44DD58FD4414F
:1023E000A206D58FD98F5CC11C4537F7F1FF1307C3
:1023F000D77FD4457D8F9C49D58F94458606D58F50
:10240000D98F1CC55C55370710FF7D177D8FDC29E0
:10241000FD1793F7F70FD207D98F5CD582801C4543
:1024200089C593E717001CC58280F99BEDBF5C410D
:1024300093F5F50F01C6DD8D4CC1828093C5F5FF84
:10244000FD8DDDBF1C4593E787001CC582800845D4
:102450000D81058982801C4593E747001CC5828059
:1024600008450981058982801C4589C52167D98F66
:102470001CC5828061777D17F98FDDBFA54763FB9F
:10248000B7048D47138765FF3307F7020328C5009C
:102490009D47B397E70093C7F7FFB3F70701B396DC
:1024A000E600DD8E54C5145D0906154793D7460135
:1024B0008D8BB307F64093F7F70FB387E7027D479D
:1024C0003317F7001347F7FF758FB395F500D98DD4
:1024D0000CDD82800D473387E502032805019D4707
:1024E000B397E70093C7F7FFB3F70701B396E6008A
:1024F000DD8E14C94DBF1C5D3707D0FF7D17FD155C
:10250000F98FD205DD8D0CDD8280411102C62AC60D
:10251000B24793878702BE952EC6B24788434101D2
:102520004205418182805841144193D78500F58F3F
:1025300099C713F5F50F798D3335A00082800145D9
:102540008280A18193C5F5FF0CC182805C4191C559
:1025500037070004D98F5CC18280370700FC7D17E4
:10256000F98FD5BFEFD2DFC801112A8423040100FF
:10257000A5441C8463F9F40423040100A546214604
:102580001C8463FFF6062315010023040100954611
:102590001C8463F1F60E38853C8599460D46B3F7E9
:1025A000D702056513050580B3D7C7023357D70295
:1025B000BA97C207C1837C853C8505611D8D4205A4
:1025C00041856FD03FC51C4493E787001CC422851A
:1025D000EFF0FFE76DFD1C4493E747001CC4228524
:1025E000EFF01FE86DFD78441C8414108607B69741
:1025F0002396E7FE1C84850793F7F70F5C8495BF4D
:10260000A30401009C846378F6001C84850793F77B
:10261000F70F5C84B5B798849C840C100607850777
:1026200086072E97AE970357C7FE83D7C7FE63FD75
:10263000E7029C848607AE9783D7C7FE7C859C847F
:10264000988485078607AE9783D5C7FE9317170032
:102650001810BA972396B7FE9C8438850C1085070E
:102660008607AE972396E7FE9C84850793F7F70FBE
:10267000DC8449BF1C841010388589078607B2970F
:1026800083D7C7FEBA97C207C1837C851C848507A0
:1026900093F7F70F5C84EDBD14455C415845032862
:1026A000C502D58FD98F1849370600A0D98F584950
:1026B000D98F184DD98F584DD98F1851D98F58515E
:1026C000D98F1855D98F1859B3E70701D98F1841F9
:1026D0000A073A961CC2A1476396F6001C4293E78C
:1026E00007041CC254598C4E9C42CD8FCC4292059B
:1026F000CD8F8C46A205CD8FCC46C205CD8F8C4A9E
:10270000D44AD205CD8FE206D58F5CC291676313A0
:10271000F802145D904E9C42D18FD042944612062E
:10272000A206D18FD58FB70600A0938646103697A4
:102730001CC38280B70700A0938747103E97B70756
:102740000010FD17F5B7B70700A00A053E951C411C
:1027500089C593E717001CC18280370710007917DD
:10276000F98FD5BF9C4513F7070113F8F70001C790
:10277000D8413368E8008E2113F7F50F39C31841AB
:102780008146854E3D4F930F800293028004214E77
:102790003396DE00B3F8C500631116039398260044
:1027A00033131F011343F3FF3377E300B31818010A
:1027B00033E7E800639FF70550C98506E39AC6FD35
:1027C00018C11307F00F6375B70454412146854EB5
:1027D0003D4F930F800293028004414EB398CE0088
:1027E00033F715016392E80213172600011733131C
:1027F000EF001343F3FFB376D3003317E800D98E0D
:10280000639DF701232A15010506E319C6FD54C18E
:102810008280E39457FA10C94DB7E39757FE2328F7
:102820001501DDB708456D8D3335A00082800CC9D8
:1028300082804CC9828019C20CC982804CC98280B6
:1028400023A8A188828003A70189894710216311E9
:10285000F70214318D4763EDD7003C219A0637E724
:1028600000E09607D58F93F7F70F32972300F740D4
:1028700054410547935756003317C70089CA9387B9
:1028800007048A07B7E600E0B69798C3828093876B
:102890000706B7E600E08A07B69798C30F10000056
:1028A0008280B7160240DC4251777D17F98F5D8D2B
:1028B000C8C28280371702405C439146B18B638562
:1028C000D706A1466387D706B7177A0093870720F4
:1028D0001CC1371602405C423707002013078703EC
:1028E0009183BD8BBA9794231C41B3D7D7005CC1A9
:1028F0005442A1829D8ABA969422B3D6D70014C5B9
:102900005442AD829D8A36971823B3D7E7005CC541
:1029100058423983937637001387418136971823BD
:10292000B3D7E7021CC98280B727B700938707B0E7
:1029300045B75C435843C166C983758FB7F6FF1F1F
:1029400083A6C670BD8B89071396160163480600DF
:10295000C54601466392D702C94739A88946638FA5
:10296000D702BD46638ED702C146638ED702C546E5
:1029700001466393D700C1471DEF37470240032745
:102980000780418B05C737177A0013070720B30765
:10299000F7021CC11DDE1C4185831DBF01466DBFB2
:1029A0000546B547D1BF0146BD47F9B737173D00CA
:1029B00013070790E9BFB7150240D8559316F700E3
:1029C000D85563DF060411833D8B93061700372724
:1029D000B700130707B03357D70218C1D455A182E7
:1029E000BD8A8DE295463307D702058318C1371794
:1029F0000240585714413D8B050733D7E60218C1F2
:102A0000184171B785456394B600E546E9BFBD45F9
:102A10006396B600D1463387E602C9BF8906E5BF93
:102A20003D8B930617003727B700130707B03357BE
:102A3000D702F1B799C5371702405C4B5D8D48CB83
:102A40008280B7170240D84B1345F5FF798DC8CB6C
:102A5000828099C5371702401C4F5D8D08CF828058
:102A6000B7170240984F1345F5FF798D88CF8280C4
:102A700099C5371702405C4F5D8D48CF8280B717EC
:102A80000240D84F1345F5FF798DC8CF828099C594
:102A9000371702405C475D8D48C78280B7170240F8
:102AA000D8471345F5FF798DC8C782801E21373777
:102AB0000140930607C0C207C1836300D504B7066F
:102AC0000040630CD502938606406308D502B71612
:102AD0000040138606806302C502938606C0630E1B
:102AE000D50013070740630AE500375701409306F6
:102AF00007C06304D5006316E500BA2193F7F7F821
:102B0000D98F37170040630CE500130707406308AF
:102B1000E50093F7F7CFFA21C207C183D98F1EA131
:102B2000DE215EB59E211EB5B7370140138707C071
:102B3000630EE50093870740630AF500B75701402D
:102B4000138707C06304E5006314F5009C251EB9D4
:102B500085475EA982801E2189C593E717001EA1C3
:102B60008280C207C183F99BC207C183CDBF5E25A6
:102B700001C6DD8D4EA5828093C5F5FFFD8DDDBFBD
:102B80005E21C207C18393F7F7F8C207C1835EA134
:102B90005E21DD8D4EA182801E294A25ED8F4205E2
:102BA000418189C76D8D3335A000828001458280C7
:102BB00093C5F5FFC205C1810EA98280EFD24FE314
:102BC0001629F577FD17F58FF621DA257971D58F5E
:102BD0001EA95625FD779387379FF58FD6212A8426
:102BE0002EC6D58F9625D58FB625D58F5EA55E29A5
:102BF000C207C18393F7F7CFD98F5EA96808EFF0BA
:102C00007FCBB747014093870780B245631EF4022C
:102C1000A2576547B387E7029841930640060A0723
:102C2000B3D7E70233D7D702B3F7D7021207920719
:102C300093872703B3D7D702BD8BD98FC207C18330
:102C40001EA445616FD00FDD9257E1B791C55E2597
:102C50000967D98F5EA582805A25F977FD17F98F0C
:102C6000D5BF13F7F50F85471583B395B7006319E3
:102C7000F7009307C500984301CED98D8CC382809D
:102C8000894693074501E318D7FE93070501E5B789
:102C900093C5F5FFF98DDDB793F5F51F4EA1828041
:102CA0004A211375F51F828013F7F50F85461583AA
:102CB000B397B6006311D7025A25F98F1A2101453F
:102CC0004207418381CB0545A181B315B5006D8FC6
:102CD0003335E000828089466314D7001A29F1BF9A
:102CE0005A29E1BF5E210A2185073385A7404205A5
:102CF000418582807E212A2185073385A7404205B0
:102D000041858280EFD2CFCE00410840EF60912113
:102D1000FD571EA4930745016319F4007E201EA1F0
:102D20000840EF40F1646FD0EFCE93070502E3193E
:102D3000F4FE7E207EA1EDB7EFD28FCB0EA5084129
:102D4000EF4011636FD00FCDEFD28FCA5D712EC6E9
:102D500032C43684EF60111D03178400FD57AA8426
:102D60002246B2456317F704831706005EA06EA0E3
:102D70000EA222858145EF90003E0808EF90E038D2
:102D8000B7370000938787D33ECA930700103ED819
:102D9000B7370000938747D03ECE839704010808D9
:102DA00022C83EDA02D402D6EF90004061616FD0B3
:102DB0006FC67E2065BFEFD20FC2A1472A84328939
:102DC000639CF5040422EF90503711E93735020077
:102DD000A28501461305456EEF90903601A022852D
:102DE000EF60511485C085476385F40223220900F2
:102DF00083A781894A86A14522858297AA84268550
:102E00006FD0AFC0130584022322A90075D1854479
:102E1000FDB713050503CDBF83A78189AE898297CE
:102E20008547AA84E31DF5FC9D47639AF900B735F1
:102E300002009385456F4A85EF60112FC1B799470E
:102E40006392F90885452285EF70D13D3E3813978E
:102E5000070141876353A700AA873EB849468145C9
:102E60002285EF50D11F4D4681452A892285EF509A
:102E7000111FAA89414681452285EF50511EAA841F
:102E8000454681452285EF50911DCE876353390118
:102E9000CA8713970701418763D3E400A687139776
:102EA000070141876353E500AA87C207C187E3D0C2
:102EB00007F603172403B307F04063D3E700BA878C
:102EC0003EB8B1B7E39509F485452285EF40312638
:102ED0002285EF6031052A8481455105EF90A027B6
:102EE000814513050402EF90002711BFEFD24FADCB
:102EF000094771716318E60083A7418982974D6184
:102F00006FD0CFAF2A842E8A63150624E808EFF02D
:102F1000901D1306300381452285EF50511419C1CD
:102F200023080106F008814522852300010A930C3D
:102F30000401EF60B121F008D2856685EFF0102022
:102F40002285EF60217E2A8D2285EF500124AA8DF3
:102F50002285EF40B10CAA842285EF40510E8346B2
:102F6000CD0203164D0003172D008D8A85452A8951
:102F70003308E6408148639CB600635A07006358F3
:102F8000C00083186D00B388E84093B81800494624
:102F90008145228546C442C2EF50710C4D468145A1
:102FA000AA8A2285EF50B10B414681452A8B2285A2
:102FB000EF50F10AAA8B454681452285EF50310A30
:102FC000A248124893098D00930784013EC0CE8623
:102FD000668710238247050790A28506E31BF7FE4C
:102FE00003578D008356AD00C20AC20B93DA0A0163
:102FF00093DB0B015697DE96131607019395060196
:103000000357CD008356ED00420B131C0501135BE3
:103010000B01135C0C0133076741B38686414207FD
:10302000C20641824183C181C1822314CD0023168F
:10303000ED002315BD002317DD0063CE24058506B2
:103040008D8EC206C1860D476340D70209473347BC
:10305000E90236283697420741839306E7FF0907BE
:103060002315DD002317ED000317CD0083158D0018
:103070000316ED008316AD0063D024150506158EEA
:103080004206B735000041861303AD001305ED007D
:10309000938545CF35AA0507118F420741878D4695
:1030A000E3C4E6FC094733C7E40216283697420713
:1030B00041839306E7FF09072314DD002316ED0083
:1030C00065B703176D003307E7413307C70233477E
:1030D0000703A9A283160D00B386E641B386C60294
:1030E000B3C6060351A22310B3001AA1DDAAB3860A
:1030F00005418506C206C18663DCE60016A183167B
:1031000005000317030063DEE61C2310D300F1BFA4
:103110001AA12310D300E5B70357ED008357AD0084
:10312000050739A4050B330B5B41420B135B0B41C5
:103130008D4763CC67318947B3C4F4021E28BE941F
:10314000C204C1809387E4FF8904FC8623109102A6
:10315000EDAC05476304E600014555B313063003A3
:103160008145EF50C16F6DD9E808EFF0C077F008E6
:10317000814522852304010623090108230D010648
:10318000230301082300010AEF60417CF008D28587
:103190001305040191A64E85829505476343A71444
:1031A00039A616218506B386C6412310D3001A21FD
:1031B0003307D7411AA1E5A8130617000D8E420662
:1031C000B735000041861305CD004E83938545CE6B
:1031D000031E8D027D57031F2D00E304EEEE03173F
:1031E0004D023307E7413307C702B346070303170E
:1031F0006D023307E7413307C702939E060193DE52
:103200000E4133470703420741873307D74133074E
:10321000C703130E00103347C7033697831ECD0133
:103220004207FD564187E387DEEA83168D01B386A8
:10323000E641B386C60233CE06038316AD01B386DC
:10324000E641B386C602131F0E01135F0F41B3C6DA
:103250000603C206C186B386E641B386D603930E43
:103260000010B3C6D603F296C206C186139E0601AD
:10327000931E0701135E0E0193DE0E01E3C324F3D8
:10328000054F639DED01B306C0413307D0411A8E4F
:10329000C20642072A83C18641877285035E030006
:1032A000F29616A18356030036972310E300E384B9
:1032B00008EE83162D008315050003170300B306DF
:1032C000D0403386C602334806034208135808012B
:1032D000E3CF24E1429742074187E356B7E023104A
:1032E000E300054681452285EF506157931D050196
:1032F00093DD0D012687635399004A874207418772
:1033000005876356B701931D070193DD0D01E8089A
:10331000EFF0605DF00885452285EF6021639396AC
:103320001D00E3CB24DF0357CD0083578D00050735
:10333000B307F740C207C18763D2F604034881068A
:10334000834601070347010AF008D2854E852A4DBE
:1033500042C636C43AC223040106230801062300EC
:10336000010A02C5EFF0805D3248A24612472304ED
:1033700001072308D1062300E10A6AC51E28139617
:103380000D018146D697FC825E2841864C08B387A2
:103390006741FC843E284810DE97FC837E28B38773
:1033A0008741FC85EFE0105F81454810EFE0D03F9A
:1033B00003480107834D010A2A8D230801062303D0
:1033C00001082300010AE687740890230247850755
:1033D00090A28506E39BE7FEBC8603552102BE9AB8
:1033E000BC87330C8541C20ABE9B83570102C20BC6
:1033F000420C338B6741420B93DA0A0193DB0B01DA
:10340000135B0B01135C0C01231E5101231F71017F
:103410002310610323118103E3C624D1050C330C6F
:103420007C41420C135C0C418D4763C08703894784
:103430003349F9023E283E9942091359090193077D
:10344000E9FF0909FC87231121030316C105814601
:10345000CE85880042C0EFE0F05381458800EFE060
:10346000B0349308C101AA84F0084685D285EFF0F4
:10347000E04C0248F008D2854E852308010723045A
:103480000106230301082300010A02C5EFF0004BE7
:103490002685EFE030386A85EFE0D037F008D28536
:1034A0004E852300B10B23080106EFF02049E80800
:1034B000EFF06043F00881452285230401062308CC
:1034C00001062303010823090108230D0106EF600B
:1034D000E147F008D2856685EFF04046B5B9EFC206
:1034E0003FD12A84AE843289EF90204511E93735E7
:1034F0000200A28501461305456EEF90604401A0CD
:103500002285EF602122831605006388D4047A2186
:103510003E211316070193950701C185418663D3A8
:10352000C500BA875A2113160701418663D3C40028
:1035300026879395070113160701C185418663D33A
:10354000C500BA8793950701C1856388B6006318E3
:1035500009000EA12285EF40A1616FC0BFCB930689
:1035600045012A862285EFF02FFEC5BFEFC2BFC6F8
:10357000AE89EF401143AA84EF90203C11E9373522
:103580000200A68501461305456DEF90603B01A042
:10359000A1C8138481891C4089E72685EF608113C7
:1035A00008C0138441891C4089E72685EF60011516
:1035B00008C0930580032685EF4081042A84EF909C
:1035C000C03711E937350200A28501461305456D64
:1035D000EF90003701A001E82685EF6001268144C5
:1035E00026856FC09FC2930740065CC09307800C7E
:1035F0001EA8FD575EAC1EB48347C4021309040322
:103600004A85F19B2306F4022320040044C8232C9E
:10361000040004D023220402EF80414DB73500009E
:10362000938565DB2685EF30B176B735000093854D
:10363000C5EE2685EF30117A63970902268581450C
:10364000EF307151268529469305800CEF40917E1D
:103650008315040026850146EFF07FE89145268515
:10366000EF60F010B5BF4E85EF60C10B83172500EA
:10367000930505033EA0831765007EA083174500D0
:103680005EA0831705001EA05C554A8513F737001E
:103690008347C402F19BD98F2306F402EF80D1281F
:1036A00026851306F00F9305F00FEF50D1468315D2
:1036B000040001462685EFF09FE21DB7EFC25FB31D
:1036C0002A84AE84EF90602711E937350200A28585
:1036D00001461305456EEF90A02601A02285EF60FC
:1036E000610406A96FC01FB3EFC29FB041112AC683
:1036F000EF90A024B24509E93735020001461305D1
:10370000456EEF90E02301A02E85EF60A1014855A2
:1037100041010D896FC01FB0EFC2FFABAA842E8993
:10372000B289EF90802111E937350200A685014664
:103730001305456EEF90C02001A02685EF50917EC5
:10374000831725002A846396270183174500638722
:10375000370523123401231124012685EFF0DFF809
:1037600089476304F500231324018317040063D9F8
:10377000F900231034010146CE852685EFF03FD6AF
:103780008317040063D92701231024010146CA8549
:103790002685EFF0DFD42685EF40813D6FC0FFA680
:1037A000EFC21FA509476319E60083A7C189829765
:1037B0002A8422856FC01FA611E683A7C189014410
:1037C0008297C5BF05470144E315E6FE83A7C1897B
:1037D0008297C5B7EFC23FA0AA892E89EF103006A5
:1037E0002A84EF90801511E937350200A285014641
:1037F0001305456DEF90C01401A039C49384018A6C
:103800009C4089E72285EF50F16C88C09384C18980
:103810009C4089E72285EF50716E88C08D452285D6
:10382000EF30115EAA84EF90401111E937350200A4
:10383000A68501461305456DEF90801001A081E833
:103840002285EF50917F014422856FC01F9CBC20D0
:10385000B74500009385A598F99B2285BCA0EF3061
:103860003153B73500009385057A2285EF309156A4
:1038700063180902638D090093054006228513062B
:103880001002EF40315B85452285EF10500B2285F9
:103890008545EF30512C95452285EF60406D6DB721
:1038A0004A85EF5031683C211306F00F9305F00F65
:1038B00013F71700BC202285F99BD98FBCA0EF50CD
:1038C000912559B7EFC2DF9241112EC62A84EF909D
:1038D000C006B24511E937350200A285014613053D
:1038E000456EEF90E00501A0954763EFB700B7374D
:1038F00002009387C76F8A05BE959C418287930516
:1039000010032285EF70E10E41016FC0BF90930557
:1039100010022285EF70E10DC1452285EF70810A0A
:10392000E5B785452285EF70E10993050003D1BF16
:10393000C5452285EF70010993050002D9B7C54539
:103940002285EF70010B93050002C1BFC14522859E
:10395000EF70210A93051002C9B7EFC27F894111A8
:103960002AC6EF80907DB24509E93735020001464D
:103970001305456EEF80D07C01A02E85EF50915A43
:103980002821410105896FC0FF88EFC2DF8483A72A
:10399000018A41112A84AE89328982978547AA8497
:1039A0006319F5089D47639BF900B73502009385BD
:1039B00045714A85EF505177AA84A5A82285EFF07A
:1039C000DFF9B9472A8A6395F9024A85EF20510346
:1039D0002DE163000A068145228502C6EF40915B16
:1039E00005890DC581452285EFF0DFED02C625A0D2
:1039F000E1476390F90483070900454793F6D7FF31
:103A00006391E6022285EFF05FF505C58D452285BD
:103A1000EFF05FEB26C67000C1452285EF305133D1
:103A200061BFB91793F7D70F89E72285EFF0FFF24F
:103A300055F9268541016FC04FFD81472147B38667
:103A4000F5009022B306F500850790A2E399E7FE02
:103A50008280C167FD176389F504EFC26FF94111D8
:103A6000AA842E84EF50114C5C41931534000A85D2
:103A7000BE95EFF09FFC2C002685EF3091503884E6
:103A80003C8034818A85BA977C803C852685BE96A9
:103A900074813482369778823883BA977C83EF407A
:103AA000C10841016FC00FF78280EFC26FF1411171
:103AB0002A84AE8BEF5011478A85AA8A2285EF307F
:103AC000514C2285EF309155AA892285EF3031572C
:103AD000494681452A8A2285EF4071584D468145E5
:103AE0002A8B2285EF40B15741468145AA84228521
:103AF000EF40F156454681452A892285EF403156EF
:103B00002A8C514681452285EF4071558947B3473C
:103B1000F50205896547E54DAA978507C207C18764
:103B20006343F700BE8DC20DE54793DD0D4126844A
:103B300063D3970065444204E5474184CA8463D354
:103B40002701E544C204E547C184628963D3870144
:103B50006549420913590941B3898940330A2A4109
:103B6000014D5A8CE54CF919791A83D74A016372D1
:103B7000FD0883A74A0093153D002800BE95EFF08D
:103B8000DFEB031781003C80634FEB063E97E28634
:103B900063D36C01E546158F42074187788403168D
:103BA000A1003881B306C700C206C18263C1C40642
:103BB000858EC206C18674858316C100B697C2077A
:103BC000C18363C93605A2978316E100C207C18786
:103BD0007C86B307D700C207C18363CF4603CA9769
:103BE000C207C1870146DE8528007C87EF80B004CC
:103BF00015C583D74A016394A701416D7D1D6A8570
:103C000041016FC0AFDF3E973307B74171B7B3864D
:103C1000B64145B7EE974DBFEE97D9B7050D420DAA
:103C2000135D0D0199B7EFC2AFD939712A84AE89FE
:103C3000EF80B05011E937350200A2850146130527
:103C4000456EEF80F04F01A04E85EF80104F11E9D7
:103C500037350200CE8501461305456EEF80504E84
:103C600001A02285EF50112CAA8B81440149373ADB
:103C7000020093972400CE97884383070500A9E7A5
:103C80002285EF50312A5E29AA8463892709484199
:103C900009C5EF90C03223A20400884409C5EF9003
:103CA000003223A4040013153900EF904027C8C048
:103CB000EF80B0481DE5CC403735020001461305C2
:103CC000456DEF80F04701A09305CA71EFC0CFDFCB
:103CD00009C505094209135909018504C204C180B7
:103CE00049BF13151900EF90802388C4EF80F0447A
:103CF0009C4411E937350200BE8501461305456D28
:103D0000EF80104401A0D84011C391E301499315FD
:103D100019003E85EF90A076239A240149468145FB
:103D200023A03B012285EF4091332ACE4D468145A9
:103D30002285EF40D132AA84414681452285EF4059
:103D400011322A8A454681452285EF4051312A8920
:103D5000514681452285EF4091302ACC2285EF30B3
:103D6000F12BBC86139B0401135B0B0133876701A6
:103D7000198D3EC493170501C1833EC62285031CDD
:103D8000C100EF30D12B93170901C183338947015B
:103D900033092541420913590901814A854C373DB0
:103DA000020013972A004E970843030705003DEFD2
:103DB000835A81011385FCFF93C7F7FF3385AA025D
:103DC0003ED49347FBFF3ED6B3079C40854D3ED87B
:103DD0003305A940420513D91C0041854A95334556
:103DE000950301497D15131D0501135D0D418144A6
:103DF000014B93972400CE9703AC07003EC8B7371A
:103E000002009385C7716285EFC00FCC83070C0059
:103E100039CD85EF2285EF309122A257B3874741F4
:103E20003E95131D0501135D0D4199A09305CD71BC
:103E30003EC2EFC06FC9924709E513851C00937C11
:103E4000F50F850A93FAFA0FA9BF03A78B00B307F2
:103E500099008607BA979C239D8B91E385473E9BEB
:103E60008504420BC204135B0B01C18059B7DDD33B
:103E70002285EF4081312AC28DC89307FBFFB387AB
:103E8000FA023247014CB307F740C207C1873ECA66
:103E9000B3079900C207C1833ED2B307AA01C20784
:103EA000C1873ED092576312F90293871A003E9A57
:103EB000C2476A9A420A9C43135A0A418387070001
:103EC000EDC785048A04A6991DB783A78B00131735
:103ED0001900BA9703C80700937C780063930C001D
:103EE000854CD2471387FCFF3387EA029246B3879B
:103EF0009703B3C76703BA975247FD17C207B305C5
:103F0000EC02C183B3C5650333878A03C205C1814F
:103F100042074183639FB60722853ADE2EDC3EDAF4
:103F2000EF30D10FB2577257E2553387E740D2577F
:103F3000B305B7409D8DAA95C205C18583A84B00E6
:103F4000B386B700630B0904624721EB72476385B0
:103F5000E5001247631BB701C2074257C187AE97FE
:103F6000639DE7029247639AB7031315390046959C
:103F700002578315C5FFC206C1865286669C050995
:103F8000420C4209EF80C035135C0C011359090142
:103F900011BFA2463697BA9545B713153900C20628
:103FA0000257C18652864695D1BF2285EF30513CDB
:103FB00021616FC0AFA4EFC2AFA341112EC62A8406
:103FC000EF80B017B24511E937350200A2850146EE
:103FD0001305456EEF80D01601A022852EC6EF5046
:103FE00061745229AA84B24508450606EF90000E76
:103FF0008C402285EFF03FC341016FC0AFA1EFC2FB
:104000008F9DAE89EF40E1192A84EF80101311E9EA
:1040100037350200A28501461305456DEF80501229
:1040200001A021C09384818A9C4089E72285EF50BA
:10403000616A88C0930500022285EF30615CAA8422
:10404000EF80B00F11E937350200A6850146130550
:10405000456DEF80F00E01A081E82285EF50E17DF3
:10406000014422856FC06F9AC177DCC8FD579CCC94
:10407000DC2C1389C40023A20400C19BDCAC23A464
:10408000040023A004004A85EF7051269C4893E762
:1040900007209CC89384418A9C4089E72285EF5081
:1040A000E16588C0B7450000938565372285EF300C
:1040B000214EB7550000938545C82285EF308151C8
:1040C00063950902B7050020228593858504EFF0EA
:1040D0009FB52285130640069305800CEF4081555D
:1040E00099452285EF50B068ADBF4E85EF50816392
:1040F0000C41AA842285EFF01FB38C442285EFF097
:104100009FEB9385C4004A85EF80010299BFEFC2FF
:104110002F8E41112EC6AA843284EF801002B24540
:1041200011E937350200A68501461305456EEF807B
:10413000300101A026852EC6EF50C15E5E29B24532
:1041400063FEF5001C45139715001344F4FFBA975E
:1041500092232685718C82A3EFF0BF8F41016FC03F
:104160006F8BEFC24F87AA84AE89EF80007D11E983
:1041700037350200A68501461305456EEF80407C69
:1041800001A02685EF50015A2A890144835749012D
:104190006364F4006FC06F87A28505044E86268590
:1041A0004204EFF0DFF64180D5B7EFC2CF822A8418
:1041B000AE843289EF80607811E937350200A2853C
:1041C00001461305456EEF80A07701A02285EF50D0
:1041D00061555E29AA8963FDF4025C2D898B99CB18
:1041E0009377090881CB930500082285EFF07FF7CC
:1041F000239D990083A7890013971400A685BA9779
:104200009A2322853369E90023902701EFF07F8408
:104210006FB0BFFFEFB2DFFD41112AC6EF80E07142
:10422000B24509E93735020001461305456EEF80B6
:10423000207101A02E85EF50E14E2A2D41016FB073
:104240007FFDEFB25FF92A842E8AEF80006F11E9BB
:1042500037350200A28501461305456EEF80406E9A
:1042600001A02285EF50014C835A4501AA890145DE
:1042700063E04A0381440144373B0200631C9A0017
:10428000014563075A0183A709000A043E940840C8
:104290006FB0BFF713091400420983A7090013592F
:1042A000090113172900BA9788438504C2049305AE
:1042B000CB71C180EFC04F8111E5090413190401CE
:1042C000135909014A845DBFEFB29FF22A84EF803F
:1042D000C06611E937350200A28501461305456E17
:1042E000EF80006601A02285EF50C1432E2DC167EB
:1042F000FD1701456385F5002285EFF09FF46FB04F
:104300007FF1EFB2FFEE2A892E84B284EF80E06263
:1043100011E937350200CA8501461305456EEF8065
:10432000206201A04A85EF50E13F5E290146637992
:10433000F4000C4506042E940A20E98C33369000D4
:1043400032856FB03FEDEFB2BFEA130600082A8452
:10435000AE84EFF01FFB2A89930500082285EFF059
:104360005FE06308090013060008A6852285EFF0C8
:10437000DFE36FB03FEAEFB21FE6A1474111AA8425
:10438000B289639CF5040022EF80205B11E9373588
:104390000200A68501461305456EEF80605A01A014
:1043A0002685EF50213811CC85476306F40223A2FD
:1043B000090083A7818A4E86A145268582972A8A8D
:1043C00039A01385840223A2A900054A7DD1528514
:1043D00041016FB09FE33105FDB783A7818A2E8924
:1043E000829785472A8AE314F5FE9D47631AF900F0
:1043F000B7350200938505724E85EF50E152C1B783
:104400002685EF5021322A84631D090085452685C3
:10441000EF30E1514840EF80903A0844EF80303A65
:104420007DB7914A631759010C402685EFF0AFFF25
:1044300079BF094B631D69032685EF30213E83D781
:10444000490003D709008507998FC207C187E31D7B
:10445000F5FC2685EF30A13E83D7690003D72900FC
:104460008507998FC207C187E310F5FC8DB7AD476B
:104470006317F90A6E292685EFF0AFDDEF10714D55
:10448000EF10914D9377D50F639C47072C004E8515
:10449000EF1051542C002685EFF02FE1C167FD1776
:1044A0002A896309F5021C4413171500BA979A2349
:1044B000935737401587D98F858B89EF6E282685CE
:1044C000EFF02FD9CA85231B2401231D2401268543
:1044D000EFF02FD87A28C167FD17E30AF7EE1C44E6
:1044E00093161700B6979E2393D6574013D687404E
:1044F000D18E8D87D58F858BE39B07EC3AC681AA39
:10450000631665010E2C6EA82EACD1B7E31455FDD1
:104510002685EF50A123EF10910A6DF565BFB147D5
:104520006318F908EF10F1422A89EF10F14279156A
:104530001375D50FE30D05E84A852C00EF1091495E
:104540002C002685EFF06FD66E282A89E301B5E8A6
:10455000C167FD176385F5002685EFF08FCF231B1C
:104560002401231D24014E85EF10D144C167FD179E
:10457000E30FF9E41844931919004E971A2393573F
:1045800057400D87D98F858BE39307E4CA8526852D
:10459000EFF02FCC1C44CE979E23A187858BE39808
:1045A00007E27000C14526854AC6EF20717A05B53D
:1045B000B9476317F90A7A29C167FD17E309F7E0DC
:1045C0009317170018453E971E2393D66740858A98
:1045D00085CA93D65740858A85E693D67740858AE3
:1045E000ADCE542D898AB5EA93F7F7F7C207C18398
:1045F0001EA35C2C898B89C76E282685EFF0BFD45B
:104600006E282685EFF0EFC40E2C2685EFF06FC4E0
:10461000EF103134EF10513479151375D50F19E1BE
:104620007E281EACFD57362C7EA81C44139716001E
:10463000BA979A2393578740858BE38A07D8935775
:1046400057400D87D98F858BE39307D836C6700006
:10465000C1452685EF20D16F9DB393E7070849BF79
:10466000C1476311F9023A2DC167FD17E301F7D67F
:104670001C4593161700B6979E2393D6474013D632
:104680005740BDB5B5476319F900FD577EA93EAC4B
:104690002685EF30E14D25BBD9476311F904EF10B2
:1046A000512B2A89EF10512B631709000145EF9018
:1046B000D046EF10712A9147631EF5002685EF5012
:1046C000E108EF10C16F01C5232C040009B3FD57A9
:1046D0001EACF5B98947E31CF5CEFDB79377D90F2A
:1046E00055476397E7020E2DC167FD176385F500F7
:1046F0002685EFF00FB66E28C167FD176385F500BC
:104700002685EFF00FB5FD577EA8FD571CCCC1B133
:10471000E1476313F916838709004D476393E70266
:104720001E2DC166FD1601476386D70085071397C6
:10473000070141835E281AACFD176347F7061EACDC
:10474000A5A05147639DE7001A2DC167FD176314AB
:10475000F700231C05001E2CA1CBFD17CDB7494740
:104760006397E708514681452685EF40410F1E2C8F
:1047700041677D176395E700231C040035A058406E
:1047800013963700035344013A965A2216229398FF
:1047900017000507158F420741870587369742079F
:1047A0004187B28663E467001E2CD5B503982600C6
:1047B0008315260063D70503839506006343B7027C
:1047C00083954600AA9563CEE5000C44C69503D8B0
:1047D00005009355584013583840B3E505018589C5
:1047E000B9DD8507C207C183A106890865BF4547B2
:1047F000E39FE7BC514681452685EF4041061E2CCC
:1048000041677D17E38AE7F6544093953700C20766
:10481000B695DA219221C1870507118F420741879A
:10482000058732974207139637004187B296139651
:104830000701E34B06F60398260003962500635A0A
:10484000C80203960600098E6345C7020396460018
:104850006341E6021044139817004296035806007D
:10486000135658401358384033660601058AE3084A
:1048700006ECFD17E11665BFE547E31AF9B4854775
:104880002380F900A9B6EFB2BF9641112AC6EF8086
:10489000C00AB24509E93735020001461305456EE5
:1048A000EF80000A01A02E85EF40D167484D8D476B
:1048B00009810D896313F500014541016FB09F9592
:1048C000EFB21F9083A7418A130101DD01462A84BC
:1048D0002EC682972285EF40F1645E29638F0738E8
:1048E000AA848C002285EF20D169228503C9C401E6
:1048F000EFF07FF98547137919006318F5181369EC
:10490000490085452285034BD403EF30810488118B
:10491000A30E0402EFD0307D8808EFB0F0039011B1
:1049200085452285EF508102900885452285EF500C
:10493000C16081452285A30E6403A3082107EF30DF
:104940004101414681452285EF3071712AD04546AB
:1049500081452285EF30B170B7070040FD173ED288
:1049600093774B002ACE02C4814D814A8149B73BDF
:1049700002003ED4DE2863F2F93003AC04009397C2
:104980002A003EC8E2978843568A9385CB71850AF0
:10499000C20AEFB07F9393DA0A0175D19C44139C4D
:1049A0001900E2979E23A18B6391072CDC4093951D
:1049B0003900A800BE95EFF04F88035581040356D7
:1049C00001048355A10483562104B307C5002314B1
:1049D000F104B387D5002315F1048357E10403578D
:1049E000C104BE9685078D8FC207C1873A963ECC1B
:1049F00005079C44098F42074187E2972316C104AB
:104A00002317D1043ACA9A239357774013770702A2
:104A1000858B19C393E70702FA286314370193E7DC
:104A200007019A2C6319370722576305072493E778
:104A30006700130700026392E7102247631C071404
:104A4000A30EF40285452285EF20B1702803EFD034
:104A500090692809EFB04070300385452285EF400A
:104A6000F16E300985452285EF50214D8145A30E19
:104A700064032285A30C210BEF20B16D8547930CB5
:104A80008109130D81183EC48DA08947E31BF5E60B
:104A900013698900BDB56385070E0547E39BE7F8F9
:104AA00063950D0EA30EF40285452285EF20716AF1
:104AB000481AEFD05063C818EFB0006A501A854505
:104AC0002285EF40B168D01885452285EF50E14638
:104AD0008145A30E64032285A30A2109930C410793
:104AE000EF203167130D4113854D031C2D01137702
:104AF0000C016304070E0317240182578316A104D7
:104B00003E976396E6001377DCFF2319ED00031749
:104B10006401F2478316E1041D8F6397E600035793
:104B20002D01799B2319ED009440631A0A0603575F
:104B30002D016D9B2319ED0041A0A30EF4028545C4
:104B40002285EF201161E80BEFD0F0596819EFB022
:104B5000A060F00B85452285EF40515F70198545B7
:104B60002285EF50813D8145A30E64032285A30E6B
:104B7000210D930CC10BEF20D15D130DC11DB5B7F5
:104B8000930C0105130D010E8DB7930C4107130D06
:104B90004113A1BF930C8109130D8118B9B7925726
:104BA0009385CB7136D63307FA000A073697084348
:104BB000EFB08FF1B25625DD050A0A0AD296884277
:104BC0000307050011C79385CB71EFB0EFEF11E537
:104BD00003572D015D9B2319ED00B2456A86A8009D
:104BE000EFD0D05542479C4083960C0103A68C0021
:104BF000BA9703AA07008357410403570104D285DB
:104C00008507998F0397EC00C207C18768184A8807
:104C100023198D01EF90001E0316C103D247894569
:104C20008316E1033387C7403347B70283578104B4
:104C3000A8003E97E24742074183958FB3C7B7026A
:104C40008355A1042314E10432972316E1046686F8
:104C50000147AE97C207B245C1832315F104B69749
:104C6000D2862317F104EFB060528509C20993D9A7
:104C7000090109B393E727006DBB01451301012327
:104C80006FB0CFD7EFB2CFD609476319E60083A73D
:104C9000418A82972A8422856FB0CFD701E6EFF050
:104CA0003FC2CDBF05470144E317E6FE83A7418A13
:104CB0008297D5B781472147B386F5009022B30686
:104CC000F500850790A2E399E7FE8280EFB2CFCF8F
:104CD000011185452A84EF30D129631705202285EB
:104CE000EF4051241C212A8993F7070F89E71C31D3
:104CF000BD8B638B071E1387418B1C43938A418BAB
:104D000085071CC32947634CF71C2285EF20D1146B
:104D1000AA89930505010808EFF0DFF949468145A6
:104D20004E85EF30D133BC804D4681453E95E880BD
:104D30004E85EF30D132BC82414681453385A74054
:104D4000E8824E85EF30B131BC81454681453E95C4
:104D5000E8814E85EF30B130BC832C00130B44004A
:104D60003385A740E8832285EF20B1218A852285FB
:104D7000EF2031215A85EF80400613451500137A44
:104D8000F50F630A0A06B787187C938787C13EC070
:104D9000B787E8839387873E5A853EC2EF70506499
:104DA000AA84930B0002130C0008894C214D6390D8
:104DB0000414494681452285EF30712A3C804D46D6
:104DC00081453385A74068802285EF3051293C8298
:104DD000414681453E9568822285EF3051283C81CD
:104DE000454681453385A74068812285EF303127CC
:104DF0003C833E9568832C002808EFF0BFEB834787
:104E00000900894613D747000D8B630CD71863EC54
:104E1000E61885466314D7003880F88499830947DB
:104E20006382E71A6362F71A05476394E7003C82DE
:104E3000FC868347190009478D8B6386E71A6366F2
:104E4000F71A05476394E7003C81FC858347190006
:104E5000094789838D8B6389E71A6369F71A0547C8
:104E60006394E7003C83FC870317040183178101E7
:104E70006314F702031724018317A101631EF700CF
:104E8000031744018317C1016318F7000317640176
:104E90008317E1016305F7042285EF20714D2C088B
:104EA00013050401EFF01FE12285EF20714C5C4CEB
:104EB000300089452285829783A7C90122868545CE
:104EC0004E8582972285EF20B11901C52285EF30EA
:104ED000A1135A85EF70D0502A846318051483A754
:104EE0000A00FD1723A0FA0005616FB06FB1268597
:104EF000EF2011374DE18347090093F707036381E2
:104F000077035D4681452685EF307115839704014F
:104F1000031701003385A7406353A7003A856880D3
:104F20008347090093F7070C638087036146814537
:104F30002685EF30D11283974401031741003E9537
:104F40006353E5003A856882834719008D8B63813E
:104F50009703554681452685EF30711083972401CC
:104F6000031721003385A7406353A7003A85688162
:104F700083471900B18B6380A70359468145268575
:104F8000EF30F10D83976401031761003E95635381
:104F9000E5003A856883A6855A85EF70B045AA84F6
:104FA00039B5B8809DBD03170101E3080AE63480D6
:104FB0001396060141866353C700BA86139706010C
:104FC0004187A1BDBC82ADB583174101E3020AE66A
:104FD000388293160701C18663D3F6003E87931784
:104FE0000701C187B1B5BC818DB583172101E30EDF
:104FF0000AE4388193160701C18663D3D7003E8740
:1050000093170701C18791B5BC83B1BD83176101B7
:10501000E30B0AE4388393160701C18663D3F600D5
:105020003E8793170701C1873DBD5C4C30008D451D
:1050300022858297A2855A85EF70D03B71BDEFB271
:105040008F99AA892E89EF30C1152A84EF70F00E4E
:1050500011E937350200A28501461305456DEF7051
:10506000300E01A015CC9384018B9C4089E72285EA
:10507000EF40416688C09384C18A9C4089E72285BD
:10508000EF40C16788C089452285EF20615722859E
:10509000EF404169AA8401E92285EF40017A014489
:1050A00022856FB08F96EF70500911E937350200F5
:1050B000A68501461305456DEF70900801A09C3050
:1050C000B765000023800400C19B9CB09385058ECA
:1050D0002285EF20E14B63190900E38309FC9D451C
:1050E0002285EF40D0686DBF4A85EF40A16318214B
:1050F0001306F00F9305F00F9377070398201377AB
:10510000F7FC5D8F98A01C2193F6070C9377F703AB
:10511000D58F9CA01831C19B937637009830719B36
:10512000558F98B014314D9BB18A558F98B0182186
:1051300022853D8BD98F9CA0EF40E11D95B7EFB242
:105140002F8B2A84AE84EF70407F11E9373502003F
:10515000A28501461305456EEF70807E01A0228571
:10516000EF40415C1C2113F7F700630B9700BD88EB
:10517000C19BC58F1CA15C4C014685452285829749
:105180006FB04F89EFB22F852A89AE84328AB689F3
:105190003A84EF70807A11E937350200CA850146FA
:1051A0001305456EEF70C07901A04A85EF20511CB0
:1051B0004A85EF4021571C2113D747000D8B631EF2
:1051C00097009983639B47011C318D8B639737014F
:1051D000183109830D8B630087041C3103480500D7
:1051E00093F9390093F7070F0D888D880A04B3E708
:1051F0003701C18F92041378F8001CB11A0A336882
:1052000098008327C901336848012300050101463E
:1052100085454A8582976FA05FFFEFA27FFD411110
:105220002AC6EF708071B24509E9373502000146A0
:105230001305456EEF70C07001A02E85EF40814EC2
:10524000082141013D896FA0FFFCEFA27FF701110A
:1052500085452A84EF30E15125ED2285EFF0FFFBF3
:10526000AA8481452285EF2021483DC1B5C08549EA
:105270006390340F514681452285EF30415E13091A
:105280004400AA894A85EF70B0152A8A8144814A70
:1052900063130A04638E0A02B3843441C204854551
:1052A0002285C180EF20A117C2048947C184B3C4FD
:1052B000F4024A85EF7070132A8A894AB304904039
:1052C000C204C18463100A0485452285EF20611859
:1052D00005616FA0BFF25285EF20817811ED9145F5
:1052E0005285EF30014909E95285EF2041554E952D
:1052F000AA94C204C184850AD2854A85EF70900FB2
:105300002A8A79B75285EF20A1750DED9145528516
:10531000EF30214605E95285EF20615233475503AE
:10532000C204C18081460146A28552852697420764
:105330004187EF2051295285EF2061504E95AA9464
:10534000C204C184D2854A85EF70B00B2A8A9DBF02
:105350009387E4FF93F7F70F094A6366FA0E49460D
:1053600081452285EF30A14F4D468145AA8922858E
:10537000EF30E14E41468145AA842285EF30214E2F
:10538000514681452A892285EF30614D2A8B22853D
:10539000EFF0BFE88D476305F50A9147630BF50809
:1053A000854A63034501814922858545EF20210710
:1053B000130A44005285EF705003AA84E30605F0F7
:1053C0002685EF20E1692DE191452685EF30613A90
:1053D00021ED554681452685EF306148AA8B594617
:1053E00081452685EF30A1472A8C5D46814526857B
:1053F0004209EF30C1461359090133077901B386D9
:10540000A9004207C2064187C1865686A285268525
:10541000EF20711B2685EF2081425A955E9562959B
:105420002A99420913590941A6855285EF70607D7A
:1054300069B7B3099040C20993D909418D4AADB704
:105440008149894A95B79387B4FF93F7F70F636053
:10545000FA102285EFF07FDCAA842285EF20F1523A
:105460009947AA8A6383F4029D476386F4029547AD
:105470006397F40C414681452285EF30413E2A89ED
:105480008D4463893A03854435A001499D446313E3
:105490003503A14405A0454681452285EF30213CD6
:1054A0003305A04013190501135909419944638339
:1054B0003A01914485452285EF10717685474D4626
:1054C0006383FA00494681452285EF3041395146D0
:1054D00081452A8A2285EF308138930B44002A8C3B
:1054E0005E85EF708070AA89854CE38F09DC4E855C
:1054F000EF2001571DED91454E85EF30812715E9CD
:10550000131B0A01135B0B0163909A05B3066041FC
:10551000C2064A87C1862686A2854E85EF20B10A3B
:105520004E85EF20A12F330A85015A9A420A135A59
:105530000A41CE855E85EF70C06CAA897DB70149AE
:105540008D44E31235F5BDB74A87D286E9B7938714
:1055500084FF93F7F70F6362FA262285EFF0FFCB03
:105560002A8D2285EF20812B2AC241468145228542
:10557000EF30E12E930A44002A8A5685EF70E066E8
:10558000AA84E30705D485452285EF105169494671
:1055900081452285EF30A12C2AC44D4681452285C4
:1055A000EF30E12B2A89514681452285EF30212BAE
:1055B000A247AA8D3E9993170901C1873ECCE24BC1
:1055C0002689014B81492685EF20814979E591455E
:1055D0002685EF30011A71E12685EF2021242A8CDF
:1055E0005D4681452685EF3081272A9C420C614625
:1055F00081452685EF30A126135C0C01629542059A
:105600004181931705011247C187DE97635EF70258
:1056100063030B26A6855685EF70C05DAA84054CF2
:1056200063178B09554681454A85EF30412333077F
:1056300045014207418781460946A2854A85EF20F8
:105640008178639D042649B1EE9BAA9B2685EF20B5
:10565000011F2A8C554681452685EF3041202A9C22
:10566000420C594681452685EF30611F135C0C01C1
:105670006295AA874205C20B418593DB0B416353B8
:105680003501CE8793990701A145268593D9094114
:10569000050BEF30010E631E051CA6855685EF70C5
:1056A0004056AA84630A0B22E31F05F08DBFB3871F
:1056B0006D037D1B2285B38BFB409247C20B93DBAE
:1056C0000B41B38B774133DB6B0393170B01C1871E
:1056D0003EC6EF20912B630F850D854B054CB3071C
:1056E0003A01C207C183224B3ECA71A04A85EF200E
:1056F00021373DE991454A85EF30A10735E55D4603
:1057000081454A85EF30A115AA8C614681454A85BD
:10571000EF30E1142AC8A5476302FD06A9476309D3
:10572000FD06A1476316FD02554681454A85EF30C7
:10573000011333074501B3069B01B3867603420785
:1057400041876286A2854A85C206C186EF20A1678D
:105750004A85EF20A10CB2473E95C247AA9CBE9C49
:10576000669B420B135B0B41630A9914CA855685ED
:10577000EF7020492A89E31B09F6E1B54A85EF203D
:10578000010C3387A94089473347F702529765B721
:105790004A85EF20C10AD247594681453385A74043
:1057A0001317050141834A853ACEEF30410B72470A
:1057B000098F51B7FD5B0D4C1DB7AD47E39AF4B0AF
:1057C0002285EF30012F51462A8C81452285EF300A
:1057D00001098145AA8A2285EF101171C20AEF20C2
:1057E000010693DA0A015695131B050185452285AA
:1057F000EF10F142494681452285EF304106AA8BE0
:10580000414681452285EF308105930C44002A8A68
:105810006685EF70803D135B0B01AA84DE895E9C78
:10582000E38404AA2685EF20A12315ED9145268562
:10583000EF2031740DE92685EF10517EB387A90062
:105840002A896357FC005A9A420A135A0A41DE8990
:1058500056994E99CE855286268593190901EF20D7
:10586000613C93D90941A6856685EF708039AA8489
:1058700045BFE3160BDA554681452685EF20317E7C
:105880009319050193D909013387490142074187DB
:1058900081460946A2852685EF20E1522685EF1034
:1058A000117AAA99C20959468145268593D90901D9
:1058B000EF20F17AAA99C20993D909416E9AA68577
:1058C000D2995685139A0901EF70A033135A0A41F1
:1058D000AA84E31605CECDBAE308059E2689E5B174
:1058E000EFA27F8FA147AA8432846396F5021C221F
:1058F00099CB2322060083A7018B2286A14526850A
:1059000082972A8931A0930785025CC2EDD70549A9
:105910004A856FA09F8F83A7018BAE8982978547A9
:105920002A89E317F5FE9D47639AF900B73502000F
:10593000938585752285EF30317FE1B79147639973
:10594000F9002685EFF07F902685EFF02FB8C9B7D4
:10595000E389A9FE89476399F9022685EF10116C46
:105960005E201A208507998FC207C187E31BF5FCCB
:105970002685EF10D16C7E203A208507998FC207CB
:10598000C187E310F5FC61B78D47E392F9F86DBF6D
:10599000EFA21F8641112AC6EF60307AB24509E9AD
:1059A0003735020001461305456EEF60707901A09E
:1059B0002E85EF3031570821410111810D896FA0EB
:1059C0007F85EFA2FF8241112AC6EF601077B245B2
:1059D00009E93735020001461305456EEF60507640
:1059E00001A02E85EF3011540821410119816FA0CB
:1059F0007F82EFA2EFFF41112AC6EF601074B2451B
:105A000009E93735020001461305456EEF60507312
:105A100001A02E85EF301151083141010D896FA091
:105A20006FFFEFA26FFA717132C62A842E8BEF30AE
:105A3000714F32468947AA846315F610094681459D
:105A40002285EF20D1618D476319050EDE2813F7FB
:105A500027003DE393F7870F130700026385E700F4
:105A60002147639BE70421661306C60A8145228508
:105A7000EF30C1499307F00F6310F50419468145D3
:105A80002285EF20D15DDE243E951DE51D46814532
:105A90002285EF20D15C03D924019307001033093C
:105AA000A90213598940631BF900014693050401BB
:105AB0005A85EF60103131ED894741A02285EF1002
:105AC000F1552AC62285EF109157B24513170901E7
:105AD0002A869387E40041838146E808EFE050433B
