:040000006F20001558
:10000400000000000000000090000020AE0400206A
:10001400A9BDF9F3900000200000000000000000DA
:10002400900000209000002000000000000000006C
:10003400900000200000000090000020000000005C
:1000440090000020900000209000002090000020EC
:1000540090000020900000209000002090000020DC
:100064009000002090000020822D000092000020CB
:10007400A2050020900000209000002090000020A5
:1000840090000020900000209000002090000020AC
:1000940001A0B737004083C74740730020304111A7
:1000A400B7170040985F3AC6945F3247E39CE6FE78
:1000B40032454101828073270080218B938701851B
:1000C40009CB7327008023A8E18498435D9B7310B8
:1000D40007800F10000037170040930670052300B7
:1000E400D704930680FA2300D7040F100000834638
:1000F400B70493F6F60DA305D7042300070473266B
:1001040000809443A18AD18E7390068023A8018431
:100114000F10000093760502638406180347A700B6
:10012400118B25E773270080218B09CB732700806F
:1001340023A8E18498435D9B731007800F1000008F
:1001440037170040930670052300D704930680FAFE
:100154002300D7040F1000008346A70093E646004F
:100164002305D70023000704F32600809843218B3E
:10017400558F7310078023A801840F100000130704
:10018400004B010001007D176DFF73270080218B58
:1001940009CB7327008023A8E18498435D9B7310E7
:1001A40007800F10000037170040930670052300E6
:1001B400D704930680FA2300D7040F1000007D892A
:1001C4002314A7000100010001000100230007041B
:1001D400F32600809843218B558F7310078023A842
:1001E40001840F10000073270080218B09CB732733
:1001F400008023A8E18498435D9B731007800F104F
:10020400000037170040930670052300D7049306B7
:1002140080FA2300D7040F1000000F100000B72647
:10022400004013061005A383C68023000704F326A9
:1002340000809843218B558F7310078023A8018475
:100244000F10000073270080218B09CB73270080D7
:1002540023A8E18498435D9B731007800F1000006E
:1002640037170040930670052300D704930680FADD
:100274002300D7040F1000008346B70493E6060852
:10028400A305D70423000704732700809C43A18B94
:10029400D98F7390078023A801840F1000008280F7
:1002A40093760504638B06140347A700418B25E767
:1002B40073270080218B09CB7327008023A8E18456
:1002C40098435D9B731007800F10000037170040A0
:1002D400930670052300D704930680FA2300D704FD
:1002E4000F1000008346A70093E606012305D700FC
:1002F40023000704F32600809843218B558F731045
:10030400078023A801840F1000001307007D01005B
:1003140001007D176DFF73270080218B09CB7327A4
:10032400008023A8E18498435D9B731007800F101D
:10033400000037170040930670052300D704930686
:1003440080FA2300D7040F1000009376F50193E69A
:1003540006042314D700010001000100010023005A
:100364000704F32600809843218B558F7310078070
:1003740023A801840F100000130760046310E50430
:1003840073270080218B09CB7327008023A8E18485
:1003940098435D9B731007800F10000037170040CF
:1003A400930670052300D704930680FA2300D7042C
:1003B4000F100000B72600400946B5B5732700802A
:1003C400218B09CB7327008023A8E18498435D9B8C
:1003D400731007800F100000371700409306700554
:1003E4002300D704930680FA2300D7040F100000DB
:1003F400B7260040130620053DB573270080218BE6
:1004040009CB7327008023A8E18498435D9B731074
:1004140007800F1000003717004093067005230073
:10042400D704930680FA2300D7040F1000008356E4
:10043400870093E6060C2314D700C5BB41118146FF
:1004440001468145114506C63524F3270080A18B5A
:100454009386018589CBF327008023A8F1849C42ED
:10046400DD9B739007800F100000B717004013073F
:1004740070052380E704130780FA2380E7040F1034
:10048400000003C76704136717002383E70423806E
:100494000704732700809C42A18BD98F7390078037
:1004A40023A801840F100000B240410182808146DC
:1004B4000146814511457D2AF3270080A18B1387CE
:1004C400018589CBF327008023A8F1841C43DD9B9D
:1004D400739007800F100000B71700409306700553
:1004E4002380D704930680FA2380D7040F100000DA
:1004F400FD562396D70223800704F32600801C436D
:10050400A18BD58F7390078023A801840F1000005E
:10051400F3270080A18B89CBF327008023A8F184E3
:100524001C43DD9B739007800F100000B717004039
:10053400930670052380D704930680FA2380D7049A
:100544000F10000083C6670493E616002383D704C4
:1005540023800704F32600801C43A18BD58F73905E
:10056400078023A801840F10000001A0BD473305B4
:10057400F50201007D1575FD8280411122C426C259
:1005840006C6AA84014463179400B24022449244EC
:100594004101828005041305803E4204C13F41802D
:1005A400DDB7B7170040130700032388E702854728
:1005B40023ACF18473002030230304801547230304
:1005C400E48001002302A480828083076480E3CE58
:1005D40007FE23030480828083076480E3CE07FE42
:1005E40003454480828083076480E3CE07FE2302B0
:1005F400A4808280411126C44AC24EC006C6137725
:10060400F50BAD47AA892E8995446306F700194571
:100614006537653F8D444E854537FD59FD14639814
:100624003401B240A24412498249410182801355E7
:1006340009011375F50F453F2209CDB7011126CCE9
:1006440006CEB704080051371545BD3771376937F1
:100654002AC6A53F32459377150089EB136515002B
:100664001375F50FF240E24405618280FD14E9FC44
:100674000145CDBF397126DC4ADA4ED852D656D45C
:100684005AD25ED006DE62CE66CCB7E700E07D5774
:1006940083AA070022C603AA470023A0E71823A2BF
:1006A400E718B7170040130770052380E704130702
:1006B40080FA2380E70483C74704930B75FFB6844D
:1006C400E20793FBFB0F8546AA892E8B32893724D8
:1006D4000040E187015763FA76016308D500894633
:1006E400130700026313D5000157D98F93F7F70F4F
:1006F400B71C00402382FC0411472303E480130544
:10070400F00F5D3D094CD135636D7C11B7050700D1
:10071400DA9537870700795563F2E504B3879500C6
:10072400636EF702370B0800A94733EB6501639941
:10073400F90689E48144513D26850DA0DA850945F1
:10074400553D05090345F9FFFD14050B693D81C4B9
:100754009377FB0FFDF7DD3569FD7D55B717004035
:10076400130770052380E704130780FA2380E70446
:1007740003C74704418B2382E704F250B7E700E044
:1007840023A0571123A24711E25432445259C259AB
:10079400325AA25A125B825B724CE24C2161828013
:1007A400A5476395F90685691309F00FB306990007
:1007B400B3742B01B6941349F9FFB3749900856B94
:1007C40033796901416B9387F9FFB3F7270199E303
:1007D40063FC340193D94900C147E3E637FF99BF6D
:1007E4000569C1697D19D9B71305800D638869014D
:1007F400130500026384790113051008CA85DD3BE3
:10080400353D21DD4E99B3843441D9B7DA852D4580
:10081400D533CA94E30099F205097D3BA30FA9FEE1
:10082400D5BF9387F9FF93F7F70F6361FC0C83C778
:100834001C0413073008631FF70437070800636BB1
:10084400EB04B3079B00B706100063F5D704334BE2
:10085400EB0089476393F9068980D549E38C04EC5E
:10086400DA850945413B11090327C9FF9147232034
:10087400E48003076480E34E07FE23033481FD17FD
:10088400EDFBFD14110B81C49377FB0FE9FF7D335E
:1008940071F5E1B5B717004003C75704B70708005F
:1008A4001377070219E3B78707007955E378FBEA62
:1008B40033079B00E3FFE7F855B58547E382F9F278
:1008C400DA852D45053B9389F4FFE38504E6293356
:1008D40093F7390091EB83260480032709009307DB
:1008E4004900E39AE6E43E89CE84F1BFB5476396B6
:1008F400F9001305900BC93135BDB1471305B00A92
:10090400E38BF9FE99476391F904B7050800B365D1
:10091400BB002D45C53181448D4BA1497539639682
:100924007401832704802320F9008504E39834FFAD
:100934008327048013172B01635507002312F90042
:10094400D5BB2322F900FDB39D476399F902814584
:100954001305B0044531BD442320090023220900B6
:10096400FD599D3993F77400CA9703C70700FD1416
:10097400398D2380A700E39634FF6DBBA1476392B2
:10098400F9046D398144630D0B008D479304C00352
:100994006308FB009304000563048B019304400483
:1009A4001375C507E30895D8194539313939054513
:1009B400213126850D3909453D314931E31C05D6E0
:1009C40069BB91476399F90013056006F536F53E56
:1009D400130590090DB7E38F09D4F154A9BB19CDC0
:1009E40091CD09CE81473387F5008346070033074D
:1009F400F50085072300D700E317F6FE828019C9A6
:100A040091C909CA910583A7C5FF11057D16232E37
:100A1400F5FEC5BF828001C919C62A960505A30F34
:100A2400B5FEE31DA6FE828081473307F500030768
:100A3400070019E33E8582808507C5BF01112E8614
:100A440026CAAA84131506019305F004418122CC19
:100A540006CE32C6EF00B0602A8401C53246A685B0
:100A6400BD3F2285F2406244D244056182808547BD
:100A740015C18DC105C28147B306F5003387F50062
:100A840083C60600034707006398E6008507E3155D
:100A9400F6FE85473E8582808147EDBF9307F6FFCA
:100AA400BE952A966313C5008280FD1583C7150081
:100AB4000505A30FF5FEFDB7AA87014581CF09CE31
:100AC4003E96850703C7F7FF6317B700E39BC7FE8E
:100AD40005458280828001458280797197370000C4
:100AE4009387473722D4804306D626D24AD04ECEA7
:100AF40052CC56CA5AC85EC679C0B7C4C901014BA4
:100B040097390000938989349384F437173A0000A5
:100B1400130A8A34973A0000938A8A2E1739000000
:100B24001309C9378357240095E35C44631D0B0004
:100B3400173700002320F732832BC4002285EF00EF
:100B4400305F5E84B9A82326FB00FDB783A70900A4
:100B540082971C443307F5406376F5000327490068
:100B64001D8F2A9763E2E4089737000023A2072A1F
:100B74008355240003450400974000E0E780E089A2
:100B84005C405844A1CB0C4403264900AE97BE8672
:100B940063E4B70063E4C700B386C74014C4228B80
:100BA4003A8449F097370000938787259C4B09477F
:100BB4006372F706F91717370000232BF724B25096
:100BC400225492540259F249624AD24A424BB24BDD
:100BD4004561828063170B009737000023ACE7263A
:100BE400A1BF2326EB0089BF03274A0209CF63EF85
:100BF400A7003385A74083A70A016376F5009737DA
:100C0400000023A7A720228B404461BF032749008B
:100C1400BA97C5B79737000023AC071E4DB74111EB
:100C240022C417340000130464201C4006C626C2E4
:100C34004AC091C782979737000023A9071E9737A8
:100C4400000083C7773F858B973400009384843EEC
:100C540095C397370000A381073E83C774001547E7
:100C6400637AF700E52B83C77400F5178A07A29708
:100C74009C4382971C4491C382971739000013093F
:100C8400291D0327090017360000034676179737F6
:100C9400000083C7E71693961700BA9683D606001A
:100CA400D5CE9737000083C7A71563E3C70C9737E2
:100CB4000000238707141C40639D07129737000028
:100CC40083C7D73791CF83C7740093F7F70F89EBA6
:100CD40097370000A3840736977001E0E7804077D8
:100CE40097370000938787169C43638407109737D0
:100CF40000009387A71ADC4317370000232AF71054
:100D0400E93B9737000093872715DC53FDC317375A
:100D140000001307E70E184B9737000083C7171519
:100D24006369F70C83C7740015476364F70C97373E
:100D3400000083C7E734918BCDEF03260900973673
:100D4400000083C6F60B63CCD70A2244B240924417
:100D540002494101174300E0670003B7850793F791
:100D6400F70F97360000238DF608E3E2C7F215BFAC
:100D740086073E9783550700231007009737000026
:100D84002394070C973700009387070A9C43173571
:100D940000000345E50613172500BA979C43829784
:100DA4009737000083D7470A1737000003474705E2
:100DB40093C7F7FF7D8D93171700032709003E970C
:100DC400835707005D8D2310A7009737000083C762
:100DD400270391C78507173700002303F702173746
:100DE40000000347E7019737000083C77701E370EA
:100DF400F7ECB240224492440249410182801397A5
:100E040017003297035707006DF785072DBFAD67AD
:100E140037C70040BD072326F7200F10000097377F
:100E240000009387E7FDC84F83278726BD66BD066C
:100E340093C7F7FF99836A052326D7205D8D8280A7
:100E44004111B7170040985F3AC6945F3247E39C5C
:100E5400E6FE3245410182801305F00F82800111C4
:100E640022CC604126CA4AC84EC652C406CEAA84C1
:100E74001D4A130965058549BC446364F4000545AE
:100E8400B9A003C7D40083474400631A470503C7C6
:100E940084026304F7000040C5B70347540083C7C6
:100EA4005405E31AF7FE1946CA8513056400C136D2
:100EB400E31335FF0347C40083C79402E31DF7FC23
:100EC4000357E40083D7A402E317F7FC0145F2407B
:100ED4006244D2444249B249224A05618280E31CF9
:100EE400F7FA0347540083C75405E316F7FA194683
:100EF400CA8513056400A53EE31F35F9C1BF01117E
:100F0400973700009387072322CC03A4070C26CA33
:100F140006CE2AC42EC6854419E40145F240624433
:100F2400D244056182808347910003471400858B76
:100F34006304F7000044CDB719469305A1001305D7
:100F440024003536E31895FE0545C9BF1737000060
:100F54001307470D1C439306001094C301000100BE
:100F6400010001001C4323A0070083461500034829
:100F74002500A2064208C29603480500C29603480B
:100F840035006208C29694D783465500034865002D
:100F9400A2064208C29603484500C296034875005B
:100FA4006208C296D4D7834695000348A500A206DA
:100FB4004208C29603488500C2960348B5006208F9
:100FC400C29694DB8346D5000348E500A206420896
:100FD400C2960348C5000345F500C2966205AA9669
:100FE400D4DB83C6150003C52500A2064205AA96D4
:100FF40003C50500AA9603C535006205AA9694CFD9
:1010040083C6550003C56500A2064205AA9603C51A
:101014004500AA9603C575006205AA96D4CF83C677
:10102400950003C5A500A2064205AA9603C585003E
:10103400AA9603C5B5006205AA9694D383C6D500C3
:1010440003C5E500A2064205AA9603C5C50083C5EB
:10105400F500AA96E205AE96D4D3D443F59AD4C348
:10106400D44393E61600D4C3944393E6160094C382
:10107400BA879443D842058B59E3984E014523001F
:10108400E6009843184F2183A300E6009843184FC5
:1010940041832301E6009843184F6183A301E600CE
:1010A4009C43D84F2302E600D84F2183A302E600D5
:1010B400D84F41832303E600D84F6183A303E6009E
:1010C40098532304E60098532183A304E60098531D
:1010D40041832305E60098536183A305E600D853B2
:1010E4002306E600D8532183A306E600D8534183A0
:1010F4002307E600DC53E183A307F60082800100A6
:101104008DBF17370000130727F21443411122C47F
:101114009C5E4AC006C6998326C2858B3A841739D9
:101124000000130929F0D1CB9C5E9734000093840E
:1011340064F093F7F7F99CDE173700000347E7EFF5
:1011440093070008631BF700832709009C4393F768
:101154000704173700002302F7EE83C7040093F750
:1011640007049DC397370000938747CE9C4382971B
:101174009737000023A8A7EC83C7040093F7F70B65
:10118400173700002308F7EA83C7440093F70704DE
:101194008DE7854717370000A300F7EA973700006B
:1011A400938707EB9C43096798C7130700FC97369E
:1011B40000002383E6E8D844F8D31C40985F1183E9
:1011C400058B09CB985F3D9B98DF05479736000058
:1011D4002384E6E6985F1D83058B11CB985F137714
:1011E400F7F798DF8547173700002307F7E48327CD
:1011F4000900D8430583058B19C7D843759BD8C309
:10120400D843799BD8C3B240224492440249410155
:101214008280397106DE16DC1ADA1ED82AD62ED45C
:1012240032D236D03ACE3ECC42CA46C872C676C412
:101234007AC27EC0F935F250E2525253C25332554B
:10124400A255125682567247E2475248C248324E5D
:10125400A24E124F824F2161730020309737000055
:10126400938707DF9443973700009387A7DC03C76E
:101274000700058B11CB97370000238F07DA9737C8
:101284000000A38B07DA828003C71700058B65F77C
:10129400F85271FF83C75700DDB7173800001308F1
:1012A400A8D8032708001C5F9583858BD1E709C65E
:1012B4001C5BBD832300F60085CA83270800985B66
:1012C4004607935767016356070093E707C0C207B1
:1012D400C18303970600C207C18709C7BA970947A4
:1012E400B3C7E7022390F60085CD834715008DCB65
:1012F4009736000083C666D493F6060413879700D6
:1013040089478DCA3A950347050085469947137660
:10131400F7066311D60262076187B947634C070079
:10132400832708009C5FED838D8B17370000A3088B
:10133400F7D081473E8582808547EDBF411122C4A5
:1013440006C6173400001304A4D018403DE9AE8744
:101354007453FDFE3E85B28597370000238D07CC7C
:10136400977001E0E78040E2973700009387C7CB8E
:101374009C43B70680009843558F98C3D857719BF8
:10138400D8D797370000A38907CA97370000A383EB
:1013940007CA1C40094798C31440173700001307B5
:1013A40067C983472700858B89EB83473700858B83
:1013B400D9C797370000238107C8B24022444101AE
:1013C40082808D476310F502973700009387C7C565
:1013D4009C43B70680009843558F98C3D857719B98
:1013E400D8D75DBF8547E319F5FA5447F977FD1758
:1013F400F58F5CC70F1000001C40096798C71307DE
:1014040000F8173600002309E6C217370000130757
:10141400A7C11043184231830D8B11E713076019DC
:10142400F8D3D4C795BF1842094631830D8B631591
:10143400C7001307E043EDB71307E01BD5B7FC5211
:10144400ADF3A5BF5D71A2C4A6C22A8413068002AF
:101454002800AE849305100886C6CAC04EDE52DC4E
:10146400EFF06FDB3545977001E0E780001117332B
:101474000000130363BB832703009376F41F173E16
:101484000000130E2EC223A40700984B973E0000C1
:10149400938E0EBC370FFCFF1367F70398CBF84FFE
:1014A400130510F8B7020400137707E0558FF8CF3F
:1014B4009843F576FD16758F98C39843B7063300A5
:1014C400930380251377F7E798C3984311497D1F49
:1014D4001377F7E71367071098C303270E008549AE
:1014E400930F80021C47D58F1CC783A70E001307D8
:1014F400900D3400B8CB014793553700A69583C7A8
:10150400050013767700B3D7C740858BE1C38327E3
:10151400030083280E00239C07042390070603A8D6
:10152400C8021378D8FF23A6080383A807001378FA
:10153400F70793F808F833E8080123A0070103A884
:1015440047023368580023A2070383A80E0001480A
:1015540023A2780603DA07066307480303A80703F0
:10156400038A06001358F800620813588841635828
:101574000A0103A807031358F8002380060103D8BF
:1015840007061378F80F03AA480663060A0003DA6D
:101594008705E37F49FB03A847023378E80123A2C8
:1015A400070383870600635CF40003C805003396D1
:1015B400C9001346F6FF337606012380C5003E8634
:1015C40063D3A7002A86131586016185050713775F
:1015D400F70F8506E312F7F3B6402644964406490E
:1015E400F259625A6161828097360000938646A65A
:1015F4009C42D847131617016355060298471316E1
:101604001701635006027D57B8D717270000130748
:10161400277F584F0507173600002321E6801167FE
:1016240098C798470D83058B1DC3173700000347E0
:1016340087A01367170017360000230EE69E1307D2
:1016440000F8173600002309E69E214798C79847FB
:10165400058B09CF173700000347D79D1367170081
:1016640017360000A308E69C054798C798470983E6
:10167400058B09E798470583058B31CF98471736C3
:1016840000001306269B173500001305E59909830E
:10169400058B630307101841184331830D8B75EBD9
:1016A400AC4B184E93F5050203471700CDCD79EFE7
:1016B40013077006D8CF03470600136717001736C1
:1016C40000002309E696114798C718415C57F19B1F
:1016D40093E717005CD79C4298479316370163D66B
:1016E40006029736000083C666ACC18A173700002D
:1016F400130747A4C5CE0347870713670702973626
:1017040000002385E6AA056798C798479316270122
:1017140063D1060217370000034707926207618707
:10172400635707000547973600002387E69009674B
:1017340098C798479316070163D6060297360000A8
:1017440083C6D6A6858A173700001307A79EADCE99
:10175400034797071367270097360000A388E6A47A
:10176400216798C7828029D785456315B700130779
:10177400B00689B789456315B7001307F0061DBF86
:101784008D456315B700130730072DB713075007AE
:1017940015B71307600739BF0347360013671700EF
:1017A40017360000A309E688094739BF834687072F
:1017B4000946BD8A6388C600034787078D463D8B6B
:1017C400E313D7F4114725BF83469707918AC9DAF3
:1017D400034797071367870041B7397106DE16DCA4
:1017E4001ADA1ED82AD62ED432D236D03ACE3ECCED
:1017F40042CA46C872C676C47AC27EC0F533F25075
:10180400E2525253C2533255A2551256825672476F
:10181400E2475248C248324EA24E124F824F2161D3
:101824007300203097370000938787829843856739
:10183400938707777CD3973700009387A7869C43C9
:1018440083A60709139656006358060083A6070962
:1018540013966600634406007453FDF2828071C5DA
:10186400AA870145E9C58D07C207C183F19BC20759
:10187400C18313074003636FF70217370000130790
:10188400278B0843173700001307078A144363980C
:10189400A602172700001307275C185B014541CBFC
:1018A4004111C20706C60545DD8D0297B2400145C8
:1018B400410182801737000013074787D9B70357C0
:1018C400650035E303574500636FF704B306F7403B
:1018D4002146637CD60203280500938687001D8F6A
:1018E400AA966117172600000356E6512392E600D4
:1018F40023A006012393060014C12312F500130745
:1019040086FF972600002390E6502313B500972501
:10191400000083D5454FB387F540172700002314F3
:10192400F74E2105828008419DB70145828082805F
:101934000DC1972700009387A77F03A3070097276C
:1019440000009387677E83A8070081469A8763E334
:101954001701828003A80700636DF50A636BA80A68
:1019640013878700E367E5FE03D667002167050751
:101974006317E60003C7018E05072380E18E9725D0
:1019840000009385E54703D6470003D765002393FA
:101994000700329742074183172500002315E546C7
:1019A400638A67021725000013054578084163031D
:1019B400F50203D5660019ED83D7460023A006017E
:1019C40021073E9621062392C60097270000239CF8
:1019D400E742B6879843E30E17F7972600009386ED
:1019E400E6749442E307D7F683566700BDF283D6C4
:1019F4004700035647001843A106B2962392D70026
:101A040098C383D76500A10717270000231DF73E5D
:101A14008280BE86C28725BF032785116302071211
:101A2400411122C406C68347C5008345E5042A84C0
:101A340093F7C70F2306F500834697000356C700A4
:101A440013958601618563F2C508635B050603454A
:101A5400870093F6F607A304D700054693E627000C
:101A64006314C50093E617002306D4005C4389077A
:101A74005CC3A30AB400032504112E864C43090554
:101A8400EFE0FFF58327841103465401D44303D7C1
:101A9400C700B296118FD4C32396E7008947A30DDC
:101AA400F400034764039727000083C7073C637867
:101AB400F7048347C40093E707012306F40081A0D9
:101AC40093E717002306F4006DB79376F60F635D72
:101AD400050203458700854513E627006314B50016
:101AE40013E617002306C400A30AD400A3040700C6
:101AF4008547A30DF400832784119C43DDF3B24092
:101B0400224401454101828093E717002306F40033
:101B1400A30AD400A3040700032504114C430905B8
:101B2400EFE0FFEB8327841103465401D44303D72A
:101B3400C700B296118FD4C32396E7008D4755BFD3
:101B44000545828097270000938787719C43411144
:101B540022C406C6858B2A84C5EF4165130525F585
:101B6400972002E0E780600A45C58347A500231556
:101B7400F50083270412BDE72320A4122322A41214
:101B840085472311F404232005008347640154414D
:101B94002316F5000347D4002304E5000547A304F6
:101BA400E500172700001307E748184F13851702AD
:101BB40015811C437D151375F50F9CC25C43DCC273
:101BC4001C479CC65C47DCC61C4B9CCA5C4BDCCAED
:101BD4001C4F9CCE5C4FDCCE19CD938606021307B6
:101BE4000702C1BF8327441288C3835724042322D6
:101BF400A412850779B79727000083D72754850750
:101C040017270000231CF752B2402244410182806E
:101C14008347C40023090400054593C747002306EE
:101C2400F400DDB78347850193F7E70FD5EF8347CA
:101C34009501DDEB034625018346C50009CA8345AA
:101C44006503172700000347572263E7E50013F7EE
:101C5400060141CF014709C6C18A0357651C81C6E5
:101C64008356A51C369751C31307C71217250000C6
:101C740003554523B335A70237460F004111130618
:101C84000624814622C426C206C67D543305A70213
:101C9400975002E0E780E0F69727000083C7571DBE
:101CA400B384A700972700009387C74803A7870931
:101CB4008327070963F387003E84184375FB97273E
:101CC40000009387A7189C43829781476364A4000C
:101CD400B307A440B2402244B3B7970093C7170098
:101CE40092443E854101828081473E8582809727C8
:101CF40000009387E73598437C53FDFF8280797118
:101D040026D206D622D44AD04ECE52CC56CA5AC86F
:101D14005EC68347550303447513AA843E94137423
:101D2400F40F9307400263F687001304B4FD1374A1
:101D3400F40F03AA841383AAC413A38B84122286E8
:101D44005285D685975002E0E78020E6058915E59F
:101D540003CBD41201498149337B6403930B5002B2
:101D64004A865285D685975002E0E78000E40589CB
:101D740015C5639169031374F90F238B8412B25050
:101D8400225492540259F249624AD24A424BB24B0B
:101D9400456182808509E20993D989410509E311E6
:101DA40079FDE1BF8327850903560504797193D62C
:101DB4000701BD8EC206C182358E135776409357F4
:101DC4005640898B058B5D8F93573640918B5D8F81
:101DD40093571640A18B5D8F93171600C18B5D8FAF
:101DE4009317360093F707025D8F931756009355A8
:101DF400860093F707041E065D8F1376F60F518F46
:101E040093D7554013D63540118A898BD18F13D679
:101E14007540D18F13D61540218AD18F13961500A2
:101E2400418AD18F1396350013760602D18F13960B
:101E34005500137606049E05D18F93F5F50FCD8FCB
:101E4400A20745465D8F3307C70222D42A8426D2CF
:101E540052CC56CA032A8413832AC4135AC806D6FA
:101E64003697420741839357774013555740098962
:101E7400858BC98F135537401189C98F1355174066
:101E84002189C98F131517004189C98F131537008C
:101E940013750502C98F13155700935587001375E1
:101EA40005041E07C98F1377F70FD98F13D5354053
:101EB40013D755401189098B498F13D57540498F24
:101EC40013D515402189498F139515004189498FF0
:101ED4001395350013750502498F13955500137535
:101EE40005049E05498F93F5F50F4D8F2207D98F71
:101EF400B387C7024AD04ECE5EC662C4B697C20745
:101F0400C18313D7774013D557400989058B498F6F
:101F140013D537401189498F13D517402189498F2B
:101F2400139517004189498F1395370013750502DE
:101F3400498F1395570093D58700137505049E07A1
:101F4400498F93F7F70FD98F13D5354013D75540E1
:101F54001189098B498F13D57540498F13D51540C5
:101F64002189498F139515004189498F13953500AF
:101F740013750502498F13955500137505049E05C5
:101F8400498F93F5F50F4D8F2207D98FB387C70279
:101F9400130650025285D685B697BD8E93940601DA
:101FA400C18033F6C402137BF60F975002E0E7803A
:101FB400C0BF05890DED8347D41201498149B3841B
:101FC4009702130C5002C1804A865285D6859750D9
:101FD40002E0E78080BD0589937BF90F11C5638614
:101FE4003403850993F9F90F0509E31F89FD230BD0
:101FF4006413B250225492540259F249624AD24AAA
:10200400424BB24B224C456182805E8BCDB77971D5
:1020140022D406D683C735002E8423160100A307D5
:10202400F10083C74500100802C02307F10083C7ED
:1020340055008A8502C2A306F10002C402C802CA7E
:1020440002CC02CEEFE09FF00347F1018347040086
:1020540001456310F7020347E1018347140001457A
:102064006319F7000345D101834724001D8D1335FF
:102074001500B25022544561828001119727000057
:102084009387470B22CC03A4870C26CA4AC84EC6A2
:1020940006CEAA8413092500854915C083C71400F8
:1020A40003473400858B6304F700405CFDB7194691
:1020B400930544004A85EFE09F9BE31835FF228592
:1020C400F2406244D2444249B249056182804111DE
:1020D400972700009387070622C403A4870C26C20F
:1020E4004AC006C693042500054901E82285B2408A
:1020F40022449244024941018280A6851305A40228
:102104003937E30525FF405CCDB74111972700001F
:102114009387470222C403A4870C26C24AC006C67A
:1021240093042500054901E82285B24022449244E3
:10213400024941018280A6851305A401C93DE30536
:0821440025FF405CCDB700004F
:1021500097110020938181AC17610020130181EA5F
:102160001305400097E5FF1F9385C5E9170600207A
:102170001306C6FD63FAC5008322050023A055009F
:1021800011059105E3EAC5FE17B502001305459454
:1021900097050020938585FB1386018463FAC500AB
:1021A0008322050023A0550011059105E3EAC5FE31
:1021B00013850184972500209385050C6377B5006E
:1021C000232005001105E36DB5FEFD42739002BCAE
:1021D0008D4273904280930280087390023097E2A0
:1021E000FF1F938222E293E23200739052309712E3
:1021F00000009382E2AE73901234730020303D43AE
:102200002A876373C3029377F700BDEFADE593763A
:1022100006FF3D8ABA960CC34CC30CC74CC7410796
:10222000E36BD7FE11E28280B306C3408A069702B1
:10223000000096966780A6002307B700A306B700A4
:102240002306B700A305B7002305B700A304B70012
:102250002304B700A303B7002303B700A302B7000A
:102260002302B700A301B7002301B700A300B70002
:102270002300B700828093F5F50F93968500D58DE6
:1022800093960501D58D61B79396270097020000BC
:1022900096968682E78086FA9680C1171D8F3E96B5
:1022A000E374C3F8A5B7411117A50200130505D0C3
:1022B00006C6EF500279B2408547A382F1844101FE
:1022C0008280B305B04017A502001305E5D86F5012
:1022D0004277011122CC36C606CE2E84EF10F07F55
:1022E000B24637460F00130606243376C50291CA5C
:1022F000B28517A50200130525D532C6EF506274CA
:10230000324622856244F240814505616FB0A10EDC
:1023100081E9B28517A50200130505CC6F506272E2
:102320008547639DF50017A50200130525CC09C656
:1023300017A50200130585CC6F50B2028947639838
:10234000F50017A50200130565CC7DD682808D4768
:10235000E39EF5FE17A50200130545CC71DEB2859C
:1023600017A502001305C5CC55BF011122CC26CA02
:102370004AC84EC606CEAA892E8981441384419448
:1023800003C5618463E3A4060E050905CE85229585
:10239000194697E0FF1FE780C06483C56184939767
:1023A0003500850593F5F50FA2971386F5FFA380F9
:1023B00027010E0622962383B18462448348760067
:1023C00003486600834756000347460083463600AD
:1023D000F240D2444249B2490346260017A5020002
:1023E000130585A905616F50C26593953400890571
:1023F0001946A2954E8597E0FF1FE780806709E5A3
:10240000850493F4F40FADBFF2406244D2444249D4
:10241000B2490561828079719397050126D206D66B
:1024200022D44AD0C187AE8463DC072603C5C184A9
:10243000EF10704A2A8415C5034705009307000B67
:10244000631EF70083C7718409478345450013095C
:1024500085006380E7024A85EF70A0292285EF108E
:1024600070402165258DB250225492540259456125
:1024700082800D476381E50205476390E5020347CB
:102480008500631AF7028345C50017A502001305EE
:10249000258EEF50025BA38201840347440093071B
:1024A000F007631AF7008355840017A5020013058F
:1024B000A58DEF500259834744002D476387E702FB
:1024C0000547639CE70203478400A9466311D704CC
:1024D0008345C40017A502001305C58BEF50625653
:1024E000A382018483454400BDB75C4417A5020064
:1024F0001305458B83C50700D5B74D476393E702A6
:1025000017A502001305458CEF50A265D1BFC9463F
:102510006310D7028345C40017A5020013058589FF
:1025200075BF6D476396E7002285EF00A0745DBF1D
:1025300003C7418445DB85466319D7081D47639C63
:10254000E7028357840085CB5C4417A5020013057E
:10255000A58883C5170003C6370003C7070083C7D4
:102560002700A2052206D98D5D8E2395B184239480
:10257000C184EF50024D834744001D476395E70433
:1025800003471400E947E39FE7F483D7A184B9DB4D
:102590002314F1009387818483D70700094723829E
:1025A000E1842315F100F977938727102316F100B2
:1025B000FD5703C6C1842C0003D561802307F100B9
:1025C000EF60104405B705477DBF89466313D70800
:1025D0002547639EE7028357840095CB58449305B3
:1025E000000413060064834717000347070003C570
:1025F000C184A207D98F2391F184EF10D07983D5BC
:102600002184179502001305E57FEF50824383472D
:1026100044002547639DE70203471400E947E3931D
:10262000E7EC8D472382F1849387A18483D7070049
:102630002314F1009387818483D707002315F100C9
:10264000930720202316F100930790029DB70547BA
:10265000F9B78D46E318D7E825476390E704835719
:10266000840085CF5844930500081306006483470F
:1026700017000347070003C5C184A207D98F239021
:10268000F184A3820184EF10107183D50184179522
:1026900002001305A579EF50C23A2382018499B54F
:1026A00093F7150085C3170600201306E6AA9705C1
:1026B00000209385A5A903C5C184EF90513413C5AB
:1026C000140055B393F7052081CB41657D15EFB01C
:1026D000F13413C5042041BB93F7850085CB8157A6
:1026E0002314F10023910184239401842395018410
:1026F000854783C6C18409462C0003D561802382A7
:10270000F184EF60304E13C58400B1BB93F705012F
:1027100091CF13078025814613064006D14503D586
:102720006180EFB0312F13C5040135BB93F705026B
:102730009DC3014789460946814503D56180EFB0B5
:102740003130AA85179502001305C571EF50622F2D
:1027500013C5040209BB93F70504CDC383C7518495
:10276000A5E703C7818083D7218403D561802DC766
:102770002314F1000147854781460546C9452318C2
:1027800001002315F100EF60B02F2AC615CD930785
:10279000A0052300F50003C6C1842C0003D5618089
:1027A000EF6090260DE58547A382F18483C7818081
:1027B00093B71700130600649305000403C5C18492
:1027C0002384F180EF10305D13C5040469B9C94555
:1027D0002800EF601072CDBF03C6C1842C00231403
:1027E000F100EF60B0216DF18547A382F18483C7CA
:1027F000818093B717002384F180F9B793F7050818
:10280000ADC383C75184B1E79387018483D70700A1
:10281000014781462314F10009468947C94503D57C
:102820006180231801002315F100EF6070252AC68E
:102830000DC1054423008500B24703C6C1842C00A6
:10284000A380070003D56180EF60101C11E5A3820F
:10285000818413C5040801B9C9452800EF60706977
:10286000CDBF93F705100145E38F07BE03D5618007
:10287000EFB0111A0566130606969305001003C5FE
:10288000C184EF10505113C50410F1BE83472500D9
:1028900049476365F732179702001307A7488A076D
:1028A000BA979C435D71A2C486C6A6C2CAC04EDE5A
:1028B00052DC56DA5AD8BA972A84828703C76184D1
:1028C000A54763E0E70A834A4500032A05018349D7
:1028D000C500130B550081441389419403C56184DD
:1028E00063EBA4080E0509054A951946DA8597E0B9
:1028F000FF1FE780000F83C761848E073E99A30006
:102900005901130901012946979502009385853ED7
:102910004A85EF404268594681451305A101EFF011
:102920001F8E63040A006397090C9387618483C533
:1029300007004AC083485400850593F5F50F2383AB
:10294000B1840348640083477400034784008346CE
:1029500094000346A4001795020013056555EF5037
:10296000420EB640264496440649F259625AD25A5B
:10297000425B616182809395340089051946CA954E
:102980005A8597E0FF1FE780C00E61FD850493F430
:10299000F40FA9B78507AE9793F5F70F9387150046
:1029A000E3D537F93307BA0083470700BDDF338625
:1029B000B700E35C36F70347170061171377F70F8B
:1029C000E3EAE6FCE3F8F6FCFD1793F7F70F7D4723
:1029D00093F4F70F6373F700FD4489052686D295BB
:1029E0004A8597E0FF1FE780C0FF1C18BE94238034
:1029F00004FE25BF8145854655B705041374F40FC1
:102A000083C76184637DF4009315340089051946FA
:102A1000A6954A8597E0FF1FE780A00579DD83C76B
:102A20006184639E8702179502001305254CEF50C1
:102A30004213014685450D4523830184EF903105FE
:102A4000179502001305C545EF50A21119BF0144A7
:102A500093844194170900201309499C55B7179591
:102A600002001305E549EF50C20F938741940E040D
:102A7000930624003E9403461400BE96814501450A
:102A8000EF90817D0566130606C89305002003C5F7
:102A9000C184EF10503017950200130565476DB7DC
:102AA0009305002003C5C184EF1010518345140025
:102AB000B9ED0355A4008947A383F1842393A18032
:102AC0008547A382F18403C6C184DD470C0823181F
:102AD000F100EF60806813060064A14503C5C1845E
:102AE000EF10702B0564130604C8C14503C5C184EB
:102AF000EF10702A130604969305001003C5C184D5
:102B0000EF107029179502001305854135BF179501
:102B100002001305E541EF40D2721795020013053C
:102B20002538EF50020423830184014685450D4575
:102B3000EF90E1753DB5A3830184F957930500102B
:102B400003C5C1842393F1802382018423910184EE
:102B500023830184A3820184EF101046834564001F
:102B6000179502001305853EEF40B26D17950200E0
:102B700013050533EF40F27E4DBF17950200130594
:102B8000A53ED9B5179502001305053F75BD1795EC
:102B900002001305653FEF40D27C03C76184A5475F
:102BA000E3E1E7DC8345440013055400EFF0EFFB5D
:102BB0004DBB179502001305253EF1BF8280011120
:102BC000170500001305658506CE22CCEF10B07204
:102BD0001384C18485652300A40093850596094567
:102BE000EF30305699451D45EF30B055B145214580
:102BF000EF3030559305800C3545EF3090548547C4
:102C00000D47700091451305F0402304F100A30423
:102C1000F1002305E100A305F10002C6EFA0512455
:102C20003000854513058040EFA0912313069100E5
:102C3000854513059040EFA0B1221306A1008545FC
:102C40001305A040EFA0D1211306B100854513055F
:102C5000D040EFA0F120EF70A05A03450400EF70C0
:102C60008006034504008545EF10E07AF240624497
:102C7000056182800356A500797106D622D402C66A
:102C800002C802CA02CC02CE81479305A0024D4879
:102C900013F7F70F3A8463C0C70242044180A2854C
:102CA0006800EF00F07EA2856800EF009071B250DE
:102CB00022544561828054456000B308F400BE96FA
:102CC00083C60600130417001374F40F2380D80082
:102CD000E385B6FCE38307FD85075DBF411113055E
:102CE000800406C622C426C23714004097D0FF1FB6
:102CF000E780A03C8327840A85451305001093E7ED
:102D000007202324F40AEF00703F8D4513050020AF
:102D1000EF00D03EEF0070700D45EF003073954529
:102D20000545EF005074B7E400E0B707000823A0A2
:102D3000F4108327840C8545414593E70708232435
:102D4000F40CEF0010468D4513050008EF007045A8
:102D5000EF00D05F0D45EF00906295450545EF000F
:102D6000B063B707000423A0F410EF10C009EF1000
:102D7000A01CEFB0214DA13597E0FF1FE78060EA6E
:102D8000E5BFB737004083C747008280B7170040D0
:102D900003C777051377E70FA38BE704130700F842
:102DA000A38DE7043D47238CE70413075003A38C4E
:102DB000E7048280B717004083C7E7020D8993F7C5
:102DC000C70FC98F73270080218B9386018509CB9C
:102DD0007327008023A8E18498425D9B73100780CD
:102DE0000F10000037170040130670052300C704BA
:102DF000130680FA2300C7040F1000002307F70210
:102E000023000704732700809C42A18BD98F739005
:102E1000078023A801840F100000828041112A83BB
:102E2000014E930E407E130F0019930F400663E688
:102E30006E149308001913034006B3781503854EEA
:102E40000D4FA14F337365020D891335150063E0F3
:102E5000BE161308F6FF7946729842081358080107
:102E60003307C70213D61700BE0732976146B3F681
:102E7000C60213068070B386C6023697A166F58F28
:102E800042075D8FB716004083C7F60293F7070825
:102E9000A307F1000346F10083C7F60293F7070882
:102EA000E394C7FE8347F100B716004093F7F70F8E
:102EB00063890714F3270080A18B938601856398AB
:102EC00007140F100000B717004013067005238089
:102ED000C704130680FA2380C7040F10000023AA3A
:102EE000070303C6170313660608A388C7022380D7
:102EF0000704732600809C42A18BD18F73900780BA
:102F000023A801840F1000001166B71500407D163C
:102F1000DC59C85DA98FF18FE5FFF3270080A18BF5
:102F200089CBF327008023A8F1849C42DD9B73901A
:102F300007800F100000B7170040130670052380AC
:102F4000C704130680FA2380C7040F100000D8DBE3
:102F500003C7170313670704A388E7022380070446
:102F6000732700809C42A18BD98F7390078023A880
:102F700001840F100000410182807D133368E30358
:102F80009308E016630E08003368F3039308D01625
:102F9000630808009378330093B818009388D81614
:102FA00033081E01131E0801135E0E0149B5639319
:102FB000E5030548638608000148630303002A8887
:102FC00071087298FD15131E0801C205135E0E01EB
:102FD000C181B5BD13F8150063F4BF007908D5B7FA
:102FE00013381800E5BF83C7F60293F70708A30755
:102FF000F1000346F10083C7F60293F70708E39454
:10300000C7FE8347F10093F7F70FF1DF65B5F327AC
:10301000008023A8F1849C42DD9B7390078055B506
:103020005971E2C486D6A2D4A6D2CAD0CECED2CC12
:10303000D6CADAC8DEC6E6C2EAC06EDE2A8C02D67E
:10304000EF009020F3270080A18B138D018591CB99
:10305000F327008023A8F18483270D00DD9B739064
:1030600007800F100000B71700401307700523807A
:10307000E704130780FA2380E7040F10000003C75A
:10308000F7021377770FA387E70203C7F7021367E7
:103090008700A387E7022380070473270080832724
:1030A0000D00A18BD98F7390078023A801840F1086
:1030B0000000F3270080A18B91CBF327008023A889
:1030C000F18483270D00DD9B739007800F100000B3
:1030D000B7170040130770052380E704130780FA31
:1030E0002380E7040F10000003C7E7021377C70F20
:1030F0002387E70203C7E702136717002387E70266
:10310000238007047327008083270D00A18BD98FAC
:103110007390078023A801840F100000130780C15B
:103120003347E5029169938709E8130650023D6928
:10313000B7440F0093840424856B130BA004014A49
:10314000814A13047005FD19B347F5023307C7021E
:103150003EC2930709A61309803E3347F7023AC4DB
:10316000334725030549331989011359394033453C
:10317000950293840BFAB3948401811B3306C70232
:10318000B346F6023309E90236C6330B6703130769
:103190006055B3049502130500103309E902B346E4
:1031A000FB02130B80FAB3C4A40236C8B347F9027A
:1031B000939634003719004036CC930409043ECA74
:1031C00073260080218A11CA7326008023A8C18437
:1031D00003260D005D9A731006800F100000930700
:1031E00070052380F400238064010F100000034663
:1031F00039051376860FA309C904034639051366FA
:103200001600A309C9042380040073250080032647
:103210000D00218A498E7310068023A801840F10A7
:103220000000916CE17D73260080218A11CA73260B
:10323000008023A8C18403260D005D9A73100680C8
:103240000F100000930770052380F40023806401B1
:103250000F1000000346390513660602A309C904CE
:1032600003560905336696012318C9040356090558
:103270003366B601420641822318C9042380040044
:103280007325008003260D00218A498E7310068065
:1032900023A801840F1000000346390513760602A7
:1032A0006306061603463905218A6DDE6810EF00B5
:1032B000C07D73260080218A11CA7326008023A84E
:1032C000C18403260D005D9A731006800F10000064
:1032D00023808400238064010F1000000346390519
:1032E0001376F60DA309C9040346390513660602D1
:1032F000A309C90403560905336696012318C904B6
:10330000035609053366B601420641822318C904F3
:10331000238004007325008003260D00218A498E36
:103320007310068023A801840F100000034639059E
:10333000137606026308061003463905218A6DFEDE
:1033400097D0FF1FE780E0D52A8632CE97D0FF1FA7
:10335000E78020D57246E30AC5FE035609053255BB
:10336000336696012318C904892703463905218A43
:103370006DDE0355090503462905924733F5A9007B
:103380003386C90232951D8DA24763D5A700B24787
:103390006346F50E09466365560FC247850A131644
:1033A000150093FAFA0F3346F6026354A03A050665
:1033B00009453346A60273250080218911C973256A
:1033C000008023A8A18403250D005D99731005805A
:1033D0000F10000023808400238064010F10000080
:1033E0000355C9022A96420641822316C902238048
:1033F00004007325008003260D00218A498E731076
:10340000068023A801840F10000031BD73260080C0
:10341000218A11CA7326008023A8C18403260D00C7
:103420005D9A731006800F100000238084002380B3
:1034300064010F1000000346390513660602A30954
:10344000C9042DBD73260080218A11CA732600800D
:1034500023A8C18403260D005D9A731006800F1007
:10346000000023808400238064010F1000000346C5
:10347000390513660602A309C90459BDE38F0AF092
:1034800073260080218A11CA7326008023A8C18474
:1034900003260D005D9A731006800F100000238034
:1034A0008400238064010F10000003463905137562
:1034B000FC0F1376860FA309C90403463905498E0C
:1034C000A309C904238004007328008003260D008B
:1034D000218A336606017310068023A801840F1029
:1034E0000000034639051D8A63178627732600806E
:1034F000218A11CA7326008023A8C18403260D00E7
:103500005D9A731006800F100000238084002380D2
:1035100064010F1000000346390511651376F60D9E
:10352000A309C9040346390513660602A309C904A1
:1035300003560905498E2318C90403560905216558
:10354000498E2318C90423800400732500800326B4
:103550000D00218A498E7310068023A801840F1064
:1035600000000346390513760602630E0620034663
:103570003905218A6DDE6810092B73260080218AA7
:1035800011CA7326008023A8C18403260D005D9A0A
:10359000731006800F1000002380840023806401D4
:1035A0000F1000000346390511651376F60DA309C7
:1035B000C9040346390513660602A309C904035664
:1035C0000905498E2318C904035609052165498E4A
:1035D0002318C904238004007325008003260D00EE
:1035E000218A498E7310068023A801840F100000E1
:1035F00003463905137606026303061C03463905A4
:10360000218A6DFE97D0FF1FE780A0A9AA8C97D0D2
:10361000FF1FE78000A9E30C95FF0356090511651C
:10362000498E32552318C904492103463905218A98
:103630006DDE73260080218A1385018509CA7326F1
:10364000008023A8C18410415D9A731006800F107A
:10365000000023808400238064010F1000000346D3
:1036600039051376F60DA309C904238004007328D5
:1036700000801041218A336606017310068023A85A
:1036800001840F1000000358090503462905E2478D
:1036900033F809013386C90232983308F84013061B
:1036A000800C3306C802D2473346F6026355001534
:1036B00005060948334606036351C0140358C9027E
:1036C0009308F00F13585800329863D6081F094624
:1036D00063734619F3270080A18B89CBF327008001
:1036E00023A8F1841C41DD9B739007800F1000001C
:1036F00037170040930770052300F704930780FAFB
:103700002300F7040F1000008356C7028967811752
:10371000D58FC207C1832316F7022300070473273E
:1037200000801C41A18BD98F7390078023A801844E
:103730000F100000B650265496540659F649664AB2
:10374000D64A464BB64B264C964C064DF25D65610B
:1037500082807D16B1B973260080218A11CA732632
:10376000008023A8C18403260D005D9A7310068093
:103770000F10000023808400238064010F100000DC
:10378000034639052DBB73260080218A11CA732692
:10379000008023A8C18403260D005D9A7310068063
:1037A0000F10000023808400238064010F100000AC
:1037B0000346390513660602A309C90469B37326D3
:1037C0000080218A11CA7326008023A8C1840326A1
:1037D0000D005D9A731006800F1000002380840096
:1037E000238064010F1000000346390513660602AA
:1037F000A309C904C5B37D166DBD55CE0358C902D2
:10380000B308C040135858006357180B0946637437
:103810004605F3270080A18B89CBF327008023A8DE
:10382000F1841C41DD9B739007800F100000B717D7
:103830000040130770052380E704130780FA2380F4
:10384000E7040F10000003D7C7027D8B2396E70221
:1038500023800704E9B573260080218A09CA7326EC
:10386000008023A8C18410415D9A731006800F1058
:10387000000023808400238064010F1000000356A1
:10388000C9021376F60F336676014206418223168B
:10389000C90223800400732800801041218A336606
:1038A00006017310068023A801840F100000050A8A
:1038B000137AFA0F31B2F3270080A18B89CBF3275B
:1038C000008023A8F1841C41DD9B739007800F10BA
:1038D0000000B7170040130770052380E7041307A3
:1038E00080FA2380E7040F10000003D7C7021606F2
:1038F0003A96420641822396C70299BF914763EEEA
:10390000B70217870200130727768A05BA959C41EC
:10391000BA978287B717004003A7470B1345F5FFF7
:10392000698F23AAE70A03A7070B698F23A8E70A71
:1039300003A7070A798D23A0A70A8280B717004042
:1039400083A6470B1347F5FFF98E23AAD70A83A650
:10395000070B558D23A8A70A83A6070A758F23A0F6
:10396000E70A8280B717004003A7470B498F23AAB5
:10397000E70A03A7070B1345F5FF45BFB71700403C
:1039800083A6470B1347F5FF758F23AAE70A03A702
:10399000070A598D4DB7B717004003A7470B498F4A
:1039A000EDB7914763EEB702178702001307076D63
:1039B0008A05BA959C41BA978287B717004003A73A
:1039C000470D1345F5FF698F23AAE70C03A7070DE1
:1039D000698F23A8E70C03A7070C798D23A0A70CF8
:1039E0008280B717004083A6470D1347F5FFF98E75
:1039F00023AAD70C83A6070D558D23A8A70C83A651
:103A0000070C758F23A0E70C8280B717004003A72F
:103A1000470D498F23AAE70C03A7070D1345F5FFB0
:103A200045BFB717004083A6470D1347F5FF758FB5
:103A300023AAE70C03A7070C598D4DB7B717004011
:103A400003A7470D498FEDB7B717004003D587008F
:103A5000420541819377050491EB9377F501375542
:103A6000E801130505803345F50282809377050C44
:103A7000130700046397E7009377F50137459C1C13
:103A8000CDB72165130505D0828037E700E01C43E0
:103A90005443A183E206D58F1CC1FD572320F7189C
:103AA0002322F7180F100000828013178500B7E754
:103AB00000E023A0E710618123A2A7108280B7F75E
:103AC00000E08847CC478280814737370040A146D5
:103AD00063C4C700328582800345B740E38EA6FEEB
:103AE0003385F5000345050085072304A740CDB7BE
:103AF0009387C1809C43170700201307E7773E9503
:103B0000636CE500174700201307C72F6366A70003
:103B100023A6A1803E858280FD57EDBF411122C4BE
:103B200006C62A8415372947B307E502B2408D83BC
:103B3000B3D7870222449507B3D7E702373700404F
:103B4000C207C1832316F7004101828071654111CC
:103B50001305052006C6D937B7370040130770F89C
:103B60002381E7000D47A381E70013070004A3802A
:103B7000E70005472387E700B240410182803737DD
:103B80000040834727001A0593F7F703C98F93F77F
:103B9000F70F2301F7008280B737004003C71700F3
:103BA00019C9D98DA380B70003C707001367870021
:103BB0002380E700828093C5F5FFF98DA380B700CD
:103BC0008280B73700402147B736004091E18280BC
:103BD00003C6B700E30CC7FE05050346F5FFFD1558
:103BE000C2052384C600C181D5B7411122C406C6CF
:103BF0002A84993D2947B307E502B2408D83B3D7A4
:103C0000870222449507B3D7E70237370040C2073F
:103C1000C1832316F740410182807165411113056C
:103C2000052006C6D937B7370040130770F823813F
:103C3000E7400D47A381E74013070004A380E74056
:103C400005472387E740B240410182803737004073
:103C5000834727401A0593F7F703C98F93F7F70FA8
:103C60002301F7408280B737004003C7174019C9C6
:103C7000D98DA380B74003C707401367870023800F
:103C8000E740828093C5F5FFF98DA380B74082801D
:103C9000B73700402147B736004091E1828003C624
:103CA000B740E30CC7FE05050346F5FFFD15C20549
:103CB0002384C640C181D5B711456FF06FB641115D
:103CC00093962500AA852D4506C697D0FF1FE7804D
:103CD000A09AB240014541018280411126C29394CD
:103CE000250022C44AC02A843289A686AA850146B4
:103CF000254506C697D0FF1FE7800098A6864A860E
:103D0000A285294597D0FF1FE7800097B240224443
:103D100092440249014541018280011122CC06CE24
:103D20003714004026CA4AC84EC652C4834474059C
:103D3000034AB4058349840503499405EFF00F85D0
:103D40008347A40593F4F40F137AFA0F93E717004F
:103D5000230DF40493F9F90F1379F90FB717004005
:103D600003C7A705058B6DFF03D5C705A38D4705C1
:103D7000238C3705A38C2705A38B9704F24062445C
:103D8000D2444249B249224A056182804111939747
:103D9000050122C406C6C1872E8463DB0700252ED9
:103DA00011C1C9242165218DB24022444101828084
:103DB00093F7150013C51500E5FB9397250163D014
:103DC0000702EF40312ACD3D37F60200130606E028
:103DD000896503C54185EF00007C0965E9B79397C4
:103DE00015010145E3D207FC178502001305C52E16
:103DF000EF30325713060064916503C54185EF002B
:103E0000807911654DB71D714946978502009385EC
:103E10002528178502001305254B86CE97D0FF1F56
:103E2000E78020C501E9178502001305A527EF30BB
:103E3000525301A0B7F600E0795798CAFD57DCCA83
:103E40000567B7E700E023A0E7101306F00290C271
:103E500023A0E7180F1000001306C003814548088F
:103E600097D0FF1FE78060BB97E7FF1F93874774DA
:103E70003ECA896793870780231CF100B547230456
:103E8000F102A167938707E03ECEB707010593874C
:103E900007103ED0ED472312F10285472303F102BC
:103EA000970700009387E7E1BEC497070000938758
:103EB00007E3BEC68567938717D02315F1029707DE
:103EC0000000938707C03EDAB7F5070097070000A8
:103ED0009387E7E43EDE814697070000938707DE7D
:103EE0007000E1051945BEC097C0FF1FE780C0788C
:103EF00058088147994670003E960346060085079C
:103F00000507A30CC700E398D7FED24791C7035714
:103F1000810185676373F70001A04808EF007041D5
:103F2000AA8501C91785020013050519EF30723102
:103F300001A0F6402561828041111705000013059C
:103F400025E506C622C4EF00103B138441852300FB
:103F5000A4001128034504002244B2401306003295
:103F6000896541010DAD411106C6F3270080A18B83
:103F70001387018589CBF327008023A8F1841C4394
:103F8000DD9B739007800F100000B7170040930669
:103F900070052380D704930680FA2380D7040F107E
:103FA000000083C6F70293F6A60FA387D7022380EB
:103FB0000704F32600801C43A18BD58F73900780E4
:103FC00023A801840F100000F3270080A18B89CB68
:103FD000F327008023A8F1841C43DD9B73900780A6
:103FE0000F100000B7170040930670052380D70418
:103FF000930680FA2380D7040F10000083C6F702CF
:1040000093E62600A387D70223800704F3260080C7
:104010001C43A18BD58F7390078023A801840F10B8
:1040200000000545EFE01FD941391305407E814767
:104030000147814605468545EFE05FDEB240014518
:1040400041016F00B06323AC05FE1C4191E7010004
:1040500001000CC18280BA8703A787FF6DFF23ACE4
:10406000B7FE82801DC18346E5FF1307F00F91471D
:10407000639EE600411106C697E0FF1FE780808B34
:10408000B24081473E854101828095473E858280CE
:1040900001E9014582800145B2402244410182800C
:1040A00095654111938505D022C4C98D2A842105C7
:1040B000C2054205C181418106C697D0FF1FE78036
:1040C000407A71D9FD572320050023128500230370
:1040D000F5002105D1B717070020130727D21C438D
:1040E000411122C426C24AC006C601440149BA840D
:1040F00089E7A165D1251DC401A803C7E7FF631A9D
:10410000A7020DCCA165012E9840832784FF631977
:10411000E402170700202323F7CEFD57232C04FECB
:10412000230FF4FE2285B240224492440249410109
:10413000828011E03E8983A787FF5DBF3E84E5BF93
:10414000232CF9FED9BFB1CD411122C406C62A8461
:104150009707002083C7D7CA2E856375F400894767
:1041600063E8870001370D45B24022444101828057
:1041700083A785FF99E703C7E5FF9307F00F630562
:10418000F700CD351545CDB7238F85FE17050020E7
:104190001305C5C64D3D22852244B240A1654101AB
:1041A0009DAC154582809707002023A907C4828013
:1041B00097070020938707CA9C4399E33E85828036
:1041C00003D727006316B70003C70700E308A7FE5D
:1041D000DC47E5B7C9C1797122D406D626D24AD0C8
:1041E0004ECE01444147B3D78540858BA5C3120508
:1041F000314722953305E50297070020938787C949
:1042000003A907008544B3948400C204C180BE8919
:104210002A990327090011C7032549002EC60297D2
:10422000B24531473304E40283A709003E941C449D
:1042300089E72320090023220900B2502254A58DCA
:1042400002599254F2492E85456182800504E31C8F
:10425000E4F88144DDB72E85828041111397050172
:1042600022C406C626C24AC041872E84635E070068
:104270009D3511C1C53BA1673D8C2285B2402244CA
:104280009244024941018280EDD9AA870147414603
:10429000B356E440858A8DCE9207BA97B146B3876C
:1042A000D702970600209386E6BE03A90600854440
:1042B000B394E400C204C1803E998327090003251A
:1042C000490082972320090023220900258C75B715
:1042D0000507E31FC7FA8144D5BF970700209387DE
:1042E000A7B79C53411122C406C61384018199C704
:1042F00082971C403E9523A8A18039A097070020F3
:104300009387C7B49C43EDF70840B74703009387F2
:10431000D73F3305F502B7A72600938737ECB240A5
:1043200022443E9523A8A180410182807DC1970748
:1043300000209387A7B19C43797122D426D24AD01A
:104340004ECE52CC56CA5AC806D65EC63A8AB689EE
:10435000328BAE8A2A89829797070020938787B38A
:104360009843BE840144B146C147B30BD40233061F
:104370007701104251EAC165938505F0414597D018
:10438000FF1FE780004E1DE5970700209387C7AC0D
:104390009C5B2D4589C71145814582972D45B250BB
:1043A000225492540259F249624AD24A424BB24BC9
:1043B00045618280970700209387C7A9984329E326
:1043C0009707002023A8A7A8230005009C400547C5
:1043D0003317870023260500232465012311E500F8
:1043E00023224501DE9723A0270123A2570123A4FE
:1043F00047010145E38509FA238089004DB73E87CF
:104400005C47F5FF48C7C9B70504E310F4F621453A
:1044100079B7094582809707002083C7779E63712B
:10442000F502170700201307A7A2931715000843EA
:104430003E9583570500DD8D2310B5000145828030
:104440000D4582809707002083C7979B6373F50211
:10445000170700201307C79F93171500084393C53C
:10446000F5FF3E9583570500FD8D2310B5000145EE
:1044700082800D458280130705FF1377F70FFD47F4
:1044800063E9E70AB146B306D50297070020938790
:1044900067A0984389473697184349CF011122CC2A
:1044A0004EC60544935945003D893315A4001314A5
:1044B0000501418026CA4E85AE84A2854AC806CE33
:1044C000C5392A89814731CDA2854E85A53F9707F9
:1044D00000209387A7979C4382979707002083D754
:1044E000679C338797022A84814613060064B3B71A
:1044F000970213050732B335E500BE95EF20227011
:10450000B307850097060020938646993E87D442DC
:1045100063E4A70063E4D7003387D7402324E9008E
:104520008147F2406244D2444249B2493E85056126
:10453000828089473E858280011126CA06CE22CC20
:104540004AC84EC6BD47894463EFA70231473307C7
:10455000E502970700209387E7939C438944BA9725
:104560009C4395C305443314A400420441802E8922
:104570000145A2853539AA89814411C5A285014525
:10458000D13523A42901F240624426854249D24410
:10459000B249056182809707002083C777866364EC
:1045A000F500014582800111970700209387078A53
:1045B00056C283AA070006CE22CC26CA4AC84EC6D7
:1045C00052C4638D0A0A170A0020130A2A8D832415
:1045D0004A00B74736FE938707C8AE899705002083
:1045E00083D5458CBE94B387C5022A84328981461F
:1045F000B3B5C50213850732B337F500130600645F
:10460000BE95EF20C25F63EBA406829A9705002057
:1046100083D54589B3872503AA84130600648146A0
:10462000B3B5250313850732B337F500BE95EF20E8
:10463000025DB3079500BE8403274A0063E4A70028
:1046400063E4E700B384E740CE852285953601C553
:1046500004C505452DA0936504F0C205C1814145FF
:1046600097D0FF1FE780E01F05E597F7FF1F9387AF
:10467000A77E9C5B81C7A285114582970145F240C8
:104680006244D2444249B249224A924A0561828038
:1046900097F7FF1F9387077C9C439DE397F7FF1FC6
:1046A00023AAA77A85472326050004C523113501CF
:1046B00023008500A300F5002322050059BFBA8717
:1046C000D84775FFC8C7F9BF59C9797122D426D216
:1046D0004AD04ECE52CC56CA5EC662C466C206D618
:1046E0005AC83689328AAE89AA844144314C97FA35
:1046F000FF1F938A2A7A854C930B0003330B8403A4
:1047000003A70A005A971C43B1E79375F400B395C9
:10471000BC0013554440C2055286C1811375F50F84
:104720009D3D0DC983A70A000145DA9784C323A2E2
:1047300037016304090023008900B25022549254C7
:104740000259F249624AD24A424BB24B224C924C35
:10475000456182800504E31374FB2145F9BF0945D7
:104760008280411122C426C24AC006C62A842E89EC
:10477000B2841535CA852285EFF09FA305CD97F544
:10478000FF1F83D52572B38795022A841306006420
:104790008146B3B5950213850732B337F500BE9550
:1047A000EF20E24548C00145B2402244924402490C
:1047B000410182802145CDBF411122C426C24AC099
:1047C00006C62A892E84EFF0BF9EAA8419C1231140
:1047D0000500A2854A85BD3197F7FF1F83C7476251
:1047E000639B270197F7FF1F83D707665D8C97F7B9
:1047F000FF1F239B8764014591E01945B240224485
:1048000092440249410182809307F00263E8A704C1
:104810004111B14722C43304F50226C297F4FF1FA9
:10482000938444679C4006C6A297984389470DC36A
:104830009377F5008545B395F500C205C1811181D7
:10484000A53F9C40A29723A0070023A20700814711
:10485000B240224492443E854101828089473E8590
:104860008280411106C622C4EFF09F9411E50145F4
:10487000B24022444101828097F7FF1F9387075D72
:104880009C430045829797F7FF1F938727616368D2
:10489000A402D843B74636FE938606C83305A44023
:1048A0003697E376E5FC13070064B335E50203D6DB
:1048B000870081463305E502EF20623455BFD843B7
:1048C0003A94C1BF411122C426C217F4FF1F13043A
:1048D000E45C97F4FF1F9384A4529448584097F7E0
:1048E000FF1F9387A75606C69C436393E6088297EB
:1048F0005440B74736FE938707C8B6973387A7005B
:104900003A856364F7006364D7003305D74097F4B2
:10491000FF1F938424729C4C81CF97F7FF1F9387CE
:10492000677894433707CDFF7D179C46F98F9CC667
:1049300011E1484097F7FF1F93870752DC53829796
:1049400019E59C4C8DC3EF406108EF30E15D9C4C54
:1049500099CB97F7FF1F9387E7749843B706330007
:104960001C47D58F1CC7B24022449244410182802B
:104970008297984897F7FF1F83C7574F54401D8F62
:10498000B307A7003E8563E4E700E3E2D7F8338589
:10499000D740B5BF411106C697F7FF1F23AEA74EFC
:1049A0000295B24097F7FF1F23A8A7460145410192
:1049B0008280994763E9B7008A0597F7FF1F9387BD
:1049C000E746BE9588C1828041117146814517F541
:1049D000FF1F1305A54506C697F7FF1F23AC074623
:1049E00097F7FF1F23AA074A97F7FF1F23A0074641
:1049F00097C0FF1FE780600213068002814517F50C
:104A0000FF1F1305E53F97C0FF1FE7800001EF90F0
:104A1000910E97F7FF1F83C7974513D527008D8BFE
:104A20003E958D473305F502854539051375F50F1C
:104A300097F7FF1F2387A73C99473305F502130516
:104A4000052497D0FF1FE780C0E117F7FF1F23233E
:104A5000A74459CD994717F6FF1F0346863A3306F8
:104A6000F60281451306062497C0FF1FE780E0FA8F
:104A700097F7FF1F938707429C439387072417F7F5
:104A8000FF1F2323F73A17F7FF1F034787370A074C
:104A9000BA9717F7FF1F232DF73AEFF0CFF0052B4A
:104AA00097F7FF1F93874738944397F7FF1F83C7F4
:104AB000373513972700369717F6FFFF1306C67191
:104AC00010C3138717001377F70F0A07369717F6E7
:104AD000FFFF1306C67810C313873700890793F7C3
:104AE000F70F8A0797F5FF1FA38CE530B69790C3A1
:104AF000B2404101828097F7FF1F83C7773017F7D5
:104B0000FF1F0347073063F3E70217F7FF1F130781
:104B1000A73118439386170017F6FF1FA302D62E5E
:104B200093962700369708C33E8582809307F00F3F
:104B3000E5BF1C41638A071641777D8FB7060020C9
:104B400089476314D71603574500630007164111C0
:104B500022C419462A849305F00F690506C697C03A
:104B6000FF1FE780A0F505478D47630AE5121C4447
:104B700081CB5858994763040712185C63010712E8
:104B80001306C003814517F5FF1F1305E52C97C0D9
:104B9000FF1FE78080E81306C003A28517F5FF1FFB
:104BA0001305852B97C0FF1FE780A0E317F7FF1FB2
:104BB0000357472B97F7FF1F9387072A19E7130718
:104BC000001097F6FF1F239FE62817F7FF1F0347E4
:104BD000872911E7054797F6FF1F2386E62817F771
:104BE000FF1F0357672811E76D4797F6FF1F239DA7
:104BF000E62617F7FF1F0347172711E7154797F614
:104C0000FF1FA382E62617F7FF1F0347072611E7BA
:104C1000054797F6FF1F238AE62417F7FF1F034770
:104C2000D72419E703C7F70097F6FF1FA38FE622E3
:104C300017F7FF1F0347872311E7354797F6FF1F35
:104C40002386E62217F7FF1F0347972219E713076A
:104C5000800297F6FF1FA38DE62017F7FF1F03477B
:104C6000F72019E71307D00297F6FF1FA380E6206D
:104C70000347840119E71307C00397F6FF1F238931
:104C8000E61E9C5791C7829797F7FF1F239EA71692
:104C9000FD5717F7FF1FA309F7463D338147B24081
:104CA00022443E854101828089473E8582800111F0
:104CB0004EC697F9FF1F9389691E83A7090006CE88
:104CC00022CC26CA4AC852C4829713090064B3355D
:104CD000250303DA89008146528633052503EF1048
:104CE000127297F7FF1F9387A711804FAA8401457F
:104CF0006306940233858440636E940003A54900E3
:104D000052868146B335A9023305A902EF10326FEE
:104D1000018D269597F7FF1F23A09710F24062445C
:104D2000D2444249B249224A05618280011122CC13
:104D30000A852E844146977502009385A5FD06CE0F
:104D4000EF206225180806043A94035504FF97F7EC
:104D5000FF1F83D74715F2406244AA9737450F00DB
:104D6000130505243355F5020561828097F7FF1F6F
:104D700083D7671351471D45637CF702794719456F
:104D80006378F7021307200315456373F7021307CF
:104D9000B0041145637EF700130740060D456379A3
:104DA000F7001307600909456374F70013B5B70FDF
:104DB0008280011122CC06CE2A842EC6EFF0EFD1DC
:104DC000B245F240818D33A5A50222956244137548
:104DD000F50F05618280011122CC06CE2A842EC6F1
:104DE000EFF0AFCFB245F240818D33A5A5022295F9
:104DF00062444205418105618280011122CC06CEC8
:104E00002A842EC6EFF06FCDB245F240818D33B5C6
:104E1000A502229562440561828097F7FF1F938760
:104E2000A703985739CB411122C426C206C6BE84B7
:104E3000029717F7FF1F035727FD2A8415CBBA8760
:104E40006373A700AA87C207C183BA866373E400AD
:104E5000A286C206C182958F5147635BF700DC547E
:104E600091C38297EF30112097F7FF1F239E87F899
:104E7000B2402244924441018280828097F7FF1F12
:104E8000938787FDDC57011106CEAA8581C72AC604
:104E90008297B245C1C59C410545B5CFDC41A5CF40
:104EA00083D78500ADCB83D7A500B5C783C7C50021
:104EB000BDE3414617F5FF1F130545FE97C0FF1FD1
:104EC000E78020B297F7FF1F938747FD9C4317F7B2
:104ED000FF1F232DF7F697F7FF1F83C777F98DE79D
:104EE0009307800217F5FF1F0355C5FB3305F50235
:104EF00037460F001306062481468145EF103250D5
:104F000097F7FF1FA386A7F617050000130565DABC
:104F1000EFF05FA80145F2400561828097F7FF1F1F
:104F200083C7E7F41397870161876354070497F7F2
:104F3000FF1F23A507EE97C7FF1F938787ED17F77E
:104F4000FF1F232DF7F47D5797F7FF1F23AAE7F4E0
:104F5000B7873200938727A197F6FF1F23A4F6F4A3
:104F600097F7FF1F238207F4B7C7004023A4E72663
:104F700091BF13F7170005CFB7872003938707D09A
:104F800017F7FF1F2320F7F2B707C0A817F7FF1F77
:104F90002328F7F097C7FF1F9387C7EA17F7FF1F6C
:104FA000232EF7EE97F7FF1F238007F021BF6177CD
:104FB00097F6FF1F2398E6EE81CB9307003217F791
:104FC000FF1F2312F7EEC9B793072003CDBF0111CE
:104FD00022CC17F4FF1F130424E8084406CE26CA87
:104FE0004AC801E90545F2406244D244424905619C
:104FF00082805C58E5DB185C75D770008545829728
:105000001844B247E300F7FE9305E00417F5FF1FCD
:10501000035545E597D0FF1FE780A08417F7FF1FD2
:105020002320A7E061D117F6FF1F0356A6E39305DF
:10503000F00F97C0FF1FE780409E814417F9FF1FC4
:10504000130909DC97F7FF1F83C7E7E1032609026D
:1050500063C1F402328597D0FF1FE780A08D014520
:1050600097F7FF1F23AE07DA97F7FF1F23AC07DA86
:105070009DBF97F5FF1F83D5E5DEB38795020844F2
:10508000185C898185043E9508C2029765BF0111AD
:1050900056C297FAFF1F938A2ADC83A78A0022CC84
:1050A0004AC84EC606CE26CA52C45AC0AA892E8401
:1050B00032896385072203A74A03630707147D47E4
:1050C0006366A71497F4FF1F938484D303AA040292
:1050D00063170A0A9565938515E017F5FF1F0355B9
:1050E00065D897C0FF1FE780C07797F7FF1F23A9F8
:1050F000A7D22A86630A051083A74A0303A58A005C
:1051000097F5FF1F83D505D68981829783A78A00EB
:1051100003AA040217F7FF1F2326F7D08947639CD1
:10512000F908C1476312F40E97F5FF1F83D585D3A5
:10513000938505FC9147B3C5F5028A05D29503C74F
:1051400005009307A005631DF70A83C7150063993F
:10515000370B4A852286910597C0FF1FE78060883C
:105160009C505285639347150145F2406244D244F6
:105170004249B249224A924A024B05618280D85084
:10518000E38EE7F89565938525E017F5FF1F035536
:1051900065CD97C0FF1FE780C06C2A8A35C52A8677
:1051A00083A74A0303A58A0097F5FF1F83D585CB04
:1051B00089818297A5B78D47639DF900C147631523
:1051C000F40497F5FF1F83D5E5C9938545FDF19953
:1051D000B5B79147639AF9006318340397F5FF1F39
:1051E00083D545C8A115E5B7C147639FF900A1471D
:1051F00063EC870097F5FF1F83D5C5C6C115C1BFF6
:105200009C5052856397470D294585B71307F006D3
:10521000568B6361A70A130A05FE1947334AEA024F
:1052200017F7FF1F035707C497FAFF1F938A4ABD5A
:10523000330AEA023E9A83A74A026395470183A490
:105240000A029DE49305E00417F5FF1F035585C18D
:1052500097C0FF1FE780E060AA845DD583274B03DA
:1052600097F5FF1F83D505C02A86898152858297CD
:1052700091451307A005898193972500A69783C6BA
:1052800007006393E60483C61700639C3603850515
:105290008A052286A6954A8597B0FF1FE78060742D
:1052A00083A70A02E38297EC268597C0FF1FE78059
:1052B00060685DBD1307E007E368A7F4130A05F90A
:1052C00085B783D5270045BF83A70A02E38E97F2EF
:1052D000268597C0FF1FE780E0653DB797F7FF1F62
:1052E000938707B28C538DD191479306A00589838C
:1052F000139727002E9703460700E317D6F00346BF
:105300001700631C360185078A072286BE954A85E9
:1053100097B0FF1FE780E06C81BD83572700C1BFB6
:1053200097F7FF1F938747B3984739C79C5FA9C773
:1053300005476313E504411122C417F4FF1F13044A
:1053400024AC105006C60DC6485097F5FF1F83D5F4
:1053500065B189818297085097C0FF1FE780805D03
:1053600097F7FF1F23AE07AA97F7FF1F23AC07AAE3
:10537000B2402244410182808280011117F7FF1F51
:10538000130787AD4EC68329870022CC26CA4AC898
:1053900006CE52C456C2AA842E843289638A09205A
:1053A0001C5FBA8A99EB2945F2406244D2444249D3
:1053B000B249224A924A056182805C5BEDD7FD4783
:1053C00063E9A70E97F9FF1F938989A383A70902B1
:1053D000B1CB03A58A0083A749026395A706894735
:1053E0006393F408C147E310F4FC17F5FF1F03555E
:1053F00065A79147130505FC3345F5029317250072
:1054000003A509022286CA853E959307A0052300BD
:10541000F500A3009500110597B0FF1FE780605CC1
:10542000014559B79305E00417F5FF1F035585A300
:1054300097C0FF1FE780E04297F7FF1F23A2A79EB8
:1054400049F995B783A74A0303A6090297F5FF1FF9
:1054500083D545A18981829783A78A0017F7FF1F0B
:105460002322F79CADBF8D47639EF400C147E31C28
:10547000F4F217F5FF1F0355E59E130545FD9377DD
:10548000C5FFBDBF9147639AF400E31E94F017F582
:10549000FF1F0355259D2115DDB7C147E395F4F0A6
:1054A000A147E3E287F017F5FF1F0355A59B4115C0
:1054B000F9B79307F00663EAA706930705FE1947B5
:1054C000B3C7E70217F7FF1F0357C79917FAFF1F64
:1054D000130A0A93B387E702BE9983270A02A9CF6A
:1054E00083274A02639A370703250A029146130865
:1054F000A005FD5593D72600C207C1831397270047
:105500002A9703460700631D0607834817000356C2
:10551000270063959806B306D64063CF86048507B7
:105520008A072286CA853E95C5BD9307E007E3EC4E
:10553000A7E6930705F979B79305E00417F5FF1F70
:105540000355459297C0FF1FE780A03197F7FF1FD3
:1055500023A8A78C51F581BD83A74A0303260A021D
:1055600097F5FF1F83D5059089814E85829797F720
:10557000FF1F23A9378B8DBFA300B700B2869DBF45
:10558000B385860017F6FF1F0356C68D91051306D7
:1055900006FCE3FAC5E0130634001376C60F1106C5
:1055A000B29623000701A30097002311D70085BFFF
:1055B00097F7FF1F9387C7849453BE89A1C203A5A1
:1055C000090291461308A005FD5593D72600C2078E
:1055D000C183139727002A97034607006316060521
:1055E000834817000356270063989800B306D640F7
:1055F000E3D786F2A300B700B286C1BF8357C700C6
:1056000017F5FF1F034525869305E0043305F502D2
:105610004205418197C0FF1FE780A02497F7FF1F35
:1056200023A0A78049FD41B317F6FF1F03568683C9
:1056300097F5FF1F83C52583B385C5023386860092
:105640001106E3E2C5D681BF01458280011106CE75
:105650002EC6EF80B03301C9B245F2400355250094
:1056600005616FC09071F240494505618280A38257
:1056700001882382018823A6018623A8018623AA04
:10568000018623AC018623A4018623A2018697F715
:10569000FF1F9387A783930640382391D702F176A3
:1056A0001307400B938606B82391E7002392D70295
:1056B00011679D46130600059305000A1305007D3A
:1056C0002392E7002393D70241478546130810F839
:1056D0002395E7002396E7002399E700239AE70044
:1056E000239BE700239CE7002394E7022390070015
:1056F0002393B7002394B7002397C7002398C700CC
:10570000239DA700239E0700239F070023900702E5
:105710002395D70223960703239707029308F007E0
:10572000239807022392E7042393E704239FE704C7
:105730002390E7062391E7062392E70623991703B0
:105740001307C01C239AD702239BD702239C07026E
:10575000239D0702239E0702239F0702239007042D
:105760002391D70423940704239507042396D70491
:105770002397C7042398C7042399A704239A0704EF
:10578000239B0704239C0704239DC704239EC7046F
:105790002393A70623940706239507062396070657
:1057A0002397B7062398B70623990706239AE70697
:1057B0005147239DE7067D57239B0706239C070639
:1057C000239ED706239F07062390070823910708E7
:1057D000239207092393E7088280011126CAAA842D
:1057E000214522CC06CE2E8432C636C43AC2EFE022
:1057F0003F8A1DC9A24612473246930700FD230087
:10580000F5009947A30095002301F5002303D50077
:10581000A303E5002312C500AA8522856244F24055
:10582000D24405616FE03F92F2406244D244056188
:10583000828023A6A186828023A8A186828023AAB3
:10584000A186828023ACA1868280011122CC4AC825
:1058500006CE26CA2A890144B30489006368B400CD
:10586000F2406244D2444249056182802EC6EFE094
:10587000DFA693170501C183A183B2452380F400FD
:105880009307140093F7F70F850463F9B700CA97DD
:1058900009042380A7001374F40F7DBF3E847DBFED
:1058A000C16717E5FF1F0355C560FD176304F502C7
:1058B000411117E6FF1F034666759385C18706C62B
:1058C000EF80C06AB240FD5717E7FF1F2313F75E52
:1058D00041018280828009C925151375F50F1335A2
:1058E000850E1345150082800145828023900500B6
:1058F000C9C6797122D426D24ECE52CC5AC806D609
:105900004AD056CA5EC63684328AAE892A8B814412
:1059100063F34407B307940083C707001389140097
:105920004209939A070193DA0A0113590901638422
:105930000A04CA976341FA04B307240183CB070022
:105940005E85513F0DC99387FAFF2390F90063905C
:105950006B03130519002295B25022549254025938
:10596000F249624AD24A424BB24B45618280D69498
:10597000C204C18071BF0145C5B701458280411194
:1059800026C2AE8422C497E7FF1F23ABC75297E716
:10599000FF1F23A5B75297E7FF1F23AFA7502A8405
:1059A00041469305F00F26854AC006C6054997B0C3
:1059B000FF1FE780A0106310250597E7FF1F93875F
:1059C000E74E884BC145513541469305F00F22857E
:1059D00097B0FF1FE780800E85446318950222442C
:1059E00097E7FF1F9387874CB24092440249C8470C
:1059F000C145410199BD41468145268597B0FF1FAC
:105A0000E780C00BE31225FD4DBF4146814522854D
:105A100097B0FF1FE780800AE30395FCB240224461
:105A20009244024941018280411122C426C22E843F
:105A3000AA8413060002814517E5FF1F13050547D9
:105A400006C697B0FF1FE78040FD97E7FF1FA380C2
:105A5000974697E7FF1F238D875AEFC0503485473D
:105A600019C181474945B240224417E7FF1F230F60
:105A7000F742924441018280814781CD19C985470F
:105A8000631BF50083C7550093E707FCA382F5006D
:105A900085473E85828089476317F50083C7550097
:105AA00093F7F703E5B70D478547E314E5FE03C712
:105AB00055001377F70313670704A382E500D1BFEE
:105AC00081478DC105C103C755009306000C85476A
:105AD0001377070C6308D700930600048D47630310
