:040000006F20C01499
:10000400000000000000000090000020AE0400206A
:10001400A9BDF9F3900000200000000000000000DA
:10002400900000209000002000000000000000006C
:10003400900000200000000090000020000000005C
:1000440090000020900000209000002090000020EC
:1000540090000020900000209000002090000020DC
:100064009000002090000020122C0000920000203C
:10007400A2050020900000209000002090000020A5
:1000840090000020900000209000002090000020AC
:1000940001A0B737004083C74740730020304111A7
:1000A400B7170040985F3AC6945F3247E39CE6FE78
:1000B40032454101828073270080218B938701851B
:1000C40009CB7327008023A8E18498435D9B7310B8
:1000D40007800F10000037170040930670052300B7
:1000E400D704930680FA2300D7040F100000834638
:1000F400B70493F6F60DA305D7042300070473266B
:1001040000809443A18AD18E7390068023A8018431
:100114000F10000093760502638406180347A700B6
:10012400118B25E773270080218B09CB732700806F
:1001340023A8E18498435D9B731007800F1000008F
:1001440037170040930670052300D704930680FAFE
:100154002300D7040F1000008346A70093E646004F
:100164002305D70023000704F32600809843218B3E
:10017400558F7310078023A801840F100000130704
:10018400004B010001007D176DFF73270080218B58
:1001940009CB7327008023A8E18498435D9B7310E7
:1001A40007800F10000037170040930670052300E6
:1001B400D704930680FA2300D7040F1000007D892A
:1001C4002314A7000100010001000100230007041B
:1001D400F32600809843218B558F7310078023A842
:1001E40001840F10000073270080218B09CB732733
:1001F400008023A8E18498435D9B731007800F104F
:10020400000037170040930670052300D7049306B7
:1002140080FA2300D7040F1000000F100000B72647
:10022400004013061005A383C68023000704F326A9
:1002340000809843218B558F7310078023A8018475
:100244000F10000073270080218B09CB73270080D7
:1002540023A8E18498435D9B731007800F1000006E
:1002640037170040930670052300D704930680FADD
:100274002300D7040F1000008346B70493E6060852
:10028400A305D70423000704732700809C43A18B94
:10029400D98F7390078023A801840F1000008280F7
:1002A40093760504638B06140347A700418B25E767
:1002B40073270080218B09CB7327008023A8E18456
:1002C40098435D9B731007800F10000037170040A0
:1002D400930670052300D704930680FA2300D704FD
:1002E4000F1000008346A70093E606012305D700FC
:1002F40023000704F32600809843218B558F731045
:10030400078023A801840F1000001307007D01005B
:1003140001007D176DFF73270080218B09CB7327A4
:10032400008023A8E18498435D9B731007800F101D
:10033400000037170040930670052300D704930686
:1003440080FA2300D7040F1000009376F50193E69A
:1003540006042314D700010001000100010023005A
:100364000704F32600809843218B558F7310078070
:1003740023A801840F100000130760046310E50430
:1003840073270080218B09CB7327008023A8E18485
:1003940098435D9B731007800F10000037170040CF
:1003A400930670052300D704930680FA2300D7042C
:1003B4000F100000B72600400946B5B5732700802A
:1003C400218B09CB7327008023A8E18498435D9B8C
:1003D400731007800F100000371700409306700554
:1003E4002300D704930680FA2300D7040F100000DB
:1003F400B7260040130620053DB573270080218BE6
:1004040009CB7327008023A8E18498435D9B731074
:1004140007800F1000003717004093067005230073
:10042400D704930680FA2300D7040F1000008356E4
:10043400870093E6060C2314D700C5BB41118146FF
:1004440001468145114506C63524F3270080A18B5A
:100454009386018589CBF327008023A8F1849C42ED
:10046400DD9B739007800F100000B717004013073F
:1004740070052380E704130780FA2380E7040F1034
:10048400000003C76704136717002383E70423806E
:100494000704732700809C42A18BD98F7390078037
:1004A40023A801840F100000B240410182808146DC
:1004B4000146814511457D2AF3270080A18B1387CE
:1004C400018589CBF327008023A8F1841C43DD9B9D
:1004D400739007800F100000B71700409306700553
:1004E4002380D704930680FA2380D7040F100000DA
:1004F400FD562396D70223800704F32600801C436D
:10050400A18BD58F7390078023A801840F1000005E
:10051400F3270080A18B89CBF327008023A8F184E3
:100524001C43DD9B739007800F100000B717004039
:10053400930670052380D704930680FA2380D7049A
:100544000F10000083C6670493E616002383D704C4
:1005540023800704F32600801C43A18BD58F73905E
:10056400078023A801840F10000001A0BD473305B4
:10057400F50201007D1575FD8280411122C426C259
:1005840006C6AA84014463179400B24022449244EC
:100594004101828005041305803E4204C13F41802D
:1005A400DDB7B7170040130700032388E702854728
:1005B40023ACF18473002030230304801547230304
:1005C400E48001002302A480828083076480E3CE58
:1005D40007FE23030480828083076480E3CE07FE42
:1005E40003454480828083076480E3CE07FE2302B0
:1005F400A4808280411126C44AC24EC006C6137725
:10060400F50BAD47AA892E8995446306F700194571
:100614006537653F8D444E854537FD59FD14639814
:100624003401B240A24412498249410182801355E7
:1006340009011375F50F453F2209CDB7011126CCE9
:1006440006CEB704080051371545BD3771376937F1
:100654002AC6A53F32459377150089EB136515002B
:100664001375F50FF240E24405618280FD14E9FC44
:100674000145CDBF397126DC4ADA4ED852D656D45C
:100684005AD25ED006DE62CE66CCB7E700E07D5774
:1006940083AA070022C603AA470023A0E71823A2BF
:1006A400E718B7170040130770052380E704130702
:1006B40080FA2380E70483C74704930B75FFB6844D
:1006C400E20793FBFB0F8546AA892E8B32893724D8
:1006D4000040E187015763FA76016308D500894633
:1006E400130700026313D5000157D98F93F7F70F4F
:1006F400B71C00402382FC0411472303E480130544
:10070400F00F5D3D094CD135636D7C11B7050700D1
:10071400DA9537870700795563F2E504B3879500C6
:10072400636EF702370B0800A94733EB6501639941
:10073400F90689E48144513D26850DA0DA850945F1
:10074400553D05090345F9FFFD14050B693D81C4B9
:100754009377FB0FFDF7DD3569FD7D55B717004035
:10076400130770052380E704130780FA2380E70446
:1007740003C74704418B2382E704F250B7E700E044
:1007840023A0571123A24711E25432445259C259AB
:10079400325AA25A125B825B724CE24C2161828013
:1007A400A5476395F90685691309F00FB306990007
:1007B400B3742B01B6941349F9FFB3749900856B94
:1007C40033796901416B9387F9FFB3F7270199E303
:1007D40063FC340193D94900C147E3E637FF99BF6D
:1007E4000569C1697D19D9B71305800D638869014D
:1007F400130500026384790113051008CA85DD3BE3
:10080400353D21DD4E99B3843441D9B7DA852D4580
:10081400D533CA94E30099F205097D3BA30FA9FEE1
:10082400D5BF9387F9FF93F7F70F6361FC0C83C778
:100834001C0413073008631FF70437070800636BB1
:10084400EB04B3079B00B706100063F5D704334BE2
:10085400EB0089476393F9068980D549E38C04EC5E
:10086400DA850945413B11090327C9FF9147232034
:10087400E48003076480E34E07FE23033481FD17FD
:10088400EDFBFD14110B81C49377FB0FE9FF7D335E
:1008940071F5E1B5B717004003C75704B70708005F
:1008A4001377070219E3B78707007955E378FBEA62
:1008B40033079B00E3FFE7F855B58547E382F9F278
:1008C400DA852D45053B9389F4FFE38504E6293356
:1008D40093F7390091EB83260480032709009307DB
:1008E4004900E39AE6E43E89CE84F1BFB5476396B6
:1008F400F9001305900BC93135BDB1471305B00A92
:10090400E38BF9FE99476391F904B7050800B365D1
:10091400BB002D45C53181448D4BA1497539639682
:100924007401832704802320F9008504E39834FFAD
:100934008327048013172B01635507002312F90042
:10094400D5BB2322F900FDB39D476399F902814584
:100954001305B0044531BD442320090023220900B6
:10096400FD599D3993F77400CA9703C70700FD1416
:10097400398D2380A700E39634FF6DBBA1476392B2
:10098400F9046D398144630D0B008D479304C00352
:100994006308FB009304000563048B019304400483
:1009A4001375C507E30895D8194539313939054513
:1009B400213126850D3909453D314931E31C05D6E0
:1009C40069BB91476399F90013056006F536F53E56
:1009D400130590090DB7E38F09D4F154A9BB19CDC0
:1009E40091CD09CE81473387F5008346070033074D
:1009F400F50085072300D700E317F6FE828019C9A6
:100A040091C909CA910583A7C5FF11057D16232E37
:100A1400F5FEC5BF828001C919C62A960505A30F34
:100A2400B5FEE31DA6FE828081473307F500030768
:100A3400070019E33E8582808507C5BF01112E8614
:100A440026CAAA84131506019305F004418122CC19
:100A540006CE32C6EF00B0602A8401C53246A685B0
:100A6400BD3F2285F2406244D244056182808547BD
:100A740015C18DC105C28147B306F5003387F50062
:100A840083C60600034707006398E6008507E3155D
:100A9400F6FE85473E8582808147EDBF9307F6FFCA
:100AA400BE952A966313C5008280FD1583C7150081
:100AB4000505A30FF5FEFDB7AA87014581CF09CE31
:100AC4003E96850703C7F7FF6317B700E39BC7FE8E
:100AD40005458280828001458280797197370000C4
:100AE4009387472022D4804306D626D24AD04ECEBE
:100AF40052CC56CA5AC85EC679C0B7C4C901014BA4
:100B0400973900009389891D9384F437173A0000BC
:100B1400130A8A1D973A0000938A8A17173900002E
:100B24001309C9208357240095E35C44631D0B001B
:100B3400173700002328F71A832BC4002285EF00FF
:100B4400305F5E84B9A82326FB00FDB783A70900A4
:100B540082971C443307F5406376F5000327490068
:100B64001D8F2A9763E2E4089737000023AA07122F
:100B74008355240003450400974000E0E780C081CA
:100B84005C405844A1CB0C4403264900AE97BE8672
:100B940063E4B70063E4C700B386C74014C4228B80
:100BA4003A8449F0973700009387870E9C4B094796
:100BB4006372F706F917173700002323F70EB250B4
:100BC400225492540259F249624AD24A424BB24BDD
:100BD4004561828063170B009737000023A4E71058
:100BE400A1BF2326EB0089BF03274A0209CF63EF85
:100BF400A7003385A74083A70A016376F5009737DA
:100C0400000023AFA708228B404461BF032749009B
:100C1400BA97C5B79737000023A407084DB7411109
:100C240022C417340000130464091C4006C626C2FB
:100C34004AC091C782979737000023A107089737C6
:100C4400000083C77728858B97340000938484271A
:100C540095C397370000A389072683C774001547F7
:100C6400637AF700E52B83C77400F5178A07A29708
:100C74009C4382971C4491C382971739000013093F
:100C84002906032709001736000003467600973724
:100C9400000083C7E7FF93961700BA9683D6060031
:100CA400D5CE9737000083C7A7FE63E3C70C9737F9
:100CB4000000238F07FC1C40639D07129737000038
:100CC40083C7D72091CF83C7740093F7F70F89EBBD
:100CD40097370000A38C071E977001E0E780206F10
:100CE40097370000938787FF9C43638407109737E7
:100CF40000009387A703DC43173700002322F7FA89
:100D0400E93B97370000938727FEDC53FDC3173771
:100D140000001307E7F7184B9737000083C717FE47
:100D24006369F70C83C7740015476364F70C97373E
:100D3400000083C7E71D918BCDEF0326090097368A
:100D4400000083C6F6F463CCD70A2244B24092442E
:100D540002494101174300E06700E3AE850793F7BA
:100D6400F70F973600002385F6F2E3E2C7F215BFCA
:100D740086073E9783550700231007009737000026
:100D8400239C07F497370000938707F39C43173598
:100D940000000345E5EF13172500BA979C4382979B
:100DA4009737000083D747F317370000034747EE10
:100DB40093C7F7FF7D8D93171700032709003E970C
:100DC400835707005D8D2310A7009737000083C762
:100DD40027EC91C7850717370000230BF7EA17376D
:100DE40000000347E7EA9737000083C777EAE37018
:100DF400F7ECB240224492440249410182801397A5
:100E040017003297035707006DF785072DBFAD67AD
:100E140037C70040BD072326F7200F10000097377F
:100E240000009387E7E6C84F83278726BD66BD0683
:100E340093C7F7FF99836A052326D7205D8D8280A7
:100E44004111B7170040985F3AC6945F3247E39C5C
:100E5400E6FE3245410182801305F00F82800111C4
:100E640022CC604126CA4AC84EC652C406CEAA84C1
:100E74001D4A130965058549BC446364F4000545AE
:100E8400B9A003C7D40083474400631A470503C7C6
:100E940084026304F7000040C5B70347540083C7C6
:100EA4005405E31AF7FE1946CA8513056400C136D2
:100EB400E31335FF0347C40083C79402E31DF7FC23
:100EC4000357E40083D7A402E317F7FC0145F2407B
:100ED4006244D2444249B249224A05618280E31CF9
:100EE400F7FA0347540083C75405E316F7FA194683
:100EF400CA8513056400A53EE31F35F9C1BF01117E
:100F0400973700009387070C22CC03A4070C26CA4A
:100F140006CE2AC42EC6854419E40145F240624433
:100F2400D244056182808347910003471400858B76
:100F34006304F7000044CDB719469305A1001305D7
:100F440024003536E31895FE0545C9BF1737000060
:100F5400130747F61C439306001094C301000100D5
:100F6400010001001C4323A0070083461500034829
:100F74002500A2064208C29603480500C29603480B
:100F840035006208C29694D783465500034865002D
:100F9400A2064208C29603484500C296034875005B
:100FA4006208C296D4D7834695000348A500A206DA
:100FB4004208C29603488500C2960348B5006208F9
:100FC400C29694DB8346D5000348E500A206420896
:100FD400C2960348C5000345F500C2966205AA9669
:100FE400D4DB83C6150003C52500A2064205AA96D4
:100FF40003C50500AA9603C535006205AA9694CFD9
:1010040083C6550003C56500A2064205AA9603C51A
:101014004500AA9603C575006205AA96D4CF83C677
:10102400950003C5A500A2064205AA9603C585003E
:10103400AA9603C5B5006205AA9694D383C6D500C3
:1010440003C5E500A2064205AA9603C5C50083C5EB
:10105400F500AA96E205AE96D4D3D443F59AD4C348
:10106400D44393E61600D4C3944393E6160094C382
:10107400BA879443D842058B59E3984E014523001F
:10108400E6009843184F2183A300E6009843184FC5
:1010940041832301E6009843184F6183A301E600CE
:1010A4009C43D84F2302E600D84F2183A302E600D5
:1010B400D84F41832303E600D84F6183A303E6009E
:1010C40098532304E60098532183A304E60098531D
:1010D40041832305E60098536183A305E600D853B2
:1010E4002306E600D8532183A306E600D8534183A0
:1010F4002307E600DC53E183A307F60082800100A6
:101104008DBF17370000130727DB1443411122C496
:101114009C5E4AC006C6998326C2858B3A841739D9
:101124000000130929D9D1CB9C5E97340000938425
:1011340064D993F7F7F99CDE173700000347E7D823
:1011440093070008631BF700832709009C4393F768
:10115400070417370000230AF7D683C7040093F760
:1011640007049DC397370000938747B79C43829732
:101174009737000023A0A7D683C7040093F7F70B83
:10118400173700002300F7D483C7440093F70704FC
:101194008DE7854717370000A308F7D2973700007B
:1011A400938707D49C43096798C7130700FC9736B5
:1011B4000000238BE6D0D844F8D31C40985F1183F9
:1011C400058B09CB985F3D9B98DF05479736000058
:1011D400238CE6CE985F1D83058B11CB985F137724
:1011E400F7F798DF854717370000230FF7CC8327DD
:1011F4000900D8430583058B19C7D843759BD8C309
:10120400D843799BD8C3B240224492440249410155
:101214008280397106DE16DC1ADA1ED82AD62ED45C
:1012240032D236D03ACE3ECC42CA46C872C676C412
:101234007AC27EC0F935F250E2525253C25332554B
:10124400A255125682567247E2475248C248324E5D
:10125400A24E124F824F2161730020309737000055
:10126400938707C89443973700009387A7C503C79C
:101274000700058B11CB97370000238707C49737E6
:101284000000A38307C4828003C71700058B65F79A
:10129400F85271FF83C75700DDB7173800001308F1
:1012A400A8C1032708001C5F9583858BD1E709C675
:1012B4001C5BBD832300F60085CA83270800985B66
:1012C4004607935767016356070093E707C0C207B1
:1012D400C18303970600C207C18709C7BA970947A4
:1012E400B3C7E7022390F60085CD834715008DCB65
:1012F4009736000083C666BD93F6060413879700ED
:1013040089478DCA3A950347050085469947137660
:10131400F7066311D60262076187B947634C070079
:10132400832708009C5FED838D8B17370000A30093
:10133400F7BA81473E8582808547EDBF411122C4BB
:1013440006C6173400001304A4B918403DE9AE875B
:101354007453FDFE3E85B28597370000238507B69A
:10136400977001E0E78020DA973700009387C7B4CD
:101374009C43B70680009843558F98C3D857719BF8
:10138400D8D797370000A38107B497370000A38B01
:1013940007B21C40094798C31440173700001307CD
:1013A40067B283472700858B89EB83473700858B9A
:1013B400D9C797370000238907B0B24022444101BE
:1013C40082808D476310F502973700009387C7AE7C
:1013D4009C43B70680009843558F98C3D857719B98
:1013E400D8D75DBF8547E319F5FA5447F977FD1758
:1013F400F58F5CC70F1000001C40096798C71307DE
:1014040000F8173600002301E6AC17370000130775
:10141400A7AA1043184231830D8B11E713076019F3
:10142400F8D3D4C795BF1842094631830D8B631591
:10143400C7001307E043EDB71307E01BD5B7FC5211
:10144400ADF3A5BF5D71A2C4A6C22A8413068002AF
:101454002800AE849305100886C6CAC04EDE52DC4E
:10146400EFF06FDB3545977001E0E780E008173354
:101474000000130363A4832703009376F41F173E2D
:101484000000130E2EAB23A40700984B973E0000D8
:10149400938E0EA5370FFCFF1367F70398CBF84F15
:1014A400130510F8B7020400137707E0558FF8CF3F
:1014B4009843F576FD16758F98C39843B7063300A5
:1014C400930380251377F7E798C3984311497D1F49
:1014D4001377F7E71367071098C303270E008549AE
:1014E400930F80021C47D58F1CC783A70E001307D8
:1014F400900D3400B8CB014793553700A69583C7A8
:10150400050013767700B3D7C740858BE1C38327E3
:10151400030083280E00239C07042390070603A8D6
:10152400C8021378D8FF23A6080383A807001378FA
:10153400F70793F808F833E8080123A0070103A884
:1015440047023368580023A2070383A80E0001480A
:1015540023A2780603DA07066307480303A80703F0
:10156400038A06001358F800620813588841635828
:101574000A0103A807031358F8002380060103D8BF
:1015840007061378F80F03AA480663060A0003DA6D
:101594008705E37F49FB03A847023378E80123A2C8
:1015A400070383870600635CF40003C805003396D1
:1015B400C9001346F6FF337606012380C5003E8634
:1015C40063D3A7002A86131586016185050713775F
:1015D400F70F8506E312F7F3B6402644964406490E
:1015E400F259625A61618280973600009386468F71
:1015F4009C42D847131617016355060298471316E1
:101604001701635006027D57B8D717270000130748
:101614002768584F0507172600002329E668116735
:1016240098C798470D83058B1DC3173700000347E0
:10163400878913671700173600002306E688130707
:1016440000F8173600002301E688214798C7984719
:10165400058B09CF173700000347D7861367170098
:1016640017360000A300E686054798C79847098304
:10167400058B09E798470583058B31CF98471736C3
:10168400000013062684173500001305E58209833C
:10169400058B630307101841184331830D8B75EBD9
:1016A400AC4B184E93F5050203471700CDCD79EFE7
:1016B40013077006D8CF03470600136717001736C1
:1016C40000002301E680114798C718415C57F19B3D
:1016D40093E717005CD79C4298479316370163D66B
:1016E40006029736000083C66695C18A1737000044
:1016F4001307478DC5CE034787071367070297363D
:101704000000238DE692056798C798479316270132
:1017140063D10602172700000347077B620761872E
:1017240063570700054797260000238FE67809676B
:1017340098C798479316070163D6060297360000A8
:1017440083C6D68F858A173700001307A787ADCEC7
:10175400034797071367270097360000A380E68E98
:10176400216798C7828029D785456315B700130779
:10177400B00689B789456315B7001307F0061DBF86
:101784008D456315B700130730072DB713075007AE
:1017940015B71307600739BF0347360013671700EF
:1017A40017260000A301E672094739BF834687075D
:1017B4000946BD8A6388C600034787078D463D8B6B
:1017C400E313D7F4114725BF83469707918AC9DAF3
:1017D400034797071367870041B7397106DE16DCA4
:1017E4001ADA1ED82AD62ED432D236D03ACE3ECCED
:1017F40042CA46C872C676C47AC27EC0F533F25075
:10180400E2525253C2533255A2551256825672476F
:10181400E2475248C248324EA24E124F824F2161D3
:1018240073002030972700009387876B9843856760
:10183400938707777CD3972700009387A76F9C43F0
:1018440083A60709139656006358060083A6070962
:1018540013966600634406007453FDF2828071C5DA
:10186400AA870145E9C58D07C207C183F19BC20759
:10187400C18313074003636FF702172700001307A0
:10188400277408431727000013070773144363984A
:10189400A6021727000013072745185B014541CB13
:1018A4004111C20706C60545DD8D0297B2400145C8
:1018B400410182801727000013074770D9B70357E7
:1018C400650035E303574500636FF704B306F7403B
:1018D4002146637CD60203280500938687001D8F6A
:1018E400AA966117172600000356E63A2392E600EB
:1018F40023A006012393060014C12312F500130745
:1019040086FF972600002398E6382313B500972511
:10191400000083D54538B387F54017270000231C02
:10192400F7362105828008419DB701458280828077
:101934000DC1972700009387A76803A30700972783
:1019440000009387676783A8070081469A8763E34B
:101954001701828003A80700636DF50A636BA80A68
:1019640013878700E367E5FE03D667002167050751
:101974006317E60003C7018E05072380E18E9725D0
:1019840000009385E53003D6470003D76500239311
:10199400070032974207418317250000231DE52ED7
:1019A400638A670217250000130545610841630334
:1019B400F50203D5660019ED83D7460023A006017E
:1019C40021073E9621062392C60097270000239400
:1019D400E72CB6879843E30E17F797260000938603
:1019E400E65D9442E307D7F683566700BDF283D6DB
:1019F4004700035647001843A106B2962392D70026
:101A040098C383D76500A107172700002315F7287B
:101A14008280BE86C28725BF032785116302071211
:101A2400411122C406C68347C5008345E5042A84C0
:101A340093F7C70F2306F500834697000356C700A4
:101A440013958601618563F2C508635B050603454A
:101A5400870093F6F607A304D700054693E627000C
:101A64006314C50093E617002306D4005C4389077A
:101A74005CC3A30AB400032504112E864C43090554
:101A8400EFE0FFF58327841103465401D44303D7C1
:101A9400C700B296118FD4C32396E7008947A30DDC
:101AA400F400034764039727000083C7072563787E
:101AB400F7048347C40093E707012306F40081A0D9
:101AC40093E717002306F4006DB79376F60F635D72
:101AD400050203458700854513E627006314B50016
:101AE40013E617002306C400A30AD400A3040700C6
:101AF4008547A30DF400832784119C43DDF3B24092
:101B0400224401454101828093E717002306F40033
:101B1400A30AD400A3040700032504114C430905B8
:101B2400EFE0FFEB8327841103465401D44303D72A
:101B3400C700B296118FD4C32396E7008D4755BFD3
:101B440005458280972700009387875A9C4341115B
:101B540022C406C6858B2A84C5EF4165130525F585
:101B6400972002E0E780400245C58347A50023157E
:101B7400F50083270412BDE72320A4122322A41214
:101B840085472311F404232005008347640154414D
:101B94002316F5000347D4002304E5000547A304F6
:101BA400E500172700001307E731184F13851702C4
:101BB40015811C437D151375F50F9CC25C43DCC273
:101BC4001C479CC65C47DCC61C4B9CCA5C4BDCCAED
:101BD4001C4F9CCE5C4FDCCE19CD938606021307B6
:101BE4000702C1BF8327441288C3835724042322D6
:101BF400A412850779B79727000083D7273D850767
:101C0400172700002314F73CB2402244410182808C
:101C14008347C40023090400054593C747002306EE
:101C2400F400DDB78347850193F7E70FD5EF8347CA
:101C34009501DDEB034625018346C50009CA8345AA
:101C44006503172700000347570B63E7E50013F705
:101C5400060141CF014709C6C18A0357651C81C6E5
:101C64008356A51C369751C31307C71217250000C6
:101C74000355450CB335A70237460F00411113062F
:101C84000624814622C426C206C67D543305A70213
:101C9400975002E0E780C0EE9727000083C75706FD
:101CA400B384A700972700009387C73103A7870948
:101CB4008327070963F387003E84184375FB97273E
:101CC40000009387A7019C43829781476364A40023
:101CD400B307A440B2402244B3B7970093C7170098
:101CE40092443E854101828081473E8582809727C8
:101CF40000009387E71E98437C53FDFF828079712F
:101D040026D206D622D44AD04ECE52CC56CA5AC86F
:101D14005EC68347550303447513AA843E94137423
:101D2400F40F9307400263F687001304B4FD1374A1
:101D3400F40F03AA841383AAC413A38B84122286E8
:101D44005285D685975002E0E78000DE058915E5C7
:101D540003CBD41201498149337B6403930B5002B2
:101D64004A865285D685975002E0E780E0DB0589F4
:101D740015C5639169031374F90F238B8412B25050
:101D8400225492540259F249624AD24A424BB24B0B
:101D9400456182808509E20993D989410509E311E6
:101DA40079FDE1BF8327850903560504797193D62C
:101DB4000701BD8EC206C182358E135776409357F4
:101DC4005640898B058B5D8F93573640918B5D8F81
:101DD40093571640A18B5D8F93171600C18B5D8FAF
:101DE4009317360093F707025D8F931756009355A8
:101DF400860093F707041E065D8F1376F60F518F46
:101E040093D7554013D63540118A898BD18F13D679
:101E14007540D18F13D61540218AD18F13961500A2
:101E2400418AD18F1396350013760602D18F13960B
:101E34005500137606049E05D18F93F5F50FCD8FCB
:101E4400A20745465D8F3307C70222D42A8426D2CF
:101E540052CC56CA032A8413832AC4135AC806D6FA
:101E64003697420741839357774013555740098962
:101E7400858BC98F135537401189C98F1355174066
:101E84002189C98F131517004189C98F131537008C
:101E940013750502C98F13155700935587001375E1
:101EA40005041E07C98F1377F70FD98F13D5354053
:101EB40013D755401189098B498F13D57540498F24
:101EC40013D515402189498F139515004189498FF0
:101ED4001395350013750502498F13955500137535
:101EE40005049E05498F93F5F50F4D8F2207D98F71
:101EF400B387C7024AD04ECE5EC662C4B697C20745
:101F0400C18313D7774013D557400989058B498F6F
:101F140013D537401189498F13D517402189498F2B
:101F2400139517004189498F1395370013750502DE
:101F3400498F1395570093D58700137505049E07A1
:101F4400498F93F7F70FD98F13D5354013D75540E1
:101F54001189098B498F13D57540498F13D51540C5
:101F64002189498F139515004189498F13953500AF
:101F740013750502498F13955500137505049E05C5
:101F8400498F93F5F50F4D8F2207D98FB387C70279
:101F9400130650025285D685B697BD8E93940601DA
:101FA400C18033F6C402137BF60F975002E0E7803A
:101FB400A0B705890DED8347D41201498149B38443
:101FC4009702130C5002C1804A865285D6859750D9
:101FD40002E0E78060B50589937BF90F11C563863C
:101FE4003403850993F9F90F0509E31F89FD230BD0
:101FF4006413B250225492540259F249624AD24AAA
:10200400424BB24B224C456182805E8BCDB77971D5
:1020140022D406D683C735002E8423160100A307D5
:10202400F10083C74500100802C02307F10083C7ED
:1020340055008A8502C2A306F10002C402C802CA7E
:1020440002CC02CEEFE09FF00347F1018347040086
:1020540001456310F7020347E1018347140001457A
:102064006319F7000345D101834724001D8D1335FF
:102074001500B25022544561828001119727000057
:10208400938747F422CC03A4870C26CA4AC84EC6B9
:1020940006CEAA8413092500854915C083C71400F8
:1020A40003473400858B6304F700405CFDB7194691
:1020B400930544004A85EFE09F9BE31835FF228592
:1020C400F2406244D2444249B249056182804111DE
:1020D40097270000938707EF22C403A4870C26C226
:1020E4004AC006C693042500054901E82285B2408A
:1020F40022449244024941018280A6851305A40228
:102104003937E30525FF405CCDB74111972700001F
:10211400938747EB22C403A4870C26C24AC006C691
:1021240093042500054901E82285B24022449244E3
:10213400024941018280A6851305A401C93DE30536
:0821440025FF405CCDB700004F
:10214C00971100209381C195176100201301C1EAFA
:10215C001305400097E5FF1F938505EA170600203D
:10216C00130606FE63FAC5008322050023A0550062
:10217C0011059105E3EAC5FE177502001305C5C1EB
:10218C00970500209385C5FB1386018463FAC5006F
:10219C008322050023A0550011059105E3EAC5FE35
:1021AC001385018497250020938545F56377B50049
:1021BC00232005001105E36DB5FEFD42739002BCB2
:1021CC008D4273904280930280087390023097E2A4
:1021DC00FF1F938262E293E23200739052309712A7
:1021EC0000009382C29773901234730020303D43E9
:1021FC002A876373C3029377F700BDEFADE593763F
:10220C0006FF3D8ABA960CC34CC30CC74CC741079A
:10221C00E36BD7FE11E28280B306C3408A069702B5
:10222C00000096966780A6002307B700A306B700A8
:10223C002306B700A305B7002305B700A304B70016
:10224C002304B700A303B7002303B700A302B7000E
:10225C002302B700A301B7002301B700A300B70006
:10226C002300B700828093F5F50F93968500D58DEA
:10227C0093960501D58D61B79396270097020000C0
:10228C0096968682E78086FA9680C1171D8F3E96B9
:10229C00E374C3F8A5B74111176502001305C52DEA
:1022AC0006C6EF40D251B2408547A382F18441016A
:1022BC008280B305B040176502001305A5366F4048
:1022CC001250011122CC36C606CE2E84EF10107897
:1022DC00B24637460F00130606243376C50291CA60
:1022EC00B285176502001305E53232C6EF40324D58
:1022FC00324622856244F240814505616FB0C106C9
:10230C0081E9B285176502001305C5296F40324B70
:10231C008547639DF500176502001305E52909C67D
:10232C00176502001305452A6F40B25D8947639813
:10233C00F500176502001305252A7DD682808D478E
:10234C00E39EF5FE176502001305052A71DEB285C2
:10235C00176502001305852A55BF011122CC26CA28
:10236C004AC84EC606CEAA892E898144138441944C
:10237C0003C5618463E3A4060E050905CE85229589
:10238C00194697E0FF1FE780006583C5618493972A
:10239C003500850593F5F50FA2971386F5FFA380FD
:1023AC0027010E0622962383B1846244834876006B
:1023BC0003486600834756000347460083463600B1
:1023CC00F240D2444249B249034626001765020046
:1023DC001305050B05616F40923E939534008905FA
:1023EC001946A2954E8597E0FF1FE780C06709E567
:1023FC00850493F4F40FADBFF2406244D2444249D9
:10240C00B2490561828039719397050126DA06DE9F
:10241C0022DC4AD84ED6C187AE8463D3072A03C5C3
:10242C00C184EF1070422A8415C503470500930739
:10243C00000B631EF70083C7718409478345450071
:10244C00130985006381E7024A85EF70A02122857C
:10245C00EF1070382165258DF2506254D2544259D8
:10246C00B259216182800D476381E5020547639073
:10247C00E50203478500631AF7028345C50017651B
:10248C000200130525EEEF409233A382018403472B
:10249C0044009307F007631AF7008355840017650F
:1024AC0002001305A5EDEF409231834744002D4700
:1024BC006387E7020547639CE70203478400A9464C
:1024CC006311D7048345C400176502001305C5EBDF
:1024DC00EF40F22EA382018483454400B5B75C44DF
:1024EC0017650200130545EB83C50700D5B74D47AB
:1024FC006393E70217650200130545ECEF40724049
:10250C00D1BFC9466316D7048345C40017650200C2
:10251C00130585E975BF6D47639CE70217650200DB
:10252C001305C5EAEF40B22981498357A40063C95A
:10253C00F90017650200130565EAEF40923C69BF8C
:10254C005C44CE9703C507008509EF40522BF1BFC1
:10255C0003C7418451D385466319D7081D47639C33
:10256C00E7028357840085CB5C4417650200130592
:10257C0025E783C5170003C6370003C7070083C7C9
:10258C002700A2052206D98D5D8E2395B184239454
:10259C00C184EF40D222834744001D476395E70472
:1025AC0003471400E947E399E7F283D7A1848DD759
:1025BC002314F1009387818483D707000947238272
:1025CC00E1842315F100F977938727102316F10086
:1025DC00FD5703C6C1842C0003D561802307F1008D
:1025EC00EF603039D5BD05477DBF89466313D708E9
:1025FC002547639EE7028357840095CB5844930587
:10260C00000413060064834717000347070003C543
:10261C00C184A207D98F2391F184EF10F06E83D57A
:10262C00218417650200130565DEEF4052198347BC
:10263C0044002547639DE70203471400E947E39DE7
:10264C00E7E88D472382F1849387A18483D7070021
:10265C002314F1009387818483D707002315F1009D
:10266C00930720202316F100930790029DB705478E
:10267C00F9B78D46E312D7E625476390E7048357F5
:10268C00840085CF584493050008130600648347E3
:10269C0017000347070003C5C184A207D98F2390F5
:1026AC00F184A3820184EF10306683D50184176511
:1026BC000200130525D8EF4092102382018429BD16
:1026CC0093F7150085C317060020130626A8970557
:1026DC0000209385E5A603C5C184EF90712913C52D
:1026EC0014009DBB93F7052081CB41657D15EFB0A0
:1026FC00112A13C504208DB393F7850085CB815720
:10270C002314F100239101842394018423950184E3
:10271C00854783C6C18409462C0003D5618023827A
:10272C00F184EF60504313C584003DB393F705016A
:10273C0091CF13078025814613064006D14503D55A
:10274C006180EFB0512413C5040139B393F705022E
:10275C009DC3014789460946814503D56180EFB089
:10276C005125AA8517650200130545D0EF403205A7
:10277C0013C50402D5B193F70504CDC383C75184A7
:10278C00A5E703C7818083D7218403D561802DC73A
:10279C002314F1000147854781460546C945231896
:1027AC0001002315F100EF60D0242AC615CD930744
:1027BC00A0052300F50003C6C1842C0003D561805D
:1027CC00EF60B01B0DE58547A382F18483C7818040
:1027DC0093B71700130600649305000403C5C18466
:1027EC002384F180EF10505213C50404B5B1C945D0
:1027FC002800EF603067CDBF03C6C1842C002314C2
:10280C00F100EF60D0166DF18547A382F18483C788
:10281C00818093B717002384F180F9B793F70508EB
:10282C00ADC383C75184B1E79387018483D7070075
:10283C00014781462314F10009468947C94503D550
:10284C006180231801002315F100EF60901A2AC64D
:10285C000DC1054423008500B24703C6C1842C007A
:10286C00A380070003D56180EF60301111E5A382CE
:10287C00818413C50408CDB6C9452800EF60905E6D
:10288C00CDBF93F705100145E38807BC03D56180E4
:10289C00EFB0310F0566130606969305001003C5BD
:1028AC00C184EF10704613C504107DB68347250014
:1028BC0049476367F71E176702001307E7A58A07E6
:1028CC00BA979C43011122CC06CE26CA4AC8BA97A5
:1028DC002A84828705041374F40F83C76184637D93
:1028EC00F4009315340089051946A6954A8597E09E
:1028FC00FF1FE780401779DD83C76184639E8702E1
:10290C0017650200130545BBEF40A27F01468545C4
:10291C000D4523830184EF90B10E1765020013055A
:10292C00A5B8EF40027EE5A00144938441941709B9
:10293C0000201309E99655B717650200130505B970
:10294C00EF40227C938741940E04930624003E941E
:10295C0003461400BE9681450145EF9011070566AC
:10296C00130606C89305002003C5C184EF10D039A7
:10297C0017650200130585B66DB79305002003C5D6
:10298C00C184EF10905A83451400B9ED0355A4008F
:10299C008947A383F1842393A1808547A382F18483
:1029AC0003C6C184DD476C002316F100EF60007292
:1029BC0013060064A14503C5C184EF10F03405640F
:1029CC00130604C8C14503C5C184EF10F0331306C8
:1029DC0004969305001003C5C184EF10F0321765FF
:1029EC0002001305A5B035BF17650200130505B12C
:1029FC00EF40E25C17650200130505ABEF40627017
:102A0C0023830184014685450D45EF90617FF2409B
:102A1C006244D244424905618280A3830184F95700
:102A2C009305001003C5C1842393F1802382018494
:102A3C002391018423830184A3820184EF10F04E3F
:102A4C008345640017650200130505ADEF4022575E
:102A5C0017650200130545A5EF40A26A65B7176517
:102A6C000200130525AD75BD17650200130585AD74
:102A7C004DBD176502001305E5ADEF40826803C735
:102A8C006184A547E3E5E7F883454400130554004A
:102A9C00EFF0BF8CADBF176502001305A5ACF1BFFD
:102AAC0082800111170500001305259606CE22CC55
:102ABC00EF10907B1384C18485652300A40093855B
:102ACC0005960945EF30105FD1451D45EF30905EFE
:102ADC00930540062145EF30F05D930540063545E2
:102AEC00EF30505D85470D47700091451305F04060
:102AFC002304F100A304F1002305E100A305F10078
:102B0C0002C6EFA0112D3000854513058040EFA0C3
:102B1C00512C13069100854513059040EFA0712BA5
:102B2C001306A10085451305A040EFA0912A1306BA
:102B3C00B10085451305D040EFA0B129EF7060635B
:102B4C0003450400EF70400F034504008545EF106A
:102B5C00B003F2406244056182804111054506C60E
:102B6C0022C426C2EF00B0561305800497D0FF1F75
:102B7C00E780E053371400408327840A854513050A
:102B8C00001093E707202324F40AEF00903F8D45B3
:102B9C0013050020EF00F03EEF10C0010D45EF10C3
:102BAC00800495450545EF10A005B7E400E0B70794
:102BBC00000823A0F4108327840C8545414593E736
:102BCC0007082324F40CEF0030468D45130500084C
:102BDC00EF009045EF00B0730D45EF007076954512
:102BEC000545EF009077B707000423A0F410EF1011
:102BFC00A018EF10802BEFB0015C653597E0FF1F3C
:102C0C00E7806001E5BFB737004083C7470082808B
:102C1C00B717004003C777051377E70FA38BE704BB
:102C2C00130700F8A38DE7043D47238CE704130733
:102C3C005003A38CE7048280B717004083C7E702D8
:102C4C000D8993F7C70FC98F73270080218B93864B
:102C5C00018509CB7327008023A8E18498425D9BF2
:102C6C00731007800F100000371700401306700513
:102C7C002300C704130680FA2300C7040F100000BA
:102C8C002307F70223000704732700809C42A18BC3
:102C9C00D98F7390078023A801840F1000008280C5
:102CAC0041112A83014E930E407E130F0019930F8E
:102CBC00400663E66E149308001913034006B378BC
:102CCC001503854E0D4FA14F337365020D891335D6
:102CDC00150063E0BE161308F6FF79467298420899
:102CEC00135808013307C70213D61700BE073297D3
:102CFC006146B3F6C60213068070B386C6023697D9
:102D0C00A166F58F42075D8FB716004083C7F602A8
:102D1C0093F70708A307F1000346F10083C7F602F7
:102D2C0093F70708E394C7FE8347F100B7160040FA
:102D3C0093F7F70F63890714F3270080A18B938611
:102D4C000185639807140F100000B7170040130695
:102D5C0070052380C704130680FA2380C7040F1064
:102D6C00000023AA070303C6170313660608A388EB
:102D7C00C70223800704732600809C42A18BD18F4D
:102D8C007390078023A801840F1000001166B715FB
:102D9C0000407D16DC59C85DA98FF18FE5FFF32744
:102DAC000080A18B89CBF327008023A8F1849C425F
:102DBC00DD9B739007800F100000B71700401306BF
:102DCC0070052380C704130680FA2380C7040F10F4
:102DDC000000D8DB03C7170313670704A388E702B7
:102DEC0023800704732700809C42A18BD98F73909A
:102DFC00078023A801840F100000410182807D13FD
:102E0C003368E3039308E016630E08003368F3039A
:102E1C009308D016630808009378330093B8180011
:102E2C009388D81633081E01131E0801135E0E0179
:102E3C0049B56393E50305486386080001486303BD
:102E4C0003002A8871087298FD15131E0801C2052B
:102E5C00135E0E01C181B5BD13F8150063F4BF00FC
:102E6C007908D5B713381800E5BF83C7F60293F776
:102E7C000708A307F1000346F10083C7F60293F796
:102E8C000708E394C7FE8347F10093F7F70FF1DFD0
:102E9C0065B5F327008023A8F1849C42DD9B7390D9
:102EAC00078055B55971E2C486D6A2D4A6D2CAD031
:102EBC00CECED2CCD6CADAC8DEC6E6C2EAC06EDE48
:102ECC002A8C02D6EF007034F3270080A18B138D6F
:102EDC00018591CBF327008023A8F18483270D0073
:102EEC00DD9B739007800F100000B717004013078D
:102EFC0070052380E704130780FA2380E7040F1082
:102F0C00000003C7F7021377770FA387E70203C705
:102F1C00F70213678700A387E70223800704732750
:102F2C00008083270D00A18BD98F7390078023A875
:102F3C0001840F100000F3270080A18B91CBF327A5
:102F4C00008023A8F18483270D00DD9B73900780FC
:102F5C000F100000B7170040130770052380E7041B
:102F6C00130780FA2380E7040F10000003C7E70261
:102F7C001377C70F2387E70203C7E702136717000E
:102F8C002387E702238007047327008083270D0023
:102F9C00A18BD98F7390078023A801840F10000098
:102FAC00130780C13347E5029169938709E813063B
:102FBC0050023D69B7440F0093840424856B130BB6
:102FCC00A004014A814A13047005FD19B347F502A8
:102FDC003307C7023EC2930709A61309803E334745
:102FEC00F7023AC4334725030549331989011359AC
:102FFC0039403345950293840BFAB3948401811BB9
:10300C003306C702B346F6023309E90236C6330B60
:10301C00670313076055B3049502130500103309B9
:10302C00E902B346FB02130B80FAB3C4A40236C800
:10303C00B347F902939634003719004036CC930409
:10304C0009043ECA73260080218A11CA73260080A7
:10305C0023A8C18403260D005D9A731006800F10FF
:10306C000000930770052380F400238064010F1087
:10307C000000034639051376860FA309C9040346DD
:10308C00390513661600A309C904238004007325AF
:10309C00008003260D00218A498E7310068023A818
:1030AC0001840F100000916CE17D73260080218A51
:1030BC0011CA7326008023A8C18403260D005D9AD3
:1030CC00731006800F100000930770052380F40026
:1030DC00238064010F1000000346390513660602B5
:1030EC00A309C90403560905336696012318C904BC
:1030FC00035609053366B601420641822318C904FA
:10310C00238004007325008003260D00218A498E3C
:10311C007310068023A801840F10000003463905A4
:10312C00137606026307061603463905218A6DDEFF
:10313C006810EF00B01173260080218A11CA732623
:10314C00008023A8C18403260D005D9A73100680AD
:10315C000F10000023808400238064010F100000F6
:10316C00034639051376F60DA309C9040346390540
:10317C0013660602A309C9040356090533669601B2
:10318C002318C904035609053366B6014206418269
:10319C002318C904238004007325008003260D0026
:1031AC00218A498E7310068023A801840F10000019
:1031BC0003463905137606026309061003463905E2
:1031CC00218A6DFE97D0FF1FE780E0EC2A8632CE75
:1031DC0097D0FF1FE78020EC7246E30AC5FE03562A
:1031EC0009053255336696012318C904EF001008FF
:1031FC0003463905218A6DDE035509050346290569
:10320C00924733F5A9003386C90232951D8DA2472A
:10321C0063D5A700B2476346F50E09466365560FA2
:10322C00C247850A1316150093FAFA0F3346F602B5
:10323C006354A03A050609453346A602732500805F
:10324C00218911C97325008023A8A18403250D00B1
:10325C005D99731005800F1000002380840023807B
:10326C0064010F1000000355C9022A9642064182E0
:10327C002316C902238004007325008003260D0049
:10328C00218A498E7310068023A801840F10000038
:10329C0029BD73260080218A11CA7326008023A8B9
:1032AC00C18403260D005D9A731006800F10000078
:1032BC0023808400238064010F100000034639052D
:1032CC0013660602A309C90425BD73260080218A52
:1032DC0011CA7326008023A8C18403260D005D9AB1
:1032EC00731006800F10000023808400238064017B
:1032FC000F1000000346390513660602A309C90422
:10330C0051BDE38F0AF073260080218A11CA7326FF
:10331C00008023A8C18403260D005D9A73100680DB
:10332C000F10000023808400238064010F10000024
:10333C00034639051375FC0F1376860FA309C904D0
:10334C0003463905498EA309C90423800400732858
:10335C00008003260D00218A336606017310068057
:10336C0023A801840F100000034639051D8A63173A
:10337C00862773260080218A11CA7326008023A811
:10338C00C18403260D005D9A731006800F10000097
:10339C0023808400238064010F100000034639054C
:1033AC0011651376F60DA309C90403463905136696
:1033BC000602A309C90403560905498E2318C9043A
:1033CC00035609052165498E2318C904238004007E
:1033DC007325008003260D00218A498E7310068008
:1033EC0023A801840F10000003463905137606024A
:1033FC00630E062003463905218A6DDE6810B92557
:10340C0073260080218A11CA7326008023A8C184E8
:10341C0003260D005D9A731006800F1000002380A8
:10342C008400238064010F100000034639051165E8
:10343C001376F60DA309C904034639051366060273
:10344C00A309C90403560905498E2318C904035658
:10345C0009052165498E2318C904238004007325AE
:10346C00008003260D00218A498E7310068023A844
:10347C0001840F100000034639051376060263031E
:10348C00061C03463905218A6DFE97D0FF1FE78085
:10349C0080C0AA8C97D0FF1FE780E0BFE30C95FF9C
:1034AC00035609051165498E32552318C9047D2B25
:1034BC0003463905218A6DDE73260080218A138527
:1034CC00018509CA7326008023A8C18410415D9A26
:1034DC00731006800F100000238084002380640189
:1034EC000F100000034639051376F60DA309C90425
:1034FC0023800400732800801041218A3366060162
:10350C007310068023A801840F10000003580905CE
:10351C0003462905E24733F809013386C90232987C
:10352C003308F8401306800C3306C802D2473346E2
:10353C00F602635500150506094833460603635128
:10354C00C0140358C9029308F00F1358580032984E
:10355C0063D6081F094663734619F3270080A18BB5
:10356C0089CBF327008023A8F1841C41DD9B739049
:10357C0007800F10000037170040930770052300D9
:10358C00F704930780FA2300F7040F10000083560A
:10359C00C70289678117D58FC207C1832316F7022B
:1035AC0023000704732700801C41A18BD98F7390D3
:1035BC00078023A801840F100000B650265496549F
:1035CC000659F649664AD64A464BB64B264C964C9B
:1035DC00064DF25D656182807D16B1B9732600805F
:1035EC00218A11CA7326008023A8C18403260D00EA
:1035FC005D9A731006800F100000238084002380D6
:10360C0064010F100000034639052DBB73260080A2
:10361C00218A11CA7326008023A8C18403260D00B9
:10362C005D9A731006800F100000238084002380A5
:10363C0064010F1000000346390513660602A30946
:10364C00C90469B373260080218A11CA73260080CD
:10365C0023A8C18403260D005D9A731006800F10F9
:10366C00000023808400238064010F1000000346B7
:10367C00390513660602A309C904C5B37D166DBDD1
:10368C0055CE0358C902B308C040135858006357AD
:10369C00180B094663744605F3270080A18B89CB70
:1036AC00F327008023A8F1841C41DD9B73900780D5
:1036BC000F100000B7170040130770052380E704B4
:1036CC00130780FA2380E7040F10000003D7C7020A
:1036DC007D8B2396E70223800704E9B573260080CF
:1036EC00218A09CA7326008023A8C18410415D9ADF
:1036FC00731006800F100000238084002380640167
:10370C000F1000000356C9021376F60F33667601CC
:10371C00420641822316C9022380040073280080CC
:10372C001041218A336606017310068023A8018498
:10373C000F100000050A137AFA0F29B2F327008044
:10374C00A18B89CBF327008023A8F1841C41DD9B3E
:10375C00739007800F100000B71700401307700517
:10376C002380E704130780FA2380E7040F1000007E
:10377C0003D7C70216063A96420641822396C70221
:10378C0099BF914763EEB70217570200130787EAF8
:10379C008A05BA959C41BA978287B717004003A750
:1037AC00470B1345F5FF698F23AAE70A03A7070BFD
:1037BC00698F23A8E70A03A7070A798D23A0A70A14
:1037CC008280B717004083A6470B1347F5FFF98E8D
:1037DC0023AAD70A83A6070B558D23A8A70A83A66D
:1037EC00070A758F23A0E70A8280B717004003A74A
:1037FC00470B498F23AAE70A03A7070B1345F5FFCD
:10380C0045BFB717004083A6470B1347F5FF758FCD
:10381C0023AAE70A03A7070A598D4DB7B71700402B
:10382C0003A7470B498FEDB7914763EEB7021757C4
:10383C000200130767E18A05BA959C41BA97828703
:10384C00B717004003A7470D1345F5FF698F23AA4F
:10385C00E70C03A7070D698F23A8E70C03A7070C38
:10386C00798D23A0A70C8280B717004083A6470D43
:10387C001347F5FFF98E23AAD70C83A6070D558D98
:10388C0023A8A70C83A6070C758F23A0E70C8280B6
:10389C00B717004003A7470D498F23AAE70C03A7CE
:1038AC00070D1345F5FF45BFB717004083A6470D1D
:1038BC001347F5FF758F23AAE70C03A7070C598D47
:1038CC004DB7B717004003A7470D498FEDB741110E
:1038DC0022C43717004006C6834727020357070246
:1038EC001384018593F7F70F4207418325E913777A
:1038FC00F79F420793F7F7074183F3260080A18ACD
:10390C0089CAF326008023A8D1841440DD9A7390D1
:10391C0006800F100000B7160040130670052380B8
:10392C00C604130680FA2380C6040F10000093F718
:10393C00F70F2381F6022390E602238006047327F7
:10394C0000801C40A18BD98F7390078023A8018421
:10395C000F100000B24022444101828093E7070817
:10396C0013670740F3260080A18A89CAF3260080DA
:10397C0023A8D1841440DD9A739006800F100000A8
:10398C00B7160040130670052380C604130680FA90
:10399C002380C6040F1000002381F6022390E60258
:1039AC0023800604732700801C40A18BD98F739051
:1039BC00078023A801840F100000294597D0FF1F12
:1039CC00E78040BAF3270080A18B89CBF3270080D6
:1039DC0023A8F1841C40DD9B739007800F1000001E
:1039EC00B7170040130770052380E704130780FA0C
:1039FC002380E7040F10000003D70702136707208A
:103A0C002390E702238007041DBFB717004003D59E
:103A1C008700420541819377050491EB9377F5017B
:103A2C003755E801130505803345F50282809377FD
:103A3C00050C130700046397E7009377F5013745EE
:103A4C009C1CCDB72165130505D0828037E700E0BB
:103A5C001C435443A183E206D58F1CC1FD57232080
:103A6C00F7182322F7180F10000082801317850017
:103A7C00B7E700E023A0E710618123A2A7108280A2
:103A8C00B7F700E08847CC47828081473737004042
:103A9C00A14663C4C700328582800345B740E38EDC
:103AAC00A6FE3385F5000345050085072304A740D2
:103ABC00CDB79387C1809C43170700201307076479
:103ACC003E95636CE500174700201307E7326366E9
:103ADC00A70023A6A1803E858280FD57EDBF411132
:103AEC0022C406C62A8415372947B307E502B2401B
:103AFC008D83B3D7870222449507B3D7E7023737B4
:103B0C000040C207C1832316F70041018280716512
:103B1C0041111305052006C6D937B73700401307E6
:103B2C0070F82381E7000D47A381E7001307000419
:103B3C00A380E70005472387E700B240410182805C
:103B4C0037370040834727001A0593F7F703C98FCF
:103B5C0093F7F70F2301F7008280B737004003C7B4
:103B6C00170019C9D98DA380B70003C707001367C5
:103B7C0087002380E700828093C5F5FFF98DA38031
:103B8C00B7008280411122C406C62A84BD3D294754
:103B9C00B307E502B2408D83B3D787022244950761
:103BAC00B3D7E70237370040C207C1832316F7406B
:103BBC0041018280716541111305052006C6D93774
:103BCC00B7370040130770F82381E7400D47A381F6
:103BDC00E74013070004A380E74005472387E7402D
:103BEC00B2404101828037370040834727401A0595
:103BFC0093F7F703C98F93F7F70F2301F7408280F0
:103C0C00B737004003C7174019C9D98DA380B740F7
:103C1C0003C70740136787002380E740828093C562
:103C2C00F5FFF98DA380B740828011456FF08FA707
:103C3C00411193962500AA852D4506C697D0FF1FE6
:103C4C00E780C0A2B240014541018280411126C2E9
:103C5C009394250022C44AC02A843289A686AA8558
:103C6C000146254506C697D0FF1FE78020A0A686F3
:103C7C004A86A285294597D0FF1FE780209FB24036
:103C8C00224492440249014541018280011122CC17
:103C9C0006CE3714004026CA4AC84EC652C48344C6
:103CAC007405034AB4058349840503499405EFE080
:103CBC003FF68347A40593F4F40F137AFA0F93E7B6
:103CCC001700230DF40493F9F90F1379F90FB717B3
:103CDC00004003C7A705058B6DFF03D5C705A38D52
:103CEC004705238C3705A38C2705A38B9704F2403B
:103CFC006244D2444249B249224A05618280411150
:103D0C009397050122C406C6C1872E8463DB070086
:103D1C00252E11C1C9242165218DB24022444101B7
:103D2C00828093F7150013C51500E5FB93972501C9
:103D3C0063D00702EF40312ACD3D37F6020013065F
:103D4C0006E0896503C54185EF00007C0965E9B78C
:103D5C00939715010145E3D207FC17550200130593
:103D6C006594EF30023A13060064916503C54185F2
:103D7C00EF00807911654DB71D71494697550200CA
:103D8C009385C58D175502001305C5B086CE97D007
:103D9C00FF1FE78040CD01E9175502001305458D43
:103DAC00EF30223601A0B7F600E0795798CAFD57DC
:103DBC00DCCA0567B7E700E023A0E7101306F002A2
:103DCC0090C223A0E7180F1000001306C003814512
:103DDC00480897D0FF1FE78080C397E7FF1F9387A2
:103DEC0067653ECA896793870780231CF100B54736
:103DFC002304F102A167938707E03ECEB7070105C4
:103E0C00938707103ED0ED472312F1028547230319
:103E1C00F102970700009387E7E1BEC49707000003
:103E2C00938707E3BEC68567938717D02315F102E6
:103E3C0097070000938707C53EDAB7F50700970789
:103E4C0000009387E7E43EDE8146970700009387E6
:103E5C0007DE7000E1051945BEC097D0FF1FE78053
:103E6C00E08058088147994670003E96034606004C
:103E7C0085070507A30CC700E398D7FED24791C767
:103E8C000357810185676373F70001A04808EF00B1
:103E9C007041AA8501C9174502001305A57EEF30B4
:103EAC00021201A0F6402561828041111705000025
:103EBC00130525E506C622C4EF00103B138441858B
:103ECC002300A4001128034504002244B240130629
:103EDC000032896541010DAD411106C6F327008002
:103EEC00A18B1387018589CBF327008023A8F1844C
:103EFC001C43DD9B739007800F100000B717004028
:103F0C00930670052380D704930680FA2380D70488
:103F1C000F10000083C6F70293F6A60FA387D702F3
:103F2C0023800704F32600801C43A18BD58F73904C
:103F3C00078023A801840F100000F3270080A18BB9
:103F4C0089CBF327008023A8F1841C43DD9B73905D
:103F5C0007800F100000B7170040930670052380F0
:103F6C00D704930680FA2380D7040F10000083C671
:103F7C00F70293E62600A387D70223800704F326D3
:103F8C0000801C43A18BD58F7390078023A80184DC
:103F9C000F1000000545EFE03FCA41391305407E84
:103FAC0081470147814605468545EFE07FCFB2400A
:103FBC00014541016F00B06323AC05FE1C4191E744
:103FCC00010001000CC18280BA8703A787FF6DFF37
:103FDC0023ACB7FE82801DC18346E5FF1307F00FAB
:103FEC009147639EE600411106C697E0FF1FE780EC
:103FFC00A093B24081473E854101828095473E8522
:10400C00828001E9014582800145B2402244410190
:10401C00828095654111938505D022C4C98D2A846F
:10402C002105C2054205C181418106C697E0FF1FEB
:10403C00E780608271D9FD5723200500231285008B
:10404C002303F5002105D1B717070020130747C339
:10405C001C43411122C426C24AC006C60144014970
:10406C00BA8489E7A165D1251DC401A803C7E7FF60
:10407C00631AA7020DCCA165012E9840832784FFFB
:10408C006319E40217070020232CF7BEFD57232CDD
:10409C0004FE230FF4FE2285B240224492440249CE
:1040AC004101828011E03E8983A787FF5DBF3E847A
:1040BC00E5BF232CF9FED9BFB1CD411122C406C6F0
:1040CC002A849707002083C7F7BB2E856375F400FD
:1040DC00894763E8870001370D45B240224441010E
:1040EC00828083A785FF99E703C7E5FF9307F00F4D
:1040FC006305F700CD351545CDB7238F85FE170524
:10410C0000201305E5B74D3D22852244B240A16540
:10411C0041019DAC154582809707002023A207B66C
:10412C00828097070020938727BB9C4399E33E85A9
:10413C00828003D727006316B70003C70700E30884
:10414C00A7FEDC47E5B7C9C1797122D406D626D2C1
:10415C004AD04ECE01444147B3D78540858BA5C389
:10416C001205314722953305E50297070020938706
:10417C00A7BA03A907008544B3948400C204C18084
:10418C00BE892A990327090011C7032549002EC6A9
:10419C000297B24531473304E40283A709003E94E9
:1041AC001C4489E72320090023220900B250225421
:1041BC00A58D02599254F2492E85456182800504E1
:1041CC00E31CE4F88144DDB72E85828041111397FE
:1041DC00050122C406C626C24AC041872E84635EEE
:1041EC0007009D3511C1C53BA1673D8C2285B240AE
:1041FC0022449244024941018280EDD9AA870147A9
:10420C004146B356E440858A8DCE9207BA97B146A3
:10421C00B387D70297060020938606B003A9060041
:10422C008544B394E400C204C1803E9983270900FD
:10423C000325490082972320090023220900258C9D
:10424C0075B70507E31FC7FA8144D5BF9707002050
:10425C009387C7A89C53411122C406C613840181BD
:10426C0099C782971C403E9523A8A18039A0970737
:10427C0000209387E7A59C43EDF70840B747030060
:10428C009387D73F3305F502B7A72600938737EC02
:10429C00B24022443E9523A8A180410182807DC179
:1042AC00970700209387C7A29C43797122D426D20A
:1042BC004AD04ECE52CC56CA5AC806D65EC63A8A98
:1042CC00B689328BAE8A2A8982979707002093870A
:1042DC00A7A49843BE840144B146C147B30BD40292
:1042EC0033067701104251EAC165938505F04145CB
:1042FC0097D0FF1FE78020561DE597070020938776
:10430C00E79D9C5B2D4589C71145814582972D45BD
:10431C00B250225492540259F249624AD24A424B48
:10432C00B24B45618280970700209387E79A9843A8
:10433C0029E39707002023A1A79A230005009C409E
:10434C000547331787002326050023246501231115
:10435C00E50023224501DE9723A0270123A2570164
:10436C0023A447010145E38509FA238089004DB751
:10437C003E875C47F5FF48C7C9B70504E310F4F660
:10438C00214579B7094582809707002083C7978F0D
:10439C006371F502170700201307C79393171500D5
:1043AC0008433E9583570500DD8D2310B50001456C
:1043BC0082800D4582809707002083C7B78C63737A
:1043CC00F502170700201307E79093171500084311
:1043DC0093C5F5FF3E9583570500FD8D2310B50061
:1043EC00014582800D458280130705FF1377F70F77
:1043FC00FD4763E9E70AB146B306D50297070020EB
:10440C0093878791984389473697184349CF011171
:10441C0022CC4EC60544935945003D893315A40062
:10442C0013140501418026CA4E85AE84A2854AC864
:10443C0006CEC5392A89814731CDA2854E85A53F47
:10444C00970700209387C7889C4382979707002083
:10445C0083D7878D338797022A848146130600649D
:10446C00B3B7970213050732B335E500BE95EF20BD
:10447C002270B3078500970600209386668A3E87D4
:10448C00D44263E4A70063E4D7003387D7402324E6
:10449C00E9008147F2406244D2444249B2493E8528
:1044AC000561828089473E858280011126CA06CE2D
:1044BC0022CC4AC84EC6BD47894463EFA702314798
:1044CC003307E50297070020938707859C438944AF
:1044DC00BA979C4395C305443314A400420441800D
:1044EC002E890145A2853539AA89814411C5A28539
:1044FC000145D13523A42901F24062442685424965
:10450C00D244B2490561828097F7FF1F83C7977722
:10451C006364F50001458280011197F7FF1F9387B3
:10452C00277B56C283AA070006CE22CC26CA4AC8CD
:10453C004EC652C4638D0A0A17FAFF1F130A4A7E2D
:10454C0083244A00B74736FE938707C8AE8997F590
:10455C00FF1F83D5657DBE94B387C5022A8432893B
:10456C008146B3B5C50213850732B337F500130680
:10457C000064BE95EF20C25F63EBA406829A97F5A8
:10458C00FF1F83D5657AB3872503AA8413060064BD
:10459C008146B3B5250313850732B337F500BE95B5
:1045AC00EF20025DB3079500BE8403274A0063E445
:1045BC00A70063E4E700B384E740CE8522859536F7
:1045CC0001C504C505452DA0936504F0C205C18144
:1045DC00414597D0FF1FE780002805E597F7FF1F9F
:1045EC009387C76F9C5B81C7A28511458297014554
:1045FC00F2406244D2444249B249224A924A05618D
:10460C00828097F7FF1F9387276D9C439DE397F755
:10461C00FF1F23A3A76C85472326050004C5231180
:10462C00350123008500A300F5002322050059BFA6
:10463C00BA87D84775FFC8C7F9BF59C9797122D451
:10464C0026D24AD04ECE52CC56CA5EC662C466C280
:10465C0006D65AC83689328AAE89AA844144314C6E
:10466C0097FAFF1F938A4A6B854C930B0003330B0D
:10467C00840303A70A005A971C43B1E79375F4000F
:10468C00B395BC0013554440C2055286C1811375C5
:10469C00F50F9D3D0DC983A70A000145DA9784C328
:1046AC0023A237016304090023008900B25022546D
:1046BC0092540259F249624AD24A424BB24B224CB2
:1046CC00924C456182800504E31374FB2145F9BFCC
:1046DC0009458280411122C426C24AC006C62A84DA
:1046EC002E89B2841535CA852285EFF09FA305CD9E
:1046FC0097F5FF1F83D54563B38795022A8413066C
:10470C0000648146B3B5950213850732B337F500C3
:10471C00BE95EF20E24548C00145B2402244924488
:10472C000249410182802145CDBF411122C426C2DC
:10473C004AC006C62A892E84EFF0BF9EAA8419C1EE
:10474C0023110500A2854A85BD3197F7FF1F83C74A
:10475C006753639B270197F7FF1F83D727575D8C00
:10476C0097F7FF1F23948756014591E01945B240F6
:10477C00224492440249410182809307F00263E88B
:10478C00A7044111B14722C43304F50226C297F4A1
:10479C00FF1F938464589C4006C6A2979843894790
:1047AC000DC39377F5008545B395F500C205C1811E
:1047BC001181A53F9C40A29723A0070023A20700CC
:1047CC008147B240224492443E8541018280894710
:1047DC003E858280411106C622C4EFF09F9411E5FC
:1047EC000145B24022444101828097F7FF1F938715
:1047FC00274E9C430045829797F7FF1F938747529C
:10480C006368A402D843B74636FE938606C83305C0
:10481C00A4403697E376E5FC13070064B335E50254
:10482C0003D6870081463305E502EF20623455BF7D
:10483C00D8433A94C1BF411122C426C217F4FF1FBA
:10484C001304044E97F4FF1F9384C44394485840B8
:10485C0097F7FF1F9387C74706C69C436393E608E9
:10486C0082975440B74736FE938707C8B69733876D
:10487C00A7003A856364F7006364D7003305D7401B
:10488C0097F4FF1F938444639C4C81CF97F7FF1FD1
:10489C009387876994433707CDFF7D179C46F98F23
:1048AC009CC611E1484097F7FF1F93872743DC53C1
:1048BC00829719E59C4C8DC3EF406108EF30E15DA8
:1048CC009C4C99CB97F7FF1F938707669843B706C5
:1048DC0033001C47D58F1CC7B2402244924441017F
:1048EC0082808297984897F7FF1F83C77740544080
:1048FC001D8FB307A7003E8563E4E700E3E2D7F81A
:10490C003385D740B5BF411106C697F7FF1F23A7C4
:10491C00A7400295B24097F7FF1F23A1A738014586
:10492C0041018280994763E9B7008A0597F7FF1F19
:10493C0093870738BE9588C18280411171468145A5
:10494C0017F5FF1F1305C53606C697F7FF1F23A5DE
:10495C00073897F7FF1F23A3073C97F7FF1F23A9DF
:10496C00073697C0FF1FE780800A13068002814537
:10497C0017F5FF1F1305053197C0FF1FE7802009AE
:10498C00EF90910E97F7FF1F83C7B73613D527000B
:10499C008D8B3E958D473305F5028545390513758D
:1049AC00F50F97F7FF1F2380A72E99473305F502C4
:1049BC001305052497D0FF1FE780E0E917F7FF1FC9
:1049CC00232CA73459CD994717F6FF1F0346A62B66
:1049DC003306F60281451306062497C0FF1FE780B5
:1049EC00000397F7FF1F938727339C439387072474
:1049FC0017F7FF1F232CF72A17F7FF1F0347A728CA
:104A0C000A07BA9717F7FF1F2326F72CEFF0CFF002
:104A1C00052B97F7FF1F93876729944397F7FF1F81
:104A2C0083C7572613972700369717F6FFFF1306F1
:104A3C00C67110C3138717001377F70F0A07369741
:104A4C0017F6FFFF1306C67810C3138737008907C4
:104A5C0093F7F70F8A0797F5FF1FA385E522B69703
:104A6C0090C3B2404101828097F7FF1F83C7972103
:104A7C0017F7FF1F0347272163F3E70217F7FF1F01
:104A8C001307C72218439386170017F6FF1FA30BB3
:104A9C00D61E93962700369708C33E8582809307CF
:104AAC00F00FE5BF1C41638A071641777D8FB7066F
:104ABC00002089476314D716035745006300071677
:104ACC00411122C419462A849305F00F690506C6C4
:104ADC0097C0FF1FE780C0FD05478D47630AE512AD
:104AEC001C4481CB5858994763040712185C630126
:104AFC0007121306C003814517F5FF1F1305051E8A
:104B0C0097C0FF1FE780A0F01306C003A28517F51E
:104B1C00FF1F1305A51C97C0FF1FE780C0EB17F7FD
:104B2C00FF1F0357671C97F7FF1F9387271B19E776
:104B3C001307001097F6FF1F2398E61A17F7FF1FAD
:104B4C000347A71A11E7054797F6FF1F238FE618AF
:104B5C0017F7FF1F0357871911E76D4797F6FF1FCC
:104B6C002396E61817F7FF1F0347371811E7154769
:104B7C0097F6FF1FA38BE61617F7FF1F03472717A0
:104B8C0011E7054797F6FF1F2383E61617F7FF1F5C
:104B9C000347F71519E703C7F70097F6FF1FA3881C
:104BAC00E61417F7FF1F0347A71411E7354797F6CD
:104BBC00FF1F238FE61217F7FF1F0347B71319E7E1
:104BCC001307800297F6FF1FA386E61217F7FF1F45
:104BDC000347171219E71307D00297F6FF1FA38993
:104BEC00E6100347840119E71307C00397F6FF1F6C
:104BFC002382E6109C5791C7829797F7FF1F239744
:104C0C00A708FD5717F7FF1FA302F7383D3381475D
:104C1C00B24022443E854101828089473E85828094
:104C2C0001114EC697F9FF1F9389890F83A70900BD
:104C3C0006CE22CC26CA4AC852C4829713090064F5
:104C4C00B335250303DA89008146528633052503E3
:104C5C00EF10127297F7FF1F9387C702804FAA8439
:104C6C0001456306940233858440636E940003A56A
:104C7C00490052868146B335A9023305A902EF10CB
:104C8C00326F018D269597F7FF1F23A99700F240ED
:104C9C006244D2444249B249224A056182800111E0
:104CAC0022CC0A852E844146973502009385C56532
:104CBC0006CEEF206225180806043A94035504FF2B
:104CCC0097F7FF1F83D76706F2406244AA973745D0
:104CDC000F00130505243355F5020561828097F703
:104CEC00FF1F83D7870451471D45637CF702794723
:104CFC0019456378F7021307200315456373F70210
:104D0C001307B0041145637EF700130740060D45E9
:104D1C006379F7001307600909456374F70013B54D
:104D2C00B70F8280011122CC06CE2A842EC6EFF05A
:104D3C00EFD1B245F240818D33A5A5022295624494
:104D4C001375F50F05618280011122CC06CE2A84E1
:104D5C002EC6EFF0AFCFB245F240818D33A5A50240
:104D6C00229562444205418105618280011122CC69
:104D7C0006CE2A842EC6EFF06FCDB245F240818D5F
:104D8C0033B5A502229562440561828097F7FF1F17
:104D9C009387C7F4985739CB411122C426C206C653
:104DAC00BE84029717F7FF1F035747EE2A8415CBD3
:104DBC00BA876373A700AA87C207C183BA866373D5
:104DCC00E400A286C206C182958F5147635BF7004F
:104DDC00DC5491C38297EF30112097F7FF1F239774
:104DEC0087EAB2402244924441018280828097F744
:104DFC00FF1F9387A7EEDC57011106CEAA8581C74A
:104E0C002AC68297B245C1C59C410545B5CFDC4148
:104E1C00A5CF83D78500ADCB83D7A500B5C783C7F6
:104E2C00C500BDE3414617F5FF1F130565EF97C09D
:104E3C00FF1FE78040BA97F7FF1F938767EE9C43ED
:104E4C0017F7FF1F2326F7E897F7FF1F83C797EA8B
:104E5C008DE79307800217F5FF1F0355E5EC33052B
:104E6C00F50237460F001306062481468145EF10E4
:104E7C00325097F7FF1FA38FA7E617050000130505
:104E8C0065DAEFF05FA80145F2400561828097F783
:104E9C00FF1F83C707E613978701618763540704D5
:104EAC0097F7FF1F23AE07DE97C7FF1F9387A7F562
:104EBC0017F7FF1F2326F7E67D5797F7FF1F23A34E
:104ECC00E7E6B7873200938727A197F6FF1F23AD3C
:104EDC00F6E497F7FF1F238B07E4B7C7004023A422
:104EEC00E72691BF13F7170005CFB78720039387E9
:104EFC0007D017F7FF1F2329F7E2B707C0A817F74A
:104F0C00FF1F2321F7E297C7FF1F9387E7F217F7DD
:104F1C00FF1F2327F7E097F7FF1F238907E021BF27
:104F2C00617797F6FF1F2391E6E081CB9307003260
:104F3C0017F7FF1F231BF7DEC9B793072003CDBF5D
:104F4C00011122CC17F4FF1F130444D9084406CED8
:104F5C0026CA4AC801E90545F2406244D244424996
:104F6C00056182805C58E5DB185C75D7700085455F
:104F7C0082971844B247E300F7FE9305E00417F557
:104F8C00FF1F035565D697D0FF1FE780C08C17F71E
:104F9C00FF1F2329A7D061D117F6FF1F0356C6D4D4
:104FAC009305F00F97C0FF1FE78060A6814417F9A7
:104FBC00FF1F130929CD97F7FF1F83C707D30326BC
:104FCC00090263C1F402328597D0FF1FE780C095B8
:104FDC00014597F7FF1F23A707CC97F7FF1F23A5C2
:104FEC0007CC9DBF97F5FF1F83D505D0B3879502DE
:104FFC000844185C898185043E9508C2029765BFF8
:10500C00011156C297FAFF1F938A4ACD83A78A00D3
:10501C0022CC4AC84EC606CE26CA52C45AC0AA8949
:10502C002E8432896385072203A74A03630707147A
:10503C007D476366A71497F4FF1F9384A4C403AA47
:10504C00040263170A0A9565938515E017F5FF1F8F
:10505C00035585C997C0FF1FE780E07F97F7FF1FB7
:10506C0023A2A7C42A86630A051083A74A0303A5B3
:10507C008A0097F5FF1F83D525C78981829783A75F
:10508C008A0003AA040217F7FF1F232FF7C08947D2
:10509C00639CF908C1476312F40E97F5FF1F83D583
:1050AC00A5C4938505FC9147B3C5F5028A05D29535
:1050BC0003C705009307A005631DF70A83C71500F6
:1050CC006399370B4A852286910597C0FF1FE780AD
:1050DC0080909C505285639347150145F240624481
:1050EC00D2444249B249224A924A024B056182801B
:1050FC00D850E38EE7F89565938525E017F5FF1FEB
:10510C00035585BE97C0FF1FE780E0742A8A35C51A
:10511C002A8683A74A0303A58A0097F5FF1F83D528
:10512C00A5BC89818297A5B78D47639DF900C147BE
:10513C006315F40497F5FF1F83D505BB938545FDD7
:10514C00F199B5B79147639AF9006318340397F551
:10515C00FF1F83D565B9A115E5B7C147639FF9005A
:10516C00A14763EC870097F5FF1F83D5E5B7C11501
:10517C00C1BF9C5052856397470D294585B71307CE
:10518C00F006568B6361A70A130A05FE1947334ACA
:10519C00EA0217F7FF1F035727B597FAFF1F938AE9
:1051AC006AAE330AEA023E9A83A74A026395470124
:1051BC0083A40A029DE49305E00417F5FF1F035531
:1051CC00A5B297C0FF1FE7800069AA845DD583272D
:1051DC004B0397F5FF1F83D525B12A86898152850C
:1051EC00829791451307A005898193972500A6976F
:1051FC0083C607006393E60483C61700639C3603DB
:10520C0085058A052286A6954A8597B0FF1FE780FB
:10521C00807C83A70A02E38297EC268597C0FF1F48
:10522C00E78080705DBD1307E007E368A7F4130AFD
:10523C0005F985B783D5270045BF83A70A02E38EFE
:10524C0097F2268597C0FF1FE780006E3DB797F752
:10525C00FF1F938727A38C538DD191479306A005ED
:10526C008983139727002E9703460700E317D6F080
:10527C0003461700631C360185078A072286BE95F4
:10528C004A8597B0FF1FE780007581BD83572700C3
:10529C00C1BF97F7FF1F938767A4984739C79C5FD7
:1052AC00A9C705476313E504411122C417F4FF1F76
:1052BC001304449D105006C60DC6485097F5FF1FA9
:1052CC0083D585A289818297085097C0FF1FE780FC
:1052DC00A06597F7FF1F23A7079C97F7FF1F23A530
:1052EC00079CB2402244410182808280011117F751
:1052FC00FF1F1307A79E4EC68329870022CC26CA00
:10530C004AC806CE52C456C2AA842E843289638AF5
:10531C0009201C5FBA8A99EB2945F2406244D244B9
:10532C004249B249224A924A056182805C5BEDD7C0
:10533C00FD4763E9A70E97F9FF1F9389A99483A7EB
:10534C000902B1CB03A58A0083A749026395A7067E
:10535C0089476393F408C147E310F4FC17F5FF1F6A
:10536C00035585989147130505FC3345F5029317B2
:10537C00250003A509022286CA853E959307A00540
:10538C002300F500A3009500110597B0FF1FE780DF
:10539C008064014559B79305E00417F5FF1F0355C9
:1053AC00A59497C0FF1FE780004B97F7FF1F23AB17
:1053BC00A78E49F995B783A74A0303A6090297F567
:1053CC00FF1F83D565928981829783A78A0017F77F
:1053DC00FF1F232BF78CADBF8D47639EF400C14795
:1053EC00E31CF4F217F5FF1F03550590130545FD5B
:1053FC009377C5FFBDBF9147639AF400E31E94F009
:10540C0017F5FF1F0355458E2115DDB7C147E395F1
:10541C00F4F0A147E3E287F017F5FF1F0355C58CA5
:10542C004115F9B79307F00663EAA706930705FE43
:10543C001947B3C7E70217F7FF1F0357E78A17FA95
:10544C00FF1F130A2A84B387E702BE9983270A0237
:10545C00A9CF83274A02639A370703250A0291468C
:10546C001308A005FD5593D72600C207C1831397D7
:10547C0027002A9703460700631D06078348170079
:10548C000356270063959806B306D64063CF86046F
:10549C0085078A072286CA853E95C5BD9307E00716
:1054AC00E3ECA7E6930705F979B79305E00417F544
:1054BC00FF1F0355658397C0FF1FE780C03997E72F
:1054CC00FF1F23A1A77E51F581BD83A74A030326A5
:1054DC000A0297F5FF1F83D5258189814E85829716
:1054EC0097E7FF1F23A2377D8DBFA300B700B286BD
:1054FC009DBFB385860017E6FF1F0356E67E910518
:10550C00130606FCE3FAC5E0130634001376C60F47
:10551C001106B29623000701A30097002311D700B0
:10552C0085BF97E7FF1F9387E7759453BE89A1C288
:10553C0003A5090291461308A005FD5593D7260033
:10554C00C207C183139727002A97034607006316E7
:10555C000605834817000356270063989800B30686
:10556C00D640E3D786F2A300B700B286C1BF8357FB
:10557C00C70017E5FF1F034545779305E004330586
:10558C00F5024205418197C0FF1FE780C02C97E7C9
:10559C00FF1F23A9A77049FD41B317E6FF1F035650
:1055AC00A67497E5FF1F83C54574B385C502338682
:1055BC0086001106E3E2C5D681BF01458280011148
:1055CC0006CE2EC6EF80B03301C9B245F24003556A
:1055DC00250005616FC09071F240494505618280DC
:1055EC00A38201882382018823A6018623A8018631
:1055FC0023AA018623AC018623A4018623A201865B
:10560C0097E7FF1F9387C774930640382391D702FF
:10561C00F1761307400B938606B82391E70023928B
:10562C00D70211679D46130600059305000A130562
:10563C00007D2392E7002393D70241478546130848
:10564C0010F82395E7002396E7002399E700239AA7
:10565C00E700239BE700239CE7002394E7022390B9
:10566C0007002393B7002394B7002397C700239810
:10567C00C700239DA700239E0700239F07002390AC
:10568C0007022395D7022396070323970702930853
:10569C00F007239807022392E7042393E704239F40
:1056AC00E7042390E7062391E7062392E706239964
:1056BC0017031307C01C239AD702239BD702239CE2
:1056CC000702239D0702239E0702239F07022390B4
:1056DC0007042391D70423940704239507042396E6
:1056EC00D7042397C7042398C7042399A704239AA4
:1056FC000704239B0704239C0704239DC704239EB4
:10570C00C7042393A706239407062395070623961D
:10571C0007062397B7062398B70623990706239AFB
:10572C00E7065147239DE7067D57239B0706239CDD
:10573C000706239ED706239F07062390070823916D
:10574C000708239207092393E7088280011126CAD0
:10575C00AA84214522CC06CE2E8432C636C43AC247
:10576C00EFE03F8A1DC9A24612473246930700FD5F
:10577C002300F5009947A30095002301F5002303AE
:10578C00D500A303E5002312C500AA852285624437
:10579C00F240D24405616FE03F92F2406244D24441
:1057AC000561828023A6A186828023A8A18682809F
:1057BC0023AAA186828023ACA1868280011122CCEF
:1057CC004AC806CE26CA2A890144B30489006368F4
:1057DC00B400F2406244D2444249056182802EC634
:1057EC00EFE0DFA693170501C183A183B2452380A7
:1057FC00F4009307140093F7F70F850463F9B700CF
:10580C00CA9709042380A7001374F40F7DBF3E844C
:10581C007DBFC16717E5FF1F0355E551FD176304F5
:10582C00F502411117E6FF1F034686669385C18773
:10583C0006C6EF80C06AB240FD5717E7FF1F231C56
:10584C00F74E41018280828009C925151375F50F29
:10585C001335850E134515008280014582802390F7
:10586C000500C9C6797122D426D24ECE52CC5AC864
:10587C0006D64AD056CA5EC63684328AAE892A8B80
:10588C00814463F34407B307940083C7070013896B
:10589C0014004209939A070193DA0A01135909017A
:1058AC0063840A04CA976341FA04B307240183CBC7
:1058BC0007005E85513F0DC99387FAFF2390F900CD
:1058CC0063906B03130519002295B2502254925425
:1058DC000259F249624AD24A424BB24B456182802C
:1058EC00D694C204C18071BF0145C5B70145828001
:1058FC00411126C2AE8422C497E7FF1F23A4C744DC
:10590C0097E7FF1F23AEB74297E7FF1F23A8A742D5
:10591C002A8441469305F00F26854AC006C60549E0
:10592C0097B0FF1FE780C0186310250597E7FF1F8E
:10593C0093870740884BC145513541469305F00F7D
:10594C00228597B0FF1FE780A01685446318950247
:10595C00224497E7FF1F9387A73DB2409244024928
:10596C00C847C145410199BD41468145268597B03F
:10597C00FF1FE780E013E31225FD4DBF4146814533
:10598C00228597B0FF1FE780A012E30395FCB2407D
:10599C0022449244024941018280411122C426C210
:1059AC002E84AA8413060002814517E5FF1F1305F8
:1059BC00253806C697B0FF1FE780600597E7FF1FE5
:1059CC00A389973697E7FF1F2386874CEFC0503487
:1059DC00854719C181474945B240224417E7FF1F4B
:1059EC002308F734924441018280814781CD19C943
:1059FC008547631BF50083C7550093E707FCA3821B
:105A0C00F50085473E85828089476317F50083C77B
:105A1C00550093F7F703E5B70D478547E314E5FE0B
:105A2C0003C755001377F70313670704A382E50038
:105A3C00D1BF81478DC105C103C755009306000C2A
:105A4C0085471377070C6308D700930600048D472E
:105A5C006303D70089473E858280411122C4005DD3
:105A6C0006C626C21DC8AA84085009C597C0FF1FC8
:105A7C00E78080EB485009C597C0FF1FE780C0EA5C
:105A8C00085409C597C0FF1FE78000EA228597C01C
:105A9C00FF1FE78060E923AC0402B2402244924429
:105AAC004101828009ED97E7FF1F83C7872817E51F
:105ABC00FF1F1305652981CB1385C185828017E5EE
:105ACC00FF1F13056528828017E5FF1F0345652618
