:040000006F20C00AA3
:10000400000000000000000090000020AE0400206A
:10001400A9BDF9F3900000200000000000000000DA
:10002400900000209000002000000000000000006C
:10003400900000200000000090000020000000005C
:1000440090000020900000209000002090000020EC
:1000540090000020900000209000002090000020DC
:1000640090000020900000209000002092000020CA
:10007400A2050020900000209000002090000020A5
:1000840090000020900000209000002090000020AC
:1000940001A0B737004083C74740730020304111A7
:1000A400B7170040985F3AC6945F3247E39CE6FE78
:1000B40032454101828073270080218B9387818898
:1000C40009CB7327008023A4E18898435D9B7310B8
:1000D40007800100010037170040930670052300D4
:1000E400D704930680FA2300D70401000100834655
:1000F400B70493F6F60DA305D7042300070473266B
:1001040000809443A18AD18E7390068023A4018831
:100114000100010093760502638406180347A700D3
:10012400118B25E773270080218B09CB732700806F
:1001340023A4E18898435D9B7310078001000100AC
:1001440037170040930670052300D704930680FAFE
:100154002300D704010001008346A70093E646006C
:100164002305D70023000704F32600809843218B3E
:10017400558F7310078023A4018801000100130721
:10018400004B010001007D176DFF73270080218B58
:1001940009CB7327008023A4E18898435D9B7310E7
:1001A4000780010001003717004093067005230003
:1001B400D704930680FA2300D704010001007D8947
:1001C4002314A7000100010001000100230007041B
:1001D400F32600809843218B558F7310078023A446
:1001E40001880100010073270080218B09CB73274C
:1001F400008023A4E18898435D9B7310078001006D
:10020400010037170040930670052300D7049306B6
:1002140080FA2300D7040100010001000100B72681
:10022400004013061005A383C68023000704F326A9
:1002340000809843218B558F7310078023A4018875
:100244000100010073270080218B09CB73270080F4
:1002540023A4E18898435D9B73100780010001008B
:1002640037170040930670052300D704930680FADD
:100274002300D704010001008346B70493E606086F
:10028400A305D70423000704732700809C43A18B94
:10029400D98F7390078023A4018801000100828014
:1002A40093760504638B06140347A700418B25E767
:1002B40073270080218B09CB7327008023A4E18856
:1002C40098435D9B731007800100010037170040BD
:1002D400930670052300D704930680FA2300D704FD
:1002E400010001008346A70093E606012305D70019
:1002F40023000704F32600809843218B558F731045
:10030400078023A40188010001001307007D010078
:1003140001007D176DFF73270080218B09CB7327A4
:10032400008023A4E18898435D9B7310078001003B
:10033400010037170040930670052300D704930685
:1003440080FA2300D704010001009376F50193E6B7
:1003540006042314D700010001000100010023005A
:100364000704F32600809843218B558F7310078070
:1003740023A4018801000100130760046310E5044D
:1003840073270080218B09CB7327008023A4E18885
:1003940098435D9B731007800100010037170040EC
:1003A400930670052300D704930680FA2300D7042C
:1003B40001000100B72600400946B5B57327008047
:1003C400218B09CB7327008023A4E18898435D9B8C
:1003D4007310078001000100371700409306700571
:1003E4002300D704930680FA2300D70401000100F8
:1003F400B7260040130620053DB573270080218BE6
:1004040009CB7327008023A4E18898435D9B731074
:100414000780010001003717004093067005230090
:10042400D704930680FA2300D70401000100835601
:10043400870093E6060C2314D700C5BB41118146FF
:1004440001468145114506C63524F3270080A18B5A
:100454009386818889CBF327008023A4F1889C426A
:10046400DD9B7390078001000100B717004013075C
:1004740070052380E704130780FA2380E704010052
:10048400010003C76704136717002383E70423806D
:100494000704732700809C42A18BD98F7390078037
:1004A40023A4018801000100B240410182808146F9
:1004B4000146814511457D2AF3270080A18B1387CE
:1004C400818889CBF327008023A4F1881C43DD9B1A
:1004D4007390078001000100B71700409306700570
:1004E4002380D704930680FA2380D70401000100F7
:1004F400FD562396D70223800704F32600801C436D
:10050400A18BD58F7390078023A40188010001007B
:10051400F3270080A18B89CBF327008023A4F188E3
:100524001C43DD9B7390078001000100B717004056
:10053400930670052380D704930680FA2380D7049A
:100544000100010083C6670493E616002383D704E1
:1005540023800704F32600801C43A18BD58F73905E
:10056400078023A401880100010001A0BD473305D1
:10057400F50201007D1575FD8280411122C426C259
:1005840006C6AA84014463179400B24022449244EC
:100594004101828005041305803E4204C13F41802D
:1005A400DDB7B7170040130700032388E702854728
:1005B40023ACF18A730020302303048015472303FE
:1005C400E48001002302A480828083076480E3CE58
:1005D40007FE23030480828083076480E3CE07FE42
:1005E40003454480828083076480E3CE07FE2302B0
:1005F400A4808280411126C44AC24EC006C6137725
:10060400F50BAD47AA892E8995446306F700194571
:100614006537653F8D444E854537FD59FD14639814
:100624003401B240A24412498249410182801355E7
:1006340009011375F50F453F2209CDB7011126CCE9
:1006440006CEB704080051371545BD3771376937F1
:100654002AC6A53F32459377150089EB136515002B
:100664001375F50FF240E24405618280FD14E9FC44
:100674000145CDBF397126DC4ADA4ED852D656D45C
:100684005AD25ED006DE62CE66CCB7E700E07D5774
:1006940083AA070022C603AA470023A0E71823A2BF
:1006A400E718B7170040130770052380E704130702
:1006B40080FA2380E70483C74704930B75FFB6844D
:1006C400E20793FBFB0F8546AA892E8B32893724D8
:1006D4000040E187015763FA76016308D500894633
:1006E400130700026313D5000157D98F93F7F70F4F
:1006F400B71C00402382FC0411472303E480130544
:10070400F00F5D3D094CD135636D7C11B7050700D1
:10071400DA9537870700795563F2E504B3879500C6
:10072400636EF702370B0800A94733EB6501639941
:10073400F90689E48144513D26850DA0DA850945F1
:10074400553D05090345F9FFFD14050B693D81C4B9
:100754009377FB0FFDF7DD3569FD7D55B717004035
:10076400130770052380E704130780FA2380E70446
:1007740003C74704418B2382E704F250B7E700E044
:1007840023A0571123A24711E25432445259C259AB
:10079400325AA25A125B825B724CE24C2161828013
:1007A400A5476395F90685691309F00FB306990007
:1007B400B3742B01B6941349F9FFB3749900856B94
:1007C40033796901416B9387F9FFB3F7270199E303
:1007D40063FC340193D94900C147E3E637FF99BF6D
:1007E4000569C1697D19D9B71305800D638869014D
:1007F400130500026384790113051008CA85DD3BE3
:10080400353D21DD4E99B3843441D9B7DA852D4580
:10081400D533CA94E30099F205097D3BA30FA9FEE1
:10082400D5BF9387F9FF93F7F70F6361FC0C83C778
:100834001C0413073008631FF70437070800636BB1
:10084400EB04B3079B00B706100063F5D704334BE2
:10085400EB0089476393F9068980D549E38C04EC5E
:10086400DA850945413B11090327C9FF9147232034
:10087400E48003076480E34E07FE23033481FD17FD
:10088400EDFBFD14110B81C49377FB0FE9FF7D335E
:1008940071F5E1B5B717004003C75704B70708005F
:1008A4001377070219E3B78707007955E378FBEA62
:1008B40033079B00E3FFE7F855B58547E382F9F278
:1008C400DA852D45053B9389F4FFE38504E6293356
:1008D40093F7390091EB83260480032709009307DB
:1008E4004900E39AE6E43E89CE84F1BFB5476396B6
:1008F400F9001305900BC93135BDB1471305B00A92
:10090400E38BF9FE99476391F904B7050800B365D1
:10091400BB002D45C53181448D4BA1497539639682
:100924007401832704802320F9008504E39834FFAD
:100934008327048013172B01635507002312F90042
:10094400D5BB2322F900FDB39D476399F902814584
:100954001305B0044531BD442320090023220900B6
:10096400FD599D3993F77400CA9703C70700FD1416
:10097400398D2380A700E39634FF6DBBA1476392B2
:10098400F9046D398144630D0B008D479304C00352
:100994006308FB009304000563048B019304400483
:1009A4001375C507E30895D8194539313939054513
:1009B400213126850D3909453D314931E31C05D6E0
:1009C40069BB91476399F90013056006F536F53E56
:1009D400130590090DB7E38F09D4F154A9BB19CDC0
:1009E40091CD09CE81473387F5008346070033074D
:1009F400F50085072300D700E317F6FE828019C9A6
:100A040091C909CA910583A7C5FF11057D16232E37
:100A1400F5FEC5BF828001C919C62A960505A30F34
:100A2400B5FEE31DA6FE828081473307F500030768
:100A3400070019E33E8582808507C5BF01112E8614
:100A440026CAAA84131506019305F004418122CC19
:100A540006CE32C6EF00B0562A8401C53246A685BA
:100A6400BD3F2285F2406244D244056182808547BD
:100A740015C18DC105C28147B306F5003387F50062
:100A840083C60600034707006398E6008507E3155D
:100A9400F6FE85473E8582808147EDBF9307F6FFCA
:100AA400BE952A966313C5008280FD1583C7150081
:100AB4000505A30FF5FEFDB7AA87014581CF09CE31
:100AC4003E96850703C7F7FF6317B700E39BC7FE8E
:100AD40005458280828001458280797197370000C4
:100AE4009387C74622D4804306D626D24AD04ECE18
:100AF40052CC56CA5AC85EC679C0B7C4C901014BA4
:100B040097390000938909449384F437173A000015
:100B1400130A0A44973A0000938A0A3E17390000E0
:100B2400130949478357240095E35C44631D0B0074
:100B340017370000232CF740832BC4002285EF00D5
:100B440030555E84B9A82326FB00FDB783A70900AE
:100B540082971C443307F5406376F5000327490068
:100B64001D8F2A9763E2E4089737000023AE073805
:100B74008355240003450400974000E0E780A01655
:100B84005C405844A1CB0C4403264900AE97BE8672
:100B940063E4B70063E4C700B386C74014C4228B80
:100BA4003A8449F097370000938707359C4B0947EF
:100BB4006372F706F917173700002327F734B2508A
:100BC400225492540259F249624AD24A424BB24BDD
:100BD4004561828063170B009737000023A8E7362E
:100BE400A1BF2326EB0089BF03274A0209CF63EF85
:100BF400A7003385A74083A70A016376F5009737DA
:100C0400000023A3A730228B404461BF032749007F
:100C1400BA97C5B79737000023A8072E4DB74111DF
:100C240022C4173400001304E42F1C4006C626C255
:100C34004AC091C782979737000023A5072E97379C
:100C4400000083C7774E858B973400009384844DCE
:100C540095C397370000A389074C83C774001547D1
:100C6400637AF700A12B83C77400F5178A07A2974C
:100C74009C4382971C4491C382971739000013093F
:100C8400A92C03270900173600000346F6269737D8
:100C9400000083C7672693961700BA9683D606008A
:100CA400D5CE9737000083C7272563E3C70C973752
:100CB4000000238307241C40639D0712973700001C
:100CC40083C7D74691CF83C7740093F7F70F89EB97
:100CD40097370000A38C0744974001E0E7808053D6
:100CE40097370000938707269C4363840710973740
:100CF40000009387272ADC43173700002326F720B8
:100D0400E93B973700009387A724DC53FDC31737CB
:100D140000001307671E184B9737000083C79724FA
:100D24006369F70C83C7740015476364F70C97373E
:100D3400000083C7E743918BCDEF03260900973664
:100D4400000083C6761B63CCD70A2244B240924487
:100D540002494101174300E067002344850793F7E4
:100D6400F70F973600002389F618E3E2C7F215BFA0
:100D740086073E9783550700231007009737000026
:100D84002390071C97370000938787199C431735D6
:100D940000000345651613172500BA979C438297F4
:100DA4009737000083D7C719173700000347C714C4
:100DB40093C7F7FF7D8D93171700032709003E970C
:100DC400835707005D8D2310A7009737000083C762
:100DD400A71291C7850717370000230FF71017379D
:100DE4000000034767119737000083C7F710E370CB
:100DF400F7ECB240224492440249410182801397A5
:100E040017003297035707006DF785072DBFAD67AD
:100E140037C70040BD072326F7200F10000097377F
:100E240000009387670DC84F83278726BD66BD06DC
:100E340093C7F7FF99836A052326D7205D8D8280A7
:100E44004111B7170040985F3AC6945F3247E39C5C
:100E5400E6FE3245410182801305F00F82800111C4
:100E6400973700009387073C22CC03A4070C26CABB
:100E740006CE2AC42EC6854419E40145F2406244D4
:100E8400D244056182808347910003471400858B17
:100E94006304F7000044CDB719469305A100130578
:100EA4002400F136E31895FE0545C9BF1737000045
:100EB400130747261C439306001094C30100010046
:100EC400010001001C4323A00700834615000348CA
:100ED4002500A2064208C29603480500C2960348AC
:100EE40035006208C29694D78346550003486500CE
:100EF400A2064208C29603484500C29603487500FC
:100F04006208C296D4D7834695000348A500A2067A
:100F14004208C29603488500C2960348B500620899
:100F2400C29694DB8346D5000348E500A206420836
:100F3400C2960348C5000345F500C2966205AA9609
:100F4400D4DB83C6150003C52500A2064205AA9674
:100F540003C50500AA9603C535006205AA9694CF79
:100F640083C6550003C56500A2064205AA9603C5BB
:100F74004500AA9603C575006205AA96D4CF83C618
:100F8400950003C5A500A2064205AA9603C58500DF
:100F9400AA9603C5B5006205AA9694D383C6D50064
:100FA40003C5E500A2064205AA9603C5C50083C58C
:100FB400F500AA96E205AE96D4D3D443F59AD4C3E9
:100FC400D44393E61600D4C3944393E6160094C323
:100FD400BA879443D842058B59E3984E01452300C0
:100FE400E6009843184F2183A300E6009843184F66
:100FF40041832301E6009843184F6183A301E6006F
:101004009C43D84F2302E600D84F2183A302E60075
:10101400D84F41832303E600D84F6183A303E6003E
:1010240098532304E60098532183A304E6009853BD
:1010340041832305E60098536183A305E600D85352
:101044002306E600D8532183A306E600D853418340
:101054002307E600DC53E183A307F6008280010046
:101064008DBF173700001307270B1443411122C407
:101074009C5E4AC006C6998326C2858B3A8417397A
:10108400000013092909D1CB9C5E97340000938496
:10109400640993F7F7F99CDE173700000347E70864
:1010A40093070008631BF700832709009C4393F709
:1010B400070417370000230AF70683C7040093F7D1
:1010C40007049DC3973700009387C7E79C43829723
:1010D4009737000023A0A70683C7040093F7F70BF4
:1010E400173700002300F70483C7440093F707046D
:1010F4008DE7854717370000A308F70297370000EC
:10110400938707049C43096798C7130700FC973625
:101114000000238BE600D844F8D31C40985F118369
:10112400058B09CB985F3D9B98DF054797360000F8
:10113400238CE6FE985F1D83058B11CB985F137794
:10114400F7F798DF854717370000230FF7FC83274D
:101154000900D8430583058B19C7D843759BD8C3A9
:10116400D843799BD8C3B2402244924402494101F6
:101174008280397106DE16DC1ADA1ED82AD62ED4FD
:1011840032D236D03ACE3ECC42CA46C872C676C4B3
:101194007AC27EC0F935F250E2525253C2533255EC
:1011A400A255125682567247E2475248C248324EFE
:1011B400A24E124F824F21617300203097370000F6
:1011C400938707F89443973700009387A7F503C7DD
:1011D4000700058B11CB97370000238707F4973757
:1011E4000000A38307F4828003C71700058B65F70B
:1011F400F85271FF83C75700DDB717380000130892
:10120400A8F1032708001C5F9583858BD1E709C6E5
:101214001C5BBD832300F60085CA83270800985B06
:101224004607935767016356070093E707C0C20751
:10123400C18303970600C207C18709C7BA97094744
:10124400B3C7E7022390F60085CD834715008DCB05
:101254009736000083C666ED93F60604138797005D
:1012640089478DCA3A950347050085469947137601
:10127400F7066311D60262076187B947634C07001A
:10128400832708009C5FED838D8B17370000A30034
:10129400F7EA81473E8582808547EDBF411122C42C
:1012A40006C6173400001304A4E918403DE9AE87CC
:1012B4007453FDFE3E85B28597370000238507E60B
:1012C400974001E0E78080C8973700009387C7E420
:1012D4009C43B70680009843558F98C3D857719B99
:1012E400D8D797370000A38107E497370000A38B72
:1012F40007E21C40094798C314401737000013073E
:1013040067E283472700858B89EB83473700858B0A
:10131400D9C797370000238907E0B240224441012E
:1013240082808D476310F502973700009387C7DEEC
:101334009C43B70680009843558F98C3D857719B38
:10134400D8D75DBF8547E319F5FA5447F977FD17F8
:10135400F58F5CC70F1000001C40096798C713077E
:1013640000F8173600002301E6DC173700001307E6
:10137400A7DA1043184231830D8B11E71307601964
:10138400F8D3D4C795BF1842094631830D8B631532
:10139400C7001307E043EDB71307E01BD5B7FC52B2
:1013A400ADF3A5BF5D71A2C4A6C22A841306800250
:1013B4002800AE849305100886C6CAC04EDE52DCEF
:1013C400EFF06FE53545974001E0E78040F71733CC
:1013D4000000130363D4832703009376F41F173E9E
:1013E4000000130E2EDB23A40700984B973E000049
:1013F400938E0ED5370FFCFF1367F70398CBF84F86
:10140400130510F8B7020400137707E0558FF8CFDF
:101414009843F576FD16758F98C39843B706330045
:10142400930380251377F7E798C3984311497D1FE9
:101434001377F7E71367071098C303270E0085494E
:10144400930F80021C47D58F1CC783A70E00130778
:10145400900D3400B8CB014793553700A69583C748
:10146400050013767700B3D7C740858BE1C3832784
:10147400030083280E00239C07042390070603A877
:10148400C8021378D8FF23A6080383A8070013789B
:10149400F70793F808F833E8080123A0070103A825
:1014A40047023368580023A2070383A80E000148AB
:1014B40023A2780603DA07066307480303A8070391
:1014C400038A06001358F8006208135888416358C9
:1014D4000A0103A807031358F8002380060103D860
:1014E40007061378F80F03AA480663060A0003DA0E
:1014F4008705E37F49FB03A847023378E80123A269
:10150400070383870600635CF40003C80500339671
:10151400C9001346F6FF337606012380C5003E86D4
:1015240063D3A7002A8613158601618505071377FF
:10153400F70F8506E312F7F3B640264496440649AE
:10154400F259625A6161828097360000938646BFE1
:101554009C42D84713161701635506029847131681
:101564001701635006027D57B8D7173700001307D9
:10157400A798584F050717360000232DE6981167E2
:1015840098C798470D83058B1DC317370000034781
:1015940087B913671700173600002306E6B8130748
:1015A40000F8173600002301E6B8214798C798478A
:1015B400058B09CF173700000347D7B61367170009
:1015C40017360000A300E6B6054798C79847098375
:1015D400058B09E798470583058B31CF9847173664
:1015E4000000130626B4173500001305E5B209837D
:1015F400058B630307101841184331830D8B75EB7A
:10160400AC4B184E93F5050203471700CDCD79EF87
:1016140013077006D8CF0347060013671700173661
:1016240000002301E6B0114798C718415C57F19BAD
:1016340093E717005CD79C4298479316370163D60B
:1016440006029736000083C666C5C18A17370000B4
:10165400130747BDC5CE03478707136707029736AD
:101664000000238DE6C2056798C7984793162701A3
:1016740063D1060217370000034707AB620761878F
:1016840063570700054797360000238FE6A80967CC
:1016940098C798479316070163D606029736000049
:1016A40083C6D6BF858A173700001307A7B7ADCE08
:1016B400034797071367270097360000A380E6BE09
:1016C400216798C7828029D785456315B70013071A
:1016D400B00689B789456315B7001307F0061DBF27
:1016E4008D456315B700130730072DB7130750074F
:1016F40015B71307600739BF034736001367170090
:1017040017360000A301E6A2094739BF83468707BD
:101714000946BD8A6388C600034787078D463D8B0B
:10172400E313D7F4114725BF83469707918AC9DA93
:10173400034797071367870041B7397106DE16DC44
:101744001ADA1ED82AD62ED432D236D03ACE3ECC8D
:1017540042CA46C872C676C47AC27EC0F533F25015
:10176400E2525253C2533255A25512568256724710
:10177400E2475248C248324EA24E124F824F216174
:1017840073002030973700009387879B98438567C1
:10179400938707777CD3973700009387A79F9C4351
:1017A40083A60709139656006358060083A6070903
:1017B40013966600634406007453FDF2828071C57B
:1017C400AA870145E9C58D07C207C183F19BC207FA
:1017D400C18313074003636FF70217370000130731
:1017E40027A4084317370000130707A3144363987B
:1017F400A602172700001307A775185B014541CB04
:101804004111C20706C60545DD8D0297B240014568
:101814004101828017370000130747A0D9B7035747
:10182400650035E303574500636FF704B306F740DB
:101834002146637CD60203280500938687001D8F0A
:10184400AA966117172600000356666B2392E600DA
:1018540023A006012393060014C12312F5001307E5
:1018640086FF97260000239CE6682313B50097257E
:10187400000083D5C568B387F540172700002310FF
:10188400F7682105828008419DB7014582808280E6
:101894000DC1973700009387A79803A307009737D4
:1018A40000009387679783A8070081469A8763E3BC
:1018B4001701828003A80700636DF50A636BA80A09
:1018C40013878700E367E5FE03D6670021670507F2
:1018D4006317E60003C7019405072380E194972565
:1018E40000009385656103D6470003D76500239301
:1018F4000700329742074183172500002311E56052
:10190400638A670217350000130545910841630394
:10191400F50203D5660019ED83D7460023A006011E
:1019240021073E9621062392C6009727000023989C
:10193400E75CB6879843E30E17F797360000938663
:10194400E68D9442E307D7F683566700BDF283D64B
:101954004700035647001843A106B2962392D700C6
:1019640098C383D76500A107172700002319F758E8
:101974008280BE86C28725BF0327851163020712B2
:10198400411122C406C68347C5008345E5042A8461
:1019940093F7C70F2306F500834697000356C70045
:1019A40013958601618563F2C508635B05060345EB
:1019B400870093F6F607A304D700054693E62700AD
:1019C4006314C50093E617002306D4005C4389071B
:1019D4005CC3A30AB400032504112E864C430905F5
:1019E400EFE0FFFF8327841103465401D44303D758
:1019F400C700B296118FD4C32396E7008947A30D7D
:101A0400F400034764039727000083C7875563786E
:101A1400F7048347C40093E707012306F40081A079
:101A240093E717002306F4006DB79376F60F635D12
:101A3400050203458700854513E627006314B500B6
:101A440013E617002306C400A30AD400A304070066
:101A54008547A30DF400832784119C43DDF3B24032
:101A6400224401454101828093E717002306F400D4
:101A7400A30AD400A3040700032504114C43090559
:101A8400EFE0FFF58327841103465401D44303D7C1
:101A9400C700B296118FD4C32396E7008D4755BF74
:101AA40005458280973700009387878A9C434111BC
:101AB40022C406C6858B2A84C5EF4165130525F526
:101AC40097F001E0E78000EF45C58347A5002315A3
:101AD400F50083270412BDE72320A4122322A412B5
:101AE40085472311F40423200500834764015441EE
:101AF4002316F5000347D4002304E5000547A30497
:101B0400E500172700001307E761184F1385170234
:101B140015811C437D151375F50F9CC25C43DCC213
:101B24001C479CC65C47DCC61C4B9CCA5C4BDCCA8D
:101B34001C4F9CCE5C4FDCCE19CD93860602130756
:101B44000702C1BF8327441288C383572404232276
:101B5400A412850779B79727000083D7276D8507D7
:101B6400172700002314F76CB240224441018280FD
:101B74008347C40023090400054593C7470023068F
:101B8400F400DDB78347850193F7E70FD5EF83476B
:101B94009501DDEB034625018346C50009CA83454B
:101BA4006503172700000347D73B63E7E50013F7F6
:101BB400060141CF014709C6C18A0357651C81C686
:101BC4008356A51C369751C31307C7121725000067
:101BD4000355C53CB335A70237460F004111130620
:101BE4000624814622C426C206C67D543305A702B4
:101BF400972002E0E78060EA9727000083C7D73682
:101C0400B384A700972700009387C76103A78709B8
:101C14008327070963F387003E84184375FB9727DE
:101C24000000938727329C43829781476364A40012
:101C3400B307A440B2402244B3B7970093C7170038
:101C440092443E854101828081473E858280972768
:101C540000009387E74E98437C53FDFF828079719F
:101C640026D206D622D44AD04ECE52CC56CA5AC810
:101C74005EC68347550303447513AA843E941374C4
:101C8400F40F9307400263F687001304B4FD137442
:101C9400F40F03AA841383AAC413A38B8412228689
:101CA4005285D685972002E0E780A0D9058915E5FD
:101CB40003CBD41201498149337B6403930B500253
:101CC4004A865285D685972002E0E78080D7058929
:101CD40015C5639169031374F90F238B8412B250F1
:101CE400225492540259F249624AD24A424BB24BAC
:101CF400456182808509E20993D989410509E31187
:101D040079FDE1BF8327850903560504797193D6CC
:101D14000701BD8EC206C182358E13577640935794
:101D24005640898B058B5D8F93573640918B5D8F21
:101D340093571640A18B5D8F93171600C18B5D8F4F
:101D44009317360093F707025D8F93175600935548
:101D5400860093F707041E065D8F1376F60F518FE6
:101D640093D7554013D63540118A898BD18F13D61A
:101D74007540D18F13D61540218AD18F1396150043
:101D8400418AD18F1396350013760602D18F1396AC
:101D94005500137606049E05D18F93F5F50FCD8F6C
:101DA400A20745465D8F3307C70222D42A8426D270
:101DB40052CC56CA032A8413832AC4135AC806D69B
:101DC4003697420741839357774013555740098903
:101DD400858BC98F135537401189C98F1355174007
:101DE4002189C98F131517004189C98F131537002D
:101DF40013750502C98F1315570093558700137582
:101E040005041E07C98F1377F70FD98F13D53540F3
:101E140013D755401189098B498F13D57540498FC4
:101E240013D515402189498F139515004189498F90
:101E34001395350013750502498F139555001375D5
:101E440005049E05498F93F5F50F4D8F2207D98F11
:101E5400B387C7024AD04ECE5EC662C4B697C207E5
:101E6400C18313D7774013D557400989058B498F10
:101E740013D537401189498F13D517402189498FCC
:101E8400139517004189498F13953700137505027F
:101E9400498F1395570093D58700137505049E0742
:101EA400498F93F7F70FD98F13D5354013D7554082
:101EB4001189098B498F13D57540498F13D5154066
:101EC4002189498F139515004189498F1395350050
:101ED40013750502498F13955500137505049E0566
:101EE400498F93F5F50F4D8F2207D98FB387C7021A
:101EF400130650025285D685B697BD8E939406017B
:101F0400C18033F6C402137BF60F972002E0E7800A
:101F140040B305890DED8347D41201498149B38447
:101F24009702130C5002C1804A865285D6859720A9
:101F340002E0E78000B10589937BF90F11C5638640
:101F44003403850993F9F90F0509E31F89FD230B70
:101F54006413B250225492540259F249624AD24A4A
:101F6400424BB24B224C456182805E8BCDB7797176
:101F740022D406D683C735002E8423160100A30776
:101F8400F10083C74500100802C02307F10083C78E
:101F940055008A8502C2A306F10002C402C802CA1F
:101FA40002CC02CEEFE09FF00347F1018347040027
:101FB40001456310F7020347E1018347140001451B
:101FC4006319F7000345D101834724001D8D1335A0
:101FD4001500B250225445618280011197270000F8
:101FE4009387472422CC03A4870C26CA4AC84EC62A
:101FF40006CEAA8413092500854915C083C7140099
:1020040003473400858B6304F700405CFDB7194631
:10201400930544004A85EFE09FA5E31835FF228528
:10202400F2406244D2444249B2490561828041117E
:10203400972700009387071F22C403A4870C26C296
:102044004AC006C693042500054901E82285B2402A
:1020540022449244024941018280A6851305A402C8
:102064003937E30525FF405CCDB7411197270000C0
:102074009387471B22C403A4870C26C24AC006C602
:1020840093042500054901E82285B2402244924484
:10209400024941018280A6851305A401C93DE305D7
:0820A40025FF405CCDB70000F0
:1020AC0097110020938141C5176100201301C1F4E1
:1020BC001305400097E5FF1F938505F417060020D4
:1020CC00130606FE63FAC5008322050023A0550003
:1020DC0011059105E3EAC5FE175502001305458667
:1020EC00970500209385C5FB1386018763FAC5000D
:1020FC008322050023A0550011059105E3EAC5FED6
:10210C001385018797250020938505256377B500F6
:10211C00232005001105E36DB5FEFD42739002BC52
:10212C008D4273904280930280087390023097E244
:10213C00FF1F938262EC93E232007390523097024D
:10214C0000009382823873901234730020303D4328
:10215C002A876373C3029377F700BDEFADE59376DF
:10216C0006FF3D8ABA960CC34CC30CC74CC741073B
:10217C00E36BD7FE11E28280B306C3408A06970256
:10218C00000096966780A6002307B700A306B70049
:10219C002306B700A305B7002305B700A304B700B7
:1021AC002304B700A303B7002303B700A302B700AF
:1021BC002302B700A301B7002301B700A300B700A7
:1021CC002300B700828093F5F50F93968500D58D8B
:1021DC0093960501D58D61B7939627009702000061
:1021EC0096968682E78086FA9680C1171D8F3E965A
:1021FC00E374C3F8A5B78347050081EF3717004098
:10220C005C418326070A93C7F7FFF58F2320F70A53
:10221C0082800547639CE700371700405C418326AA
:10222C00070C93C7F7FFF58F2320F70C82808347A9
:10223C00050091EB371700408327070A5441D58FCF
:10224C002320F70A82800547639AE700371700407E
:10225C008327070C5441D58F2320F70C82808347AA
:10226C00150081EF371700401C458326070A93C7DA
:10227C00F7FFF58F2320F70A82800547639CE70060
:10228C00371700401C458326070C93C7F7FFF58FC3
:10229C002320F70C8280411122C406C68347050017
:1022AC002A8485E748418545EF10302737170040D1
:1022BC008327C70A5440D58F2326F70A2285253F4A
:1022CC0022852244B240410159BF0547E398E7FEFD
:1022DC0048418545EF10D02E371700408327C70C97
:1022EC005440D58F2326F70CD1BF8347150091EBB3
:1022FC00371700408327070A1445D58F2320F70A88
:10230C0082800547639AE700371700408327070C44
:10231C001445D58F2320F70C82800347150019EB49
:10232C00B717004083A7470A0845E98FB337F00079
:10233C003E85828085468147E31CD7FEB717004057
:10234C0083A7470CD5B7794517E3FF1F6700832197
:10235C00411106C622C42A841937F5372285613DFE
:10236C00DD3722855D3F11E50145B2402244410134
:10237C00828022859D3FC13F2285453775F5228598
:10238C007D35D1370545D5B7411122C426C24AC087
:10239C0006C62A89AE842144593D93978401E1876E
:1023AC004A8563D60702653D4A85B1357D14613F88
:1023BC004A8586041374F40F9D3D93F4F40F613732
:1023CC0069FCB24022449244024941018280313F6F
:1023DC00E1BF411106C622C426C22A844935228592
:1023EC00193D9304803E85372285053F19C9FD149C
:1023FC00C204C180F5F8174502001305259AEF2099
:10240C00C2282285193F19CD2285153517450200A2
:10241C001305059AEF2062270145B24022449244ED
:10242C00410182800D3722851935313F0545F5B7BD
:10243C00411106C622C426C24AC0A1442A890144BD
:10244C00393D11374A85E533FD3D4A856D33060428
:10245C004A851374F40FD13519C113641400FD149B
:10246C0093F4F40FCD35F9FC2285B240224492440A
:10247C00024941018280411106C622C42A84453B8F
:10248C00D93522859D35C1352285B5336D3D2285E3
:10249C00F9332244B24041017DB5011122CC2EC644
:1024AC002A8406CE6933B245228581ED4D3B613DD0
:1024BC0022859133493D22859D3B6244F240056162
:1024CC0059B52535EDB74111054506C622C4EF10A7
:1024DC0090191305800497E0FF1FE78040BD371467
:1024EC0000408327840A85451305001093E70720D5
:1024FC002324F40AEF1070028D4513050020EF1011
:10250C00D001EF10103A0D45EF10D03C9545054524
:10251C00EF10F03D37070008B7E700E023A0E71005
:10252C00EF20401AEF20202DEF80517EED21170572
:10253C0000201305E5B6853317050020130505B7F4
:10254C00993B914513050008EF1090078327C40CA5
:10255C001305007D93E707082326F40C97E0FF1F73
:10256C00E7802001EF0090111305007D97E0FF1F1D
:10257C00E7802000EF0070291305007D97E0FF1F16
:10258C00E78020FFEF0000621305007D97E0FF1F3E
:10259C00E78020FEEF00B03D97E0FF1FE780A067CB
:1025AC00E5BF2A86B305B040174502001305059117
:1025BC006F20A20D011106CE19C589476301F502E2
:1025CC00F24005618280680097E0FF1FE780A04021
:1025DC00174502001305859BEF20C21CD5B7680078
:1025EC0097E0FF1FE780203F174502001305C59BAE
:1025FC00E5B783D7C1876390A702239FB186239049
:10260C00C1882391D1882E861745020013050589B0
:10261C00BE856F208207174502001305A5896F2020
:10262C00621803574500011106CE83D7C187631F7B
:10263C00F702C167F917894503C5818023AEF1867E
:10264C0023A00188EF209023914503C58180EF20C2
:10265C00F02285471306F100854513055030A3077A
:10266C00F100EF801136F2400561828017450200BF
:10267C0013054584EF200213FDB73D897D15954761
:10268C0063E4A71617370200130747730A053A9538
:10269C001C41411122C406C6BA972E848287174565
:1026AC000200130525832244B24041016F20820FA2
:1026BC0083C7250019476391E7022E859D37834513
:1026CC006400174502001305E581EF10127C1745D5
:1026DC0002001305E582C1BF0D47E38AE7FEB24055
:1026EC0022444101828003C725009547E319F7FE78
:1026FC00C16703D7C187F91703D5A500630FF7008E
:10270C00EF80515E1745020013058580EF2082098A
:10271C00174502001305458279B7239EA18683D7FE
:10272C00E5001306001903C58180239FF18683D72A
:10273C0005012390F18883D7250189452391F188E0
:10274C00DD47A389F180EF202071096613060690FE
:10275C00A14503C58180EF2020700566130606C8CD
:10276C00914503C58180EF20206F0356E40083550B
:10277C00A400173502001305E57AEF10127149BF5A
:10278C0003C725008D47173502001305A57BE318F9
:10279C00F7F411BF83C5250091476397F5001735F2
:1027AC0002001305A57B01B79947639FF5002285AD
:1027BC008D3D83456400173502001305A572224434
:1027CC00B24041016F10726C9547639AF5008347D4
:1027DC001400F1F7173502001305057AE9B5173522
:1027EC0002001305E579E1BF8280797193970501A9
:1027FC0026D206D622D4C187AE8463D2070A03C57B
:10280C008180EF2040192A8421C9834705001307D2
:10281C00000B6385E7061307000D639CE7028347F3
:10282C00250045476381E70465476394E702034845
:10283C00A500834795000347850083467500034632
:10284C00650083455500173502001305A558EF1098
:10285C00D2632285EF20000D2165258DB2502254C4
:10286C009254456182800346650083457500173597
:10287C00020013052559EF105261E1BF03474500D3
:10288C009307F007E317F7FC835585001735020013
:10289C0013050559A389B180EF10325F5DBF93F723
:1028AC00150085C317060020130606819715002016
:1028BC009385055E03C58180EF80E15C13C5140030
:1028CC0071BF93F72500638D070C1306001989451A
:1028DC0003C58180EF20405883C74188850793F753
:1028EC00F70F2382F1881547B3F7E70202C602C837
:1028FC0002CA02CC02CE09476382E7060D47638603
:10290C00E7060547639DE700170600200356C6BE81
:10291C0097350200938505526800EF10726903C762
:10292C003181D547173502001305855263F3E70251
:10293C00CD47014781464D46ED4503D5C18723134D
:10294C00F100EF7010002AC405E9173502001305D9
:10295C002551EF10326513C5240009B703D6218722
:10296C00973502009385C54D45BF03D60187973532
:10297C0002009385654D4DB7035661006C0097E0DE
:10298C00FF1FE78040054C0003D5C187EF10503A7C
:10299C0009C5ED454800EF709012A247CDFF75B701
:1029AC0093F7850085C383C7818013074006814652
:1029BC0013064006994503D5C187EF80214613C500
:1029CC00840069BD93F705019DC3014789460946FB
:1029DC00814503D5C187EF803133AA8517350200B5
:1029EC001305854AEF10724A13C5040185BD93F790
:1029FC0045000145E38407E603D5C187EF80512EDE
:102A0C000566130606C8914503C58180EF20C044B6
:102A1C0013C54400A1B5797117050000130525DD18
:102A2C0006D622D426D2EF20701993848180994740
:102A3C0005442380A400231AF100100893074006D4
:102A4C00854513055030231CF10023088100EF80CD
:102A5C00417717F6FF1F13066668C54513057030DE
:102A6C00EF8021761386C1809D4513056030EF8081
:102A7C0041755008894513051031EF808174300879
:102A8C00894513052031EF80C173930500050D4571
:102A9C00EF40E077930500051145EF404077854501
:102AAC007945EF40C07630089145130570402304FA
:102ABC008100230681002308810002CC230A010037
:102ACC00EF70C1383000854513050040EF700138B8
:102ADC007000854513051040EF704137500885454F
:102AEC0013052040EF7081361008854513055040C2
:102AFC00EF70C1357D55EF70002D7D55EF90007551
:102B0C00EF10E07A7D55EF10F01417F6FF1F130647
:102B1C00665BD5450145EF70A01989472306F10086
:102B2C008D472308F1009147230AF1009387818692
:102B3C00984383C747003000854501453ACC230EA6
:102B4C00F10023048100EF109016700085450545B7
:102B5C00EF10F015100885450945EF105015500879
:102B6C0085450D45EF10B014300895451145EF1013
:102B7C001014C1671387C187F9171CC323220700E0
:102B8C0013854180EF10D01113854187EF60E1036D
:102B9C0003C504008545EF200014B2502254925412
:102BAC0045618280411117F5FF1F1305654F06C65D
:102BBC00EFF00FFA9305400C17F5FF1F1305454E68
:102BCC00EFF08FFC17F5FF1F1305854DEFF07F809D
:102BDC009305100217F5FF1F1305854CEFF0CFFA84
:102BEC0017F5FF1F1305C54BEFF0AFFE9305100B48
:102BFC0017F5FF1F1305C54AEFF00FF917F5FF1F67
:102C0C001305054AEFF0EFFCB24017F5FF1F130553
:102C1C00254941016FF03F8639715AD02A8B17F53F
:102C2C00FF1F1305E54706DE32C622DC26DA4AD83A
:102C3C004ED652D456D25ECE2E8AEFF06FF193055B
:102C4C00400C17F5FF1F1305A545EFF0EFF317F533
:102C5C00FF1F1305E544EFF0CFF79305C00E17F5F2
:102C6C00FF1F1305E543EFF02FF217F5FF1F1305B8
:102C7C002543EFF00FF6954517F5FF1F1305454259
:102C8C00EFF08FF017F5FF1F13058541EFF06FF490
:102C9C00054597E0FF1FE780C08D17F5FF1F130553
:102CAC002540EFF0EFEA9305500C17F5FF1F1305C5
:102CBC00253FEFF06FED17F5FF1F1305653EEFF0A5
:102CCC004FF117F5FF1F1305A53DEFF06FF6854586
:102CDC002A8917F5FF1F1305A53CEFF00FFC17F51C
:102CEC00FF1F1305E53BEFF0AFF4AA8B854517F5F5
:102CFC00FF1F1305E53AEFF04FFA17F5FF1F130509
:102D0C00253AEFF0EFF2854517F5FF1F130545390E
:102D1C00EFF0AFF817F5FF1F13058538EFF04FF103
:102D2C00AA84854517F5FF1F13058537EFF0EFF6DD
:102D3C0017F5FF1F1305C536EFF08FEFAA8A8545EF
:102D4C0017F5FF1F1305C535EFF02FF517F5FF1F0E
:102D5C0013050535EFF0CFED854517F5FF1F13056E
:102D6C002534EFF08FF317F5FF1F13056533EFF0E4
:102D7C002FEC2A84854517F5FF1F13056532EFF0FC
:102D8C00CFF117F5FF1F1305A531EFF06FEAAA89F4
:102D9C00854517F5FF1F1305A530EFF00FF017F55C
:102DAC00FF1F1305E52FEFF0AFE8854517F5FF1F63
:102DBC001305052FEFF06FEE854517F5FF1F130573
:102DCC00252EEFF08FED17F5FF1F1305652DEFF096
:102DDC002FE6814517F5FF1F1305852CEFF0EFEB60
:102DEC0017F5FF1F1305C52BEFF0EFE813958400C3
:102DFC0033655501220933697901420523102B01F2
:102E0C004181EF10E268973702009387A71B8C4330
:102E1C00973402009384441BEF10A2008C40EF10F7
:102E2C004200973702009387671A8C43EF10622891
:102E3C00EF10A2602310AA0013158400336535012E
:102E4C0042054181EF10C2649737020093874718FF
:102E5C008C43EF00127D8C40EF00B27CEF10E25DF2
:102E6C003246F25062542310A600D2544259B25941
:102E7C00225A925A025BF24B21618280411117F562
:102E8C00FF1F1305E52106C6EFF08FCC9305400C10
:102E9C0017F5FF1F1305C520EFF00FCF17F5FF1F18
:102EAC0013050520EFF0EFD29305F00317F5FF1F84
:102EBC001305051FEFF04FCD17F5FF1F1305451E2A
:102ECC00EFF02FD19305600817F5FF1F1305451D73
:102EDC00EFF08FCB17F5FF1F1305851CEFF06FCFAD
:102EEC00B24017F5FF1F1305A51B41016FF0AFD8BA
:102EFC00411126C2AA8417F5FF1F1305651A06C6D1
:102F0C0022C44AC0EFF0CFC49305400C17F5FF1F45
:102F1C0013050519EFF04FC717F5FF1F13054518DB
:102F2C00EFF02FCB9305400E17F5FF1F1305451738
:102F3C00EFF08FC517F5FF1F13058516EFF06FC95E
:102F4C009305800B17F5FF1F13058515EFF0CFC305
:102F5C0017F5FF1F1305C514EFF0AFC7054597D044
:102F6C00FF1FE780006117F5FF1F13056513EFF0D6
:102F7C002FBE9305500C17F5FF1F13056512EFF0CC
:102F8C00AFC017F5FF1F1305A511EFF08FC417F590
:102F9C00FF1F1305E510EFF0AFC985452A8417F51F
:102FAC00FF1F1305E50FEFF04FCF17F5FF1F1305AC
:102FBC00250FEFF0EFC72A89854517F5FF1F13057D
:102FCC00250EEFF08FCD17F5FF1F1305650DEFF0F4
:102FDC002FC6814517F5FF1F1305850C2204EFF052
:102FEC00CFCB3364240117F5FF1F1305650B137446
:102FFC00F47FEFF04FC83334800023808400B2405C
:10300C0022449244024941018280411117F5FF1F6D
:10301C001305050906C6EFF0AFB39305400C17F581
:10302C00FF1F1305E507EFF02FB617F5FF1F13056C
:10303C002507EFF00FBA9305600317F5FF1F130573
:10304C002506EFF06FB417F5FF1F13056505EFF0BC
:10305C004FB89305600417F5FF1F13056504EFF0D7
:10306C00AFB217F5FF1F1305A503EFF08FB6B240F3
:10307C0017F5FF1F1305C50241016FF0CFBF0111FA
:10308C009397050122CC06CEC1872E8463DF0700FF
:10309C0003C54181EF10301019C1EF10B008216544
:1030AC00218DF24062440561828093F7250091CB1B
:1030BC002146894503C54181EF10105A1345240060
:1030CC00CDB793F74500A1CF1305F100A30701007D
:1030DC0005358347F1008DCB1386018793852187B6
:1030EC0017F5FF1F13054541EFF01FB383D601877A
:1030FC0003D6218797F5FF1F83D5054017350200AE
:10310C00130545EDEF1062580966130606F4914558
:10311C0003C54181EF1050541345440059B793F740
:10312C00850099CB13060064A14503C54181EF10BE
:10313C00B05213458400B5B793F7050199CB13062C
:10314C00000AC14503C54181EF101051134504011C
:10315C0089BF93F705020145A9D7414693050002A3
:10316C0003C54181EF10504F134504021DBF41119F
:10317C00170500001305E5F006C622C4EF20002455
:10318C001384418113060064A1452300A400EF10B1
:10319C00B04C034504002244B2400966130606F401
:1031AC00914541016F10504BB717004003C777058D
:1031BC001377E70FA38BE704130700F8A38DE7043D
:1031CC003D47238CE70413075003A38CE70482804C
:1031DC00B717004083C7E7020D8993F7C70FC98F54
:1031EC0073270080218B9386818809CB73270080FD
:1031FC0023A4E18898425D9B7310078001000100B5
:10320C0037170040130670052300C704130680FA15
:10321C002300C704010001002307F7022300070461
:10322C00732700809C42A18BD98F7390078023A4B5
:10323C00018801000100828041112A83014E930E06
:10324C00407E130F0019930F400663E66E1493082B
:10325C00001913034006B3781503854E0D4FA14F8B
:10326C00337365020D891335150063E0BE16130820
:10327C00F6FF794672984208135808013307C702C3
:10328C0013D61700BE0732976146B3F6C602130673
:10329C008070B386C6023697A166F58F42075D8FA4
:1032AC00B716004083C7F60293F70708A307F1008F
:1032BC000346F10083C7F60293F70708E394C7FEB1
:1032CC008347F100B716004093F7F70F6389071493
:1032DC00F3270080A18B93868188639807140100E3
:1032EC000100B7170040130670052380C7041306AE
:1032FC0080FA2380C7040100010023AA070303C638
:10330C00170313660608A388C702238007047326D5
:10331C0000809C42A18BD18F7390078023A40188DD
:10332C00010001001166B71500407D16DC59C85D1F
:10333C00A98FF18FE5FFF3270080A18B89CBF327B1
:10334C00008023A4F1889C42DD9B739007800100D0
:10335C000100B7170040130670052380C70413063D
:10336C0080FA2380C70401000100D8DB03C71703D0
:10337C0013670704A388E7022380070473270080E0
:10338C009C42A18BD98F7390078023A401880100E4
:10339C000100410182807D133368E3039308E0163A
:1033AC00630E08003368F3039308D0166308080013
:1033BC009378330093B818009388D81633081E01FD
:1033CC00131E0801135E0E0149B56393E50305480E
:1033DC00638608000148630303002A887108729809
:1033EC00FD15131E0801C205135E0E01C181B5BD8A
:1033FC0013F8150063F4BF007908D5B7133818001B
:10340C00E5BF83C7F60293F70708A307F10003464D
:10341C00F10083C7F60293F70708E394C7FE8347CE
:10342C00F10093F7F70FF1DF65B5F327008023A4C4
:10343C00F1889C42DD9B7390078055B55971E2C4AD
:10344C0086D6A2D4A6D2CAD0CECED2CCD6CADAC810
:10345C00DEC6E6C2EAC06EDE2A8C02D6EF007034FD
:10346C00F3270080A18B138D818891CBF3270080EB
:10347C0023A4F18883270D00DD9B73900780010046
:10348C000100B7170040130770052380E7041307EA
:10349C0080FA2380E7040100010003C7F7021377C9
:1034AC00770FA387E70203C7F70213678700A38789
:1034BC00E702238007047327008083270D00A18B6C
:1034CC00D98F7390078023A4018801000100F32792
:1034DC000080A18B91CBF327008023A4F188832754
:1034EC000D00DD9B7390078001000100B7170040B1
:1034FC00130770052380E704130780FA2380E70481
:10350C000100010003C7E7021377C70F2387E70207
:10351C0003C7E702136717002387E702238007041A
:10352C007327008083270D00A18BD98F73900780A0
:10353C0023A4018801000100130780C13347E50271
:10354C009169938709E8130650023D69B7440F004F
:10355C0093840424856B130BA004014A814A130441
:10356C007005FD19B347F5023307C7023EC2930736
:10357C0009A61309803E3347F7023AC433472503A3
:10358C000549331989011359394033459502938400
:10359C000BFAB3948401811B3306C702B346F602BF
:1035AC003309E90236C6330B670313076055B304BE
:1035BC009502130500103309E902B346FB02130B05
:1035CC0080FAB3C4A40236C8B347F9029396340008
:1035DC003719004036CC930409043ECA7326008088
:1035EC00218A11CA7326008023A4C18803260D00EA
:1035FC005D9A73100680010001009307700523800B
:10360C00F4002380640101000100034639051376A0
:10361C00860FA309C9040346390513661600A309CE
:10362C00C904238004007325008003260D00218A21
:10363C00498E7310068023A4018801000100916C4F
:10364C00E17D73260080218A11CA7326008023A491
:10365C00C18803260D005D9A7310068001000100DD
:10366C00930770052380F40023806401010001009E
:10367C000346390513660602A309C9040356090556
:10368C00336696012318C904035609053366B6013F
:10369C00420641822318C90423800400732500804C
:1036AC0003260D00218A498E7310068023A40188FD
:1036BC00010001000346390513760602630706165E
:1036CC0003463905218A6DDE6810EF00B0117326B0
:1036DC000080218A11CA7326008023A4C188032686
:1036EC000D005D9A73100680010001002380840098
:1036FC002380640101000100034639051376F60DA1
:10370C00A309C9040346390513660602A309C904B3
:10371C0003560905336696012318C9040356090597
:10372C003366B601420641822318C9042380040083
:10373C007325008003260D00218A498E73100680A4
:10374C0023A4018801000100034639051376060203
:10375C006309061003463905218A6DFE97D0FF1FB9
:10376C00E78060932A8632CE97D0FF1FE780A09225
:10377C007246E30AC5FE03560905325533669601B7
:10378C002318C904EF00D00703463905218A6DDEE2
:10379C000355090503462905924733F5A9003386DD
:1037AC00C90232951D8DA24763D5A700B247634667
:1037BC00F50E09466365560FC247850A13161500A8
:1037CC0093FAFA0F3346F6026354A03A05060945FC
:1037DC003346A60273250080218911C97325008008
:1037EC0023A4A18803250D005D99731005800100A9
:1037FC000100238084002380640101000100035533
:10380C00C9022A96420641822316C902238004006B
:10381C007325008003260D00218A498E73100680C3
:10382C0023A401880100010029BD73260080218A90
:10383C0011CA7326008023A4C18803260D005D9A4B
:10384C007310068001000100238084002380640132
:10385C00010001000346390513660602A309C904D9
:10386C0025BD73260080218A11CA7326008023A4EB
:10387C00C18803260D005D9A7310068001000100BB
:10388C002380840023806401010001000346390574
:10389C0013660602A309C90451BDE38F0AF073260F
:1038AC000080218A11CA7326008023A4C1880326B4
:1038BC000D005D9A731006800100010023808400C6
:1038CC002380640101000100034639051375FC0FC8
:1038DC001376860FA309C90403463905498EA3093B
:1038EC00C904238004007328008003260D00218A5C
:1038FC00336606017310068023A4018801000100C1
:10390C00034639051D8A6317862773260080218A92
:10391C0011CA7326008023A4C18803260D005D9A6A
:10392C007310068001000100238084002380640151
:10393C00010001000346390511651376F60DA30944
:10394C00C9040346390513660602A309C9040356C4
:10395C000905498E2318C904035609052165498EAA
:10396C002318C904238004007325008003260D004E
:10397C00218A498E7310068023A40188010001005E
:10398C000346390513760602630E062003463905F5
:10399C00218A6DDE6810B92573260080218A11CA30
:1039AC007326008023A4C18803260D005D9A731032
:1039BC000680010001002380840023806401010043
:1039CC0001000346390511651376F60DA309C904E8
:1039DC000346390513660602A309C90403560905F3
:1039EC00498E2318C904035609052165498E2318ED
:1039FC00C904238004007325008003260D00218A4E
:103A0C00498E7310068023A401880100010003462F
:103A1C003905137606026303061C03463905218A11
:103A2C006DFE97C0FF1FE7800067AA8C97C0FF1F31
:103A3C00E7806066E30C95FF035609051165498E16
:103A4C0032552318C9046D2B03463905218A6DDEC6
:103A5C0073260080218A1385818809CA7326008009
:103A6C0023A4C18810415D9A7310068001000100E7
:103A7C002380840023806401010001000346390582
:103A8C001376F60DA309C904238004007328008063
:103A9C001041218A336606017310068023A4018825
:103AAC00010001000358090503462905E24733F8D4
:103ABC0009013386C90232983308F8401306800C8A
:103ACC003306C802D2473346F60263550015050685
:103ADC000948334606036351C0140358C9029308BE
:103AEC00F00F13585800329863D6081F09466373B9
:103AFC004619F3270080A18B89CBF327008023A4E0
:103B0C00F1881C41DD9B7390078001000100371781
:103B1C000040930770052300F704930780FA2300F5
:103B2C00F704010001008356C70289678117D58FFE
:103B3C00C207C1832316F7022300070473270080F2
:103B4C001C41A18BD98F7390078023A4018801009D
:103B5C000100B650265496540659F649664AD64A80
:103B6C00464BB64B264C964C064DF25D65618280F9
:103B7C007D16B1B973260080218A11CA7326008084
:103B8C0023A4C18803260D005D9A731006800100E2
:103B9C00010023808400238064010100010003469E
:103BAC0039052DBB73260080218A11CA732600802B
:103BBC0023A4C18803260D005D9A731006800100B2
:103BCC00010023808400238064010100010003466E
:103BDC00390513660602A309C90469B3732600806C
:103BEC00218A11CA7326008023A4C18803260D00E4
:103BFC005D9A7310068001000100238084002380ED
:103C0C006401010001000346390513660602A3098D
:103C1C00C904C5B37D166DBD55CE0358C902B30892
:103C2C00C040135858006357180B09466374460577
:103C3C00F3270080A18B89CBF327008023A4F18884
:103C4C001C41DD9B7390078001000100B7170040F9
:103C5C00130770052380E704130780FA2380E70419
:103C6C000100010003D7C7027D8B2396E702238056
:103C7C000704E9B573260080218A09CA73260080DF
:103C8C0023A4C18810415D9A7310068001000100C5
:103C9C002380840023806401010001000356C902C3
:103CAC001376F60F33667601420641822316C9025B
:103CBC0023800400732800801041218A336606019A
:103CCC007310068023A4018801000100050A137AF1
:103CDC00FA0F29B2F3270080A18B89CBF327008040
:103CEC0023A4F1881C41DD9B739007800100010027
:103CFC00B7170040130770052380E704130780FAF9
:103D0C002380E7040100010003D7C70216063A9688
:103D1C00420641822396C70299BF914763EEB702D0
:103D2C00172702001307472C8A05BA959C41BA97AE
:103D3C008287B717004003A7470B1345F5FF698F20
:103D4C0023AAE70A03A7070B698F23A8E70A03A78F
:103D5C00070A798D23A0A70A8280B717004083A693
:103D6C00470B1347F5FFF98E23AAD70A83A6070B37
:103D7C00558D23A8A70A83A6070A758F23A0E70AE7
:103D8C008280B717004003A7470B498F23AAE70A85
:103D9C0003A7070B1345F5FF45BFB717004083A6D4
:103DAC00470B1347F5FF758F23AAE70A03A7070AEA
:103DBC00598D4DB7B717004003A7470B498FEDB787
:103DCC00914763EEB70217270200130727238A05D2
:103DDC00BA959C41BA978287B717004003A7470D45
:103DEC001345F5FF698F23AAE70C03A7070D698F0D
:103DFC0023A8E70C03A7070C798D23A0A70C8280BE
:103E0C00B717004083A6470D1347F5FFF98E23AA79
:103E1C00D70C83A6070D558D23A8A70C83A6070CDA
:103E2C00758F23A0E70C8280B717004003A7470DBE
:103E3C00498F23AAE70C03A7070D1345F5FF45BFD0
:103E4C00B717004083A6470D1347F5FF758F23AABC
:103E5C00E70C03A7070C598D4DB7B717004003A704
:103E6C00470D498FEDB7411122C43717004006C6E4
:103E7C0083472702035707021384818893F7F70FB0
:103E8C004207418325E91377F79F420793F7F7071A
:103E9C004183F3260080A18A89CAF326008023A4DB
:103EAC00D1881440DD9A7390068001000100B7168A
:103EBC000040130670052380C604130680FA238085
:103ECC00C6040100010093F7F70F2381F60223903B
:103EDC00E60223800604732700801C40A18BD98F37
:103EEC007390078023A4018801000100B240224492
:103EFC004101828093E7070813670740F32600808F
:103F0C00A18A89CAF326008023A4D1881440DD9AA3
:103F1C007390068001000100B7160040130670056F
:103F2C002380C604130680FA2380C6040100010016
:103F3C002381F6022390E602238006047327008077
:103F4C001C40A18BD98F7390078023A4018801009A
:103F5C000100294597C0FF1FE780C060F327008050
:103F6C00A18B89CBF327008023A4F1881C40DD9B17
:103F7C007390078001000100B7170040130770050C
:103F8C002380E704130780FA2380E7040100010073
:103F9C0003D70702136707202390E7022380070447
:103FAC001DBFB717004003D58700420541819377A9
:103FBC00050491EB9377F5013755E801130505805E
:103FCC003345F50282809377050C13070004639741
:103FDC00E7009377F50137459C1CCDB72165130598
:103FEC0005D0828037E700E01C435443A183E206EE
:103FFC00D58F1CC1FD572320F7182322F718828078
:10400C0013178500B7E700E023A0E710618123A216
:10401C00A7108280B7F700E08847CC4782808147A1
:10402C0037370040A14663C4C70032858280034500
:10403C00B740E38EA6FE3385F500034505008507E2
:10404C002304A740CDB7938781819C431707002099
:10405C00130787303E95636CE50017470020130764
:10406C00A7D96366A70023ACA1803E858280FD574B
:10407C00EDBF411122C406C62A8425372947B30750
:10408C00E502B2408D83B3D7870222449507B3D79C
:10409C00E70237370040C207C1832316F7404101BE
:1040AC008280716541111305052006C6D937B737D3
:1040BC000040130770F82381E7400D47A381E740C8
:1040CC0013070004A380E74005472387E740B2406D
:1040DC004101828037370040834727401A0593F708
:1040EC00F703C98F93F7F70F2301F7408280B73797
:1040FC00004003C7174019C9D98DA380B74003C727
:10410C000740136787002380E740828093C5F5FF43
:10411C00F98DA380B7408280CC41411106C632850F
:10412C0003C6150083C5050022064D8E42068D651B
:10413C004186138875A2630C060F6348C804138864
:10414C0045A26306060B634AC800938535A2630932
:10415C00B60623900600294679A0138855A2630859
:10416C00060B938565A2E316B6FEC1451D4663ECAE
:10417C00E5064546198E63F3C7003E862390C600BC
:10418C00972502009385C5E989A8138895A2630039
:10419C00060F634E060B1388A5A2630A060F9385C0
:1041AC0005A5E318B6FA99451D4663EEE502198E8E
:1041BC0063F3C7003E862390C6009385418231A8E5
:1041CC009D451D4663E1E5022146198E63F3C70048
:1041DC003E862390C6009385C188BA9597C0FF1F71
:1041EC00E780607F0146B240328541018280AD4557
:1041FC001D46E3EAE5FE3146198E63F3C7003E86A1
:10420C002390C60097250200938545E5F9B7B14583
:10421C001D46E3EAE5FC3546198E63F3C7003E867E
:10422C002390C60097250200938545E47DB7C145D0
:10423C001D46E3EAE5FA4546198E63F3C7003E8650
:10424C002390C600972502009385C5DE79B7C1453A
:10425C001D46E3EAE5F84546198E63F3C7003E8632
:10426C002390C60097250200938545E1BDB7C14553
:10427C001D46E3EAE5F64546198E63F3C7003E8614
:10428C002390C60097250200938505DCB9B7B54588
:10429C001D46E3EAE5F43946198E63F3C7003E8602
:1042AC002390C60097250200938585D63DB797E6E7
:1042BC00FF1F9386E6F64146CD4517E5FF1F130514
:1042CC0025E36F70F0702D453DEF03C505000947E0
:1042DC006317E5063285D041411106C60347160027
:1042EC000346060041682207518F130628FE630817
:1042FC00C7026369E60005186303070323900600F1
:10430C0029451DA8130648FE630BC7001518E317B3
:10431C0007FF15473E866377F700154621A03E86BA
:10432C0091C30546CC452390C6004206418297C0F6
:10433C00FF1FE780406A0145B24041018280239013
:10434C00060005458280828083C7850093F70702AB
:10435C00E1E3411106C622C426C24AC003C90500C6
:10436C0009432E888547631B690203A345003284E9
:10437C00B6848347130003430300A207B3E7670027
:10438C004163130E13FE6382C7030D13638B670423
:10439C000D681308289063850707A947B24022448B
:1043AC00924402493E8541018280AD4765FB054739
:1043BC00B547E365D7FE0325C8000546A28597C01F
:1043CC00FF1FE780406101499387018B9843814728
:1043DC0071D7184361D72686A2854A8502978147F3
:1043EC0075BFAD4745FF0547B547E369D7FA0325C8
:1043FC00C8000546A28597C0FF1FE780C05DE9B7DE
:10440C002244B24092440249854741016F60401EEC
:10441C00A1473E85828041677917630CE502411103
:10442C0022C406C685472A84639AF5002285224455
:10443C00B2409385418A41016F70706489476396DD
:10444C00F5008545EFA0601F75D1B24022444101B3
:10445C0082808280411122C42A8441659385418ADD
:10446C007D1506C6EF70B061170500001305E5FA5F
:10447C000588EFA0C01305C02244B24097E6FF1F89
:10448C009386C6EB4146C54517E5FF1F130505DAB4
:10449C0041016F70F053B2402244014541018280CA
:1044AC0009C523A8A18A0145828045458280114710
:1044BC00636EA70697260200938686BD0A0536957D
:1044CC001841411106C63697AE87B285028705475B
:1044DC006145639AE70005461385418997C0FF1F24
:1044EC00E780604F0145B24041018280054761453C
:1044FC00E39BE7FE054613858189CDB705476145EA
:10450C00E393E7FE05461385C189C9BF054761459D
:10451C00E39BE7FC05461385018AC9B7154761453E
:10452C00E393E7FC15461385818A4DBF09458280CC
:10453C00411122C42E849385418A26C206C6AA84C0
:10454C00EF60C005058915C197E7FF1F938707CE5C
:10455C0083D7A70BA285B2402310F40022442685F2
:10456C009244014641016F605060B2402244924433
:10457C0049454101828011456FE05FEC41119396F2
:10458C002500AA852D4506C697C0FF1FE780000EA3
:10459C00B240014541018280411126C2939425000D
:1045AC0022C44AC02A843289A686AA85014625459A
:1045BC0006C697C0FF1FE780600BA6864A86A285B9
:1045CC00294597C0FF1FE780600AB24022449244FD
:1045DC000249014541018280011122CC06CE3714DB
:1045EC00004026CA4AC84EC652C483447405034AC6
:1045FC00B4058349840503499405EFE0FFBA83476A
:10460C00A40593F4F40F137AFA0F93E71700230D14
:10461C00F40493F9F90F1379F90FB717004003C796
:10462C00A705058B6DFF03D5C705A38D4705238C07
:10463C003705A38C2705A38B9704F2406244D24420
:10464C004249B249224A0561828041119397050182
:10465C0022C406C6C1872E8463DB07002D2E11C130
:10466C00D1242165218DB24022444101828093F7EF
:10467C00150013C51500E5FB9397250163D00702C0
:10468C00EF00D179CD3D37F60200130606E08965BF
:10469C0003C5418BEF00407C0965E9B79397150181
:1046AC000145E3D207FC17250200130525A4EF00F2
:1046BC00620F13060064916503C5418BEF00C0794E
:1046CC0011654DB71D714946972502009385859D4F
:1046DC0017250200130505C686CE97C0FF1FE7807D
:1046EC00803801E9172502001305059DEF00820BA8
:1046FC0001A0B7F600E0795798CAFD57DCCA0567E8
:10470C00B7E700E023A0E7101306F00290C223A045
:10471C00E718010001001306C0038145480897C043
:10472C00FF1FE780C02E97E7FF1F938767F63ECAEF
:10473C00896793870780231CF100B5472304F10296
:10474C00A167938707E03ECEB70701059387071053
:10475C003ED0ED472312F10285472303F102970760
:10476C0000009387E7E1BEC497070000938707E337
:10477C00BEC68567938717D02315F10297070000F3
:10478C00938787893EDAB7F5070097070000938770
:10479C00E7E43EDE814697070000938707DE700052
:1047AC00E1051945BEC097C0FF1FE78020EC5808F3
:1047BC008147994670003E9603460600850705071B
:1047CC00A30CC700E398D7FED24791C703578101CA
:1047DC0085676373F70001A04808EF00F041AA85D4
:1047EC0001C9172502001305658EEFF0116A01A0AF
:1047FC00F64025618280411117050000130525E55F
:10480C0006C622C4EF00903B1384418B2300A40006
:10481C001128034504002244B24013060032896576
:10482C0041011DAD411106C6F3270080A18B1387F2
:10483C00818889CBF327008023A4F1881C43DD9B5E
:10484C007390078001000100B717004093067005B4
:10485C002380D704930680FA2380D704010001003B
:10486C0083C6F70293F6A60FA387D702238007040B
:10487C00F32600801C43A18BD58F7390078023A453
:10488C00018801000100F3270080A18B89CBF3275D
:10489C00008023A4F1881C43DD9B739007800100EA
:1048AC000100B7170040930670052380D7049306C8
:1048BC0080FA2380D7040100010083C6F70293E637
:1048CC002600A387D70223800704F32600801C430D
:1048DC00A18BD58F7390078023A401880100010060
:1048EC000545EFE0FF8EEFF01FC91305407E8147B1
:1048FC000147814605468545EFE01F94B2400145CE
:10490C0041016F00306423AC05FE1C4191E70100AE
:10491C0001000CC18280BA8703A787FF6DFF23AC0F
:10492C00B7FE82801DC18346E5FF1307F00F914748
:10493C00639EE600411106C697D0FF1FE780C0F4C6
:10494C00B24081473E854101828095473E858280F9
:10495C0001E9014582800145B24022444101828037
:10496C0095654111938505D022C4C98D2A842105F2
:10497C00C2054205C181418106C697D0FF1FE78061
:10498C0080E371D9FD5723200500231285002303F2
:10499C00F5002105D1B717F7FF1F1307E7541C4388
:1049AC00411122C426C24AC006C601440149BA8438
:1049BC0089E7A165E1251DC401A803C7E7FF631AB8
:1049CC00A7020DCCA165012E9840832784FF6319A3
:1049DC00E40217F7FF1F2329F750FD57232C04FE81
:1049EC00230FF4FE2285B240224492440249410135
:1049FC00828011E03E8983A787FF5DBF3E84E5BFBF
:104A0C00232CF9FED9BFB1CD411122C406C62A848C
:104A1C0097F7FF1F83C7974D2E856375F400894761
:104A2C0063E8870001370D45B24022444101828082
:104A3C0083A785FF99E703C7E5FF9307F00F63058D
:104A4C00F700CD351545CDB7238F85FE17F5FF1F24
:104A5C00130585494D3D22852244B240A165410193
:104A6C009DAC1545828097F7FF1F23AF07468280C8
:104A7C0097F7FF1F9387C74C9C4399E33E85828031
:104A8C0003D727006316B70003C70700E308A7FE88
:104A9C00DC47E5B7C9C1797122D406D626D24AD0F3
:104AAC004ECE01444147B3D78540858BA5C3120533
:104ABC00314722953305E50297F7FF1F9387474C43
:104ACC0003A907008544B3948400C204C180BE8945
:104ADC002A990327090011C7032549002EC60297FE
:104AEC00B24531473304E40283A709003E941C44C9
:104AFC0089E72320090023220900B2502254A58DF6
:104B0C0002599254F2492E85456182800504E31CBA
:104B1C00E4F88144DDB72E8582804111139705019D
:104B2C0022C406C626C24AC041872E84635E070093
:104B3C009D3511C1C53BA1673D8C2285B2402244F5
:104B4C009244024941018280EDD9AA87014741462E
:104B5C00B356E440858A8DCE9207BA97B146B38797
:104B6C00D70297F6FF1F9386A64103A9060085443A
:104B7C00B394E400C204C1803E9983270900032545
:104B8C00490082972320090023220900258C75B740
:104B9C000507E31FC7FA8144D5BF97F7FF1F93871B
:104BAC00673A9C53411122C406C61384418399C7AA
:104BBC0082971C403E9523AAA18239A097F7FF1F2C
:104BCC00938787379C43EDF70840B74703009387DB
:104BDC00D73F3305F502B7A72600938737ECB240D1
:104BEC0022443E9523AAA182410182807DC197F780
:104BFC00FF1F938767349C43797122D426D24AD005
:104C0C004ECE52CC56CA5AC806D65EC63A8AB68919
:104C1C00328BAE8A2A89829797F7FF1F9387473684
:104C2C009843BE840144B146C147B30BD40233064A
:104C3C007701104251EAC165938505F0414597D043
:104C4C00FF1FE78040B71DE597F7FF1F9387872F5E
:104C5C009C5B2D4589C71145814582972D45B250E6
:104C6C00225492540259F249624AD24A424BB24BF4
:104C7C004561828097F7FF1F9387872C984329E320
:104C8C0097F7FF1F23AEA72A230005009C4005477A
:104C9C003317870023260500232465012311E50023
:104CAC0023224501DE9723A0270123A2570123A429
:104CBC0047010145E38509FA238089004DB73E87FA
:104CCC005C47F5FF48C7C9B70504E310F4F6214566
:104CDC0079B70945828097F7FF1F83C73721637126
:104CEC00F50217F7FF1F13076725931715000843E5
:104CFC003E9583570500DD8D2310B500014582805C
:104D0C000D45828097F7FF1F83C7571E6373F5020B
:104D1C0017F7FF1F1307872293171500084393C536
:104D2C00F5FF3E9583570500FD8D2310B500014519
:104D3C0082800D458280130705FF1377F70FFD471F
:104D4C0063E9E70AB146B306D50297F7FF1F9387CD
:104D5C002723984389473697184349CF011122CC12
:104D6C004EC60544935945003D893315A4001314D0
:104D7C000501418026CA4E85AE84A2854AC806CE5E
:104D8C00C5392A89814731CDA2854E85A53F97F734
:104D9C00FF1F9387671A9C43829797F7FF1F83D750
:104DAC00271F338797022A84814613060064B3B702
:104DBC00970213050732B335E500BE95EFE0F14CD1
:104DCC00B307850097F6FF1F9386061C3E87D442D7
:104DDC0063E4A70063E4D7003387D7402324E900BA
:104DEC008147F2406244D2444249B2493E85056152
:104DFC00828089473E858280011126CA06CE22CC4C
:104E0C004AC84EC6BD47894463E0A70431473307FF
:104E1C00E50297F7FF1F9387A7169C438944BA971F
:104E2C009C439DC305443314A400420441802E8945
:104E3C000145A285EFF0DFC3AA89814411C5A28583
:104E4C000145C93523A42901F24062442685424913
:104E5C00D244B2490561828097F7FF1F83C71709B7
:104E6C006364F50001458280011197F7FF1F93875A
:104E7C00A70C56C283AA070006CE22CC26CA4AC863
:104E8C004EC652C4638E0A0A17FAFF1F130ACA0FC2
:104E9C0083244A00B74736FE938707C8AE8997F537
:104EAC00FF1F83D5E50EBE94B387C5022A843289D1
:104EBC008146B3B5C50213850732B337F500130627
:104ECC000064BE95EFE0713C63ECA406829A97F502
:104EDC00FF1F83D5E50BB3872503AA841306006453
:104EEC008146B3B5250313850732B337F500BE955C
:104EFC00EFE0B139B3079500BE8403274A0063E4A1
:104F0C00A70063E4E700B384E740CE852285EFF089
:104F1C003FB601C504C505452DA0936504F0C20537
:104F2C00C181414597D0FF1FE780E08805E597F7E1
:104F3C00FF1F938727019C5B81C7A2851145829730
:104F4C000145F2406244D2444249B249224A924A53
:104F5C000561828097F7FF1F938787FE9C439DE333
:104F6C0097F7FF1F23AEA7FC85472326050004C532
:104F7C002311350123008500A300F5002322050031
:104F8C0059BFBA87D84775FFC8C7F9BF59C97971D6
:104F9C0022D426D24AD04ECE52CC56CA5EC662C459
:104FAC0066C206D65AC83689328AAE89AA8441446A
:104FBC00314C97FAFF1F938AAAFC854C930B000384
:104FCC00330B840303A70A005A971C43B1E793756C
:104FDC00F400B395BC0013554440C2055286C18100
:104FEC001375F50F953D0DC983A70A000145DA9796
:104FFC0084C323A237016304090023008900B25043
:10500C00225492540259F249624AD24A424BB24B50
:10501C00224C924C456182800504E31374FB2145BC
:10502C00F9BF09458280411122C426C24AC006C676
:10503C002A842E89B2840D35CA852285EFF05FA3B0
:10504C0005CD97F5FF1F83D5A5F4B38795022A8468
:10505C00130600648146B3B5950213850732B33746
:10506C00F500BE95EFE0712248C00145B2402244E4
:10507C0092440249410182802145CDBF411122C495
:10508C0026C24AC006C62A892E84EFF07F9EAA84C7
:10509C0019C123110500A2854A85EFF0BFC697F709
:1050AC00FF1F83C7A7E4639B270197F7FF1F83D7D5
:1050BC0067E85D8C97F7FF1F239E87E6014591E01B
:1050CC001945B2402244924402494101828093071F
:1050DC00F00263E8A7044111B14722C43304F5027E
:1050EC0026C297F4FF1F9384A4E99C4006C6A2979E
:1050FC00984389470DC39377F5008545B395F50023
:10510C00C205C18111819D3F9C40A29723A007003D
:10511C0023A207008147B240224492443E854101BC
:10512C00828089473E858280411106C622C4EFF0F9
:10513C003F9411E50145B24022444101828097F72A
:10514C00FF1F938767DF9C430045829797F7FF1FEC
:10515C00938787E36368A402D843B74636FE9386E9
:10516C0006C83305A4403697E376E5FC13070064C4
:10517C00B335E50203D6870081463305E502EFE03F
:10518C00D11055BFD8433A94C1BF411122C426C295
:10519C0017F4FF1F130444DF97F4FF1F938404D507
:1051AC009448584097F7FF1F938707D906C69C432E
:1051BC006393E60882975440B74736FE938707C837
:1051CC00B6973387A7003A856364F7006364D7000A
:1051DC003305D74097F4FF1F938404F49C4C81CF84
:1051EC0097F7FF1F938747FA94433707CDFF7D1737
:1051FC009C46F98F9CC611E1484097F7FF1F938797
:10520C0067D4DC53829719E59C4C8DC3EF00815712
:10521C00EFF0703A9C4C99CB97F7FF1F9387C7F62A
:10522C009843B70633001C47D58F1CC7B2402244A5
:10523C009244410182808297984897F7FF1F83C759
:10524C00B7D154401D8FB307A7003E8563E4E70038
:10525C00E3E2D7F83385D740B5BF411106C697F7BF
:10526C00FF1F23A1A7D20295B24097F7FF1F23ABD4
:10527C00A7C8014541018280994763E9B7008A05B7
:10528C0097F7FF1F938747C9BE9588C1828041114C
:10529C007146814517F5FF1F130505C806C697F71C
:1052AC00FF1F23AF07C897F7FF1F23AD07CC97F756
:1052BC00FF1F23A307C897B0FF1FE7804075130695
:1052CC008002814517F5FF1F130545C297B0FF1FDC
:1052DC00E780E073EF60412D97F7FF1F83C7F7C797
:1052EC0013D527008D8B3E958D473305F5028545EB
:1052FC0039051375F50F97F7FF1F238AA7BE99473A
:10530C003305F5021305052497C0FF1FE780A04A5B
:10531C0017F7FF1F2326A7C659CD994717F6FF1F6E
:10532C000346E6BC3306F60281451306062497B005
:10533C00FF1FE780C06D97F7FF1F938767C49C43DF
:10534C009387072417F7FF1F2326F7BC17F7FF1FB8
:10535C000347E7B90A07BA9717F7FF1F2320F7BED1
:10536C00EFF06FF00D2B97F7FF1F9387A7BA9443BD
:10537C0097F7FF1F83C797B713972700369717F632
:10538C00FFFF1306667110C3138717001377F70F0F
:10539C000A07369717F6FFFF1306667810C31387B4
:1053AC003700890793F7F70F8A0797F5FF1FA38F2D
:1053BC00E5B2B69790C3B2404101828097F7FF1FC8
:1053CC0083C7D7B217F7FF1F034767B263F3E70230
:1053DC0017F7FF1F130707B418439386170017F628
:1053EC00FF1FA305D6B093962700369708C33E85BA
:1053FC0082809307F00FE5BF1C41638B0716417742
:10540C007D8FB706002089476315D71603574500D3
:10541C0063010716411122C419462A849305F00F23
:10542C00690506C697B0FF1FE780806805478D4762
:10543C00630BE5121C4481CB58589947630507123E
:10544C00185C630207121306C003814517F5FF1F92
:10545C00130545AF97B0FF1FE780605B1306C003D1
:10546C00A28517F5FF1F1305E5AD97B0FF1FE78069
:10547C00805617F7FF1F0357A7AD97F7FF1F9387AA
:10548C0067AC19E71307001097F6FF1F2392E6ACE1
:10549C0017F7FF1F0347E7AB11E7054797F6FF1F09
:1054AC002389E6AA17F7FF1F0357C7AA11E76D4711
:1054BC0097F6FF1F2390E6AA17F7FF1F034777A95C
:1054CC0011E7154797F6FF1FA385E6A817F7FF1FEF
:1054DC00034767A811E7054797F6FF1F238DE6A63C
:1054EC0017F7FF1F034737A719E703C7F70097F60E
:1054FC00FF1FA382E6A617F7FF1F0347E7A511E7D7
:10550C00354797F6FF1F2389E6A417F7FF1F0347BC
:10551C00F7A419E71307800297F6FF1FA380E6A4F0
:10552C0017F7FF1F034757A319E71307D00297F686
:10553C00FF1FA383E6A20347840119E71307C003E7
:10554C0097F6FF1F238CE6A09C5791C7829797F77D
:10555C00FF1F2391A79AFD5717F7FF1FA308F7C842
:10556C00EFF0FFD28147B24022443E854101828058
:10557C0089473E85828001114EC697F9FF1F93899A
:10558C00A9A083A7090006CE22CC26CA4AC852C4B9
:10559C00829713090064B335250303DA8900814629
:1055AC00528633052503EFE0414E97F7FF1F938793
:1055BC00E793804FAA8401456306940233858440A7
:1055CC00636E940003A5490052868146B335A90247
:1055DC003305A902EFE0614B018D269597F7FF1F6C
:1055EC0023A29792F2406244D2444249B249224AE1
:1055FC0005618280011122CC0A852E8441469705D3
:10560C0002009385A57806CEEFE0D17C180806043D
:10561C003A94035504FF97F7FF1F83D78797F240FF
:10562C006244AA9737450F00130505243355F5023C
:10563C000561828097F7FF1F83D7A79551471D45BA
:10564C00637CF702794719456378F7021307200347
:10565C0015456373F7021307B0041145637EF70019
:10566C00130740060D456379F700130760090945D8
:10567C006374F70013B5B70F8280011122CC06CEEC
:10568C002A842EC6EFF06FD1B245F240818D33A53E
:10569C00A502229562441375F50F056182800111F4
:1056AC0022CC06CE2A842EC6EFF02FCFB245F24084
:1056BC00818D33A5A5022295624442054181056185
:1056CC008280011122CC06CE2A842EC6EFF0EFCCBC
:1056DC00B245F240818D33B5A50222956244056135
:1056EC00828097F7FF1F9387E785985739CB411135
:1056FC0022C426C206C6BE84029717E7FF1F0357B3
:10570C00677F2A8415CBBA876373A700AA87C20761
:10571C00C183BA866373E400A286C206C182958FE8
:10572C005147635BF700DC5491C38297EFF0106F25
:10573C0097E7FF1F2390877CB2402244924441019B
:10574C008280828097E7FF1F9387C77FDC57011108
:10575C0006CEAA8581C72AC68297B245C1C59C418F
:10576C000545B5CFDC41A5CF83D78500ADCB83D71D
:10577C00A500B5C783C7C500BDE3414617F5FF1F9C
:10578C001305858097B0FF1FE780E02497E7FF1F84
:10579C009387877F9C4317E7FF1F232FF77897E7A3
:1057AC00FF1F83C7B77B8DE79307800217E5FF1FA9
:1057BC000355057E3305F50237460F001306062404
:1057CC0081468145EFE0612C97E7FF1FA388A778FE
:1057DC0017050000130565DAEFF03FA80145F2400C
:1057EC000561828097E7FF1F83C72777139787018F
:1057FC0061876354070497E7FF1F23A7077097B7C8
:10580C00FF1F9387476017E7FF1F232FF7767D57FE
:10581C0097E7FF1F23ACE776B7873200938727A162
:10582C0097E6FF1F23A6F67697E7FF1F23840776DC
:10583C00B7C7004023A4E72691BF13F7170005CF85
:10584C00B7872003938707D017E7FF1F2322F7742E
:10585C00B707C0A817E7FF1F232AF77297B7FF1FD8
:10586C009387875D17E7FF1F2320F77297E7FF1FCA
:10587C002382077221BF617797E6FF1F239AE67098
:10588C0081CB9307003217E7FF1F2314F770C9B7BA
:10589C0093072003CDBF011122CC17E4FF1F130483
:1058AC00646A084406CE26CA4AC801E90545F24096
:1058BC006244D2444249056182805C58E5DB185C45
:1058CC0075D77000854582971844B247E300F7FE00
:1058DC009305E00417E5FF1F0355856797C0FF1F6D
:1058EC00E78060ED17E7FF1F2322A76261D117E65F
:1058FC00FF1F0356E6659305F00F97B0FF1FE78077
:10590C000011814417E9FF1F1309495E97E7FF1F38
:10591C0083C727640326090263C1F402328597C04A
:10592C00FF1FE78060F6014597E7FF1F23A0075E86
:10593C0097E7FF1F23AE075C9DBF97E5FF1F83D53D
:10594C002561B38795020844185C898185043E95CE
:10595C0008C2029765BF011156C297EAFF1F938ACE
:10596C006A5E83A78A0022CC4AC84EC606CE26CAD7
:10597C0052C45AC0AA892E8432896385072203A790
:10598C004A03630707147D476366A71497E4FF1F58
:10599C009384C45503AA040263170A0A9565938578
:1059AC0015E017E5FF1F0355A55A97C0FF1FE780A9
:1059BC0080E097E7FF1F23ABA7542A86630A0510E4
:1059CC0083A74A0303A58A0097E5FF1F83D5455893
:1059DC008981829783A78A0003AA040217E7FF1F15
:1059EC002328F7528947639CF908C1476312F40EC8
:1059FC0097E5FF1F83D5C555938505FC9147B3C526
:105A0C00F5028A05D29503C705009307A005631D0F
:105A1C00F70A83C715006399370B4A8522869105CF
:105A2C0097B0FF1FE78020FB9C505285639347156E
:105A3C000145F2406244D2444249B249224A924A58
:105A4C00024B05618280D850E38EE7F8956593850B
:105A5C0025E017E5FF1F0355A54F97C0FF1FE780F3
:105A6C0080D52A8A35C52A8683A74A0303A58A00CE
:105A7C0097E5FF1F83D5C54D89818297A5B78D47C3
:105A8C00639DF900C1476315F40497E5FF1F83D5A7
:105A9C00254C938545FDF199B5B79147639AF9006B
:105AAC006318340397E5FF1F83D5854AA115E5B725
:105ABC00C147639FF900A14763EC870097E5FF1F7F
:105ACC0083D50549C115C1BF9C5052856397470DBD
