:040000006F20000B62
:10000400000000000000000090000020AE0400206A
:10001400A9BDF9F3900000200000000000000000DA
:10002400900000209000002000000000000000006C
:10003400900000200000000090000020000000005C
:1000440090000020900000209000002090000020EC
:1000540090000020900000209000002090000020DC
:1000640090000020900000209000002092000020CA
:10007400A2050020900000209000002090000020A5
:1000840090000020900000209000002090000020AC
:1000940001A0B737004083C74740730020304111A7
:1000A400B7170040985F3AC6945F3247E39CE6FE78
:1000B40032454101828073270080218B93874188D8
:1000C40009CB7327008023A2E18898435D9B7310BA
:1000D40007800100010037170040930670052300D4
:1000E400D704930680FA2300D70401000100834655
:1000F400B70493F6F60DA305D7042300070473266B
:1001040000809443A18AD18E7390068023A2018833
:100114000100010093760502638406180347A700D3
:10012400118B25E773270080218B09CB732700806F
:1001340023A2E18898435D9B7310078001000100AE
:1001440037170040930670052300D704930680FAFE
:100154002300D704010001008346A70093E646006C
:100164002305D70023000704F32600809843218B3E
:10017400558F7310078023A2018801000100130723
:10018400004B010001007D176DFF73270080218B58
:1001940009CB7327008023A2E18898435D9B7310E9
:1001A4000780010001003717004093067005230003
:1001B400D704930680FA2300D704010001007D8947
:1001C4002314A7000100010001000100230007041B
:1001D400F32600809843218B558F7310078023A248
:1001E40001880100010073270080218B09CB73274C
:1001F400008023A2E18898435D9B7310078001006F
:10020400010037170040930670052300D7049306B6
:1002140080FA2300D7040100010001000100B72681
:10022400004013061005A383C68023000704F326A9
:1002340000809843218B558F7310078023A2018877
:100244000100010073270080218B09CB73270080F4
:1002540023A2E18898435D9B73100780010001008D
:1002640037170040930670052300D704930680FADD
:100274002300D704010001008346B70493E606086F
:10028400A305D70423000704732700809C43A18B94
:10029400D98F7390078023A2018801000100828016
:1002A40093760504638B06140347A700418B25E767
:1002B40073270080218B09CB7327008023A2E18858
:1002C40098435D9B731007800100010037170040BD
:1002D400930670052300D704930680FA2300D704FD
:1002E400010001008346A70093E606012305D70019
:1002F40023000704F32600809843218B558F731045
:10030400078023A20188010001001307007D01007A
:1003140001007D176DFF73270080218B09CB7327A4
:10032400008023A2E18898435D9B7310078001003D
:10033400010037170040930670052300D704930685
:1003440080FA2300D704010001009376F50193E6B7
:1003540006042314D700010001000100010023005A
:100364000704F32600809843218B558F7310078070
:1003740023A2018801000100130760046310E5044F
:1003840073270080218B09CB7327008023A2E18887
:1003940098435D9B731007800100010037170040EC
:1003A400930670052300D704930680FA2300D7042C
:1003B40001000100B72600400946B5B57327008047
:1003C400218B09CB7327008023A2E18898435D9B8E
:1003D4007310078001000100371700409306700571
:1003E4002300D704930680FA2300D70401000100F8
:1003F400B7260040130620053DB573270080218BE6
:1004040009CB7327008023A2E18898435D9B731076
:100414000780010001003717004093067005230090
:10042400D704930680FA2300D70401000100835601
:10043400870093E6060C2314D700C5BB41118146FF
:1004440001468145114506C63524F3270080A18B5A
:100454009386418889CBF327008023A2F1889C42AC
:10046400DD9B7390078001000100B717004013075C
:1004740070052380E704130780FA2380E704010052
:10048400010003C76704136717002383E70423806D
:100494000704732700809C42A18BD98F7390078037
:1004A40023A2018801000100B240410182808146FB
:1004B4000146814511457D2AF3270080A18B1387CE
:1004C400418889CBF327008023A2F1881C43DD9B5C
:1004D4007390078001000100B71700409306700570
:1004E4002380D704930680FA2380D70401000100F7
:1004F400FD562396D70223800704F32600801C436D
:10050400A18BD58F7390078023A20188010001007D
:10051400F3270080A18B89CBF327008023A2F188E5
:100524001C43DD9B7390078001000100B717004056
:10053400930670052380D704930680FA2380D7049A
:100544000100010083C6670493E616002383D704E1
:1005540023800704F32600801C43A18BD58F73905E
:10056400078023A201880100010001A0BD473305D3
:10057400F50201007D1575FD8280411122C426C259
:1005840006C6AA84014463179400B24022449244EC
:100594004101828005041305803E4204C13F41802D
:1005A400DDB7B7170040130700032388E702854728
:1005B40023AAF18A73002030230304801547230300
:1005C400E48001002302A480828083076480E3CE58
:1005D40007FE23030480828083076480E3CE07FE42
:1005E40003454480828083076480E3CE07FE2302B0
:1005F400A4808280411126C44AC24EC006C6137725
:10060400F50BAD47AA892E8995446306F700194571
:100614006537653F8D444E854537FD59FD14639814
:100624003401B240A24412498249410182801355E7
:1006340009011375F50F453F2209CDB7011126CCE9
:1006440006CEB704080051371545BD3771376937F1
:100654002AC6A53F32459377150089EB136515002B
:100664001375F50FF240E24405618280FD14E9FC44
:100674000145CDBF397126DC4ADA4ED852D656D45C
:100684005AD25ED006DE62CE66CCB7E700E07D5774
:1006940083AA070022C603AA470023A0E71823A2BF
:1006A400E718B7170040130770052380E704130702
:1006B40080FA2380E70483C74704930B75FFB6844D
:1006C400E20793FBFB0F8546AA892E8B32893724D8
:1006D4000040E187015763FA76016308D500894633
:1006E400130700026313D5000157D98F93F7F70F4F
:1006F400B71C00402382FC0411472303E480130544
:10070400F00F5D3D094CD135636D7C11B7050700D1
:10071400DA9537870700795563F2E504B3879500C6
:10072400636EF702370B0800A94733EB6501639941
:10073400F90689E48144513D26850DA0DA850945F1
:10074400553D05090345F9FFFD14050B693D81C4B9
:100754009377FB0FFDF7DD3569FD7D55B717004035
:10076400130770052380E704130780FA2380E70446
:1007740003C74704418B2382E704F250B7E700E044
:1007840023A0571123A24711E25432445259C259AB
:10079400325AA25A125B825B724CE24C2161828013
:1007A400A5476395F90685691309F00FB306990007
:1007B400B3742B01B6941349F9FFB3749900856B94
:1007C40033796901416B9387F9FFB3F7270199E303
:1007D40063FC340193D94900C147E3E637FF99BF6D
:1007E4000569C1697D19D9B71305800D638869014D
:1007F400130500026384790113051008CA85DD3BE3
:10080400353D21DD4E99B3843441D9B7DA852D4580
:10081400D533CA94E30099F205097D3BA30FA9FEE1
:10082400D5BF9387F9FF93F7F70F6361FC0C83C778
:100834001C0413073008631FF70437070800636BB1
:10084400EB04B3079B00B706100063F5D704334BE2
:10085400EB0089476393F9068980D549E38C04EC5E
:10086400DA850945413B11090327C9FF9147232034
:10087400E48003076480E34E07FE23033481FD17FD
:10088400EDFBFD14110B81C49377FB0FE9FF7D335E
:1008940071F5E1B5B717004003C75704B70708005F
:1008A4001377070219E3B78707007955E378FBEA62
:1008B40033079B00E3FFE7F855B58547E382F9F278
:1008C400DA852D45053B9389F4FFE38504E6293356
:1008D40093F7390091EB83260480032709009307DB
:1008E4004900E39AE6E43E89CE84F1BFB5476396B6
:1008F400F9001305900BC93135BDB1471305B00A92
:10090400E38BF9FE99476391F904B7050800B365D1
:10091400BB002D45C53181448D4BA1497539639682
:100924007401832704802320F9008504E39834FFAD
:100934008327048013172B01635507002312F90042
:10094400D5BB2322F900FDB39D476399F902814584
:100954001305B0044531BD442320090023220900B6
:10096400FD599D3993F77400CA9703C70700FD1416
:10097400398D2380A700E39634FF6DBBA1476392B2
:10098400F9046D398144630D0B008D479304C00352
:100994006308FB009304000563048B019304400483
:1009A4001375C507E30895D8194539313939054513
:1009B400213126850D3909453D314931E31C05D6E0
:1009C40069BB91476399F90013056006F536F53E56
:1009D400130590090DB7E38F09D4F154A9BB19CDC0
:1009E40091CD09CE81473387F5008346070033074D
:1009F400F50085072300D700E317F6FE828019C9A6
:100A040091C909CA910583A7C5FF11057D16232E37
:100A1400F5FEC5BF828001C919C62A960505A30F34
:100A2400B5FEE31DA6FE828081473307F500030768
:100A3400070019E33E8582808507C5BF01112E8614
:100A440026CAAA84131506019305F004418122CC19
:100A540006CE32C6EF00B0562A8401C53246A685BA
:100A6400BD3F2285F2406244D244056182808547BD
:100A740015C18DC105C28147B306F5003387F50062
:100A840083C60600034707006398E6008507E3155D
:100A9400F6FE85473E8582808147EDBF9307F6FFCA
:100AA400BE952A966313C5008280FD1583C7150081
:100AB4000505A30FF5FEFDB7AA87014581CF09CE31
:100AC4003E96850703C7F7FF6317B700E39BC7FE8E
:100AD40005458280828001458280797197370000C4
:100AE4009387474722D4804306D626D24AD04ECE97
:100AF40052CC56CA5AC85EC679C0B7C4C901014BA4
:100B040097390000938989449384F437173A000095
:100B1400130A8A44973A0000938A8A3E17390000E0
:100B24001309C9478357240095E35C44631D0B00F4
:100B3400173700002320F742832BC4002285EF00DF
:100B440030555E84B9A82326FB00FDB783A70900AE
:100B540082971C443307F5406376F5000327490068
:100B64001D8F2A9763E2E4089737000023A2073A0F
:100B74008355240003450400974000E0E780C01833
:100B84005C405844A1CB0C4403264900AE97BE8672
:100B940063E4B70063E4C700B386C74014C4228B80
:100BA4003A8449F097370000938787359C4B09476F
:100BB4006372F706F91717370000232BF734B25086
:100BC400225492540259F249624AD24A424BB24BDD
:100BD4004561828063170B009737000023ACE7362A
:100BE400A1BF2326EB0089BF03274A0209CF63EF85
:100BF400A7003385A74083A70A016376F5009737DA
:100C0400000023A7A730228B404461BF032749007B
:100C1400BA97C5B79737000023AC072E4DB74111DB
:100C240022C417340000130464301C4006C626C2D4
:100C34004AC091C782979737000023A9072E973798
:100C4400000083C7F74E858B973400009384044ECD
:100C540095C397370000A38D074C83C774001547CD
:100C6400637AF700A12B83C77400F5178A07A2974C
:100C74009C4382971C4491C382971739000013093F
:100C8400292D0327090017360000034676279737D6
:100C9400000083C7E72693961700BA9683D606000A
:100CA400D5CE9737000083C7A72563E3C70C9737D2
:100CB4000000238707241C40639D07129737000018
:100CC40083C7574791CF83C7740093F7F70F89EB16
:100CD40097370000A3800746974001E0E7808055DE
:100CE40097370000938787269C43638407109737C0
:100CF40000009387A72ADC4317370000232AF72034
:100D0400E93B9737000093872725DC53FDC317374A
:100D140000001307E71E184B9737000083C71725F9
:100D24006369F70C83C7740015476364F70C97373E
:100D3400000083C76744918BCDEF032609009736E3
:100D4400000083C6F61B63CCD70A2244B240924407
:100D540002494101174300E067004346850793F7C2
:100D6400F70F97360000238DF618E3E2C7F215BF9C
:100D740086073E9783550700231007009737000026
:100D84002394071C973700009387071A9C43173551
:100D940000000345E51613172500BA979C43829774
:100DA4009737000083D7471A1737000003474715C2
:100DB40093C7F7FF7D8D93171700032709003E970C
:100DC400835707005D8D2310A7009737000083C762
:100DD400271391C78507173700002303F712173726
:100DE40000000347E7119737000083C77711E370CA
:100DF400F7ECB240224492440249410182801397A5
:100E040017003297035707006DF785072DBFAD67AD
:100E140037C70040BD072326F7200F10000097377F
:100E240000009387E70DC84F83278726BD66BD065C
:100E340093C7F7FF99836A052326D7205D8D8280A7
:100E44004111B7170040985F3AC6945F3247E39C5C
:100E5400E6FE3245410182801305F00F82800111C4
:100E6400973700009387873C22CC03A4070C26CA3B
:100E740006CE2AC42EC6854419E40145F2406244D4
:100E8400D244056182808347910003471400858B17
:100E94006304F7000044CDB719469305A100130578
:100EA4002400F136E31895FE0545C9BF1737000045
:100EB4001307C7261C439306001094C301000100C6
:100EC400010001001C4323A00700834615000348CA
:100ED4002500A2064208C29603480500C2960348AC
:100EE40035006208C29694D78346550003486500CE
:100EF400A2064208C29603484500C29603487500FC
:100F04006208C296D4D7834695000348A500A2067A
:100F14004208C29603488500C2960348B500620899
:100F2400C29694DB8346D5000348E500A206420836
:100F3400C2960348C5000345F500C2966205AA9609
:100F4400D4DB83C6150003C52500A2064205AA9674
:100F540003C50500AA9603C535006205AA9694CF79
:100F640083C6550003C56500A2064205AA9603C5BB
:100F74004500AA9603C575006205AA96D4CF83C618
:100F8400950003C5A500A2064205AA9603C58500DF
:100F9400AA9603C5B5006205AA9694D383C6D50064
:100FA40003C5E500A2064205AA9603C5C50083C58C
:100FB400F500AA96E205AE96D4D3D443F59AD4C3E9
:100FC400D44393E61600D4C3944393E6160094C323
:100FD400BA879443D842058B59E3984E01452300C0
:100FE400E6009843184F2183A300E6009843184F66
:100FF40041832301E6009843184F6183A301E6006F
:101004009C43D84F2302E600D84F2183A302E60075
:10101400D84F41832303E600D84F6183A303E6003E
:1010240098532304E60098532183A304E6009853BD
:1010340041832305E60098536183A305E600D85352
:101044002306E600D8532183A306E600D853418340
:101054002307E600DC53E183A307F6008280010046
:101064008DBF173700001307A70B1443411122C487
:101074009C5E4AC006C6998326C2858B3A8417397A
:1010840000001309A909D1CB9C5E97340000938416
:10109400E40993F7F7F99CDE173700000347670963
:1010A40093070008631BF700832709009C4393F709
:1010B400070417370000230EF70683C7040093F7CD
:1010C40007049DC397370000938747E89C438297A2
:1010D4009737000023A4A70683C7040093F7F70BF0
:1010E400173700002304F70483C7440093F7070469
:1010F4008DE7854717370000A30CF70297370000E8
:10110400938787049C43096798C7130700FC9736A5
:101114000000238FE600D844F8D31C40985F118365
:10112400058B09CB985F3D9B98DF054797360000F8
:101134002380E600985F1D83058B11CB985F13779E
:10114400F7F798DF8547173700002303F7FE832757
:101154000900D8430583058B19C7D843759BD8C3A9
:10116400D843799BD8C3B2402244924402494101F6
:101174008280397106DE16DC1ADA1ED82AD62ED4FD
:1011840032D236D03ACE3ECC42CA46C872C676C4B3
:101194007AC27EC0F935F250E2525253C2533255EC
:1011A400A255125682567247E2475248C248324EFE
:1011B400A24E124F824F21617300203097370000F6
:1011C400938787F8944397370000938727F603C7DC
:1011D4000700058B11CB97370000238B07F4973753
:1011E4000000A38707F4828003C71700058B65F707
:1011F400F85271FF83C75700DDB717380000130892
:1012040028F2032708001C5F9583858BD1E709C664
:101214001C5BBD832300F60085CA83270800985B06
:101224004607935767016356070093E707C0C20751
:10123400C18303970600C207C18709C7BA97094744
:10124400B3C7E7022390F60085CD834715008DCB05
:101254009736000083C6E6ED93F6060413879700DD
:1012640089478DCA3A950347050085469947137601
:10127400F7066311D60262076187B947634C07001A
:10128400832708009C5FED838D8B17370000A30430
:10129400F7EA81473E8582808547EDBF411122C42C
:1012A40006C617340000130424EA18403DE9AE874B
:1012B4007453FDFE3E85B28597370000238907E607
:1012C400974001E0E78080CA97370000938747E59D
:1012D4009C43B70680009843558F98C3D857719B99
:1012E400D8D797370000A38507E497370000A38F6A
:1012F40007E21C40094798C314401737000013073E
:10130400E7E283472700858B89EB83473700858B8A
:10131400D9C797370000238D07E0B240224441012A
:1013240082808D476310F50297370000938747DF6B
:101334009C43B70680009843558F98C3D857719B38
:10134400D8D75DBF8547E319F5FA5447F977FD17F8
:10135400F58F5CC70F1000001C40096798C713077E
:1013640000F8173600002305E6DC173700001307E2
:1013740027DB1043184231830D8B11E713076019E3
:10138400F8D3D4C795BF1842094631830D8B631532
:10139400C7001307E043EDB71307E01BD5B7FC52B2
:1013A400ADF3A5BF5D71A2C4A6C22A841306800250
:1013B4002800AE849305100886C6CAC04EDE52DCEF
:1013C400EFF06FE53545974001E0E78040F91733CA
:1013D40000001303E3D4832703009376F41F173E1E
:1013E4000000130EAEDB23A40700984B973E0000C9
:1013F400938E8ED5370FFCFF1367F70398CBF84F06
:10140400130510F8B7020400137707E0558FF8CFDF
:101414009843F576FD16758F98C39843B706330045
:10142400930380251377F7E798C3984311497D1FE9
:101434001377F7E71367071098C303270E0085494E
:10144400930F80021C47D58F1CC783A70E00130778
:10145400900D3400B8CB014793553700A69583C748
:10146400050013767700B3D7C740858BE1C3832784
:10147400030083280E00239C07042390070603A877
:10148400C8021378D8FF23A6080383A8070013789B
:10149400F70793F808F833E8080123A0070103A825
:1014A40047023368580023A2070383A80E000148AB
:1014B40023A2780603DA07066307480303A8070391
:1014C400038A06001358F8006208135888416358C9
:1014D4000A0103A807031358F8002380060103D860
:1014E40007061378F80F03AA480663060A0003DA0E
:1014F4008705E37F49FB03A847023378E80123A269
:10150400070383870600635CF40003C80500339671
:10151400C9001346F6FF337606012380C5003E86D4
:1015240063D3A7002A8613158601618505071377FF
:10153400F70F8506E312F7F3B640264496440649AE
:10154400F259625A61618280973600009386C6BF61
:101554009C42D84713161701635506029847131681
:101564001701635006027D57B8D7173700001307D9
:101574002799584F0507173600002321E69A11676B
:1015840098C798470D83058B1DC317370000034781
:1015940007BA1367170017360000230AE6B81307C3
:1015A40000F8173600002305E6B8214798C7984786
:1015B400058B09CF17370000034757B71367170088
:1015C40017360000A304E6B6054798C79847098371
:1015D400058B09E798470583058B31CF9847173664
:1015E40000001306A6B417350000130565B309837C
:1015F400058B630307101841184331830D8B75EB7A
:10160400AC4B184E93F5050203471700CDCD79EF87
:1016140013077006D8CF0347060013671700173661
:1016240000002305E6B0114798C718415C57F19BA9
:1016340093E717005CD79C4298479316370163D60B
:1016440006029736000083C6E6C5C18A1737000034
:101654001307C7BDC5CE034787071367070297362D
:1016640000002381E6C4056798C7984793162701AD
:1016740063D1060217370000034787AB620761870F
:10168400635707000547973600002383E6AA0967D6
:1016940098C798479316070163D606029736000049
:1016A40083C656C0858A17370000130727B8ADCE06
:1016B400034797071367270097360000A384E6BE05
:1016C400216798C7828029D785456315B70013071A
:1016D400B00689B789456315B7001307F0061DBF27
:1016E4008D456315B700130730072DB7130750074F
:1016F40015B71307600739BF034736001367170090
:1017040017360000A305E6A2094739BF83468707B9
:101714000946BD8A6388C600034787078D463D8B0B
:10172400E313D7F4114725BF83469707918AC9DA93
:10173400034797071367870041B7397106DE16DC44
:101744001ADA1ED82AD62ED432D236D03ACE3ECC8D
:1017540042CA46C872C676C47AC27EC0F533F25015
:10176400E2525253C2533255A25512568256724710
:10177400E2475248C248324EA24E124F824F216174
:1017840073002030973700009387079C9843856740
:10179400938707777CD397370000938727A09C43D0
:1017A40083A60709139656006358060083A6070903
:1017B40013966600634406007453FDF2828071C57B
:1017C400AA870145E9C58D07C207C183F19BC207FA
:1017D400C18313074003636FF70217370000130731
:1017E400A7A4084317370000130787A3144363987B
:1017F400A6021727000013072776185B014541CB83
:101804004111C20706C60545DD8D0297B240014568
:1018140041018280173700001307C7A0D9B70357C7
:10182400650035E303574500636FF704B306F740DB
:101834002146637CD60203280500938687001D8F0A
:10184400AA966117172600000356E66B2392E6005A
:1018540023A006012393060014C12312F5001307E5
:1018640086FF972600002390E66A2313B500972588
:10187400000083D54569B387F5401727000023147A
:10188400F7682105828008419DB7014582808280E6
:101894000DC1973700009387279903A30700973753
:1018A40000009387E79783A8070081469A8763E33C
:1018B4001701828003A80700636DF50A636BA80A09
:1018C40013878700E367E5FE03D6670021670507F2
:1018D4006317E60003C7C1930507238EE19297259A
:1018E40000009385E56103D6470003D76500239381
:1018F4000700329742074183172500002315E5604E
:10190400638A6702173500001305C5910841630314
:10191400F50203D5660019ED83D7460023A006011E
:1019240021073E9621062392C60097270000239C98
:10193400E75CB6879843E30E17F797360000938663
:10194400668E9442E307D7F683566700BDF283D6CA
:101954004700035647001843A106B2962392D700C6
:1019640098C383D76500A10717270000231DF758E4
:101974008280BE86C28725BF0327851163020712B2
:10198400411122C406C68347C5008345E5042A8461
:1019940093F7C70F2306F500834697000356C70045
:1019A40013958601618563F2C508635B05060345EB
:1019B400870093F6F607A304D700054693E62700AD
:1019C4006314C50093E617002306D4005C4389071B
:1019D4005CC3A30AB400032504112E864C430905F5
:1019E400EFE0FFFF8327841103465401D44303D758
:1019F400C700B296118FD4C32396E7008947A30D7D
:101A0400F400034764039727000083C707566378ED
:101A1400F7048347C40093E707012306F40081A079
:101A240093E717002306F4006DB79376F60F635D12
:101A3400050203458700854513E627006314B500B6
:101A440013E617002306C400A30AD400A304070066
:101A54008547A30DF400832784119C43DDF3B24032
:101A6400224401454101828093E717002306F400D4
:101A7400A30AD400A3040700032504114C43090559
:101A8400EFE0FFF58327841103465401D44303D7C1
:101A9400C700B296118FD4C32396E7008D4755BF74
:101AA40005458280973700009387078B9C4341113B
:101AB40022C406C6858B2A84C5EF4165130525F526
:101AC40097F001E0E78000F145C58347A5002315A1
:101AD400F50083270412BDE72320A4122322A412B5
:101AE40085472311F40423200500834764015441EE
:101AF4002316F5000347D4002304E5000547A30497
:101B0400E5001727000013076762184F13851702B3
:101B140015811C437D151375F50F9CC25C43DCC213
:101B24001C479CC65C47DCC61C4B9CCA5C4BDCCA8D
:101B34001C4F9CCE5C4FDCCE19CD93860602130756
:101B44000702C1BF8327441288C383572404232276
:101B5400A412850779B79727000083D7A76D850757
:101B6400172700002318F76CB240224441018280F9
:101B74008347C40023090400054593C7470023068F
:101B8400F400DDB78347850193F7E70FD5EF83476B
:101B94009501DDEB034625018346C50009CA83454B
:101BA4006503172700000347573C63E7E50013F775
:101BB400060141CF014709C6C18A0357651C81C686
:101BC4008356A51C369751C31307C7121725000067
:101BD4000355453DB335A70237460F00411113069F
:101BE4000624814622C426C206C67D543305A702B4
:101BF400972002E0E78060EC9727000083C75737FF
:101C0400B384A700972700009387476203A7870937
:101C14008327070963F387003E84184375FB9727DE
:101C240000009387A7329C43829781476364A40092
:101C3400B307A440B2402244B3B7970093C7170038
:101C440092443E854101828081473E858280972768
:101C540000009387674F98437C53FDFF828079711E
:101C640026D206D622D44AD04ECE52CC56CA5AC810
:101C74005EC68347550303447513AA843E941374C4
:101C8400F40F9307400263F687001304B4FD137442
:101C9400F40F03AA841383AAC413A38B8412228689
:101CA4005285D685972002E0E780A0DB058915E5FB
:101CB40003CBD41201498149337B6403930B500253
:101CC4004A865285D685972002E0E78080D9058927
:101CD40015C5639169031374F90F238B8412B250F1
:101CE400225492540259F249624AD24A424BB24BAC
:101CF400456182808509E20993D989410509E31187
:101D040079FDE1BF8327850903560504797193D6CC
:101D14000701BD8EC206C182358E13577640935794
:101D24005640898B058B5D8F93573640918B5D8F21
:101D340093571640A18B5D8F93171600C18B5D8F4F
:101D44009317360093F707025D8F93175600935548
:101D5400860093F707041E065D8F1376F60F518FE6
:101D640093D7554013D63540118A898BD18F13D61A
:101D74007540D18F13D61540218AD18F1396150043
:101D8400418AD18F1396350013760602D18F1396AC
:101D94005500137606049E05D18F93F5F50FCD8F6C
:101DA400A20745465D8F3307C70222D42A8426D270
:101DB40052CC56CA032A8413832AC4135AC806D69B
:101DC4003697420741839357774013555740098903
:101DD400858BC98F135537401189C98F1355174007
:101DE4002189C98F131517004189C98F131537002D
:101DF40013750502C98F1315570093558700137582
:101E040005041E07C98F1377F70FD98F13D53540F3
:101E140013D755401189098B498F13D57540498FC4
:101E240013D515402189498F139515004189498F90
:101E34001395350013750502498F139555001375D5
:101E440005049E05498F93F5F50F4D8F2207D98F11
:101E5400B387C7024AD04ECE5EC662C4B697C207E5
:101E6400C18313D7774013D557400989058B498F10
:101E740013D537401189498F13D517402189498FCC
:101E8400139517004189498F13953700137505027F
:101E9400498F1395570093D58700137505049E0742
:101EA400498F93F7F70FD98F13D5354013D7554082
:101EB4001189098B498F13D57540498F13D5154066
:101EC4002189498F139515004189498F1395350050
:101ED40013750502498F13955500137505049E0566
:101EE400498F93F5F50F4D8F2207D98FB387C7021A
:101EF400130650025285D685B697BD8E939406017B
:101F0400C18033F6C402137BF60F972002E0E7800A
:101F140040B505890DED8347D41201498149B38445
:101F24009702130C5002C1804A865285D6859720A9
:101F340002E0E78000B30589937BF90F11C563863E
:101F44003403850993F9F90F0509E31F89FD230B70
:101F54006413B250225492540259F249624AD24A4A
:101F6400424BB24B224C456182805E8BCDB7797176
:101F740022D406D683C735002E8423160100A30776
:101F8400F10083C74500100802C02307F10083C78E
:101F940055008A8502C2A306F10002C402C802CA1F
:101FA40002CC02CEEFE09FF00347F1018347040027
:101FB40001456310F7020347E1018347140001451B
:101FC4006319F7000345D101834724001D8D1335A0
:101FD4001500B250225445618280011197270000F8
:101FE4009387C72422CC03A4870C26CA4AC84EC6AA
:101FF40006CEAA8413092500854915C083C7140099
:1020040003473400858B6304F700405CFDB7194631
:10201400930544004A85EFE09FA5E31835FF228528
:10202400F2406244D2444249B2490561828041117E
:10203400972700009387871F22C403A4870C26C216
:102044004AC006C693042500054901E82285B2402A
:1020540022449244024941018280A6851305A402C8
:102064003937E30525FF405CCDB7411197270000C0
:102074009387C71B22C403A4870C26C24AC006C682
:1020840093042500054901E82285B2402244924484
:10209400024941018280A6851305A401C93DE305D7
:0820A40025FF405CCDB70000F0
:1020B00097110020938101C517610020130181F45D
:1020C0001305400097E5FF1F9385C5F31706002011
:1020D0001306C6FD63FAC5008322050023A0550040
:1020E00011059105E3EAC5FE175502001305854069
:1020F00097050020938585FB1386818663FAC500CA
:102100008322050023A0550011059105E3EAC5FED1
:102110001385818697250020938545256377B50033
:10212000232005001105E36DB5FEFD42739002BC4E
:102130008D4273904280930280087390023097E240
:10214000FF1F938222EC93E2320073905230970289
:1021500000009382423773901234730020303D4365
:102160002A876373C3029377F700BDEFADE59376DB
:1021700006FF3D8ABA960CC34CC30CC74CC7410737
:10218000E36BD7FE11E28280B306C3408A06970252
:10219000000096966780A6002307B700A306B70045
:1021A0002306B700A305B7002305B700A304B700B3
:1021B0002304B700A303B7002303B700A302B700AB
:1021C0002302B700A301B7002301B700A300B700A3
:1021D0002300B700828093F5F50F93968500D58D87
:1021E00093960501D58D61B793962700970200005D
:1021F00096968682E78086FA9680C1171D8F3E9656
:10220000E374C3F8A5B78347050081EF3717004093
:102210005C418326070A93C7F7FFF58F2320F70A4F
:1022200082800547639CE700371700405C418326A6
:10223000070C93C7F7FFF58F2320F70C82808347A5
:10224000050091EB371700408327070A5441D58FCB
:102250002320F70A82800547639AE700371700407A
:102260008327070C5441D58F2320F70C82808347A6
:10227000150081EF371700401C458326070A93C7D6
:10228000F7FFF58F2320F70A82800547639CE7005C
:10229000371700401C458326070C93C7F7FFF58FBF
:1022A0002320F70C8280411122C406C68347050013
:1022B0002A8485E748418545EF10302937170040CB
:1022C0008327C70A5440D58F2326F70A2285253F46
:1022D00022852244B240410159BF0547E398E7FEF9
:1022E00048418545EF10D030371700408327C70C91
:1022F0005440D58F2326F70CD1BF8347150091EBAF
:10230000371700408327070A1445D58F2320F70A83
:1023100082800547639AE700371700408327070C40
:102320001445D58F2320F70C82800347150019EB45
:10233000B717004083A7470A0845E98FB337F00075
:102340003E85828085468147E31CD7FEB717004053
:1023500083A7470CD5B7794517E3FF1F67004321D3
:10236000411106C622C42A841937F5372285613DFA
:10237000DD3722855D3F11E50145B2402244410130
:10238000828022859D3FC13F2285453775F5228594
:102390007D35D1370545D5B7411122C426C24AC083
:1023A00006C62A89AE842144593D93978401E1876A
:1023B0004A8563D60702653D4A85B1357D14613F84
:1023C0004A8586041374F40F9D3D93F4F40F61372E
:1023D00069FCB24022449244024941018280313F6B
:1023E000E1BF411106C622C426C22A84493522858E
:1023F000193D9304803E22850D3F19C9FD14C20486
:10240000C180F5F81745020013054546EF20D25369
:102410002285213F09C922851D350145B24022444C
:10242000924441018280053F2285113D2D370545AB
:10243000F5B7411106C622C426C24AC0A1442A8962
:1024400001443535093F4A857D3B06044A851374AE
:10245000F40FE13D19C113641400F53DFD144A85E4
:1024600093F4F40FE93BC53DF9FC2285B2402244C8
:102470009244024941018280411106C622C42A8445
:102480007D3BD13D2285953DF9352285AD3BE1353A
:102490002285F13B2244B240410175BD411122C465
:1024A00006C685472A84639CF500D1332285A13B6B
:1024B0005D35228569332244B240410169BD353D15
:1024C000F5B77971054506D622D426D24AD04ECE2C
:1024D00052CC56CAEF10301C1305800497E0FF1F42
:1024E000E780A0BD371400408327840A8545130583
:1024F000001093E707202324F40AEF1010058D4500
:1025000013050020EF107004EF10B03C0D45EF10E4
:10251000703F95450545EF10904037070008B7E735
:1025200000E023A0E710EF20E01CEF20C02FEF9089
:10253000A100652B17050020130545B7AD3317051E
:102540000020130565B78533914513050008EF108A
:10255000300A8327C40C1305200693E707082326B7
:10256000F40CEF00A071EF00F0010145EF009005C1
:102570006565130545BBEF00300EEF0080704DC957
:102580001745020013050530EF20B24D05641749C9
:10259000020013096930974402009384642E97491E
:1025A0000200938969301304843813055100A30293
:1025B0000100EF00101401C54A85EF20924A8347BD
:1025C0005100ADC370002C0013056100EF00C07610
:1025D00031E92245EF20720D8C40EF202262AA8A59
:1025E0003245EF20920C8C40EF2042618355610010
:1025F0002A8A4E85EF2052355685EF2072172A869B
:10260000AE86174502001305252BEF20F2335285C5
:10261000EF2012162A86AE86174502001305452BB9
:10262000EF209232228597E0FF1FE78040F5B5BF8B
:102630001745020013050526EF20123181BF2A86B7
:10264000B305B040174502001305C53B6F20D22FDC
:10265000011106CE19C589476301F502F2400561F3
:102660008280680097E0FF1FE780A03717450200CF
:1026700013054546EF20F23ED5B7680097E0FF1FEF
:10268000E78020361745020013058546E5B783D756
:1026900081876390A702239DB186239EC186239FD5
:1026A000D1862E86174502001305C533BE856F20DF
:1026B000B22917450200130565346F20923A03577B
:1026C0004500011106CE83D78187631FF702C167DA
:1026D000F917894503C5418023ACF18623AE0186F5
:1026E000EF20B01C914503C54180EF20101C8547A9
:1026F0001306F100854513055030A307F100EF8064
:10270000112FF24005618280174502001305052F45
:10271000EF203235FDB73D897D15954763E4A71657
:10272000174702001307471C0A053A951C4141113F
:1027300022C406C6BA972E84828717450200130565
:10274000E52D2244B24041016F20B23183C72500FC
:1027500019476391E7022E859D378345640017452D
:1027600002001305A52CEF20321E174502001305A9
:10277000A52DC1BF0D47E38AE7FEB24022444101C7
:10278000828003C725009547E319F7FEC16703D789
:102790008187F91703D5A500630FF700EF80515724
:1027A000174502001305452BEF20B22B17450200F9
:1027B0001305052D79B7239CA18683D7E500130661
:1027C000001903C54180239DF18683D70501239E0F
:1027D000F18683D725018945239FF186DD47A387AD
:1027E000F180EF20406A096613060690A14503C5F3
:1027F0004180EF2040690566130606C8914503C570
:102800004180EF2040680356E4008355A40017453B
:1028100002001305A525EF20321349BF03C7250089
:102820008D471745020013056526E318F7F411BF1D
:1028300083C5250091476397F500174502001305EE
:10284000652601B79947639FF50022858D3D834535
:102850006400174502001305651D2244B240410182
:102860006F20920E9547639AF50083471400F1F7A5
:10287000174502001305C524E9B5174502001305E5
:10288000A524E1BF8280011106CE22CC03C7F180CE
:10289000D54763ECE7001745020013052511EF202B
:1028A000521CF240624405618280CD472A84014770
:1028B00081464D46ED4503D581872315F100EF7024
:1028C000100B2AC611E5174502001305250FC1BFDD
:1028D0000356A100A28597E0FF1FE78080102C001F
:1028E00003D58187EF10D04709C5ED452800EF706B
:1028F000D01FB247DDF7C1BF79719397050126D28A
:1029000006D622D44AD0C187AE8463D3070A03C552
:102910004180EF20200B2A8421C98347050013073B
:10292000000B6386E7061307000D639CE7028347ED
:10293000250045476382E70465476394E70203483F
:10294000A50083479500034785008346750003462D
:1029500065008345550017450200130565FAEF2011
:10296000A27E2285EF10F07E2165258DB250225483
:102970009254025945618280034665008345750083
:10298000174502001305C5FAEF20027CD9BF0347A3
:1029900045009307F007E316F7FC835585001745BC
:1029A00002001305A5FAA387B180EF20E27955BF95
:1029B00093F7150085C317F6FF1F1306A67097152A
:1029C00000209385654D03C54180EF80814E13C57E
:1029D000140069BF93F72500D1CF1306001989456C
:1029E00003C54180EF20204A1384418702C602C8F4
:1029F00002CA02CC02CE83C74187228995EB3717E2
:102A000000408327870C93E707082324F70C97459A
:102A100002009385E5F46800EF20D2096800A5352F
:102A2000834709008507238AF18613C524003DBF2B
:102A300013077007E37DF7FC13078007639EE70029
:102A400097450200938505F36800EF20B206680001
:102A50001D3D83470400F9B783D6A18603D681863E
:102A600097450200938545F26800EF205200680008
:102A7000193D65BF93F7850085C383C74180130760
:102A80004006814613064006994503D58187EF80AD
:102A9000A13B13C58400D9BD93F705019DC3014730
:102AA00089460946814503D58187EF80B128AA85EB
:102AB00017450200130545EEEF20026913C5040116
:102AC00075B593F745000145E38207EA03D5818791
:102AD000EF80D1230566130606C8914503C54180E2
:102AE000EF20603A13C5440051B579711705000015
:102AF0001305C5E006D622D426D2EF20100F93840A
:102B00004180994705442380A400231AF10010084E
:102B100093074006854513055030231CF100230818
:102B20008100EF80C16C17F6FF1F1306E65BC545F9
:102B300013057030EF80A16B138681809D451305CE
:102B40006030EF80C16A5008894513051031EF806D
:102B5000016A3008894513052031EF8041699305EA
:102B600000050D45EF40606D930500051145EF40F0
:102B7000C06C85457945EF40406C300891451305A0
:102B8000704023048100230681002308810002CCC9
:102B9000230A0100EF70412E3000854513050040E7
:102BA000EF70812D7000854513051040EF70C12C2A
:102BB0005008854513052040EF70012C100885450D
:102BC00013055040EF70412B7D55EF7080227D55ED
:102BD000EF90806AEF10A0707D55EF10B00A17F6E5
:102BE000FF1F1306E64ED5450145EF70200F8947BC
:102BF0002306F1008D472308F1009147230AF100D5
:102C000093870186984383C7470030008545014577
:102C10003ACC230EF10023048100EF10500C700019
:102C200085450545EF10B00B100885450945EF10A7
:102C3000100B500885450D45EF10700A300895457A
:102C40001145EF10D009C16713878187F9171CC39D
:102C500023220700170500201305C58AEF1050072F
:102C60001385C186EF50317903C504008545EF20F7
:102C70006009B25022549254456182802380A18819
:102C80008280411122C40966171400201304842194
:102C90001306161B8145228506C6112EA2852244E5
:102CA000B2402A8603C50188410191AE011126CAAE
:102CB000B2843D664AC84EC6130656C0AA892E89FC
:102CC000171500201305051E814506CE22CCC5240C
:102CD0002A86971500209385E51C03C501880526E3
:102CE0002A8439E11305803ED52119469715002025
:102CF0009385451B03C50188192E2A8415E51715F0
:102D000000201305251A212C2390A9001715002057
:102D10001305651929242310A90017150020130590
:102D2000A518F52A2390A4002285F2406244D244DB
:102D30004249B24905618280011122CC26CA3284FF
:102D4000AE841306E1006C0006CE8D371DE5835777
:102D5000C100156713073757B387E7025577130785
:102D60008703B587BA979CC08357E1000D671307A7
:102D7000470DB387E702B5871CC0F2406244D244D6
:102D80000561828011664111130666F881451715A9
:102D900000201305251106C622C4112C2A8697157A
:102DA00000209385251003C50188912C2A8411E504
:102DB00037A507001305051211292285B2402244C8
:102DC000410182804111096622C41306D6412A843A
:102DD0008145171500201305E50C06C6C92A228671
:102DE000AA85171500201305E50BD9222A86971509
:102DF00000209385250B03C5018811242A8401E551
:102E00001305803EE1262285B240224441018280A2
:102E1000411122C439662A84814517150020130503
:102E2000650806C669222286AA85171500201305A3
:102E30006507BD2A2A86971500209385A50603C538
:102E40000188752A2A8401E51305803E41262285E2
:102E5000B240224441018280411106C6EF10B253B4
:102E600097470200938787CA9043D443EF1022719B
:102E700097470200938707CA9043D443EF00327DFF
:102E8000EF10F24AB24042054181410151B7411170
:102E9000396626C21306864B8145AA841715002081
:102EA0001305450006C622C419222A86971500205C
:102EB000938545FF03C5018899222A840DE51305F2
:102EC000803E29260946971500209385A5FD03C558
:102ED0000188352A2A8401E917150020130585FC8D
:102EE0003D282390A4002285B2402244924441010F
:102EF0008280011122CC2A841305E10006CE23171B
:102F00000100713709E98357E10093F7F77FB33781
:102F1000F0002300F400F2406244056182808347A0
:102F2000050003451500A2075D8D82808146930749
:102F3000F00F1397060141836364B7003E858280DA
:102F40003307D50003470700B98F2147139887013E
:102F500013961700135888419377F60F63560800AD
:102F60009347160393F7F70F7D171377F70F79FF42
:102F70008506C1B7011106CE32C64D3F3246F2403A
:102F8000118D3335A00005618280B307B50013575A
:102F900086002380E70093871500C207C1833E9512
:102FA00089052300C5001395050141818280F1BF89
:102FB000411122C426C206C6B307B50013578600C6
:102FC0002380E70093871500C207C183AA97238057
:102FD000C70093872500C207C183B304F500F91722
:102FE0002E843E95894599372380A400B24013056D
:102FF00034002244420592444181410182804111C2
:103000001376F60F06C6252AB240410182800111CF
:1030100052C406CE22CC26CA4AC84EC656C29377A0
:103020001600114A95E7135416000D463304C402E6
:10303000AE89420441801376F40F8528131A0501E6
:10304000135A0A4163160A000149814463EC840063
:10305000F24062445285D2444249B249224A924ADD
:1030600005618280B38A990003C62A008945568586
:1030700011374205418505E983C60A0033872901D6
:10308000930719002300D700C20703C71A00C183A2
:1030900009098D044209CE97C204135909012380FE
:1030A000E700C18065B72A8A65B7011126CAAA84DC
:1030B00017F5FF1F130585FF06CE22CC4AC82E84C4
:1030C00032C6EFF0EFA99395140093E5150017F5BC
:1030D000FF1F1305A5FD93F5F50FEFF0EFAB17F507
:1030E000FF1F1305A5FCEFF0CFAF15C1324617F94E
:1030F000FF1F1309A9FBB304C4006317940217F55B
:10310000FF1F1305A5FAEFF02FB7014501A817F52A
:10311000FF1F1305A5F9EFF02FB60545F2406244F5
:10312000D2444249056182804A85EFF08FB0230086
:10313000A40085454A85EFF06FB605047DBF0111F7
:1031400026CAAA8417F5FF1F130545F606CE22CC22
:103150004AC82E8432C6EFF0AFA09395140017F53D
:10316000FF1F1305A5F493F5E50FEFF0EFA217F598
:10317000FF1F1305A5F3EFF0CFA605CD324617F9D3
:10318000FF1F1309A9F2B304C400631A940017F5D2
:10319000FF1F1305A5F1EFF02FAE014515A08345E4
:1031A00004004A850504EFF02F9F4A85EFF06FA3D6
:1031B00069FD17F5FF1F130565EFEFF0EFAB054550
:1031C000F2406244D2444249056182804205418115
:1031D00017D3FF1F6700A33AB717004003C777054F
:1031E0001377E70FA38BE704130700F8A38DE70419
:1031F0003D47238CE70413075003A38CE704828028
:10320000B717004083C7E7020D8993F7C70FC98F2F
:1032100073270080218B9386418809CB7327008018
:1032200023A2E18898425D9B731007800100010092
:1032300037170040130670052300C704130680FAF1
:103240002300C704010001002307F702230007043D
:10325000732700809C42A18BD98F7390078023A293
:10326000018801000100828041112A83014E930EE2
:10327000407E130F0019930F400663E66E14930807
:10328000001913034006B3781503854E0D4FA14F67
:10329000337365020D891335150063E0BE161308FC
:1032A000F6FF794672984208135808013307C7029F
:1032B00013D61700BE0732976146B3F6C60213064F
:1032C0008070B386C6023697A166F58F42075D8F80
:1032D000B716004083C7F60293F70708A307F1006B
:1032E0000346F10083C7F60293F70708E394C7FE8D
:1032F0008347F100B716004093F7F70F638907146F
:10330000F3270080A18B93864188639807140100FE
:103310000100B7170040130670052380C704130689
:1033200080FA2380C7040100010023AA070303C613
:10333000170313660608A388C702238007047326B1
:1033400000809C42A18BD18F7390078023A20188BB
:10335000010001001166B71500407D16DC59C85DFB
:10336000A98FF18FE5FFF3270080A18B89CBF3278D
:10337000008023A2F1889C42DD9B739007800100AE
:103380000100B7170040130670052380C704130619
:1033900080FA2380C70401000100D8DB03C71703AC
:1033A00013670704A388E7022380070473270080BC
:1033B0009C42A18BD98F7390078023A201880100C2
:1033C0000100410182807D133368E3039308E01616
:1033D000630E08003368F3039308D01663080800EF
:1033E0009378330093B818009388D81633081E01D9
:1033F000131E0801135E0E0149B56393E5030548EA
:10340000638608000148630303002A8871087298E4
:10341000FD15131E0801C205135E0E01C181B5BD65
:1034200013F8150063F4BF007908D5B713381800F6
:10343000E5BF83C7F60293F70708A307F100034629
:10344000F10083C7F60293F70708E394C7FE8347AA
:10345000F10093F7F70FF1DF65B5F327008023A2A2
:10346000F1889C42DD9B7390078055B55971E2C489
:1034700086D6A2D4A6D2CAD0CECED2CCD6CADAC8EC
:10348000DEC6E6C2EAC06EDE2A8C02D6EF007034D9
:10349000F3270080A18B138D418891CBF327008007
:1034A00023A2F18883270D00DD9B73900780010024
:1034B0000100B7170040130770052380E7041307C6
:1034C00080FA2380E7040100010003C7F7021377A5
:1034D000770FA387E70203C7F70213678700A38765
:1034E000E702238007047327008083270D00A18B48
:1034F000D98F7390078023A2018801000100F32770
:103500000080A18B91CBF327008023A2F188832731
:103510000D00DD9B7390078001000100B71700408C
:10352000130770052380E704130780FA2380E7045C
:103530000100010003C7E7021377C70F2387E702E3
:1035400003C7E702136717002387E70223800704F6
:103550007327008083270D00A18BD98F739007807C
:1035600023A2018801000100130780C13347E5024F
:103570009169938709E8130650023D69B7440F002B
:1035800093840424856B130BA004014A814A13041D
:103590007005FD19B347F5023307C7023EC2930712
:1035A00009A61309803E3347F7023AC4334725037F
:1035B00005493319890113593940334595029384DC
:1035C0000BFAB3948401811B3306C702B346F6029B
:1035D0003309E90236C6330B670313076055B3049A
:1035E0009502130500103309E902B346FB02130BE1
:1035F00080FAB3C4A40236C8B347F90293963400E4
:103600003719004036CC930409043ECA7326008063
:10361000218A11CA7326008023A2C18803260D00C7
:103620005D9A7310068001000100930770052380E6
:10363000F40023806401010001000346390513767C
:10364000860FA309C9040346390513661600A309AA
:10365000C904238004007325008003260D00218AFD
:10366000498E7310068023A2018801000100916C2D
:10367000E17D73260080218A11CA7326008023A26F
:10368000C18803260D005D9A7310068001000100B9
:10369000930770052380F40023806401010001007A
:1036A0000346390513660602A309C9040356090532
:1036B000336696012318C904035609053366B6011B
:1036C000420641822318C904238004007325008028
:1036D00003260D00218A498E7310068023A20188DB
:1036E000010001000346390513760602630706163A
:1036F00003463905218A6DDE6810EF00B01173268C
:103700000080218A11CA7326008023A2C188032663
:103710000D005D9A73100680010001002380840073
:103720002380640101000100034639051376F60D7C
:10373000A309C9040346390513660602A309C9048F
:1037400003560905336696012318C9040356090573
:103750003366B601420641822318C904238004005F
:103760007325008003260D00218A498E7310068080
:1037700023A20188010001000346390513760602E1
:103780006309061003463905218A6DFE97D0FF1F95
:10379000E78020912A8632CE97D0FF1FE780609085
:1037A0007246E30AC5FE0356090532553366960193
:1037B0002318C904EF00D00703463905218A6DDEBE
:1037C0000355090503462905924733F5A9003386B9
:1037D000C90232951D8DA24763D5A700B247634643
:1037E000F50E09466365560FC247850A1316150084
:1037F00093FAFA0F3346F6026354A03A05060945D8
:103800003346A60273250080218911C973250080E3
:1038100023A2A18803250D005D9973100580010086
:10382000010023808400238064010100010003550E
:10383000C9022A96420641822316C9022380040047
:103840007325008003260D00218A498E731006809F
:1038500023A201880100010029BD73260080218A6E
:1038600011CA7326008023A2C18803260D005D9A29
:10387000731006800100010023808400238064010E
:10388000010001000346390513660602A309C904B5
:1038900025BD73260080218A11CA7326008023A2C9
:1038A000C18803260D005D9A731006800100010097
:1038B0002380840023806401010001000346390550
:1038C00013660602A309C90451BDE38F0AF07326EB
:1038D0000080218A11CA7326008023A2C188032692
:1038E0000D005D9A731006800100010023808400A2
:1038F0002380640101000100034639051375FC0FA4
:103900001376860FA309C90403463905498EA30916
:10391000C904238004007328008003260D00218A37
:10392000336606017310068023A20188010001009E
:10393000034639051D8A6317862773260080218A6E
:1039400011CA7326008023A2C18803260D005D9A48
:10395000731006800100010023808400238064012D
:10396000010001000346390511651376F60DA30920
:10397000C9040346390513660602A309C9040356A0
:103980000905498E2318C904035609052165498E86
:103990002318C904238004007325008003260D002A
:1039A000218A498E7310068023A20188010001003C
:1039B0000346390513760602630E062003463905D1
:1039C000218A6DDE6810B92573260080218A11CA0C
:1039D0007326008023A2C18803260D005D9A731010
:1039E000068001000100238084002380640101001F
:1039F00001000346390511651376F60DA309C904C4
:103A00000346390513660602A309C90403560905CE
:103A1000498E2318C904035609052165498E2318C8
:103A2000C904238004007325008003260D00218A29
:103A3000498E7310068023A201880100010003460D
:103A40003905137606026303061C03463905218AED
:103A50006DFE97C0FF1FE780C064AA8C97C0FF1F50
:103A6000E7802064E30C95FF035609051165498E34
:103A700032552318C9046D2B03463905218A6DDEA2
:103A800073260080218A1385418809CA7326008025
:103A900023A2C18810415D9A7310068001000100C5
:103AA000238084002380640101000100034639055E
:103AB0001376F60DA309C90423800400732800803F
:103AC0001041218A336606017310068023A2018803
:103AD000010001000358090503462905E24733F8B0
:103AE00009013386C90232983308F8401306800C66
:103AF0003306C802D2473346F60263550015050661
:103B00000948334606036351C0140358C902930899
:103B1000F00F13585800329863D6081F0946637394
:103B20004619F3270080A18B89CBF327008023A2BD
:103B3000F1881C41DD9B739007800100010037175D
:103B40000040930770052300F704930780FA2300D1
:103B5000F704010001008356C70289678117D58FDA
:103B6000C207C1832316F7022300070473270080CE
:103B70001C41A18BD98F7390078023A2018801007B
:103B80000100B650265496540659F649664AD64A5C
:103B9000464BB64B264C964C064DF25D65618280D5
:103BA0007D16B1B973260080218A11CA7326008060
:103BB00023A2C18803260D005D9A731006800100C0
:103BC000010023808400238064010100010003467A
:103BD00039052DBB73260080218A11CA7326008007
:103BE00023A2C18803260D005D9A73100680010090
:103BF000010023808400238064010100010003464A
:103C0000390513660602A309C90469B37326008047
:103C1000218A11CA7326008023A2C18803260D00C1
:103C20005D9A7310068001000100238084002380C8
:103C30006401010001000346390513660602A30969
:103C4000C904C5B37D166DBD55CE0358C902B3086E
:103C5000C040135858006357180B09466374460553
:103C6000F3270080A18B89CBF327008023A2F18862
:103C70001C41DD9B7390078001000100B7170040D5
:103C8000130770052380E704130780FA2380E704F5
:103C90000100010003D7C7027D8B2396E702238032
:103CA0000704E9B573260080218A09CA73260080BB
:103CB00023A2C18810415D9A7310068001000100A3
:103CC0002380840023806401010001000356C9029F
:103CD0001376F60F33667601420641822316C90237
:103CE00023800400732800801041218A3366060176
:103CF0007310068023A2018801000100050A137ACF
:103D0000FA0F29B2F3270080A18B89CBF32700801B
:103D100023A2F1881C41DD9B739007800100010004
:103D2000B7170040130770052380E704130780FAD4
:103D30002380E7040100010003D7C70216063A9664
:103D4000420641822396C70299BF914763EEB702AC
:103D500017370200130787DC8A05BA959C41BA978A
:103D60008287B717004003A7470B1345F5FF698FFC
:103D700023AAE70A03A7070B698F23A8E70A03A76B
:103D8000070A798D23A0A70A8280B717004083A66F
:103D9000470B1347F5FFF98E23AAD70A83A6070B13
:103DA000558D23A8A70A83A6070A758F23A0E70AC3
:103DB0008280B717004003A7470B498F23AAE70A61
:103DC00003A7070B1345F5FF45BFB717004083A6B0
:103DD000470B1347F5FF758F23AAE70A03A7070AC6
:103DE000598D4DB7B717004003A7470B498FEDB763
:103DF000914763EEB70217370200130767D38A05AE
:103E0000BA959C41BA978287B717004003A7470D20
:103E10001345F5FF698F23AAE70C03A7070D698FE8
:103E200023A8E70C03A7070C798D23A0A70C828099
:103E3000B717004083A6470D1347F5FFF98E23AA55
:103E4000D70C83A6070D558D23A8A70C83A6070CB6
:103E5000758F23A0E70C8280B717004003A7470D9A
:103E6000498F23AAE70C03A7070D1345F5FF45BFAC
:103E7000B717004083A6470D1347F5FF758F23AA98
:103E8000E70C03A7070C598D4DB7B717004003A7E0
:103E9000470D498FEDB7411122C43717004006C6C0
:103EA00083472702035707021384418893F7F70FCC
:103EB0004207418325E91377F79F420793F7F707F6
:103EC0004183F3260080A18A89CAF326008023A2B9
:103ED000D1881440DD9A7390068001000100B71666
:103EE0000040130670052380C604130680FA238061
:103EF000C6040100010093F7F70F2381F602239017
:103F0000E60223800604732700801C40A18BD98F12
:103F10007390078023A2018801000100B24022446F
:103F20004101828093E7070813670740F32600806A
:103F3000A18A89CAF326008023A2D1881440DD9A81
:103F40007390068001000100B7160040130670054B
:103F50002380C604130680FA2380C60401000100F2
:103F60002381F6022390E602238006047327008053
:103F70001C40A18BD98F7390078023A20188010078
:103F80000100294597C0FF1FE780805EF32700806E
:103F9000A18B89CBF327008023A2F1881C40DD9BF5
:103FA0007390078001000100B717004013077005E8
:103FB0002380E704130780FA2380E704010001004F
:103FC00003D70702136707202390E7022380070423
:103FD0001DBFB717004003D5870042054181937785
:103FE000050491EB9377F5013755E801130505803A
:103FF0003345F50282809377050C1307000463971D
:10400000E7009377F50137459C1CCDB72165130573
:1040100005D0828037E700E01C435443A183E206C9
:10402000D58F1CC1FD572320F7182322F718828053
:1040300013178500B7E700E023A0E710618123A2F2
:10404000A7108280B7F700E08847CC47828081477D
:1040500037370040A14663C4C700328582800345DC
:10406000B740E38EA6FE3385F500034505008507BE
:104070002304A740CDB7938701819C4317070020F5
:104080001307C72E3E95636CE50017470020130702
:1040900067D76366A70023A8A1803E858280FD576D
:1040A000EDBF411122C406C62A8425372947B3072C
:1040B000E502B2408D83B3D7870222449507B3D778
:1040C000E70237370040C207C1832316F74041019A
:1040D0008280716541111305052006C6D937B737AF
:1040E0000040130770F82381E7400D47A381E740A4
:1040F00013070004A380E74005472387E740B24049
:104100004101828037370040834727401A0593F7E3
:10411000F703C98F93F7F70F2301F7408280B73772
:10412000004003C7174019C9D98DA380B74003C702
:104130000740136787002380E740828093C5F5FF1F
:10414000F98DA380B7408280CC41411106C63285EB
:1041500003C6150083C5050022064D8E42068D65F7
:104160004186138875A2630C060F6348C804138840
:1041700045A26306060B634AC800938535A263090E
:10418000B60623900600294679A0138855A2630835
:10419000060B938565A2E316B6FEC1451D4663EC8A
:1041A000E5064546198E63F3C7003E862390C60098
:1041B000973502009385059A89A8138895A2630014
:1041C000060F634E060B1388A5A2630A060F93859C
:1041D00005A5E318B6FA99451D4663EEE502198E6A
:1041E00063F3C7003E862390C6009385C18131A842
:1041F0009D451D4663E1E5022146198E63F3C70024
:104200003E862390C60093858188BA9597C0FF1F8C
:10421000E780207D0146B240328541018280AD4574
:104220001D46E3EAE5FE3146198E63F3C7003E867C
:104230002390C6009735020093858595F9B7B1455F
:104240001D46E3EAE5FC3546198E63F3C7003E865A
:104250002390C60097350200938585947DB7C145AC
:104260001D46E3EAE5FA4546198E63F3C7003E862C
:104270002390C600973502009385058F79B7C14515
:104280001D46E3EAE5F84546198E63F3C7003E860E
:104290002390C6009735020093858591BDB7C1452F
:1042A0001D46E3EAE5F64546198E63F3C7003E86F0
:1042B0002390C600973502009385458CB9B7B54564
:1042C0001D46E3EAE5F43946198E63F3C7003E86DE
:1042D0002390C600973502009385C5863DB797E6C3
:1042E000FF1F9386A6F44146CD4517E5FF1F130532
:1042F000E5E06F70B0702D453DEF03C5050009473F
:104300006317E5063285D041411106C60347160002
:104310000346060041682207518F130628FE6308F2
:10432000C7026369E60005186303070323900600CC
:1043300029451DA8130648FE630BC7001518E3178F
:1043400007FF15473E866377F700154621A03E8696
:1043500091C30546CC452390C6004206418297C0D2
:10436000FF1FE78000680145B24041018280239031
:10437000060005458280828083C7850093F7070287
:10438000E1E3411106C622C426C24AC003C90500A2
:1043900009432E888547631B690203A345003284C5
:1043A000B6848347130003430300A207B3E7670003
:1043B0004163130E13FE6382C7030D13638B6704FF
:1043C0000D681308289063850707A947B240224467
:1043D000924402493E8541018280AD4765FB054715
:1043E000B547E365D7FE0325C8000546A28597C0FB
:1043F000FF1FE780005F01499387C18A9843814787
:1044000071D7184361D72686A2854A8502978147CE
:1044100075BFAD4745FF0547B547E369D7FA0325A3
:10442000C8000546A28597C0FF1FE780805BE9B7FB
:104430002244B24092440249854741016F60001E08
:10444000A1473E85828041677917630CE5024111DF
:1044500022C406C685472A84639AF5002285224431
:10446000B2409385018A41016F7030648947639639
:10447000F5008545EFA0201F75D1B24022444101CF
:1044800082808280411122C42A8441659385018AF9
:104490007D1506C6EF707061170500001305E5FA7B
:1044A0000588EFA0801305C02244B24097E6FF1FA5
:1044B000938686E94146C54517E5FF1F1305C5D715
:1044C00041016F70B053B2402244014541018280E6
:1044D00009C523A6A18A01458280454582801147EE
:1044E000636EA706972602009386C66D0A05369569
:1044F0001841411106C63697AE87B2850287054737
:104500006145639AE70005461385018997C0FF1F3F
:10451000E780204D0145B240410182800547614559
:10452000E39BE7FE054613854189CDB70547614505
:10453000E393E7FE054613858189C9BF05476145B9
:10454000E39BE7FC05461385C189C9B7154761455B
:10455000E393E7FC15461385418A4DBF09458280E8
:10456000411122C42E849385018A26C206C6AA84DC
:10457000EF608005058915C197E7FF1F9387C7CBBB
:1045800083D7A70BA285B2402310F40022442685CE
:104590009244014641016F601060B240224492444F
:1045A00049454101828011456FE05FEC41119396CE
:1045B0002500AA852D4506C697C0FF1FE780C00BC2
:1045C000B240014541018280411126C293942500E9
:1045D00022C44AC02A843289A686AA850146254576
:1045E00006C697C0FF1FE7802009A6864A86A285D7
:1045F000294597C0FF1FE7802008B240224492441B
:104600000249014541018280011122CC06CE3714B6
:10461000004026CA4AC84EC652C483447405034AA1
:10462000B4058349840503499405EFE0FFBA834745
:10463000A40593F4F40F137AFA0F93E71700230DF0
:10464000F40493F9F90F1379F90FB717004003C772
:10465000A705058B6DFF03D5C705A38D4705238CE3
:104660003705A38C2705A38B9704F2406244D244FC
:104670004249B249224A056182804111939705015E
:1046800022C406C6C1872E8463DB0700252E11C114
:10469000C9242165218DB24022444101828093F7D3
:1046A000150013C51500E5FB9397250163D007029C
:1046B000EF009179CD3D37F60200130606E08965DB
:1046C00003C5018BEF00207C0965E9B793971501BD
:1046D0000145E3D207FC1725020013056554EF00DE
:1046E000523813060064916503C5018BEF00A07971
:1046F00011654DB71D714946972502009385C54D3B
:10470000172502001305457686CE97C0FF1FE78068
:10471000403601E9172502001305454DEF007234BC
:1047200001A0B7F600E0795798CAFD57DCCA0567C3
:10473000B7E700E023A0E7101306F00290C223A021
:10474000E718010001001306C0038145480897C01F
:10475000FF1FE780802C97E7FF1F9387E7F33ECA90
:10476000896793870780231CF100B5472304F10272
:10477000A167938707E03ECEB7070105938707102F
:104780003ED0ED472312F10285472303F10297073C
:1047900000009387E7E1BEC497070000938707E313
:1047A000BEC68567938717D02315F10297070000CF
:1047B000938787893EDAB7F507009707000093874C
:1047C000E7E43EDE814697070000938707DE70002E
:1047D000E1051945BEC097C0FF1FE780E0E9580812
:1047E0008147994670003E960346060085070507F7
:1047F000A30CC700E398D7FED24791C703578101A6
:1048000085676373F70001A04808EF00D041AA85CF
:1048100001C9172502001305A53EEF00F21201A001
:10482000F64025618280411117050000130525E53A
:1048300006C622C4EF00703B1384018B2300A40042
:104840001128034504002244B24013060032896552
:10485000410115AD411106C6F3270080A18B1387D6
:10486000418889CBF327008023A2F1881C43DD9B7C
:104870007390078001000100B71700409306700590
:104880002380D704930680FA2380D7040100010017
:1048900083C6F70293F6A60FA387D70223800704E7
:1048A000F32600801C43A18BD58F7390078023A231
:1048B000018801000100F3270080A18B89CBF32739
:1048C000008023A2F1881C43DD9B739007800100C8
:1048D0000100B7170040930670052380D7049306A4
:1048E00080FA2380D7040100010083C6F70293E613
:1048F0002600A387D70223800704F32600801C43E9
:10490000A18BD58F7390078023A20188010001003D
:104910000545EFE0FF8E41391305407E8147014791
:10492000814605468545EFE03F94B240014541018F
:104930006F00106423AC05FE1C4191E701000100EB
:104940000CC18280BA8703A787FF6DFF23ACB7FE37
:1049500082801DC18346E5FF1307F00F9147639ED8
:10496000E600411106C697D0FF1FE780A0F2B240D3
:1049700081473E854101828095473E85828001E9DD
:10498000014582800145B240224441018280956503
:104990004111938505D022C4C98D2A842105C20501
:1049A0004205C181418106C697D0FF1FE78060E1C3
:1049B00071D9FD5723200500231285002303F5003C
:1049C0002105D1B717F7FF1F130747531C434111A8
:1049D00022C426C24AC006C601440149BA8489E7F6
:1049E000A165E1251DC401A803C7E7FF631AA7025B
:1049F0000DCCA165012E9840832784FF6319E40242
:104A000017F7FF1F232CF74EFD57232C04FE230F0F
:104A1000F4FE2285B2402244924402494101828040
:104A200011E03E8983A787FF5DBF3E84E5BF232C4D
:104A3000F9FED9BFB1CD411122C406C62A8497F729
:104A4000FF1F83C7F74B2E856375F400894763E822
:104A5000870001370D45B24022444101828083A77F
:104A600085FF99E703C7E5FF9307F00F6305F7009C
:104A7000CD351545CDB7238F85FE17F5FF1F1305DF
:104A8000E5474D3D22852244B240A16541019DACE0
:104A90001545828097F7FF1F23A20746828097F76C
:104AA000FF1F9387274B9C4399E33E85828003D762
:104AB00027006316B70003C70700E308A7FEDC471B
:104AC000E5B7C9C1797122D406D626D24AD04ECED6
:104AD00001444147B3D78540858BA5C312053147B3
:104AE00022953305E50297F7FF1F9387A74A03A98D
:104AF00007008544B3948400C204C180BE892A990A
:104B00000327090011C7032549002EC60297B245A5
:104B100031473304E40283A709003E941C4489E72B
:104B20002320090023220900B2502254A58D0259E6
:104B30009254F2492E85456182800504E31CE4F815
:104B40008144DDB72E85828041111397050122C46F
:104B500006C626C24AC041872E84635E07009D3583
:104B600011C1C53BA1673D8C2285B24022449244CD
:104B7000024941018280EDD9AA8701474146B356D7
:104B8000E440858A8DCE9207BA97B146B387D702A3
:104B900097F6FF1F9386064003A906008544B39449
:104BA000E400C204C1803E9983270900032549001F
:104BB00082972320090023220900258C75B7050759
:104BC000E31FC7FA8144D5BF97F7FF1F9387C73804
:104BD0009C53411122C406C61384C18299C782978F
:104BE0001C403E9523A6A18239A097F7FF1F93870B
:104BF000E7359C43EDF70840B74703009387D73F5D
:104C00003305F502B7A72600938737ECB24022445C
:104C10003E9523A6A182410182807DC197F7FF1FA7
:104C20009387C7329C43797122D426D24AD04ECE84
:104C300052CC56CA5AC806D65EC63A8AB689328B54
:104C4000AE8A2A89829797F7FF1F9387A7349843E4
:104C5000BE840144B146C147B30BD4023306770189
:104C6000104251EAC165938505F0414597D0FF1F79
:104C7000E78020B51DE597F7FF1F9387E72D9C5B25
:104C80002D4589C71145814582972D45B250225443
:104C900092540259F249624AD24A424BB24B4561A0
:104CA000828097F7FF1F9387E72A984329E397F7B6
:104CB000FF1F23A1A72A230005009C4005473317A7
:104CC000870023260500232465012311E500232204
:104CD0004501DE9723A0270123A2570123A4470102
:104CE0000145E38509FA238089004DB73E875C477B
:104CF000F5FF48C7C9B70504E310F4F6214579B7B5
:104D00000945828097F7FF1F83C7971F6371F502DC
:104D100017F7FF1F1307C7239317150008433E9586
:104D200083570500DD8D2310B500014582800D45B8
:104D3000828097F7FF1F83C7B71C6373F50217F7CD
:104D4000FF1F1307E72093171500084393C5F5FFCE
:104D50003E9583570500FD8D2310B50001458280E7
:104D60000D458280130705FF1377F70FFD4763E9B1
:104D7000E70AB146B306D50297F7FF1F938787214D
:104D8000984389473697184349CF011122CC4EC624
:104D90000544935945003D893315A40013140501BA
:104DA000418026CA4E85AE84A2854AC806CEC53942
:104DB0002A89814731CDA2854E85A53F97F7FF1FF0
:104DC0009387C7189C43829797F7FF1F83D7871D48
:104DD000338797022A84814613060064B3B797028B
:104DE00013050732B335E500BE95EFE0D14CB307AC
:104DF000850097F6FF1F9386661A3E87D44263E4C8
:104E0000A70063E4D7003387D7402324E900814714
:104E1000F2406244D2444249B2493E8505618280F3
:104E200089473E858280011126CA06CE22CC4AC817
:104E30004EC6BD47894463E0A70431473307E50206
:104E400097F7FF1F938707159C438944BA979C43A4
:104E50009DC305443314A400420441802E890145BA
:104E6000A285EFF0DFC3AA89814411C5A28501455F
:104E7000C93523A42901F240624426854249D2441F
:104E8000B2490561828097F7FF1F83C77707636484
:104E9000F50001458280011197F7FF1F9387070BEB
:104EA00056C283AA070006CE22CC26CA4AC84EC6DE
:104EB00052C4638E0A0A17FAFF1F130A2A0E8324AC
:104EC0004A00B74736FE938707C8AE8997F5FF1F9C
:104ED00083D5450DBE94B387C5022A8432898146A5
:104EE000B3B5C50213850732B337F5001306006466
:104EF000BE95EFE0513C63ECA406829A97F5FF1F44
:104F000083D5450AB3872503AA8413060064814626
:104F1000B3B5250313850732B337F500BE95EFE02F
:104F20009139B3079500BE8403274A0063E4A700C4
:104F300063E4E700B384E740CE852285EFF03FB617
:104F400001C504C505452DA0936504F0C205C181C6
:104F5000414597D0FF1FE780C08605E597F7FF1F03
:104F6000938787FF9C5B81C7A28511458297014586
:104F7000F2406244D2444249B249224A924A05610F
:104F8000828097F7FF1F9387E7FC9C439DE397F789
:104F9000FF1F23A1A7FC85472326050004C5231175
:104FA000350123008500A300F5002322050059BF29
:104FB000BA87D84775FFC8C7F9BF59C9797122D4D4
:104FC00026D24AD04ECE52CC56CA5EC662C466C203
:104FD00006D65AC83689328AAE89AA844144314CF1
:104FE00097FAFF1F938A0AFB854C930B0003330B40
:104FF000840303A70A005A971C43B1E79375F40092
:10500000B395BC0013554440C2055286C181137547
:10501000F50F953D0DC983A70A000145DA9784C3B2
:1050200023A237016304090023008900B2502254EF
:1050300092540259F249624AD24A424BB24B224C34
:10504000924C456182800504E31374FB2145F9BF4E
:1050500009458280411122C426C24AC006C62A845C
:105060002E89B2840D35CA852285EFF05FA305CD68
:1050700097F5FF1F83D505F3B38795022A8413069E
:1050800000648146B3B5950213850732B337F50046
:10509000BE95EFE0512248C00145B24022449244FF
:1050A0000249410182802145CDBF411122C426C25F
:1050B0004AC006C62A892E84EFF07F9EAA8419C1B1
:1050C00023110500A2854A85EFF0BFC697F7FF1FA1
:1050D00083C707E3639B270197F7FF1F83D7C7E6C3
:1050E0005D8C97F7FF1F239187E6014591E01945F5
:1050F000B240224492440249410182809307F00267
:1051000063E8A7044111B14722C43304F50226C263
:1051100097F4FF1F938404E89C4006C6A297984327
:1051200089470DC39377F5008545B395F500C20512
:10513000C18111819D3F9C40A29723A0070023A21B
:1051400007008147B240224492443E85410182805B
:1051500089473E858280411106C622C4EFF03F9404
:1051600011E50145B24022444101828097F7FF1FBB
:105170009387C7DD9C430045829797F7FF1F93876E
:10518000E7E16368A402D843B74636FE938606C8B3
:105190003305A4403697E376E5FC13070064B33586
:1051A000E50203D6870081463305E502EFE0B11042
:1051B00055BFD8433A94C1BF411122C426C217F447
:1051C000FF1F1304A4DD97F4FF1F938464D3944856
:1051D000584097F7FF1F938767D706C69C43639392
:1051E000E60882975440B74736FE938707C8B697BC
:1051F0003387A7003A856364F7006364D7003305FB
:10520000D74097F4FF1F938464F29C4C81CF97F7AB
:10521000FF1F9387A7F894433707CDFF7D179C4660
:10522000F98F9CC611E1484097F7FF1F9387C7D2BB
:10523000DC53829719E59C4C8DC3EF006157EFF06A
:10524000503A9C4C99CB97F7FF1F938727F59843CB
:10525000B70633001C47D58F1CC7B2402244924486
:10526000410182808297984897F7FF1F83C717D024
:1052700054401D8FB307A7003E8563E4E700E3E2D7
:10528000D7F83385D740B5BF411106C697F7FF1F42
:1052900023A4A7D00295B24097F7FF1F23AEA7C65D
:1052A000014541018280994763E9B7008A0597F774
:1052B000FF1F9387A7C7BE9588C1828041117146A1
:1052C000814517F5FF1F130565C606C697F7FF1F33
:1052D00023A207C897F7FF1F23A007CC97F7FF1F4C
:1052E00023A607C697B0FF1FE7802073130680022E
:1052F000814517F5FF1F1305A5C097B0FF1FE78075
:10530000C071EF60212D97F7FF1F83C757C613D5D4
:1053100027008D8B3E958D473305F5028545390570
:105320001375F50F97F7FF1F238DA7BC994733051A
:10533000F5021305052497C0FF1FE780804817F783
:10534000FF1F2329A7C459CD994717F6FF1F03460E
:1053500046BB3306F60281451306062497B0FF1FAD
:10536000E780A06B97F7FF1F9387C7C29C43938783
:10537000072417F7FF1F2329F7BA17F7FF1F034763
:1053800047B80A07BA9717F7FF1F2323F7BCEFF0B8
:105390006FF0052B97F7FF1F938707B9944397F793
:1053A000FF1F83C7F7B513972700369717F6FFFF40
:1053B0001306667110C3138717001377F70F0A07D8
:1053C000369717F6FFFF1306667810C3138737006A
:1053D000890793F7F70F8A0797F5FF1FA382E5B2B6
:1053E000B69790C3B2404101828097F7FF1F83C7F1
:1053F00037B117F7FF1F0347C7B063F3E70217F78B
:10540000FF1F130767B218439386170017F6FF1F95
:10541000A308D6AE93962700369708C33E858280B0
:105420009307F00FE5BF1C41638A071641777D8F14
:10543000B706002089476314D71603574500630059
:105440000716411122C419462A849305F00F6905F5
:1054500006C697B0FF1FE780606605478D47630A61
:10546000E5121C4481CB5858994763040712185C15
:10547000630107121306C003814517F5FF1F1305CB
:10548000A5AD97B0FF1FE78040591306C003A28562
:1054900017F5FF1F130545AC97B0FF1FE780605459
:1054A00017F7FF1F035707AC97F7FF1F9387C7AA8C
:1054B00019E71307001097F6FF1F2395E6AA17F7C1
:1054C000FF1F034747AA11E7054797F6FF1F238CE5
:1054D000E6A817F7FF1F035727A911E76D4797F6AF
:1054E000FF1F2393E6A817F7FF1F0347D7A711E76E
:1054F000154797F6FF1FA388E6A617F7FF1F034778
:10550000C7A611E7054797F6FF1F2380E6A617F702
:10551000FF1F034797A519E703C7F70097F6FF1F7B
:10552000A385E6A417F7FF1F034747A411E73547F4
:1055300097F6FF1F238CE6A217F7FF1F034757A319
:1055400019E71307800297F6FF1FA383E6A217F758
:10555000FF1F0347B7A119E71307D00297F6FF1FF4
:10556000A386E6A00347840119E71307C00397F653
:10557000FF1F238FE69E9C5791C7829797F7FF1FC7
:105580002394A798FD5717F7FF1FA30BF7C63D33CA
:105590008147B24022443E854101828089473E8551
:1055A000828001114EC697F9FF1F9389299F83A717
:1055B000090006CE22CC26CA4AC852C482971309D3
:1055C0000064B335250303DA89008146528633052A
:1055D0002503EFE0414E97F7FF1F93876792804FB7
:1055E000AA8401456306940233858440636E940067
:1055F00003A5490052868146B335A9023305A902A5
:10560000EFE0614B018D269597F7FF1F23A697903A
:10561000F2406244D2444249B249224A0561828042
:10562000011122CC0A852E844146971502009385EC
:10563000E52206CEEFF0F125180806043A9403554A
:1056400004FF97F7FF1F83D70796F2406244AA979B
:1056500037450F00130505243355F5020561828097
:1056600097F7FF1F83D7279451471D45637CF702A7
:10567000794719456378F7021307200315456373CB
:10568000F7021307B0041145637EF70013074006C5
:105690000D456379F7001307600909456374F70046
:1056A00013B5B70F8280011122CC06CE2A842EC6F4
:1056B000EFF08FD1B245F240818D33A5A50222953E
:1056C00062441375F50F05618280011122CC06CE6C
:1056D0002A842EC6EFF04FCFB245F240818D33A51C
:1056E000A502229562444205418105618280011133
:1056F00022CC06CE2A842EC6EFF00FCDB245F24062
:10570000818D33B5A502229562440561828097F7A9
:10571000FF1F93876784985739CB411122C426C253
:1057200006C6BE84029717E7FF1F0357E77D2A844A
:1057300015CBBA876373A700AA87C207C183BA864D
:105740006373E400A286C206C182958F5147635BF2
:10575000F700DC5491C38297EFF0106F97E7FF1FBB
:105760002394877AB240224492444101828082800D
:1057700097E7FF1F9387477EDC57011106CEAA8566
:1057800081C72AC68297B245C1C59C410545B5CFA0
:10579000DC41A5CF83D78500ADCB83D7A500B5C7A6
:1057A00083C7C500BDE3414617E5FF1F1305057F0D
:1057B00097B0FF1FE780E02297E7FF1F9387077EE0
:1057C0009C4317E7FF1F2323F77897E7FF1F83C743
:1057D000377A8DE79307800217E5FF1F0355857C15
:1057E0003305F50237460F0013060624814681452E
:1057F000EFE0612C97E7FF1FA38CA7761705000049
:10580000130565DAEFF05FA80145F240056182807B
:1058100097E7FF1F83C7A7751397870161876354B5
:10582000070497E7FF1F23AB076E97B7FF1F938708
:10583000475E17E7FF1F2323F7767D5797E7FF1F84
:1058400023A0E776B7873200938727A197E6FF1F4B
:1058500023AAF67497E7FF1F23880774B7C7004091
:1058600023A4E72691BF13F7170005CFB7872003BE
:10587000938707D017E7FF1F2326F772B707C0A843
:1058800017E7FF1F232EF77097B7FF1F9387875BDC
:1058900017E7FF1F2324F77097E7FF1F2386077082
:1058A00021BF617797E6FF1F239EE66E81CB9307AA
:1058B000003217E7FF1F2318F76EC9B793072003BD
:1058C000CDBF011122CC17E4FF1F1304E468084484
:1058D00006CE26CA4AC801E90545F2406244D244D0
:1058E0004249056182805C58E5DB185C75D7700021
:1058F000854582971844B247E300F7FE9305E0041C
:1059000017E5FF1F0355056697C0FF1FE78060EB93
:1059100017E7FF1F2326A76061D117E6FF1F035675
:1059200066649305F00F97B0FF1FE780000F814476
:1059300017E9FF1F1309C95C97E7FF1F83C7A76219
:105940000326090263C1F402328597C0FF1FE78076
:1059500060F4014597E7FF1F23A4075C97E7FF1F4B
:1059600023A2075C9DBF97E5FF1F83D5A55FB38783
:1059700095020844185C898185043E9508C2029707
:1059800065BF011156C297EAFF1F938AEA5C83A79D
:105990008A0022CC4AC84EC606CE26CA52C45AC075
:1059A000AA892E8432896385072203A74A036307E5
:1059B00007147D476366A71497E4FF1F938444543C
:1059C00003AA040263170A0A9565938515E017E593
:1059D000FF1F0355255997C0FF1FE78080DE97E71B
:1059E000FF1F23AFA7522A86630A051083A74A0325
:1059F00003A58A0097E5FF1F83D5C5568981829745
:105A000083A78A0003AA040217E7FF1F232CF7507D
:105A10008947639CF908C1476312F40E97E5FF1F9D
:105A200083D54554938505FC9147B3C5F5028A0596
:105A3000D29503C705009307A005631DF70A83C726
:105A400015006399370B4A852286910597B0FF1F91
:105A5000E78020F99C505285639347150145F24039
:105A60006244D2444249B249224A924A024B0561F9
:105A70008280D850E38EE7F89565938525E017E599
:105A8000FF1F0355254E97C0FF1FE78080D32A8A4A
:105A900035C52A8683A74A0303A58A0097E5FF1F19
:105AA00083D5454C89818297A5B78D47639DF900C1
:105AB000C1476315F40497E5FF1F83D5A54A938575
:105AC00045FDF199B5B79147639AF900631834031E
:105AD00097E5FF1F83D50549A115E5B7C147639F2A
