:040000006F20000B62
:10000400000000000000000090000020AE0400206A
:10001400A9BDF9F3900000200000000000000000DA
:10002400900000209000002000000000000000006C
:10003400900000200000000090000020000000005C
:1000440090000020900000209000002090000020EC
:1000540090000020900000209000002090000020DC
:1000640090000020900000209000002092000020CA
:10007400A2050020900000209000002090000020A5
:1000840090000020900000209000002090000020AC
:1000940001A0B737004083C74740730020304111A7
:1000A400B7170040985F3AC6945F3247E39CE6FE78
:1000B40032454101828073270080218B9387818898
:1000C40009CB7327008023A4E18898435D9B7310B8
:1000D40007800100010037170040930670052300D4
:1000E400D704930680FA2300D70401000100834655
:1000F400B70493F6F60DA305D7042300070473266B
:1001040000809443A18AD18E7390068023A4018831
:100114000100010093760502638406180347A700D3
:10012400118B25E773270080218B09CB732700806F
:1001340023A4E18898435D9B7310078001000100AC
:1001440037170040930670052300D704930680FAFE
:100154002300D704010001008346A70093E646006C
:100164002305D70023000704F32600809843218B3E
:10017400558F7310078023A4018801000100130721
:10018400004B010001007D176DFF73270080218B58
:1001940009CB7327008023A4E18898435D9B7310E7
:1001A4000780010001003717004093067005230003
:1001B400D704930680FA2300D704010001007D8947
:1001C4002314A7000100010001000100230007041B
:1001D400F32600809843218B558F7310078023A446
:1001E40001880100010073270080218B09CB73274C
:1001F400008023A4E18898435D9B7310078001006D
:10020400010037170040930670052300D7049306B6
:1002140080FA2300D7040100010001000100B72681
:10022400004013061005A383C68023000704F326A9
:1002340000809843218B558F7310078023A4018875
:100244000100010073270080218B09CB73270080F4
:1002540023A4E18898435D9B73100780010001008B
:1002640037170040930670052300D704930680FADD
:100274002300D704010001008346B70493E606086F
:10028400A305D70423000704732700809C43A18B94
:10029400D98F7390078023A4018801000100828014
:1002A40093760504638B06140347A700418B25E767
:1002B40073270080218B09CB7327008023A4E18856
:1002C40098435D9B731007800100010037170040BD
:1002D400930670052300D704930680FA2300D704FD
:1002E400010001008346A70093E606012305D70019
:1002F40023000704F32600809843218B558F731045
:10030400078023A40188010001001307007D010078
:1003140001007D176DFF73270080218B09CB7327A4
:10032400008023A4E18898435D9B7310078001003B
:10033400010037170040930670052300D704930685
:1003440080FA2300D704010001009376F50193E6B7
:1003540006042314D700010001000100010023005A
:100364000704F32600809843218B558F7310078070
:1003740023A4018801000100130760046310E5044D
:1003840073270080218B09CB7327008023A4E18885
:1003940098435D9B731007800100010037170040EC
:1003A400930670052300D704930680FA2300D7042C
:1003B40001000100B72600400946B5B57327008047
:1003C400218B09CB7327008023A4E18898435D9B8C
:1003D4007310078001000100371700409306700571
:1003E4002300D704930680FA2300D70401000100F8
:1003F400B7260040130620053DB573270080218BE6
:1004040009CB7327008023A4E18898435D9B731074
:100414000780010001003717004093067005230090
:10042400D704930680FA2300D70401000100835601
:10043400870093E6060C2314D700C5BB41118146FF
:1004440001468145114506C63524F3270080A18B5A
:100454009386818889CBF327008023A4F1889C426A
:10046400DD9B7390078001000100B717004013075C
:1004740070052380E704130780FA2380E704010052
:10048400010003C76704136717002383E70423806D
:100494000704732700809C42A18BD98F7390078037
:1004A40023A4018801000100B240410182808146F9
:1004B4000146814511457D2AF3270080A18B1387CE
:1004C400818889CBF327008023A4F1881C43DD9B1A
:1004D4007390078001000100B71700409306700570
:1004E4002380D704930680FA2380D70401000100F7
:1004F400FD562396D70223800704F32600801C436D
:10050400A18BD58F7390078023A40188010001007B
:10051400F3270080A18B89CBF327008023A4F188E3
:100524001C43DD9B7390078001000100B717004056
:10053400930670052380D704930680FA2380D7049A
:100544000100010083C6670493E616002383D704E1
:1005540023800704F32600801C43A18BD58F73905E
:10056400078023A401880100010001A0BD473305D1
:10057400F50201007D1575FD8280411122C426C259
:1005840006C6AA84014463179400B24022449244EC
:100594004101828005041305803E4204C13F41802D
:1005A400DDB7B7170040130700032388E702854728
:1005B40023AAF18A73002030230304801547230300
:1005C400E48001002302A480828083076480E3CE58
:1005D40007FE23030480828083076480E3CE07FE42
:1005E40003454480828083076480E3CE07FE2302B0
:1005F400A4808280411126C44AC24EC006C6137725
:10060400F50BAD47AA892E8995446306F700194571
:100614006537653F8D444E854537FD59FD14639814
:100624003401B240A24412498249410182801355E7
:1006340009011375F50F453F2209CDB7011126CCE9
:1006440006CEB704080051371545BD3771376937F1
:100654002AC6A53F32459377150089EB136515002B
:100664001375F50FF240E24405618280FD14E9FC44
:100674000145CDBF397126DC4ADA4ED852D656D45C
:100684005AD25ED006DE62CE66CCB7E700E07D5774
:1006940083AA070022C603AA470023A0E71823A2BF
:1006A400E718B7170040130770052380E704130702
:1006B40080FA2380E70483C74704930B75FFB6844D
:1006C400E20793FBFB0F8546AA892E8B32893724D8
:1006D4000040E187015763FA76016308D500894633
:1006E400130700026313D5000157D98F93F7F70F4F
:1006F400B71C00402382FC0411472303E480130544
:10070400F00F5D3D094CD135636D7C11B7050700D1
:10071400DA9537870700795563F2E504B3879500C6
:10072400636EF702370B0800A94733EB6501639941
:10073400F90689E48144513D26850DA0DA850945F1
:10074400553D05090345F9FFFD14050B693D81C4B9
:100754009377FB0FFDF7DD3569FD7D55B717004035
:10076400130770052380E704130780FA2380E70446
:1007740003C74704418B2382E704F250B7E700E044
:1007840023A0571123A24711E25432445259C259AB
:10079400325AA25A125B825B724CE24C2161828013
:1007A400A5476395F90685691309F00FB306990007
:1007B400B3742B01B6941349F9FFB3749900856B94
:1007C40033796901416B9387F9FFB3F7270199E303
:1007D40063FC340193D94900C147E3E637FF99BF6D
:1007E4000569C1697D19D9B71305800D638869014D
:1007F400130500026384790113051008CA85DD3BE3
:10080400353D21DD4E99B3843441D9B7DA852D4580
:10081400D533CA94E30099F205097D3BA30FA9FEE1
:10082400D5BF9387F9FF93F7F70F6361FC0C83C778
:100834001C0413073008631FF70437070800636BB1
:10084400EB04B3079B00B706100063F5D704334BE2
:10085400EB0089476393F9068980D549E38C04EC5E
:10086400DA850945413B11090327C9FF9147232034
:10087400E48003076480E34E07FE23033481FD17FD
:10088400EDFBFD14110B81C49377FB0FE9FF7D335E
:1008940071F5E1B5B717004003C75704B70708005F
:1008A4001377070219E3B78707007955E378FBEA62
:1008B40033079B00E3FFE7F855B58547E382F9F278
:1008C400DA852D45053B9389F4FFE38504E6293356
:1008D40093F7390091EB83260480032709009307DB
:1008E4004900E39AE6E43E89CE84F1BFB5476396B6
:1008F400F9001305900BC93135BDB1471305B00A92
:10090400E38BF9FE99476391F904B7050800B365D1
:10091400BB002D45C53181448D4BA1497539639682
:100924007401832704802320F9008504E39834FFAD
:100934008327048013172B01635507002312F90042
:10094400D5BB2322F900FDB39D476399F902814584
:100954001305B0044531BD442320090023220900B6
:10096400FD599D3993F77400CA9703C70700FD1416
:10097400398D2380A700E39634FF6DBBA1476392B2
:10098400F9046D398144630D0B008D479304C00352
:100994006308FB009304000563048B019304400483
:1009A4001375C507E30895D8194539313939054513
:1009B400213126850D3909453D314931E31C05D6E0
:1009C40069BB91476399F90013056006F536F53E56
:1009D400130590090DB7E38F09D4F154A9BB19CDC0
:1009E40091CD09CE81473387F5008346070033074D
:1009F400F50085072300D700E317F6FE828019C9A6
:100A040091C909CA910583A7C5FF11057D16232E37
:100A1400F5FEC5BF828001C919C62A960505A30F34
:100A2400B5FEE31DA6FE828081473307F500030768
:100A3400070019E33E8582808507C5BF01112E8614
:100A440026CAAA84131506019305F004418122CC19
:100A540006CE32C6EF00B0562A8401C53246A685BA
:100A6400BD3F2285F2406244D244056182808547BD
:100A740015C18DC105C28147B306F5003387F50062
:100A840083C60600034707006398E6008507E3155D
:100A9400F6FE85473E8582808147EDBF9307F6FFCA
:100AA400BE952A966313C5008280FD1583C7150081
:100AB4000505A30FF5FEFDB7AA87014581CF09CE31
:100AC4003E96850703C7F7FF6317B700E39BC7FE8E
:100AD40005458280828001458280797197370000C4
:100AE4009387876322D4804306D626D24AD04ECE3B
:100AF40052CC56CA5AC85EC679C0B7C4C901014BA4
:100B0400973900009389C9609384F437173A000039
:100B1400130ACA60973A0000938ACA5A1739000028
:100B2400130909648357240095E35C44631D0B0097
:100B3400173700002322F75E832BC4002285EF00C1
:100B440030555E84B9A82326FB00FDB783A70900AE
:100B540082971C443307F5406376F5000327490068
:100B64001D8F2A9763E2E4089737000023A40756F1
:100B74008355240003450400975000E0E7802039A2
:100B84005C405844A1CB0C4403264900AE97BE8672
:100B940063E4B70063E4C700B386C74014C4228B80
:100BA4003A8449F0973700009387C7519C4B094713
:100BB4006372F706F91717370000232DF750B25068
:100BC400225492540259F249624AD24A424BB24BDD
:100BD4004561828063170B009737000023AEE7520C
:100BE400A1BF2326EB0089BF03274A0209CF63EF85
:100BF400A7003385A74083A70A016376F5009737DA
:100C0400000023A9A74C228B404461BF032749005D
:100C1400BA97C5B79737000023AE074A4DB74111BD
:100C240022C4173400001304A44C1C4006C626C278
:100C34004AC091C782979737000023AB074A97377A
:100C4400000083C7376B858B973400009384446A14
:100C540095C397370000A38F076883C774001547AF
:100C6400637AF700A12B83C77400F5178A07A2974C
:100C74009C4382971C4491C382971739000013093F
:100C8400694903270900173600000346B64397371E
:100C9400000083C7274393961700BA9683D60600AD
:100CA400D5CE9737000083C7E74163E3C70C973776
:100CB4000000238907401C40639D071297370000FA
:100CC40083C7976391CF83C7740093F7F70F89EBBA
:100CD40097370000A3820762975001E0E7804077CE
:100CE400973700009387C7429C4363840710973764
:100CF40000009387E746DC4317370000232CF73CBA
:100D0400E93B9737000093876741DC53FDC31737EE
:100D140000001307273B184B9737000083C7574140
:100D24006369F70C83C7740015476364F70C97373E
:100D3400000083C7A760918BCDEF03260900973687
:100D4400000083C6363863CCD70A2244B2409244AA
:100D540002494101175300E067006367850793F771
:100D6400F70F97360000238FF634E3E2C7F215BF7E
:100D740086073E9783550700231007009737000026
:100D84002396073897370000938747369C431735D7
:100D940000000345253313172500BA979C43829717
:100DA4009737000083D7873617370000034787310A
:100DB40093C7F7FF7D8D93171700032709003E970C
:100DC400835707005D8D2310A7009737000083C762
:100DD400672F91C78507173700002305F72E1737AC
:100DE40000000347272E9737000083C7B72DE37011
:100DF400F7ECB240224492440249410182801397A5
:100E040017003297035707006DF785072DBFAD67AD
:100E140037C70040BD072326F7200F10000097377F
:100E240000009387272AC84F83278726BD66BD06FF
:100E340093C7F7FF99836A052326D7205D8D8280A7
:100E44004111B7170040985F3AC6945F3247E39C5C
:100E5400E6FE3245410182801305F00F82800111C4
:100E6400973700009387075922CC03A4070C26CA9E
:100E740006CE2AC42EC6854419E40145F2406244D4
:100E8400D244056182808347910003471400858B17
:100E94006304F7000044CDB719469305A100130578
:100EA4002400F136E31895FE0545C9BF1737000045
:100EB400130707431C439306001094C30100010069
:100EC400010001001C4323A00700834615000348CA
:100ED4002500A2064208C29603480500C2960348AC
:100EE40035006208C29694D78346550003486500CE
:100EF400A2064208C29603484500C29603487500FC
:100F04006208C296D4D7834695000348A500A2067A
:100F14004208C29603488500C2960348B500620899
:100F2400C29694DB8346D5000348E500A206420836
:100F3400C2960348C5000345F500C2966205AA9609
:100F4400D4DB83C6150003C52500A2064205AA9674
:100F540003C50500AA9603C535006205AA9694CF79
:100F640083C6550003C56500A2064205AA9603C5BB
:100F74004500AA9603C575006205AA96D4CF83C618
:100F8400950003C5A500A2064205AA9603C58500DF
:100F9400AA9603C5B5006205AA9694D383C6D50064
:100FA40003C5E500A2064205AA9603C5C50083C58C
:100FB400F500AA96E205AE96D4D3D443F59AD4C3E9
:100FC400D44393E61600D4C3944393E6160094C323
:100FD400BA879443D842058B59E3984E01452300C0
:100FE400E6009843184F2183A300E6009843184F66
:100FF40041832301E6009843184F6183A301E6006F
:101004009C43D84F2302E600D84F2183A302E60075
:10101400D84F41832303E600D84F6183A303E6003E
:1010240098532304E60098532183A304E6009853BD
:1010340041832305E60098536183A305E600D85352
:101044002306E600D8532183A306E600D853418340
:101054002307E600DC53E183A307F6008280010046
:101064008DBF173700001307E7271443411122C42B
:101074009C5E4AC006C6998326C2858B3A8417397A
:1010840000001309E925D1CB9C5E973400009384BA
:10109400242693F7F7F99CDE173700000347A725AA
:1010A40093070008631BF700832709009C4393F709
:1010B4000704173700002300F72483C7040093F7BD
:1010C40007049DC397370000938787049C43829746
:1010D4009737000023A6A72283C7040093F7F70BD2
:1010E400173700002306F72083C7440093F707044B
:1010F4008DE7854717370000A30EF71E97370000CA
:101104009387C7209C43096798C7130700FC973649
:1011140000002381E61ED844F8D31C40985F118355
:10112400058B09CB985F3D9B98DF054797360000F8
:101134002382E61C985F1D83058B11CB985F137780
:10114400F7F798DF8547173700002305F71A832739
:101154000900D8430583058B19C7D843759BD8C3A9
:10116400D843799BD8C3B2402244924402494101F6
:101174008280397106DE16DC1ADA1ED82AD62ED4FD
:1011840032D236D03ACE3ECC42CA46C872C676C4B3
:101194007AC27EC0F935F250E2525253C2533255EC
:1011A400A255125682567247E2475248C248324EFE
:1011B400A24E124F824F21617300203097370000F6
:1011C4009387C7149443973700009387671203C724
:1011D4000700058B11CB97370000238D0710973735
:1011E4000000A3890710828003C71700058B65F7E9
:1011F400F85271FF83C75700DDB717380000130892
:10120400680E032708001C5F9583858BD1E709C608
:101214001C5BBD832300F60085CA83270800985B06
:101224004607935767016356070093E707C0C20751
:10123400C18303970600C207C18709C7BA97094744
:10124400B3C7E7022390F60085CD834715008DCB05
:101254009736000083C6260A93F606041387970080
:1012640089478DCA3A950347050085469947137601
:10127400F7066311D60262076187B947634C07001A
:10128400832708009C5FED838D8B17370000A3062E
:10129400F70681473E8582808547EDBF411122C410
:1012A40006C6173400001304640618403DE9AE87EF
:1012B4007453FDFE3E85B28597370000238B0702E9
:1012C400975001E0E78040EC97370000938787014F
:1012D4009C43B70680009843558F98C3D857719B99
:1012E400D8D797370000A387070097370000A3815A
:1012F40007001C40094798C3144017370000130720
:1013040027FF83472700858B89EB83473700858B2D
:10131400D9C797370000238F07FCB240224441010C
:1013240082808D476310F50297370000938787FB0F
:101334009C43B70680009843558F98C3D857719B38
:10134400D8D75DBF8547E319F5FA5447F977FD17F8
:10135400F58F5CC70F1000001C40096798C713077E
:1013640000F8173600002307E6F8173700001307C4
:1013740067F71043184231830D8B11E71307601987
:10138400F8D3D4C795BF1842094631830D8B631532
:10139400C7001307E043EDB71307E01BD5B7FC52B2
:1013A400ADF3A5BF5D71A2C4A6C22A841306800250
:1013B4002800AE849305100886C6CAC04EDE52DCEF
:1013C400EFF06FE53545975001E0E780001B1733D8
:1013D4000000130323F1832703009376F41F173EC1
:1013E4000000130EEEF723A40700984B973E00006D
:1013F400938ECEF1370FFCFF1367F70398CBF84FAA
:10140400130510F8B7020400137707E0558FF8CFDF
:101414009843F576FD16758F98C39843B706330045
:10142400930380251377F7E798C3984311497D1FE9
:101434001377F7E71367071098C303270E0085494E
:10144400930F80021C47D58F1CC783A70E00130778
:10145400900D3400B8CB014793553700A69583C748
:10146400050013767700B3D7C740858BE1C3832784
:10147400030083280E00239C07042390070603A877
:10148400C8021378D8FF23A6080383A8070013789B
:10149400F70793F808F833E8080123A0070103A825
:1014A40047023368580023A2070383A80E000148AB
:1014B40023A2780603DA07066307480303A8070391
:1014C400038A06001358F8006208135888416358C9
:1014D4000A0103A807031358F8002380060103D860
:1014E40007061378F80F03AA480663060A0003DA0E
:1014F4008705E37F49FB03A847023378E80123A269
:10150400070383870600635CF40003C80500339671
:10151400C9001346F6FF337606012380C5003E86D4
:1015240063D3A7002A8613158601618505071377FF
:10153400F70F8506E312F7F3B640264496440649AE
:10154400F259625A6161828097360000938606DC04
:101554009C42D84713161701635506029847131681
:101564001701635006027D57B8D7173700001307D9
:1015740067B5584F0507173600002323E6B61167F1
:1015840098C798470D83058B1DC317370000034781
:1015940047D61367170017360000230CE6D4130749
:1015A40000F8173600002307E6D4214798C7984768
:1015B400058B09CF17370000034797D3136717002C
:1015C40017360000A306E6D2054798C79847098353
:1015D400058B09E798470583058B31CF9847173664
:1015E40000001306E6D0173500001305A5CF0983C4
:1015F400058B630307101841184331830D8B75EB7A
:10160400AC4B184E93F5050203471700CDCD79EF87
:1016140013077006D8CF0347060013671700173661
:1016240000002307E6CC114798C718415C57F19B8B
:1016340093E717005CD79C4298479316370163D60B
:1016440006029736000083C666E2C18A1737000097
:10165400130747DAC5CE0347870713670702973690
:1016640000002385E6E0056798C79847931627018D
:1016740063D10602173700000347C7C762076187B3
:10168400635707000547973600002385E6C60967B8
:1016940098C798479316070163D606029736000049
:1016A40083C6D6DC858A173700001307A7D4ADCECE
:1016B400034797071367270097360000A388E6DAE5
:1016C400216798C7828029D785456315B70013071A
:1016D400B00689B789456315B7001307F0061DBF27
:1016E4008D456315B700130730072DB7130750074F
:1016F40015B71307600739BF034736001367170090
:1017040017360000A307E6BE094739BF834687079B
:101714000946BD8A6388C600034787078D463D8B0B
:10172400E313D7F4114725BF83469707918AC9DA93
:10173400034797071367870041B7397106DE16DC44
:101744001ADA1ED82AD62ED432D236D03ACE3ECC8D
:1017540042CA46C872C676C47AC27EC0F533F25015
:10176400E2525253C2533255A25512568256724710
:10177400E2475248C248324EA24E124F824F216174
:101784007300203097370000938747B898438567E4
:10179400938707777CD397370000938767BC9C4374
:1017A40083A60709139656006358060083A6070903
:1017B40013966600634406007453FDF2828071C57B
:1017C400AA870145E9C58D07C207C183F19BC207FA
:1017D400C18313074003636FF70217370000130731
:1017E400E7C00843173700001307C7BF14436398C3
:1017F400A6021737000013076792185B014541CB17
:101804004111C20706C60545DD8D0297B240014568
:101814004101828017370000130707BDD9B703576A
:10182400650035E303574500636FF704B306F740DB
:101834002146637CD60203280500938687001D8F0A
:10184400AA96611717360000035626882392E600ED
:1018540023A006012393060014C12312F5001307E5
:1018640086FF973600002392E6862313B50097354A
:10187400000083D58585B387F5401737000023160C
:10188400F7842105828008419DB7014582808280CA
:101894000DC197370000938767B503A307009737F7
:1018A4000000938727B483A8070081469A8763E3DF
:1018B4001701828003A80700636DF50A636BA80A09
:1018C40013878700E367E5FE03D6670021670507F2
:1018D4006317E60003C7C1930507238EE19297259A
:1018E40000009385257E03D6470003D76500239324
:1018F4000700329742074183172500002317E57C30
:10190400638A670217350000130505AE08416303B7
:10191400F50203D5660019ED83D7460023A006011E
:1019240021073E9621062392C60097270000239E96
:10193400E778B6879843E30E17F797360000938647
:10194400A6AA9442E307D7F683566700BDF283D66E
:101954004700035647001843A106B2962392D700C6
:1019640098C383D76500A10717270000231FF774C6
:101974008280BE86C28725BF0327851163020712B2
:10198400411122C406C68347C5008345E5042A8461
:1019940093F7C70F2306F500834697000356C70045
:1019A40013958601618563F2C508635B05060345EB
:1019B400870093F6F607A304D700054693E62700AD
:1019C4006314C50093E617002306D4005C4389071B
:1019D4005CC3A30AB400032504112E864C430905F5
:1019E400EFE0FFFF8327841103465401D44303D758
:1019F400C700B296118FD4C32396E7008947A30D7D
:101A0400F400034764039727000083C74772637891
:101A1400F7048347C40093E707012306F40081A079
:101A240093E717002306F4006DB79376F60F635D12
:101A3400050203458700854513E627006314B500B6
:101A440013E617002306C400A30AD400A304070066
:101A54008547A30DF400832784119C43DDF3B24032
:101A6400224401454101828093E717002306F400D4
:101A7400A30AD400A3040700032504114C43090559
:101A8400EFE0FFF58327841103465401D44303D7C1
:101A9400C700B296118FD4C32396E7008D4755BF74
:101AA4000545828097370000938787A79C4341119F
:101AB40022C406C6858B2A84C5EF4165130525F526
:101AC400970002E0E780C01245C58347A5002315AF
:101AD400F50083270412BDE72320A4122322A412B5
:101AE40085472311F40423200500834764015441EE
:101AF4002316F5000347D4002304E5000547A30497
:101B0400E500172700001307A77E184F1385170257
:101B140015811C437D151375F50F9CC25C43DCC213
:101B24001C479CC65C47DCC61C4B9CCA5C4BDCCA8D
:101B34001C4F9CCE5C4FDCCE19CD93860602130756
:101B44000702C1BF8327441288C383572404232276
:101B5400A412850779B79737000083D7278A8507AA
:101B640017370000231CF788B240224441018280C9
:101B74008347C40023090400054593C7470023068F
:101B8400F400DDB78347850193F7E70FD5EF83476B
:101B94009501DDEB034625018346C50009CA83454B
:101BA4006503172700000347975863E7E50013F719
:101BB400060141CF014709C6C18A0357651C81C686
:101BC4008356A51C369751C31307C7121725000067
:101BD40003558559B335A70237460F004111130643
:101BE4000624814622C426C206C67D543305A702B4
:101BF400973002E0E780200E9727000083C79753B1
:101C0400B384A700972700009387C77E03A787099B
:101C14008327070963F387003E84184375FB9727DE
:101C240000009387E74E9C43829781476364A40036
:101C3400B307A440B2402244B3B7970093C7170038
:101C440092443E854101828081473E858280972768
:101C540000009387A76B98437C53FDFF82807971C2
:101C640026D206D622D44AD04ECE52CC56CA5AC810
:101C74005EC68347550303447513AA843E941374C4
:101C8400F40F9307400263F687001304B4FD137442
:101C9400F40F03AA841383AAC413A38B8412228689
:101CA4005285D685973002E0E78060FD058915E509
:101CB40003CBD41201498149337B6403930B500253
:101CC4004A865285D685973002E0E78040FB058935
:101CD40015C5639169031374F90F238B8412B250F1
:101CE400225492540259F249624AD24A424BB24BAC
:101CF400456182808509E20993D989410509E31187
:101D040079FDE1BF8327850903560504797193D6CC
:101D14000701BD8EC206C182358E13577640935794
:101D24005640898B058B5D8F93573640918B5D8F21
:101D340093571640A18B5D8F93171600C18B5D8F4F
:101D44009317360093F707025D8F93175600935548
:101D5400860093F707041E065D8F1376F60F518FE6
:101D640093D7554013D63540118A898BD18F13D61A
:101D74007540D18F13D61540218AD18F1396150043
:101D8400418AD18F1396350013760602D18F1396AC
:101D94005500137606049E05D18F93F5F50FCD8F6C
:101DA400A20745465D8F3307C70222D42A8426D270
:101DB40052CC56CA032A8413832AC4135AC806D69B
:101DC4003697420741839357774013555740098903
:101DD400858BC98F135537401189C98F1355174007
:101DE4002189C98F131517004189C98F131537002D
:101DF40013750502C98F1315570093558700137582
:101E040005041E07C98F1377F70FD98F13D53540F3
:101E140013D755401189098B498F13D57540498FC4
:101E240013D515402189498F139515004189498F90
:101E34001395350013750502498F139555001375D5
:101E440005049E05498F93F5F50F4D8F2207D98F11
:101E5400B387C7024AD04ECE5EC662C4B697C207E5
:101E6400C18313D7774013D557400989058B498F10
:101E740013D537401189498F13D517402189498FCC
:101E8400139517004189498F13953700137505027F
:101E9400498F1395570093D58700137505049E0742
:101EA400498F93F7F70FD98F13D5354013D7554082
:101EB4001189098B498F13D57540498F13D5154066
:101EC4002189498F139515004189498F1395350050
:101ED40013750502498F13955500137505049E0566
:101EE400498F93F5F50F4D8F2207D98FB387C7021A
:101EF400130650025285D685B697BD8E939406017B
:101F0400C18033F6C402137BF60F973002E0E780FA
:101F140000D705890DED8347D41201498149B38463
:101F24009702130C5002C1804A865285D685973099
:101F340002E0E780C0D40589937BF90F11C563865D
:101F44003403850993F9F90F0509E31F89FD230B70
:101F54006413B250225492540259F249624AD24A4A
:101F6400424BB24B224C456182805E8BCDB7797176
:101F740022D406D683C735002E8423160100A30776
:101F8400F10083C74500100802C02307F10083C78E
:101F940055008A8502C2A306F10002C402C802CA1F
:101FA40002CC02CEEFE09FF00347F1018347040027
:101FB40001456310F7020347E1018347140001451B
:101FC4006319F7000345D101834724001D8D1335A0
:101FD4001500B250225445618280011197270000F8
:101FE4009387474122CC03A4870C26CA4AC84EC60D
:101FF40006CEAA8413092500854915C083C7140099
:1020040003473400858B6304F700405CFDB7194631
:10201400930544004A85EFE09FA5E31835FF228528
:10202400F2406244D2444249B2490561828041117E
:10203400972700009387073C22C403A4870C26C279
:102044004AC006C693042500054901E82285B2402A
:1020540022449244024941018280A6851305A402C8
:102064003937E30525FF405CCDB7411197270000C0
:102074009387473822C403A4870C26C24AC006C6E5
:1020840093042500054901E82285B2402244924484
:10209400024941018280A6851305A401C93DE305D7
:0820A40025FF405CCDB70000F0
:1020B00097110020938181DB17610020130181F4C7
:1020C0001305400097E5FF1F9385C5F31706002011
:1020D0001306C6FD63FAC5008322050023A0550040
:1020E00011059105E3EAC5FE17A502001305452673
:1020F00097050020938585FB1386018763FAC50049
:102100008322050023A0550011059105E3EAC5FED1
:1021100013850187972500209385C5416377B50016
:10212000232005001105E36DB5FEFD42739002BC4E
:102130008D4273904280930280087390023097E240
:10214000FF1F938222EC93E2320073905230972269
:102150000000938262BD73901234730020303D43BF
:102160002A876373C3029377F700BDEFADE59376DB
:1021700006FF3D8ABA960CC34CC30CC74CC7410737
:10218000E36BD7FE11E28280B306C3408A06970252
:10219000000096966780A6002307B700A306B70045
:1021A0002306B700A305B7002305B700A304B700B3
:1021B0002304B700A303B7002303B700A302B700AB
:1021C0002302B700A301B7002301B700A300B700A3
:1021D0002300B700828093F5F50F93968500D58D87
:1021E00093960501D58D61B793962700970200005D
:1021F00096968682E78086FA9680C1171D8F3E9656
:10220000E374C3F8A5B7011106CE22CC26CA4AC88A
:102210004EC62E84EF5082732A8903552402EF5054
:10222000E272979702009387A7158C43AA844A8588
:10223000EF405278979702009387C7148C43AA897E
:102240002685EF403277AA854E85EF50C21F9797BB
:102250000200938767138C43AA894A85EF409275E1
:1022600097970200938787128C432A892685EF402F
:102270007274AA854A85EF50021DAA840315440290
:10228000EF506260AA852685EF40D272AA840305CA
:102290006402EF50425F979702009387670F8C4369
:1022A000EF4052712A89CE854E85EF40B270AA85E3
:1022B0004A85EF403270AA852685EF40C27C979709
:1022C00002009387270D8C4348DCEF407232F240C6
:1022D0006244D2444249B24905618280797122D474
:1022E00097970200938787042E845AC88C432A8BC1
:1022F000485C06D626D24AD052CC4ECE56CAEF40C3
:10230000726B979702009387A7028C43179A02007B
:10231000130A8A02EF502213AA840305C402EF5065
:102320008256A685EF401269A685EF40B26897975E
:102330000200938767058C43EF40D2672A89031513
:10234000A402EF504254A685EF40D266AA854A8582
:10235000EF406273979702009387C7FD8C43EF406D
:10236000726583250A00EF40F26497970200938715
:10237000E7FC8C43EF4022712AC603558402EF50DC
:10238000E25CB245EF4012632A89EF504244630396
:1023900005180305240397990200938969FEEF50FD
:1023A000824E83A50900EF40F260AA8AA6852685A1
:1023B000EF405260AA855685EF40D25FAA8A031586
:1023C0000403EF50424CA685EF40D25EAA85EF4051
:1023D000826BD685EF40226B97970200938747F672
:1023E0008C43EF40325DAA8A5A85EF502256979768
:1023F0000200938727F5AA858843EF50C204AA8478
:102400000315E402EF502248979702009387C7F321
:102410008C43EF40325AD685EF40E2669797020030
:102420009387C7F28C43EF40F258AA852685EF5078
:102430008201979702009387A7F18C43EF40925750
:10244000CA85EF40F21A979702009387A7F08C4352
:10245000AA84EF4032562A8903156403EF50A24242
:10246000A685EF403255A685EF40D25497970200DB
:10247000938787EE8C43EF40F253AA8A03154403F7
:10248000EF50624083250A00EF40D252A685EF400C
:102490007252AA855685EF40025F2A8A034584035B
:1024A000EF50623E83A50900EF40D250CA85AA8949
:1024B0004A85EF403250CA85EF40D24FAA854E85FB
:1024C000EF40524FAA855285EF40E25B2A8903050F
:1024D0003403EF50423B97970200938727E88C43E1
:1024E000EF40524DAA854A85EF40E2599797020086
:1024F000938707E78C43EF40F24BA685EF40A25845
:10250000B250225492540259F249624AD24A424B82
:102510004561828013050000E5B70111979702001D
:10252000938747E722CC2E8452C48C432A8A485C86
:1025300006CE26CA4AC84EC656C2EF40720BAA84BF
:102540000305940197990200938909E4EF50A2339F
:1025500083A50900EF401246A685EF40B245979744
:1025600002009387A7DD8C43EF40E2512A890305DF
:10257000A401EF50423197970200938767DA8C43AA
:10258000EF405243A685EF40F242A685EF409242CB
:10259000AA854A85EF40224F2A8903556401EF50EE
:1025A000E23A979702009387E7D78C43EF40924037
:1025B000AA854A85EF4012402A895285EF50023998
:1025C0002A8A03058401EF50022C97970200938713
:1025D000E7D58C43EF40123EA685EF40B23DAA8A74
:1025E00003554401EF50823697970200938747DAEC
:1025F0008C43EF40323CAA855685EF40C248AA85FD
:102600005285EF405264AA854A85EF40B23A2A8942
:102610000305C401EF502227979702009387C7D084
:102620008C43EF403239A685EF40D238AA84034567
:10263000B401EF50A23183A50900EF40B237AA855B
:102640002685EF404244CA85EF40D236CA85EF4026
:102650007236CA85EF40224397970200938707CCD2
:1026600084432A84A685EF40D2236345A0029305C4
:1026700000002285EF40522B635405001304000034
:102680002285F2406244D2444249B249224A924AE7
:10269000056182802684EDB7011126CAAA840395BC
:1026A000E50106CE22CC4AC82E844EC6EF50A21DAC
:1026B00097970200938747C88C43EF40B22F9797B4
:1026C0000200938727CA8C43EF40D22E97970200CF
:1026D000938787C98C43EF40023B930700192A89EF
:1026E0001305001963E39700268542054181EF50E9
:1026F000E225AA854A85EF40F22B97940200938445
:10270000E4C38C40EF4022382A890305D401EF50FE
:102710008217979702009387A7C48C43EF409229B2
:1027200097970200938787C48C43EF40C235AA85F0
:102730004A85EF4032282A8903050402EF50A2148B
:1027400097970200938787C48C43EF40B226AA89EB
:1027500003051401EF502213AA854E85EF40922500
:10276000AA854A85EF402232AA89034504041799B5
:1027700002001309E9BFEF50621D83250900EF40F5
:102780008230AA8503250900EF408266AA854E851E
:10279000EF4052222A8903051404EF50C20E979786
:1027A0000200938727BD8C43EF40D2208C40EF403E
:1027B000822DAA858840EF40A263AA854A85EF4012
:1027C000721F97970200938727BB8C43EF40B24755
:1027D00097970200938787BA8C43EF40B21DEF5062
:1027E0002205F2406244D2444249B2491375F50FC2
:1027F00005618280FD5719C97841FD5701CB3845E5
:1028000011C77C4593B71700B307F0403E8582801F
:10281000011122CC2A84328506CE2EC632C4D93F7D
:102820001DE183470400B24563FBF5002246230007
:10283000B4008347160593E71700A308F604F24097
:102840006244056182807D55DDBF357122CD26CB86
:102850004AC9AA842E893284979502009385C5A11E
:10286000130600040A8506CF4EC752C556C3EF5063
:10287000E22C13060004979502009385E5A38800D7
:10288000EF50C22B2685EF50620C9797020093877A
:10289000E7A78C439314290097990200938909A80C
:1028A000EF40723A2A8A2285EF40F27D9797020024
:1028B000938707A68C4317940200130424A8EF40C3
:1028C000720F979702009387E7A48C43EF40A21BF7
:1028D0001C01BE9483A50900AA8A03A504F8EF4051
:1028E00022510C40EF40221AAA855685EF40920CE7
:1028F000AA855285EF40C24F0C40EF40C21883A515
:1029000009002A8A03A504FCEF40824E0C40EF40E8
:10291000821797970200938727A08C43EF40920974
:10292000AA84054533152501EF504202AA85268564
:10293000EF405208AA855285EF40D207AA85084089
:10294000EF40024BFA406A44DA444A49BA492A4AFB
:102950009A4A0D61828062056185C1476353050013
:10296000814703C705016319F700014582800145CE
:10297000F240624405618280011122CC06CE238898
:10298000F500D441FC412E8405469305F100130562
:10299000300F82972308A4040DE50347F100834715
:1029A000040154403D9BC18BD98FA307F1003C44E7
:1029B00005469305F1001305300782972308A40408
:1029C0005DD5795575B77C415441011122CC06CEB5
:1029D0002A8405469305F1001305300F82972308DA
:1029E000A40411E98347F100C18B2308F400F240ED
:1029F0006244056182807955DDBF5D7156DAAA8A2D
:102A00003685A6C24EDE52DC86C6A2C4CAC05AD8DB
:102A10005ED62E8AB289B68402C602C802CA02CC29
:102A200002CEC93B51E563850A0863030A08938710
:102A3000F9FF25476360F7081309C1000144DC442E
:102A4000B38B8A0003CB0B00ADE32685653301E52C
:102A5000A6855A85093783C70B0093F7F70723002C
:102A6000F900B3078A0083C7070005040909A30F0B
:102A7000F9FEE31634FD19EDBC44D4400345C10012
:102A8000131614007D169305D10082972388A404A1
:102A900011C17955B640264496440649F259625A06
:102AA000D25A425BB25B616182802300690155BFEB
:102AB0007D55CDB77155F9BF79714AD02A893685D0
:102AC00026D24ECE06D622D4AE8932C6B6841D3367
:102AD00021E1638F0902DC442A84324689EBA68512
:102AE0004A85953D2A84324619E113690908FC405C
:102AF000D440CE854A8582972388A40411C1795495
:102B00002285B250225492540259F2494561828082
:102B10007D54FDB7011181572307F100930760FB36
:102B200022CC26CA06CEAA84A307F100E1312A846A
:102B300001EDDC4485C3A68605469305F100130527
:102B4000E100653D2A8401CD2285F2406244D244F1
:102B5000056182802685853D2A847DF5E9BFFC4498
:102B6000CC400965130505718297DC44F1FF268589
:102B700051312A8471F92685B9352A84F1B7397122
:102B800006DE22DC2A847937A2860546A285130553
:102B9000000D1D37AA876315051683460400130729
:102BA0001006F557639EE614A28605464C001305F1
:102BB000000F230201000937AA8763130514834716
:102BC0004100A2865D461CC44C001305A008ED35EB
:102BD000AA8763170512A28639469305B10113052A
:102BE000100ED93DAA87631D0510A28615469305D0
:102BF0009102D935AA876315051003474102834620
:102C000031020346C1012207558F2311E402034715
:102C10005100834641002207558F2312E4020347E7
:102C200061008346E1002303E402224718D40347EE
:102C3000C1002306E4020347F1002207558F231742
:102C4000E40203471101834601012207558F23182F
:102C5000E40203572101931687002183558F23191E
:102C6000E40203477101834661012207558F231A4D
:102C7000E40203479101834681012207558F231BFC
:102C8000E4028346D1010347A1019206230CE4022A
:102C90001377F600D98E0347B1011182231AD400AD
:102CA0001207518F231BE4000357E10183465102B1
:102CB000231CE40003570102231DE4000347210203
:102CC000230EE40003477102A30EE40003476102F0
:102CD0002207558F231FE400034781022300E402EB
:102CE0000347B1021377070311872300E404034766
:102CF0009102A300E4040307D10211872301E40435
:102D0000F25062543E852161828079714ECE9307E4
:102D10004007896926D24AD006D622D42A89AE84B1
:102D2000A307F10093890971A68605469305E10082
:102D30001305400751332A8415E58347E10013F753
:102D400037000DCBF19B9305E100A68605461305E0
:102D5000F1002307F1005531FC44CC402A844E8514
:102D6000829779D02285B250225492540259F24966
:102D700045618280E30809FEF19B13793900B3E7CE
:102D80002701A68605469305E1001305F1002307F8
:102D9000F100A5312A84F9B70DC5011122CCAE8608
:102DA0002A849305F10005461305400706CE293312
:102DB0008347F1008D8B2300F400F24062440561EB
:102DC00082807D55828093870186984383C7470020
:102DD000797122D42A841305F10026D206D6AE8456
:102DE0003AC8230AF10002CC230E010075376314A0
:102DF0000510A685193FAA8719ECFD570345F10078
:102E000009C581E7A6851137AA87B250225492548A
:102E10003E85456182807DF103450101A686154608
:102E20002C085939A3880404AA8769F926869D4588
:102E300013053400EFF0DF9DAA8769F126869545DA
:102E400013051400EFF0DF9CAA874DF926869545FF
:102E500013052400EFF0DF9BAA874DF126869545E8
:102E60002285EFF0FF9AAA8751F92686A14513051E
:102E70004400EFF0FF99AA8751F1834734000347DC
:102E8000C101834614008A070D9BF18BD98F03473C
:102E9000B1019606E2070D8B558F83462400E1872A
:102EA0008A06F18A558FA30DE1008346040003478B
:102EB00091019D8A619B558FA30CE100034744005B
:102EC000A1466307D70281461607FD8BD98F230ED3
:102ED000F100834781019E06154693F7F707D58FCA
:102EE0002C08A6860808230CF100013EAA8739B7F2
:102EF00085460147D1BFAA87E31204F0FDBDB7079D
:102F000002040111938707103EC48567A10706CE0E
:102F100022CC26CA4AC82316F10081E90145F240B5
:102F20006244D2444249056182802E842A899545B3
:102F300013051400B284EFF0BF8D6DF12686954520
:102F400013052400EFF0DF8C71F926869545228564
:102F5000EFF01F8C61F5834714001808BA970347F8
:102F6000240003C587FF1C083E97834787FF180886
:102F70003E9583470400BA9783C787FF0947AA97FE
:102F80001305B07AB387A70205656316E900130538
:102F9000550C3E9569B71305D54AE5BF2D713C091F
:102FA000232C81102328211132C42A892E843E85A6
:102FB000130680048145232A9110232E1110232605
:102FC0003111232441112322511123206111DEDF0D
:102FD000E2DDE6DBEAD9EED7B684EFF04F981C19B4
:102FE0002ADC3EDE2685BC01BEC0EFF0BF8015C9DD
:102FF0007D5D8320C111032481116A8583244111E1
:10300000032901118329C110032A8110832A411049
:10301000032B0110FE5B6E5CDE5C4E5DBE5D1561D8
:10302000828079D485476310F91E89679387077179
:103030003ED0930734003ED2930744003ED493071A
:10304000540082D282D482D682D8230A01069549BE
:103050003ED6A6864546CC107545EFF0FFA58347C2
:1030600061062A8D034541063EC683478106834695
:103070005106137705083EC88347C1063D89A30062
:10308000A4003ECA834711072301D40094443ECCD8
:1030900083473107834A7106034C91063ECE85472C
:1030A000034BA106834CB106834DD106834B210708
:1030B000034A41076397F61093760A03558F23005E
:1030C000E40062076187635E071063120D12925578
:1030D000A68605461305A505EFF01F9E2A8D6318E9
:1030E000051003451400A255A686130505050546DF
:1030F0001375F50FEFF05F9C2A8D631A050E0345DB
:103100001400B255A6861305450605461375F50F3E
:10311000EFF09F9A2A8D61ED120B93DC4C00336B1C
:103120009B011315CC00A6853365AB00EFF0AF8D86
:10313000C24708C4920A13D54700B247B3EAAA00AF
:10314000A6851395C70033E5AA00EFF02F99D24763
:1031500048C4A685139587003365B501EFF0EFBB32
:10316000984408C885476311F706F24737050400FD
:103170009394270093576A00DD8C938404E08D4775
:10318000B384F402137AFA0033554501EF40027C10
:1031900097870200938747178C43EF40A201AA89C3
:1031A00005652695EF40226EAA854E85EF30524484
:1031B00048C803070400014D634F072A0149094D20
:1031C0005DAC93F60B03DDBDE2470386240493F563
:1031D000FB001395270093D76B005D8DEFF0EFE6B2
:1031E000C1BF63160D00F844CC4002550297FD198B
:1031F00093F9F90F63860900E30D0DE40149A5ACCD
:10320000E3090DFAE5BF79191379F90F63EB272765
:10321000130630038145C810EFE07FF493094104A1
:10322000794681454E85EFE09FF3A686130630036D
:10323000CC107545EFF05F882A8D63180516A686B9
:103240007946CE8513050005EFF01F872A8D930D73
:10325000410613098103054A0D4BB70B0400178C77
:103260000200130C6C0A856C63110514832A090093
:1032700003C61D0003C82D0003C55D002381CA00DD
:1032800003C63D003208320512063368C80003C683
:103290004D0083C50D0003C38D0011823368C80043
:1032A00003C66D0003AF840013F705081206518DA5
:1032B00003C67D00BD892380EA001182518D03C6BB
:1032C0009D0022036207A380BA003363C30083CE4C
:1032D000DD0003CEED0003C6FD0083C80D0161874C
:1032E000631B4F0F139F8801135F8F41937F0F0262
:1032F0003367F701137F0F013367E7019C112380C8
:10330000EA003387B700834547F646D032CE2382A2
:10331000BA008345E7F6034787F772CCA381BA006A
:10332000A382EA00A68576CA1AC842C6EFE0BFEDBE
:10333000324823A4AA00A6854285EFE03FFA424323
:1033400023A6AA00A6851A85EFF02F9D984423A8EE
:10335000AA00D24E624E724682586311470913D7B3
:1033600068000A06598E130606E03306660313F555
:10337000F80033D5AB0032C8EF40425D83250C0026
:10338000EF30526342462AC633059601EF40A24F02
:103390003247AA853A85EF30B22523AAAA00C50D87
:1033A000930771091109E393FDEC2418268701495D
:1033B00063140D0A14438386060063D506000509CD
:1033C0001379F90F1107E397E9FE34188548054F83
:1033D000094E8D4E1DA8131F8E0139B70386240494
:1033E0008A0E13556E009375FE0033E5AE00EFF0C4
:1033F000CFC565B7634E0704850513F7F50F63174F
:10340000D7019106638AC8058948C6858842139604
:1034100025003C183E960328060003030500030719
:103420000800E35903FCE35907FC03432500034765
:1034300028003307674042074183130327004203F4
:103440001353030163766F0042074187E356EEFA98
:1034500023A0060108C24DB793098404631B0D0025
:103460008C40228561466104EF40426D9104E3196E
:1034700034FFE30609D4A247E38C07B62380270173
:103480008DBE0149054DC5BF9D67597193870717CB
:1034900086D6A2D4A6D2CAD0CECED2CCD6CADAC8CC
:1034A000DEC6E2C4E6C22316F100638F050E2A8A47
:1034B0002E890145B285B289EFF03F852A846315D4
:1034C000051E9307E006A305F10002C802CA231CEB
:1034D000010002CE02D02312010202D402D6231828
:1034E000010202DA02DC231E010289476304FA1496
:1034F0008D476307FA0A854705446317FA1A03558F
:1035000029009307A005CE852308F100EFF0CF989E
:10351000035749009307400685662304F102230EF2
:10352000A1009386F6FB9307F00F63EBE60081475B
:103530009306F00363E1E6069A07BA9793F7F70F4D
:10354000230AF1028144CE8652866C080808EFF007
:10355000CFCA2A84631A0514CE8652864C182810C6
:10356000EFF0AFC92A8463110514CE8609464C18C2
:1035700013050007EFF04FD42A8463170512834721
:10358000090005476397E71803A78900630EF71A38
:103590000547814649A28507098393F7F70F59BF6D
:1035A000832BC90063940B007D54FDA8032C890074
:1035B000E30C0CFE034A0901056B0144130BFBFBF2
:1035C000930CF0039374F40F63E44401D284A5BF19
:1035D0001C081387A405A297931A14002380E70000
:1035E000B3075C0103D50700CE8593844406EFF052
:1035F000AF8A7C08A2972380A7003C10A297238063
:103600009700DE9A03D70A009307F00F6369EB0077
:10361000814763ECEC009A07BA9793F7F70F5818B5
:1036200022972300F700050471BF8507098393F7EC
:10363000F70FC5B7032CC900E3080CF6832C8900EB
:10364000E3840CF68354290191E00D44034A0901F7
:10365000814A13FBFA0F63674B0713072078930720
:10366000F00F636697029307803EB387F402130757
:10367000D01D9306F003B3D7E702139707014183E8
:10368000814763E3E6089A07BA9793F7F70F230594
:10369000F10019E8CE8605469305A1001305B10097
:1036A000EFF0AFB52A841DD12285B650265496542A
:1036B0000659F649664AD64A464BB64B264C964CB6
:1036C000656182801C081307AB05D697939B1A008F
:1036D0002380E700B3877C0103D50700CE85130B59
:1036E0004B06EFE07FFB7C08D6972380A7003C10B9
:1036F000D69723806701E29B03D70B005C18D6970F
:103700002380E700850AB1B78507098393F7F70F90
:103710008DBF01478546834741038E061207DD9B17
:10372000D58F230AF10283475103CE860946C19BF8
:10373000C58F93F7F7FCD98F4C186800A30AF102E4
:10374000EFF0AFAB2A848DB70947A1B541111377CC
:10375000F60FAE862A869305600717F5FF1F13053F
:10376000A59506C60D2B09E57955B2404101828029
:103770000145E5BF41111377F60FAE862A86930502
:10378000600717F5FF1F1305259306C62D2109E5D0
:103790007955B240410182800145E5BF4205418132
:1037A00017D3FF1F6700C3DC397122DC2A84084964
:1037B00006DEEF40822697870200938727B62AD439
:1037C0002ED648448C43EF30A262EF4002252AD027
:1037D00008442ED2EF4062242ACC48482ECEEF4037
:1037E000C2232258B258025792576246F2462AC064
:1037F0002EC2178502001305A5BBEF40F25E62548E
:10380000F25017850200130525C021616F40D25D7B
:103810005D71B707050493871720AA85A2C42A847F
:10382000680086C6A6C2CAC03EC6EFF0CFD97C44A7
:103830004C40A964138504C482978547230AF1008C
:103840009307C0122286231BF1004C089307400601
:103850000545231CF1000D397C444C40138504C4FC
:103860001549829717850200130545BAEF40D269C2
:103870009304803EA2850545EFF02FC922866C0097
:103880000545EFF0CFE7835781014C40B38797029E
:103890003E95330525037C448297A2861306B1002A
:1038A0002C100545EFF08FEF8347B100E1D72810CA
:1038B000E53DC9B7854723A0F19A97070000938794
:1038C00027E923ACF19C970700009387E7EA23AE32
:1038D000F19C970700009387A7EC23A0F19E97F730
:1038E000FF1F9387A7D8411123ACF1981385419905
:1038F000E14706C6A382F19AEFF06FA801C9AA8535
:1039000017850200130545A9EF40124E1385419912
:1039100001378347050081EF371700405C4183265C
:10392000070A93C7F7FFF58F2320F70A8280054720
:10393000639CE700371700405C418326070C93C760
:10394000F7FFF58F2320F70C82808347050091EB6A
:10395000371700408327070A5441D58F2320F70AE1
:1039600082800547639AE700371700408327070CDA
:103970005441D58F2320F70C82808347150081EFB7
:10398000371700401C458326070A93C7F7FFF58FBA
:103990002320F70A82800547639CE7003717004021
:1039A0001C458326070C93C7F7FFF58F2320F70CE0
:1039B0008280411122C406C6834705002A8485E718
:1039C00048418545EF10A058371700408327C70AA4
:1039D0005440D58F2326F70A2285253F228522448D
:1039E000B240410159BF0547E398E7FE484185458C
:1039F000EF104060371700408327C70C5440D58F25
:103A00002326F70CD1BF8347150091EB37170040F1
:103A10008327070A1445D58F2320F70A828005479C
:103A2000639AE700371700408327070C1445D58FAA
:103A30002320F70C82800347150019EBB7170040CD
:103A400083A7470A0845E98FB337F0003E85828097
:103A500085468147E31CD7FEB717004083A7470C74
:103A6000D5B7794517D3FF1F670083B0411106C64C
:103A700022C42A841937F5372285613DDD37228536
:103A80005D3F11E50145B24022444101828022851B
:103A90009D3FC13F2285453775F522857D35D1375C
:103AA0000545D5B7411122C426C24AC006C62A8997
:103AB000AE842144593D93978401E1874A8563D6BA
:103AC0000702653D4A85B1357D14613F4A8586040C
:103AD0001374F40F9D3D93F4F40F613769FCB24009
:103AE00022449244024941018280313FE1BF4111A9
:103AF00006C622C426C22A8449352285193D93046C
:103B0000803E85372285053F19C9FD14C204C18056
:103B1000F5F81785020013056594EF40F22C228515
:103B2000193F19CD228515351785020013054594D7
:103B3000EF40922B0145B2402244924441018280E1
:103B40000D3722851935313F0545F5B7411106C6B8
:103B500022C426C24AC0A1442A890144393D1137F2
:103B60004A85E533FD3D4A856D3306044A85137465
:103B7000F40FD13519C113641400FD1493F4F40F3C
:103B8000CD35F9FC2285B2402244924402494101DC
:103B90008280411106C622C42A84453BD93522853C
:103BA0009D35C1352285B5336D3D2285F9332244DB
:103BB000B24041017DB5797106D622D44AD02A841B
:103BC0004ECE52CCBA89328A56CA2EC6B68A26D270
:103BD000713DB24522850149860593F5E50FD9353A
:103BE000228531373DE5AA84178502001305058932
:103BF000EF40921F2285713FB25022542685025910
:103C00009254F249624AD24A45618280D29593F534
:103C1000F50F2285413D2285D93DAA8411E51785FE
:103C200002001305E585E9B7B3872A0183C50700BC
:103C300022858D3D2285653DAA849307190009E9F7
:103C4000CA85178502001305E583EF40F2195DB7B9
:103C50003E899375F90FE31B39FB22851D3F85448F
:103C600061BF011122CC2EC62A8406CEEFF0FFCD13
:103C7000B245228599EDEFF05FD0E5332285EFF074
:103C80005FC9C5332285EFF05FCC6244F240056125
:103C9000C9BB953BDDB7797126D2AE8432C606D654
:103CA00022D44AD02A843A894ECE52CCB689860490
:103CB000753B93F5E40F2285F53322850D3D3246A1
:103CC00001ED2285F9350145B25022549254025932
:103CD000F249624A456182802285B285E1332285BC
:103CE000393565D12285593393E51400228593F542
:103CF000F50F4D3B2285E53B69D58144130AF9FF59
:103D0000639424010545C9B722858935B387990095
:103D10002380A700854563C34401814522859137EF
:103D20008504F9BF4111054506C622C4EF10E036EF
:103D30001305800497C0FF1FE78020383714004028
:103D40008327840A85451305001093E70720232461
:103D5000F40AEF10C01F8D4513050020EF10201F3F
:103D6000EF1060570D45EF10205A95450545EF10AF
:103D7000405BB7E700E03707000823A0E710EF102B
:103D8000D038EF10F049EF80F11C6D2917E5FF1FC7
:103D90001305C531EFF0FFC117E5FF1F1305C5314E
:103DA000EFF03FC1914513050008EF10A0248327D1
:103DB000C40C05651305853893E707082326F40C22
:103DC00097C0FF1FE780A07BEFF0DFAE01A02A863F
:103DD000B305B040177502001305C5786F40D200D7
:103DE000011106CE19C589476301F502F24005614C
:103DF0008280680097D0FF1FE780A0BE1785020071
:103E000013054583EF405210D5B7680097D0FF1FC8
:103E1000E78020BD1785020013058583E5B783D7AA
:103E2000C1876390A702239FB1862390C188239105
:103E3000D1882E86177502001305C570BE856F40A8
:103E4000A27A17750200130565716F40F20B0357D4
:103E50004500011106CE83D7C187631FF702C167F2
:103E6000F917894503C5818023AEF18623A0018817
:103E7000EF20A044914503C58180EF200044854791
:103E80001306F100854513055030A307F100EF80BC
:103E9000C157F24005618280177502001305056C59
:103EA000EF409206FDB73D897D15954763E4A7165F
:103EB000177702001307875D0A053A951C414111E7
:103EC00022C406C6BA972E8482871775020013058E
:103ED000E56A2244B24041016F40120383C72500C6
:103EE00019476391E7022E859D3783456400177556
:103EF00002001305A569EF40226F17750200130534
:103F0000A56AC1BF0D47E38AE7FEB24022444101E2
:103F1000828003C725009547E319F7FEC16703D7E1
:103F2000C187F91703D5A500630FF700EF801100D3
:103F30001775020013054568EF40027D17750200F2
:103F40001305056A79B7239EA18683D7E50013067A
:103F5000001903C58180239FF18683D70501239033
:103F6000F18883D7250189452391F188DD47A3890D
:103F7000F180EF200012096613060690A14503C5E3
:103F80008180EF2000110566130606C8914503C520
:103F90008180EF2000100356E4008355A4001775BC
:103FA00002001305A562EF40226449BF03C7250044
:103FB0008D471775020013056563E318F7F411BF09
:103FC00083C5250091476397F50017750200130517
:103FD000656301B79947639FF50022858D3D834551
:103FE0006400177502001305655A2244B24041016E
:103FF0006F40825F9547639AF50083471400F1F79D
:10400000177502001305C561E9B5177502001305A0
:10401000A561E1BF828079719397050126D206D60A
:1040200022D4C187AE8463D2070A03C58180EF1012
:1040300030392A8421C9834705001307000B6385A3
:10404000E7061307000D639CE702834725004547F9
:104050006381E70465476394E7020348A50083474B
:104060009500034785008346750003466500834538
:104070005500177502001305E542EF40E256228510
:10408000EF10F02C2165258DB250225492544561D9
:10409000828003466500834575001775020013058D
:1040A0006543EF406254E1BF034745009307F007C3
:1040B000E317F7FC83558500177502001305454388
:1040C000A389B180EF4042525DBF93F7150085C3CD
:1040D00017E6FF1F130606FF97050020938585F757
:1040E00003C58180EF70B17E13C5140071BF93F7D3
:1040F0002500638E070C13060019894503C58180CE
:10410000EF10307983C74188850793F7F70F238233
:10411000F1881547B3F7E70202C602C802CA02CC0B
:1041200002CE09476387E7040D47638BE704054721
:10413000639DE70017E6FF1F03566653977502005D
:104140009385453C6800EF40E25C8347C10099CF0E
:104150006800EF40826083C73181F9176349F50237
:10416000177502001305C53BEF40025A13C5240022
:1041700021BF03D621879775020093856539D9B78A
:1041800003D60187977502009385053965BF13161D
:104190000501418201478146ED4503D5C1872313BF
:1041A000C100EF70801E2AC471D1035661006C00FB
:1041B00097D0FF1FE780E0824C0003D5C187EF1046
:1041C000605B4DD5ED454800EF70E03345B793F7A0
:1041D000850085C383C78180130740068146130687
:1041E0004006994503D5C187EF70D16713C5840098
:1041F00061BD93F705019DC3014789460946814585
:1042000003D5C187EF80C154AA8517750200130535
:104210002532EF40623D13C50401BDB593F745005B
:104220000145E38307E603D5C187EF80E14F0566CB
:10423000130606C8914503C58180EF10906513C52C
:10424000440099B5397117050000130505DD06DE38
:1042500022DC26DAEF20803A938481809947054456
:104260002380A400231AF100100893074006854517
:1042700013055030231EF10023088100EF80E11860
:1042800017E6FF1F130646E6C54513057030EF809D
:10429000C1171386C1809D4513056030EF80E1167C
:1042A0005008894513051031EF80211670088945A3
:1042B00013052031EF806115930500050D45EF4092
:1042C0008019930500051145EF40E01885457945B3
:1042D000EF40601870089145130570402304810079
:1042E000230681002308810002CE230A0100EF602B
:1042F000715A3000854513050040EF60B1597000D8
:10430000854513051040EF60F158500885451305A9
:104310002040EF6031581008854513055040EF608C
:1043200071577D55EF60B04E7D55EF90A016EF10A0
:10433000401B7D55EF10003617E6FF1F130646D9C8
:10434000D5450145EF60503B89472306F1008D4775
:104350002308F10002CE9147230EF1009387818656
:10436000984383C747003000854501453ACA230C6E
:10437000F1002304810002D002D202D402D6EF1051
:104380000037700085450545EF10603610088545FB
:104390000945EF10C0357008D1450D45EF102035A7
:1043A000500895451145EF108034C1671387C187C8
:1043B000F9171CC32322070013854180EF104032F8
:1043C00013854187EF50F12403C504008545EF10A4
:1043D000D033F2506254D25421618280B71700402A
:1043E00003C777051377E70FA38BE704130700F8DC
:1043F000A38DE7043D47238CE70413075003A38CE8
:10440000E7048280B717004083C7E7020D8993F75E
:10441000C70FC98F73270080218B9386818809CBB2
:104420007327008023A4E18898425D9B7310078066
:104430000100010037170040130670052300C70470
:10444000130680FA2300C704010001002307F702C6
:1044500023000704732700809C42A18BD98F73909F
:10446000078023A4018801000100828041112A8372
:10447000014E930E407E130F0019930F400663E622
:104480006E149308001913034006B3781503854E84
:104490000D4FA14F337365020D891335150063E08D
:1044A000BE161308F6FF79467298420813580801A1
:1044B0003307C70213D61700BE0732976146B3F61B
:1044C000C60213068070B386C6023697A166F58FC2
:1044D00042075D8FB716004083C7F60293F70708BF
:1044E000A307F1000346F10083C7F60293F707081C
:1044F000E394C7FE8347F100B716004093F7F70F28
:1045000063890714F3270080A18B938681886398C1
:10451000071401000100B71700401306700523803F
:10452000C704130680FA2380C7040100010023AAF0
:10453000070303C6170313660608A388C702238070
:104540000704732600809C42A18BD18F7390078053
:1045500023A40188010001001166B71500407D16F3
:10456000DC59C85DA98FF18FE5FFF3270080A18B8F
:1045700089CBF327008023A4F1889C42DD9B7390B4
:10458000078001000100B717004013067005238063
:10459000C704130680FA2380C70401000100D8DB9A
:1045A00003C7170313670704A388E70223800704E0
:1045B000732700809C42A18BD98F7390078023A41E
:1045C000018801000100410182807D133368E3030B
:1045D0009308E016630E08003368F3039308D016BF
:1045E000630808009378330093B818009388D816AE
:1045F00033081E01131E0801135E0E0149B56393B3
:10460000E5030548638608000148630303002A8820
:1046100071087298FD15131E0801C205135E0E0184
:10462000C181B5BD13F8150063F4BF007908D5B793
:1046300013381800E5BF83C7F60293F70708A307EE
:10464000F1000346F10083C7F60293F70708E394ED
:10465000C7FE8347F10093F7F70FF1DF65B5F32746
:10466000008023A4F1889C42DD9B7390078055B5A0
:104670005971E2C486D6A2D4A6D2CAD0CECED2CCAC
:10468000D6CADAC8DEC6E6C2EAC06EDE2A8C02D618
:10469000EF007034F3270080A18B138D818891CBBC
:1046A000F327008023A4F18883270D00DD9B7390FE
:1046B000078001000100B717004013077005238031
:1046C000E704130780FA2380E7040100010003C711
:1046D000F7021377770FA387E70203C7F702136781
:1046E0008700A387E70223800704732700808327BE
:1046F0000D00A18BD98F7390078023A4018801003E
:104700000100F3270080A18B91CBF327008023A425
:10471000F18883270D00DD9B739007800100010065
:10472000B7170040130770052380E704130780FACA
:104730002380E7040100010003C7E7021377C70FD6
:104740002387E70203C7E702136717002387E702FF
:10475000238007047327008083270D00A18BD98F46
:104760007390078023A4018801000100130780C112
:104770003347E5029169938709E8130650023D69C2
:10478000B7440F0093840424856B130BA004014AE3
:10479000814A13047005FD19B347F5023307C702B8
:1047A0003EC2930709A61309803E3347F7023AC475
:1047B00033472503054933198901135939403345D6
:1047C000950293840BFAB3948401811B3306C702CC
:1047D000B346F6023309E90236C6330B6703130703
:1047E0006055B3049502130500103309E902B3467E
:1047F000FB02130B80FAB3C4A40236C8B347F90214
:10480000939634003719004036CC930409043ECA0D
:1048100073260080218A11CA7326008023A4C188D0
:1048200003260D005D9A73100680010001009307B6
:1048300070052380F4002380640101000100034619
:1048400039051376860FA309C90403463905136693
:104850001600A309C90423800400732500800326E1
:104860000D00218A498E7310068023A4018801005F
:104870000100916CE17D73260080218A11CA7326A4
:10488000008023A4C18803260D005D9A7310068062
:1048900001000100930770052380F4002380640168
:1048A000010001000346390513660602A309C90485
:1048B00003560905336696012318C90403560905F2
:1048C0003366B601420641822318C90423800400DE
:1048D0007325008003260D00218A498E73100680FF
:1048E00023A401880100010003463905137606025E
:1048F0006307061603463905218A6DDE6810EF004E
:10490000B01173260080218A11CA7326008023A467
:10491000C18803260D005D9A731006800100010016
:1049200023808400238064010100010003463905CF
:104930001376F60DA309C90403463905136606026A
:10494000A309C90403560905336696012318C9044F
:10495000035609053366B601420641822318C9048D
:10496000238004007325008003260D00218A498ED0
:104970007310068023A40188010001000346390555
:10498000137606026309061003463905218A6DFE77
:1049900097B0FF1FE780E0702A8632CE97B0FF1FE6
:1049A000E78020707246E30AC5FE035609053255BA
:1049B000336696012318C904EF00D0070346390572
:1049C000218A6DDE0355090503462905924733F513
:1049D000A9003386C90232951D8DA24763D5A70071
:1049E000B2476346F50E09466365560FC247850A0E
:1049F0001316150093FAFA0F3346F6026354A03AE1
:104A0000050609453346A60273250080218911C990
:104A10007325008023A4A18803250D005D997310E0
:104A200005800100010023808400238064010100CF
:104A300001000355C9022A96420641822316C90283
:104A4000238004007325008003260D00218A498EEF
:104A50007310068023A401880100010029BD73267C
:104A60000080218A11CA7326008023A4C1880326EE
:104A70000D005D9A73100680010001002380840000
:104A80002380640101000100034639051366060214
:104A9000A309C90425BD73260080218A11CA732683
:104AA000008023A4C18803260D005D9A7310068040
:104AB00001000100238084002380640101000100C3
:104AC0000346390513660602A309C90451BDE38FE5
:104AD0000AF073260080218A11CA7326008023A45D
:104AE000C18803260D005D9A731006800100010045
:104AF00023808400238064010100010003463905FE
:104B00001375FC0F1376860FA309C90403463905F4
:104B1000498EA309C904238004007328008003265A
:104B20000D00218A336606017310068023A40188D4
:104B300001000100034639051D8A63178627732685
:104B40000080218A11CA7326008023A4C18803260D
:104B50000D005D9A7310068001000100238084001F
:104B600023806401010001000346390511651376B5
:104B7000F60DA309C9040346390513660602A30905
:104B8000C90403560905498E2318C90403560905AB
:104B90002165498E2318C9042380040073250080F1
:104BA00003260D00218A498E7310068023A40188F4
:104BB000010001000346390513760602630E062044
:104BC00003463905218A6DDE6810B92573260080F9
:104BD000218A11CA7326008023A4C18803260D00F0
:104BE0005D9A7310068001000100238084002380F9
:104BF0006401010001000346390511651376F60DC5
:104C0000A309C9040346390513660602A309C904AA
:104C100003560905498E2318C90403560905216561
:104C2000498E2318C90423800400732500800326BD
:104C30000D00218A498E7310068023A4018801008B
:104C4000010003463905137606026303061C03467A
:104C50003905218A6DFE97B0FF1FE7808044AA8C3A
:104C600097B0FF1FE780E043E30C95FF035609056B
:104C70001165498E32552318C9046D2B0346390539
:104C8000218A6DDE73260080218A1385818809CAF6
:104C90007326008023A4C18810415D9A731006809A
:104CA00001000100238084002380640101000100D1
:104CB000034639051376F60DA309C90423800400C1
:104CC000732800801041218A336606017310068024
:104CD00023A40188010001000358090503462905A2
:104CE000E24733F809013386C90232983308F840A5
:104CF0001306800C3306C802D2473346F6026355CA
:104D0000001505060948334606036351C0140358CD
:104D1000C9029308F00F13585800329863D6081F41
:104D2000094663734619F3270080A18B89CBF327CB
:104D3000008023A4F1881C41DD9B73900780010053
:104D4000010037170040930770052300F70493070D
:104D500080FA2300F704010001008356C702896727
:104D60008117D58FC207C1832316F70223000704DA
:104D7000732700801C41A18BD98F7390078023A4D7
:104D8000018801000100B650265496540659F64990
:104D9000664AD64A464BB64B264C964C064DF25DBB
:104DA000656182807D16B1B973260080218A11CA9F
:104DB0007326008023A4C18803260D005D9A73101A
:104DC000068001000100238084002380640101002B
:104DD0000100034639052DBB73260080218A11CAC4
:104DE0007326008023A4C18803260D005D9A7310EA
:104DF00006800100010023808400238064010100FB
:104E000001000346390513660602A309C90469B304
:104E100073260080218A11CA7326008023A4C188CA
:104E200003260D005D9A73100680010001002380A7
:104E300084002380640101000100034639051366E4
:104E40000602A309C904C5B37D166DBD55CE03582E
:104E5000C902B308C040135858006357180B0946DD
:104E600063744605F3270080A18B89CBF32700806C
:104E700023A4F1881C41DD9B739007800100010091
:104E8000B7170040130770052380E704130780FA63
:104E90002380E7040100010003D7C7027D8B23961E
:104EA000E70223800704E9B573260080218A09CA36
:104EB0007326008023A4C18810415D9A7310068078
:104EC00001000100238084002380640101000100AF
:104ED0000356C9021376F60F336676014206418205
:104EE0002316C90223800400732800801041218A00
:104EF000336606017310068023A4018801000100B7
:104F0000050A137AFA0F29B2F3270080A18B89CB07
:104F1000F327008023A4F1881C41DD9B7390078058
:104F200001000100B7170040130770052380E70454
:104F3000130780FA2380E7040100010003D7C702AA
:104F400016063A96420641822396C70299BF9147B8
:104F500063EEB70217670200130747718A05BA9517
:104F60009C41BA978287B717004003A7470B1345A8
:104F7000F5FF698F23AAE70A03A7070B698F23A808
:104F8000E70A03A7070A798D23A0A70A8280B7172B
:104F9000004083A6470B1347F5FFF98E23AAD70AD3
:104FA00083A6070B558D23A8A70A83A6070A758F2A
:104FB00023A0E70A8280B717004003A7470B498F59
:104FC00023AAE70A03A7070B1345F5FF45BFB71749
:104FD000004083A6470B1347F5FF758F23AAE70A06
:104FE00003A7070A598D4DB7B717004003A7470B12
:104FF000498FEDB7914763EEB702176702001307B9
:1050000027688A05BA959C41BA978287B7170040EE
:1050100003A7470D1345F5FF698F23AAE70C03A7E4
:10502000070D698F23A8E70C03A7070C798D23A030
:10503000A70C8280B717004083A6470D1347F5FFE2
:10504000F98E23AAD70C83A6070D558D23A8A70C8C
:1050500083A6070C758F23A0E70C8280B71700404A
:1050600003A7470D498F23AAE70C03A7070D134594
:10507000F5FF45BFB717004083A6470D1347F5FF5F
:10508000758F23AAE70C03A7070C598D4DB7B717E7
:10509000004003A7470D498FEDB7411122C43717D0
:1050A000004006C6834727020357070213848188FE
:1050B00093F7F70F4207418325E91377F79F4207DC
:1050C00093F7F7074183F3260080A18A89CAF32664
:1050D000008023A4D1881440DD9A739006800100DB
:1050E0000100B7160040130670052380C60413069E
:1050F00080FA2380C6040100010093F7F70F238193
:10510000F6022390E60223800604732700801C40E9
:10511000A18BD98F7390078023A40188010001001F
:10512000B24022444101828093E707081367074099
:10513000F3260080A18A89CAF326008023A4D1889F
:105140001440DD9A7390068001000100B7160040FC
:10515000130670052380C604130680FA2380C60454
:10516000010001002381F6022390E6022380060459
:10517000732700801C40A18BD98F7390078023A4D4
:10518000018801000100294597B0FF1FE780403EDC
:10519000F3270080A18B89CBF327008023A4F1881B
:1051A0001C40DD9B7390078001000100B717004091
:1051B000130770052380E704130780FA2380E704B0
:1051C0000100010003D70702136707202390E702BD
:1051D000238007041DBFB717004003D58700420591
:1051E00041819377050491EB9377F5013755E801F9
:1051F000130505803345F50282809377050C13076C
:1052000000046397E7009377F50137459C1CCDB701
:105210002165130505D0828037E700E01C43544325
:10522000A183E206D58F1CC1FD572320F718232246
:10523000F718828013178500B7E700E023A0E71076
:10524000618123A2A7108280B7F700E08847CC478E
:105250008280814737370040A14663C4C70032854A
:1052600082800345B740E38EA6FE3385F5000345F3
:10527000050085072304A740CDB7938741819C4350
:1052800017F7FF1F1307072B3E95636CE5001737D1
:105290000020130727B76366A70023AAA1803E85D5
:1052A0008280FD57EDBF411122C406C62A842537EE
:1052B0002947B307E502B2408D83B3D78702224462
:1052C0009507B3D7E70237370040C207C1832316DB
:1052D000F74041018280716541111305052006C622
:1052E000D937B7370040130770F82381E7400D47DF
:1052F000A381E74013070004A380E7400547238705
:10530000E740B24041018280373700408347274061
:105310001A0593F7F703C98F93F7F70F2301F740A7
:105320008280B737004003C7174019C9D98DA380C1
:10533000B74003C70740136787002380E740828098
:1053400093C5F5FFF98DA380B7408280CC41411110
:1053500006C6328503C6150083C5050022064D8E9C
:1053600042068D654186138875A2630C060F63485B
:10537000C804138845A26306060B634AC8009385D8
:1053800035A26309B60623900600294679A0138842
:1053900055A26308060B938565A2E316B6FEC145C8
:1053A0001D4663ECE5064546198E63F3C7003E864D
:1053B0002390C600976502009385C52E89A813889F
:1053C00095A26300060F634E060B1388A5A2630A1D
:1053D000060F938505A5E318B6FA99451D4663EEB9
:1053E000E502198E63F3C7003E862390C6009385BD
:1053F000018231A89D451D4663E1E5022146198ED3
:1054000063F3C7003E862390C6009385C188BA9592
:1054100097B0FF1FE780E05C0146B2403285410152
:105420008280AD451D46E3EAE5FE3146198E63F301
:10543000C7003E862390C600976502009385452AE3
:10544000F9B7B1451D46E3EAE5FC3546198E63F32D
:10545000C7003E862390C6009765020093854529C4
:105460007DB7C1451D46E3EAE5FA4546198E63F36B
:10547000C7003E862390C600976502009385C5232A
:1054800079B7C1451D46E3EAE5F84546198E63F351
:10549000C7003E862390C600976502009385452687
:1054A000BDB7C1451D46E3EAE5F64546198E63F3EF
:1054B000C7003E862390C6009765020093850521AC
:1054C000B9B7B5451D46E3EAE5F43946198E63F3ED
:1054D000C7003E862390C600976502009385851B12
:1054E0003DB797D6FF1F938666D44146CD4517D565
:1054F000FF1F1305A5C06F7030722D4549E703C526
:1055000005000947631DE5063285D041411106C6F5
:10551000034716000346060041682207518F130611
:1055200028FE6308C7026369E600051863030703E2
:105530002390060029451DA8130648FE630BC702E9
:105540001518E31707FF15473E866377F7001546E2
:1055500021A03E8691C30546CC452390C600420655
:10556000418297B0FF1FE780C0470145B24041012B
:10557000828051473E86E371F7FE5146F1BF23908A
:10558000060005458280828083C7850093F7070265
:10559000E1E3411106C622C426C24AC003C9050080
:1055A00009432E888547631B690203A345003284A3
:1055B000B6848347130003430300A207B3E76700E1
:1055C0004163130E13FE6382C7030D13638B6704DD
:1055D0000D681308289063850707A947B240224445
:1055E000924402493E8541018280AD4765FB0547F3
:1055F000B547E365D7FE0325C8000546A28597B0E9
:10560000FF1FE780003E01499387C18A9843814785
:1056100071D7184361D72686A2854A8502978147AC
:1056200075BFAD4745FF0547B547E369D7FA032581
:10563000C8000546A28597B0FF1FE780803AE9B70A
:105640002244B24092440249854741016F60C01E26
:10565000A1473E85828041677917630CE5024111BD
:1056600022C406C685472A84639AF500228522440F
:10567000B2409385018A41016F70F0648947639657
:10568000F5008545EFA0E01F75D1B24022444101ED
:1056900082808280411122C42A8441659385018AD7
:1056A0007D1506C6EF703062170500001305E5FA98
:1056B0000588EFA0401405C02244B24097D6FF1FD2
:1056C000938686C84146C54517D5FF1F1305C5B645
:1056D00041016F707054B240224401454101828003
:1056E00009C523A6A18A01458280454582801147CC
:1056F0006360A708976602009386C6010A0536957F
:105700001841411106C63697AE87B2850287054714
:105710006145639AE70005461385418997B0FF1FED
:10572000E780202C0145B240410182800547614558
:10573000E39BE7FE054613858189CDB705476145A3
:10574000E393E7FE05461385C189C9BF514761450B
:10575000E39BE7FC514617F5FF1F130565907DBFDE
:1057600015476145E391E7FC15461385418A7DB7EE
:1057700009458280411122C42E849385018A26C264
:1057800006C6AA84EF600006058915C197D7FF1FDA
:10579000938787AA83D7A70BA285B2402310F40072
:1057A000224426859244014641016F609060B240D8
:1057B0002244924449454101828011456FE05FEBEC
:1057C000411193962500AA852D4506C697B0FF1F67
:1057D000E78080EAB240014541018280411126C242
:1057E0009394250022C44AC02A843289A686AA85B9
:1057F0000146254506C697B0FF1FE780E0E7A6866D
:105800004A86A285294597B0FF1FE780E0E6B240AF
:10581000224492440249014541018280011122CC77
:1058200006CE3714004026CA4AC84EC652C4834426
:105830007405034AB4058349840503499405EFE0E0
:10584000FFB98347A40593F4F40F137AFA0F93E793
:105850001700230DF40493F9F90F1379F90FB71713
:10586000004003C7A705058B6DFF03D5C705A38DB2
:105870004705238C3705A38C2705A38B9704F2409B
:105880006244D2444249B249224A056182804111B0
:105890009397050122C406C6C1872E8463DB0700E7
:1058A000052611C16D242165218DB240224441019C
:1058B000828093F7150013C51500E5FB939725012A
:1058C00063D10702EF00117AEFF03FEF37F60200E5
:1058D000130606E0896503C5018BEF00807B09652F
:1058E000E1B7939715010145E3D107FC1765020065
:1058F000130505E8EF20526113060064916503C5A6
:10590000018BEF000079116545B75D7149469765D8
:105910000200938565E1176502001305E50986C657
:1059200097B0FF1FE780E01401E917650200130537
:10593000E5E0EF20725D01A0B7F600E0795798CA64
:10594000FD57DCCA0567B7E700E023A0E7101306A0
:10595000F00290C223A0E718010001001306C00363
:105960008145480097B0FF1FE780200B97D7FF1FA6
:10597000938747EE3EC28967938707802314F1001F
:10598000B547230CF100A167938707E03EC6B70730
:105990000105938707103EC8ED47231AF10085479C
:1059A000230BF100970700009387C7E13EDC9707C0
:1059B00000009387E7E23EDE8567938717D0231DBB
:1059C000F10097070000938767883ED29707000091
:1059D000938707E53ED697070000938747DE3ED8BA
:1059E0005800977702009387678D97760200938619
:1059F000868C03C65700FD170507A30CC700E39A62
:105A0000D7FE4800EF005043AA8501C91765020080
:105A1000130505D4EF20523D01A0B640616182809C
:105A20004111170500001305C5E606C622C4EF00A4
:105A3000F03C1384018B2300A400112803450400CB
:105A40002244B240130600328965410199A54111F3
:105A500006C6F3270080A18B1387818889CBF327A3
:105A6000008023A4F1881C43DD9B73900780010014
:105A70000100B7170040930670052380D7049306F2
:105A800080FA2380D7040100010083C6F70293F651
:105A9000A60FA387D70223800704F32600801C43A8
:105AA000A18BD58F7390078023A40188010001008A
:105AB000F3270080A18B89CBF327008023A4F188F2
:105AC0001C43DD9B7390078001000100B717004065
:105AD000930670052380D704930680FA2380D704A9
