:040000006F208013DA
:100004000000000000000000900000203C050020DB
:10001400A9BDF9F3900000200000000000000000DA
:10002400900000209000002000000000000000006C
:10003400900000200000000090000020000000005C
:1000440090000020900000209000002090000020EC
:1000540090000020900000209000002090000020DC
:10006400900000209000002090000020200100203B
:100074003006002092000020900000209000002014
:1000840090000020900000209000002090000020AC
:1000940001A0371700408347E705E207E18763DEE5
:1000A4000702230D070483C68187CD4763E9D7027E
:1000B4009387818783C7070093F7F70F9386170009
:1000C400238CD1860356C70586079386019AB69773
:1000D4002390C7008547230DF7047300203083C79E
:1000E4009187850793F7F70FA38CF1860546636024
:1000F400F602238C01869726000093862660B69725
:1001040083C70700230CF704230DC704F9B7B7E727
:1001140000E03707002023A0E7180100010075BFA5
:10012400B737004083C74740730020304111B717E9
:100134000040985F3AC6945F3247E39CE6FE32453E
:100144004101828073270080218B9387418909CBE9
:100154007327008023AAE18898435D9B731007806E
:100164000100010037170040930670052300D704EF
:10017400930680FA2300D704010001008346B704E4
:1001840093F6F60DA305D704230007047326008015
:100194009443A18AD18E7390068023AA018801001A
:1001A400010093760502638406180347A700118BA8
:1001B40025E773270080218B09CB7327008023AAAE
:1001C400E18898435D9B7310078001000100371795
:1001D4000040930670052300D704930680FA230099
:1001E400D704010001008346A70093E646002305D7
:1001F400D70023000704F32600809843218B558FF2
:100204007310078023AA0188010001001307004B23
:10021400010001007D176DFF73270080218B09CB3E
:100224007327008023AAE18898435D9B731007809D
:100234000100010037170040930670052300D7041E
:10024400930680FA2300D704010001007D8923145A
:10025400A700010001000100010023000704F326A8
:1002640000809843218B558F7310078023AA01883F
:100274000100010073270080218B09CB73270080C4
:1002840023AAE18898435D9B731007800100010055
:1002940037170040930670052300D704930680FAAD
:1002A4002300D7040100010001000100B72600402B
:1002B40013061005A383C68023000704F3260080D9
:1002C4009843218B558F7310078023AA018801005E
:1002D400010073270080218B09CB7327008023AA98
:1002E400E18898435D9B7310078001000100371774
:1002F4000040930670052300D704930680FA230078
:10030400D704010001008346B70493E60608A30559
:10031400D70423000704732700809C43A18BD98F43
:100324007390078023AA01880100010082809376DC
:100334000504638B06140347A700418B25E7732745
:100344000080218B09CB7327008023AAE18898437E
:100354005D9B73100780010001003717004093066E
:1003640070052300D704930680FA2300D704010004
:1003740001008346A70093E606012305D700230066
:100384000704F32600809843218B558F7310078050
:1003940023AA0188010001001307007D0100010068
:1003A4007D176DFF73270080218B09CB7327008095
:1003B40023AAE18898435D9B731007800100010024
:1003C40037170040930670052300D704930680FA7C
:1003D4002300D704010001009376F50193E6060497
:1003E4002314D700010001000100010023000704C9
:1003F400F32600809843218B558F7310078023AA1E
:10040400018801000100130760046310E5047327E9
:100414000080218B09CB7327008023AAE1889843AD
:100424005D9B73100780010001003717004093069D
:1004340070052300D704930680FA2300D704010033
:100444000100B72600400946B5B573270080218B0B
:1004540009CB7327008023AAE18898435D9B73101E
:100464000780010001003717004093067005230040
:10047400D704930680FA2300D70401000100B726AD
:100484000040130620053DB573270080218B09CB5E
:100494007327008023AAE18898435D9B731007802B
:1004A4000100010037170040930670052300D704AC
:1004B400930680FA2300D7040100010083568700C5
:1004C40093E6060C2314D700C5BB411181460146AF
:1004D4008145114506C63524F3270080A18B9386F8
:1004E400418989CBF327008023AAF1889C42DD9BB4
:1004F4007390078001000100B717004013077005CF
:100504002380E704130780FA2380E7040100010035
:1005140003C76704136717002383E70423800704D2
:10052400732700809C42A18BD98F7390078023AAE4
:10053400018801000100B2404101828081460146E8
:10054400814511457D2AF3270080A18B13874189BA
:1005540089CBF327008023AAF1881C43DD9B739089
:10056400078001000100B71700409306700523803F
:10057400D704930680FA2380D70401000100FD56B6
:100584002396D70223800704F32600801C43A18B03
:10059400D58F7390078023AA018801000100F327F7
:1005A4000080A18B89CBF327008023AAF1881C4308
:1005B400DD9B7390078001000100B717004093068C
:1005C40070052380D704930680FA2380D7040100A2
:1005D400010083C6670493E616002383D7042380AF
:1005E4000704F32600801C43A18BD58F73900780EA
:1005F40023AA01880100010001A0BD473305F502CB
:1006040001007D1575FD8280411122C426C206C6F3
:10061400AA84014463179400B240224492444101E5
:10062400828005041305803E4204C13F4180DDB74A
:10063400B7170040130700032388E702854723A068
:10064400F18C730020302303048015472303E480D6
:1006540001002302A480828083076480E3CE07FE26
:1006640023030480828083076480E3CE07FE03456E
:100674004480828083076480E3CE07FE2302A48043
:100684008280411126C44AC24EC006C61377F50BB8
:10069400AD47AA892E8995446306F7001945653745
:1006A400653F8D444E854537FD59FD1463983401EB
:1006B400B240A24412498249410182801355090182
:1006C4001375F50F453F2209CDB7011126CC06CE8F
:1006D400B704080051371545BD37713769372AC645
:1006E400A53F32459377150089EB13651500137503
:1006F400F50FF240E24405618280FD14E9FC0145F6
:10070400CDBF397126DC4ADA4ED852D656D45AD2E5
:100714005ED006DE62CE66CCB7E700E07D5783AAE2
:10072400070022C603AA470023A0E71823A2E7185C
:10073400B7170040130770052380E704130780FAF6
:100744002380E70483C74704930B75FFB684E2074D
:1007540093FBFB0F8546AA892E8B328937240040F0
:10076400E187015763FA76016308D50089461307C8
:1007740000026313D5000157D98F93F7F70FB71C05
:1007840000402382FC0411472303E4801305F00F87
:100794005D3D094CD135636D7C11B7050700DA95D1
:1007A40037870700795563F2E504B3879500636ED4
:1007B400F702370B0800A94733EB65016399F90683
:1007C40089E48144513D26850DA0DA850945553DCE
:1007D40005090345F9FFFD14050B693D81C49377B1
:1007E400FB0FFDF7DD3569FD7D55B7170040130795
:1007F40070052380E704130780FA2380E70403C706
:100804004704418B2382E704F250B7E700E023A0BA
:10081400571123A24711E25432445259C259325A51
:10082400A25A125B825B724CE24C21618280A54722
:100834006395F90685691309F00FB3069900B3743B
:100844002B01B6941349F9FFB3749900856B33797E
:100854006901416B9387F9FFB3F7270199E363FCBF
:10086400340193D94900C147E3E637FF99BF0569CD
:10087400C1697D19D9B71305800D63886901130512
:1008840000026384790113051008CA85DD3B353DF8
:1008940021DD4E99B3843441D9B7DA852D45D5335A
:1008A400CA94E30099F205097D3BA30FA9FED5BFC5
:1008B4009387F9FF93F7F70F6361FC0C83C71C045C
:1008C40013073008631FF70437070800636BEB0452
:1008D400B3079B00B706100063F5D704334BEB0056
:1008E40089476393F9068980D549E38C04ECDA855A
:1008F4000945413B11090327C9FF91472320E4809F
:1009040003076480E34E07FE23033481FD17EDFBE8
:10091400FD14110B81C49377FB0FE9FF7D3371F54F
:10092400E1B5B717004003C75704B70708001377AA
:10093400070219E3B78707007955E378FBEA330721
:100944009B00E3FFE7F855B58547E382F9F2DA85C2
:100954002D45053B9389F4FFE38504E6293393F79A
:10096400390091EB8326048003270900930749008B
:10097400E39AE6E43E89CE84F1BFB5476396F90075
:100984001305900BC93135BDB1471305B00AE38B8C
:10099400F9FE99476391F904B7050800B365BB00F4
:1009A4002D45C53181448D4BA14975396396740138
:1009B400832704802320F9008504E39834FF8327E8
:1009C400048013172B01635507002312F900D5BBCC
:1009D4002322F900FDB39D476399F902814513056C
:1009E400B0044531BD442320090023220900FD59E8
:1009F4009D3993F77400CA9703C70700FD14398D16
:100A04002380A700E39634FF6DBBA1476392F904EA
:100A14006D398144630D0B008D479304C003630853
:100A2400FB009304000563048B01930440041375D5
:100A3400C507E30895D819453931393905452131B8
:100A440026850D3909453D314931E31C05D669BB7D
:100A540091476399F90013056006F536F53E1305D1
:100A640090090DB7E38F09D4F154A9BB19CD91CDE9
:100A740009CE81473387F500834607003307F50025
:100A840085072300D700E317F6FE828019C991C9B0
:100A940009CA910583A7C5FF11057D16232EF5FE0E
:100AA400C5BF828001C919C62A960505A30FB5FEE4
:100AB400E31DA6FE828081473307F5000307070084
:100AC40019E33E8582808507C5BF01112E8626CA9B
:100AD400AA84131506019305F004418122CC06CEA5
:100AE40032C6EF00B0562A8401C53246A685BD3F02
:100AF4002285F2406244D24405618280854715C153
:100B04008DC105C28147B306F5003387F50083C65E
:100B14000600034707006398E6008507E315F6FE21
:100B240085473E8582808147EDBF9307F6FFBE95DA
:100B34002A966313C5008280FD1583C71500050539
:100B4400A30FF5FEFDB7AA87014581CF09CE3E96D6
:100B5400850703C7F7FF6317B700E39BC7FE054587
:100B64008280828001458280797197370000938763
:100B7400676C22D4804306D626D24AD04ECE52CCBD
:100B840056CA5AC85EC679C0B7C4C901014B973961
:100B940000009389A9699384F437173A0000130A73
:100BA400AA69973A0000938AAA63173900001309C7
:100BB400E96C8357240095E35C44631D0B001737ED
:100BC40000002329F766832BC4002285EF003055EB
:100BD4005E84B9A82326FB00FDB783A7090082978A
:100BE4001C443307F5406376F500032749001D8F45
:100BF4002A9763E2E4089737000023AB075E835526
:100C0400240003450400976000E0E780009B5C40FB
:100C14005844A1CB0C4403264900AE97BE8663E436
:100C2400B70063E4C700B386C74014C4228B3A8478
:100C340049F0973700009387A75A9C4B0947637282
:100C4400F706F917173700002324F75AB250225435
:100C540092540259F249624AD24A424BB24B45611C
:100C6400828063170B009737000023A5E75CA1BFC0
:100C74002326EB0089BF03274A0209CF63EFA700AD
:100C84003385A74083A70A016376F50097370000F0
:100C940023A0A756228B404461BF03274900BA977B
:100CA400C5B79737000023A507544DB7411122C497
:100CB40017340000130484551C4006C626C24AC0DB
:100CC40091C782979737000023A2075497370000F3
:100CD40083C71774858B973400009384247395C35A
:100CE40097370000A386077283C774001547637A99
:100CF400F700A12B83C77400F5178A07A2979C43BA
:100D040082971C4491C382971739000013094952F2
:100D140003270900173600000346964C9737000056
:100D240083C7074C93961700BA9683D60600D5CE90
:100D34009737000083C7C74A63E3C70C973700009F
:100D44002380074A1C40639D07129737000083C71E
:100D5400776C91CF83C7740093F7F70F89EB9737BC
:100D64000000A389076A976001E0E78020D99737DC
:100D740000009387A74B9C436384071097370000B8
:100D84009387C74FDC43173700002323F746E93B1B
:100D9400973700009387474ADC53FDC31737000099
:100DA40013070744184B9737000083C7374A636912
:100DB400F70C83C7740015476364F70C973700007A
:100DC40083C78769918BCDEF03260900973600000E
:100DD40083C6164163CCD70A2244B24092440249E6
:100DE4004101176300E0670043C9850793F7F70FD4
:100DF400973600002386F63EE3E2C7F215BF860766
:100E04003E97835507002310070097370000239D62
:100E14000740973700009387273F9C43173500000E
:100E24000345053C13172500BA979C4382979737CF
:100E3400000083D7673F173700000347673A93C71B
:100E4400F7FF7D8D93171700032709003E978357FB
:100E540007005D8D2310A7009737000083C747382C
:100E640091C7850717370000230CF73617370000A2
:100E7400034707379737000083C79736E370F7ECCB
:100E8400B2402244924402494101828013971700E0
:100E94003297035707006DF785072DBFAD6737C736
:100EA4000040BD072326F7200F10000097370000ED
:100EB40093870733C84F83278726BD66BD0693C72C
:100EC400F7FF99836A052326D7205D8D828041111F
:100ED400B7170040985F3AC6945F3247E39CE6FE3A
:100EE4003245410182801305F00F8280011197374A
:100EF40000009387A76122CC03A4070C26CA06CE60
:100F04002AC42EC6854419E40145F2406244D24401
:100F1400056182808347910003471400858B630435
:100F2400F7000044CDB719469305A100130524002A
:100F3400F136E31895FE0545C9BF173700001307BE
:100F4400E74B1C439306001094C301000100010009
:100F540001001C4323A00700834615000348250015
:100F6400A2064208C29603480500C296034835000B
:100F74006208C29694D78346550003486500A206CA
:100F84004208C29603484500C296034875006208A9
:100F9400C296D4D7834695000348A500A20642080A
:100FA400C29603488500C2960348B5006208C296FB
:100FB40094DB8346D5000348E500A2064208C296A6
:100FC4000348C5000345F500C2966205AA96D4DB22
:100FD40083C6150003C52500A2064205AA9603C5CB
:100FE4000500AA9603C535006205AA9694CF83C668
:100FF400550003C56500A2064205AA9603C545002F
:10100400AA9603C575006205AA96D4CF83C6950037
:1010140003C5A500A2064205AA9603C58500AA96A3
:1010240003C5B5006205AA9694D383C6D50003C54B
:10103400E500A2064205AA9603C5C50083C5F500CE
:10104400AA96E205AE96D4D3D443F59AD4C3D44336
:1010540093E61600D4C3944393E6160094C3BA8768
:101064009443D842058B59E3984E01452300E6008A
:101074009843184F2183A300E6009843184F4183F7
:101084002301E6009843184F6183A301E6009C43C3
:10109400D84F2302E600D84F2183A302E600D84F9D
:1010A40041832303E600D84F6183A303E6009853EA
:1010B4002304E60098532183A304E6009853418354
:1010C4002305E60098536183A305E600D85323065D
:1010D400E600D8532183A306E600D85341832307AF
:1010E400E600DC53E183A307F600828001008DBF94
:1010F400173700001307C7301443411122C49C5E04
:101104004AC006C6998326C2858B3A8417390000E3
:101114001309C92ED1CB9C5E973400009384042F0D
:1011240093F7F7F99CDE173700000347872E9307E0
:101134000008631BF700832709009C4393F7070407
:10114400173700002307F72C83C7040093F707041D
:101154009DC3973700009387670D9C438297973709
:10116400000023ADA72A83C7040093F7F70B1737B2
:101174000000230DF72883C7440093F707048DE785
:10118400854717370000A305F72897370000938792
:10119400A7299C43096798C7130700FC97360000EA
:1011A4002388E626D844F8D31C40985F1183058B26
:1011B40009CB985F3D9B98DF05479736000023894C
:1011C400E624985F1D83058B11CB985F1377F7F79F
:1011D40098DF854717370000230CF722832709007F
:1011E400D8430583058B19C7D843759BD8C3D84307
:1011F400799BD8C3B240224492440249410182807F
:10120400397106DE16DC1ADA1ED82AD62ED432D26A
:1012140036D03ACE3ECC42CA46C872C676C47AC2EA
:101224007EC0F935F250E2525253C2533255A255A0
:10123400125682567247E2475248C248324EA24E74
:10124400124F824F2161730020309737000093873B
:10125400A71D9443973700009387471B03C70700D4
:10126400058B11CB973700002384071A97370000AA
:10127400A380071A828003C71700058B65F7F8520D
:1012840071FF83C75700DDB71738000013084817EC
:10129400032708001C5F9583858BD1E709C61C5B77
:1012A400BD832300F60085CA83270800985B4607A0
:1012B400935767016356070093E707C0C207C183CA
:1012C40003970600C207C18709C7BA970947B3C77E
:1012D400E7022390F60085CD834715008DCB973622
:1012E400000083C6061393F6060413879700894704
:1012F4008DCA3A9503470500854699471376F70644
:101304006311D60262076187B947634C07008327DC
:1013140008009C5FED838D8B17370000A30DF70E3B
:1013240081473E8582808547EDBF411122C406C6B0
:10133400173400001304440F18403DE9AE8774537A
:10134400FDFE3E85B285973700002382070C975037
:1013540001E0E780204E973700009387670A9C439B
:10136400B70680009843558F98C3D857719BD8D738
:1013740097370000A38E070897370000A388070853
:101384001C40094798C31440173700001307070887
:1013940083472700858B89EB83473700858BD9C723
:1013A4009737000023860706B24022444101828019
:1013B4008D476310F50297370000938767049C43B9
:1013C400B70680009843558F98C3D857719BD8D7D8
:1013D4005DBF8547E319F5FA5447F977FD17F58F93
:1013E4005CC70F1000001C40096798C7130700F87A
:1013F40017360000230EE6001737000013074700D6
:101404001043184231830D8B11E713076019F8D389
:10141400D4C795BF1842094631830D8B6315C700A5
:101424001307E043EDB71307E01BD5B7FC52ADF348
:10143400A5BF5D71A2C4A6C22A8413068002280037
:10144400AE849305100886C6CAC04EDE52DCEFF0A7
:101454006FE53545975001E0E780E07C17330000E5
:10146400130303FA832703009376F41F173E000047
:10147400130ECE0023A40700984B973E0000938ED2
:10148400AEFA370FFCFF1367F70398CBF84F130539
:1014940010F8B7020400137707E0558FF8CF98438C
:1014A400F576FD16758F98C39843B70633009303FA
:1014B40080251377F7E798C3984311497D1F137765
:1014C400F7E71367071098C303270E008549930FA6
:1014D40080021C47D58F1CC783A70E001307900DED
:1014E4003400B8CB014793553700A69583C7050050
:1014F40013767700B3D7C740858BE1C383270300F6
:1015040083280E00239C07042390070603A8C8021F
:101514001378D8FF23A6080383A807001378F707D6
:1015240093F808F833E8080123A0070103A8470249
:101534003368580023A2070383A80E00014823A29E
:10154400780603DA07066307480303A80703038A38
:1015540006001358F80062081358884163580A01BA
:1015640003A807031358F8002380060103D80706CD
:101574001378F80F03AA480663060A0003DA8705FE
:10158400E37F49FB03A847023378E80123A207035A
:1015940083870600635CF40003C805003396C90022
:1015A4001346F6FF337606012380C5003E8663D3D7
:1015B400A7002A8613158601618505071377F70F9F
:1015C4008506E312F7F3B640264496440649F259D9
:1015D400625A61618280973600009386E6E49C42F9
:1015E400D8471316170163550602984713161701B7
:1015F400635006027D57B8D717370000130747BE5C
:10160400584F050717360000232AE6BE116798C70E
:1016140098470D83058B1DC317370000034727DF49
:1016240013671700173600002303E6DE130700F8DC
:1016340017360000230EE6DC214798C79847058B30
:1016440009CF17370000034777DC136717001736F5
:101654000000A30DE6DA054798C798470983058B70
:1016640009E798470583058B31CF98471736000063
:101674001306C6D917350000130585D80983058BD1
:10168400630307101841184331830D8B75EBAC4B82
:10169400184E93F5050203471700CDCD79EF1307D4
:1016A4007006D8CF034706001367170017360000EB
:1016B400230EE6D4114798C718415C57F19B93E772
:1016C40017005CD79C4298479316370163D60602ED
:1016D4009736000083C606EBC18A1737000013074C
:1016E400E7E2C5CE03478707136707029736000072
:1016F400238AE6E8056798C798479316270163D1BC
:101704000602173700000347A7D0620761876357B3
:101714000700054797360000238CE6CE096798C773
:1017240098479316070163D606029736000083C6CE
:1017340076E5858A17370000130747DDADCE0347EA
:1017440097071367270097360000A38DE6E2216709
:1017540098C7828029D785456315B7001307B0065B
:1017640089B789456315B7001307F0061DBF8D457A
:101774006315B700130730072DB71307500715B7C4
:101784001307600739BF034736001367170017367E
:101794000000A30EE6C6094739BF834687070946FA
:1017A400BD8A6388C600034787078D463D8BE313D4
:1017B400D7F4114725BF83469707918AC9DA0347AF
:1017C40097071367870041B7397106DE16DC1ADA0A
:1017D4001ED82AD62ED432D236D03ACE3ECC42CAE5
:1017E40046C872C676C47AC27EC0F533F250E2525D
:1017F4005253C2533255A255125682567247E2478B
:101804005248C248324EA24E124F824F2161730099
:10181400203097370000938727C1984385679387C3
:1018240007777CD397370000938747C59C4383A6EB
:101834000709139656006358060083A607091396F2
:101844006600634406007453FDF2828071C5AA8762
:101854000145E9C58D07C207C183F19BC207C18356
:1018640013074003636FF702173700001307C7C954
:101874000843173700001307A7C814436398A60248
:10188400173700001307479B185B014541CB4111F3
:10189400C20706C60545DD8D0297B24001454101E8
:1018A4008280173700001307E7C5D9B703576500CF
:1018B40035E303574500636FF704B306F740214649
:1018C400637CD60203280500938687001D8FAA96A1
:1018D400611717360000035606912392E60023A0F1
:1018E40006012393060014C12312F500130786FF93
:1018F400973600002399E68E2313B5009735000030
:1019040083D5658EB387F54017370000231DF78C08
:101914002105828008419DB70145828082800DC1E6
:1019240097370000938747BE03A30700973700004B
:10193400938707BD83A8070081469A8763E317014D
:10194400828003A80700636DF50A636BA80A1387F6
:101954008700E367E5FE03D6670021670507631781
:10196400E60003C7819405072384E19497350000BA
:101974009385058703D6470003D7650023930700A3
:1019840032974207418317350000231EE584638A9A
:101994006702173500001305E5B608416303F50235
:1019A40003D5660019ED83D7460023A0060121075D
:1019B4003E9621062392C600973700002395E782BE
:1019C400B6879843E30E17F797360000938686B3DD
:1019D4009442E307D7F683566700BDF283D64700E7
:1019E400035647001843A106B2962392D70098C322
:1019F40083D76500A107172700002316F77E82808E
:101A0400BE86C28725BF03278511630207124111D1
:101A140022C406C68347C5008345E5042A8493F798
:101A2400C70F2306F500834697000356C700139596
:101A34008601618563F2C508635B0506034587007B
:101A440093F6F607A304D700054693E6270063142C
:101A5400C50093E617002306D4005C4389075CC3E2
:101A6400A30AB400032504112E864C430905EFE0B4
:101A7400FFFF8327841103465401D44303D7C700CF
:101A8400B296118FD4C32396E7008947A30DF400BF
:101A9400034764039727000083C7277B6378F70411
:101AA4008347C40093E707012306F40081A093E76A
:101AB40017002306F4006DB79376F60F635D0502F5
:101AC40003458700854513E627006314B50013E634
:101AD40017002306C400A30AD400A3040700854703
:101AE400A30DF400832784119C43DDF3B240224408
:101AF40001454101828093E717002306F400A30AFD
:101B0400D400A3040700032504114C430905EFE0A6
:101B1400FFF58327841103465401D44303D7C70038
:101B2400B296118FD4C32396E7008D4755BF054560
:101B3400828097370000938727B09C43411122C4C9
:101B440006C6858B2A84C5EF4165130525F59700E4
:101B540002E0E780A07445C58347A5002315F5007E
:101B640083270412BDE72320A4122322A41285474D
:101B74002311F404232005008347640154412316F0
:101B8400F5000347D4002304E5000547A304E5005A
:101B94001737000013078787184F1385170215811D
:101BA4001C437D151375F50F9CC25C43DCC21C47B6
:101BB4009CC65C47DCC61C4B9CCA5C4BDCCA1C4FF5
:101BC4009CCE5C4FDCCE19CD938606021307070228
:101BD400C1BF8327441288C3835724042322A41239
:101BE400850779B79737000083D7C79285071737DA
:101BF40000002311F792B2402244410182808347BE
:101C0400C40023090400054593C747002306F400D4
:101C1400DDB78347850193F7E70FD5EF8347950138
:101C2400DDEB034625018346C50009CA83456503E8
:101C3400172700000347776163E7E50013F7060100
:101C440041CF014709C6C18A0357651C81C6835623
:101C5400A51C369751C31307C71217250000035557
:101C64006562B335A70237460F00411113060624F7
:101C7400814622C426C206C67D543305A702973086
:101C840002E0E78000709727000083C7775CB38485
:101C9400A700973700009387678703A787098327DF
:101CA400070963F387003E84184375FB97270000F8
:101CB4009387C7579C43829781476364A400B30703
:101CC400A440B2402244B3B7970093C7170092448C
:101CD4003E854101828081473E85828097270000AE
:101CE4009387877498437C53FDFF8280797126D251
:101CF40006D622D44AD04ECE52CC56CA5AC85EC654
:101D04008347550303447513AA843E941374F40F54
:101D14009307400263F687001304B4FD1374F40FB1
:101D240003AA841383AAC413A38B84122286528524
:101D3400D685973002E0E780405F058915E503CB3F
:101D4400D41201498149337B6403930B50024A86C0
:101D54005285D685973002E0E780205D058915C558
:101D6400639169031374F90F238B8412B2502254C4
:101D740092540259F249624AD24A424BB24B4561EB
:101D840082808509E20993D989410509E31179FD26
:101D9400E1BF8327850903560504797193D60701AA
:101DA400BD8EC206C182358E135776409357564076
:101DB400898B058B5D8F93573640918B5D8F93573D
:101DC4001640A18B5D8F93171600C18B5D8F9317FF
:101DD400360093F707025D8F9317560093558600DC
:101DE40093F707041E065D8F1376F60F518F93D772
:101DF400554013D63540118A898BD18F13D675403F
:101E0400D18F13D61540218AD18F13961500418A9C
:101E1400D18F1396350013760602D18F1396550091
:101E2400137606049E05D18F93F5F50FCD8FA20787
:101E340045465D8F3307C70222D42A8426D252CC6A
:101E440056CA032A8413832AC4135AC806D636975B
:101E54004207418393577740135557400989858B2F
:101E6400C98F135537401189C98F135517402189DC
:101E7400C98F131517004189C98F131537001375BE
:101E84000502C98F13155700935587001375050470
:101E94001E07C98F1377F70FD98F13D5354013D782
:101EA40055401189098B498F13D57540498F13D536
:101EB40015402189498F139515004189498F139540
:101EC400350013750502498F1395550013750504E4
:101ED4009E05498F93F5F50F4D8F2207D98FB38750
:101EE400C7024AD04ECE5EC662C4B697C207C1834B
:101EF40013D7774013D557400989058B498F13D5DC
:101F040037401189498F13D517402189498F13957B
:101F140017004189498F1395370013750502498FBE
:101F24001395570093D58700137505049E07498FB1
:101F340093F7F70FD98F13D5354013D7554011892F
:101F4400098B498F13D57540498F13D515402189C5
:101F5400498F139515004189498F139535001375E1
:101F64000502498F13955500137505049E05498F85
:101F740093F5F50F4D8F2207D98FB387C702130648
:101F840050025285D685B697BD8E93940601C180C2
:101F940033F6C402137BF60F973002E0E780E03893
:101FA40005890DED8347D41201498149B384970211
:101FB400130C5002C1804A865285D685973002E0C0
:101FC400E780A0360589937BF90F11C56386340336
:101FD400850993F9F90F0509E31F89FD230B6413A0
:101FE400B250225492540259F249624AD24A424BA4
:101FF400B24B224C456182805E8BCDB7797122D47D
:1020040006D683C735002E8423160100A307F100EA
:1020140083C74500100802C02307F10083C7550099
:102024008A8502C2A306F10002C402C802CA02CC15
:1020340002CEEFE09FF00347F1018347040001451E
:102044006310F7020347E101834714000145631954
:10205400F7000345D101834724001D8D1335150076
:10206400B250225445618280011197270000938762
:10207400E74922CC03A4870C26CA4AC84EC606CE1A
:10208400AA8413092500854915C083C71400034792
:102094003400858B6304F700405CFDB71946930553
:1020A40044004A85EFE09FA5E31835FF2285F240FE
:1020B4006244D2444249B249056182804111972762
:1020C40000009387A74422C403A4870C26C24AC0F5
:1020D40006C693042500054901E82285B24022443E
:1020E4009244024941018280A6851305A40239372E
:1020F400E30525FF405CCDB7411197270000938786
:10210400E74022C403A4870C26C24AC006C693042F
:102114002500054901E82285B2402244924402493F
:1021240041018280A6851305A401C93DE30525FF6D
:04213400405CCDB787
:1021380097110020938101DC17610020130101EC45
:102148001305400097E5FF1F938545EB1706002010
:10215800130606FE63FAC5008322050023A0550076
:1021680011059105E3EAC5FE17B502001305458977
:10217800970500209385C5FB1386818763FAC50000
:102188008322050023A0550011059105E3EAC5FE49
:1021980013858187972500209385C54A6377B50005
:1021A800232005001105E36DB5FEFD42739002BCC6
:1021B8008D4273904280930280087390023097E2B8
:1021C800FF1F9382A2E393E232007390523097226A
:1021D80000009382E2C873901234730020303D43AC
:1021E8002A876373C3029377F700BDEFADE5937653
:1021F80006FF3D8ABA960CC34CC30CC74CC74107AF
:10220800E36BD7FE11E28280B306C3408A069702C9
:10221800000096966780A6002307B700A306B700BC
:102228002306B700A305B7002305B700A304B7002A
:102238002304B700A303B7002303B700A302B70022
:102248002302B700A301B7002301B700A300B7001A
:102258002300B700828093F5F50F93968500D58DFE
:1022680093960501D58D61B79396270097020000D4
:1022780096968682E78086FA9680C1171D8F3E96CD
:10228800E374C3F8A5B7411181451305003006C6AC
:10229800EF30804089450145EF20B006A38C0186C8
:1022A8001707002003470745B7170040238CE704AA
:1022B800238C0186238D070437E700E0B70600204A
:1022C8002320D7100547238DE704B24041018280BF
:1022D800011106CE22CC26CA4AC84EC62E84EF501B
:1022E80032512A8903552402EF50925097970200E1
:1022F800938747738C43AA844A85EF50E255979792
:102308000200938767728C43AA892685EF50C254CE
:10231800AA854E85EF50627D9797020093870771D3
:102328008C43AA894A85EF502253979702009387D6
:1023380027708C432A892685EF500252AA854A8540
:10234800EF50A27AAA8403154402EF50123EAA85E0
:102358002685EF506250AA8403056402EF50F23CD0
:10236800979702009387076D8C43EF50E24E2A89B6
:10237800CE854E85EF50424EAA854A85EF50C24D14
:10238800AA852685EF40725A979702009387C76AF5
:102398008C4348DCEF500210F2406244D244424978
:1023A800B24905618280797122D497970200938798
:1023B80027622E845AC88C432A8B485C06D626D2BC
:1023C8004AD052CC4ECE56CAEF50024997970200D7
:1023D800938747608C43179A0200130A2A60EF50CC
:1023E800C270AA840305C402EF503234A685EF50A8
:1023F800A246A685EF504246979702009387076347
:102408008C43EF5062452A890315A402EF50F2313C
:10241800A685EF506244AA854A85EF4012519797E6
:1024280002009387675B8C43EF50024383250A00C1
:10243800EF508242979702009387875A8C43EF4068
:10244800D24E2AC603558402EF50923AB245EF5055
:10245800A2402A89EF50F2216303051803052403DB
:10246800979902009389095CEF50322C83A50900E3
:10247800EF50823EAA8AA6852685EF50E23DAA85BE
:102488005685EF50623DAA8A03150403EF50F229DE
:10249800A685EF50623CAA85EF403249D685EF40C9
:1024A800D248979702009387E7538C43EF50C23A7C
:1024B800AA8A5A85EF50D233979702009387C7525A
:1024C800AA858843EF506262AA840315E402EF509C
:1024D800D22597970200938767518C43EF50C237F4
:1024E800D685EF40924497970200938767508C43B4
:1024F800EF508236AA852685EF50225F9797020013
:102508009387474F8C43EF502235CA85EF40927826
:10251800979702009387474E8C43AA84EF50C233A3
:102528002A8903156403EF505220A685EF50C23262
:10253800A685EF506232979702009387274C8C4309
:10254800EF508231AA8A03154403EF50121E8325E7
:102558000A00EF506230A685EF500230AA855685F2
:10256800EF40B23C2A8A03458403EF50121C83A52E
:102578000900EF50622ECA85AA894A85EF50C22DFC
:10258800CA85EF50622DAA854E85EF50E22CAA85A8
:102598005285EF4092392A8903053403EF50F21827
:1025A800979702009387C7458C43EF50E22AAA8584
:1025B8004A85EF409237979702009387A7448C4348
:1025C800EF508229A685EF405236B25022549254D9
:1025D8000259F249624AD24A424B45618280130548
:1025E8000000E5B70111979702009387E74422CCD2
:1025F8002E8452C48C432A8A485C06CE26CA4AC80E
:102608004EC656C2EF401269AA84030594019799F1
:1026180002009389A941EF50521183A50900EF5098
:10262800A223A685EF504223979702009387473B42
:102638008C43EF40922F2A890305A401EF50F20E34
:1026480097970200938707388C43EF50E220A685BE
:10265800EF508220A685EF502220AA854A85EF40B8
:10266800D22C2A8903556401EF50921897970200DB
:10267800938787358C43EF50221EAA854A85EF50F1
:10268800A21D2A895285EF50B2162A8A03058401B1
:10269800EF50B20997970200938787338C43EF5026
:1026A800A21BA685EF50421BAA8A03554401EF508E
:1026B8003214979702009387E7378C43EF50C2197B
:1026C800AA855685EF407226AA855285EF50E241C9
:1026D800AA854A85EF5042182A890305C401EF509C
:1026E800D204979702009387672E8C43EF50C21647
:1026F800A685EF506216AA840345B401EF50520F25
:1027080083A50900EF504215AA852685EF40F221DE
:10271800CA85EF506214CA85EF500214CA85EF408B
:10272800D220979702009387A72984432A84A685F5
:10273800EF5062016345A002930500002285EF5027
:10274800E20863540500130400002285F240624445
:10275800D2444249B249224A924A0561828026847B
:10276800EDB7011126CAAA840395E50106CE22CC4D
:102778004AC82E844EC6EF50427B97970200938733
:10278800E7258C43EF50420D979702009387C727A0
:102798008C43EF50620C97970200938727278C434E
:1027A800EF40B218930700192A891305001963E34B
:1027B8009700268542054181EF509203AA854A85F4
:1027C800EF50820997940200938484218C40EF4053
:1027D800D2152A890305D401EF5022759797020074
:1027E800938747228C43EF502207979702009387DD
:1027F80027228C43EF407213AA854A85EF50C20501
:102808002A8903050402EF504272979702009387C2
:1028180027228C43EF504204AA8903051401EF5084
:10282800C270AA854E85EF502203AA854A85EF40DB
:10283800D20FAA8903450404179902001309891DB8
:10284800EF50027B83250900EF40320EAA8503254D
:102858000900EF403244AA854E85EF40F27F2A896D
:1028680003051404EF50626C979702009387C71A08
:102878008C43EF40727E8C40EF40320BAA85884033
:10288800EF405241AA854A85EF40127D9797020092
:102898009387C7188C43EF50422597970200938778
:1028A80027188C43EF40527BEF50C262F2406244DB
:1028B800D2444249B2491375F50F05618280FD572C
:1028C80019C97841FD5701CB384511C77C4593B7E5
:1028D8001700B307F0403E858280011122CC2A847C
:1028E800328506CE2EC632C4D93F1DE18347040087
:1028F800B24563FBF50022462300B4008347160562
:1029080093E71700A308F604F24062440561828049
:102918007D55DDBF357122CD26CB4AC9AA842E89C3
:10292800328497950200938565FF130600040A8593
:1029380006CF4EC752C556C3EF50920A130600047D
:1029480097950200938585018800EF5072092685C6
:10295800EF50026A97970200938787058C43931478
:102968002900979902009389A905EF5002182A8A2D
:102978002285EF50825B979702009387A7038C43C9
:10298800179402001304C405EF40126D97970200D4
:10299800938787028C43EF4042791C01BE9483A53C
:1029A8000900AA8A03A504F8EF40D22E0C40EF4094
:1029B800C277AA855685EF40326AAA855285EF40CC
:1029C800722D0C40EF40627683A509002A8A03A580
:1029D80004FCEF40322C0C40EF4022759797020020
:1029E8009387C7FD8C43EF403267AA8405453315AA
:1029F8002501EF50E25FAA852685EF40F265AA859A
:102A08005285EF407265AA850840EF40B228FA4027
:102A18006A44DA444A49BA492A4A9A4A0D61828084
:102A280062056185C14763530500814703C70501F6
:102A38006319F700014582800145F240624405614F
:102A48008280011122CC06CE2388F500D441FC41B6
:102A58002E8405469305F1001305300F829723084D
:102A6800A4040DE50347F1008347040154403D9B4E
:102A7800C18BD98FA307F1003C4405469305F100AB
:102A88001305300782972308A4045DD5795575B7D7
:102A98007C415441011122CC06CE2A840546930577
:102AA800F1001305300F82972308A40411E9834726
:102AB800F100C18B2308F400F24062440561828072
:102AC8007955DDBF5D7156DAAA8A3685A6C24EDE13
:102AD80052DC86C6A2C4CAC05AD85ED62E8AB2892B
:102AE800B68402C602C802CA02CC02CEC93B51E56E
:102AF80063850A0863030A089387F9FF254763601B
:102B0800F7081309C1000144DC44B38B8A0003CBE6
:102B18000B00ADE32685653301E5A6855A8509379F
:102B280083C70B0093F7F7072300F900B3078A0060
:102B380083C7070005040909A30FF9FEE31634FD4E
:102B480019EDBC44D4400345C100131614007D168A
:102B58009305D10082972388A40411C17955B64002
:102B6800264496440649F259625AD25A425BB25BED
:102B7800616182802300690155BF7D55CDB77155CC
:102B8800F9BF79714AD02A89368526D24ECE06D623
:102B980022D4AE8932C6B6841D3321E1638F09027F
:102BA800DC442A84324689EBA6854A85953D2A84E9
:102BB800324619E113690908FC40D440CE854A859C
:102BC80082972388A40411C179542285B2502254D3
:102BD80092540259F249456182807D54FDB7011132
:102BE80081572307F100930760FB22CC26CA06CE43
:102BF800AA84A307F100E1312A8401EDDC4485C3EE
:102C0800A68605469305F1001305E100653D2A8473
:102C180001CD2285F2406244D24405618280268536
:102C2800853D2A847DF5E9BFFC44CC400965130540
:102C380005718297DC44F1FF268551312A8471F9A8
:102C48002685B9352A84F1B7397106DE22DC2A8453
:102C58007937A2860546A2851305000D1D37AA8778
:102C6800631505168346040013071006F557639E7F
:102C7800E614A28605464C001305000F2302010046
:102C88000937AA876313051483474100A2865D4666
:102C98001CC44C001305A008ED35AA87631705125C
:102CA800A28639469305B1011305100ED93DAA87AE
:102CB800631D0510A286154693059102D935AA878A
:102CC8006315051003474102834631020346C101DB
:102CD8002207558F2311E402034751008346410020
:102CE8002207558F2312E402034761008346E1005F
:102CF8002303E402224718D40347C1002306E40251
:102D08000347F1002207558F2317E40203471101F7
:102D1800834601012207558F2318E4020357210136
:102D2800931687002183558F2319E4020347710105
:102D3800834661012207558F231AE4020347910154
:102D4800834681012207558F231BE4028346D10164
:102D58000347A1019206230CE4021377F600D98EEB
:102D68000347B1011182231AD4001207518F231B84
:102D7800E4000357E10183465102231CE400035792
:102D88000102231DE40003472102230EE400034748
:102D98007102A30EE400034761022207558F231F27
:102DA800E400034781022300E4020347B1021377DA
:102DB800070311872300E40403479102A300E404F6
:102DC8000307D10211872301E404F25062543E85BF
:102DD8002161828079714ECE93074007896926D296
:102DE8004AD006D622D42A89AE84A307F100938953
:102DF8000971A68605469305E1001305400751337E
:102E08002A8415E58347E10013F737000DCBF19BC2
:102E18009305E100A68605461305F1002307F10096
:102E28005531FC44CC402A844E85829779D022853E
:102E3800B250225492540259F24945618280E30803
:102E480009FEF19B13793900B3E72701A6860546E9
:102E58009305E1001305F1002307F100A5312A8449
:102E6800F9B70DC5011122CCAE862A849305F1006D
:102E780005461305400706CE29338347F1008D8B9D
:102E88002300F400F2406244056182807D5582800F
:102E980093878186984383C74700797122D42A840F
:102EA8001305F10026D206D6AE843AC8230AF100EB
:102EB80002CC230E0100753763140510A685193F4F
:102EC800AA8719ECFD570345F10009C581E7A685D6
:102ED8001137AA87B250225492543E8545618280A8
:102EE8007DF103450101A68615462C085939A388AA
:102EF8000404AA8769F926869D4513053400EFF076
:102F0800DF9DAA8769F12686954513051400EFF021
:102F1800DF9CAA874DF92686954513052400EFF016
:102F2800DF9BAA874DF1268695452285EFF0FF9A0B
:102F3800AA8751F92686A14513054400EFF0FF99A9
:102F4800AA8751F1834734000347C101834614001F
:102F58008A070D9BF18BD98F0347B1019606E207CB
:102F68000D8B558F83462400E1878A06F18A558F99
:102F7800A30DE10083460400034791019D8A619BEC
:102F8800558FA30CE10003474400A1466307D7020D
:102F980081461607FD8BD98F230EF10083478101E7
:102FA8009E06154693F7F707D58F2C08A6860808BE
:102FB800230CF100013EAA8739B785460147D1BFE6
:102FC800AA87E31204F0FDBD2D713C09232C811062
:102FD8002328211132C42A892E843E8513068004B1
:102FE8008145232A9110232E1110232631112324E1
:102FF80041112322511123206111DEDFE2DDE6DBDE
:10300800EAD9EED7B684EFF08F9D1C192ADC3EDE94
:103018002685BC01BEC0EFF09F8A15C97D5D83205F
:10302800C111032481116A858324411103290111E7
:103038008329C110032A8110832A4110032B011010
:10304800FE5B6E5CDE5C4E5DBE5D1561828079D490
:1030580085476310F91E8967938707713ED09307E8
:1030680034003ED2930744003ED49307540082D2E2
:1030780082D482D682D8230A010695493ED6A686EE
:103088004546CC107545EFF0DFAF834761062A8DC2
:10309800034541063EC6834781068346510613779A
:1030A80005083EC88347C1063D89A300A4003ECA5F
:1030B800834711072301D40094443ECC834731074A
:1030C800834A7106034C91063ECE8547034BA10601
:1030D800834CB106834DD106834B2107034A410730
:1030E8006397F61093760A03558F2300E40062076E
:1030F8006187635E071063120D129255A686054616
:103108001305A505EFF0FFA72A8D631805100345E1
:103118001400A255A6861305050505461375F50F77
:10312800EFF03FA62A8D631A050E03451400B25529
:10313800A6861305450605461375F50FEFF07FA41F
:103148002A8D61ED120B93DC4C00336B9B01131538
:10315800CC00A6853365AB00EFF08F97C24708C453
:10316800920A13D54700B247B3EAAA00A685139579
:10317800C70033E5AA00EFF00FA3D24748C4A685DD
:10318800139587003365B501EFF0CFC5984408C89B
:1031980085476311F706F247370504009394270023
:1031A80093576A00DD8C938404E08D47B384F4025E
:1031B800137AFA0033554501EF409263978702006E
:1031C8009387C77E8C43EF402269AA8905652695B7
:1031D800EF40B255AA854E85EF40C22B48C8030779
:1031E8000400014D634F072A0149094D5DAC93F670
:1031F8000B03DDBDE2470386240493F5FB0013951A
:10320800270093D76B005D8DEFF0CFF0C1BF631639
:103218000D00F844CC4002550297FD1993F9F90FB7
:1032280063860900E30D0DE40149A5ACE3090DFA35
:10323800E5BF79191379F90F63EB272713063003D4
:103248008145C810EFE0BFF99309410479468145EB
:103258004E85EFE0DFF8A68613063003CC107545DF
:10326800EFF03F922A8D63180516A6867946CE851B
:1032780013050005EFF0FF902A8D930D4106130901
:103288008103054A0D4BB70B0400178C0200130C81
:10329800EC71856C63110514832A090003C61D00AF
:1032A80003C82D0003C55D002381CA0003C63D0085
:1032B8003208320512063368C80003C64D0083C5BC
:1032C8000D0003C38D0011823368C80003C66D006A
:1032D80003AF840013F705081206518D03C67D005D
:1032E800BD892380EA001182518D03C69D00220307
:1032F8006207A380BA003363C30083CEDD0003CE28
:10330800ED0003C6FD0083C80D016187631B4F0FE5
:10331800139F8801135F8F41937F0F023367F70173
:10332800137F0F013367E7019C112380EA0033877D
:10333800B700834547F646D032CE2382BA0083458C
:10334800E7F6034787F772CCA381BA00A382EA00A5
:10335800A68576CA1AC842C6EFE09FF7324823A46A
:10336800AA00A6854285EFF00F84424323A6AA004F
:10337800A6851A85EFF00FA7984423A8AA00D24E75
:10338800624E724682586311470913D768000A06CD
:10339800598E130606E03306660313F5F80033D595
:1033A800AB0032C8EF40D24483250C00EF40C24A3C
:1033B80042462AC633059601EF4032373247AA857E
:1033C8003A85EF40220D23AAAA00C50D930771097B
:1033D8001109E393FDEC24182687014963140D0AAB
:1033E80014438386060063D5060005091379F90F8F
:1033F8001107E397E9FE34188548054F094E8D4EAD
:103408001DA8131F8E0139B7038624048A0E13558D
:103418006E009375FE0033E5AE00EFF0AFCF65B7F1
:10342800634E0704850513F7F50F6317D701910657
:10343800638AC8058948C6858842139625003C18C2
:103448003E96032806000303050003070800E35916
:1034580003FCE35907FC034325000347280033070F
:1034680067404207418313032700420313530301B4
:1034780063766F0042074187E356EEFA23A0060100
:1034880008C24DB793098404631B0D008C40228544
:1034980061466104EF40D2549104E31934FFE30616
:1034A80009D4A247E38C07B6238027018DBE0149C2
:1034B800054DC5BF9D6759719387071786D6A2D456
:1034C800A6D2CAD0CECED2CCD6CADAC8DEC6E2C41C
:1034D800E6C22316F100638F050E2A8A2E8901455C
:1034E800B285B289EFF01F8F2A846315051E9307F2
:1034F800E006A305F10002C802CA231C010002CE9F
:1035080002D02312010202D402D62318010202DAE1
:1035180002DC231E010289476304FA148D476307FE
:10352800FA0A854705446317FA1A035529009307D1
:10353800A005CE852308F100EFF0AFA2035749009C
:103548009307400685662304F102230EA1009386A3
:10355800F6FB9307F00F63EBE60081479306F00351
:1035680063E1E6069A07BA9793F7F70F230AF10281
:103578008144CE8652866C080808EFF0AFD42A84BE
:10358800631A0514CE8652864C182810EFF08FD394
:103598002A8463110514CE8609464C1813050007C2
:1035A800EFF02FDE2A8463170512834709000547C9
:1035B8006397E71803A78900630EF71A0547814642
:1035C80049A28507098393F7F70F59BF832BC900D1
:1035D80063940B007D54FDA8032C8900E30C0CFEBA
:1035E800034A0901056B0144130BFBFB930CF00321
:1035F8009374F40F63E44401D284A5BF1C081387B5
:10360800A405A297931A14002380E700B3075C016E
:1036180003D50700CE8593844406EFF08F947C0889
:10362800A2972380A7003C10A29723809700DE9AD8
:1036380003D70A009307F00F6369EB00814763EC37
:10364800EC009A07BA9793F7F70F581822972300B8
:10365800F700050471BF8507098393F7F70FC5B70E
:10366800032CC900E3080CF6832C8900E3840CF6CC
:103678008354290191E00D44034A0901814A13FB4F
:10368800FA0F63674B07130720789307F00F6366F9
:1036980097029307803EB387F4021307D01D930661
:1036A800F003B3D7E702139707014183814763E328
:1036B800E6089A07BA9793F7F70F2305F10019E878
:1036C800CE8605469305A1001305B100EFF08FBF24
:1036D8002A841DD12285B650265496540659F64997
:1036E800664AD64A464BB64B264C964C6561828054
:1036F8001C081307AB05D697939B1A002380E70095
:10370800B3877C0103D50700CE85130B4B06EFF07A
:103718004F857C08D6972380A7003C10D697238036
:103728006701E29B03D70B005C18D6972380E7005C
:10373800850AB1B78507098393F7F70F8DBF01474E
:103748008546834741038E061207DD9BD58F230AE2
:10375800F10283475103CE860946C19BC58F93F773
:10376800F7FCD98F4C186800A30AF102EFF08FB567
:103778002A848DB70947A1B541111377F60FAE8694
:103788002A869305600717F5FF1F1305259B06C6B4
:10379800EF00E06309E57955B240410182800145B7
:1037A800E5BF41111377F60FAE862A8693056007A9
:1037B80017F5FF1F1305859806C6152B09E57955DA
:1037C800B240410182800145E5BF4205418117D3DE
:1037D800FF1F670043E2397122DC2A84084906DEAC
:1037E800EF40F20D978702009387871D2AD42ED6C3
:1037F80048448C43EF30124AEF40720C2AD00844F8
:103808002ED2EF40D20B2ACC48482ECEEF40320BB6
:103818002258B258025792576246F2462AC02EC220
:103828001785020013050523EF504246F2506254F3
:10383800216182807971B707050422D49387172004
:103848002A84AA85480006D626D24AD03EC2EFF07E
:103858002FE47C444C40A964138504C482978547AF
:103868002306F1009307C0122317F100228693075D
:1038780040066C0005452318F1002D397C444C4066
:103888002A89138504C48297B25022544A859254D7
:10389800025945618280411106C697F7FF1F83C709
:1038A80097E59DC39385019F0545EFF0AFD297F744
:1038B800FF1F83C757E4B24093B7170017F7FF1FDE
:1038C800A30BF7E2410182809386019F1386A187AB
:1038D800971500209385C5870545EFF0EFEE17157E
:1038E80000201305E5865849938741A4D8C718498D
:1038F80098C7184598C35845D8C3F13D4DBF85476B
:1039080023AEF19E97070000938747E723AAF1A209
:1039180097070000938727E923ACF1A297070000D7
:103928009387E7EA23AEF1A297F7FF1F9387A7DCF7
:10393800411123AAF19E1385019FE14706C6A38082
:10394800F1A0EFF06FB001C9AA8517850200130531
:10395800E50EEF50A233B2401385019F4101D9BD56
:10396800411122C426C21387B18706C683470700C0
:1039780099462A849D8BFD1793F7F70FBA8463EB5A
:10398800F60017870200130767128A07BA979C4345
:10399800BA978287938741A48843EF404272AE86E4
:1039A8002A8697850200938525122285EF50C2400A
:1039B80083C70400B24022448507A38DF186924450
:1039C80041018280938741A4C843EF40426FAE868D
:1039D8002A869785020093852510C1BF938741A445
:1039E8008847EF40C26DAE862A8697850200938588
:1039F800A50F65BF938741A4C847EF40426CAE86C8
:103A08002A86978502009385250F45B703C641A5E9
:103A1800978502009385450F2285EF50E23949BF0B
:103A280003C651A5978502009385C50EF5B703D641
:103A380061A5978502009385A50EF9BF03D681A5D8
:103A4800978502009385850EC1BF8347050081EFE6
:103A5800371700405C418326070A93C7F7FFF58FA5
:103A68002320F70A82800547639CE7003717004048
:103A78005C418326070C93C7F7FFF58F2320F70CCB
:103A880082808347050091EB371700408327070A98
:103A98005441D58F2320F70A82800547639AE700AF
:103AA800371700408327070C5441D58F2320F70C84
:103AB80082808347150081EF371700401C45832615
:103AC800070A93C7F7FFF58F2320F70A8280054777
:103AD800639CE700371700401C458326070C93C7F3
:103AE800F7FFF58F2320F70C8280411122C406C608
:103AF800834705002A8485E748418545EF10D0397A
:103B0800371700408327C70A5440D58F2326F70A62
:103B18002285253F22852244B240410159BF0547ED
:103B2800E398E7FE48418545EF107041371700409C
:103B38008327C70C5440D58F2326F70CD1BF834762
:103B4800150091EB371700408327070A1445D58FD6
:103B58002320F70A82800547639AE7003717004059
:103B68008327070C1445D58F2320F70C8280034741
:103B7800150019EBB717004083A7470A0845E98FD6
:103B8800B337F0003E85828085468147E31CD7FE27
:103B9800B717004083A7470CD5B7794517D3FF1F40
:103BA800670063A5411106C622C42A841937F53770
:103BB8002285613DDD3722855D3F11E50145B24033
:103BC80022444101828022859D3FC13F228545379D
:103BD80075F522857D35D1370545D5B7411122C404
:103BE80026C24AC006C62A89AE842144593D939705
:103BF8008401E1874A8563D60702653D4A85B13568
:103C08007D14613F4A8586041374F40F9D3D93F437
:103C1800F40F613769FCB2402244924402494101E1
:103C28008280313FE1BF411106C622C426C22A84E0
:103C380049352285193D9304803E85372285053F05
:103C480019C9FD14C204C180F5F8178502001305CF
:103C5800A5EEEF50A2032285193F19CD228515350F
:103C680017850200130585EEEF5042020145B24068
:103C780022449244410182800D3722851935313F13
:103C88000545F5B7411106C622C426C24AC0A1445B
:103C98002A890144393D11374A85E533FD3D4A8576
:103CA8006D3306044A851374F40FD13519C11364B2
:103CB8001400FD1493F4F40FCD35F9FC2285B240BD
:103CC80022449244024941018280411106C622C41D
:103CD8002A84453BD93522859D35C1352285B533A2
:103CE8006D3D2285F9332244B24041017DB5797199
:103CF80006D622D44AD02A844ECE52CCBA89328AE9
:103D080056CA2EC6B68A26D2713DB24522850149C9
:103D1800860593F5E50FD935228531373DE5AA8427
:103D280017850200130545E3EF4052762285713F5F
:103D3800B2502254268502599254F249624AD24A14
:103D480045618280D29593F5F50F2285413D228504
:103D5800D93DAA8411E517850200130525E0E9B7C6
:103D6800B3872A0183C5070022858D3D2285653DDD
:103D7800AA849307190009E9CA8517850200130563
:103D880025DEEF40B2705DB73E899375F90FE31BEE
:103D980039FB22851D3F854461BF011122CC2EC607
:103DA8002A8406CEEFF0FFCDB245228599EDEFF0DB
:103DB8005FD0E5332285EFF05FC9C5332285EFF088
:103DC8005FCC6244F2400561C9BB953BDDB77971B0
:103DD80026D2AE8432C606D622D44AD02A843A895C
:103DE8004ECE52CCB6898604753B93F5E40F2285F6
:103DF800F53322850D3D324601ED2285F935014521
:103E0800B250225492540259F249624A4561828062
:103E18002285B285E1332285393565D1228559332A
:103E280093E51400228593F5F50F4D3B2285E53B7C
:103E380069D58144130AF9FF639424010545C9B77C
:103E480022858935B38799002380A700854563C3F8
:103E580044018145228591378504F9BF4111054503
:103E680006C6EF1030181305800497C0FF1FE780BF
:103E7800202DEF20C013EF20E024EF80F1773D29BB
:103E880017E5FF1F1305C52AEFF03FC617E5FF1F0B
:103E98001305C52AEFF07FC5914513050008EF10FB
:103EA800100A371700408327C70C93E70708232613
:103EB800F70CEFF0DFA4EFE00FBDEF00903F97D0D5
:103EC800FF1FE78060DEE5BF2A86B305B04017858F
:103ED8000200130525D26F40725B011106CE19C589
:103EE80089476301F502F24005618280680097D036
:103EF800FF1FE78060B7178502001305A5DCEF40B8
:103F0800F26AD5B7680097D0FF1FE780E0B517853C
:103F180002001305E5DCE5B783D781886390A70223
:103F28002395B1882396C1882397D1882E86178533
:103F38000200130525CABE856F4052551785020039
:103F48001305C5CA6F40926603574500011106CE96
:103F580083D78188631FF702C167F917894503C5AD
:103F6800C18023A4F18823A60188EF20501F914522
:103F780003C5C180EF20B01E85471306F1008545B3
:103F880013055030A307F100EF807132F24005614C
:103F9800828017850200130565C5EF403261FDB7C1
:103FA8003D897D15954763E4A71617870200130717
:103FB800A7BB0A053A951C41411122C406C6BA9707
:103FC8002E84828717850200130545C42244B24017
:103FD80041016F40B25D83C7250019476391E7022D
:103FE8002E859D378345640017850200130505C398
:103FF800EF40D24917850200130505C4C1BF0D471C
:10400800E38AE7FEB24022444101828003C72500CB
:104018009547E319F7FEC16703D78188F91703D5D8
:10402800A500630FF700EF80B15A1785020013054A
:10403800A5C1EF40B25717850200130565C379B7CC
:104048002394A18883D7E5001306003203C5C180F5
:104058002395F18883D705012396F18883D7250115
:1040680089452397F188DD47A38BF180EF20A06C69
:10407800096613060690A14503C5C180EF20A06B11
:104088000566130606C8914503C5C180EF20A06ADE
:104098000356E4008355A40017850200130505BCE8
:1040A800EF40D23E49BF03C725008D471785020060
:1040B8001305C5BCE318F7F411BF83C52500914764
:1040C8006397F500178502001305C5BC01B799472A
:1040D800639FF50022858D3D8345640017850200A6
:1040E8001305C5B32244B24041016F40323A9547A7
:1040F800639AF50083471400F1F71785020013054A
:1041080025BBE9B517850200130505BBE1BF828011
:1041180079719397050122D406D626D2C1872E84B9
:1041280063DC070603C5C180EF20C013AA840DCD48
:10413800834705001307000B638FE7021307000D81
:104148006391E70203472500C547631CF700034650
:1041580065008345750017850200130565A2EF40C9
:10416800F2322685EF20E0082165218DB2502254D5
:10417800925445618280034745009307F007E31294
:10418800F7FE8355850017850200130525A1A38B2B
:10419800B180EF40B22FF1B793F7150085C317E64A
:1041A800FF1F130666FA970500209385E5FB03C5F4
:1041B800C180EF80015C134514004DBF93F72500C3
:1041C800C1C713060032894503C5C180EF20A05638
:1041D800680002C602C802CA02CC02CEEFF04FF84D
:1041E8008347C10099CF6800EF40724183C771814E
:1041F800F917634BF500178502001305659BEF401F
:10420800F23A134524009DB7131605014182014770
:104218008146ED4503D581882313C100EF70300135
:104228002AC465D1035661006C0097D0FF1FE78050
:10423800A0834C0003D58188EF10103E79D1ED455D
:104248004800EF70901675BF93F7850099CF83C724
:10425800C1801307800C81463146994503D5818872
:10426800EF80814A1345840011B793F705019DC378
:10427800014789460946814503D58188EF809137F2
:10428800AA85178502001305A593EF403220134530
:104298000401E9BD93F745000145E38907EC03D51F
:1042A8008188EF80B1320566130606C8914503C5BB
:1042B800C180EF204048134544004DBD39711705B2
:1042C8000000130525E506DE22DC26DAEF20501D66
:1042D8009384C180994705442380A400231AF100E0
:1042E8001008B147854513055030231EF1002308F7
:1042F8008100EF80C17B17E6FF1F130626E7C5453F
:1043080013057030EF80A17A138601819D4513054E
:104318006030EF80C1795008894513051031EF806E
:1043280001797008894513052031EF80417893059C
:1043380000050D45EF40607C930500051145EF40F1
:10434800C07B85457945EF40407B70089145130552
:10435800704023048100230681002308810002CED7
:10436800230A0100EF70413D3000854513050040E8
:10437800EF70813C7000854513051040EF70C13B1C
:104388005008854513052040EF70013B100885450E
:1043980013055040EF70413A7D55EF7080317D55DF
:1043A800EF908079EF10207E7D55EF10F01817E61A
:1043B800FF1F130626DAD5450145EF70201E8947F1
:1043C8002306F1008D472308F10002CE9147230E02
:1043D800F10093870187984383C7470030008545DC
:1043E80001453ACA230CF1002304810002D002D20D
:1043F80002D402D6EF10F019700085450545EF107C
:104408005019100885450945EF10B0187008D145B6
:104418000D45EF101018500895451145EF1070170D
:10442800C16713878188F9171CC3232207001385E6
:104438008180EF10301513850188EF60C10703C52F
:1044480004008545EF20A016F2506254D254216131
:104458008280411117E5FF1F130585CD06C6EFF0D1
:104468006FF49305400C17E5FF1F130565CCEFF0BB
:10447800EFF617E5FF1F1305A5CBEFF0CFFA93056D
:10448800100217E5FF1F1305A5CAEFF02FF517E572
:10449800FF1F1305E5C9EFF00FF99305100B17E59A
:1044A800FF1F1305E5C8EFF06FF317E5FF1F1305AE
:1044B80025C8EFF04FF7B24017E5FF1F130545C7B2
:1044C80041016FF09F8039715AD02A8B17E5FF1F81
:1044D800130505C606DE32C622DC26DA4AD84ED6D1
:1044E80052D456D25ECE2E8AEFF0CFEB9305400C15
:1044F80017E5FF1F1305C5C3EFF04FEE17E5FF1FC4
:10450800130505C3EFF02FF29305C00E17E5FF1F43
:10451800130505C2EFF08FEC17E5FF1F130545C122
:10452800EFF06FF0954517E5FF1F130565C0EFF035
:10453800EFEA17E5FF1F1305A5BFEFF0CFEE05451E
:1045480097C0FF1FE780000C17E5FF1F130545BE46
:10455800EFF04FE59305500C17E5FF1F130545BD18
:10456800EFF0CFE717E5FF1F130585BCEFF0AFEBC2
:1045780017E5FF1F1305C5BBEFF0CFF085452A8966
:1045880017E5FF1F1305C5BAEFF03F8117E5FF1FB9
:10459800130505BAEFF00FEFAA8B854517E5FF1F46
:1045A800130505B9EFF06FFF17E5FF1F130545B8B1
:1045B800EFF04FED854517E5FF1F130565B7EFF0E1
:1045C800CFFD17E5FF1F1305A5B6EFF0AFEBAA84E3
:1045D800854517E5FF1F1305A5B5EFF00FFC17E597
:1045E800FF1F1305E5B4EFF0EFE9AA8A854517E543
:1045F800FF1F1305E5B3EFF04FFA17E5FF1F13058B
:1046080025B3EFF02FE8854517E5FF1F130545B2E1
:10461800EFF0AFF817E5FF1F130585B1EFF08FE650
:104628002A84854517E5FF1F130585B0EFF0EFF6DF
:1046380017E5FF1F1305C5AFEFF0CFE4AA8985453D
:1046480017E5FF1F1305C5AEEFF02FF517E5FF1FA0
:10465800130505AEEFF00FE3854517E5FF1F1305BA
:1046680025ADEFF08FF3854517E5FF1F130545AC22
:10467800EFF0AFF217E5FF1F130585ABEFF08FE002
:10468800814517E5FF1F1305A5AAEFF00FF117E500
:10469800FF1F1305E5A9EFF04FE313958400336579
:1046A8005501220933697901420523102B01418103
:1046B800EF30121497770200938747648C439774FE
:1046C80002009384E463EF3022198C40EF30C21863
:1046D80097770200938707638C43EF300241EF30EE
:1046E800627F2310AA001315840033653501420543
:1046F8004181EF30F20F977702009387672C8C4344
:10470800EF3082158C40EF302215EF30A27C324614
:10471800F25062542310A600D2544259B259225A78
:10472800925A025BF24B21618280411117E5FF1F0B
:10473800130505A006C6EFF0EFC69305400C17E574
:10474800FF1F1305E59EEFF06FC917E5FF1F13055F
:10475800259EEFF04FCD9305F00317E5FF1F1305D6
:10476800259DEFF0AFC717E5FF1F1305659CEFF018
:104778008FCB9305600817E5FF1F1305659BEFF0C6
:10478800EFC517E5FF1F1305A59AEFF0CFC9B24093
:1047980017E5FF1F1305C59941016FF00FD34111AC
:1047A80026C2AA8417E5FF1F1305859806C622C4EA
:1047B8004AC0EFF02FBF9305400C17E5FF1F130504
:1047C8002597EFF0AFC117E5FF1F13056596EFF0CA
:1047D8008FC59305400E17E5FF1F13056595EFF08C
:1047E800EFBF17E5FF1F1305A594EFF0CFC393059F
:1047F800800B17E5FF1F1305A593EFF02FBE17E5F4
:10480800FF1F1305E592EFF00FC2054597C0FF1F84
:10481800E78040DF17E5FF1F13058591EFF08FB89C
:104828009305500C17E5FF1F13058590EFF00FBB9C
:1048380017E5FF1F1305C58FEFF0EFBE17E5FF1F44
:104848001305058FEFF00FC485452A8417E5FF1F70
:104858001305058EEFF06FD417E5FF1F1305458D7F
:10486800EFF04FC22A89854517E5FF1F1305458CD0
:10487800EFF0AFD217E5FF1F1305858BEFF08FC060
:10488800814517E5FF1F1305A58A2204EFF0EFD035
:104898003364240117E5FF1F130585891374F47F1A
:1048A800EFF0AFC23334800023808400B24022444A
:1048B8009244024941018280411117E5FF1F130507
:1048C800258706C6EFF00FAE9305400C17E5FF1FCE
:1048D80013050586EFF08FB017E5FF1F1305458513
:1048E800EFF06FB49305600317E5FF1F13054584C8
:1048F800EFF0CFAE17E5FF1F13058583EFF0AFB2DA
:104908009305600417E5FF1F13058582EFF00FADCF
:1049180017E5FF1F1305C581EFF0EFB0B24017E5AB
:10492800FF1F1305E58041016FF02FBA411122C422
:1049380006C68347050005472A846388E7029DC3A6
:1049480009476387E70283470400B240850793F766
:10495800F70F2300F40022441385D7FF3335A00056
:1049680041018280EFF07FDCF9BFEFF0FFF4E1BF97
:10497800EFF03FAEC9BF01119397050122CC06CED7
:10498800C1872E8463DF070003C58181EF10900D76
:1049980019C1EF1010062165218DF24062440561AE
:1049A800828093F7250091CB2146894503C58181F3
:1049B800EF10705813452400CDB793F74500BDC3D9
:1049C8001305F100A3070100EFF07FDD8347F10035
:1049D8009DCF1386C1879385E18717E5FF1F1305D0
:1049E800A5D1EFF05FAE97E5FF1F83D5E5D003D6DD
:1049F800E18783D6C187177502001305E530239B2D
:104A0800B1A4A38AC1A4238AD1A4EF4022280966AD
:104A1800130606F4914503C58181EF10D051134563
:104A28004400A5BF93F7850099CB13060064A14500
:104A380003C58181EF10305013458400B9BF93F747
:104A4800050199CB1306000AC14503C58181EF1002
:104A5800904E1345040191B793F7050299CF056667
:104A6800130606FA9305000203C58181EF10B04CC6
:104A7800EFE07FE2134504020DB793F705080145FF
:104A8800E38D07F013850189EFF05FEA83C7818121
:104A980001CD0566130606C8930500083E85EF108C
:104AA800904913450408D5BD0966130606F49145D7
:104AB800F5B7411117050000130525EC06C622C4F9
:104AC80026C2EF20E01D1384818113060064A145EE
:104AD8002300A400EF1030460345040085641386C4
:104AE80004C893050008EF1010450345040022444C
:104AF800B240138604C892449305000241016F1026
:104B08009043B717004003C777051A0592054D8DE6
:104B18001377E70F13653500A38BE7041375F50FBB
:104B2800A38CA7048280B717004003C777051377C3
:104B3800E70FA38BE704130700F8A38DE7043D47AD
:104B4800238CE70413075003A38CE7048280B7176C
:104B5800004083C7E7020D8993F7C70FC98F7327F2
:104B68000080218B9386418909CB7327008023AA73
:104B7800E18898425D9B7310078001000100371798
:104B88000040130670052300C704130680FA2300AB
:104B9800C704010001002307F70223000704732755
:104BA80000809C42A18BD98F7390078023AA01882B
:104BB80001000100828041112A83014E930E407E3C
:104BC800130F0019930F400663E66E14930800193B
:104BD80013034006B3781503854E0D4FA14F337369
:104BE80065020D891335150063E0BE161308F6FF3C
:104BF800794672984208135808013307C70213D63A
:104C08001700BE0732976146B3F6C60213068070D6
:104C1800B386C6023697A166F58F42075D8FB71631
:104C2800004083C7F60293F70708A307F10003467D
:104C3800F10083C7F60293F70708E394C7FE83479A
:104C4800F100B716004093F7F70F63890714F327AD
:104C58000080A18B938641896398071401000100A5
:104C6800B7170040130670052380C704130680FA9F
:104C78002380C7040100010023AA070303C6170302
:104C880013660608A388C7022380070473260080DA
:104C98009C42A18BD18F7390078023AA01880100C1
:104CA80001001166B71500407D16DC59C85DA98F53
:104CB800F18FE5FFF3270080A18B89CBF3270080D4
:104CC80023AAF1889C42DD9B7390078001000100B4
:104CD800B7170040130670052380C704130680FA2F
:104CE8002380C70401000100D8DB03C7170313673B
:104CF8000704A388E70223800704732700809C42E7
:104D0800A18BD98F7390078023AA01880100010025
:104D1800410182807D133368E3039308E016630E34
:104D280008003368F3039308D016630808009378E3
:104D3800330093B818009388D81633081E01131E41
:104D48000801135E0E0149B56393E50305486386C0
:104D580008000148630303002A8871087298FD154A
:104D6800131E0801C205135E0E01C181B5BD13F8FB
:104D7800150063F4BF007908D5B713381800E5BFEC
:104D880083C7F60293F70708A307F1000346F1006B
:104D980083C7F60293F70708E394C7FE8347F10039
:104DA80093F7F70FF1DF65B5F327008023AAF188A1
:104DB8009C42DD9B7390078055B55971E2C486D635
:104DC800A2D4A6D2CAD0CECED2CCD6CADAC8DEC633
:104DD800E6C2EAC06EDE2A8C02D6EF007034F327F2
:104DE8000080A18B138D418991CBF327008023AAE2
:104DF800F18883270D00DD9B739007800100010077
:104E0800B7170040130770052380E704130780FADB
:104E18002380E7040100010003C7F7021377770F27
:104E2800A387E70203C7F70213678700A387E70290
:104E3800238007047327008083270D00A18BD98F57
:104E48007390078023AA018801000100F3270080DE
:104E5800A18B91CBF327008023AAF18883270D002B
:104E6800DD9B7390078001000100B717004013070E
:104E780070052380E704130780FA2380E704010004
:104E8800010003C7E7021377C70F2387E70203C7A9
:104E9800E702136717002387E702238007047327B5
:104EA800008083270D00A18BD98F7390078023AAD8
:104EB800018801000100130780C13347E5029169A9
:104EC800938709E8130650023D69B7440F0093849D
:104ED8000424856B130BA004014A814A130470054E
:104EE800FD19B347F5023307C7023EC2930709A667
:104EF8001309803E3347F7023AC43347250305496F
:104F080033198901135939403345950293840BFAB3
:104F1800B3948401811B3306C702B346F6023309F2
:104F2800E90236C6330B670313076055B3049502CD
:104F3800130500103309E902B346FB02130B80FA8C
:104F4800B3C4A40236C8B347F9029396340037199C
:104F5800004036CC930409043ECA73260080218A97
:104F680011CA7326008023AAC18803260D005D9A02
:104F78007310068001000100930770052380F40078
:104F88002380640101000100034639051376860F6A
:104F9800A309C9040346390513661600A309C90401
:104FA800238004007325008003260D00218A498E82
:104FB8007310068023AA018801000100916CE17D2D
:104FC80073260080218A11CA7326008023AAC1880B
:104FD80003260D005D9A73100680010001009307F7
:104FE80070052380F400238064010100010003465A
:104FF800390513660602A309C90403560905336671
:1050080096012318C904035609053366B6014206FA
:1050180041822318C90423800400732500800326D5
:105028000D00218A498E7310068023AA0188010089
:105038000100034639051376060263070616034680
:105048003905218A6DDE6810EF00B01173260080E3
:10505800218A11CA7326008023AAC18803260D005D
:105068005D9A73100680010001002380840023806C
:10507800640101000100034639051376F60DA30902
:10508800C9040346390513660602A309C904035671
:105098000905336696012318C904035609053366C2
:1050A800B601420641822318C904238004007325EF
:1050B800008003260D00218A498E7310068023AADA
:1050C80001880100010003463905137606026309C9
:1050D800061003463905218A6DFE97B0FF1FE78049
:1050E800A0042A8632CE97B0FF1FE780E0037246FD
:1050F800E30AC5FE0356090532553366960123189F
:10510800C904EF00D00703463905218A6DDE03552F
:10511800090503462905924733F5A9003386C902D4
:1051280032951D8DA24763D5A700B2476346F50E99
:1051380009466365560FC247850A1316150093FA88
:10514800FA0F3346F6026354A03A0506094533467A
:10515800A60273250080218911C97325008023AA1E
:10516800A18803250D005D997310058001000100D9
:105178002380840023806401010001000355C902D3
:105188002A96420641822316C90223800400732509
:10519800008003260D00218A498E7310068023AAF9
:1051A80001880100010029BD73260080218A11CAE7
:1051B8007326008023AAC18803260D005D9A731008
:1051C800068001000100238084002380640101001F
:1051D80001000346390513660602A309C90425BD63
:1051E80073260080218A11CA7326008023AAC188E9
:1051F80003260D005D9A73100680010001002380CC
:105208008400238064010100010003463905136608
:105218000602A309C90451BDE38F0AF07326008072
:10522800218A11CA7326008023AAC18803260D008B
:105238005D9A73100680010001002380840023809A
:10524800640101000100034639051375FC0F13764C
:10525800860FA309C90403463905498EA309C90461
:10526800238004007328008003260D00218A3366FA
:1052780006017310068023AA018801000100034675
:1052880039051D8A6317862773260080218A11CA6B
:105298007326008023AAC18803260D005D9A731027
:1052A800068001000100238084002380640101003E
:1052B80001000346390511651376F60DA309C904E3
:1052C8000346390513660602A309C90403560905EE
:1052D800498E2318C904035609052165498E2318E8
:1052E800C904238004007325008003260D00218A49
:1052F800498E7310068023AA018801000100034625
:10530800390513760602630E062003463905218AFD
:105318006DDE6810B92573260080218A11CA7326AC
:10532800008023AAC18803260D005D9A73100680A9
:105338000100010023808400238064010100010032
:105348000346390511651376F60DA309C90403460A
:10535800390513660602A309C90403560905498ECF
:105368002318C904035609052165498E2318C90461
:10537800238004007325008003260D00218A498EAE
:105388007310068023AA018801000100034639052D
:10539800137606026303061C03463905218A6DFE4F
:1053A80097B0FF1FE78040D8AA8C97B0FF1FE7800F
:1053B800A0D7E30C95FF035609051165498E3255B0
:1053C8002318C9046D2B03463905218A6DDE73261F
:1053D8000080218A1385418909CA7326008023AA7F
:1053E800C18810415D9A7310068001000100238076
:1053F8008400238064010100010003463905137607
:10540800F60DA309C9042380040073280080104105
:10541800218A336606017310068023AA01880100D9
:1054280001000358090503462905E24733F8090135
:105438003386C90232983308F8401306800C3306C5
:10544800C802D2473346F6026355001505060948D7
:10545800334606036351C0140358C9029308F00F7A
:1054680013585800329863D6081F094663734619C3
:10547800F3270080A18B89CBF327008023AAF1882A
:105488001C41DD9B73900780010001003717004025
:10549800930770052300F704930780FA2300F704A5
:1054A800010001008356C70289678117D58FC2079B
:1054B800C1832316F70223000704732700801C41C9
:1054C800A18BD98F7390078023AA0188010001005E
:1054D800B650265496540659F649664AD64A464B5B
:1054E800B64B264C964C064DF25D656182807D1662
:1054F800B1B973260080218A11CA7326008023AAB5
:10550800C18803260D005D9A731006800100010012
:1055180023808400238064010100010003463905CB
:105528002DBB73260080218A11CA7326008023AA06
:10553800C18803260D005D9A7310068001000100E2
:10554800238084002380640101000100034639059B
:1055580013660602A309C90469B373260080218A69
:1055680011CA7326008023AAC18803260D005D9AFC
:1055780073100680010001002380840023806401E9
:10558800010001000346390513660602A309C90490
:10559800C5B37D166DBD55CE0358C902B308C040CA
:1055A800135858006357180B094663744605F327C8
:1055B8000080A18B89CBF327008023AAF1881C41A6
:1055C800DD9B7390078001000100B71700401307A7
:1055D80070052380E704130780FA2380E70401009D
:1055E800010003D7C7027D8B2396E70223800704B7
:1055F800E9B573260080218A09CA7326008023AA88
:10560800C18810415D9A7310068001000100238053
:10561800840023806401010001000356C902137647
:10562800F60F33667601420641822316C9022380AB
:105638000400732800801041218A33660601731024
:10564800068023AA018801000100050A137AFA0FCF
:1056580029B2F3270080A18B89CBF327008023AAE6
:10566800F1881C41DD9B7390078001000100B7178A
:105678000040130770052380E704130780FA23808E
:10568800E7040100010003D7C70216063A9642064E
:1056980041822396C70299BF914763EEB702176705
:1056A80002001307A7678A05BA959C41BA978287B3
:1056B800B717004003A7470B1345F5FF698F23AAC7
:1056C800E70A03A7070B698F23A8E70A03A7070AB6
:1056D800798D23A0A70A8280B717004083A6470BBD
:1056E8001347F5FFF98E23AAD70A83A6070B558D12
:1056F80023A8A70A83A6070A758F23A0E70A828032
:10570800B717004003A7470B498F23AAE70A03A747
:10571800070B1345F5FF45BFB717004083A6470B96
:105728001347F5FF758F23AAE70A03A7070A598DC0
:105738004DB7B717004003A7470B498FEDB79147FF
:1057480063EEB702176702001307875E8A05BA95EA
:105758009C41BA978287B717004003A7470D1345A6
:10576800F5FF698F23AAE70C03A7070D698F23A804
:10577800E70C03A7070C798D23A0A70C8280B71725
:10578800004083A6470D1347F5FFF98E23AAD70CCF
:1057980083A6070D558D23A8A70C83A6070C758F24
:1057A80023A0E70C8280B717004003A7470D498F55
:1057B80023AAE70C03A7070D1345F5FF45BFB71745
:1057C800004083A6470D1347F5FF758F23AAE70C02
:1057D80003A7070C598D4DB7B717004003A7470D0E
:1057E800498FEDB7411122C43717004006C68347D9
:1057F8002702035707021384418993F7F70F4207DB
:10580800418325E91377F79F420793F7F707418309
:10581800F3260080A18A89CAF326008023AAD188AA
:105828001440DD9A7390068001000100B71600400D
:10583800130670052380C604130680FA2380C60465
:105848000100010093F7F70F2381F6022390E60287
:1058580023800604732700801C40A18BD98F739086
:10586800078023AA018801000100B24022444101B7
:10587800828093E7070813670740F3260080A18A10
:1058880089CAF326008023AAD1881440DD9A739030
:10589800068001000100B71600401306700523803A
:1058A800C604130680FA2380C60401000100238180
:1058B800F6022390E60223800604732700801C402A
:1058C800A18BD98F7390078023AA0188010001005A
:1058D800294597B0FF1FE78000D2F3270080A18BEE
:1058E80089CBF327008023AAF1881C40DD9B7390A5
:1058F800078001000100B7170040130770052380D7
:10590800E704130780FA2380E7040100010003D7A6
:105918000702136707202390E702238007041DBFAF
:10592800B717004003D587004205418193770504E6
:1059380091EB9377F5013755E80113050580334559
:10594800F50282809377050C130700046397E7003C
:105958009377F50137459C1CCDB72165130505D014
:10596800828037E700E01C435443A183E206D58FC9
:105978001CC1FD572320F7182322F718828013171C
:105988008500B7E700E023A0E710618123A2A710F4
:105998008280B7F700E08847CC4782808147374745
:1059A8000040A14663C4C700328582800345B7C062
:1059B800E38EA6FE3385F50003450500850723041D
:1059C800A7C0CDB79387C1819C4317F7FF1F130763
:1059D80067C73E95636CE500172700201307074249
:1059E8006366A70023AEA1803E858280FD57EDBF88
:1059F800CC41411106C6328503C6150083C5050092
:105A080022064D8E42068D654186138875A2630C69
:105A1800060F6348C804138845A26306060B634A49
:105A2800C800938535A26309B60623900600294667
:105A380079A0138855A26308060B938565A2E3161F
:105A4800B6FEC1451D4663ECE5064546198E63F36F
:105A5800C7003E862390C600976502009385852F70
:105A680089A8138895A26300060F634E060B138856
:105A7800A5A2630A060F938505A5E318B6FA99450A
:105A88001D4663EEE502198E63F3C7003E86239038
:105A9800C6009385818231A89D451D4663E1E502D4
:105AA8002146198E63F3C7003E862390C60093856E
:105AB8008189BA9597B0FF1FE78000FB0146B24085
:105AC800328541018280AD451D46E3EAE5FE314657
