:040000006F20C00AA3
:10000400000000000000000090000020AE0400206A
:10001400A9BDF9F3900000200000000000000000DA
:10002400900000209000002000000000000000006C
:10003400900000200000000090000020000000005C
:1000440090000020900000209000002090000020EC
:1000540090000020900000209000002090000020DC
:1000640090000020900000209000002092000020CA
:10007400A2050020900000209000002090000020A5
:1000840090000020900000209000002090000020AC
:1000940001A0B737004083C74740730020304111A7
:1000A400B7170040985F3AC6945F3247E39CE6FE78
:1000B40032454101828073270080218B9387018818
:1000C40009CB7327008023A0E18898435D9B7310BC
:1000D40007800100010037170040930670052300D4
:1000E400D704930680FA2300D70401000100834655
:1000F400B70493F6F60DA305D7042300070473266B
:1001040000809443A18AD18E7390068023A0018835
:100114000100010093760502638406180347A700D3
:10012400118B25E773270080218B09CB732700806F
:1001340023A0E18898435D9B7310078001000100B0
:1001440037170040930670052300D704930680FAFE
:100154002300D704010001008346A70093E646006C
:100164002305D70023000704F32600809843218B3E
:10017400558F7310078023A0018801000100130725
:10018400004B010001007D176DFF73270080218B58
:1001940009CB7327008023A0E18898435D9B7310EB
:1001A4000780010001003717004093067005230003
:1001B400D704930680FA2300D704010001007D8947
:1001C4002314A7000100010001000100230007041B
:1001D400F32600809843218B558F7310078023A04A
:1001E40001880100010073270080218B09CB73274C
:1001F400008023A0E18898435D9B73100780010071
:10020400010037170040930670052300D7049306B6
:1002140080FA2300D7040100010001000100B72681
:10022400004013061005A383C68023000704F326A9
:1002340000809843218B558F7310078023A0018879
:100244000100010073270080218B09CB73270080F4
:1002540023A0E18898435D9B73100780010001008F
:1002640037170040930670052300D704930680FADD
:100274002300D704010001008346B70493E606086F
:10028400A305D70423000704732700809C43A18B94
:10029400D98F7390078023A0018801000100828018
:1002A40093760504638B06140347A700418B25E767
:1002B40073270080218B09CB7327008023A0E1885A
:1002C40098435D9B731007800100010037170040BD
:1002D400930670052300D704930680FA2300D704FD
:1002E400010001008346A70093E606012305D70019
:1002F40023000704F32600809843218B558F731045
:10030400078023A00188010001001307007D01007C
:1003140001007D176DFF73270080218B09CB7327A4
:10032400008023A0E18898435D9B7310078001003F
:10033400010037170040930670052300D704930685
:1003440080FA2300D704010001009376F50193E6B7
:1003540006042314D700010001000100010023005A
:100364000704F32600809843218B558F7310078070
:1003740023A0018801000100130760046310E50451
:1003840073270080218B09CB7327008023A0E18889
:1003940098435D9B731007800100010037170040EC
:1003A400930670052300D704930680FA2300D7042C
:1003B40001000100B72600400946B5B57327008047
:1003C400218B09CB7327008023A0E18898435D9B90
:1003D4007310078001000100371700409306700571
:1003E4002300D704930680FA2300D70401000100F8
:1003F400B7260040130620053DB573270080218BE6
:1004040009CB7327008023A0E18898435D9B731078
:100414000780010001003717004093067005230090
:10042400D704930680FA2300D70401000100835601
:10043400870093E6060C2314D700C5BB41118146FF
:1004440001468145114506C63524F3270080A18B5A
:100454009386018889CBF327008023A0F1889C42EE
:10046400DD9B7390078001000100B717004013075C
:1004740070052380E704130780FA2380E704010052
:10048400010003C76704136717002383E70423806D
:100494000704732700809C42A18BD98F7390078037
:1004A40023A0018801000100B240410182808146FD
:1004B4000146814511457D2AF3270080A18B1387CE
:1004C400018889CBF327008023A0F1881C43DD9B9E
:1004D4007390078001000100B71700409306700570
:1004E4002380D704930680FA2380D70401000100F7
:1004F400FD562396D70223800704F32600801C436D
:10050400A18BD58F7390078023A00188010001007F
:10051400F3270080A18B89CBF327008023A0F188E7
:100524001C43DD9B7390078001000100B717004056
:10053400930670052380D704930680FA2380D7049A
:100544000100010083C6670493E616002383D704E1
:1005540023800704F32600801C43A18BD58F73905E
:10056400078023A001880100010001A0BD473305D5
:10057400F50201007D1575FD8280411122C426C259
:1005840006C6AA84014463179400B24022449244EC
:100594004101828005041305803E4204C13F41802D
:1005A400DDB7B7170040130700032388E702854728
:1005B40023A8F18A73002030230304801547230302
:1005C400E48001002302A480828083076480E3CE58
:1005D40007FE23030480828083076480E3CE07FE42
:1005E40003454480828083076480E3CE07FE2302B0
:1005F400A4808280411126C44AC24EC006C6137725
:10060400F50BAD47AA892E8995446306F700194571
:100614006537653F8D444E854537FD59FD14639814
:100624003401B240A24412498249410182801355E7
:1006340009011375F50F453F2209CDB7011126CCE9
:1006440006CEB704080051371545BD3771376937F1
:100654002AC6A53F32459377150089EB136515002B
:100664001375F50FF240E24405618280FD14E9FC44
:100674000145CDBF397126DC4ADA4ED852D656D45C
:100684005AD25ED006DE62CE66CCB7E700E07D5774
:1006940083AA070022C603AA470023A0E71823A2BF
:1006A400E718B7170040130770052380E704130702
:1006B40080FA2380E70483C74704930B75FFB6844D
:1006C400E20793FBFB0F8546AA892E8B32893724D8
:1006D4000040E187015763FA76016308D500894633
:1006E400130700026313D5000157D98F93F7F70F4F
:1006F400B71C00402382FC0411472303E480130544
:10070400F00F5D3D094CD135636D7C11B7050700D1
:10071400DA9537870700795563F2E504B3879500C6
:10072400636EF702370B0800A94733EB6501639941
:10073400F90689E48144513D26850DA0DA850945F1
:10074400553D05090345F9FFFD14050B693D81C4B9
:100754009377FB0FFDF7DD3569FD7D55B717004035
:10076400130770052380E704130780FA2380E70446
:1007740003C74704418B2382E704F250B7E700E044
:1007840023A0571123A24711E25432445259C259AB
:10079400325AA25A125B825B724CE24C2161828013
:1007A400A5476395F90685691309F00FB306990007
:1007B400B3742B01B6941349F9FFB3749900856B94
:1007C40033796901416B9387F9FFB3F7270199E303
:1007D40063FC340193D94900C147E3E637FF99BF6D
:1007E4000569C1697D19D9B71305800D638869014D
:1007F400130500026384790113051008CA85DD3BE3
:10080400353D21DD4E99B3843441D9B7DA852D4580
:10081400D533CA94E30099F205097D3BA30FA9FEE1
:10082400D5BF9387F9FF93F7F70F6361FC0C83C778
:100834001C0413073008631FF70437070800636BB1
:10084400EB04B3079B00B706100063F5D704334BE2
:10085400EB0089476393F9068980D549E38C04EC5E
:10086400DA850945413B11090327C9FF9147232034
:10087400E48003076480E34E07FE23033481FD17FD
:10088400EDFBFD14110B81C49377FB0FE9FF7D335E
:1008940071F5E1B5B717004003C75704B70708005F
:1008A4001377070219E3B78707007955E378FBEA62
:1008B40033079B00E3FFE7F855B58547E382F9F278
:1008C400DA852D45053B9389F4FFE38504E6293356
:1008D40093F7390091EB83260480032709009307DB
:1008E4004900E39AE6E43E89CE84F1BFB5476396B6
:1008F400F9001305900BC93135BDB1471305B00A92
:10090400E38BF9FE99476391F904B7050800B365D1
:10091400BB002D45C53181448D4BA1497539639682
:100924007401832704802320F9008504E39834FFAD
:100934008327048013172B01635507002312F90042
:10094400D5BB2322F900FDB39D476399F902814584
:100954001305B0044531BD442320090023220900B6
:10096400FD599D3993F77400CA9703C70700FD1416
:10097400398D2380A700E39634FF6DBBA1476392B2
:10098400F9046D398144630D0B008D479304C00352
:100994006308FB009304000563048B019304400483
:1009A4001375C507E30895D8194539313939054513
:1009B400213126850D3909453D314931E31C05D6E0
:1009C40069BB91476399F90013056006F536F53E56
:1009D400130590090DB7E38F09D4F154A9BB19CDC0
:1009E40091CD09CE81473387F5008346070033074D
:1009F400F50085072300D700E317F6FE828019C9A6
:100A040091C909CA910583A7C5FF11057D16232E37
:100A1400F5FEC5BF828001C919C62A960505A30F34
:100A2400B5FEE31DA6FE828081473307F500030768
:100A3400070019E33E8582808507C5BF01112E8614
:100A440026CAAA84131506019305F004418122CC19
:100A540006CE32C6EF00B0562A8401C53246A685BA
:100A6400BD3F2285F2406244D244056182808547BD
:100A740015C18DC105C28147B306F5003387F50062
:100A840083C60600034707006398E6008507E3155D
:100A9400F6FE85473E8582808147EDBF9307F6FFCA
:100AA400BE952A966313C5008280FD1583C7150081
:100AB4000505A30FF5FEFDB7AA87014581CF09CE31
:100AC4003E96850703C7F7FF6317B700E39BC7FE8E
:100AD40005458280828001458280797197370000C4
:100AE4009387474622D4804306D626D24AD04ECE98
:100AF40052CC56CA5AC85EC679C0B7C4C901014BA4
:100B040097390000938989439384F437173A000096
:100B1400130A8A43973A0000938A8A3D17390000E2
:100B24001309C9468357240095E35C44631D0B00F5
:100B3400173700002328F740832BC4002285EF00D9
:100B440030555E84B9A82326FB00FDB783A70900AE
:100B540082971C443307F5406376F5000327490068
:100B64001D8F2A9763E2E4089737000023AA073809
:100B74008355240003450400974000E0E780E0E843
:100B84005C405844A1CB0C4403264900AE97BE8672
:100B940063E4B70063E4C700B386C74014C4228B80
:100BA4003A8449F097370000938787349C4B094770
:100BB4006372F706F917173700002323F734B2508E
:100BC400225492540259F249624AD24A424BB24BDD
:100BD4004561828063170B009737000023A4E73632
:100BE400A1BF2326EB0089BF03274A0209CF63EF85
:100BF400A7003385A74083A70A016376F5009737DA
:100C0400000023AFA72E228B404461BF0327490075
:100C1400BA97C5B79737000023A4072E4DB74111E3
:100C240022C4173400001304642F1C4006C626C2D5
:100C34004AC091C782979737000023A1072E9737A0
:100C4400000083C7F74D858B973400009384044DCF
:100C540095C397370000A385074C83C774001547D5
:100C6400637AF700A12B83C77400F5178A07A2974C
:100C74009C4382971C4491C382971739000013093F
:100C8400292C0327090017360000034676269737D8
:100C9400000083C7E72593961700BA9683D606000B
:100CA400D5CE9737000083C7A72463E3C70C9737D3
:100CB4000000238F07221C40639D07129737000012
:100CC40083C7574691CF83C7740093F7F70F89EB17
:100CD40097370000A3880744974001E0E780202568
:100CE40097370000938787259C43638407109737C1
:100CF40000009387A729DC43173700002322F7203D
:100D0400E93B9737000093872724DC53FDC317374B
:100D140000001307E71D184B9737000083C71724FB
:100D24006369F70C83C7740015476364F70C97373E
:100D3400000083C76743918BCDEF032609009736E4
:100D4400000083C6F61A63CCD70A2244B240924408
:100D540002494101174300E067002316850793F712
:100D6400F70F973600002385F618E3E2C7F215BFA4
:100D740086073E9783550700231007009737000026
:100D8400239C071A97370000938707199C4317354C
:100D940000000345E51513172500BA979C43829775
:100DA4009737000083D747191737000003474714C4
:100DB40093C7F7FF7D8D93171700032709003E970C
:100DC400835707005D8D2310A7009737000083C762
:100DD400271291C7850717370000230BF710173721
:100DE40000000347E7109737000083C77710E370CC
:100DF400F7ECB240224492440249410182801397A5
:100E040017003297035707006DF785072DBFAD67AD
:100E140037C70040BD072326F7200F10000097377F
:100E240000009387E70CC84F83278726BD66BD065D
:100E340093C7F7FF99836A052326D7205D8D8280A7
:100E44004111B7170040985F3AC6945F3247E39C5C
:100E5400E6FE3245410182801305F00F82800111C4
:100E6400973700009387873B22CC03A4070C26CA3C
:100E740006CE2AC42EC6854419E40145F2406244D4
:100E8400D244056182808347910003471400858B17
:100E94006304F7000044CDB719469305A100130578
:100EA4002400F136E31895FE0545C9BF1737000045
:100EB4001307C7251C439306001094C301000100C7
:100EC400010001001C4323A00700834615000348CA
:100ED4002500A2064208C29603480500C2960348AC
:100EE40035006208C29694D78346550003486500CE
:100EF400A2064208C29603484500C29603487500FC
:100F04006208C296D4D7834695000348A500A2067A
:100F14004208C29603488500C2960348B500620899
:100F2400C29694DB8346D5000348E500A206420836
:100F3400C2960348C5000345F500C2966205AA9609
:100F4400D4DB83C6150003C52500A2064205AA9674
:100F540003C50500AA9603C535006205AA9694CF79
:100F640083C6550003C56500A2064205AA9603C5BB
:100F74004500AA9603C575006205AA96D4CF83C618
:100F8400950003C5A500A2064205AA9603C58500DF
:100F9400AA9603C5B5006205AA9694D383C6D50064
:100FA40003C5E500A2064205AA9603C5C50083C58C
:100FB400F500AA96E205AE96D4D3D443F59AD4C3E9
:100FC400D44393E61600D4C3944393E6160094C323
:100FD400BA879443D842058B59E3984E01452300C0
:100FE400E6009843184F2183A300E6009843184F66
:100FF40041832301E6009843184F6183A301E6006F
:101004009C43D84F2302E600D84F2183A302E60075
:10101400D84F41832303E600D84F6183A303E6003E
:1010240098532304E60098532183A304E6009853BD
:1010340041832305E60098536183A305E600D85352
:101044002306E600D8532183A306E600D853418340
:101054002307E600DC53E183A307F6008280010046
:101064008DBF173700001307A70A1443411122C488
:101074009C5E4AC006C6998326C2858B3A8417397A
:1010840000001309A908D1CB9C5E97340000938417
:10109400E40893F7F7F99CDE173700000347670865
:1010A40093070008631BF700832709009C4393F709
:1010B4000704173700002306F70683C7040093F7D5
:1010C40007049DC397370000938747E79C438297A3
:1010D4009737000023ACA70483C7040093F7F70BEA
:1010E40017370000230CF70283C7440093F7070463
:1010F4008DE7854717370000A304F70297370000F0
:10110400938787039C43096798C7130700FC9736A6
:1011140000002387E600D844F8D31C40985F11836D
:10112400058B09CB985F3D9B98DF054797360000F8
:101134002388E6FE985F1D83058B11CB985F137798
:10114400F7F798DF854717370000230BF7FC832751
:101154000900D8430583058B19C7D843759BD8C3A9
:10116400D843799BD8C3B2402244924402494101F6
:101174008280397106DE16DC1ADA1ED82AD62ED4FD
:1011840032D236D03ACE3ECC42CA46C872C676C4B3
:101194007AC27EC0F935F250E2525253C2533255EC
:1011A400A255125682567247E2475248C248324EFE
:1011B400A24E124F824F21617300203097370000F6
:1011C400938787F7944397370000938727F503C7DE
:1011D4000700058B11CB97370000238307F497375B
:1011E4000000A38F07F2828003C71700058B65F701
:1011F400F85271FF83C75700DDB717380000130892
:1012040028F1032708001C5F9583858BD1E709C665
:101214001C5BBD832300F60085CA83270800985B06
:101224004607935767016356070093E707C0C20751
:10123400C18303970600C207C18709C7BA97094744
:10124400B3C7E7022390F60085CD834715008DCB05
:101254009736000083C6E6EC93F6060413879700DE
:1012640089478DCA3A950347050085469947137601
:10127400F7066311D60262076187B947634C07001A
:10128400832708009C5FED838D8B17370000A30C28
:10129400F7E881473E8582808547EDBF411122C42E
:1012A40006C617340000130424E918403DE9AE874C
:1012B4007453FDFE3E85B28597370000238107E60F
:1012C400974001E0E780209A97370000938747E42E
:1012D4009C43B70680009843558F98C3D857719B99
:1012E400D8D797370000A38D07E297370000A3876C
:1012F40007E21C40094798C314401737000013073E
:10130400E7E183472700858B89EB83473700858B8B
:10131400D9C797370000238507E0B2402244410132
:1013240082808D476310F50297370000938747DE6C
:101334009C43B70680009843558F98C3D857719B38
:10134400D8D75DBF8547E319F5FA5447F977FD17F8
:10135400F58F5CC70F1000001C40096798C713077E
:1013640000F817360000230DE6DA173700001307DC
:1013740027DA1043184231830D8B11E713076019E4
:10138400F8D3D4C795BF1842094631830D8B631532
:10139400C7001307E043EDB71307E01BD5B7FC52B2
:1013A400ADF3A5BF5D71A2C4A6C22A841306800250
:1013B4002800AE849305100886C6CAC04EDE52DCEF
:1013C400EFF06FE53545974001E0E780E0C817335B
:1013D40000001303E3D3832703009376F41F173E1F
:1013E4000000130EAEDA23A40700984B973E0000CA
:1013F400938E8ED4370FFCFF1367F70398CBF84F07
:10140400130510F8B7020400137707E0558FF8CFDF
:101414009843F576FD16758F98C39843B706330045
:10142400930380251377F7E798C3984311497D1FE9
:101434001377F7E71367071098C303270E0085494E
:10144400930F80021C47D58F1CC783A70E00130778
:10145400900D3400B8CB014793553700A69583C748
:10146400050013767700B3D7C740858BE1C3832784
:10147400030083280E00239C07042390070603A877
:10148400C8021378D8FF23A6080383A8070013789B
:10149400F70793F808F833E8080123A0070103A825
:1014A40047023368580023A2070383A80E000148AB
:1014B40023A2780603DA07066307480303A8070391
:1014C400038A06001358F8006208135888416358C9
:1014D4000A0103A807031358F8002380060103D860
:1014E40007061378F80F03AA480663060A0003DA0E
:1014F4008705E37F49FB03A847023378E80123A269
:10150400070383870600635CF40003C80500339671
:10151400C9001346F6FF337606012380C5003E86D4
:1015240063D3A7002A8613158601618505071377FF
:10153400F70F8506E312F7F3B640264496440649AE
:10154400F259625A61618280973600009386C6BE62
:101554009C42D84713161701635506029847131681
:101564001701635006027D57B8D7173700001307D9
:101574002798584F0507173600002329E698116766
:1015840098C798470D83058B1DC317370000034781
:1015940007B913671700173600002302E6B81307CC
:1015A40000F817360000230DE6B6214798C7984780
:1015B400058B09CF17370000034757B61367170089
:1015C40017360000A30CE6B4054798C7984709836B
:1015D400058B09E798470583058B31CF9847173664
:1015E40000001306A6B317350000130565B209837E
:1015F400058B630307101841184331830D8B75EB7A
:10160400AC4B184E93F5050203471700CDCD79EF87
:1016140013077006D8CF0347060013671700173661
:101624000000230DE6AE114798C718415C57F19BA3
:1016340093E717005CD79C4298479316370163D60B
:1016440006029736000083C6E6C4C18A1737000035
:101654001307C7BCC5CE034787071367070297362E
:1016640000002389E6C2056798C7984793162701A7
:1016740063D1060217370000034787AA6207618710
:1016840063570700054797360000238BE6A80967D0
:1016940098C798479316070163D606029736000049
:1016A40083C656BF858A17370000130727B7ADCE08
:1016B400034797071367270097360000A38CE6BCFF
:1016C400216798C7828029D785456315B70013071A
:1016D400B00689B789456315B7001307F0061DBF27
:1016E4008D456315B700130730072DB7130750074F
:1016F40015B71307600739BF034736001367170090
:1017040017360000A30DE6A0094739BF83468707B3
:101714000946BD8A6388C600034787078D463D8B0B
:10172400E313D7F4114725BF83469707918AC9DA93
:10173400034797071367870041B7397106DE16DC44
:101744001ADA1ED82AD62ED432D236D03ACE3ECC8D
:1017540042CA46C872C676C47AC27EC0F533F25015
:10176400E2525253C2533255A25512568256724710
:10177400E2475248C248324EA24E124F824F216174
:1017840073002030973700009387079B9843856741
:10179400938707777CD3973700009387279F9C43D1
:1017A40083A60709139656006358060083A6070903
:1017B40013966600634406007453FDF2828071C57B
:1017C400AA870145E9C58D07C207C183F19BC207FA
:1017D400C18313074003636FF70217370000130731
:1017E400A7A3084317370000130787A2144363987D
:1017F400A6021727000013072775185B014541CB84
:101804004111C20706C60545DD8D0297B240014568
:1018140041018280173700001307C79FD9B70357C8
:10182400650035E303574500636FF704B306F740DB
:101834002146637CD60203280500938687001D8F0A
:10184400AA966117172600000356E66A2392E6005B
:1018540023A006012393060014C12312F5001307E5
:1018640086FF972600002398E6682313B500972582
:10187400000083D54568B387F54017270000231C73
:10188400F7662105828008419DB7014582808280E8
:101894000DC1973700009387279803A30700973754
:1018A40000009387E79683A8070081469A8763E33D
:1018B4001701828003A80700636DF50A636BA80A09
:1018C40013878700E367E5FE03D6670021670507F2
:1018D4006317E60003C781930507238CE1929725DC
:1018E40000009385E56003D6470003D76500239382
:1018F400070032974207418317250000231DE55E48
:10190400638A6702173500001305C5900841630315
:10191400F50203D5660019ED83D7460023A006011E
:1019240021073E9621062392C600972700002394A0
:10193400E75CB6879843E30E17F797360000938663
:10194400668D9442E307D7F683566700BDF283D6CB
:101954004700035647001843A106B2962392D700C6
:1019640098C383D76500A107172700002315F758EC
:101974008280BE86C28725BF0327851163020712B2
:10198400411122C406C68347C5008345E5042A8461
:1019940093F7C70F2306F500834697000356C70045
:1019A40013958601618563F2C508635B05060345EB
:1019B400870093F6F607A304D700054693E62700AD
:1019C4006314C50093E617002306D4005C4389071B
:1019D4005CC3A30AB400032504112E864C430905F5
:1019E400EFE0FFFF8327841103465401D44303D758
:1019F400C700B296118FD4C32396E7008947A30D7D
:101A0400F400034764039727000083C707556378EE
:101A1400F7048347C40093E707012306F40081A079
:101A240093E717002306F4006DB79376F60F635D12
:101A3400050203458700854513E627006314B500B6
:101A440013E617002306C400A30AD400A304070066
:101A54008547A30DF400832784119C43DDF3B24032
:101A6400224401454101828093E717002306F400D4
:101A7400A30AD400A3040700032504114C43090559
:101A8400EFE0FFF58327841103465401D44303D7C1
:101A9400C700B296118FD4C32396E7008D4755BF74
:101AA40005458280973700009387078A9C4341113C
:101AB40022C406C6858B2A84C5EF4165130525F526
:101AC40097F001E0E780A0C045C58347A500231532
:101AD400F50083270412BDE72320A4122322A412B5
:101AE40085472311F40423200500834764015441EE
:101AF4002316F5000347D4002304E5000547A30497
:101B0400E5001727000013076761184F13851702B4
:101B140015811C437D151375F50F9CC25C43DCC213
:101B24001C479CC65C47DCC61C4B9CCA5C4BDCCA8D
:101B34001C4F9CCE5C4FDCCE19CD93860602130756
:101B44000702C1BF8327441288C383572404232276
:101B5400A412850779B79727000083D7A76C850758
:101B6400172700002310F76CB24022444101828001
:101B74008347C40023090400054593C7470023068F
:101B8400F400DDB78347850193F7E70FD5EF83476B
:101B94009501DDEB034625018346C50009CA83454B
:101BA4006503172700000347573B63E7E50013F776
:101BB400060141CF014709C6C18A0357651C81C686
:101BC4008356A51C369751C31307C7121725000067
:101BD4000355453CB335A70237460F0041111306A0
:101BE4000624814622C426C206C67D543305A702B4
:101BF400972002E0E78000BC9727000083C7573690
:101C0400B384A700972700009387476103A7870938
:101C14008327070963F387003E84184375FB9727DE
:101C240000009387A7319C43829781476364A40093
:101C3400B307A440B2402244B3B7970093C7170038
:101C440092443E854101828081473E858280972768
:101C540000009387674E98437C53FDFF828079711F
:101C640026D206D622D44AD04ECE52CC56CA5AC810
:101C74005EC68347550303447513AA843E941374C4
:101C8400F40F9307400263F687001304B4FD137442
:101C9400F40F03AA841383AAC413A38B8412228689
:101CA4005285D685972002E0E78040AB058915E58B
:101CB40003CBD41201498149337B6403930B500253
:101CC4004A865285D685972002E0E78020A90589B7
:101CD40015C5639169031374F90F238B8412B250F1
:101CE400225492540259F249624AD24A424BB24BAC
:101CF400456182808509E20993D989410509E31187
:101D040079FDE1BF8327850903560504797193D6CC
:101D14000701BD8EC206C182358E13577640935794
:101D24005640898B058B5D8F93573640918B5D8F21
:101D340093571640A18B5D8F93171600C18B5D8F4F
:101D44009317360093F707025D8F93175600935548
:101D5400860093F707041E065D8F1376F60F518FE6
:101D640093D7554013D63540118A898BD18F13D61A
:101D74007540D18F13D61540218AD18F1396150043
:101D8400418AD18F1396350013760602D18F1396AC
:101D94005500137606049E05D18F93F5F50FCD8F6C
:101DA400A20745465D8F3307C70222D42A8426D270
:101DB40052CC56CA032A8413832AC4135AC806D69B
:101DC4003697420741839357774013555740098903
:101DD400858BC98F135537401189C98F1355174007
:101DE4002189C98F131517004189C98F131537002D
:101DF40013750502C98F1315570093558700137582
:101E040005041E07C98F1377F70FD98F13D53540F3
:101E140013D755401189098B498F13D57540498FC4
:101E240013D515402189498F139515004189498F90
:101E34001395350013750502498F139555001375D5
:101E440005049E05498F93F5F50F4D8F2207D98F11
:101E5400B387C7024AD04ECE5EC662C4B697C207E5
:101E6400C18313D7774013D557400989058B498F10
:101E740013D537401189498F13D517402189498FCC
:101E8400139517004189498F13953700137505027F
:101E9400498F1395570093D58700137505049E0742
:101EA400498F93F7F70FD98F13D5354013D7554082
:101EB4001189098B498F13D57540498F13D5154066
:101EC4002189498F139515004189498F1395350050
:101ED40013750502498F13955500137505049E0566
:101EE400498F93F5F50F4D8F2207D98FB387C7021A
:101EF400130650025285D685B697BD8E939406017B
:101F0400C18033F6C402137BF60F972002E0E7800A
:101F1400E08405890DED8347D41201498149B384D6
:101F24009702130C5002C1804A865285D6859720A9
:101F340002E0E780A0820589937BF90F11C56386CF
:101F44003403850993F9F90F0509E31F89FD230B70
:101F54006413B250225492540259F249624AD24A4A
:101F6400424BB24B224C456182805E8BCDB7797176
:101F740022D406D683C735002E8423160100A30776
:101F8400F10083C74500100802C02307F10083C78E
:101F940055008A8502C2A306F10002C402C802CA1F
:101FA40002CC02CEEFE09FF00347F1018347040027
:101FB40001456310F7020347E1018347140001451B
:101FC4006319F7000345D101834724001D8D1335A0
:101FD4001500B250225445618280011197270000F8
:101FE4009387C72322CC03A4870C26CA4AC84EC6AB
:101FF40006CEAA8413092500854915C083C7140099
:1020040003473400858B6304F700405CFDB7194631
:10201400930544004A85EFE09FA5E31835FF228528
:10202400F2406244D2444249B2490561828041117E
:10203400972700009387871E22C403A4870C26C217
:102044004AC006C693042500054901E82285B2402A
:1020540022449244024941018280A6851305A402C8
:102064003937E30525FF405CCDB7411197270000C0
:102074009387C71A22C403A4870C26C24AC006C683
:1020840093042500054901E82285B2402244924484
:10209400024941018280A6851305A401C93DE305D7
:0820A40025FF405CCDB70000F0
:1020AC0097110020938141C5176100201301C1F4E1
:1020BC001305400097E5FF1F938505F417060020D4
:1020CC00130606FE63FAC5008322050023A0550003
:1020DC0011059105E3EAC5FE174502001305C55A23
:1020EC00970500209385C5FB1386818663FAC5008E
:1020FC008322050023A0550011059105E3EAC5FED6
:10210C001385818697250020938585246377B500F8
:10211C00232005001105E36DB5FEFD42739002BC52
:10212C008D4273904280930280087390023097E244
:10213C00FF1F938262EC93E232007390523097024D
:10214C0000009382023873901234730020303D43A8
:10215C002A876373C3029377F700BDEFADE59376DF
:10216C0006FF3D8ABA960CC34CC30CC74CC741073B
:10217C00E36BD7FE11E28280B306C3408A06970256
:10218C00000096966780A6002307B700A306B70049
:10219C002306B700A305B7002305B700A304B700B7
:1021AC002304B700A303B7002303B700A302B700AF
:1021BC002302B700A301B7002301B700A300B700A7
:1021CC002300B700828093F5F50F93968500D58D8B
:1021DC0093960501D58D61B7939627009702000061
:1021EC0096968682E78086FA9680C1171D8F3E965A
:1021FC00E374C3F8A5B78347050081EF3717004098
:10220C005C418326070A93C7F7FFF58F2320F70A53
:10221C0082800547639CE700371700405C418326AA
:10222C00070C93C7F7FFF58F2320F70C82808347A9
:10223C00050091EB371700408327070A5441D58FCF
:10224C002320F70A82800547639AE700371700407E
:10225C008327070C5441D58F2320F70C82808347AA
:10226C00150081EF371700401C458326070A93C7DA
:10227C00F7FFF58F2320F70A82800547639CE70060
:10228C00371700401C458326070C93C7F7FFF58FC3
:10229C002320F70C8280411122C406C68347050017
:1022AC002A8485E748418545EF108079371700402F
:1022BC008327C70A5440D58F2326F70A2285253F4A
:1022CC0022852244B240410159BF0547E398E7FEFD
:1022DC0048418545EF103001371700408327C70C64
:1022EC005440D58F2326F70CD1BF8347150091EBB3
:1022FC00371700408327070A1445D58F2320F70A88
:10230C0082800547639AE700371700408327070C44
:10231C001445D58F2320F70C82800347150019EB49
:10232C00B717004083A7470A0845E98FB337F00079
:10233C003E85828085468147E31CD7FEB717004057
:10234C0083A7470CD5B7794517E3FF1F6700832197
:10235C00411106C622C42A841937F5372285613DFE
:10236C00DD3722855D3F11E50145B2402244410134
:10237C00828022859D3FC13F2285453775F5228598
:10238C007D35D1370545D5B7411122C426C24AC087
:10239C0006C62A89AE842144593D93978401E1876E
:1023AC004A8563D60702653D4A85B1357D14613F88
:1023BC004A8586041374F40F9D3D93F4F40F613732
:1023CC0069FCB24022449244024941018280313F6F
:1023DC00E1BF411106C622C426C22A844935228592
:1023EC00193D9304803E22850D3F19C9FD14C2048A
:1023FC00C180F5F8173502001305056DEF10927AC0
:10240C002285213F19CD22851D3517350200130574
:10241C00E56CEF1032790145B240224492444101FF
:10242C008280153722852135393F0545F5B7411195
:10243C0006C622C426C24AC0A1442A8901440535D5
:10244C0019374A854D3B06044A851374F40FF13550
:10245C0019C113641400C53DFD144A8593F4F40F9F
:10246C00F933D535F9FC2285B24022449244024915
:10247C0041018280411106C622C42A844D3BE135BC
:10248C002285A535C9352285BD33753D2285C13BD5
:10249C002244B240410145BD411122C406C68547C4
:1024AC002A84639CF500653B2285B133693D228506
:1024BC00BD3B2244B240410179B5053DF5B7011150
:1024CC00054506CE22CCEF10606C1305800497E016
:1024DC00FF1FE780C0BD371400408327840A854561
:1024EC001305001093E707202324F40AEF1040553E
:1024FC008D4513050020EF10A054EF10F00C0D4586
:10250C00EF10B00F95450545EF10D01037070008B8
:10251C00B7E700E023A0E710EF10306DEF200000CC
:10252C00EF807150A92B17050020130565B7A53353
:10253C0017050020130585B7B93B91451305000815
:10254C00EF10605A8327C40C1305401F93E707084C
:10255C002326F40C930720032315F1009307400660
:10256C002316F1009307800C2317F10097E0FF1F4F
:10257C00E78020001305401F97E0FF1FE78060FFF6
:10258C001305401F97E0FF1FE780A0FE1305401FB7
:10259C0097E0FF1FE780E0FD173402001304C454DA
:1025AC00EF0000671306E1006C001305A100EF00BB
:1025BC00606D8356E1000356C1008355A10022854E
:1025CC00EF10525E1305400697E0FF1FE78060FA9C
:1025DC00D1BF2A86B305B040173502001305C56379
:1025EC006F10525C011106CE19C589476301F502C3
:1025FC00F24005618280680097E0FF1FE780A03DF4
:10260C00173502001305456EEF10726BD5B76800D5
:10261C0097E0FF1FE780203C173502001305856EFD
:10262C00E5B783D781876390A702239DB186239E4C
:10263C00C186239FD1862E86173502001305C55BF4
:10264C00BE856F103256173502001305655C6F108E
:10265C00126703574500011106CE83D78187631F8C
:10266C00F702C167F917894503C5418023ACF18690
:10267C0023AE0186EF20A072914503C54180EF2067
:10268C00007285471306F100854513055030A307EA
:10269C00F100EF80B104F240056182801735020031
:1026AC0013050557EF10B261FDB73D897D159547B0
:1026BC0063E4A71617370200130747440A053A9537
:1026CC001C41411122C406C6BA972E848287173545
:1026DC0002001305E5552244B24041016F10325EF1
:1026EC0083C7250019476391E7022E859D378345E3
:1026FC006400173502001305A554EF10B24A1735C4
:10270C0002001305A555C1BF0D47E38AE7FEB24091
:10271C0022444101828003C725009547E319F7FE47
:10272C00C16703D78187F91703D5A500630FF7009D
:10273C00EF80F12C1735020013054553EF1032587A
:10274C00173502001305055579B7239CA18683D74D
:10275C00E5001306001903C54180239DF18683D73C
:10276C000501239EF18683D725018945239FF18698
:10277C00DD47A387F180EF204040096613060690E1
:10278C00A14503C54180EF20403F0566130606C8EE
:10279C00914503C54180EF20403E0356E40083552C
:1027AC00A400173502001305A54DEF10B23F49BF29
:1027BC0003C725008D47173502001305654EE31836
:1027CC00F7F411BF83C5250091476397F5001735C2
:1027DC0002001305654E01B79947639FF5002285EA
:1027EC008D3D834564001735020013056545224471
:1027FC00B24041016F10123B9547639AF500834735
:10280C001400F1F7173502001305C54CE9B517355F
:10281C0002001305A54CE1BF8280011106CE22CC2B
:10282C0003C7F180D54763ECE700173502001305A9
:10283C002539EF10D248F240624405618280CD47C1
:10284C002A84014781464D46ED4503D581872315E2
:10285C00F100EF70A0602AC611E5173502001305D0
:10286C002537C1BF0356A100A28597E0FF1FE78063
:10287C0080162C0003D58187EF10F01D09C5ED459E
:10288C002800EF706075B247DDF7C1BF797193977F
:10289C00050126D206D622D44AD0C187AE8463D392
:1028AC00070A03C54180EF1050612A8421C9834770
:1028BC0005001307000B6386E7061307000D639CE6
:1028CC00E7028347250045476382E7046547639425
:1028DC00E7020348A500834795000347850083461C
:1028EC007500034665008345550017350200130536
:1028FC006522EF10322B2285EF1010552165258DA6
:10290C00B2502254925402594561828003466500AC
:10291C0083457500173502001305C522EF10922868
:10292C00D9BF034745009307F007E316F7FC83551F
:10293C008500173502001305A522A387B180EF107F
:10294C00722655BF93F7150085C317F6FF1F1306A4
:10295C00A676971500209385255303C54180EF80FB
:10296C00212413C5140069BF93F72500D1CF13069A
:10297C000019894503C54180EF202020138441872D
:10298C0002C602C802CA02CC02CE83C74187228982
:10299C0095EB371700408327870C93E70708232410
:1029AC00F70C973502009385E51C6800EF10523642
:1029BC006800A535834709008507238AF18613C56E
:1029CC0024003DBF13077007E37DF7FC1307800756
:1029DC00639EE700973502009385051B6800EF1096
:1029EC00323368001D3D83470400F9B783D6A186B6
:1029FC0003D68186973502009385451A6800EF103F
:102A0C00D22C6800193D65BF93F7850085C383C739
:102A1C00418013074006814613064006994503D5AD
:102A2C008187EF80411113C58400D9BD93F705014F
:102A3C009DC3014789460946814503D58187EF80AF
:102A4C00417EAA851735020013054516EF10921525
:102A5C0013C5040175B593F745000145E38207EAF8
:102A6C0003D58187EF8061790566130606C8914509
:102A7C0003C54180EF20601013C5440051B5797136
:102A8C00170500001305C5E006D622D426D2EF2088
:102A9C00E06493844180994705442380A400231A61
:102AAC00F100100893074006854513055030231C90
:102ABC00F10023088100EF80614217F6FF1F130617
:102ACC00E661C54513057030EF8041411386818066
:102ADC009D4513056030EF80614050088945130512
:102AEC001031EF80A13F3008894513052031EF806C
:102AFC00E13E930500050D45EF402043930500058D
:102B0C001145EF40804285457945EF400042300841
:102B1C00914513057040230481002306810023088E
:102B2C00810002CC230A0100EF70E10330008545DF
:102B3C0013050040EF70210370008545130510400C
:102B4C00EF7061025008854513052040EF70A1011C
:102B5C001008854513055040EF70E1007D55EF607E
:102B6C0030787D55EF902040EF10C0467D55EF102A
:102B7C00C06017F6FF1F1306E654D5450145EF60FC
:102B8C00D06489472306F1008D472308F100914753
:102B9C00230AF10093870186984383C747003000CE
:102BAC00854501453ACC230EF10023048100EF103A
:102BBC006062700085450545EF10C06110088545C1
:102BCC000945EF102061500885450D45EF108060D8
:102BDC00300895451145EF10E05FC1671387818779
:102BEC00F9171CC323220700170500201305C590F5
:102BFC00EF10605D1385C186EF50D14E03C5040004
:102C0C008545EF10905FB2502254925445618280FA
:102C1C00411117F5FF1F1305A54806C6EFF04FF33A
:102C2C009305400C17F5FF1F13058547EFF0CFF503
:102C3C0017F5FF1F1305C546EFF0AFF9930510020A
:102C4C0017F5FF1F1305C545EFF00FF417F5FF1F20
:102C5C0013050545EFF0EFF79305100B17F5FF1F64
:102C6C0013050544EFF04FF217F5FF1F130545430D
:102C7C00EFF02FF6B24017F5FF1F13056542410127
:102C8C006FF04FFF39715AD02A8B17F5FF1F1305C0
:102C9C00254106DE32C622DC26DA4AD84ED652D47C
:102CAC0056D25ECE2E8AEFF0AFEA9305400C17F5A4
:102CBC00FF1F1305E53EEFF02FED17F5FF1F130572
:102CCC00253EEFF00FF19305C00E17F5FF1F13050E
:102CDC00253DEFF06FEB17F5FF1F1305653CEFF08B
:102CEC004FEF954517F5FF1F1305853BEFF0CFE927
:102CFC0017F5FF1F1305C53AEFF0AFED054597E04B
:102D0C00FF1FE780008717F5FF1F13056539EFF0EC
:102D1C002FE49305500C17F5FF1F13056538EFF0E2
:102D2C00AFE617F5FF1F1305A537EFF08FEA17F580
:102D3C00FF1F1305E536EFF08FEF85452A8917F550
:102D4C00FF1F1305E535EFF02FF517F5FF1F1305E2
:102D5C002535EFF0CFEDAA8B854517F5FF1F130531
:102D6C002534EFF06FF317F5FF1F13056533EFF004
:102D7C000FEC854517F5FF1F13058532EFF0CFF1EA
:102D8C0017F5FF1F1305C531EFF06FEAAA848545CF
:102D9C0017F5FF1F1305C530EFF00FF017F5FF1FE8
:102DAC0013050530EFF0AFE8AA8A854517F5FF1F2C
:102DBC001305052FEFF04FEE17F5FF1F1305452EEA
:102DCC00EFF0EFE6854517F5FF1F1305652DEFF0C6
:102DDC00AFEC17F5FF1F1305A52CEFF04FE52A8478
:102DEC00854517F5FF1F1305A52BEFF0EFEA17F537
:102DFC00FF1F1305E52AEFF08FE3AA89854517F528
:102E0C00FF1F1305E529EFF02FE917F5FF1F130539
:102E1C002529EFF0CFE1854517F5FF1F1305452850
:102E2C00EFF08FE7814517F5FF1F13056527EFF0CE
:102E3C00AFE617F5FF1F1305A526EFF0AFE31395CB
:102E4C008400336555012209336979014205231049
:102E5C002B014181EF10623597370200938747ECC5
:102E6C008C43973402009384E4EBEF00324D8C409A
:102E7C00EF00D24C97370200938707EB8C43EF009F
:102E8C00F274EF10222D2310AA0013158400336561
:102E9C00350142054181EF1042319737020093878B
:102EAC00E7E88C43EF0092498C40EF003249EF1079
:102EBC00622A3246F25062542310A600D254425970
:102ECC00B259225A925A025BF24B21618280B71797
:102EDC00004003C777051377E70FA38BE7041307AD
:102EEC0000F8A38DE7043D47238CE7041307500338
:102EFC00A38CE7048280B717004083C7E7020D89D3
:102F0C0093F7C70FC98F73270080218B9386018895
:102F1C0009CB7327008023A0E18898425D9B731036
:102F2C0007800100010037170040130670052300CD
:102F3C00C704130680FA2300C7040100010023070D
:102F4C00F70223000704732700809C42A18BD98FC2
:102F5C007390078023A00188010001008280411139
:102F6C002A83014E930E407E130F0019930F4006D7
:102F7C0063E66E149308001913034006B378150327
:102F8C00854E0D4FA14F337365020D891335150016
:102F9C0063E0BE161308F6FF794672984208135880
:102FAC0008013307C70213D61700BE0732976146D4
:102FBC00B3F6C60213068070B386C6023697A166B6
:102FCC00F58F42075D8FB716004083C7F60293F763
:102FDC000708A307F1000346F10083C7F60293F735
:102FEC000708E394C7FE8347F100B716004093F738
:102FFC00F70F63890714F3270080A18B9386018850
:10300C006398071401000100B71700401306700500
:10301C002380C704130680FA2380C7040100010033
:10302C0023AA070303C6170313660608A388C7025F
:10303C0023800704732600809C42A18BD18F739050
:10304C00078023A00188010001001166B71500401C
:10305C007D16DC59C85DA98FF18FE5FFF327008041
:10306C00A18B89CBF327008023A0F1889C42DD9BA8
:10307C007390078001000100B7170040130670051C
:10308C002380C704130680FA2380C70401000100C3
:10309C00D8DB03C7170313670704A388E702238051
:1030AC000704732700809C42A18BD98F73900780F3
:1030BC0023A0018801000100410182807D13336847
:1030CC00E3039308E016630E08003368F3039308D8
:1030DC00D016630808009378330093B818009388CF
:1030EC00D81633081E01131E0801135E0E0149B5D4
:1030FC006393E503054863860800014863030300F6
:10310C002A8871087298FD15131E0801C205135EFA
:10311C000E01C181B5BD13F8150063F4BF00790829
:10312C00D5B713381800E5BF83C7F60293F7070825
:10313C00A307F1000346F10083C7F60293F70708D3
:10314C00E394C7FE8347F10093F7F70FF1DF65B502
:10315C00F327008023A0F1889C42DD9B73900780AD
:10316C0055B55971E2C486D6A2D4A6D2CAD0CECE59
:10317C00D2CCD6CADAC8DEC6E6C2EAC06EDE2A8C6B
:10318C0002D6EF007034F3270080A18B138D0188D9
:10319C0091CBF327008023A0F18883270D00DD9BC2
:1031AC007390078001000100B717004013077005EA
:1031BC002380E704130780FA2380E7040100010051
:1031CC0003C7F7021377770FA387E70203C7F7024A
:1031DC0013678700A387E702238007047327008007
:1031EC0083270D00A18BD98F7390078023A00188B2
:1031FC0001000100F3270080A18B91CBF327008005
:10320C0023A0F18883270D00DD9B739007800100BC
:10321C000100B7170040130770052380E70413075C
:10322C0080FA2380E7040100010003C7E70213774B
:10323C00C70F2387E70203C7E7021367170023872B
:10324C00E702238007047327008083270D00A18BDE
:10325C00D98F7390078023A0018801000100130708
:10326C0080C13347E5029169938709E81306500240
:10327C003D69B7440F0093840424856B130BA004A1
:10328C00014A814A13047005FD19B347F50233074F
:10329C00C7023EC2930709A61309803E3347F702C3
:1032AC003AC4334725030549331989011359394069
:1032BC003345950293840BFAB3948401811B330636
:1032CC00C702B346F6023309E90236C6330B67036D
:1032DC0013076055B3049502130500103309E90276
:1032EC00B346FB02130B80FAB3C4A40236C8B3472F
:1032FC00F902939634003719004036CC9304090434
:10330C003ECA73260080218A11CA7326008023A02E
:10331C00C18803260D005D9A731006800100010020
:10332C00930770052380F4002380640101000100E1
:10333C00034639051376860FA309C90403463905DC
:10334C0013661600A309C9042380040073250080AA
:10335C0003260D00218A498E7310068023A0018854
:10336C0001000100916CE17D73260080218A11CA55
:10337C007326008023A0C18803260D005D9A73106C
:10338C00068001000100930770052380F400238060
:10339C006401010001000346390513660602A30906
:1033AC00C90403560905336696012318C90403564C
:1033BC0009053366B601420641822318C9042380ED
:1033CC0004007325008003260D00218A498E73109A
:1033DC00068023A0018801000100034639051376FD
:1033EC0006026307061603463905218A6DDE68104E
:1033FC00EF00B01173260080218A11CA7326008059
:10340C0023A0C18803260D005D9A7310068001006D
:10341C000100238084002380640101000100034625
:10342C0039051376F60DA309C9040346390513664D
:10343C000602A309C904035609053366960123182D
:10344C00C904035609053366B601420641822318A6
:10345C00C904238004007325008003260D00218AF3
:10346C00498E7310068023A00188010001000346D9
:10347C003905137606026309061003463905218ABD
:10348C006DFE97D0FF1FE78000C12A8632CE97D001
:10349C00FF1FE78040C07246E30AC5FE03560905CC
:1034AC003255336696012318C904EF00D007034642
:1034BC003905218A6DDE0355090503462905924716
:1034CC0033F5A9003386C90232951D8DA24763D509
:1034DC00A700B2476346F50E09466365560FC2470F
:1034EC00850A1316150093FAFA0F3346F602635445
:1034FC00A03A050609453346A602732500802189AA
:10350C0011C97325008023A0A18803250D005D99A6
:10351C007310058001000100238084002380640166
:10352C00010001000355C9022A9642064182231666
:10353C00C902238004007325008003260D00218A14
:10354C00498E7310068023A001880100010029BD5B
:10355C0073260080218A11CA7326008023A0C1889B
:10356C0003260D005D9A7310068001000100238074
:10357C0084002380640101000100034639051366B1
:10358C000602A309C90425BD73260080218A11CA2D
:10359C007326008023A0C18803260D005D9A73104A
:1035AC000680010001002380840023806401010057
:1035BC0001000346390513660602A309C90451BD6F
:1035CC00E38F0AF073260080218A11CA73260080CB
:1035DC0023A0C18803260D005D9A7310068001009C
:1035EC000100238084002380640101000100034654
:1035FC0039051375FC0F1376860FA309C90403460E
:10360C003905498EA309C90423800400732800805E
:10361C0003260D00218A336606017310068023A051
:10362C00018801000100034639051D8A63178627AE
:10363C0073260080218A11CA7326008023A0C188BA
:10364C0003260D005D9A7310068001000100238093
:10365C0084002380640101000100034639051165D3
:10366C001376F60DA309C904034639051366060241
:10367C00A309C90403560905498E2318C904035626
:10368C0009052165498E2318C9042380040073257C
:10369C00008003260D00218A498E7310068023A01A
:1036AC000188010001000346390513760602630EFA
:1036BC00062003463905218A6DDE6810B92573266C
:1036CC000080218A11CA7326008023A0C18803269A
:1036DC000D005D9A731006800100010023808400A8
:1036EC00238064010100010003463905116513763E
:1036FC00F60DA309C9040346390513660602A3098E
:10370C00C90403560905498E2318C9040356090533
:10371C002165498E2318C904238004007325008079
:10372C0003260D00218A498E7310068023A0018880
:10373C000100010003463905137606026303061CDB
:10374C0003463905218A6DFE97D0FF1FE780A094B0
:10375C00AA8C97D0FF1FE7800094E30C95FF0356CB
:10376C0009051165498E32552318C9046D2B034682
:10377C003905218A6DDE73260080218A1385018824
:10378C0009CA7326008023A0C18810415D9A73106A
:10379C000680010001002380840023806401010065
:1037AC000100034639051376F60DA309C9042380DD
:1037BC000400732800801041218A336606017310BF
:1037CC00068023A001880100010003580905034667
:1037DC002905E24733F809013386C90232983308C8
:1037EC00F8401306800C3306C802D2473346F60263
:1037FC006355001505060948334606036351C0148A
:10380C000358C9029308F00F13585800329863D626
:10381C00081F094663734619F3270080A18B89CBD7
:10382C00F327008023A0F1881C41DD9B7390078057
:10383C000100010037170040930770052300F704BF
:10384C00930780FA2300F704010001008356C70296
:10385C0089678117D58FC207C1832316F70223000E
:10386C000704732700801C41A18BD98F73900780AC
:10387C0023A0018801000100B65026549654065925
:10388C00F649664AD64A464BB64B264C964C064DE4
:10389C00F25D656182807D16B1B973260080218A44
:1038AC0011CA7326008023A0C18803260D005D9ADF
:1038BC0073100680010001002380840023806401C2
:1038CC0001000100034639052DBB73260080218AB7
:1038DC0011CA7326008023A0C18803260D005D9AAF
:1038EC007310068001000100238084002380640192
:1038FC00010001000346390513660602A309C90439
:10390C0069B373260080218A11CA7326008023A014
:10391C00C18803260D005D9A73100680010001001A
:10392C0023808400238064010100010003463905D3
:10393C0013660602A309C904C5B37D166DBD55CE29
:10394C000358C902B308C040135858006357180BEA
:10395C00094663744605F3270080A18B89CBF327B6
:10396C00008023A0F1881C41DD9B7390078001002F
:10397C000100B7170040130770052380E7041307F5
:10398C0080FA2380E7040100010003D7C7027D8B76
:10399C002396E70223800704E9B573260080218A69
:1039AC0009CA7326008023A0C18810415D9A731048
:1039BC000680010001002380840023806401010043
:1039CC0001000356C9021376F60F336676014206E0
:1039DC0041822316C9022380040073280080104101
:1039EC00218A336606017310068023A0018801002A
:1039FC000100050A137AFA0F29B2F3270080A18B74
:103A0C0089CBF327008023A0F1881C41DD9B7390A8
:103A1C00078001000100B7170040130770052380D1
:103A2C00E704130780FA2380E7040100010003D7A1
:103A3C00C70216063A96420641822396C70299BFE0
:103A4C00914763EEB702172702001307672E8A050A
:103A5C00BA959C41BA978287B717004003A7470BCA
:103A6C001345F5FF698F23AAE70A03A7070B698F94
:103A7C0023A8E70A03A7070A798D23A0A70A828047
:103A8C00B717004083A6470B1347F5FFF98E23AAFF
:103A9C00D70A83A6070B558D23A8A70A83A6070A66
:103AAC00758F23A0E70A8280B717004003A7470B46
:103ABC00498F23AAE70A03A7070B1345F5FF45BF58
:103ACC00B717004083A6470B1347F5FF758F23AA42
:103ADC00E70A03A7070A598D4DB7B717004003A78C
:103AEC00470B498FEDB7914763EEB70217270200DA
:103AFC00130747258A05BA959C41BA978287B71751
:103B0C00004003A7470D1345F5FF698F23AAE70C67
:103B1C0003A7070D698F23A8E70C03A7070C798D62
:103B2C0023A0A70C8280B717004083A6470D13472C
:103B3C00F5FFF98E23AAD70C83A6070D558D23A864
:103B4C00A70C83A6070C758F23A0E70C8280B717F0
:103B5C00004003A7470D498F23AAE70C03A7070DC5
:103B6C001345F5FF45BFB717004083A6470D134714
:103B7C00F5FF758F23AAE70C03A7070C598D4DB7DA
:103B8C00B717004003A7470D498FEDB7411122C469
:103B9C003717004006C683472702035707021384D2
:103BAC00018893F7F70F4207418325E91377F79FB5
:103BBC00420793F7F7074183F3260080A18A89CA4D
:103BCC00F326008023A0D1881440DD9A73900680E0
:103BDC0001000100B7160040130670052380C604CF
:103BEC00130680FA2380C6040100010093F7F70F37
:103BFC002381F6022390E6022380060473270080BB
:103C0C001C40A18BD98F7390078023A001880100E1
:103C1C000100B24022444101828093E707081367F8
:103C2C000740F3260080A18A89CAF326008023A0CE
:103C3C00D1881440DD9A7390068001000100B716FC
:103C4C000040130670052380C604130680FA2380F7
:103C5C00C604010001002381F6022390E6022380B2
:103C6C000604732700801C40A18BD98F73900780AA
:103C7C0023A0018801000100294597D0FF1FE78090
:103C8C00608EF3270080A18B89CBF327008023A0C3
:103C9C00F1881C40DD9B7390078001000100B71771
:103CAC000040130770052380E704130780FA238074
:103CBC00E7040100010003D70702136707202390D4
:103CCC00E702238007041DBFB717004003D5870008
:103CDC00420541819377050491EB9377F5013755B4
:103CEC00E801130505803345F50282809377050CB6
:103CFC00130700046397E7009377F50137459C1C85
:103D0C00CDB72165130505D0828037E700E01C4351
:103D1C005443A183E206D58F1CC1FD572320F7180D
:103D2C002322F718828013178500B7E700E023A041
:103D3C00E710618123A2A7108280B7F700E08847C3
:103D4C00CC478280814737370040A14663C4C70007
:103D5C00328582800345B740E38EA6FE3385F5009D
:103D6C000345050085072304A740CDB79387018140
:103D7C009C43170700201307A75D3E95636CE50075
:103D8C0017470020130747076366A70023A8A180E5
:103D9C003E858280FD57EDBF411122C406C62A84A0
:103DAC0025372947B307E502B2408D83B3D7870285
:103DBC0022449507B3D7E70237370040C207C183C7
:103DCC002316F740410182807165411113050520CE
:103DDC0006C6D937B7370040130770F82381E74080
:103DEC000D47A381E74013070004A380E740054774
:103DFC002387E740B2404101828037370040834738
:103E0C0027401A0593F7F703C98F93F7F70F230190
:103E1C00F7408280B737004003C7174019C9D98DC6
:103E2C00A380B74003C70740136787002380E74090
:103E3C00828093C5F5FFF98DA380B7408280CC4179
:103E4C00411106C6328503C6150083C5050022063E
:103E5C004D8E42068D654186138875A2630C060F44
:103E6C006348C804138845A26306060B634AC8005E
:103E7C00938535A26309B60623900600294679A0DE
:103E8C00138855A26308060B938565A2E316B6FE4C
:103E9C00C1451D4663ECE5064546198E63F3C70024
:103EAC003E862390C600972502009385E5EB89A8F2
:103EBC00138895A26300060F634E060B1388A5A208
:103ECC00630A060F938505A5E318B6FA99451D46B6
:103EDC0063EEE502198E63F3C7003E862390C6009D
:103EEC009385C18131A89D451D4663E1E5022146BC
:103EFC00198E63F3C7003E862390C60093854188D4
:103F0C00BA9597D0FF1FE78000AD0146B2403285CD
:103F1C0041018280AD451D46E3EAE5FE3146198E2E
:103F2C0063F3C7003E862390C60097250200938555
:103F3C0065E7F9B7B1451D46E3EAE5FC3546198E50
:103F4C0063F3C7003E862390C60097250200938535
:103F5C0065E67DB7C1451D46E3EAE5FA4546198E8F
:103F6C0063F3C7003E862390C60097250200938515
:103F7C00E5E079B7C1451D46E3EAE5F84546198EFB
:103F8C0063F3C7003E862390C600972502009385F5
:103F9C0065E3BDB7C1451D46E3EAE5F64546198E16
:103FAC0063F3C7003E862390C600972502009385D5
:103FBC0025DEB9B7B5451D46E3EAE5F43946198E59
:103FCC0063F3C7003E862390C600972502009385B5
:103FDC00A5D83DB797E6FF1F938686244146CD456D
:103FEC0017E5FF1F1305C5106F7030702D453DEFA1
:103FFC0003C5050009476317E5063285D041411119
:10400C0006C6034716000346060041682207518F77
:10401C00130628FE6308C7026369E60005186303EC
:10402C0007032390060029451DA8130648FE630BC1
:10403C00C7001518E31707FF15473E866377F7008F
:10404C00154621A03E8691C30546CC452390C6005B
:10405C004206418297D0FF1FE780E0970145B240AE
:10406C00410182802390060005458280828083C7AF
:10407C00850093F70702E1E3411106C622C426C26C
:10408C004AC003C9050009432E888547631B690292
:10409C0003A345003284B684834713000343030013
:1040AC00A207B3E767004163130E13FE6382C703D5
:1040BC000D13638B67040D6813082890638507073D
:1040CC00A947B2402244924402493E854101828074
:1040DC00AD4765FB0547B547E365D7FE0325C8002B
:1040EC000546A28597D0FF1FE780E08E0149938794
:1040FC00818A9843814771D7184361D72686A28558
:10410C004A850297814775BFAD4745FF0547B547BF
:10411C00E369D7FA0325C8000546A28597D0FF1F8F
:10412C00E780608BE9B72244B2409244024985474C
:10413C0041016F60801DA1473E85828041677917E0
:10414C00630CE502411122C406C685472A84639A92
:10415C00F50022852244B2409385C18941016F70DC
:10416C00B06389476396F5008545EFA0A01E75D115
:10417C00B2402244410182808280411122C42A84AF
:10418C0041659385C1897D1506C6EF70F0601705F2
:10419C0000001305E5FA0588EFA0001305C02244C2
:1041AC00B24097E6FF1F938666194146C54517E551
:1041BC00FF1F1305A50741016F703053B240224415
:1041CC0001454101828009C523A4A18A0145828051
:1041DC00454582801147636EA70697260200938699
:1041EC00A6BF0A0536951841411106C63697AE870B
:1041FC00B285028705476145639AE700054613853A
:10420C00C18897C0FF1FE780007D0145B240410186
:10421C00828005476145E39BE7FE054613850189CE
:10422C00CDB705476145E393E7FE05461385418904
:10423C00C9BF05476145E39BE7FC054613858189AA
:10424C00C9B715476145E393E7FC15461385018A09
:10425C004DBF09458280411122C42E849385C189AA
:10426C0026C206C6AA84EF600005058915C197E72A
:10427C00FF1F9387A7FB83D7A70BA285B240231000
:10428C00F400224426859244014641016F60905F00
:10429C00B2402244924449454101828011456FE06D
:1042AC005FEC411193962500AA852D4506C697C053
:1042BC00FF1FE780A03BB2400145410182804111C4
:1042CC0026C29394250022C44AC02A843289A68629
:1042DC00AA850146254506C697C0FF1FE780003911
:1042EC00A6864A86A285294597C0FF1FE78000381D
:1042FC00B24022449244024901454101828001119D
:10430C0022CC06CE3714004026CA4AC84EC652C428
:10431C0083447405034AB405834984050349940511
:10432C00EFE0FFBA8347A40593F4F40F137AFA0F66
:10433C0093E71700230DF40493F9F90F1379F90F90
:10434C00B717004003C7A705058B6DFF03D5C7053D
:10435C00A38D4705238C3705A38C2705A38B9704C6
:10436C00F2406244D2444249B249224A05618280F9
:10437C0041119397050122C406C6C1872E8463DBC5
:10438C000700252E11C1C9242165218DB24022447C
:10439C004101828093F7150013C51500E5FB939737
:1043AC00250163D00702EF001179CD3D37F60200ED
:1043BC00130606E0896503C5C18AEF00007C096518
:1043CC00E9B7939715010145E3D207FC17250200C5
:1043DC00130545A6EF00A20E13060064916503C5F4
:1043EC00C18AEF00807911654DB71D71494697253B
:1043FC0002009385A59F17250200130525C886CEBC
:10440C0097C0FF1FE780206601E9172502001305FE
:10441C00259FEF00C20A01A0B7F600E0795798CAB1
:10442C00FD57DCCA0567B7E700E023A0E7101306C9
:10443C00F00290C223A0E718010001001306C0038C
:10444C008145480897C0FF1FE780605C97E7FF1F16
:10445C00938787233ECA896793870780231CF100C3
:10446C00B5472304F102A167938707E03ECEB70757
:10447C000105938707103ED0ED472312F1028547C3
:10448C002303F102970700009387E7E1BEC4970767
:10449C000000938707E3BEC68567938717D0231563
:1044AC00F10297070000938787893EDAB7F507007A
:1044BC00970700009387E7E43EDE814697070000EC
:1044CC00938707DE7000E1051945BEC097C0FF1F3A
:1044DC00E780C01958088147994670003E960346FC
:1044EC00060085070507A30CC700E398D7FED24743
:1044FC0091C70357810185676373F70001A04808D2
:10450C00EF009041AA8501C917250200130585907B
:10451C00EFF0516901A0F640256182804111170529
:10452C000000130525E506C622C4EF00303B1384BA
:10453C00C18A2300A4001128034504002244B24080
:10454C0013060032896541010DAD411106C6F327F2
:10455C000080A18B1387018889CBF327008023A0CF
:10456C00F1881C43DD9B7390078001000100B71795
:10457C000040930670052380D704930680FA2380AD
:10458C00D7040100010083C6F70293F6A60FA38798
:10459C00D70223800704F32600801C43A18BD58F00
:1045AC007390078023A0018801000100F32700808D
:1045BC00A18B89CBF327008023A0F1881C43DD9BC2
:1045CC007390078001000100B71700409306700537
:1045DC002380D704930680FA2380D70401000100BE
:1045EC0083C6F70293E62600A387D702238007042D
:1045FC00F32600801C43A18BD58F7390078023A0DA
:10460C000188010001000545EFE0FF8E41391305DB
:10461C00407E81470147814605468545EFE03F9442
:10462C00B240014541016F00D06323AC05FE1C4133
:10463C0091E7010001000CC18280BA8703A787FFB4
:10464C006DFF23ACB7FE82801DC18346E5FF1307C7
:10465C00F00F9147639EE600411106C697D0FF1FED
:10466C00E7808022B24081473E8541018280954798
:10467C003E85828001E9014582800145B240224499
:10468C004101828095654111938505D022C4C98D65
:10469C002A842105C2054205C181418106C697D0F5
:1046AC00FF1FE780401171D9FD572320050023120D
:1046BC0085002303F5002105D1B717070020130748
:1046CC0027821C43411122C426C24AC006C601449B
:1046DC000149BA8489E7A165D9251DC401A803C77E
:1046EC00E7FF631AA7020DCCA165012E9840832722
:1046FC0084FF6319E40217F7FF1F2323F77EFD578E
:10470C00232C04FE230FF4FE2285B2402244924453
:10471C0002494101828011E03E8983A787FF5DBF7A
:10472C003E84E5BF232CF9FED9BFB1CD411122C483
:10473C0006C62A8497F7FF1F83C7D77A2E85637521
:10474C00F400894763E8870001370D45B2402244E5
:10475C004101828083A785FF99E703C7E5FF930793
:10476C00F00F6305F700CD351545CDB7238F85FECA
:10477C0017F5FF1F1305C5764D3D22852244B24027
:10478C00A16541019DAC1545828097F7FF1F23A9B8
:10479C000774828097F7FF1F9387077A9C4399E3EE
:1047AC003E85828003D727006316B70003C7070036
:1047BC00E308A7FEDC47E5B7C9C1797122D406D658
:1047CC0026D24AD04ECE01444147B3D78540858B83
:1047DC00A5C31205314722953305E50297F7FF1F54
:1047EC009387877903A907008544B3948400C20496
:1047FC00C180BE892A990327090011C703254900E6
:10480C002EC60297B24531473304E40283A7090050
:10481C003E941C4489E72320090023220900B2504E
:10482C002254A58D02599254F2492E8545618280FD
:10483C000504E31CE4F88144DDB72E858280411128
:10484C001397050122C406C626C24AC041872E848E
:10485C00635E07009D3511C1C53BA1673D8C228568
:10486C00B24022449244024941018280EDD9AA8788
:10487C0001474146B356E440858A8DCE9207BA97DC
:10488C00B146B387D70297F6FF1F9386E66E03A94E
:10489C0006008544B394E400C204C1803E9983278A
:1048AC0009000325490082972320090023220900CF
:1048BC00258C75B70507E31FC7FA8144D5BF97F759
:1048CC00FF1F9387A7679C53411122C406C613840C
:1048DC00C18299C782971C403E9523A6A18239A01C
:1048EC0097F7FF1F9387C7649C43EDF70840B747C2
:1048FC0003009387D73F3305F502B7A726009387AC
:10490C0037ECB24022443E9523A6A182410182801D
:10491C007DC197F7FF1F9387A7619C43797122D4C0
:10492C0026D24AD04ECE52CC56CA5AC806D65EC6ED
:10493C003A8AB689328BAE8A2A89829797F7FF1FFB
:10494C00938787639843BE840144B146C147B30B38
:10495C00D40233067701104251EAC165938505F004
:10496C00414597D0FF1FE78000E51DE597F7FF1F36
:10497C009387C75C9C5B2D4589C711458145829700
:10498C002D45B250225492540259F249624AD24AED
:10499C00424BB24B4561828097F7FF1F9387C759F3
:1049AC00984329E397F7FF1F23A8A7582300050076
:1049BC009C400547331787002326050023246501F7
:1049CC002311E50023224501DE9723A0270123A212
:1049DC00570123A447010145E38509FA2380890087
:1049EC004DB73E875C47F5FF48C7C9B70504E310D0
:1049FC00F4F6214579B70945828097F7FF1F83C7E5
:104A0C00774E6371F50217F7FF1F1307A752931721
:104A1C00150008433E9583570500DD8D2310B50026
:104A2C00014582800D45828097F7FF1F83C7974B06
:104A3C006373F50217F7FF1F1307C74F9317150082
:104A4C00084393C5F5FF3E9583570500FD8D231054
:104A5C00B500014582800D458280130705FF137751
:104A6C00F70FFD4763E9E70AB146B306D50297F79E
:104A7C00FF1F93876750984389473697184349CF50
:104A8C00011122CC4EC60544935945003D8933157E
:104A9C00A40013140501418026CA4E85AE84A2855C
:104AAC004AC806CEC5392A89814731CDA2854E85A3
:104ABC00A53F97F7FF1F9387A7479C43829797F7CC
:104ACC00FF1F83D7674C338797022A8481461306CE
:104ADC000064B3B7970213050732B335E500BE95F2
:104AEC00EFE0514CB307850097F6FF1F93864649BC
:104AFC003E87D44263E4A70063E4D7003387D740F2
:104B0C002324E9008147F2406244D2444249B2492D
:104B1C003E850561828089473E858280011126CAC7
:104B2C0006CE22CC4AC84EC6BD47894463EFA702C5
:104B3C0031473307E50297F7FF1F9387E7439C4301
:104B4C008944BA979C4395C305443314A40042048A
:104B5C0041802E890145A2853539AA89814411C528
:104B6C00A2850145D13523A42901F2406244268552
:104B7C004249D244B2490561828097F7FF1F83C72F
:104B8C0077366364F50001458280011197F7FF1FAA
:104B9C009387073A56C283AA070006CE22CC26CAB0
:104BAC004AC84EC652C4638E0A0A17FAFF1F130A6C
:104BBC002A3D83244A00B74736FE938707C8AE893F
:104BCC0097F5FF1F83D5453CBE94B387C5022A8455
:104BDC0032898146B3B5C50213850732B337F50068
:104BEC0013060064BE95EFE0F13B63ECA406829AD9
:104BFC0097F5FF1F83D54539B3872503AA84130680
:104C0C0000648146B3B5250313850732B337F5002D
:104C1C00BE95EFE03139B3079500BE8403274A00F7
:104C2C0063E4A70063E4E700B384E740CE85228504
:104C3C00EFF05FB601C504C505452DA0936504F0E2
:104C4C00C205C181414597D0FF1FE780C0B605E57D
:104C5C0097F7FF1F9387872E9C5B81C7A285114511
:104C6C0082970145F2406244D2444249B249224AF9
:104C7C00924A0561828097F7FF1F9387E72B9C432D
:104C8C009DE397F7FF1F23A9A72A85472326050035
:104C9C0004C52311350123008500A300F500232250
:104CAC00050059BFBA87D84775FFC8C7F9BF59C99E
:104CBC00797122D426D24AD04ECE52CC56CA5EC678
:104CCC0062C466C206D65AC83689328AAE89AA84AC
:104CDC004144314C97FAFF1F938A0A2A854C930B57
:104CEC000003330B840303A70A005A971C43B1E754
:104CFC009375F400B395BC0013554440C20552861D
:104D0C00C1811375F50F953D0DC983A70A000145A7
:104D1C00DA9784C323A237016304090023008900B6
:104D2C00B250225492540259F249624AD24A424B2E
:104D3C00B24B224C924C456182800504E31374FB08
:104D4C002145F9BF09458280411122C426C24AC0BF
:104D5C0006C62A842E89B2840D35CA852285EFF0C9
:104D6C007FA305CD97F5FF1F83D50522B387950249
:104D7C002A84130600648146B3B595021385073265
:104D8C00B337F500BE95EFE0F12148C00145B240C4
:104D9C00224492440249410182802145CDBF4111F8
:104DAC0022C426C24AC006C62A892E84EFF09F9ED2
:104DBC00AA8419C123110500A2854A85B53197F73C
:104DCC00FF1F83C72712639B270197F7FF1F83D70A
:104DDC00E7155D8C97F7FF1F239A8714014591E027
:104DEC001945B24022449244024941018280930702
:104DFC00F00263E8A7044111B14722C43304F50261
:104E0C0026C297F4FF1F938424179C4006C6A297D2
:104E1C00984389470DC39377F5008545B395F50005
:104E2C00C205C1811181A53F9C40A29723A0070018
:104E3C0023A207008147B240224492443E8541019F
:104E4C00828089473E858280411106C622C4EFF0DC
:104E5C007F9411E50145B24022444101828097F7CD
:104E6C00FF1F9387E70C9C430045829797F7FF1F22
:104E7C00938707116368A402D843B74636FE93861E
:104E8C0006C83305A4403697E376E5FC13070064A7
:104E9C00B335E50203D6870081463305E502EFE022
:104EAC00711055BFD8433A94C1BF411122C426C2D8
:104EBC0017F4FF1F1304C40C97F4FF1F9384840290
:104ECC009448584097F7FF1F9387870606C69C4364
:104EDC006393E60882975440B74736FE938707C81A
:104EEC00B6973387A7003A856364F7006364D700ED
:104EFC003305D74097F4FF1F938484219C4C81CFBA
:104F0C0097F7FF1F9387C72794433707CDFF7D176C
:104F1C009C46F98F9CC611E1484097F7FF1F938779
:104F2C00E701DC53829719E59C4C8DC3EF002157A8
:104F3C00EFF0103A9C4C99CB97F7FF1F93874724BF
:104F4C009843B70633001C47D58F1CC7B240224488
:104F5C009244410182808297984897F7FF1F83C73C
:104F6C0037FF54401D8FB307A7003E8563E4E7006D
:104F7C00E3E2D7F83385D740B5BF411106C697F7A2
:104F8C00FF1F23ADA7FE0295B24097F7FF1F23A783
:104F9C00A7F6014541018280994763E9B7008A056C
:104FAC0097F7FF1F9387C7F6BE9588C18280411182
:104FBC007146814517F5FF1F130585F506C697F752
:104FCC00FF1F23AB07F697F7FF1F23A907FA97F7E5
:104FDC00FF1F23AF07F497C0FF1FE78040A3130602
:104FEC008002814517F5FF1F1305C5EF97C0FF1F02
:104FFC00E780E0A1EF60E12C97F7FF1F83C777F5FF
:10500C0013D527008D8B3E958D473305F5028545CD
:10501C0039051375F50F97F7FF1F2386A7EC9947F2
:10502C003305F5021305052497C0FF1FE780A07810
:10503C0017F7FF1F2322A7F459CD994717F6FF1F27
:10504C00034666EA3306F60281451306062497C02A
:10505C00FF1FE780C09B97F7FF1F9387E7F19C43E7
:10506C009387072417F7FF1F2322F7EA17F7FF1F71
:10507C00034767E70A07BA9717F7FF1F232CF7EACE
:10508C00EFF0AFF0052B97F7FF1F938727E89443BA
:10509C0097F7FF1F83C717E513972700369717F667
:1050AC00FFFF1306A67110C3138717001377F70FB2
:1050BC000A07369717F6FFFF1306A67810C3138757
:1050CC003700890793F7F70F8A0797F5FF1FA38B14
:1050DC00E5E0B69790C3B2404101828097F7FF1F7D
:1050EC0083C757E017F7FF1F0347E7DF63F3E702B8
:1050FC0017F7FF1F130787E118439386170017F65E
:10510C00FF1FA301D6DE93962700369708C33E8572
:10511C0082809307F00FE5BF1C41638A0716417725
:10512C007D8FB706002089476314D71603574500B7
:10513C0063000716411122C419462A849305F00F07
:10514C00690506C697C0FF1FE780809605478D4707
:10515C00630AE5121C4481CB585899476304071223
:10516C00185C630107121306C003814517F5FF1F76
:10517C001305C5DC97C0FF1FE78060891306C003C9
:10518C00A28517F5FF1F130565DB97C0FF1FE7808E
:10519C00808417F7FF1F035727DB97F7FF1F9387B1
:1051AC00E7D919E71307001097F6FF1F239EE6D8DF
:1051BC0017F7FF1F034767D911E7054797F6FF1F3E
:1051CC002385E6D817F7FF1F035747D811E76D471C
:1051DC0097F6FF1F239CE6D617F7FF1F0347F7D65A
:1051EC0011E7154797F6FF1FA381E6D617F7FF1FA8
:1051FC000347E7D511E7054797F6FF1F2389E6D448
:10520C0017F7FF1F0347B7D419E703C7F70097F643
:10521C00FF1FA38EE6D217F7FF1F034767D311E7D3
:10522C00354797F6FF1F2385E6D217F7FF1F034775
:10523C0077D219E71307800297F6FF1FA38CE6D0ED
:10524C0017F7FF1F0347D7D019E71307D00297F6BC
:10525C00FF1FA38FE6CE0347840119E71307C00392
:10526C0097F6FF1F2388E6CE9C5791C7829797F736
:10527C00FF1F239DA7C6FD5717F7FF1FA304F7F6C3
:10528C003D338147B24022443E85410182808947AB
:10529C003E85828001114EC697F9FF1F938949CE36
:1052AC0083A7090006CE22CC26CA4AC852C48297CC
:1052BC0013090064B335250303DA8900814652864D
:1052CC0033052503EFE0014E97F7FF1F938787C146
:1052DC00804FAA8401456306940233858440636E33
:1052EC00940003A5490052868146B335A9023305C3
:1052FC00A902EFE0214B018D269597F7FF1F23AFF5
:10530C0097BEF2406244D2444249B249224A0561F6
:10531C008280011122CC0A852E8441469705020019
:10532C009385857906CEEFE0917C180806043A94B3
:10533C00035504FF97F7FF1F83D727C5F24062443C
:10534C00AA9737450F00130505243355F50205615F
:10535C00828097F7FF1F83D747C351471D45637C56
:10536C00F702794719456378F702130720031545AF
:10537C006373F7021307B0041145637EF70013073C
:10538C0040060D456379F7001307600909456374FE
:10539C00F70013B5B70F8280011122CC06CE2A84F8
:1053AC002EC6EFF0CFD1B245F240818D33A5A502C8
:1053BC00229562441375F50F05618280011122CC90
:1053CC0006CE2A842EC6EFF08FCFB245F240818DE7
:1053DC0033A5A50222956244420541810561828074
:1053EC00011122CC06CE2A842EC6EFF04FCDB24549
:1053FC00F240818D33B5A50222956244056182800D
:10540C0097F7FF1F938787B3985739CB411122C465
:10541C0026C206C6BE84029717F7FF1F035707ADB7
:10542C002A8415CBBA876373A700AA87C207C183E6
:10543C00BA866373E400A286C206C182958F514777
:10544C00635BF700DC5491C38297EFF0D06E97F753
:10545C00FF1F239D87A8B2402244924441018280C1
:10546C00828097F7FF1F938767ADDC57011106CE3B
:10547C00AA8581C72AC68297B245C1C59C410545FC
:10548C00B5CFDC41A5CF83D78500ADCB83D7A500A5
:10549C00B5C783C7C500BDE3414617F5FF1F13050C
:1054AC0025AE97B0FF1FE780005397F7FF1F938738
:1054BC0027AD9C4317F7FF1F232CF7A697F7FF1F69
:1054CC0083C757A98DE79307800217F5FF1F035574
:1054DC00A5AB3305F50237460F00130606248146AB
:1054EC008145EFE0212C97F7FF1FA385A7A6170591
:1054FC000000130565DAEFF05FA80145F240056185
:10550C00828097F7FF1F83C7C7A413978701618712
:10551C006354070497F7FF1F23A4079E97C7FF1F29
:10552C009387678E17F7FF1F232CF7A47D5797F7E8
:10553C00FF1F23A9E7A4B7873200938727A197F60B
:10554C00FF1F23A3F6A497F7FF1F238107A4B7C758
:10555C00004023A4E72691BF13F7170005CFB787A8
:10556C002003938707D017F7FF1F232FF7A0B70748
:10557C00C0A817F7FF1F2327F7A097C7FF1F938714
:10558C00A78B17F7FF1F232DF79E97F7FF1F238F6E
:10559C00079E21BF617797F6FF1F2397E69E81CB6D
:1055AC009307003217F7FF1F2311F79EC9B7930714
:1055BC002003CDBF011122CC17F4FF1F1304049854
:1055CC00084406CE26CA4AC801E90545F2406244A1
:1055DC00D2444249056182805C58E5DB185C75D782
:1055EC007000854582971844B247E300F7FE930597
:1055FC00E00417F5FF1F0355259597C0FF1FE780A3
:10560C00801B17F7FF1F232FA78E61D117F6FF1FE3
:10561C00035686939305F00F97B0FF1FE780203F4A
:10562C00814417F9FF1F1309E98B97F7FF1F83C7F5
:10563C00C7910326090263C1F402328597C0FF1F8C
:10564C00E7808024014597F7FF1F23AD078A97F762
:10565C00FF1F23AB078A9DBF97F5FF1F83D5C58E10
:10566C00B38795020844185C898185043E9508C26D
:10567C00029765BF011156C297FAFF1F938A0A8CD5
:10568C0083A78A0022CC4AC84EC606CE26CA52C46C
:10569C005AC0AA892E8432896385072203A74A033C
:1056AC00630707147D476366A71497F4FF1F938461
:1056BC00648303AA040263170A0A9565938515E0AF
:1056CC0017F5FF1F0355458897C0FF1FE780A00EF5
:1056DC0097F7FF1F23A8A7822A86630A051083A7C2
:1056EC004A0303A58A0097F5FF1F83D5E5858981B9
:1056FC00829783A78A0003AA040217F7FF1F2325AA
:10570C00F7808947639CF908C1476312F40E97F53B
:10571C00FF1F83D56583938505FC9147B3C5F502BF
:10572C008A05D29503C705009307A005631DF70AE8
:10573C0083C715006399370B4A852286910597B06C
:10574C00FF1FE78040299C50528563934715014504
:10575C00F2406244D2444249B249224A924A024B34
:10576C0005618280D850E38EE7F89565938525E036
:10577C0017E5FF1F0355457D97C0FF1FE780A0036A
:10578C002A8A35C52A8683A74A0303A58A0097E58A
:10579C00FF1F83D5657B89818297A5B78D47639D54
:1057AC00F900C1476315F40497E5FF1F83D5C5794C
:1057BC00938545FDF199B5B79147639AF900631844
:1057CC00340397E5FF1F83D52578A115E5B7C147AD
:1057DC00639FF900A14763EC870097E5FF1F83D512
:1057EC00A576C115C1BF9C5052856397470D2945BD
:1057FC0085B71307F006568B6361A70A130A05FEDB
:10580C001947334AEA0217E7FF1F0357E77397EA72
:10581C00FF1F938A2A6D330AEA023E9A83A74A0233
:10582C006395470183A40A029DE49305E00417E500
:10583C00FF1F0355657197C0FF1FE780C0F7AA844F
:10584C005DD583274B0397E5FF1F83D5E56F2A862C
:10585C0089815285829791451307A0058981939779
:10586C002500A69783C607006393E60483C617003A
:10587C00639C360385058A052286A6954A8597B0D2
:10588C00FF1FE780401583A70A02E38297EC268569
:10589C0097C0FF1FE78040FF5DBD1307E007E3687B
:1058AC00A7F4130A05F985B783D5270045BF83A74D
:1058BC000A02E38E97F2268597C0FF1FE780C0FC93
:1058CC003DB797E7FF1F9387E7618C538DD19147C5
:1058DC009306A0058983139727002E97034607008C
:1058EC00E317D6F003461700631C360185078A07B9
:1058FC002286BE954A8597B0FF1FE780C00D81BDFB
:10590C0083572700C1BF97E7FF1F938727639847EB
:10591C0039C79C5FA9C705476313E504411122C42D
:10592C0017E4FF1F1304045C105006C60DC6485044
:10593C0097E5FF1F83D5456189818297085097C0F1
:10594C00FF1FE78060F497E7FF1F23AD075A97E727
:10595C00FF1F23AB075AB240224441018280828050
:10596C00011117E7FF1F1307675D4EC683298700D8
:10597C0022CC26CA4AC806CE52C456C2AA842E8449
:10598C003289638A09201C5FBA8A99EB2945F24057
:10599C006244D2444249B249224A924A0561828009
:1059AC005C5BEDD7FD4763E9A70E97E9FF1F938971
:1059BC00695383A70902B1CB03A58A0083A74902C7
:1059CC006395A70689476393F408C147E310F4FC79
:1059DC0017E5FF1F035545579147130505FC334544
:1059EC00F5029317250003A509022286CA853E9568
:1059FC009307A0052300F500A3009500110597B0AF
:105A0C00FF1FE78040FD014559B79305E00417E5FA
:105A1C00FF1F0355655397C0FF1FE780C0D997E759
:105A2C00FF1F23A1A74E49F995B783A74A0303A6E5
:105A3C00090297E5FF1F83D525518981829783A79A
:105A4C008A0017E7FF1F2321F74CADBF8D47639EDC
:105A5C00F400C147E31CF4F217E5FF1F0355C54ED4
:105A6C00130545FD9377C5FFBDBF9147639AF400BD
:105A7C00E31E94F017E5FF1F0355054D2115DDB707
:105A8C00C147E395F4F0A147E3E287F017E5FF1F68
:105A9C000355854B4115F9B79307F00663EAA70642
:105AAC00930705FE1947B3C7E70217E7FF1F035714
:105ABC00A74917EAFF1F130AEA42B387E702BE9908
:105ACC0083270A02A9CF83274A02639A3707032543
