:040000006F20000B62
:10000400000000000000000090000020AE0400206A
:10001400A9BDF9F3900000200000000000000000DA
:10002400900000209000002000000000000000006C
:10003400900000200000000090000020000000005C
:1000440090000020900000209000002090000020EC
:1000540090000020900000209000002090000020DC
:1000640090000020900000209000002092000020CA
:10007400A2050020900000209000002090000020A5
:1000840090000020900000209000002090000020AC
:1000940001A0B737004083C74740730020304111A7
:1000A400B7170040985F3AC6945F3247E39CE6FE78
:1000B40032454101828073270080218B9387818898
:1000C40009CB7327008023A4E18898435D9B7310B8
:1000D40007800100010037170040930670052300D4
:1000E400D704930680FA2300D70401000100834655
:1000F400B70493F6F60DA305D7042300070473266B
:1001040000809443A18AD18E7390068023A4018831
:100114000100010093760502638406180347A700D3
:10012400118B25E773270080218B09CB732700806F
:1001340023A4E18898435D9B7310078001000100AC
:1001440037170040930670052300D704930680FAFE
:100154002300D704010001008346A70093E646006C
:100164002305D70023000704F32600809843218B3E
:10017400558F7310078023A4018801000100130721
:10018400004B010001007D176DFF73270080218B58
:1001940009CB7327008023A4E18898435D9B7310E7
:1001A4000780010001003717004093067005230003
:1001B400D704930680FA2300D704010001007D8947
:1001C4002314A7000100010001000100230007041B
:1001D400F32600809843218B558F7310078023A446
:1001E40001880100010073270080218B09CB73274C
:1001F400008023A4E18898435D9B7310078001006D
:10020400010037170040930670052300D7049306B6
:1002140080FA2300D7040100010001000100B72681
:10022400004013061005A383C68023000704F326A9
:1002340000809843218B558F7310078023A4018875
:100244000100010073270080218B09CB73270080F4
:1002540023A4E18898435D9B73100780010001008B
:1002640037170040930670052300D704930680FADD
:100274002300D704010001008346B70493E606086F
:10028400A305D70423000704732700809C43A18B94
:10029400D98F7390078023A4018801000100828014
:1002A40093760504638B06140347A700418B25E767
:1002B40073270080218B09CB7327008023A4E18856
:1002C40098435D9B731007800100010037170040BD
:1002D400930670052300D704930680FA2300D704FD
:1002E400010001008346A70093E606012305D70019
:1002F40023000704F32600809843218B558F731045
:10030400078023A40188010001001307007D010078
:1003140001007D176DFF73270080218B09CB7327A4
:10032400008023A4E18898435D9B7310078001003B
:10033400010037170040930670052300D704930685
:1003440080FA2300D704010001009376F50193E6B7
:1003540006042314D700010001000100010023005A
:100364000704F32600809843218B558F7310078070
:1003740023A4018801000100130760046310E5044D
:1003840073270080218B09CB7327008023A4E18885
:1003940098435D9B731007800100010037170040EC
:1003A400930670052300D704930680FA2300D7042C
:1003B40001000100B72600400946B5B57327008047
:1003C400218B09CB7327008023A4E18898435D9B8C
:1003D4007310078001000100371700409306700571
:1003E4002300D704930680FA2300D70401000100F8
:1003F400B7260040130620053DB573270080218BE6
:1004040009CB7327008023A4E18898435D9B731074
:100414000780010001003717004093067005230090
:10042400D704930680FA2300D70401000100835601
:10043400870093E6060C2314D700C5BB41118146FF
:1004440001468145114506C63524F3270080A18B5A
:100454009386818889CBF327008023A4F1889C426A
:10046400DD9B7390078001000100B717004013075C
:1004740070052380E704130780FA2380E704010052
:10048400010003C76704136717002383E70423806D
:100494000704732700809C42A18BD98F7390078037
:1004A40023A4018801000100B240410182808146F9
:1004B4000146814511457D2AF3270080A18B1387CE
:1004C400818889CBF327008023A4F1881C43DD9B1A
:1004D4007390078001000100B71700409306700570
:1004E4002380D704930680FA2380D70401000100F7
:1004F400FD562396D70223800704F32600801C436D
:10050400A18BD58F7390078023A40188010001007B
:10051400F3270080A18B89CBF327008023A4F188E3
:100524001C43DD9B7390078001000100B717004056
:10053400930670052380D704930680FA2380D7049A
:100544000100010083C6670493E616002383D704E1
:1005540023800704F32600801C43A18BD58F73905E
:10056400078023A401880100010001A0BD473305D1
:10057400F50201007D1575FD8280411122C426C259
:1005840006C6AA84014463179400B24022449244EC
:100594004101828005041305803E4204C13F41802D
:1005A400DDB7B7170040130700032388E702854728
:1005B40023AAF18A73002030230304801547230300
:1005C400E48001002302A480828083076480E3CE58
:1005D40007FE23030480828083076480E3CE07FE42
:1005E40003454480828083076480E3CE07FE2302B0
:1005F400A4808280411126C44AC24EC006C6137725
:10060400F50BAD47AA892E8995446306F700194571
:100614006537653F8D444E854537FD59FD14639814
:100624003401B240A24412498249410182801355E7
:1006340009011375F50F453F2209CDB7011126CCE9
:1006440006CEB704080051371545BD3771376937F1
:100654002AC6A53F32459377150089EB136515002B
:100664001375F50FF240E24405618280FD14E9FC44
:100674000145CDBF397126DC4ADA4ED852D656D45C
:100684005AD25ED006DE62CE66CCB7E700E07D5774
:1006940083AA070022C603AA470023A0E71823A2BF
:1006A400E718B7170040130770052380E704130702
:1006B40080FA2380E70483C74704930B75FFB6844D
:1006C400E20793FBFB0F8546AA892E8B32893724D8
:1006D4000040E187015763FA76016308D500894633
:1006E400130700026313D5000157D98F93F7F70F4F
:1006F400B71C00402382FC0411472303E480130544
:10070400F00F5D3D094CD135636D7C11B7050700D1
:10071400DA9537870700795563F2E504B3879500C6
:10072400636EF702370B0800A94733EB6501639941
:10073400F90689E48144513D26850DA0DA850945F1
:10074400553D05090345F9FFFD14050B693D81C4B9
:100754009377FB0FFDF7DD3569FD7D55B717004035
:10076400130770052380E704130780FA2380E70446
:1007740003C74704418B2382E704F250B7E700E044
:1007840023A0571123A24711E25432445259C259AB
:10079400325AA25A125B825B724CE24C2161828013
:1007A400A5476395F90685691309F00FB306990007
:1007B400B3742B01B6941349F9FFB3749900856B94
:1007C40033796901416B9387F9FFB3F7270199E303
:1007D40063FC340193D94900C147E3E637FF99BF6D
:1007E4000569C1697D19D9B71305800D638869014D
:1007F400130500026384790113051008CA85DD3BE3
:10080400353D21DD4E99B3843441D9B7DA852D4580
:10081400D533CA94E30099F205097D3BA30FA9FEE1
:10082400D5BF9387F9FF93F7F70F6361FC0C83C778
:100834001C0413073008631FF70437070800636BB1
:10084400EB04B3079B00B706100063F5D704334BE2
:10085400EB0089476393F9068980D549E38C04EC5E
:10086400DA850945413B11090327C9FF9147232034
:10087400E48003076480E34E07FE23033481FD17FD
:10088400EDFBFD14110B81C49377FB0FE9FF7D335E
:1008940071F5E1B5B717004003C75704B70708005F
:1008A4001377070219E3B78707007955E378FBEA62
:1008B40033079B00E3FFE7F855B58547E382F9F278
:1008C400DA852D45053B9389F4FFE38504E6293356
:1008D40093F7390091EB83260480032709009307DB
:1008E4004900E39AE6E43E89CE84F1BFB5476396B6
:1008F400F9001305900BC93135BDB1471305B00A92
:10090400E38BF9FE99476391F904B7050800B365D1
:10091400BB002D45C53181448D4BA1497539639682
:100924007401832704802320F9008504E39834FFAD
:100934008327048013172B01635507002312F90042
:10094400D5BB2322F900FDB39D476399F902814584
:100954001305B0044531BD442320090023220900B6
:10096400FD599D3993F77400CA9703C70700FD1416
:10097400398D2380A700E39634FF6DBBA1476392B2
:10098400F9046D398144630D0B008D479304C00352
:100994006308FB009304000563048B019304400483
:1009A4001375C507E30895D8194539313939054513
:1009B400213126850D3909453D314931E31C05D6E0
:1009C40069BB91476399F90013056006F536F53E56
:1009D400130590090DB7E38F09D4F154A9BB19CDC0
:1009E40091CD09CE81473387F5008346070033074D
:1009F400F50085072300D700E317F6FE828019C9A6
:100A040091C909CA910583A7C5FF11057D16232E37
:100A1400F5FEC5BF828001C919C62A960505A30F34
:100A2400B5FEE31DA6FE828081473307F500030768
:100A3400070019E33E8582808507C5BF01112E8614
:100A440026CAAA84131506019305F004418122CC19
:100A540006CE32C6EF00B0562A8401C53246A685BA
:100A6400BD3F2285F2406244D244056182808547BD
:100A740015C18DC105C28147B306F5003387F50062
:100A840083C60600034707006398E6008507E3155D
:100A9400F6FE85473E8582808147EDBF9307F6FFCA
:100AA400BE952A966313C5008280FD1583C7150081
:100AB4000505A30FF5FEFDB7AA87014581CF09CE31
:100AC4003E96850703C7F7FF6317B700E39BC7FE8E
:100AD40005458280828001458280797197370000C4
:100AE4009387475E22D4804306D626D24AD04ECE80
:100AF40052CC56CA5AC85EC679C0B7C4C901014BA4
:100B0400973900009389895B9384F437173A00007E
:100B1400130A8A5B973A0000938A8A5517390000B2
:100B24001309C95E8357240095E35C44631D0B00DD
:100B3400173700002328F758832BC4002285EF00C1
:100B440030555E84B9A82326FB00FDB783A70900AE
:100B540082971C443307F5406376F5000327490068
:100B64001D8F2A9763E2E4089737000023AA0750F1
:100B74008355240003450400974000E0E780C03813
:100B84005C405844A1CB0C4403264900AE97BE8672
:100B940063E4B70063E4C700B386C74014C4228B80
:100BA4003A8449F0973700009387874C9C4B094758
:100BB4006372F706F917173700002323F74CB25076
:100BC400225492540259F249624AD24A424BB24BDD
:100BD4004561828063170B009737000023A4E74E1A
:100BE400A1BF2326EB0089BF03274A0209CF63EF85
:100BF400A7003385A74083A70A016376F5009737DA
:100C0400000023AFA746228B404461BF032749005D
:100C1400BA97C5B79737000023A407464DB74111CB
:100C240022C417340000130464471C4006C626C2BD
:100C34004AC091C782979737000023A10746973788
:100C4400000083C7F765858B97340000938404659F
:100C540095C397370000A385076483C774001547BD
:100C6400637AF700A12B83C77400F5178A07A2974C
:100C74009C4382971C4491C382971739000013093F
:100C8400294403270900173600000346763E9737A8
:100C9400000083C7E73D93961700BA9683D60600F3
:100CA400D5CE9737000083C7A73C63E3C70C9737BB
:100CB4000000238F073A1C40639D071297370000FA
:100CC40083C7575E91CF83C7740093F7F70F89EBFF
:100CD40097370000A388075C974001E0E780C07560
:100CE400973700009387873D9C43638407109737A9
:100CF40000009387A741DC43173700002322F7380D
:100D0400E93B973700009387273CDC53FDC3173733
:100D140000001307E735184B9737000083C7173CCB
:100D24006369F70C83C7740015476364F70C97373E
:100D3400000083C7675B918BCDEF032609009736CC
:100D4400000083C6F63263CCD70A2244B2409244F0
:100D540002494101174300E067006366850793F782
:100D6400F70F973600002385F630E3E2C7F215BF8C
:100D740086073E9783550700231007009737000026
:100D8400239C073297370000938707319C4317351C
:100D940000000345E52D13172500BA979C4382975D
:100DA4009737000083D74731173700000347472C94
:100DB40093C7F7FF7D8D93171700032709003E970C
:100DC400835707005D8D2310A7009737000083C762
:100DD400272A91C7850717370000230BF7281737F1
:100DE40000000347E7289737000083C77728E3709C
:100DF400F7ECB240224492440249410182801397A5
:100E040017003297035707006DF785072DBFAD67AD
:100E140037C70040BD072326F7200F10000097377F
:100E240000009387E724C84F83278726BD66BD0645
:100E340093C7F7FF99836A052326D7205D8D8280A7
:100E44004111B7170040985F3AC6945F3247E39C5C
:100E5400E6FE3245410182801305F00F82800111C4
:100E6400973700009387875322CC03A4070C26CA24
:100E740006CE2AC42EC6854419E40145F2406244D4
:100E8400D244056182808347910003471400858B17
:100E94006304F7000044CDB719469305A100130578
:100EA4002400F136E31895FE0545C9BF1737000045
:100EB4001307C73D1C439306001094C301000100AF
:100EC400010001001C4323A00700834615000348CA
:100ED4002500A2064208C29603480500C2960348AC
:100EE40035006208C29694D78346550003486500CE
:100EF400A2064208C29603484500C29603487500FC
:100F04006208C296D4D7834695000348A500A2067A
:100F14004208C29603488500C2960348B500620899
:100F2400C29694DB8346D5000348E500A206420836
:100F3400C2960348C5000345F500C2966205AA9609
:100F4400D4DB83C6150003C52500A2064205AA9674
:100F540003C50500AA9603C535006205AA9694CF79
:100F640083C6550003C56500A2064205AA9603C5BB
:100F74004500AA9603C575006205AA96D4CF83C618
:100F8400950003C5A500A2064205AA9603C58500DF
:100F9400AA9603C5B5006205AA9694D383C6D50064
:100FA40003C5E500A2064205AA9603C5C50083C58C
:100FB400F500AA96E205AE96D4D3D443F59AD4C3E9
:100FC400D44393E61600D4C3944393E6160094C323
:100FD400BA879443D842058B59E3984E01452300C0
:100FE400E6009843184F2183A300E6009843184F66
:100FF40041832301E6009843184F6183A301E6006F
:101004009C43D84F2302E600D84F2183A302E60075
:10101400D84F41832303E600D84F6183A303E6003E
:1010240098532304E60098532183A304E6009853BD
:1010340041832305E60098536183A305E600D85352
:101044002306E600D8532183A306E600D853418340
:101054002307E600DC53E183A307F6008280010046
:101064008DBF173700001307A7221443411122C470
:101074009C5E4AC006C6998326C2858B3A8417397A
:1010840000001309A920D1CB9C5E973400009384FF
:10109400E42093F7F7F99CDE173700000347672035
:1010A40093070008631BF700832709009C4393F709
:1010B4000704173700002306F71E83C7040093F7BD
:1010C40007049DC397370000938747FF9C4382978B
:1010D4009737000023ACA71C83C7040093F7F70BD2
:1010E40017370000230CF71A83C7440093F707044B
:1010F4008DE7854717370000A304F71A97370000D8
:101104009387871B9C43096798C7130700FC97368E
:1011140000002387E618D844F8D31C40985F118355
:10112400058B09CB985F3D9B98DF054797360000F8
:101134002388E616985F1D83058B11CB985F137780
:10114400F7F798DF854717370000230BF714832739
:101154000900D8430583058B19C7D843759BD8C3A9
:10116400D843799BD8C3B2402244924402494101F6
:101174008280397106DE16DC1ADA1ED82AD62ED4FD
:1011840032D236D03ACE3ECC42CA46C872C676C4B3
:101194007AC27EC0F935F250E2525253C2533255EC
:1011A400A255125682567247E2475248C248324EFE
:1011B400A24E124F824F21617300203097370000F6
:1011C4009387870F9443973700009387270D03C7AE
:1011D4000700058B11CB973700002383070C973743
:1011E4000000A38F070A828003C71700058B65F7E9
:1011F400F85271FF83C75700DDB717380000130892
:101204002809032708001C5F9583858BD1E709C64D
:101214001C5BBD832300F60085CA83270800985B06
:101224004607935767016356070093E707C0C20751
:10123400C18303970600C207C18709C7BA97094744
:10124400B3C7E7022390F60085CD834715008DCB05
:101254009736000083C6E60493F6060413879700C6
:1012640089478DCA3A950347050085469947137601
:10127400F7066311D60262076187B947634C07001A
:10128400832708009C5FED838D8B17370000A30C28
:10129400F70081473E8582808547EDBF411122C416
:1012A40006C6173400001304240118403DE9AE8734
:1012B4007453FDFE3E85B28597370000238107FEF7
:1012C400974001E0E780C0EA97370000938747FC26
:1012D4009C43B70680009843558F98C3D857719B99
:1012E400D8D797370000A38D07FA97370000A38754
:1012F40007FA1C40094798C3144017370000130726
:10130400E7F983472700858B89EB83473700858B73
:10131400D9C797370000238507F8B240224441011A
:1013240082808D476310F50297370000938747F654
:101334009C43B70680009843558F98C3D857719B38
:10134400D8D75DBF8547E319F5FA5447F977FD17F8
:10135400F58F5CC70F1000001C40096798C713077E
:1013640000F817360000230DE6F2173700001307C4
:1013740027F21043184231830D8B11E713076019CC
:10138400F8D3D4C795BF1842094631830D8B631532
:10139400C7001307E043EDB71307E01BD5B7FC52B2
:1013A400ADF3A5BF5D71A2C4A6C22A841306800250
:1013B4002800AE849305100886C6CAC04EDE52DCEF
:1013C400EFF06FE53545974001E0E780801917336A
:1013D40000001303E3EB832703009376F41F173E07
:1013E4000000130EAEF223A40700984B973E0000B2
:1013F400938E8EEC370FFCFF1367F70398CBF84FEF
:10140400130510F8B7020400137707E0558FF8CFDF
:101414009843F576FD16758F98C39843B706330045
:10142400930380251377F7E798C3984311497D1FE9
:101434001377F7E71367071098C303270E0085494E
:10144400930F80021C47D58F1CC783A70E00130778
:10145400900D3400B8CB014793553700A69583C748
:10146400050013767700B3D7C740858BE1C3832784
:10147400030083280E00239C07042390070603A877
:10148400C8021378D8FF23A6080383A8070013789B
:10149400F70793F808F833E8080123A0070103A825
:1014A40047023368580023A2070383A80E000148AB
:1014B40023A2780603DA07066307480303A8070391
:1014C400038A06001358F8006208135888416358C9
:1014D4000A0103A807031358F8002380060103D860
:1014E40007061378F80F03AA480663060A0003DA0E
:1014F4008705E37F49FB03A847023378E80123A269
:10150400070383870600635CF40003C80500339671
:10151400C9001346F6FF337606012380C5003E86D4
:1015240063D3A7002A8613158601618505071377FF
:10153400F70F8506E312F7F3B640264496440649AE
:10154400F259625A61618280973600009386C6D64A
:101554009C42D84713161701635506029847131681
:101564001701635006027D57B8D7173700001307D9
:1015740027B0584F0507173600002329E6B0116736
:1015840098C798470D83058B1DC317370000034781
:1015940007D113671700173600002302E6D013079C
:1015A40000F817360000230DE6CE214798C7984768
:1015B400058B09CF17370000034757CE1367170071
:1015C40017360000A30CE6CC054798C79847098353
:1015D400058B09E798470583058B31CF9847173664
:1015E40000001306A6CB17350000130565CA09834E
:1015F400058B630307101841184331830D8B75EB7A
:10160400AC4B184E93F5050203471700CDCD79EF87
:1016140013077006D8CF0347060013671700173661
:101624000000230DE6C6114798C718415C57F19B8B
:1016340093E717005CD79C4298479316370163D60B
:1016440006029736000083C6E6DCC18A173700001D
:101654001307C7D4C5CE0347870713670702973616
:1016640000002389E6DA056798C79847931627018F
:1016740063D1060217370000034787C262076187F8
:1016840063570700054797360000238BE6C00967B8
:1016940098C798479316070163D606029736000049
:1016A40083C656D7858A17370000130727CFADCED8
:1016B400034797071367270097360000A38CE6D4E7
:1016C400216798C7828029D785456315B70013071A
:1016D400B00689B789456315B7001307F0061DBF27
:1016E4008D456315B700130730072DB7130750074F
:1016F40015B71307600739BF034736001367170090
:1017040017360000A30DE6B8094739BF834687079B
:101714000946BD8A6388C600034787078D463D8B0B
:10172400E313D7F4114725BF83469707918AC9DA93
:10173400034797071367870041B7397106DE16DC44
:101744001ADA1ED82AD62ED432D236D03ACE3ECC8D
:1017540042CA46C872C676C47AC27EC0F533F25015
:10176400E2525253C2533255A25512568256724710
:10177400E2475248C248324EA24E124F824F216174
:101784007300203097370000938707B39843856729
:10179400938707777CD397370000938727B79C43B9
:1017A40083A60709139656006358060083A6070903
:1017B40013966600634406007453FDF2828071C57B
:1017C400AA870145E9C58D07C207C183F19BC207FA
:1017D400C18313074003636FF70217370000130731
:1017E400A7BB084317370000130787BA144363984D
:1017F400A602173700001307278D185B014541CB5C
:101804004111C20706C60545DD8D0297B240014568
:1018140041018280173700001307C7B7D9B70357B0
:10182400650035E303574500636FF704B306F740DB
:101834002146637CD60203280500938687001D8F0A
:10184400AA966117173600000356E6822392E60033
:1018540023A006012393060014C12312F5001307E5
:1018640086FF973600002398E6802313B50097354A
:10187400000083D54580B387F54017270000231C5B
:10188400F77E2105828008419DB7014582808280D0
:101894000DC197370000938727B003A3070097373C
:1018A40000009387E7AE83A8070081469A8763E325
:1018B4001701828003A80700636DF50A636BA80A09
:1018C40013878700E367E5FE03D6670021670507F2
:1018D4006317E60003C7C1930507238EE19297259A
:1018E40000009385E57803D6470003D7650023936A
:1018F400070032974207418317250000231DE57630
:10190400638A6702173500001305C5A808416303FD
:10191400F50203D5660019ED83D7460023A006011E
:1019240021073E9621062392C600972700002394A0
:10193400E774B6879843E30E17F79736000093864B
:1019440066A59442E307D7F683566700BDF283D6B3
:101954004700035647001843A106B2962392D700C6
:1019640098C383D76500A107172700002315F770D4
:101974008280BE86C28725BF0327851163020712B2
:10198400411122C406C68347C5008345E5042A8461
:1019940093F7C70F2306F500834697000356C70045
:1019A40013958601618563F2C508635B05060345EB
:1019B400870093F6F607A304D700054693E62700AD
:1019C4006314C50093E617002306D4005C4389071B
:1019D4005CC3A30AB400032504112E864C430905F5
:1019E400EFE0FFFF8327841103465401D44303D758
:1019F400C700B296118FD4C32396E7008947A30D7D
:101A0400F400034764039727000083C7076D6378D6
:101A1400F7048347C40093E707012306F40081A079
:101A240093E717002306F4006DB79376F60F635D12
:101A3400050203458700854513E627006314B500B6
:101A440013E617002306C400A30AD400A304070066
:101A54008547A30DF400832784119C43DDF3B24032
:101A6400224401454101828093E717002306F400D4
:101A7400A30AD400A3040700032504114C43090559
:101A8400EFE0FFF58327841103465401D44303D7C1
:101A9400C700B296118FD4C32396E7008D4755BF74
:101AA4000545828097370000938707A29C43411124
:101AB40022C406C6858B2A84C5EF4165130525F526
:101AC40097F001E0E780401145C58347A500231541
:101AD400F50083270412BDE72320A4122322A412B5
:101AE40085472311F40423200500834764015441EE
:101AF4002316F5000347D4002304E5000547A30497
:101B0400E5001727000013076779184F138517029C
:101B140015811C437D151375F50F9CC25C43DCC213
:101B24001C479CC65C47DCC61C4B9CCA5C4BDCCA8D
:101B34001C4F9CCE5C4FDCCE19CD93860602130756
:101B44000702C1BF8327441288C383572404232276
:101B5400A412850779B79737000083D7A784850730
:101B6400173700002310F784B240224441018280D9
:101B74008347C40023090400054593C7470023068F
:101B8400F400DDB78347850193F7E70FD5EF83476B
:101B94009501DDEB034625018346C50009CA83454B
:101BA4006503172700000347575363E7E50013F75E
:101BB400060141CF014709C6C18A0357651C81C686
:101BC4008356A51C369751C31307C7121725000067
:101BD40003554554B335A70237460F004111130688
:101BE4000624814622C426C206C67D543305A702B4
:101BF400972002E0E780A00C9727000083C7574E88
:101C0400B384A700972700009387477903A7870920
:101C14008327070963F387003E84184375FB9727DE
:101C240000009387A7499C43829781476364A4007B
:101C3400B307A440B2402244B3B7970093C7170038
:101C440092443E854101828081473E858280972768
:101C540000009387676698437C53FDFF8280797107
:101C640026D206D622D44AD04ECE52CC56CA5AC810
:101C74005EC68347550303447513AA843E941374C4
:101C8400F40F9307400263F687001304B4FD137442
:101C9400F40F03AA841383AAC413A38B8412228689
:101CA4005285D685972002E0E780E0FB058915E59B
:101CB40003CBD41201498149337B6403930B500253
:101CC4004A865285D685972002E0E780C0F90589C7
:101CD40015C5639169031374F90F238B8412B250F1
:101CE400225492540259F249624AD24A424BB24BAC
:101CF400456182808509E20993D989410509E31187
:101D040079FDE1BF8327850903560504797193D6CC
:101D14000701BD8EC206C182358E13577640935794
:101D24005640898B058B5D8F93573640918B5D8F21
:101D340093571640A18B5D8F93171600C18B5D8F4F
:101D44009317360093F707025D8F93175600935548
:101D5400860093F707041E065D8F1376F60F518FE6
:101D640093D7554013D63540118A898BD18F13D61A
:101D74007540D18F13D61540218AD18F1396150043
:101D8400418AD18F1396350013760602D18F1396AC
:101D94005500137606049E05D18F93F5F50FCD8F6C
:101DA400A20745465D8F3307C70222D42A8426D270
:101DB40052CC56CA032A8413832AC4135AC806D69B
:101DC4003697420741839357774013555740098903
:101DD400858BC98F135537401189C98F1355174007
:101DE4002189C98F131517004189C98F131537002D
:101DF40013750502C98F1315570093558700137582
:101E040005041E07C98F1377F70FD98F13D53540F3
:101E140013D755401189098B498F13D57540498FC4
:101E240013D515402189498F139515004189498F90
:101E34001395350013750502498F139555001375D5
:101E440005049E05498F93F5F50F4D8F2207D98F11
:101E5400B387C7024AD04ECE5EC662C4B697C207E5
:101E6400C18313D7774013D557400989058B498F10
:101E740013D537401189498F13D517402189498FCC
:101E8400139517004189498F13953700137505027F
:101E9400498F1395570093D58700137505049E0742
:101EA400498F93F7F70FD98F13D5354013D7554082
:101EB4001189098B498F13D57540498F13D5154066
:101EC4002189498F139515004189498F1395350050
:101ED40013750502498F13955500137505049E0566
:101EE400498F93F5F50F4D8F2207D98FB387C7021A
:101EF400130650025285D685B697BD8E939406017B
:101F0400C18033F6C402137BF60F972002E0E7800A
:101F140080D505890DED8347D41201498149B384E5
:101F24009702130C5002C1804A865285D6859720A9
:101F340002E0E78040D30589937BF90F11C56386DE
:101F44003403850993F9F90F0509E31F89FD230B70
:101F54006413B250225492540259F249624AD24A4A
:101F6400424BB24B224C456182805E8BCDB7797176
:101F740022D406D683C735002E8423160100A30776
:101F8400F10083C74500100802C02307F10083C78E
:101F940055008A8502C2A306F10002C402C802CA1F
:101FA40002CC02CEEFE09FF00347F1018347040027
:101FB40001456310F7020347E1018347140001451B
:101FC4006319F7000345D101834724001D8D1335A0
:101FD4001500B250225445618280011197270000F8
:101FE4009387C73B22CC03A4870C26CA4AC84EC693
:101FF40006CEAA8413092500854915C083C7140099
:1020040003473400858B6304F700405CFDB7194631
:10201400930544004A85EFE09FA5E31835FF228528
:10202400F2406244D2444249B2490561828041117E
:10203400972700009387873622C403A4870C26C2FF
:102044004AC006C693042500054901E82285B2402A
:1020540022449244024941018280A6851305A402C8
:102064003937E30525FF405CCDB7411197270000C0
:102074009387C73222C403A4870C26C24AC006C66B
:1020840093042500054901E82285B2402244924484
:10209400024941018280A6851305A401C93DE305D7
:0820A40025FF405CCDB70000F0
:1020B00097110020938181DB17610020130181F4C7
:1020C0001305400097E5FF1F9385C5F31706002011
:1020D0001306C6FD63FAC5008322050023A0550040
:1020E00011059105E3EAC5FE178502001305C51F1A
:1020F00097050020938585FB1386818663FAC500CA
:102100008322050023A0550011059105E3EAC5FED1
:1021100013858186972500209385453C6377B5001C
:10212000232005001105E36DB5FEFD42739002BC4E
:102130008D4273904280930280087390023097E240
:10214000FF1F938222EC93E2320073905230971279
:102150000000938202BE73901234730020303D431E
:102160002A876373C3029377F700BDEFADE59376DB
:1021700006FF3D8ABA960CC34CC30CC74CC7410737
:10218000E36BD7FE11E28280B306C3408A06970252
:10219000000096966780A6002307B700A306B70045
:1021A0002306B700A305B7002305B700A304B700B3
:1021B0002304B700A303B7002303B700A302B700AB
:1021C0002302B700A301B7002301B700A300B700A3
:1021D0002300B700828093F5F50F93968500D58D87
:1021E00093960501D58D61B793962700970200005D
:1021F00096968682E78086FA9680C1171D8F3E9656
:10220000E374C3F8A5B7397152D409472A8A740018
:102210001306900E93056007170500201305C5E906
:1022200006DE22DC26DA4AD84ED656D25AD062CE04
:1022300066CC2316010023070100EF00702605E598
:1022400081451775020013056525EF40E22CF25019
:102250006254D2544259B259225A925A025B724C79
:10226000E24C216182800D4774001306A00893059B
:10227000600717050020130525E40354C100EF0093
:1022800030225DDD0D4774001306200293056007C0
:1022900017050020130545E2035BC100834AE100F6
:1022A000EF00102051DD0345C1008347D100131713
:1022B000C5009207D98F11815D8DEF30626D2A893B
:1022C0002285AE89EF30C26C977702009387071A98
:1022D0009043D4432A84AE844A85CE85EF20B2252C
:1022E00097770200938707199043D4432A8CAE8CCA
:1022F0002285A685EF2032242A86AE866285E68571
:10230000EF20F26E97770200938747179043D443EC
:102310002A8CAE8C4A85CE85EF20F2219777020079
:10232000938747169043D4432A89AE892285A68590
:10233000EF2072202A86AE864A85CE85EF20326B4A
:102340002A845A85AE84EF30A2642A86AE8622851E
:10235000A685EF20521E2A845685AE84EF30426354
:1023600097770200938787129043D443EF20B21CE3
:102370002A89AE896286E6866285E685EF20B21BF1
:102380002A86AE864A85CE85EF20F21A2A86AE8648
:102390002285A685EF10F24B9387818688C3CCC334
:1023A000977702009387070F9043D443EF20623D55
:1023B0002320AA002322BA0059BD1D712AC4154743
:1023C00034081306E008930560071705002013057D
:1023D000A5CE86CEA2CCA6CACAC8CEC6D2C4D6C204
:1023E000DAC05EDE62DC66DA6AD86ED6EF00500BC9
:1023F0001DE58145177502001305C504EF40C211A4
:10240000F6406644D6444649B649264A964A064BA3
:10241000F25B625CD25C425DB25D256182801947ED
:1024200034081306400993056007170500201305BB
:10243000A5C883598101835BA101034CC101EF0051
:10244000300645D98347C101154734081306C00932
:102450009305600717050020130505C6035B81017E
:10246000835CA101034AD1013EC2EF00700351D148
:102470000D4734087D4693056007170500201305B6
:10248000A5C3035D81010359A101834DC101EF0083
:10249000300125D1177702001307C7F310435443C7
:1024A000138781868347810108434C433EC6EF2052
:1024B000920817770200130767F210435443EF2086
:1024C00012532A845285AE84EF30824C1777020073
:1024D0001307C7F910435443EF20F2052A8AAE8A46
:1024E0002286A6862285A685EF20F2042A86AE865D
:1024F0005285D685EF2032042A8A6685AE8AEF306F
:1025000022492286A686EF2012032A86AE86EF1085
:1025100052345286D686EF10D233977602009386D5
:1025200066EC9042D442EF2012012A8A6285AE8A7C
:10253000EF3002462286A686EF20E27F2286A6861C
:10254000EF20627F97760200938646F39042D44252
:10255000EF20627E2A8C5E85AE8CEF30624322864D
:10256000A686EF20427D2A86AE866285E685EF103C
:10257000522E97760200938666E79042D442977B6C
:102580000200938B2BE7EF20027B03A60B0083A6B0
:102590004B00EF20427A97760200938626E690421F
:1025A000D442EF10122BB247834691012A8413952F
:1025B000C7009206C98E13D54700558DAE84EF3003
:1025C000223D977702009387E7E32A86AE86884309
:1025D000CC43EF20D2412A8C5A85AE8CEF30423B5F
:1025E00097770200938787E29043D443EF20A27449
:1025F0005286D686EF10F22597770200938787E1FF
:102600009043D443EF2022732A86AE866285E68506
:10261000EF20F23D97770200938747E09043D44341
:10262000EF2062712A8A4E85AE8AEF3062362286AA
:10263000A686EF2042702A86AE865285D685EF2088
:102640004214977702009387E7DD9043D4432A84AE
:10265000AE84EF20426E2A8A4A85AE8AEF3042333A
:102660002286A686EF20226D2286A686EF20A26C07
:1026700097770200938787DB9043D443EF20A26BC8
:102680002A896A85AE89EF30A23003A60B0083A6A3
:102690004B00EF20426A2286A686EF20C2692A8676
:1026A000AE864A85CE85EF10D21A2A89AE89528627
:1026B000D6865285D685EF2002685286D686EF20D0
:1026C00082672A8A6E85AE8AEF30822C17770200E5
:1026D0001307C7D910435443EF20E2652A86AE861C
:1026E0005285D685EF2022652A86AE864A85CE851C
:1026F000EF1032162A891245AE89EF30622997779A
:102700000200938727D39043D443EF20C2622A86E6
:10271000AE864A85CE85EF10D21397770200938755
:10272000E7D19043D443EF2002612286A686EF10C2
:102730005212A24788C3CCC3E1B179710547930611
:1027400071001306000D930560071705002013059F
:10275000A59606D622D4A92301ED1775020013050C
:10276000A5ACEF30726D0545B250225445618280B0
:1027700003477100930710066307F70017750200FF
:10278000130585ACF9BF05449307400505473400A0
:102790001306200793056007170500201305C59150
:1027A00023048100A304F100052111E5177502003F
:1027B000130505AB7DB7054597E0FF1FE78020DCDB
:1027C0000547930691001306400793056007170518
:1027D00000201305658ECD2E11E517750200130537
:1027E00065AA41B7954705479306A1001306500710
:1027F00093056007170500201305058C2305F100DC
:10280000E12611E517750200130545AA99BF930744
:10281000900505479306B10013064006930560072F
:102820001705002013054589A305F100712E11E558
:10283000177502001305C5A92DB7930700050547B5
:1028400074001306A0059305600717050020130503
:10285000A5862306F1008D2E11E5177502001305DC
:1028600065A901B79307000205479306D100130637
:10287000100793056007170500201305E583A306DD
:10288000F100992611E5177502001305E5A8D1BDE1
:1028900005479306E10013064007930560071705F7
:1028A00000201305658123078100392E11E5177576
:1028B00002001305A5A875B51305400697E0FF1F94
:1028C000E780E0CB05479306F10075469305600766
:1028D00017F5FF1F1305457EE12611E51775020068
:1028E0001305C5A7BDBD8307F100177502001305C9
:1028F00025A9E3D807E60808EFF0FF902808753C03
:102900004246D24617750200130505A9EF30D240A2
:102910006246F246177502001305C5A9EF30D23F93
:10292000014599B58347050081EF371700405C41A9
:102930008326070A93C7F7FFF58F2320F70A8280C3
:102940000547639CE700371700405C418326070C6E
:1029500093C7F7FFF58F2320F70C8280834705008C
:1029600091EB371700408327070A5441D58F232066
:10297000F70A82800547639AE700371700408327EC
:10298000070C5441D58F2320F70C82808347150014
:1029900081EF371700401C458326070A93C7F7FFCE
:1029A000F58F2320F70A82800547639CE7003717DD
:1029B00000401C458326070C93C7F7FFF58F2320A3
:1029C000F70C8280411122C406C6834705002A8481
:1029D00085E748418545EF10E057371700408327CA
:1029E000C70A5440D58F2326F70A2285253F228522
:1029F0002244B240410159BF0547E398E7FE4841F0
:102A00008545EF10805F371700408327C70C54407F
:102A1000D58F2326F70CD1BF8347150091EB3717CD
:102A200000408327070A1445D58F2320F70A8280A8
:102A30000547639AE700371700408327070C1445C2
:102A4000D58F2320F70C82800347150019EBB717A9
:102A5000004083A7470A0845E98FB337F0003E8559
:102A6000828085468147E31CD7FEB717004083A7C5
:102A7000470CD5B7794517E3FF1F670063AF4111D6
:102A800006C622C42A841937F5372285613DDD3711
:102A900022855D3F11E50145B2402244410182801B
:102AA00022859D3FC13F2285453775F522857D35BD
:102AB000D1370545D5B7411122C426C24AC006C642
:102AC0002A89AE842144593D93978401E1874A8540
:102AD00063D60702653D4A85B1357D14613F4A855D
:102AE00086041374F40F9D3D93F4F40F613769FC71
:102AF000B24022449244024941018280313FE1BF09
:102B0000411106C622C426C22A8449352285193DB0
:102B10009304803E85372285053F19C9FD14C20400
:102B2000C180F5F81775020013058599EF30D21EA4
:102B30002285193F19CD2285153517750200130519
:102B40006599EF30721D0145B24022449244410123
:102B500082800D3722851935313F0545F5B7411182
:102B600006C622C426C24AC0A1442A890144393D6E
:102B700011374A85E533FD3D4A856D3306044A85A4
:102B80001374F40FD13519C113641400FD1493F4B8
:102B9000F40FCD35F9FC2285B2402244924402491B
:102BA00041018280411106C622C42A84453BD935A1
:102BB00022859D35C1352285B5336D3D2285F9339A
:102BC0002244B24041017DB5797106D622D44AD063
:102BD0002A844ECE52CCBA89328A56CA2EC6B68ABA
:102BE00026D2713DB24522850149860593F5E50F50
:102BF000D935228531373DE5AA84177502001305C2
:102C0000258EEF3072112285713FB25022542685F5
:102C100002599254F249624AD24A45618280D29561
:102C200093F5F50F2285413D2285D93DAA8411E512
:102C3000177502001305058BE9B7B3872A0183C511
:102C4000070022858D3D2285653DAA8493071900E2
:102C500009E9CA851775020013050589EF30D20B03
:102C60005DB73E899375F90FE31B39FB22851D3F44
:102C7000854461BF011122CC2EC62A8406CEF939C3
:102C8000B245228581ED1933F53322856139DD3373
:102C90002285E9316244F2400561E9BBB53BEDB7FD
:102CA000797126D2AE8432C606D622D44AD02A847E
:102CB0003A894ECE52CCB6898604D13393F5E40FCF
:102CC0002285D53B22852D3D324601ED2285D93D19
:102CD0000145B250225492540259F249624A456168
:102CE00082802285B285C13B2285193D65D122852E
:102CF000793393E51400228593F5F50F6D3B22851A
:102D0000013569D58144130AF9FF6394240105450F
:102D1000C9B72285A935B38799002380A7008545C7
:102D200063C3440181452285B1378504F9BF411150
:102D3000054506C622C4EF10A0361305800497D0BF
:102D4000FF1FE7808037371400408327840A8545BA
:102D50001305001093E707202324F40AEF10801FC7
:102D60008D4513050020EF10E01EEF1020570D4594
:102D7000EF10E05995450545EF10005BB7E700E01F
:102D80003707000823A0E710EF107038EF109049C4
:102D9000EF80D11A5D2917F5FF1F130525311D316D
:102DA00017F5FF1F1305453131399145130500080B
:102DB000EF10A0248327C40C05651305853893E71D
:102DC00007082326F40C97D0FF1FE780407BEFF025
:102DD000DF9601A02A86B305B040176502001305EF
:102DE000A57E6F306273011106CE19C58947630154
:102DF000F502F24005618280680097E0FF1FE780DE
:102E000040BE1775020013052589EF30F202D5B7D1
:102E1000680097E0FF1FE780C0BC1775020013052C
:102E20006589E5B783D7C1876390A702239FB186E1
:102E30002390C1882391D1882E861765020013053F
:102E4000A576BE856F30426D176502001305457784
:102E50006F30827E03574500011106CE83D7C187AC
:102E6000631FF702C167F917894503C5818023AE47
:102E7000F18623A00188EF206043914503C581803E
:102E8000EF20C04285471306F100854513055030F9
:102E9000A307F100EF80E155F240056182801765DC
:102EA00002001305E571EF302279FDB73D897D15EC
:102EB000954763E4A71617670200130767630A05BF
:102EC0003A951C41411122C406C6BA972E848287C6
:102ED000176502001305C5702244B24041016F30EE
:102EE000A27583C7250019476391E7022E859D3798
:102EF00083456400176502001305856FEF30C261DA
:102F00001765020013058570C1BF0D47E38AE7FE10
:102F1000B24022444101828003C725009547E3194E
:102F2000F7FEC16703D7C187F91703D5A500630F63
:102F3000F700EF80217E176502001305256EEF3044
:102F4000A26F176502001305E56F79B7239EA1866E
:102F500083D7E5001306001903C58180239FF186FE
:102F600083D705012390F18883D7250189452391D3
:102F7000F188DD47A389F180EF200011096613066F
:102F80000690A14503C58180EF2000100566130659
:102F900006C8914503C58180EF20000F0356E40069
:102FA0008355A4001765020013058568EF30C256EB
:102FB00049BF03C725008D47176502001305456902
:102FC000E318F7F411BF83C5250091476397F50017
:102FD000176502001305456901B79947639FF5001E
:102FE00022858D3D83456400176502001305456009
:102FF0002244B24041016F3022529547639AF50056
:1030000083471400F1F7176502001305A567E9B5BA
:103010001765020013058567E1BF82807971939778
:10302000050126D206D622D4C187AE8463D2070A10
:1030300003C58180EF1010392A8421C98347050018
:103040001307000B6385E7061307000D639CE70277
:103050008347250045476381E70465476394E7029A
:103060000348A50083479500034785008346750004
:103070000346650083455500176502001305C548E2
:10308000EF3082492285EF10D02C2165258DB2507A
:103090002254925445618280034665008345750041
:1030A0001765020013054549EF300247E1BF0347AA
:1030B00045009307F007E317F7FC83558500176574
:1030C000020013052549A389B180EF30E2445DBFBA
:1030D00093F7150085C317F6FF1F1306A6FE971575
:1030E00000209385E5F103C58180EF70D17C13C585
:1030F000140071BF93F72500638E070C13060019A7
:10310000894503C58180EF10307883C741888507E2
:1031100093F7F70F2382F1881547B3F7E70202C64A
:1031200002C802CA02CC02CE09476387E7040D47F2
:10313000638BE7040547639DE70017F6FF1F0356FF
:10314000E65297650200938525426800EF30824F72
:103150008347C10099CF6800EF30225383C7318184
:10316000F9176349F502176502001305A541EF3011
:10317000A24C13C5240021BF03D621879765020006
:103180009385453FD9B703D601879765020093859C
:10319000E53E65BF13160501418201478146ED45B5
:1031A00003D5C1872313C100EF70A01C2AC471D1BD
:1031B000035661006C0097E0FF1FE78080824C009F
:1031C00003D5C187EF10605B4DD5ED454800EF702A
:1031D000003245B793F7850085C383C78180130705
:1031E0004006814613064006994503D5C187EF7016
:1031F000F16513C5840061BD93F705019DC30147C7
:1032000089460946814503D5C187EF80E152AA85E9
:103210001765020013050538EF30023013C50401AD
:10322000BDB593F745000145E38307E603D5C187A4
:10323000EF80014E0566130606C8914503C58180DF
:10324000EF10906413C5440099B53971170500005B
:10325000130505DD06DE22DC26DAEF202039938413
:103260008180994705442380A400231AF1001008A7
:1032700093074006854513055030231EF1002308AF
:103280008100EF80011717F6FF1F1306E6E5C5451D
:1032900013057030EF80E1151386C1809D4513053D
:1032A0006030EF8001155008894513051031EF801B
:1032B00041147008894513052031EF80811393056F
:1032C00000050D45EF40A017930500051145EF409F
:1032D000001785457945EF40801670089145130524
:1032E000704023048100230681002308810002CE60
:1032F000230A0100EF609158300085451305004016
:10330000EF60D1577000854513051040EF601157ED
:103310005008854513052040EF605156100885453B
:1033200013055040EF6091557D55EF60D04C7D55B1
:10333000EF90C014EF10401B7D55EF10003617F6CC
:10334000FF1F1306E6D8D5450145EF607039894760
:103350002306F1008D472308F10002CE9147230E8A
:10336000F10093870186984383C747003000854565
:1033700001453ACA230CF1002304810002D002D295
:1033800002D402D6EF100037700085450545EF10D6
:103390006036100885450945EF10C0357008D145E5
:1033A0000D45EF102035500895451145EF1080343C
:1033B000C1671387C187F9171CC323220700138530
:1033C0004180EF10403213854187EF50112303C530
:1033D00004008545EF101033F2506254D25421613D
:1033E0008280B717004003C777051377E70FA38BD9
:1033F000E704130700F8A38DE7043D47238CE70497
:1034000013075003A38CE7048280B717004083C7DB
:10341000E7020D8993F7C70FC98F73270080218BAF
:103420009386818809CB7327008023A4E188984282
:103430005D9B7310078001000100371700401306E1
:1034400070052300C704130680FA2300C704010097
:1034500001002307F70223000704732700809C4222
:10346000A18BD98F7390078023A4018801000100EC
:10347000828041112A83014E930E407E130F001962
:10348000930F400663E66E14930800191303400679
:10349000B3781503854E0D4FA14F337365020D8927
:1034A0001335150063E0BE161308F6FF79467298CF
:1034B0004208135808013307C70213D61700BE0786
:1034C00032976146B3F6C60213068070B386C60211
:1034D0003697A166F58F42075D8FB716004083C708
:1034E000F60293F70708A307F1000346F10083C72C
:1034F000F60293F70708E394C7FE8347F100B71677
:10350000004093F7F70F63890714F3270080A18B1E
:10351000938681886398071401000100B717004063
:10352000130670052380C704130680FA2380C7049E
:103530000100010023AA070303C617031366060848
:10354000A388C70223800704732600809C42A18BB6
:10355000D18F7390078023A40188010001001166B8
:10356000B71500407D16DC59C85DA98FF18FE5FFC6
:10357000F3270080A18B89CBF327008023A4F18857
:103580009C42DD9B7390078001000100B71700404B
:10359000130670052380C704130680FA2380C7042E
:1035A00001000100D8DB03C7170313670704A388D2
:1035B000E70223800704732700809C42A18BD98FE8
:1035C0007390078023A401880100010041018280DB
:1035D0007D133368E3039308E016630E0800336835
:1035E000F3039308D016630808009378330093B868
:1035F00018009388D81633081E01131E0801135EA5
:103600000E0149B56393E503054863860800014848
:10361000630303002A8871087298FD15131E0801C0
:10362000C205135E0E01C181B5BD13F8150063F428
:10363000BF007908D5B713381800E5BF83C7F60275
:1036400093F70708A307F1000346F10083C7F602CA
:1036500093F70708E394C7FE8347F10093F7F70F4A
:10366000F1DF65B5F327008023A4F1889C42DD9B40
:103670007390078055B55971E2C486D6A2D4A6D2FC
:10368000CAD0CECED2CCD6CADAC8DEC6E6C2EAC02E
:103690006EDE2A8C02D6EF007034F3270080A18BF7
:1036A000138D818891CBF327008023A4F188832791
:1036B0000D00DD9B7390078001000100B7170040EB
:1036C000130770052380E704130780FA2380E704BB
:1036D0000100010003C7F7021377770FA387E70202
:1036E00003C7F70213678700A387E7022380070455
:1036F0007327008083270D00A18BD98F73900780DB
:1037000023A4018801000100F3270080A18B91CB45
:10371000F327008023A4F18883270D00DD9B73909D
:10372000078001000100B7170040130770052380D0
:10373000E704130780FA2380E7040100010003C7B0
:10374000E7021377C70F2387E70203C7E702136770
:1037500017002387E702238007047327008083274D
:103760000D00A18BD98F7390078023A401880100DD
:103770000100130780C13347E5029169938709E887
:10378000130650023D69B7440F0093840424856BEF
:10379000130BA004014A814A13047005FD19B347B5
:1037A000F5023307C7023EC2930709A61309803EFC
:1037B0003347F7023AC433472503054933198901D2
:1037C000135939403345950293840BFAB39484011D
:1037D000811B3306C702B346F6023309E90236C637
:1037E000330B670313076055B304950213050010EC
:1037F0003309E902B346FB02130B80FAB3C4A402F7
:1038000036C8B347F902939634003719004036CCD6
:10381000930409043ECA73260080218A11CA7326C4
:10382000008023A4C18803260D005D9A73100680D2
:1038300001000100930770052380F40023806401D8
:1038400001000100034639051376860FA309C90458
:103850000346390513661600A309C9042380040032
:103860007325008003260D00218A498E731006807F
:1038700023A4018801000100916CE17D7326008082
:10388000218A11CA7326008023A4C18803260D0053
:103890005D9A731006800100010093077005238074
:1038A000F40023806401010001000346390513661A
:1038B0000602A309C90403560905336696012318B5
:1038C000C904035609053366B6014206418223182E
:1038D000C904238004007325008003260D00218A7B
:1038E000498E7310068023A401880100010003465D
:1038F0003905137606026307061603463905218A41
:103900006DDE6810EF00B01173260080218A11CAA5
:103910007326008023A4C18803260D005D9A7310CE
:1039200006800100010023808400238064010100DF
:103930000100034639051376F60DA309C9040346B1
:10394000390513660602A309C9040356090533663F
:1039500096012318C904035609053366B6014206C9
:1039600041822318C90423800400732500800326A4
:103970000D00218A498E7310068023A4018801005E
:103980000100034639051376060263090610034653
:103990003905218A6DFE97C0FF1FE78080702A8657
:1039A00032CE97C0FF1FE780C06F7246E30AC5FEA4
:1039B000035609053255336696012318C904EF00F2
:1039C000D00703463905218A6DDE035509050346F4
:1039D0002905924733F5A9003386C90232951D8D1A
:1039E000A24763D5A700B2476346F50E0946636553
:1039F000560FC247850A1316150093FAFA0F33467D
:103A0000F6026354A03A050609453346A60273251B
:103A10000080218911C97325008023A4A188032572
:103A20000D005D9973100580010001002380840062
:103A300023806401010001000355C9022A96420651
:103A400041822316C90223800400732500800326C7
:103A50000D00218A498E7310068023A4018801007D
:103A6000010029BD73260080218A11CA73260080B7
:103A700023A4C18803260D005D9A731006800100FF
:103A800001002380840023806401010001000346BB
:103A9000390513660602A309C90425BD73260080F3
:103AA000218A11CA7326008023A4C18803260D0031
:103AB0005D9A73100680010001002380840023803A
:103AC0006401010001000346390513660602A309DB
:103AD000C90451BDE38F0AF073260080218A11CA00
:103AE0007326008023A4C18803260D005D9A7310FD
:103AF000068001000100238084002380640101000E
:103B00000100034639051375FC0F1376860FA309D0
:103B1000C90403463905498EA309C904238004005A
:103B20007328008003260D00218A33660601731076
:103B3000068023A4018801000100034639051D8A7F
:103B40006317862773260080218A11CA7326008096
:103B500023A4C18803260D005D9A7310068001001E
:103B600001002380840023806401010001000346DA
:103B7000390511651376F60DA309C9040346390505
:103B800013660602A309C90403560905498E2318C2
:103B9000C904035609052165498E2318C9042380E9
:103BA00004007325008003260D00218A498E7310BE
:103BB000068023A40188010001000346390513761D
:103BC0000602630E062003463905218A6DDE681061
:103BD000B92573260080218A11CA7326008023A488
:103BE000C18803260D005D9A731006800100010054
:103BF000238084002380640101000100034639050D
:103C000011651376F60DA309C90403463905136639
:103C10000602A309C90403560905498E2318C904DD
:103C2000035609052165498E2318C9042380040021
:103C30007325008003260D00218A498E73100680AB
:103C400023A401880100010003463905137606020A
:103C50006303061C03463905218A6DFE97C0FF1FCA
:103C6000E7802044AA8C97C0FF1FE7808043E30CC5
:103C700095FF035609051165498E32552318C9046D
:103C80006D2B03463905218A6DDE73260080218A5B
:103C90001385818809CA7326008023A4C188104136
:103CA0005D9A731006800100010023808400238048
:103CB000640101000100034639051376F60DA309DE
:103CC000C90423800400732800801041218A3366D0
:103CD00006017310068023A4018801000100035827
:103CE000090503462905E24733F809013386C9026D
:103CF00032983308F8401306800C3306C802D247C6
:103D00003346F60263550015050609483346060397
:103D10006351C0140358C9029308F00F1358580098
:103D2000329863D6081F094663734619F32700804B
:103D3000A18B89CBF327008023A4F1881C41DD9B54
:103D4000739007800100010037170040930770054A
:103D50002300F704930780FA2300F7040100010011
:103D60008356C70289678117D58FC207C18323167F
:103D7000F70223000704732700801C41A18BD98F11
:103D80007390078023A4018801000100B6502654D7
:103D900096540659F649664AD64A464BB64B264CC7
:103DA000964C064DF25D656182807D16B1B9732631
:103DB0000080218A11CA7326008023A4C1880326AB
:103DC0000D005D9A731006800100010023808400BD
:103DD0002380640101000100034639052DBB7326D1
:103DE0000080218A11CA7326008023A4C18803267B
:103DF0000D005D9A7310068001000100238084008D
:103E000023806401010001000346390513660602A0
:103E1000A309C90469B373260080218A11CA7326D5
:103E2000008023A4C18803260D005D9A73100680CC
:103E3000010001002380840023806401010001004F
:103E40000346390513660602A309C904C5B37D16E6
:103E50006DBD55CE0358C902B308C0401358580071
:103E60006357180B094663744605F3270080A18B3E
:103E700089CBF327008023A4F1881C41DD9B73903C
:103E8000078001000100B717004013077005238069
:103E9000E704130780FA2380E7040100010003D739
:103EA000C7027D8B2396E70223800704E9B57326BA
:103EB0000080218A09CA7326008023A4C18810418A
:103EC0005D9A731006800100010023808400238026
:103ED0006401010001000356C9021376F60F336630
:103EE0007601420641822316C9022380040073280A
:103EF00000801041218A336606017310068023A4D6
:103F0000018801000100050A137AFA0F29B2F3278C
:103F10000080A18B89CBF327008023A4F1881C416A
:103F2000DD9B7390078001000100B7170040130765
:103F300070052380E704130780FA2380E70401005B
:103F4000010003D7C70216063A964206418223961D
:103F5000C70299BF914763EEB702175702001307D4
:103F600027778A05BA959C41BA978287B717004090
:103F700003A7470B1345F5FF698F23AAE70A03A799
:103F8000070B698F23A8E70A03A7070A798D23A0E7
:103F9000A70A8280B717004083A6470B1347F5FF97
:103FA000F98E23AAD70A83A6070B558D23A8A70A43
:103FB00083A6070A758F23A0E70A8280B7170040FF
:103FC00003A7470B498F23AAE70A03A7070B13454B
:103FD000F5FF45BFB717004083A6470B1347F5FF12
:103FE000758F23AAE70A03A7070A598D4DB7B7179C
:103FF000004003A7470B498FEDB7914763EEB70227
:10400000175702001307076E8A05BA959C41BA97A5
:104010008287B717004003A7470D1345F5FF698F47
:1040200023AAE70C03A7070D698F23A8E70C03A7B2
:10403000070C798D23A0A70C8280B717004083A6B8
:10404000470D1347F5FFF98E23AAD70C83A6070D5A
:10405000558D23A8A70C83A6070C758F23A0E70C0A
:104060008280B717004003A7470D498F23AAE70CAA
:1040700003A7070D1345F5FF45BFB717004083A6FB
:10408000470D1347F5FF758F23AAE70C03A7070C0D
:10409000598D4DB7B717004003A7470D498FEDB7AE
:1040A000411122C43717004006C683472702035731
:1040B00007021384818893F7F70F4207418325E9AC
:1040C0001377F79F420793F7F7074183F3260080A2
:1040D000A18A89CAF326008023A4D1881440DD9ADE
:1040E0007390068001000100B716004013067005AA
:1040F0002380C604130680FA2380C6040100010051
:1041000093F7F70F2381F6022390E602238006043B
:10411000732700801C40A18BD98F7390078023A444
:10412000018801000100B24022444101828093E7EE
:10413000070813670740F3260080A18A89CAF3267F
:10414000008023A4D1881440DD9A7390068001007A
:104150000100B7160040130670052380C60413063D
:1041600080FA2380C604010001002381F602239017
:10417000E60223800604732700801C40A18BD98FA0
:104180007390078023A4018801000100294597C08E
:10419000FF1FE780E03DF3270080A18B89CBF32749
:1041A000008023A4F1881C40DD9B739007800100F0
:1041B0000100B7170040130770052380E7041307B9
:1041C00080FA2380E7040100010003D70702136788
:1041D00007202390E702238007041DBFB717004084
:1041E00003D58700420541819377050491EB9377CE
:1041F000F5013755E801130505803345F502828046
:104200009377050C130700046397E7009377F50194
:1042100037459C1CCDB72165130505D0828037E753
:1042200000E01C435443A183E206D58F1CC1FD5717
:104230002320F7182322F718828013178500B7E789
:1042400000E023A0E710618123A2A7108280B7F7C6
:1042500000E08847CC478280814737370040A1463D
:1042600063C4C700328582800345B740E38EA6FE53
:104270003385F5000345050085072304A740CDB726
:10428000938741819C4317070020130727253E95FC
:10429000636CE500174700201307C7B66366A700E5
:1042A00023AAA1803E858280FD57EDBF411122C423
:1042B00006C62A8425372947B307E502B2408D8315
:1042C000B3D7870222449507B3D7E70237370040B8
:1042D000C207C1832316F7404101828071654111F5
:1042E0001305052006C6D937B7370040130770F805
:1042F0002381E7400D47A381E74013070004A38013
:10430000E74005472387E740B240410182803737C5
:104310000040834727401A0593F7F703C98F93F7A7
:10432000F70F2301F7408280B737004003C71740DB
:1043300019C9D98DA380B74003C707401367870009
:104340002380E740828093C5F5FFF98DA380B740B5
:104350008280CC41411106C6328503C6150083C553
:10436000050022064D8E42068D654186138875A292
:10437000630C060F6348C804138845A26306060B46
:10438000634AC800938535A26309B60623900600E8
:10439000294679A0138855A26308060B938565A268
:1043A000E316B6FEC1451D4663ECE5064546198E8B
:1043B00063F3C7003E862390C6009755020093859D
:1043C000A53489A8138895A26300060F634E060BD7
:1043D0001388A5A2630A060F938505A5E318B6FA0C
:1043E00099451D4663EEE502198E63F3C7003E86CC
:1043F0002390C6009385018231A89D451D4663E147
:10440000E5022146198E63F3C7003E862390C6005D
:104410009385C188BA9597C0FF1FE780805C0146ED
:10442000B240328541018280AD451D46E3EAE5FE9A
:104430003146198E63F3C7003E862390C600975518
:10444000020093852530F9B7B1451D46E3EAE5FC46
:104450003546198E63F3C7003E862390C6009755F4
:1044600002009385252F7DB7C1451D46E3EAE5FA95
:104470004546198E63F3C7003E862390C6009755C4
:1044800002009385A52979B7C1451D46E3EAE5F801
:104490004546198E63F3C7003E862390C6009755A4
:1044A00002009385252CBDB7C1451D46E3EAE5F61C
:1044B0004546198E63F3C7003E862390C600975584
:1044C00002009385E526B9B7B5451D46E3EAE5F454
:1044D0003946198E63F3C7003E862390C600975570
:1044E0000200938565213DB797E6FF1F938606D4AA
:1044F0004146CD4517E5FF1F130545C06F7050704D
:104500002D4549E703C505000947631DE5063285CA
:10451000D041411106C60347160003460600416814
:104520002207518F130628FE6308C7026369E6005D
:104530000518630307032390060029451DA81306E9
:1045400048FE630BC7021518E31707FF15473E86A1
:104550006377F700154621A03E8691C30546CC45FA
:104560002390C6004206418297C0FF1FE780604744
:104570000145B2404101828051473E86E371F7FE1A
:104580005146F1BF2390060005458280828083C793
:10459000850093F70702E1E3411106C622C426C253
:1045A0004AC003C9050009432E888547631B690279
:1045B00003A345003284B6848347130003430300FA
:1045C000A207B3E767004163130E13FE6382C703BC
:1045D0000D13638B67040D68130828906385070724
:1045E000A947B2402244924402493E85410182805B
:1045F000AD4765FB0547B547E365D7FE0325C80012
:104600000546A28597C0FF1FE780A03D014993871B
:10461000C18A9843814771D7184361D72686A285FE
:104620004A850297814775BFAD4745FF0547B547A6
:10463000E369D7FA0325C8000546A28597C0FF1F86
:10464000E780203AE9B72244B240924402498547C4
:1046500041016F60E01CA1473E8582804167791768
:10466000630CE502411122C406C685472A84639A79
:10467000F50022852244B2409385018A41016F7082
:10468000106389476396F5008545EFA0001E75D13C
:10469000B2402244410182808280411122C42A8496
:1046A00041659385018A7D1506C6EF705060170538
:1046B00000001305E5FA0588EFA0601205C022444A
:1046C000B24097E6FF1F938626C84146C54517E5C9
:1046D000FF1F130565B641016F709052B24022442E
:1046E00001454101828009C523A6A18A0145828036
:1046F0004545828011476360A7089756020093865C
:10470000A6070A0536951841411106C63697AE87A9
:10471000B285028705476145639AE7000546138520
:10472000418997C0FF1FE780C02B0145B24041017E
:10473000828005476145E39BE7FE05461385818935
:10474000CDB705476145E393E7FE05461385C1896B
:10475000C9BF51476145E39BE7FC5146170500205F
:104760001305C58A7DBF15476145E391E7FC1546F2
:104770001385418A7DB709458280411122C42E8468
:104780009385018A26C206C6AA84EF6020040589A3
:1047900015C197E7FF1F938727AA83D7A70BA28589
:1047A000B2402310F4002244268592440146410180
:1047B0006F60B05EB240224492444945410182801C
:1047C00011456FE05FEB411193962500AA852D45B9
:1047D00006C697C0FF1FE78020EAB24001454101AD
:1047E0008280411126C29394250022C44AC02A84A3
:1047F0003289A686AA850146254506C697C0FF1FB1
:10480000E78080E7A6864A86A285294597C0FF1FD4
:10481000E78080E6B24022449244024901454101CA
:104820008280011122CC06CE3714004026CA4AC825
:104830004EC652C483447405034AB40583498405B3
:1048400003499405EFE0FFB98347A40593F4F40FFF
:10485000137AFA0F93E71700230DF40493F9F90F75
:104860001379F90FB717004003C7A705058B6DFF34
:1048700003D5C705A38D4705238C3705A38C2705D2
:10488000A38B9704F2406244D2444249B249224A7F
:104890000561828041119397050122C406C6C18734
:1048A0002E8463DB0700392E11C165242165218D1B
:1048B000B24022444101828093F7150013C51500D0
:1048C000E5FB9397250163D00702EF003178CD3DDA
:1048D00037F60200130606E0896503C5018BEF0079
:1048E000A07A0965E9B7939715010145E3D207FC62
:1048F00017550200130505EEEF101254130600645D
:10490000916503C5018BEF00207811654DB75D718E
:10491000494697550200938565E717550200130530
:10492000E50F86C697C0FF1FE780A01401E9175561
:1049300002001305E5E6EF10325001A0B7F600E0E3
:10494000795798CAFD57DCCA0567B7E700E023A08E
:10495000E7101306F00290C223A0E718010001003F
:104960001306C0038145480097C0FF1FE780E00A97
:1049700097E7FF1F9387C7E83EC289679387078041
:104980002314F100B547230CF100A167938707E0DA
:104990003EC6B7070105938707103EC8ED47231AA7
:1049A000F1008547230BF100970700009387E7E1AB
:1049B0003EDC97070000938707E33EDE8567938719
:1049C00017D0231DF10097070000938787883ED2F8
:1049D00097070000938727E53ED697070000938747
:1049E00067DE3ED85800976702009387A7869766D0
:1049F00002009386C68503C65700FD170507A30C62
:104A0000C700E39AD7FE4800EF001042AA8501C90B
:104A100017550200130505DAEF10123001A0B64059
:104A2000616182804111170500001305E5E606C6A5
:104A300022C4EF00B03B1384018B2300A400112893
:104A4000034504002244B240130600328965410147
:104A500025AD411106C6F3270080A18B13878188FD
:104A600089CBF327008023A4F1881C43DD9B73903E
:104A7000078001000100B7170040930670052380EE
:104A8000D704930680FA2380D7040100010083C66F
:104A9000F70293F6A60FA387D70223800704F32615
:104AA00000801C43A18BD58F7390078023A40188BD
:104AB00001000100F3270080A18B89CBF327008040
:104AC00023A4F1881C43DD9B739007800100010043
:104AD000B7170040930670052380D704930680FA29
:104AE0002380D7040100010083C6F70293E6260065
:104AF000A387D70223800704F32600801C43A18BE1
:104B0000D58F7390078023A401880100010005451B
:104B1000EFE0BF8FEFF0DFCA1305407E814701470A
:104B2000814605468545EFE0DF94B24001454101ED
:104B30006F00506423AC05FE1C4191E701000100A9
:104B40000CC18280BA8703A787FF6DFF23ACB7FE35
:104B500082801DC18346E5FF1307F00F9147639ED6
:104B6000E600411106C697D0FF1FE780A0D2B240F1
:104B700081473E854101828095473E85828001E9DB
:104B8000014582800145B240224441018280956501
:104B90004111938505D022C4C98D2A842105C205FF
:104BA0004205C181418106C697D0FF1FE78060C1E1
:104BB00071D9FD5723200500231285002303F5003A
:104BC0002105D1B717F7FF1F1307474A1C434111AF
:104BD00022C426C24AC006C601440149BA8489E7F4
:104BE000A165E9251DC401A803C7E7FF631AA70251
:104BF0000DCCA165012E9840832784FF6319E40240
:104C000017F7FF1F2324F746FD57232C04FE230F1D
:104C1000F4FE2285B240224492440249410182803E
:104C200011E03E8983A787FF5DBF3E84E5BF232C4B
:104C3000F9FED9BFB1CD411122C406C62A8497F727
:104C4000FF1F83C7F7422E856375F400894763E829
:104C5000870001370D45B24022444101828083A77D
:104C600085FF99E703C7E5FF9307F00F6305F7009A
:104C7000CD351545CDB7238F85FE17F5FF1F1305DD
:104C8000E53E4D3D22852244B240A16541019DACE7
:104C90001545828097F7FF1F23AA073C828097F76C
:104CA000FF1F938727429C4399E33E85828003D769
:104CB00027006316B70003C70700E308A7FEDC4719
:104CC000E5B7C9C1797122D406D626D24AD04ECED4
:104CD00001444147B3D78540858BA5C312053147B1
:104CE00022953305E50297F7FF1F9387A74103A994
:104CF00007008544B3948400C204C180BE892A9908
:104D00000327090011C7032549002EC60297B245A3
:104D100031473304E40283A709003E941C4489E729
:104D20002320090023220900B2502254A58D0259E4
:104D30009254F2492E85456182800504E31CE4F813
:104D40008144DDB72E85828041111397050122C46D
:104D500006C626C24AC041872E84635E07009D3581
:104D600011C1C53BA1673D8C2285B24022449244CB
:104D7000024941018280EDD9AA8701474146B356D5
:104D8000E440858A8DCE9207BA97B146B387D702A1
:104D900097F6FF1F9386063703A906008544B39450
:104DA000E400C204C1803E9983270900032549001D
:104DB00082972320090023220900258C75B7050757
:104DC000E31FC7FA8144D5BF97F7FF1F9387C72F0B
:104DD0009C53411122C406C61384018399C782974C
:104DE0001C403E9523A8A18239A097F7FF1F938707
:104DF000E72C9C43EDF70840B74703009387D73F64
:104E00003305F502B7A72600938737ECB24022445A
:104E10003E9523A8A182410182807DC197F7FF1FA3
:104E20009387C7299C43797122D426D24AD04ECE8B
:104E300052CC56CA5AC806D65EC63A8AB689328B52
:104E4000AE8A2A89829797F7FF1F9387A72B9843EB
:104E5000BE840144B146C147B30BD4023306770187
:104E6000104251EAC165938505F0414597D0FF1F77
:104E7000E78020951DE597F7FF1F9387E7249C5B4C
:104E80002D4589C71145814582972D45B250225441
:104E900092540259F249624AD24A424BB24B45619E
:104EA000828097F7FF1F9387E721984329E397F7BD
:104EB000FF1F23A9A720230005009C4005473317A7
:104EC000870023260500232465012311E500232202
:104ED0004501DE9723A0270123A2570123A4470100
:104EE0000145E38509FA238089004DB73E875C4779
:104EF000F5FF48C7C9B70504E310F4F6214579B7B3
:104F00000945828097F7FF1F83C797166371F502E3
:104F100017F7FF1F1307C71A9317150008433E958D
:104F200083570500DD8D2310B500014582800D45B6
:104F3000828097F7FF1F83C7B7136373F50217F7D4
:104F4000FF1F1307E71793171500084393C5F5FFD5
:104F50003E9583570500FD8D2310B50001458280E5
:104F60000D458280130705FF1377F70FFD4763EAAE
:104F7000E70AB146B306D50297F7FF1F9387871854
:104F8000984389473697184351CF011122CC4EC61A
:104F90000544935945003D893315A40013140501B8
:104FA000418026CA4E85AE84A2854AC806CEEFF05F
:104FB0001FCF2A89814731CDA2854E859D3F97F726
:104FC000FF1F9387A70F9C43829797F7FF1F83D7F5
:104FD0006714338797022A84814613060064B3B7A7
:104FE000970213050732B335E500BE95EFE0F14CAB
:104FF000B307850097F6FF1F938646113E87D4427C
:1050000063E4A70063E4D7003387D7402324E90093
:105010008147F2406244D2444249B2493E8505612B
:10502000828089473E858280011126CA06CE22CC25
:105030004AC84EC6BD47894463E0A70431473307D9
:10504000E50297F7FF1F9387E70B9C438944BA97C4
:105050009C439DC305443314A400420441802E891F
:105060000145A285EFF0BFC3AA89814411C5A2857D
:105070000145C13523A42901F240624426854249F5
:10508000D244B2490561828097F7FF1F83C757FE5C
:105090006364F50001458280011197F7FF1F938734
:1050A000E70156C283AA070006CE22CC26CA4AC808
:1050B0004EC652C4638E0A0A17FAFF1F130A0A0566
:1050C00083244A00B74736FE938707C8AE8997F511
:1050D000FF1F83D52504BE94B387C5022A84328975
:1050E0008146B3B5C50213850732B337F500130601
:1050F0000064BE95EFE0713C63ECA406829A97F5DC
:10510000FF1F83D52501B3872503AA8413060064F6
:105110008146B3B5250313850732B337F500BE9535
:10512000EFE0B139B3079500BE8403274A0063E47A
:10513000A70063E4E700B384E740CE852285EFF063
:105140001FB601C504C505452DA0936504F0C20531
:10515000C181414597C0FF1FE780A06605E597F72D
:10516000FF1F938767F69C5B81C7A28511458297D5
:105170000145F2406244D2444249B249224A924A2D
:105180000561828097F7FF1F9387C7F39C439DE3D8
:1051900097F7FF1F23A8A7F285472326050004C51C
:1051A0002311350123008500A300F500232205000B
:1051B00059BFBA87D84775FFC8C7F9BF59C97971B0
:1051C00022D426D24AD04ECE52CC56CA5EC662C433
:1051D00066C206D65AC83689328AAE89AA84414444
:1051E000314C97FAFF1F938AEAF1854C930B000329
:1051F000330B840303A70A005A971C43B1E7937546
:10520000F400B395BC0013554440C2055286C181D9
:105210001375F50F953D0DC983A70A000145DA976F
:1052200084C323A237016304090023008900B2501C
:10523000225492540259F249624AD24A424BB24B2A
:10524000224C924C456182800504E31374FB214596
:10525000F9BF09458280411122C426C24AC006C650
:105260002A842E89B2840D35CA852285EFF03FA3AA
:1052700005CD97F5FF1F83D5E5E9B38795022A840D
:10528000130600648146B3B5950213850732B33720
:10529000F500BE95EFE0712248C00145B2402244BE
:1052A00092440249410182802145CDBF411122C46F
:1052B00026C24AC006C62A892E84EFF05F9EAA84C1
:1052C00019C123110500A2854A85EFF09FC697F703
:1052D000FF1F83C7E7D9639B270197F7FF1F83D77A
:1052E000A7DD5D8C97F7FF1F239887DC014591E0D0
:1052F0001945B240224492440249410182809307F9
:10530000F00263E8A7044111B14722C43304F50257
:1053100026C297F4FF1F9384E4DE9C4006C6A29742
:10532000984389470DC39377F5008545B395F500FC
:10533000C205C18111819D3F9C40A29723A0070017
:1053400023A207008147B240224492443E85410196
:10535000828089473E858280411106C622C4EFF0D3
:105360001F9411E50145B24022444101828097F724
:10537000FF1F9387A7D49C430045829797F7FF1F91
:105380009387C7D86368A402D843B74636FE93868E
:1053900006C83305A4403697E376E5FC130700649E
:1053A000B335E50203D6870081463305E502EFE019
:1053B000D11055BFD8433A94C1BF411122C426C26F
:1053C00017F4FF1F130484D497F4FF1F938444CA77
:1053D0009448584097F7FF1F938747CE06C69C43D3
:1053E0006393E60882975440B74736FE938707C811
:1053F000B6973387A7003A856364F7006364D700E4
:105400003305D74097F4FF1F938444E99C4C81CF28
:1054100097F7FF1F938787EF94433707CDFF7D17DB
:105420009C46F98F9CC611E1484097F7FF1F938770
:10543000A7C9DC53829719E59C4C8DC3EF008157B7
:10544000EFF0703A9C4C99CB97F7FF1F938707ECCE
:105450009843B70633001C47D58F1CC7B24022447F
:105460009244410182808297984897F7FF1F83C733
:10547000F7C654401D8FB307A7003E8563E4E700DD
:10548000E3E2D7F83385D740B5BF411106C697F799
:10549000FF1F23ABA7C60295B24097F7FF1F23A5B6
:1054A000A7BE014541018280994763E9B7008A059B
:1054B00097F7FF1F938787BEBE9588C182804111F1
:1054C0007146814517F5FF1F130545BD06C697F7C1
:1054D000FF1F23A907BE97F7FF1F23A707C297F750
:1054E000FF1F23AD07BC97B0FF1FE78000531306D3
:1054F0008002814517F5FF1F130585B797B0FF1F81
:10550000E780A051EF60412D97F7FF1F83C737BD9C
:1055100013D527008D8B3E958D473305F5028545C4
:1055200039051375F50F97F7FF1F2384A7B4994723
:105530003305F5021305052497C0FF1FE780602897
:1055400017F7FF1F2320A7BC59CD994717F6FF1F58
:10555000034626B23306F60281451306062497B0A9
:10556000FF1FE780804B97F7FF1F9387A7B99C43E6
:105570009387072417F7FF1F2320F7B217F7FF1FA2
:10558000034727AF0A07BA9717F7FF1F232AF7B277
:10559000EFF04FF00D2B97F7FF1F9387E7AF944382
:1055A00097F7FF1F83C7D7AC13972700369717F6D7
:1055B000FFFF1306467110C3138717001377F70F09
:1055C0000A07369717F6FFFF1306467810C31387AE
:1055D0003700890793F7F70F8A0797F5FF1FA3890D
:1055E000E5A8B69790C3B2404101828097F7FF1FAC
:1055F00083C717A817F7FF1F0347A7A763F3E7029F
:1056000017F7FF1F130747A918439386170017F6CC
:10561000FF1FA30FD6A493962700369708C33E8595
:1056200082809307F00FE5BF1C41638B071641771B
:105630007D8FB706002089476315D71603574500AD
:1056400063010716411122C419462A849305F00FFD
:10565000690506C697B0FF1FE780404605478D479E
:10566000630BE5121C4481CB585899476305071218
:10567000185C630207121306C003814517F5FF1F6C
:10568000130585A497B0FF1FE78020391306C003D8
:10569000A28517F5FF1F130525A397B0FF1FE7800D
:1056A000403417F7FF1F0357E7A297F7FF1F9387B1
:1056B000A7A119E71307001097F6FF1F239CE6A088
:1056C00017F7FF1F034727A111E7054797F6FF1FAD
:1056D0002383E6A017F7FF1F035707A011E76D47C5
:1056E00097F6FF1F239AE69E17F7FF1F0347B79E03
:1056F00011E7154797F6FF1FA38FE69C17F7FF1FCB
:105700000347A79D11E7054797F6FF1F2387E69CF0
:1057100017F7FF1F0347779C19E703C7F70097F6B2
:10572000FF1FA38CE69A17F7FF1F0347279B11E77C
:10573000354797F6FF1F2383E69A17F7FF1F0347A6
:10574000379A19E71307800297F6FF1FA38AE69896
:1057500017F7FF1F0347979819E71307D00297F62B
:10576000FF1FA38DE6960347840119E71307C003C3
:1057700097F6FF1F2386E6969C5791C7829797F767
:10578000FF1F239BA78EFD5717F7FF1FA302F7BE2E
:10579000EFF0FFD28147B24022443E854101828032
:1057A00089473E85828001114EC697F9FF1F938974
:1057B000E99583A7090006CE22CC26CA4AC852C45E
:1057C000829713090064B335250303DA8900814603
:1057D000528633052503EFE0414E97F7FF1F93876D
:1057E0002789804FAA84014563069402338584404B
:1057F000636E940003A5490052868146B335A90221
:105800003305A902EFE0614B018D269597F7FF1F45
:1058100023AC9786F2406244D2444249B249224ABC
:1058200005618280011122CC0A852E84414697456C
:1058300002009385659E06CEEF00422318080604F9
:105840003A94035504FF97F7FF1F83D7C78CF240A4
:105850006244AA9737450F00130505243355F50216
:105860000561828097F7FF1F83D7E78A51471D455F
:10587000637CF702794719456378F7021307200321
:1058800015456373F7021307B0041145637EF700F3
:10589000130740060D456379F700130760090945B2
:1058A0006374F70013B5B70F8280011122CC06CEC6
:1058B0002A842EC6EFF04FD1B245F240818D33A538
:1058C000A502229562441375F50F056182800111CE
:1058D00022CC06CE2A842EC6EFF00FCFB245F2407E
:1058E000818D33A5A502229562444205418105615F
:1058F0008280011122CC06CE2A842EC6EFF0CFCCB6
:10590000B245F240818D33B5A5022295624405610E
:10591000828097E7FF1F9387277B985739CB4111E8
:1059200022C426C206C6BE84029717E7FF1F03578C
:10593000A7742A8415CBBA876373A700AA87C20706
:10594000C183BA866373E400A286C206C182958FC2
:105950005147635BF700DC5491C38297EFF0106FFF
:1059600097E7FF1F239A8770B24022449244410177
:105970008280828097E7FF1F93870775DC570111AC
:1059800006CEAA8581C72AC68297B245C1C59C4169
:105990000545B5CFDC41A5CF83D78500ADCB83D7F7
:1059A000A500B5C783C7C500BDE3414617E5FF1F86
:1059B0001305C57597B0FF1FE780A00297E7FF1F8B
:1059C0009387C7749C4317E7FF1F2329F76E97E758
:1059D000FF1F83C7F7708DE79307800217E5FF1F4E
:1059E000035545733305F50237460F0013060624A9
:1059F00081468145EFE0612C97E7FF1FA382A76EE8
:105A000017050000130565DAEFF03FA80145F240E5
:105A10000561828097E7FF1F83C7676C1397870133
:105A200061876354070497E7FF1F23A1076697B7B1
:105A3000FF1F9387073E17E7FF1F2329F76C7D574A
:105A400097E7FF1F23A6E76CB7873200938727A14C
:105A500097E6FF1F23A0F66C97E7FF1F238E076AC8
:105A6000B7C7004023A4E72691BF13F7170005CF5F
:105A7000B7872003938707D017E7FF1F232CF7680A
:105A8000B707C0A817E7FF1F2324F76897B7FF1FC2
:105A90009387473B17E7FF1F232AF76697E7FF1F08
:105AA000238C076621BF617797E6FF1F2394E66684
:105AB00081CB9307003217E7FF1F231EF764C9B796
:105AC00093072003CDBF011122CC17E4FF1F13045D
:105AD000A45F084406CE26CA4AC801E90545F2403B
