:040000006F2020420B
:1000040000000000000000009C0400009E040000AA
:100014000000000020240000000000000000000098
:100024002024000020240000000000000000000044
:100034002024000000000000202400000000000034
:10004400202400002024000020240000202400009C
:10005400202400002024000020240000202400008C
:10006400202400002024000020240000202400007C
:10007400202400002024000020240000202400006C
:1000840020240000202400007E150000202400000D
:10009400202400002024000020240000202400004C
:1000A400202400002024000020240000202400003C
:1000B4003813000020240000202400002024000025
:1000C400202400002024000020240000202400001C
:1000D400202400008E0600000E070000D611000048
:1000E40020240000202400002024000020240000FC
:1000F40020240000202400002024000020240000EC
:10010400000000002024000020240000202400001F
:1001140020240000202400002024000020240000CB
:1001240020240000202400002024000020240000BB
:1001340020240000202400002024000020240000AB
:10014400202400002024000020240000202400009B
:10015400202400002024000020240000202400008B
:10016400202400002024000020240000202400007B
:10017400202400002024000020240000202400006B
:10018400202400002024000020240000202400005B
:10019400202400002024000020240000202400004B
:1001A400000000000000000000000000000000004B
:0C01B4000000000000000000000000003F
:1001C000397101436EC619A0397141536AC866CAB4
:1001D00062CC5ECE19A0397101535AD056D252D496
:1001E0004ED64AD826DA22DC06DE3301614082820E
:1001F00041114AC026C222C406C68282B24D4101C4
:10020000024D924C224CB24B4101024B924A224A7F
:10021000B2494101024992442244B24041018280E4
:100220003D432A876373C3029377F700BDEFADE5C3
:10023000937606FF3D8ABA960CC34CC30CC74CC7D5
:100240004107E36BD7FE11E28280B306C3408A0602
:100250009702000096966780A6002307B700A306C2
:10026000B7002306B700A305B7002305B700A30412
:10027000B7002304B700A303B7002303B700A3020A
:10028000B7002302B700A301B7002301B700A30002
:10029000B7002300B700828093F5F50F9396850091
:1002A000D58D93960501D58D61B79396270097025A
:1002B000000096968682E78086FA9680C1171D8F89
:1002C0003E96E374C3F8A5B73367B500FD530D8BB5
:1002D00079E7B7877F7F9387F7F710419441B3722F
:1002E000F6003363F600BE92B3E262006395720CCF
:1002F0006318D6065041D441B372F6003363F6005A
:10030000BE92B3E262006396720A631BD604104584
:100310009445B372F6003363F600BE92B3E2620016
:10032000639F7208631ED6025045D445B372F6002F
:100330003363F600BE92B3E2620063987208631101
:10034000D60210499449B372F6003363F600BE92A8
:10035000B3E26200639172085105D105E30FD6F64E
:100360001317060193970601631CF7001357060144
:1003700093D706013305F7409375F50F91E9828015
:100380004183C1833305F7409375F50F91E1828076
:100390001377F70F93F7F70F3305F740828010219B
:1003A0009421050585056313D60075FA3305D640FB
:1003B000828011059105E314D6FE01458280210556
:1003C000A105E31ED6FC014582803105B105E31885
:1003D000D6FC014582804105C105E312D6FC0145EA
:1003E0008280EFF2FFE03971AA842E841305100297
:1003F000854532C602D202D402D602D802DA02DC25
:1004000002DE02CC02CE23100102EF2070048545EB
:100410001145EF20D00585450565EF20E05489673B
:100420002312F10237150140E1473ED64C108D47AB
:10043000130505403ED4EF206045E08437140040AA
:100440002C0813050480E486231F0100231D0100EE
:10045000EF20B0053246C167938707070C181305D4
:1004600004803ED8231BC102231C0102EF20900E02
:10047000130504808545EF20501A1305048081453B
:10048000EF20D01D130504808545EF20901B854586
:1004900013050480EF20F0162161ADBB01A0B70762
:1004A000EFBE37E700E0938707083CC701A0EFF2F3
:1004B000BFD111657971854511053714014002CA14
:1004C00002CC02CE02D002D202D402D602C602C8A8
:1004D000EF2000788D4493070020E14B4C08130572
:1004E0000480FC8226CC5ECEEF20403A9307004089
:1004F00011494C0813050480FC82374A01404ACE5A
:10050000F169EF20A03893890920370B0C000C10FB
:1005100013050A804ED05AD402D223160102EF20CE
:10052000101913050A80054693055052EF209022BA
:1005300005469305404213050A80EF20B02193073A
:100540005013854A7C86680085475C8756C8EF2033
:10055000604F13050A808545EF20701E85453705DD
:100560000200EF20C07085451145EF20606E4C08F9
:1005700013050480231A210126CC5ECEEF20003122
:10058000A1474C0813050480FC824ACEEF200030BE
:100590004ED0B74900400C10138509405AD402D2FE
:1005A00023160102EF20B01013850940054693057C
:1005B0005052EF20301A05469305404213850940FA
:1005C000EF2050199307601368007C8623075101C0
:1005D00056C8EF202047138509408545EF20301687
:1005E00085455145EF20C066414A4C08371501400A
:1005F000231A41014ACEEF206029930900024C08DA
:1006000037150140231A31014ACEEF2020284149F5
:100610004C0813050480231A41014ACE26CCEF2052
:10062000E02613050480C145EF20E0324C08130595
:100630000480231A31014ACE26CCEF202025130551
:10064000048093050002EF200031930700044C085A
:1006500013050480FC824ACE26CCEF20202313050C
:10066000048093050004EF20002F930700084C0836
:1006700013050480FC824ACE26CCEF20202193056E
:10068000000813050480EF20002D456195BE41113F
:1006900026C4B7440140930550521385048022C6F6
:1006A000EF20B00F05C5138401891A20930770024B
:1006B0001385048063E8E704EF20B00D1A20930748
:1006C00017001EA09387419BBA9788A3B7440140A7
:1006D0009305404213850480EF20300C19CD13851B
:1006E0000480EF20100B138401890E2099C5138517
:1006F0000480EF209009231004003244A2444101F9
:1007000073002030EF20F00823100400C1B741111E
:1007100026C4B7440040930550521385044022C6B6
:10072000EF20B00705C5138421891A2093077002B2
:100730001385044063E8E704EF20B0051A2093070F
:1007400017001EA09387C19DBA9788A3B7440040A5
:100750009305404213850440EF20300419CD1385E2
:100760000440EF201003138421890E2099C51385BE
:100770000440EF209001231004003244A2444101C0
:1007800073002030EF20F00023100400C1B7B7073A
:100790000460F917BE234111C207C1837C872887F3
:1007A0004101828003D7C1A0B7070460239FE7FE01
:1007B0008280938741A0D623256713071734639659
:1007C000E602B227B7060460239FC6FE13568500D3
:1007D00092A21375F50F8AA2DE27239FF6FE93D708
:1007E00085009EA293F5F50F8EA28280138741A00B
:1007F0006C23562305462567938741A013071734BA
:100800006399C5046399E6041D476366A7001387CF
:10081000C1833A9508217D151375F50F9946014757
:1008200063E6A600138741843A951821B706046051
:1008300013056003239FA6FE936587008EA213779E
:1008400007029623B22309CB63FAC60092A3B6A38C
:1008500031A0E382E6FC8280E36AD6FEB627370643
:100860000460231FD6FE23100600231006009623E3
:10087000FD1693D58640C205C1810EA293F6F60FF0
:1008800016A2D627231FD6FE23100600231006002B
:10089000BE23FD1793D68740C206C18216A293F7E6
:1008A000F70F1EA24DBFEFF2BF94138741A056234E
:1008B000938741A005E93707400123830700130709
:1008C000070F98C3256713071734639AE6003707A5
:1008D0002A001307C70298C71307B002DAA7014519
:1008E00031370DBA0547F8A33707F000130707148F
:1008F000C9BFEFF2FF8F41118545114502C202C405
:1009000002C6EF20E034E177371401407C82C14712
:100910003EC64C008D47130504803EC4EF1010778F
:10092000A16513050480EF20000341016FF09F8E45
:10093000EFF21F8C938741A09A23A2238145AA84BA
:1009400001453304E402B535B13D81473707046002
:10095000639487006FF01F8C06A38507D5BFEFF265
:100960009F871971371401406937A1651305048009
:10097000EF10B07E13054006EFF0517E13050480A2
:10098000A165EF10507D854513050010EF20602A0A
:10099000854513058006EF20A02B8D449167C14942
:1009A000130504C08A857C804EC426C2EF10106EE9
:1009B000F17793873773614A130504408A857C80F9
:1009C00052C426C2EF10906C37250140930700F8FF
:1009D0008A85130505807C8052C426C2EF10106BF7
:1009E0001305044005698A852310210152C426C2DB
:1009F000EF10D06913050440130909808A8523107C
:100A000021014EC4056926C2EF1050689305098084
:100A100013050440EF10707485473EC6BD473ECABB
:100A20009167BED87C00BEDCC8003C10BEDE02C8A8
:100A300002CC02D202D402D626D802DA02DC02DECE
:100A400082C082C282C482C6CEC882CA82CE82CC12
:100A500082D082D2CAD482D682DAEF10705685450F
:100A60000145EF10D06013052003EFF0316FB70799
:100A70000460239F07FE213B938741A0130715F0D5
:100A8000CAA34207C16741839387F7EF138441A04C
:100A900063E7E700A567938707306313F502B7079D
:100AA00004601307300D239FE7FED5314AA0C531FE
:100AB0004AA0F13922054AA0D9395E205D8D4AA0AD
:100AC0005A20A56793871734631CF71E3704046008
:100AD0001307F00C9307E4FF231FE4FE23910700A4
:100AE0001306100CB2A313070003BAA39306D00E8B
:100AF000231FD4FE93064006B6A38D46B6A3C9466F
:100B0000B6A393061008B6A39306800E231FD4FE47
:100B100093065008B6A3C146B6A39305A007AEA39B
:100B20009305B00C231FB4FE93059003AEA3930569
:100B3000C002AEA32391070093054003AEA38945ED
:100B4000AEA39305700F231FB4FE93050002AEA35E
:100B50009305A00E231FB4FE2391070023910700E5
:100B60009305000C231FB4FEED45AEA3231FC4FE66
:100B70000546B2A39305500C231FB4FEBAA3BAA333
:100B80001307700C231FE4FE1307700BBAA313079F
:100B90006003231FE4FE13078004BAA31307A00316
:100BA000231FE4FE13075005BAA31307100B231FDE
:100BB000E4FE239107006947BAA31307600B231FC4
:100BC000E4FEA945AEA31307200ABAA31307200F1A
:100BD000231FE4FE2391070013076002231FE4FE96
:100BE000B2A31307000E231FE4FE3D47BAA313056B
:100BF000A002AAA313088002239107012148239190
:100C00000701B948239117012391070113084005F3
:100C1000239107011308900A239107011308300458
:100C200023910701AEA3BAA32391070023910700E4
:100C300023910700239107009305100E231FB4FE94
:100C400023910700D545AEA3DD45AEA39D45AEA3D8
:100C5000C545AEA31948239107011308B00223919B
:100C6000070193086005239117019308C00323919E
:100C70001701954823911701B6A3BAA39306F00371
:100C8000B6A3B6A3BAA3231F04FF239107002391A1
:100C90000700B2A3B6A3231FA4FE2391070023914C
:100CA0000700239107001307F00EBAA3231FB4FE19
:100CB00013058007EFF0914A93079002231FF4FE7B
:100CC0000145D536371501409165130505C0EF1074
:100CD000904841657D15A93909616FF00FD31387DD
:100CE00041A05623256713071734938741A0639AC1
:100CF000E60203D8A700B70604601387E6FF239F28
:100D000006FF13588500239006011375F50F8AA27C
:100D1000CA27239FA6FE93D6850036A393F5F50F29
:100D20002EA39627B7070460239FD7FE92A3828045
:100D3000EFF20FC993F4760093D73600B3349000E6
:100D4000BE9493D71600B384F402130906FE1379F8
:100D5000F90F4111930A40023146374B0200B74B5D
:100D60000200374C020093F7F40F3EC0B30A590358
:100D700093174900AA892E8D3EC22E84814C130BF5
:100D8000CB27938BCBC8130C8C813309C902138AF0
:100D900041A0024693F7FC0F63E5C70041016FF0E5
:100DA000EFC5B1476395F606B3872C01E2971303AD
:100DB00084008423931D030193DD0D0113968401A8
:100DC00061866354060603D64189A2854E853AC6DC
:100DD00036C43137A2463247050403562A0042047E
:100DE00093971400418093F4F70FE379C4FA330624
:100DF000A4416319D604850983570A00C20993D90F
:100E00000901E3FDF9F8EA8D850C6E8459B7C147F5
:100E10006396F6009247E697DE9751BFE147E39F5E
:100E2000F6F6B3875C01DA9759B75DF7B70700208C
:100E300003D68715A2854E853AC636C44D3532474E
:100E4000A24659BFE39C8DF6C1B7EFF2EFB72A96E1
:100E5000AE9613190601939906014111AE841359F8
:100E6000090193D909013A8A135B17002A84930A6E
:100E7000E005937BF50F9023130706FE1377F70F1A
:100E800063F5EA0041016FF0AFB763662401D294C5
:100E9000C2045E84C1803EC6E3F634FF228501476A
:100EA000D286A6857135B2475A944204418085079F
:100EB000D9B7EFF26FB1138AF6FF2A8CAE89B28BE5
:100EC0003A8D135B17001374FA0F814C0149930498
:100ED000F00FA94A631694046FF08FB2B3875703DB
:100EE0007D171377F70FE31B97FEB3D7FB02B3F71A
:100EF000570313F6F70F6319090263D74C0385E70D
:100F00000147EA861306000262855A9CCE85420C90
:100F10007D14393D850C135C0C011374F40F5DBF17
:100F20002287854775BF05490147EA8613060603F0
:100F3000E1BFEFF26FA93304A6402A8BAE8CB384D5
:100F4000B640854B63478000814B01C43304C540E4
:100F5000FD5B054C63479000014C81C4B384D540D0
:100F60007D5C2289635394002689814A014A814924
:100F7000130D190063543D016FF08FA893950C0178
:100F800013150B010146C1814181229A893BA69A22
:100F900063554901330A2A415E9B63555901B38A5F
:100FA0002A41E29C8509C20993D90901E1B7EFF210
:100FB000AFA1139B060113140501131A06019394A4
:100FC0000501135A0A01135B0B014180C180B30B69
:100FD0004401B38A6401C20BC20A93DB0B0193DAAA
:100FE0000A013A86D6855E85B30944413A89C20929
:100FF000FD3193D90901D685B38A64414A864E856D
:10100000C20AF13993DA0A014A86D6855E85C1396A
:10101000D6854E85B30A9A00B30964014A86C2098F
:10102000C20A753993D9090193DA0A01330464417C
:101030004A86D6854E8542045D314180B384444161
:101040004A86D6852285C2045939C1804A86A6853A
:101050004E8571314A86A685228551316FF04F9AAF
:10106000EFF26F97939716000D44AA892E8AB28AE1
:10107000B6841D8C3A8921CF014915A04A8BDA86A6
:1010800056874A86D2854E85050B1537E3D964FF0E
:10109000635B0400931729003E9419040509E3DFFC
:1010A00024FD6FF08F96B30799408A073E94290478
:1010B000FD14EDB75687A6864A86D2854E85C53D76
:1010C000635A0400931729003E9419040509E3D3D9
:1010D00024FFC1BFB30799408A073E942904FD1439
:1010E000F5B7EFF24F8F797185453705040002CAD5
:1010F00002CC02CE02D002D202D402D602C602C86C
:10110000EF10F03685452145EF109034371401403B
:1011100093070040FC820D49E1474C08130504C0C9
:101120004ACC3ECE056AEF10607693070A8091495B
:101130004C08130504C0FC824ECEEF102075F167F9
:10114000B7540040938707203ED00C10B7070C001F
:10115000138504803ED402D223160102EF103055CD
:1011600013850480054693055052EF10B05E054686
:101170009305404213850480EF10D05D93077013F0
:101180007C8685475C87680085473EC8EF10900BDA
:10119000138504808545EF10905A85452145EF1051
:1011A000302B4C08130504C0231A41014ECEEF101A
:1011B000E06D8967FC824C08C147130504C03ECE30
:1011C0004ACCEF10A06C8965130504C0EF10E078DD
:1011D00045616FF08F83411126C4B75400409305D9
:1011E00050521385048022C6EF10305B05C513846E
:1011F00061891A20930770021385048063E8E7046D
:10120000EF1030591A20930717001EA0938741A1B1
:10121000BA9788A3B75400409305404213850480D1
:10122000EF10B05719CD13850480EF10905613843A
:1012300061890E2099C513850480EF101055231085
:1012400004003244A244410173002030EF10705476
:1012500023100400C1B7EFE2BFF90945EF10207E6B
:10126000B129EFF0E169F520EFF06FEFEFF02FA477
:101270008D3D952231659305F0051305F534A920C0
:1012800013070080239AE188EF00A06FEFA0211FD1
:10129000EFF0C159EFF0E1631385C1A3EF10505A8D
:1012A0001385C1A337040020EF1070591304040103
:1012B0007945EF10E128EF00215A5C400145829703
:1012C0007945EFF0A169EDB7EFE29FF201112E84AD
:1012D000AA848545054502CA02CC231E010002C628
:1012E00002C8EF10D0184C0837050040E484E082B3
:1012F000231D0100231B0100EF10301B930500028A
:1013000037050040EF10F0360546854537050040AB
:10131000EF1010329307C0127C86680085473EC8E4
:1013200023070100EF100072854537050040EF10DC
:10133000502D05616FE01FEE854537050040EF1029
:10134000D03411C5854537050040EF109035730046
:101350002030EFE2FFE941118545214502C202C478
:1013600002C6EF10F00E8547371401407C82C1475A
:10137000130504C03EC64C008D473EC4EF1000511B
:10138000130504C08545EF10405D130440067D142D
:1013900029451374F40FEFF0615C75F837150140BF
:1013A0008545130505C0EF10005B13068002930509
:1013B000F01D13053006EFF0CF8213052003EFF088
:1013C000E15901469305F01D13053006EFF06F81DA
:1013D00041016FE03FE4EFE2BFE139711306000223
:1013E00081450810EFE0DFE38545214502CA02CCC4
:1013F00002CE02C602C8EF10B005854513050020D5
:10140000EF1010053165EF10A069371501408947CD
:101410004C08130505C037240140FC8202CEEF10B2
:10142000E04613050440EF10A00889673ED60C1073
:10143000A54713050440230AF10202D002D202D4C8
:1014400002D8EF10E00A854513050440EF10201D77
:101450009D460546A54513050440EF10A01485459B
:1014600013050440EF10C012930720227C86680009
:1014700085473EC823070100EF10C05C0546930571
:10148000004813050440EF10000D85451305044086
:10149000EF10600B814513050440EF10A01D1305EC
:1014A0000440EF10A00C930404402685EF10A00C1C
:1014B0006DFD1305044037240140EF10400C9304E8
:1014C00004402685EF10400C6DFD13050440EF101D
:1014D000E01B239CA18821616FE0DFD30397818902
:1014E00081472A97634F070009CD05669306F6FFEB
:1014F000B6876358C700AA876305D500931707010D
:10150000C1833E858280EFE2BFCE138741805623A0
:101510003E234AA336A31EA3B697AA970D45B3C789
:10152000A70285669386A6B43E87C207C18363F38C
:10153000D7003687FD779387674BBA97C207C18379
:1015400013072024370400203E856374F700130539
:10155000202442054181EF10B27BB757020083A5DA
:1015600087FDEF104256B757020083A5C7FDEF1065
:10157000B200EF103268230DA4146FE0BFC941110F
:1015800022C6372401409305004813050440EF109C
:10159000000C01CDD14513050440EF108009420530
:1015A00041852D3F239DA188B93F372501409305F3
:1015B000004813050540EF10400B32444101730011
:1015C0002030B71702409843B706FFF04111136768
:1015D000170098C3D84337060200758FD8C39843C5
:1015E000B706F7FEFD16758F98C39843B706FCFF44
:1015F000FD16758F98C3D843B70601FFFD16758F8A
:10160000D8C39843B70600ECFD16758F98C337070B
:10161000FF0098C723A6070202C402C69843C1660A
:10162000558F98C3B716024005679C42F18F3EC69E
:10163000A24785073EC4B24781E7A247E397E7FE8A
:10164000B71702409C431397E70063570706854787
:101650003EC632478547631FF704B7170240D84399
:10166000B706C1FFFD16D8C3D843D8C3D843136704
:101670000740D8C3D843758FD8C3D843B7062900CD
:10168000558FD8C39843B7060001558F98C3984328
:1016900093166700E3DD06FED843B7160240719B40
:1016A000D8C3D84313672700D8C32147DC42B18B86
:1016B000E39EE7FE4101828002C661BFB716024089
:1016C000D8421146318B9387C180630BC7022146F4
:1016D000630DC70237177A001307072098C337171F
:1016E0000240584311839376F70037070020130711
:1016F00007003697142398433357D70098C3828046
:101700003727B700130707B0D1BFD842D44241668C
:1017100049833D8BF18E1306270015CF3D47630F9C
:10172000E6024147630FE602454781456313E60041
:101730004146A1E23747024003270780418B0DC78E
:1017400037177A00130707203306C70290C3C1D9A1
:101750009843058361B781454946E1BF85453546D4
:10176000C9BF81453D46F1B737173D0013070790C4
:10177000E1BF3715024058559316F700585563DFFF
:10178000060411833D8B930617003727B700130714
:1017900007B03357D70298C35455A182BD8A8DE252
:1017A00095463307D702058398C337170240585729
:1017B00094433D8B050733D7E60298C3984369B736
:1017C00005456394A600E546E9BF3D456396A6003E
:1017D000D1463387E602C9BF8906E5BF3D8B930634
:1017E00017003727B700130707B03357D702F1B7F1
:1017F000EFE21FA0371401402A89A144130404C05A
:1018000093178901E187054663C307000146C14577
:101810002285EF10C0140146A1452285EF10201447
:10182000FD1406090546A145228593F4F40F1379AA
:10183000F90FEF10C012E9F46FE0DF9DEFE25F9B5C
:1018400037140140AA840146130504C0A145EF10D6
:101850000011130504C00146C145EF1040100146B8
:101860009305000813050440EF10600F26854937E3
:101870001945EFF0410B0146A145130504C0EF10D7
:10188000000E0545EFF0210A130504C00546A145E9
:10189000EF10E00C130504C00146A145EF10200C29
:1018A00041498144130404C00146A1452285EF103B
:1018B000000BA14522850546EF10600A8604C2048C
:1018C000930500022285C180EF10400801C5850400
:1018D000C204C1807D191379F90FE31709FC37158C
:1018E000014005469305000813050540EF10200749
:1018F00013D544006FE01F92EFE2FF8D41114000CD
:101900002A8A9309E100A28422895285053F8AA090
:101910008904E39C34FF854715463E8793161700DC
:10192000CA960E208A226374B5000AA08EA205070B
:1019300093160701C182E393C6FE85070904E39E5F
:10194000C7FC28843C83AA9728854101AA97C2072F
:10195000C1830D4533D5A7026FE03F8BEFE25F896E
:101960002A8403C5018141112EC67937AA8403C593
:1019700011815937B24506A08AA1054541016FE0A2
:101980007F89EFE2FF8641118545130580023714F8
:101990000140EF10E02BE177930480044C00130525
:1019A00004C07C8226C6EF00706E130504C0A165DA
:1019B000EF00707A930700024C00130504C07C828C
:1019C00026C6EF00B06C130504C093050002EF00BB
:1019D0009078C14741498D444C00130504C07C8276
:1019E0004AC626C4EF00906A130504C0C145EF0043
:1019F0009076930700084C00130504407C824AC689
:101A000026C4EF00B0681305044093050008EF00FA
:101A10009074A1474C00130504C07C824AC626C4BA
:101A2000EF00D066130504C0A145EF00D072370562
:101A300000201305050193052501410505370545DE
:101A400041016FE02FFDEFE2AFFA4111AA842E842D
:101A500028009305A100193709E5014541016FE010
:101A60006FFB9305E1006800D53D65D93086388469
:101A70006368C7009307160363D8E700E31FE6FC1B
:101A800093071703E3CBC7FC34873C8563E8D70093
:101A90009385160363D8F500E391F6FC938517034D
:101AA000E3CDD5FA32970587B6979AA085871EA011
:101AB00005456DB7EFE2CFF3AA8437150140A16564
:101AC000130505C037040020EF005068130404011B
:101AD00041E1B70500203705002093852502130555
:101AE000050285C08D378307440163C7070093074C
:101AF00000FC5CA81C485CC44828137505086FE00E
:101B00006FF191376DD10A28EF1032140C4CEF10A1
:101B1000A226AA8403150402EF103213AA85268593
:101B2000EF00D243EF10120D0AA82A28EF10F2118D
:101B30004C4CEF106224AA8403152402EF10F2101B
:101B4000AA852685EF009241EF10D20A2AA861BF2C
:101B50005C281397870161876356070093F7F7079F
:101B60005CA859BFFD57232604001CC871B7EFE2DB
:101B70008FE62A84239AC1881306D50051154206A0
:101B80004205AE8641824181AE84EFF08FBA9386E2
:101B9000D400938544FF130A140093891400C206ED
:101BA000C205C18222862285C181420AC209EFF0A4
:101BB0004FB8135A0A0193D90901CE8552850146BF
:101BC0001309F4FFEFF0AF91420913590901CE85D3
:101BD0009389F4FF4A850146C209EFF04F9093D9EB
:101BE0000901CE8552850146EFF06F8FCE854A857B
:101BF0000146EFF0CF8E03D6418901479946A6856D
:101C00002285EFF0EFC56FE04FE0EFE2CFDC3E84DE
:101C1000BA8413070080239AE188B7570200411164
:101C2000AA8A2E8AB2893689938707FE4147C14620
:101C30001306800C9305C0081305800246C442C6F3
:101C4000EFF0AFA0B7570200938747FE4147C14668
:101C50001306800C9305C00813058007EFF0EF9E74
:101C6000B7570200938787FE4147C1461306800C91
:101C70009305000A13058002EFF02F9DB75702006D
:101C80009387C7FE4147C1461306800C9305000A9F
:101C900013058007EFF06F9BB7570200938707FF8C
:101CA0004147C1461306800C9305400B1305800283
:101CB000EFF0AF99B7570200938747FF4147C146FE
:101CC0001306800C9305400B13058007EFF0EF9788
:101CD000B7570200938787FF4147C1461306800C20
:101CE0009305800C13058002EFF02F96B757020082
:101CF0009387C7FF4147C1461306800C9305800CAC
:101D000013058007EFF06F94B75702009387070021
:101D10004147C1461306800C9305C00D1305800290
:101D2000EFF0AF925686414791469305C0081305E0
:101D30000004EFF00F985286414791469305C00882
:101D400013050009EFF0EF964E8641479146930543
:101D5000000A13050004EFF0CF954A8641479146EB
:101D60009305000A13050009EFF0AF94268641475A
:101D700091469305400B13050004EFF08F932286E4
:101D8000414791469305400B13050009EFF06F9210
:101D900032484147914642869305800C1305000462
:101DA000EFF02F91A2484147914646869305800C5B
:101DB00013050009EFF0EF8F0356010341478D46ED
:101DC0009305C00D13050006EFF0AF8E41016FE0E3
:101DD000CFC3EFE2EFBE4164FD475D717D57130550
:101DE000F4FF239AF188B7070020239CE714EFE063
:101DF0003FB4930700801305F4FF239AF188EFE0C6
:101E00003FB3B7570200938707024147C146130605
:101E1000800C930580022945239A0188EFF0EF8218
:101E2000B75702009387C7034147C1461306800C8A
:101E3000930580032945EFF04F81B7570200938740
:101E400087054147C1461306800C93058004294548
:101E5000EFE0BFFFB7570200938747074147C146EE
:101E60001306800C930580052945EFE01FFEB75748
:101E70000200938707094147C1461306800C93056A
:101E800080062945EFE07FFC13060480D1455145CB
:101E9000EFF0FFCD37040020930704011307000083
:101EA00098CF238A0700B757020003A7870183A7AB
:101EB000C701014981443ED082574EDA1304040120
:101EC0003ACE3AD23ED85C40054582975C2813074B
:101ED000000493F6070C639BE60293F7F7FB980860
:101EE0005CA893972400BA971A28850493F4F40FFA
:101EF0002398E7FE3A282399E7FE89476387F41879
:101F000063E2970285476382F41601492945050972
:101F1000EFE0D1244209135909019307803EE3F40D
:101F200027FBE5A98D47638AF4189147E39FF4FCEA
:101F3000035A01048359410403592104835A61045B
:101F400033053A419357F5413D8D1D8DB3075941F6
:101F500013D7F741B98F998FB387F7023305A502DD
:101F60003E95EF002279EFE0D122EF00E272035BB1
:101F70008104835BC104131D05018354A10433054F
:101F80007B41035CE1049357F5413D8D1D8DB38783
:101F9000844113D7F741B98F998FB387F702135D47
:101FA0000D013305A5023E95EF00C274EFE0711EEE
:101FB000EF00826E931D05016A85EF10625593DD77
:101FC0000D01AA8C6E85EF104248AA856685EF0048
:101FD000922F2AD4EF10A260B757020003A6070180
:101FE00083A647012ADC2EDEEFF0911C6340050238
:101FF0006257F257724682563A85BE85EFF07110ED
:102000006346A00063040D0063910D0E938741A009
:10201000AE2303D541A0C16CB1153115C2054205EF
:102020001386FCFFC1814181EFF07FB4D14551455A
:1020300013860C80EFF0BFB3B757020083A5C7FD2E
:102040002255EF007253EF10E23A420541812AC057
:10205000E2885E88A6875A87D6864E86CA855285CC
:10206000EFF0BFBA01498144B9BD41691306F9FFD8
:10207000D1455145EFF0BFAF03D541A0130609800C
:10208000D14531154205418135A003D541A0C16933
:102090001386F9FF31154205D1454181EFF03FAD7F
:1020A000138941A083552900138609805145B11534
:1020B000C205C181EFF0BFAB89BD138A41A0835532
:1020C0002A0041691306F9FFB115C205C1815145C6
:1020D000EFF0FFA983552A0003D541A0130609801C
:1020E000B115C2053115C18171BF33056A419357DE
:1020F000F5413D8D1D8DB307994013D7F741B98F39
:10210000998FB387F7023305A5023E95EF00825EF3
:10211000EFE031082AD4338579419356F541358D66
:10212000158DB3868A4113D6F641B18E918EB38652
:10213000D6022ED63305A5023695EF00A25BEFE05E
:1021400051052257B2572A8DAE8D3A85BE85EF00D4
:10215000A25442054181EF10A23BEE852AD46A8544
:10216000EF00825342054181EF10222EA257AA852B
:102170003E85EF0052152A8DEF106246B7570200D8
:1021800003A6070183A647012AD42ED6EFF05102F9
:10219000634C05002257B2571256C2563A85BE8587
:1021A000EFF02176635EA002938741A0AE2303D5B2
:1021B00041A0C16CB1153115C20542051386FCFF63
:1021C000C1814181EFF0BF9AD145514513860C8002
:1021D000EFF0FF99B757020083A5C7FD6A8595B553
:1021E000338569419357F5413D8D1D8DB3879A40E5
:1021F00013D7F741B98F998FB387F7023305A5023B
:102200003E95EF00224FEFE0C1782AD433057A41A2
:102210009356F541358D158DB306894113D6F64198
:10222000B18E918EB386D6022ED63305A502369591
:10223000EF00424CEFE0E1752257B2572A8DAE8D88
:102240003A85BE85EF00424542054181EF10422CA0
:10225000EE852AD46A85EF00224442054181EF10C1
:10226000C21EA257AA853E85EF00F2052A8DEF1007
:102270000237B757020003A6070183A647012AD4F5
:102280002ED6EFF0E172E34105F22257B257125613
:10229000C2563A85BE85EFF0C166E347A0F083DA07
:1022A00041A0938741A013858AFD03DB2700EF102F
:1022B000C219AA8B33854941EF102219AA855E8580
:1022C000EF007200AA8B08CC5685EF1002182A8CFA
:1022D00033053A01EF106217DE85EF00F229AA8577
:1022E0006285EF009252375A020083258A00EF0080
:1022F000B228EF10020A0AB013058BFDEF10E214AA
:10230000AA8933852441EF104214AA854E85EF0037
:10231000827BAA8948CC5A85EF1022132A8C330578
:102320009900EF108212CE85EF001225AA856285F2
:10233000EF00B24D83258A008944EF00F223EF10AD
:1023400042052AB05E85EF10C2049357F5413D8DDA
:102350001D8D63CBA4004E85EF10A2039357F5416A
:102360003D8D1D8D63DCA4069305CBFE1385CAFE4F
:10237000C164C20542051386F4FFC1814181EFF0BB
:102380000FFF13860480D1455145EFF04FFEB7573C
:1023900002009387070A4147C1461306800CE945AE
:1023A00013058002EFE07FAA834444021387018172
:1023B00093B714002302F4029387118189E89306EE
:1023C00000F914A3130700FD98A30149EDBC93067F
:1023D00000FD14A3130700F998A369B15257416493
:1023E000FD471305F4FF239AF188EFE06FD4B75748
:1023F00002009387470B4147C1461306800C9305A3
:10240000E00613053002EFE05FA41305803EEFE025
:10241000E1541305F4FFEFE0AFD161616FD01FDE2F
:1024200001A097E1FF1F9381615317E10020130181
:1024300061BD17E502001305656897E5FF1F9385E9
:1024400065BC1386018963FAC5008322050023A0B9
:10245000550011059105E3EAC5FE138501899775BD
:1024600000209385256D6377B500232005001105B5
:10247000E36DB5FEFD42739002BCAD4273904280A5
:10248000B7620000938282087390023097E2FFFFE8
:10249000938282B793E2320073905230EFF06F92E2
:1024A00097F2FFFF938262DB739012347300203047
:1024B000EFD21FD4B727014093870740631CF50074
:1024C000854513050020D9278145130500207D2F60
:1024D0006FD05FD4B737014093870780E31AF5FECA
:1024E0008545130500405D27814513050040C5B7AC
:1024F0005C413707F1E01307F7EF944D7D8F9C4166
:10250000D58FD44DD58FD441A206D58FD98F5CC13C
:102510001C4537F7F1FF1307D77FD4457D8F9C49C2
:10252000D58F94458606D58FD98F1CC55C55370746
:1025300010FF7D177D8FDC29FD1793F7F70FD2076A
:10254000D98F5CD582801C4589C593E717001CC5CF
:102550008280F99BEDBF5C4193F5F50F01C6DD8DDF
:102560004CC1828093C5F5FFFD8DDDBF1C4593E70F
:1025700087001CC5828008450D81058982801C4525
:1025800093E747001CC58280084509810589828040
:102590001C4589C52167D98F1CC5828061777D174D
:1025A000F98FDDBFA54763FBB7048D47138765FF30
:1025B0003307F7020328C5009D47B397E70093C789
:1025C000F7FFB3F70701B396E600DD8E54C5145D3F
:1025D0000906154793D746018D8BB307F64093F74D
:1025E000F70FB387E7027D473317F7001347F7FF6D
:1025F000758FB395F500D98D0CDD82800D4733873B
:10260000E502032805019D47B397E70093C7F7FF4D
:10261000B3F70701B396E600DD8E14C94DBF1C5D0C
:102620003707D0FF7D17FD15F98FD205DD8D0CDD45
:102630008280411102C62AC6B24793878702BE959F
:102640002EC6B247884341014205418182805841EC
:10265000144193D78500F58F99C713F5F50F798D40
:102660003335A000828001458280A18193C5F5FFAA
:102670000CC182805C4191C537070004D98F5CC1D1
:102680008280370700FC7D17F98FD5BFEFD25FB688
:1026900001112A8423040100A5441C8463F9F40475
:1026A00023040100A54621461C8463FFF60623157A
:1026B00001002304010095461C8463F1F60E388561
:1026C0003C8599460D46B3F7D7020565130505808D
:1026D000B3D7C7023357D702BA97C207C1837C85E5
:1026E0003C8505611D8D420541856FD0BFB21C44FC
:1026F00093E787001CC42285EFF0FFE76DFD1C44C3
:1027000093E747001CC42285EFF01FE86DFD784475
:102710001C8414108607B6972396E7FE1C84850751
:1027200093F7F70F5C8495BFA30401009C84637842
:10273000F6001C84850793F7F70F5C84B5B798847F
:102740009C840C100607850786072E97AE970357C3
:10275000C7FE83D7C7FE63FDE7029C848607AE975A
:1027600083D7C7FE7C859C84988485078607AE97AF
:1027700083D5C7FE931717001810BA972396B7FE94
:102780009C8438850C1085078607AE972396E7FE54
:102790009C84850793F7F70FDC8449BF1C841010D5
:1027A000388589078607B29783D7C7FEBA97C207CD
:1027B000C1837C851C84850793F7F70F5C84EDBD8E
:1027C00014455C4158450328C502D58FD98F184957
:1027D000370600A0D98F5849D98F184DD98F584D39
:1027E000D98F1851D98F5851D98F1855D98F185959
:1027F000B3E70701D98F18410A073A961CC2A147CF
:102800006396F6001C4293E707041CC254598C4E91
:102810009C42CD8FCC429205CD8F8C46A205CD8FA8
:10282000CC46C205CD8F8C4AD44AD205CD8FE20664
:10283000D58F5CC291676313F802145D904E9C4281
:10284000D18FD04294461206A206D18FD58FB706FB
:1028500000A09386461036971CC38280B70700A05D
:10286000938747103E97B7070010FD17F5B7B707D6
:1028700000A00A053E951C4189C593E717001CC1BD
:102880008280370710007917F98FD5BF9C4513F761
:10289000070113F8F70001C7D8413368E8008E211B
:1028A00013F7F50F39C318418146854E3D4F930FFD
:1028B000800293028004214E3396DE00B3F8C500F7
:1028C000631116039398260033131F011343F3FF7C
:1028D0003377E300B318180133E7E800639FF70587
:1028E00050C98506E39AC6FD18C11307F00F63753A
:1028F000B70454412146854E3D4F930F8002930209
:102900008004414EB398CE0033F715016392E8027C
:102910001317260001173313EF001343F3FFB376A9
:10292000D3003317E800D98E639DF701232A1501E0
:102930000506E319C6FD54C18280E39457FA10C915
:102940004DB7E39757FE23281501DDB708456D8D78
:102950003335A00082800CC982804CC9828019C2A4
:102960000CC982804CC98280B7070140635A0504B4
:10297000DC4F93560501131805013707300013F695
:10298000F60013580801B376E50063500506639B13
:10299000E602930606010D46B316D60093C6F6FF6F
:1029A000F58F99C9135755011377F73F120733175E
:1029B000E800D98F63570504370701405CCF828058
:1029C000DC4345BF1317B500635607008D46B39629
:1029D000C600E9B7135755011377F73F12073317AE
:1029E000E8001347F7FFF98F6DBF6390E6023706E3
:1029F00001405442370700F17D17F98F758F58C297
:102A0000D5F1370701405CC382801317B500635CC2
:102A100007008D46B396C60093C6F6FFFD8EB70736
:102A2000000FD58FF1BF1357550112073317E80078
:102A30001347F7FF7D8FB707000FD98FD1B723AEAC
:102A4000A188828003A7C189894710216311F702F9
:102A500014318D4763EDD7003C219A0637E700E03B
:102A60009607D58F93F7F70F32972300F74054411D
:102A70000547935756003317C70089CA9387070441
:102A80008A07B7E600E0B69798C382809387070667
:102A9000B7E600E08A07B69798C30F10000082805F
:102AA000B7160240DC4251777D17F98F5D8DC8C2A1
:102AB0008280371702405C439146B18B6385D7060D
:102AC000A1466387D706B7177A00938707201CC1F2
:102AD000371602405C4237070020130787039183B3
:102AE000BD8BBA9794231C41B3D7D7005CC1544225
:102AF000A1829D8ABA969422B3D6D70014C55442B7
:102B0000AD829D8A36971823B3D7E7005CC558423B
:102B10003983937637001387418136971823B3D7CB
:102B2000E7021CC98280B727B700938707B045B773
:102B30005C435843C166C983758FB7F6FF1F83A6F0
:102B4000C670BD8B89071396160163480600C546FB
:102B500001466392D702C94739A88946638FD702D5
:102B6000BD46638ED702C146638ED702C546014675
:102B70006393D700C1471DEF374702400327078003
:102B8000418B05C737177A0013070720B307F702F1
:102B90001CC11DDE1C4185831DBF01466DBF05465E
:102BA000B547D1BF0146BD47F9B737173D001307F9
:102BB0000790E9BFB7150240D8559316F700D855CE
:102BC00063DF060411833D8B930617003727B70098
:102BD000130707B03357D70218C1D455A182BD8A55
:102BE0008DE295463307D702058318C13717024097
:102BF000585714413D8B050733D7E60218C11841D9
:102C000071B785456394B600E546E9BFBD45639657
:102C1000B600D1463387E602C9BF8906E5BF3D8BC2
:102C2000930617003727B700130707B03357D702AB
:102C3000F1B799C5371702405C4B5D8D48CB828058
:102C4000B7170240D84B1345F5FF798DC8CB82806A
:102C500099C5371702401C4F5D8D08CF8280B7178A
:102C60000240984F1345F5FF798D88CF828099C532
:102C7000371702405C4F5D8D48CF8280B717024006
:102C8000D84F1345F5FF798DC8CF828099C5371786
:102C900002405C475D8D48C78280B7170240D84725
:102CA0001345F5FF798DC8C782801E213737014053
:102CB000930607C0C207C1836300D504B70600406E
:102CC000630CD502938606406308D502B716004010
:102CD000138606806302C502938606C0630ED50084
:102CE00013070740630AE50037570140930607C002
:102CF0006304D5006316E500BA2193F7F7F8D98F7E
:102D000037170040630CE500130707406308E50030
:102D100093F7F7CFFA21C207C183D98F1EA1DE2115
:102D20005EB59E211EB5B7370140138707C0630EFD
:102D3000E50093870740630AF500B7570140138702
:102D400007C06304E5006314F5009C251EB98547A0
:102D50005EA982801E3165771307F7CFC207C18352
:102D6000BD9BC207C1831EB11E31562103D8850009
:102D7000C20713960601162DC18393F7F7FD758FD1
:102D800096214182A206558FB62142074183B3E6C0
:102D900006019206D58FB7360140C207138806C0D8
:102DA000C183630E050193860640630AD500B756BA
:102DB0000140138806C063040501631ED502B625D1
:102DC00093F7F7F703D8C5009206D58FD621C2072F
:102DD000C183920693F7F7FBD58FFD769386F63F76
:102DE000F18EF225C207C183336606010A06D18E31
:102DF00013960601418252A11AADFA211ABD1EB1E5
:102E000082801E2189C593E717001EA18280C20718
:102E1000C183F99BC207C183CDBF8357450491C5C8
:102E20002167D98F2312F5048280C607C583DDBFD1
:102E30005E2501C6DD8D4EA5828093C5F5FFFD8D13
:102E4000DDBF1E2189C593E707081EA18280C20746
:102E5000C18393F7F7F7C207C183C5BF1A2DFD776A
:102E60009387F77FF98FA205CD8FC207C1831EAD6F
:102E700082805E21C207C18393F7F7F8C207C1833E
:102E80005EA15E21DD8D4EA182801E294A25ED8F37
:102E90004205418189C76D8D3335A000828001458F
:102EA000828093C5F5FFC205C1810EA98280EFD251
:102EB0002FB41629F577FD17F58FF621DA257971EC
:102EC000D58F1EA95625FD779387379FF58FD6217D
:102ED0002A842EC6D58F9625D58FB625D58F5EA58B
:102EE0005E29C207C18393F7F7CFD98F5EA968081F
:102EF000EFF03FBCB747014093870780B245631EA0
:102F0000F402A2576547B387E7029841930640064B
:102F10000A07B3D7E70233D7D702B3F7D7021207AE
:102F2000920793872703B3D7D702BD8BD98FC207E8
:102F3000C1831EA445616FD0EFAD9257E1B791C533
:102F40005E250967D98F5EA582805A25F977FD171E
:102F5000F98FD5BF13F7F50F85471583B395B700E4
:102F60006319F7009307C500984301CED98D8CC330
:102F70008280894693074501E318D7FE9307050130
:102F8000E5B793C5F5FFF98DDDB793F5F51F4EA1B4
:102F900082804A211375F51F828013F7F50F85464D
:102FA0001583B397B6006311D7025A25F98F1A21FA
:102FB00001454207418381CB0545A181B315B50089
:102FC0006D8F3335E000828089466314D7001A295B
:102FD000F1BF5A29E1BF99476397F504EFD24FA19A
:102FE000EFF0801FEF60D1102A84EF80F1083C459C
:102FF0008DEB7C4599C3639687029387C1A3DC2B35
:103000001384C1A381C71385C1A3052408480547BC
:103010009306803E1306803EA545EF60D118854794
:103020005CA06FD02F9F8280EFD28F9C0841B73574
:103030000000938565FDEF80A1636FD0AF9D828016
:10304000EFD20F9BB706002091652A841388060EE5
:103050001387060E0946938565699387060E130547
:1030600060519386060EEFB0200485475CA05CA8F3
:10307000228505280840EF60310C6FD0AF99EFD260
:103080002F972E84AA843514EF40001E1374F40F7A
:10309000854763E6870085452685EF90A1216FD09F
:1030A0006F97EFD2EF942A8481450145EF90613309
:1030B00008C08145EF30F07DB73500009384018A68
:1030C0009385E50788C0EF80A15A88408545EF9039
:1030D000611E08401306000F93050014EF908179DC
:1030E0001385818AEFC031601385818A1306F00F42
:1030F0009305C002EFC0117F1385818A01469305B5
:103100009002EFC0517508401386818A8145EFA077
:10311000E15608408145EF30103248C48545EF80C4
:10312000E1414844B75502009385C50CEF30D014F7
:1031300048441306200393052003EF30607348448E
:103140008145EF30F00048441306200693055005F2
:10315000EF80515148441306C00293055009EF9087
:1031600061711385418AEFC01158A1651385418AA9
:103170001306F00F9385C50AEFC0D1764844138635
:10318000418A8145EFA0814F2285EFF0FFE96FD0A2
:103190006F8813573500935655009357350193F6B2
:1031A000067E7D8BFD8BAE073365D7005D8D8280FB
:1031B000EFD20F842E84AA843514EF40E00A1374F2
:1031C000F40F854763E6870085452685EF90810EDD
:1031D0006FD04F84EFD2CF81B547AE846385F500C1
:1031E0009947639FF5001384C18AAA850840EF4080
:1031F000C0000840EF80D13B08408145EF90810B33
:10320000D1476385F400B947639FF4001384C18AF2
:1032100008408145EF30707E0840EF80113F084044
:103220008545EF9021096FC0FFFEEFC2DFFA2A84C7
:1032300081450145EF90E11A08C88145EF3070657E
:10324000B73500009384C18A9385051B88C0EF8041
:10325000214288408545EF90E10508481306000F9C
:1032600093050014EF9001611385818BEFC0B14786
:103270001306F00F9305C0021385818BEFC0916692
:103280003755480013058584EFF0BFF02A86930573
:1032900090021385818BEFC0115C08481386818BE7
:1032A0008145EFA0A13D08488145373B0000EF7004
:1032B000605DB7D5020048CC9385859BEF70D064E4
:1032C000484C93054B1DEF80A13A484C1306100360
:1032D000B145EF803139484C654693058008EF9041
:1032E00061591385C18BEFC0114001452169EFF091
:1032F0005FEA2A86930599081385C18BEFC0B15503
:10330000B70A002013864A069305E9081385C18B86
:10331000EFC07166930509081385C18B0946EFC09C
:10332000B14A1385C18B094693050003EFC0D1490B
:103330001306F00F9305C0031385C18BEFC0915A9C
:10334000E9691385192BEFF0DFE42A8693059003D2
:103350001385C18BEFC031501385C18B1146C14518
:10336000EFC091461385C18B1146CD45EFC0D145C5
:103370001385C18B1146C945EFC011451385C18B1B
:1033800001468545EFC051441385C18B0146930525
:103390000005EFC07143484C1386C18B8145EFA0F7
:1033A000E12D1385018CEFC011341306F00F930546
:1033B000C0021385018CEFC0F152370A00011305DA
:1033C000FAFFEFF01FDD2A86930590021385018C2A
:1033D000EFC071481385018C01468545EFC0D13E91
:1033E000484C1386018C93050004EFA0212908485E
:1033F0008145EF702049B7D5020008D09385059C20
:10340000EF709050085093054B1DEF8061260850D7
:103410001306C005B145EF80F124085065469305B9
:103420008008EF9021451385418CEFC0D12B0145D9
:10343000EFF03FD62A86930599081385418CEFC09B
:10344000914113864A069305E9081385418CEFC024
:103450009152930509081385418C0946EFC0D13676
:103460001385418C094693050003EFC0F13513061F
:10347000F00F9305C0031385418CEFC0B14613854F
:10348000192BEFF01FD12A86930590031385418CE9
:10349000EFC0713C1385418C1146C145EFC0D1325C
:1034A0001385418C1146CD45EFC011321385418CF7
:1034B0001146C945EFC051311385418C0146854500
:1034C000EFC091301385418C014693050005EFC094
:1034D000B12F08501386418C8145EFA0211A138526
:1034E000818CEFC051201306F00F9305C0021385A5
:1034F000818CEFC0313F1305FAFFEFF09FC92A8698
:10350000930590021385818CEFC0F1341385818C73
:1035100001468545EFC0512B08501386818C9305D9
:103520000004EFA0A11508488145EF70A035B7D57C
:10353000020048D09385859CEF70103D485093055C
:103540004B1DEF80E112485013066008B145EF8033
:1035500071114850654693058008EF90A13113859D
:10356000C18CEFC051180145EFF0BFC22A86930508
:1035700099081385C18CEFC0112E13864A06930556
:10358000E9081385C18CEFC0113F93050908138525
:10359000C18C0946EFC051231385C18C09469305A0
:1035A0000003EFC071221306F00F9305C0031385CB
:1035B000C18CEFC031331385192BEFF09FBD2A86E4
:1035C000930590031385C18CEFC0F1281385C18C3E
:1035D0001146C145EFC0511F1385C18C1146CD4521
:1035E000EFC0911E1385C18C1146C945EFC0D11D96
:1035F0001385C18C01468545EFC0111D1385C18C13
:10360000014693050005EFC0311C48501386C18C5C
:103610008145EFA0A1061385018DEFC0D10C1306E3
:10362000F00F9305C0021385018DEFC0B12B130578
:10363000FAFFEFF01FB62A86930590021385018DDD
:10364000EFC071211385018D01468545EFC0D1176B
:1036500048501386018D93050004EFA0210208480D
:103660008145EF702022B7D5020008D49385059DCF
:10367000EF709029085493054B1DEF70717F08542B
:103680001306200BB145EF80E17D08546546930594
:103690008008EF90211E1385418DEFC0D1040145B4
:1036A000EFF03FAF2A86930599081385418DEFC04F
:1036B000911A13864A069305E9081385418DEFC0D8
:1036C000912B930509081385418D0946EFC0D10F51
:1036D0001385418D094693050003EFC0F10E1306D3
:1036E000F00F9305C0031385418DEFC0B11F138503
:1036F000192BEFF01FAA2A86930590031385418D9D
:10370000EFC071151385418D1146C145EFC0D10B36
:103710001385418D1146CD45EFC0110B1385418DA9
:103720001146C945EFC0510A1385418D01468545B3
:10373000EFC091091385418D014693050005EFC047
:10374000B10808541386418D8145EF90317313857C
:10375000818DEFC041791306F00F9305C0021385E8
:10376000818DEFC031181305FAFFEFF09FA22A8672
:10377000930590021385818DEFC0F10D1385818D26
:1037800001468545EFC0510408541386818D930589
:103790000004EF90B16E08488145EF00701648D4E0
:1037A0009305803EEF00D02A485413064006814519
:1037B000EF00D02F4854014693056004EF00700BD2
:1037C0004854394693058011EF80C1694854194621
:1037D000F545EF90210A1385018BEFC0C1701306E8
:1037E000F00F9305C0021385018BEFC0B10F37D5E1
:1037F000D4001305957DEFF0DF992A86930590029A
:103800001385018BEFC031051385018B2946854552
:10381000EFC0817B1385018B014693050005EFC046
:10382000A17A48541386018B8145EF903165138549
:10383000418BEFC0416B1306F00F9305C002138557
:10384000418BEFC0310A1385192BEFF09F942A8624
:10385000930590021385418BEFC0E17F1385418B67
:1038600029468545EFC0417648541386418B8545EE
:10387000EF90D1606FC07F995E210A218507338563
:10388000A7404205418582807E212A218507338514
:10389000A740420541858280EFC29F9500410840C4
:1038A000EFA0410CFD571EA4930745016319F400D6
:1038B0007E201EA10840EF80014A6FC0BF9593078C
:1038C0000502E319F4FE7E207EA1EDB7EFC25F9200
:1038D0000EA50841EF8021486FC0DF93EFC25F91D2
:1038E0005D712EC632C43684EFA0C1070317840071
:1038F000FD57AA842246B2456317F70483170600D2
:103900005EA06EA00EA222858145EFC0501F080860
:10391000EFC0301AB74700009387C78C3ECA9307A1
:1039200000103ED8B7470000938787893ECE839723
:103930000401080822C83EDA02D402D6EFC05021A2
:1039400061616FC03F8D7E2065BFEFC2DF88A147F8
:103950002A843289639CF5040422EFD0001A11E90D
:1039600037D50200A28501461305859EEFD0401988
:1039700001A02285EF90117F85C085476385F40201
:103980002322090083A7018E4A86A14522858297BA
:10399000AA8426856FC07F87130584022322A9008D
:1039A00075D18544FDB713050503CDBF83A7018EEF
:1039B000AE8982978547AA84E31DF5FC9D47639AEB
:1039C000F900B7D502009385859F4A85EFA0C119FC
:1039D000C1B799476392F90885452285EFB08128E0
:1039E0003E381397070141876353A700AA873EB863
:1039F000494681452285EF90810A4D4681452A89B5
:103A00002285EF90C109AA89414681452285EF9020
:103A10000109AA84454681452285EF904108CE8759
:103A200063533901CA8713970701418763D3E400C1
:103A3000A6871397070141876353E500AA87C2074A
:103A4000C187E3D007F603172403B307F04063D31D
:103A5000E700BA873EB8B1B7E39509F485452285FA
:103A6000EF80410B2285EF90F16F2A84814551054B
:103A7000EFC0F008814513050402EFC0500811BFE4
:103A8000EFC20FF4094771716318E60083A7C18D77
:103A900082974D616FC08FF62A842E8A63150624A3
:103AA000E808EF3041001306300381452285EF809E
:103AB000117F19C123080106F008814522852300E2
:103AC000010A930C0401EFA0610CF008D285668511
:103AD000EF30C1022285EF90F1682A8D2285EF80B8
:103AE000D10EAA8D2285EF70D171AA842285EF7044
:103AF00071738346CD0203164D0003172D008D8A86
:103B000085452A893308E6408148639CB600635A9C
:103B100007006358C00083186D00B388E84093B86D
:103B2000180049468145228546C442C2EF8031775C
:103B30004D468145AA8A2285EF80717641468145AE
:103B40002A8B2285EF80B175AA8B45468145228557
:103B5000EF80F174A248124893098D009307840105
:103B60003EC0CE86668710238247050790A2850651
:103B7000E31BF7FE03578D008356AD00C20AC20B4C
:103B800093DA0A0193DB0B015697DE9613160701B1
:103B9000939506010357CD008356ED00420B131C8D
:103BA0000501135B0B01135C0C0133076741B386FE
:103BB00086414207C20641824183C181C1822314EA
:103BC000CD002316ED002315BD002317DD0063CEC5
:103BD000240585068D8EC206C1860D476340D70237
:103BE00009473347E902362836974207418393064F
:103BF000E7FF09072315DD002317ED000317CD00AC
:103C000083158D000316ED008316AD0063D02415D7
:103C10000506158E4206B745000041861303AD0028
:103C20001305ED009385858835AA0507118F420796
:103C300041878D46E3C4E6FC094733C7E4021628F2
:103C40003697420741839306E7FF09072314DD00F7
:103C50002316ED0065B703176D003307E7413307FF
:103C6000C70233470703A9A283160D00B386E641B6
:103C7000B386C602B3C6060351A22310B3001AA12D
:103C8000DDAAB38605418506C206C18663DCE6006F
:103C900016A1831605000317030063DEE61C23103C
:103CA000D300F1BF1AA12310D300E5B70357ED00ED
:103CB0008357AD00050739A4050B330B5B41420B5D
:103CC000135B0B418D4763CC67318947B3C4F40262
:103CD0001E28BE94C204C1809387E4FF8904FC8639
:103CE00023109102EDAC05476304E600014555B38E
:103CF000130630038145EF80915A6DD9E808EF2013
:103D0000915AF00881452285230401062309010800
:103D1000230D0106230301082300010AEF90116718
:103D2000F008D2851305040191A64E8582950547BA
:103D30006343A71439A616218506B386C64123100E
:103D4000D3001A213307D7411AA1E5A8130617009B
:103D50000D8E4206B745000041861305CD004E8307
:103D600093858587031E8D027D57031F2D00E30475
:103D7000EEEE03174D023307E7413307C702B346A0
:103D8000070303176D023307E7413307C702939E0A
:103D9000060193DE0E41334707034207418733078D
:103DA000D7413307C703130E00103347C7033697B5
:103DB000831ECD014207FD564187E387DEEA831665
:103DC0008D01B386E641B386C60233CE0603831661
:103DD000AD01B386E641B386C602131F0E01135F21
:103DE0000F41B3C60603C206C186B386E641B38659
:103DF000D603930E0010B3C6D603F296C206C18650
:103E0000139E0601931E0701135E0E0193DE0E0141
:103E1000E3C324F3054F639DED01B306C0413307AF
:103E2000D0411A8EC20642072A83C1864187728515
:103E3000035E0300F29616A1835603003697231003
:103E4000E300E38408EE83162D00831505000317B5
:103E50000300B306D0403386C60233480603420847
:103E600013580801E3CF24E1429742074187E35604
:103E7000B7E02310E300054681452285EF803142FB
:103E8000931D050193DD0D012687635399004A8731
:103E90004207418705876356B701931D070193DDEC
:103EA0000D01E808EF203140F00885452285EF90AC
:103EB000F14D93961D00E3CB24DF0357CD008357CC
:103EC0008D000507B307F740C207C18763D2F60428
:103ED00003488106834601070347010AF008D2859B
:103EE0004E852A4D42C636C43AC223040106230831
:103EF00001062300010A02C5EF2051403248A246C4
:103F00001247230401072308D1062300E10A6AC5EA
:103F10001E2813960D018146D697FC825E284186A5
:103F20004C08B3876741FC843E284810DE97FC8329
:103F30007E28B3878741FC85EF20C1418145481029
:103F4000EF20812203480107834D010A2A8D2308AF
:103F50000106230301082300010AE6877408902361
:103F60000247850790A28506E39BE7FEBC860355C2
:103F70002102BE9ABC87330C8541C20ABE9B83577F
:103F80000102C20B420C338B6741420B93DA0A01E8
:103F900093DB0B01135B0B01135C0C01231E51011E
:103FA000231F71012310610323118103E3C624D170
:103FB000050C330C7C41420C135C0C418D4763C0F3
:103FC000870389473349F9023E283E99420913592C
:103FD00009019307E9FF0909FC872311210303164F
:103FE000C1058146CE85880042C0EF20A1368145BB
:103FF0008800EF2061179308C101AA84F008468564
:10400000D285EF20B12F0248F008D2854E852308D3
:10401000010723040106230301082300010A02C546
:10402000EF20D12D2685EF20E11A6A85EF20811A35
:10403000F008D2854E852300B10B23080106EF203E
:10404000F12BE808EF203126F00881452285230472
:104050000106230801062303010823090108230D93
:104060000106EF90B132F008D2856685EF20112964
:10407000B5B9EFC2EF972A84AE843289EFC0F0273A
:1040800011E937D50200A28501461305859EEFC0D0
:10409000302701A02285EF90F10C8316050063887C
:1040A000D4047A213E211316070193950701C18597
:1040B000418663D3C500BA875A211316070141868A
:1040C00063D3C40026879395070113160701C185A2
:1040D000418663D3C500BA8793950701C18563887C
:1040E000B600631809000EA12285EF70D1466FC09B
:1040F0006F92930645012A862285EFF02FFEC5BFF9
:10410000EFC26F8DAE89EF80C12DAA84EFC0F01E83
:1041100011E937D50200A68501461305859DEFC03C
:10412000301E01A0A1C81384018E1C4089E726859A
:10413000EF90417E08C01384C18D1C4089E726851D
:10414000EF90C17F08C0930580032685EF70A169B9
:104150002A84EFC0901A11E937D50200A2850146E2
:104160001305859DEFC0D01901A001E82685EF90C9
:10417000D110814426856FC04F89930740065CC0EB
:104180009307800C1EA8FD575EAC1EB48347C40283
:10419000130904034A85F19B2306F402232004003B
:1041A00044C8232C040004D023220402EFB01138A9
:1041B000B74500009385A5942685EF70C15BB74590
:1041C0000000938505A82685EF70215F639709029B
:1041D00026858145EF708136268529469305800C1A
:1041E000EF8041698315040026850146EFF07FE8E2
:1041F00091452685EF70004FB5BF4E85EF908176D3
:1042000083172500930505033EA0831765007EA054
:10421000831745005EA0831705001EA05C554A85E4
:1042200013F737008347C402F19BD98F2306F402AA
:10423000EFC0811326851306F00F9305F00FEF9062
:1042400081318315040001462685EFF09FE21DB7FA
:10425000EFB21FFA2A84AE84EFC0300A11E937D5D5
:104260000200A28501461305859EEFC0700901A0DA
:104270002285EF90216F06A96FB0DFF9EFB25FF7EB
:1042800041112AC6EFC07007B24509E937D50200CF
:1042900001461305859EEFC0B00601A02E85EF9064
:1042A000616C485541010D896FB0DFF6EFB2BFF286
:1042B000AA842E89B289EFC0500411E937D50200D3
:1042C000A68501461305859EEFC0900301A02685B3
:1042D000EF904169831725002A846396270183178D
:1042E00045006387370523123401231124012685F5
:1042F000EFF0DFF889476304F500231324018317E7
:10430000040063D9F900231034010146CE852685C7
:10431000EFF03FD68317040063D92701231024014F
:104320000146CA852685EFF0DFD42685EF70B122DD
:104330006FB0BFED81472147B386F5009022B306E9
:10434000F500850790A2E399E7FE8280C167FD171B
:104350006389F504EFB2DFE94111AA842E84EF905E
:1043600061605C41931534000A85BE95EFF09FFCB7
:104370002C002685EF70415F38843C8034818A852B
:10438000BA977C803C852685BE96748134823697A8
:1043900078823883BA977C83EF70911741016FB0B0
:1043A0007FE78280EFB2DFE141112A84AE8BEF908C
:1043B000615B8A85AA8A2285EF70015B2285EF7096
:1043C0004164AA892285EF70E165494681452A8AC0
:1043D0002285EF80C16C4D4681452A8B2285EF8076
:1043E000016C41468145AA842285EF80416B454698
:1043F00081452A892285EF80816A2A8C5146814530
:104400002285EF80C1698947B347F5020589654771
:10441000E54DAA978507C207C1876343F700BE8DA4
:10442000C20DE54793DD0D41268463D397006544B3
:104430004204E5474184CA8463D32701E544C204AA
:10444000E547C184628963D38701654942091359ED
:104450000941B3898940330A2A41014D5A8CE54C00
:10446000F919791A83D74A016372FD0883A74A00B4
:1044700093153D002800BE95EFF0DFEB0317810098
:104480003C80634FEB063E97E28663D36C01E546C2
:10449000158F4207418778840316A1003881B3063F
:1044A000C700C206C18263C1C406858EC206C1862A
:1044B00074858316C100B697C207C18363C93605E8
:1044C000A2978316E100C207C1877C86B307D70095
:1044D000C207C18363CF4603CA97C207C18701469B
:1044E000DE8528007C87EFC0C00F15C583D74A0141
:1044F0006394A701416D7D1D6A8541016FB01FD096
:104500003E973307B74171B7B386B64145B7EE97CB
:104510004DBFEE97D9B7050D420D135D0D0199B74B
:10452000EFB21FCA39712A84AE89EFC0005D11E96C
:1045300037D50200A28501461305859EEFC0405C79
:1045400001A04E85EFC0605B11E937D50200CE8532
:1045500001461305859EEFC0A05A01A02285EF9069
:104560006140AA8B8144014937DA02009397240005
:10457000CE97884383070500A9E72285EF90813E07
:104580005E29AA8463892709484109C5EFC0303FE5
:1045900023A20400884409C5EFC0703E23A4040090
:1045A00013153900EFC0B033C8C0EFC000551DE58A
:1045B000CC4037D5020001461305859DEFC040541D
:1045C00001A093050AA0EFB03FD009C50509420933
:1045D000135909018504C204C18049BF131519008C
:1045E000EFC0F02F88C4EFC040519C4411E937D58B
:1045F0000200BE8501461305859DEFC0605001A0F5
:10460000D84011C391E30149931519003E85EFD0BD
:104610000003239A24014946814523A03B012285BA
:10462000EF80E1472ACE4D4681452285EF80214724
:10463000AA84414681452285EF8061462A8A454603
:1046400081452285EF80A1452A89514681452285F1
:10465000EF80E1442ACC2285EF70A13ABC86139BFF
:104660000401135B0B0133876701198D3EC4931757
:104670000501C1833EC62285031CC100EF70813A4B
:1046800093170901C1833389470133092541420941
:1046900013590901814A854C37DD020013972A001E
:1046A0004E970843030705003DEF835A81011385A8
:1046B000FCFF93C7F7FF3385AA023ED49347FBFF65
:1046C0003ED6B3079C40854D3ED83305A9404205F0
:1046D00013D91C0041854A953345950301497D1541
:1046E000131D0501135D0D418144014B9397240077
:1046F000CE9703AC07003EC8B7D70200938507A04A
:104700006285EFB07FBC83070C0039CD85EF228531
:10471000EF704131A257B38747413E95131D050104
:10472000135D0D4199A093050DA03EC2EFB0DFB916
:10473000924709E513851C00937CF50F850A93FACF
:10474000FA0FA9BF03A78B00B30799008607BA9792
:104750009C239D8B91E385473E9B8504420BC204BD
:10476000135B0B01C18059B7DDD32285EF70F14592
:104770002AC28DC89307FBFFB387FA023247014C68
:10478000B307F740C207C1873ECAB3079900C20703
:10479000C1833ED2B307AA01C207C1873ED0925758
:1047A0006312F90293871A003E9AC2476A9A420A34
:1047B0009C43135A0A4183870700EDC785048A0486
:1047C000A6991DB783A78B0013171900BA9703C8C2
:1047D0000700937C780063930C00854CD2471387C5
:1047E000FCFF3387EA029246B3879703B3C7670398
:1047F000BA975247FD17C207B305EC02C183B3C590
:10480000650333878A03C205C18142074183639FE1
:10481000B60722853ADE2EDC3EDAEF70811EB257F3
:104820007257E2553387E740D257B305B7409D8DA5
:10483000AA95C205C18583A84B00B386B700630B58
:104840000904624721EB72476385E5001247631B49
:10485000B701C2074257C187AE97639DE7029247EF
:10486000639AB70313153900469502578315C5FFA0
:10487000C206C1865286669C0509420C4209EFB009
:10488000F040135C0C011359090111BFA246369781
:10489000BA9545B713153900C2060257C18652862C
:1048A0004695D1BF2285EF70014B21616FB01F95F6
:1048B000EFB21F9441112EC62A84EFC00024B245E6
:1048C00011E937D50200A28501461305859EEFC088
:1048D000202301A022852EC6EF90C1085229AA8468
:1048E000B24508450606EFC0701A8C402285EFF0ED
:1048F0003FC341016FB01F92EFB2FF8DAE89EF70E1
:10490000512E2A84EFC0601F11E937D50200A2851D
:1049100001461305859DEFC0A01E01A021C0938410
:10492000818E9C4089E72285EF80D17E88C09305E7
:1049300000022285EF60316BAA84EFC0001C11E9F0
:1049400037D50200A68501461305859DEFC0401BA3
:1049500001A081E82285EF904112014422856FB0C9
:10496000DF8AC177DCC8FD579CCCDC2C1389C400DE
:1049700023A20400C19BDCAC23A4040023A00400F8
:104980004A85EFB0A13A9C4893E707209CC89384DE
:10499000418E9C4089E72285EF80517A88C0B755C7
:1049A0000000938505C72285EF60F15CB7550000D4
:1049B0009385E5572285EF60516063950902B7053D
:1049C0000020228593858507EFF09FB52285130689
:1049D00040069305800CEF70F16999452285EF60E0
:1049E0007050ADBF4E85EF80F1770C41AA842285CF
:1049F000EFF01FB38C442285EFF09FEB9385C4004A
:104A00004A85EFB0711699BFEFB28FFE41112EC6E5
:104A1000AA843284EFC0600EB24511E937D5020096
:104A2000A68501461305859EEFC0800D01A0268551
:104A30002EC6EF8031735E29B24563FEF5001C453A
:104A4000139715001344F4FFBA9792232685718CAF
:104A500082A3EFF0BF8F41016FB0CFFBEFB2AFF792
:104A6000AA84AE89EFC0600911E937D50200A68596
:104A700001461305859EEFC0A00801A02685EF80A2
:104A8000716E2A890144835749016364F4006FB051
:104A9000CFF7A28505044E8626854204EFF0DFF6A7
:104AA0004180D5B7EFB22FF32A84AE843289EFC0AC
:104AB000C00411E937D50200A28501461305859E81
:104AC000EFC0000401A02285EF80D1695E29AA8988
:104AD00063FDF4025C2D898B99CB9377090881CB18
:104AE000930500082285EFF07FF7239D990083A7A7
:104AF000890013971400A685BA979A2322853369F3
:104B0000E90023902701EFF07F846FB00FF0EFB240
:104B10002FEE41112AC6EFB0507EB24509E937D5D4
:104B2000020001461305859EEFB0907D01A02E8501
:104B3000EF8051632A2D41016FB0CFEDEFB2AFE9A5
:104B40002A842E8AEFB0707B11E937D50200A28546
:104B500001461305859EEFB0B07A01A02285EF8053
:104B60007160835A4501AA89014563E04A03814483
:104B7000014437DB0200631C9A00014563075A01B8
:104B800083A709000A043E9408406FB00FE8130998
:104B90001400420983A709001359090113172900BA
:104BA000BA9788438504C20493050BA0C180EFB077
:104BB000AFF111E5090413190401135909014A84DD
:104BC0005DBFEFB2EFE22A84EFB0307311E937D561
:104BD0000200A28501461305859EEFB0707201A008
:104BE0002285EF8031582E2DC167FD170145638561
:104BF000F5002285EFF09FF46FB0CFE1EFB24FDF09
:104C00002A892E84B284EFB0506F11E937D50200A3
:104C1000CA8501461305859EEFB0906E01A04A85B6
:104C2000EF8051545E2901466379F4000C45060477
:104C30002E940A20E98C3336900032856FB08FDDD8
:104C4000EFB20FDB130600082A84AE84EFF01FFBDF
:104C50002A89930500082285EFF05FE063080900C8
:104C600013060008A6852285EFF0DFE36FB08FDA28
:104C7000EFB26FD6A1474111AA84B289639CF504B3
:104C80000022EFB0906711E937D50200A6850146F2
:104C90001305859EEFB0D06601A02685EF80914C6C
:104CA00011CC85476306F40223A2090083A7818EF5
:104CB0004E86A145268582972A8A39A013858402CB
:104CC00023A2A900054A7DD1528541016FB0EFD3DF
:104CD0003105FDB783A7818E2E89829785472A8A61
:104CE000E314F5FE9D47631AF900B7D502009385DA
:104CF00045A04E85EF805167C1B72685EF8091466C
:104D00002A84631D090085452685EF60B16048400F
:104D1000EFC0E0460844EFC080467DB7914A631774
:104D200059010C402685EFF0AFFF79BF094B631D99
:104D300069032685EF60F14C83D7490003D709004A
:104D40008507998FC207C187E31DF5FC2685EF60B3
:104D5000714D83D7690003D729008507998FC20752
:104D6000C187E310F5FC8DB7AD476317F90A6E29CB
:104D70002685EFF0AFDDEF50C159EF50E159937741
:104D8000D50F639C47072C004E85EF50A1602C0087
:104D90002685EFF02FE1C167FD172A896309F50227
:104DA0001C4413171500BA979A2393573740158759
:104DB000D98F858B89EF6E282685EFF02FD9CA858C
:104DC000231B2401231D24012685EFF02FD87A28E8
:104DD000C167FD17E30AF7EE1C4493161700B69758
:104DE0009E2393D6574013D68740D18E8D87D58F7B
:104DF000858BE39B07EC3AC681AA631665010E2CEE
:104E00006EA82EACD1B7E31455FD2685EF8011387E
:104E1000EF50E1166DF565BFB1476318F908EF5023
:104E2000414F2A89EF50414F79151375D50FE30D86
:104E300005E84A852C00EF50E1552C002685EFF05F
:104E40006FD66E282A89E301B5E8C167FD1763852F
:104E5000F5002685EFF08FCF231B2401231D2401AD
:104E60004E85EF502151C167FD17E30FF9E4184457
:104E7000931919004E971A23935757400D87D98FCE
:104E8000858BE39307E4CA852685EFF02FCC1C447D
:104E9000CE979E23A187858BE39807E27000C145DA
:104EA00026854AC6EF60310905B5B9476317F90A87
:104EB0007A29C167FD17E309F7E093171700184532
:104EC0003E971E2393D66740858A85CA93D657405E
:104ED000858A85E693D67740858AADCE542D898A1A
:104EE000B5EA93F7F7F7C207C1831EA35C2C898B41
:104EF00089C76E282685EFF0BFD46E282685EFF08F
:104F0000EFC40E2C2685EFF06FC4EF508140EF50B8
:104F1000A14079151375D50F19E17E281EACFD57F8
:104F2000362C7EA81C4413971600BA979A239357E1
:104F30008740858BE38A07D8935757400D87D98FD1
:104F4000858BE39307D836C67000C1452685EF6090
:104F5000817E9DB393E7070849BFC1476311F902FA
:104F60003A2DC167FD17E301F7D61C4593161700CC
:104F7000B6979E2393D6474013D65740BDB5B54745
:104F80006319F900FD577EA93EAC2685EF60B15C40
:104F900025BBD9476311F904EF50A1372A89EF5097
:104FA000A137631709000145EFD02053EF50C136F8
:104FB0009147631EF5002685EF80511DEF40317C3F
:104FC00001C5232C040009B3FD571EACF5B9894770
:104FD000E31CF5CEFDB79377D90F55476397E702EA
:104FE0000E2DC167FD176385F5002685EFF00FB61E
:104FF0006E28C167FD176385F5002685EFF00FB5B4
:10500000FD577EA8FD571CCCC1B1E1476313F916CB
:10501000838709004D476393E7021E2DC166FD1685
:1050200001476386D70085071397070141835E28F0
:105030001AACFD176347F7061EACA5A05147639D48
:10504000E7001A2DC167FD176314F700231C050044
:105050001E2CA1CBFD17CDB749476397E7085146F2
:1050600081452685EF70B1231E2C41677D1763951E
:10507000E700231C040035A0584013963700035363
:1050800044013A965A221622939817000507158F65
:10509000420741870587369742074187B28663E416
:1050A00067001E2CD5B5039826008315260063D70C
:1050B0000503839506006343B70283954600AA95CE
:1050C00063CEE5000C44C69503D8050093555840BF
:1050D00013583840B3E505018589B9DD8507C20756
:1050E000C183A106890865BF4547E39FE7BC5146D8
:1050F00081452685EF70B11A1E2C41677D17E38A22
:10510000E7F6544093953700C207B695DA2192210D
:10511000C1870507118F42074187058732974207EC
:10512000139637004187B29613960701E34B06F6B4
:105130000398260003962500635AC80203960600CA
:10514000098E6345C702039646006341E602104498
:1051500013981700429603580600135658401358E8
:10516000384033660601058AE30806ECFD17E116B0
:1051700065BFE547E31AF9B485472380F900A9B66E
:10518000EFB20F8741112AC6EFB03017B24509E9D7
:1051900037D5020001461305859EEFB0701601A0B9
:1051A0002E85EF80217C484D8D4709810D89631341
:1051B000F500014541016FB0EF85EFB26F8083A725
:1051C000418E130101DD01462A842EC68297228575
:1051D000EF8041795E29638F0738AA848C0022858D
:1051E000EF608178228503C9C401EFF07FF985471C
:1051F000137919006318F51813694900854522854C
:10520000034BD403EF6051138811A30E0402EF1077
:1052100091098808EFF04010901185452285EF80B4
:10522000F116900885452285EF80317581452285EC
:10523000A30E6403A3082107EF60111041468145C6
:105240002285EF70D1052AD0454681452285EF7031
:105250001105B7070040FD173ED293774B002ACEC9
:1052600002C4814D814A8149B7DB02003ED4DE2869
:1052700063F2F93003AC040093972A003EC8E2972A
:105280008843568A93850BA0850AC20AEFB0CF8364
:1052900093DA0A0175D19C44139C1900E2979E236E
:1052A000A18B6391072CDC4093953900A800BE9533
:1052B000EFF04F8803558104035601048355A10480
:1052C00083562104B307C5002314F104B387D50026
:1052D0002315F1048357E1040357C104BE968507E3
:1052E0008D8FC207C1873A963ECC05079C44098F33
:1052F00042074187E2972316C1042317D1043ACA13
:105300009A239357774013770702858B19C393E746
:105310000702FA286314370193E707019A2C6319EF
:10532000370722576305072493E767001307000236
:105330006392E7102247631C0714A30EF40285450D
:105340002285EF60617F2803EF10E1752809EFE007
:10535000B07C300385452285EF80510330098545B7
:105360002285EF8091618145A30E64032285A30C01
:10537000210BEF60617C8547930C8109130D811827
:105380003EC48DA08947E31BF5E613698900BDB5CE
:105390006385070E0547E39BE7F863950D0EA30EA3
:1053A000F40285452285EF602179481AEF10A16F3C
:1053B000C818EFE07076501A85452285EF80017D90
:1053C000D01885452285EF80515B8145A30E64038B
:1053D0002285A30A2109930C4107EF60E175130DA3
:1053E0004113854D031C2D0113770C016304070E37
:1053F0000317240182578316A1043E976396E600A3
:105400001377DCFF2319ED0003176401F2478316BD
:10541000E1041D8F6397E60003572D01799B231943
:10542000ED009440631A0A0603572D016D9B231962
:10543000ED0041A0A30EF40285452285EF60C16F07
:10544000E80BEF1041666819EFE0106DF00B854531
:105450002285EF80A173701985452285EF80F15177
:105460008145A30E64032285A30E210D930CC10B6D
:10547000EF60816C130DC11DB5B7930C0105130DC1
:10548000010E8DB7930C4107130D4113A1BF930C6F
:105490008109130D8118B9B7925793850BA036D6A1
:1054A0003307FA000A0736970843EFA0FFE1B25628
:1054B00025DD050A0A0AD29688420307050011C7AE
:1054C00093850BA0EFA05FE011E503572D015D9BD5
:1054D0002319ED00B2456A86A800EF102162424709
:1054E0009C4083960C0103A68C00BA9703AA070080
:1054F0008357410403570104D2858507998F039789
:10550000EC00C207C18768184A8823198D01EFC0D3
:10551000702A0316C103D24789458316E1033387F6
:10552000C7403347B70283578104A8003E97E2473C
:1055300042074183958FB3C7B7028355A104231453
:10554000E10432972316E10466860147AE97C2074D
:10555000B245C1832315F104B697D2862317F1040F
:10556000EFE0D05E8509C20993D9090109B393E739
:1055700027006DBB0145130101236FA03FC8EFA2B7
:105580003FC709476319E60083A7418E82972A84A3
:1055900022856FA03FC801E6EFF03FC2CDBF0547AF
:1055A0000144E317E6FE83A7418E8297D5B7814772
:1055B0002147B386F5009022B306F500850790A237
:1055C000E399E7FE8280EFA23FC0011185452A845E
:1055D000EF70213E631705202285EF80A1381C2142
:1055E0002A8993F7070F89E71C31BD8B638B071E50
:1055F0001387418F1C43938A418F85071CC329471A
:10560000634CF71C2285EF608123AA89930505016D
:105610000808EFF0DFF9494681454E85EF702148D3
:10562000BC804D4681453E95E8804E85EF70214710
:10563000BC82414681453385A740E8824E85EF70A4
:105640000146BC81454681453E95E8814E85EF7017
:105650000145BC832C00130B44003385A740E8832D
:105660002285EF6061308A852285EF60E12F5A85BF
:10567000EFB0B01213451500137AF50F630A0A064E
:10568000B787187C938787C13EC0B787E883938725
:10569000873E5A853EC2EFB0A070AA84930B0002E9
:1056A000130C0008894C214D639004144946814530
:1056B0002285EF70C13E3C804D4681453385A74031
:1056C00068802285EF70A13D3C82414681453E9530
:1056D00068822285EF70A13C3C8145468145338537
:1056E000A74068812285EF70813B3C833E956883AB
:1056F0002C002808EFF0BFEB83470900894613D739
:1057000047000D8B630CD71863ECE61885466314CD
:10571000D7003880F884998309476382E71A636267
:10572000F71A05476394E7003C82FC86834719001B
:1057300009478D8B6386E71A6366F71A05476394FA
:10574000E7003C81FC8583471900094789838D8BDD
:105750006389E71A6369F71A05476394E7003C8396
:10576000FC8703170401831781016314F7020317F1
:1057700024018317A101631EF70003174401831757
:10578000C1016318F700031764018317E101630582
:10579000F7042285EF60215C2C0813050401EFF06B
:1057A0001FE12285EF60215B5C4C3000894522853A
:1057B000829783A7C901228685454E8582972285D7
:1057C000EF60612801C52285EF6011285A85EFB08E
:1057D000205D2A846318051483A70A00FD1723A0FF
:1057E000FA0005616FA0DFA12685EF60C1454DE19C
:1057F0008347090093F70703638177035D4681457B
:105800002685EF70C12983970401031701003385B2
:10581000A7406353A7003A8568808347090093F740
:10582000070C63808703614681452685EF70212739
:1058300083974401031741003E956353E5003A8581
:105840006882834719008D8B638197035546814594
:105850002685EF70C1248397240103172100338527
:10586000A7406353A7003A85688183471900B18B2D
:105870006380A703594681452685EF7041228397AF
:105880006401031761003E956353E5003A85688320
:10589000A6855A85EFB00052AA8439B5B8809DBD5F
:1058A00003170101E3080AE63480139606014186D6
:1058B0006353C700BA86139706014187A1BDBC8216
:1058C000ADB583174101E3020AE63882931607015A
:1058D000C18663D3F6003E8793170701C187B1B530
:1058E000BC818DB583172101E30E0AE4388193163C
:1058F0000701C18663D3D7003E8793170701C1878D
:1059000091B5BC83B1BD83176101E30B0AE4388311
:1059100093160701C18663D3F6003E8793170701EC
:10592000C1873DBD5C4C30008D4522858297A285A4
:105930005A85EFB0204871BDEFA2FF89AA892E8950
:10594000EF60312A2A84EFB0401B11E937D50200FD
:10595000A28501461305859DEFB0801A01A015CCE4
:105960009384018F9C4089E72285EF70B17A88C0CB
:105970009384C18E9C4089E72285EF70317C88C07A
:1059800089452285EF5031662285EF70B17DAA846A
:1059900001E92285EF80610E014422856FA0FF8618
:1059A000EFB0A01511E937D50200A6850146130511
:1059B000859DEFB0E01401A09C30B7650000238006
:1059C0000400C19B9CB0938545192285EF50B15AC4
:1059D00063190900E38309FCAD452285EF5090501F
:1059E0006DBF4A85EF70117818211306F00F9305EB
:1059F000F00F9377070398201377F7FC5D8F98A03B
:105A00001C2193F6070C9377F703D58F9CA01831D0
:105A1000C19B937637009830719B558F98B01431A5
:105A20004D9BB18A558F98B0182122853D8BD98F17
:105A30009CA0EF70513295B7EFA2EFF92A89AE849E
:105A4000328AB6893A84EFB0400B11E937D50200AB
:105A5000CA8501461305859EEFB0800A01A04A85DC
:105A6000EF60612F4A85EF70F16F1C2113D747005B
:105A70000D8B631E97009983639B47011C318D8BAF
:105A800063973701183109830D8B630087041C313C
:105A90000348050093F9390093F7070F0D888D88A7
:105AA0000A04B3E73701C18F92041378F8001CB1E0
:105AB0001A0A336898008327C90133684801230014
:105AC0000501014685454A8582976FA00FF4EFA234
:105AD0002FF241112AC6EFB04002B24509E937D58D
