:040000006F2000531A
:1000040000000000000000009C0400009E040000AA
:10001400000000002E250000000000000000000089
:100024002E2500002E250000000000000000000026
:100034002E250000000000002E2500000000000016
:100044002E2500002E2500002E2500002E25000060
:100054002E2500002E2500002E2500002E25000050
:100064002E2500002E2500002E2500002E25000040
:100074002E2500002E2500002E2500002E25000030
:100084002E2500002E250000961600002E250000C7
:100094002E2500002E2500002E2500002E25000010
:1000A4002E2500002E2500002E2500002E25000000
:1000B400501400002E2500002E2500002E250000DF
:1000C4002E2500002E2500002E2500002E250000E0
:1000D4002E2500009207000012080000DC12000028
:1000E4002E2500002E2500002E2500002E250000C0
:1000F4002E2500002E2500002E2500002E250000B0
:10010400000000002E2500002E2500002E250000F2
:100114002E250000540500002E2500002E25000089
:100124002E2500002E2500002E2500002E2500007F
:100134002E2500002E2500002E2500002E2500006F
:100144002E2500002E2500002E2500002E2500005F
:100154002E2500002E2500002E2500002E2500004F
:100164002E2500002E2500002E2500002E2500003F
:100174002E2500002E2500002E2500002E2500002F
:100184002E2500002E2500002E2500002E2500001F
:100194002E2500002E2500002E2500002E2500000F
:1001A400000000000000000000000000000000004B
:0C01B4000000000000000000000000003F
:1001C000397101436EC619A0397141536AC866CAB4
:1001D00062CC5ECE19A0397101535AD056D252D496
:1001E0004ED64AD826DA22DC06DE3301614082820E
:1001F00041114AC026C222C406C68282B24D4101C4
:10020000024D924C224CB24B4101024B924A224A7F
:10021000B2494101024992442244B24041018280E4
:100220003D432A876373C3029377F700BDEFADE5C3
:10023000937606FF3D8ABA960CC34CC30CC74CC7D5
:100240004107E36BD7FE11E28280B306C3408A0602
:100250009702000096966780A6002307B700A306C2
:10026000B7002306B700A305B7002305B700A30412
:10027000B7002304B700A303B7002303B700A3020A
:10028000B7002302B700A301B7002301B700A30002
:10029000B7002300B700828093F5F50F9396850091
:1002A000D58D93960501D58D61B79396270097025A
:1002B000000096968682E78086FA9680C1171D8F89
:1002C0003E96E374C3F8A5B73367B500FD530D8BB5
:1002D00079E7B7877F7F9387F7F710419441B3722F
:1002E000F6003363F600BE92B3E262006395720CCF
:1002F0006318D6065041D441B372F6003363F6005A
:10030000BE92B3E262006396720A631BD604104584
:100310009445B372F6003363F600BE92B3E2620016
:10032000639F7208631ED6025045D445B372F6002F
:100330003363F600BE92B3E2620063987208631101
:10034000D60210499449B372F6003363F600BE92A8
:10035000B3E26200639172085105D105E30FD6F64E
:100360001317060193970601631CF7001357060144
:1003700093D706013305F7409375F50F91E9828015
:100380004183C1833305F7409375F50F91E1828076
:100390001377F70F93F7F70F3305F740828010219B
:1003A0009421050585056313D60075FA3305D640FB
:1003B000828011059105E314D6FE01458280210556
:1003C000A105E31ED6FC014582803105B105E31885
:1003D000D6FC014582804105C105E312D6FC0145EA
:1003E0008280EFF2FFE03971AA842E841305100297
:1003F000854532C602D202D402D602D802DA02DC25
:1004000002DE02CC02CE23100102EF20B01485459B
:100410001145EF20101685450565EF20C0658967F9
:100420002312F10237150140E1473ED64C108D47AB
:10043000130505403ED4EF204056E08437140040B9
:100440002C0813050480E486231F0100231D0100EE
:10045000EF20F0153246C167938707070C18130584
:1004600004803ED8231BC102231C0102EF20D01EB2
:10047000130504808545EF20902A130504808145EB
:10048000EF20102E130504808545EF20D02B8545E5
:1004900013050480EF2030272161ADBB01A0B70711
:1004A000EFBE37E700E0938707083CC701A0EFF2F3
:1004B0003FD4797185453705100002CA02CC02CEBF
:1004C00002D002D202D402D602C602C8EF20700ABD
:1004D000854513050003EF20F0078567FC828D47F3
:1004E0003ECC4C08E147371501403ECEEF20E04AB4
:1004F000914737150140FC824C0891471305054090
:100500003ECEEF208049F167938707203ED00C1044
:10051000B7070C00375500403ED402D22316010223
:10052000EF20302905469305505237550040EF2003
:10053000B032930750147C8685475C8768008547F6
:100540003EC8EF200061854537550040EF20702FF1
:100550004561C9B14111930550523755004022C63B
:10056000EF20F03315CD138401891A209307700210
:100570003755004063EAE702EF20F03116209387F9
:100580001600139707019387419A4183BE9688A26C
:10059000BA9783C5F7FF375500401AA0EF20302FD8
:1005A0003244410173002030EF20F02E231004006C
:1005B000C5BFEFF27FC1116579718545110537140B
:1005C000014002CA02CC02CE02D002D202D402D62C
:1005D00002C602C8EF2000788D4493070020E14B4B
:1005E0004C0813050480FC8226CC5ECEEF20E03A56
:1005F0009307004011494C0813050480FC82374AD8
:1006000001404ACEF169EF20403993890920370B28
:100610000C000C1013050A804ED05AD402D22316B7
:100620000102EF20101913050A8005469305505268
:10063000EF20902205469305404213050A80EF20E3
:10064000B02193075013854A7C86680085475C87F4
:1006500056C8EF20005013050A808545EF20701E14
:10066000854537050200EF20C07085451145EF2014
:10067000606E4C0813050480231A210126CC5ECE3F
:10068000EF20A031A1474C0813050480FC824ACE1C
:10069000EF20A0304ED0B74900400C101385094020
:1006A0005AD402D223160102EF20B010138509405C
:1006B000054693055052EF20301A054693054042F7
:1006C00013850940EF2050199307601368007C865A
:1006D0002307510156C8EF20C047138509408545BF
:1006E000EF20301685455145EF20C066414A4C0841
:1006F00037150140231A41014ACEEF20002A930901
:1007000000024C0837150140231A31014ACEEF2070
:10071000C02841494C0813050480231A41014ACEE0
:1007200026CCEF20802713050480C145EF208033BD
:100730004C0813050480231A31014ACE26CCEF2041
:10074000C0251305048093050002EF20A031930714
:1007500000044C0813050480FC824ACE26CCEF200E
:10076000C0231305048093050004EF20A02F9307F6
:1007700000084C0813050480FC824ACE26CCEF20EA
:10078000C0219305000813050480EF20A02D4561CA
:1007900085BC411126C4B7440140930550521385CE
:1007A000048022C6EF20B00F05C5138421891A20CA
:1007B000930770021385048063E8E704EF20B00D0F
:1007C0001A20930717001EA09387C19CBA9788A38D
:1007D000B74401409305404213850480EF20300C5C
:1007E00019CD13850480EF20100B138421890E206E
:1007F00099C513850480EF2090092310040032442A
:10080000A244410173002030EF20F00823100400BF
:10081000C1B7411126C4B744004093055052138517
:10082000044022C6EF20B00705C5138441891A2071
:10083000930770021385044063E8E704EF20B005D6
:100840001A20930717001EA09387419FBA9788A389
:10085000B74400409305404213850440EF20300424
:1008600019CD13850440EF201003138441890E2015
:1008700099C513850440EF209001231004003244F1
:10088000A244410173002030EF20F0002310040047
:10089000C1B7B7070460F917BE234111C207C1836E
:1008A0007C8728874101828003D741A2B707046073
:1008B000239FE7FE82809387C1A1D6232567130774
:1008C00017346396E602B227B7060460239FC6FE7C
:1008D0001356850092A21375F50F8AA2DE27239F77
:1008E000F6FE93D785009EA293F5F50F8EA2828027
:1008F0001387C1A16C235623054625679387C1A1A1
:10090000130717346399C5046399E6041D476366AA
:10091000A7001387C1833A9508217D151375F50F3C
:100920009946014763E6A600138741843A9518214A
:10093000B706046013056003239FA6FE9365870036
:100940008EA2137707029623B22309CB63FAC6005F
:1009500092A3B6A331A0E382E6FC8280E36AD6FECE
:10096000B62737060460231FD6FE23100600231087
:1009700006009623FD1693D58640C205C1810EA2BE
:1009800093F6F60F16A2D627231FD6FE23100600D5
:1009900023100600BE23FD1793D68740C206C182EE
:1009A00016A293F7F70F1EA24DBFEFF27F841387B5
:1009B000C1A156239387C1A10DE9370740012383C5
:1009C00007001307070F98C3256713071734639AA7
:1009D000E60037072A001307C70298C71307B002BB
:1009E000DAA7014531376FF0FF820547F8A33707D3
:1009F000F00013070714C1BFEFF28FFF41118545C7
:100A0000114502C202C402C6EF20C034E177371498
:100A100001407C82C1473EC64C008D4713050480CF
:100A20003EC4EF109077A16513050480EF2080038A
:100A300041016FF02FFEEFF2AFFB9387C1A19A2324
:100A4000A2238145AA8401453304E402AD35A93DC2
:100A5000814737070460639487006FF0AFFB06A3FC
:100A60008507D5BFEFF22FF71971371401406937A9
:100A7000A16513050480EF10307F13054006EFF0E9
:100A8000915F13050480A165EF10D07D85451305A6
:100A90000010EF20402A854513058006EF20802BAB
:100AA0008D449167C149130504C08A857C804EC47A
:100AB00026C2EF10906EF17793873773614A130562
:100AC00004408A857C8052C426C2EF10106D372501
:100AD0000140930700F88A85130505807C8052C485
:100AE00026C2EF10906B1305044005698A85231018
:100AF000210152C426C2EF10506A130504401309A5
:100B000009808A85231021014EC4056926C2EF1091
:100B1000D0689305098013050440EF10F0748547F1
:100B20003EC6BD473ECA9167BED87C00BEDCC80049
:100B30003C10BEDE02C802CC02D202D402D626D8B5
:100B400002DA02DC02DE82C082C282C482C6CEC861
:100B500082CA82CE82CC82D082D2CAD482D682DAB3
:100B6000EF10F05685450145EF1050611305200345
:100B7000EFF07150B7070460239F07FE193B93877E
:100B8000C1A1130715F0CAA34207C1674183938728
:100B9000F7EF1384C1A163E7E700A56793870730E8
:100BA0006313F502B70704601307300D239FE7FEB8
:100BB000CD314AA0F9394AA0E93922054AA0D139F4
:100BC0005E205D8D4AA05A20A56793871734631C69
:100BD000F71E370404601307F00C9307E4FF231F8C
:100BE000E4FE239107001306100CB2A313070003C1
:100BF000BAA39306D00E231FD4FE93064006B6A3D5
:100C00008D46B6A3C946B6A393061008B6A39306AD
:100C1000800E231FD4FE93065008B6A3C146B6A388
:100C20009305A007AEA39305B00C231FB4FE930554
:100C30009003AEA39305C002AEA3239107009305D2
:100C40004003AEA38945AEA39305700F231FB4FEE6
:100C500093050002AEA39305A00E231FB4FE2391BB
:100C60000700239107009305000C231FB4FEED45F8
:100C7000AEA3231FC4FE0546B2A39305500C231F49
:100C8000B4FEBAA3BAA31307700C231FE4FE130724
:100C9000700BBAA313076003231FE4FE130780043D
:100CA000BAA31307A003231FE4FE13075005BAA33A
:100CB0001307100B231FE4FE239107006947BAA313
:100CC0001307600B231FE4FEA945AEA31307200AF8
:100CD000BAA31307200F231FE4FE23910700130775
:100CE0006002231FE4FEB2A31307000E231FE4FEDD
:100CF0003D47BAA31305A002AAA3130880022391BB
:100D00000701214823910701B94823911701239135
:100D1000070113084005239107011308900A239146
:100D200007011308300423910701AEA3BAA323914E
:100D300007002391070023910700239107009305E3
:100D4000100E231FB4FE23910700D545AEA3DD4549
:100D5000AEA39D45AEA3C545AEA319482391070197
:100D60001308B0022391070193086005239117012E
:100D70009308C00323911701954823911701B6A347
:100D8000BAA39306F003B6A3B6A3BAA3231F04FF26
:100D90002391070023910700B2A3B6A3231FA4FE4B
:100DA0002391070023910700239107001307F00EFA
:100DB000BAA3231FB4FE13058007EFF0D12B9307CE
:100DC0009002231FF4FE0145CD3637150140916591
:100DD000130505C0EF10104941657D15A93909615A
:100DE0006FF0AFC21387C1A15623256713071734CD
:100DF0009387C1A1639AE60203D8A700B7060460EF
:100E00001387E6FF239F06FF1358850023900601F2
:100E10001375F50F8AA2CA27239FA6FE93D68500D5
:100E200036A393F5F50F2EA39627B7070460239FEB
:100E3000D7FE92A38280EFF2AFB893F4760093D7F7
:100E40003600B3349000BE9493D71600B384F402F6
:100E5000130906FE1379F90F4111930A4002314636
:100E6000374B0200B74B0200373C020093F7F40FF8
:100E70003EC0B30A590393174900AA892E8D3EC27A
:100E80002E84814C130B8B19938B8BBA130C4C73E0
:100E90003309C902138AC1A1024693F7FC0F63E527
:100EA000C70041016FF08FB5B1476395F606B38770
:100EB0002C01E297130384008423931D030193DD27
:100EC0000D011396840161866354060603D6618979
:100ED000A2854E853AC636C43137A246324705044C
:100EE00003562A00420493971400418093F4F70FAD
:100EF000E379C4FA3306A4416319D60485098357FC
:100F00000A00C20993D90901E3FDF9F8EA8D850CBD
:100F10006E8459B7C1476396F6009247E697DE970D
:100F200051BFE147E39FF6F6B3875C01DA9759B703
:100F30005DF7B707002003D68715A2854E853AC610
:100F400036C44D353247A24659BFE39C8DF6C1B732
:100F5000EFF28FA72A96AE96131906019399060110
:100F60004111AE841359090193D909013A8A135BDF
:100F700017002A84930AE005937BF50F902313074B
:100F800006FE1377F70F63F5EA0041016FF04FA7F4
:100F900063662401D294C2045E84C1803EC6E3F637
:100FA00034FF22850147D286A6857135B2475A940F
:100FB000420441808507D9B7EFF20FA1138AF6FFEB
:100FC0002A8CAE89B28B3A8D135B17001374FA0F1B
:100FD000814C01499304F00FA94A631694046FF001
:100FE0002FA2B38757037D171377F70FE31B97FEE5
:100FF000B3D7FB02B3F7570313F6F70F63190902D0
:1010000063D74C0385E70147EA8613060002628531
:101010005A9CCE85420C7D14393D850C135C0C0125
:101020001374F40F5DBF2287854775BF05490147DB
:10103000EA8613060603E1BFEFF20F993304A640D8
:101040002A8BAE8CB384B640854B63478000814BBE
:1010500001C43304C540FD5B054C63479000014C5F
:1010600081C4B384D5407D5C228963539400268972
:10107000814A014A8149130D190063543D016FF003
:101080002F9893950C0113150B010146C1814181E5
:10109000229A893BA69A63554901330A2A415E9BED
:1010A00063555901B38A2A41E29C8509C20993D943
:1010B0000901E1B7EFF24F91139B060113140501EB
:1010C000131A060193940501135A0A01135B0B01CD
:1010D0004180C180B30B4401B38A6401C20BC20AD0
:1010E00093DB0B0193DA0A013A86D6855E85B30954
:1010F00044413A89C209FD3193D90901D685B38AA1
:1011000064414A864E85C20AF13993DA0A014A8659
:10111000D6855E85C139D6854E85B30A9A00B30956
:1011200064014A86C209C20A753993D9090193DA62
:101130000A01330464414A86D6854E8542045D31F6
:101140004180B38444414A86D6852285C2045939F8
:10115000C1804A86A6854E8571314A86A68522853C
:1011600051316FF0EF89EFF20F87939716000D441E
:10117000AA892E8AB28AB6841D8C3A8921CF014968
:1011800015A04A8BDA8656874A86D2854E85050B8E
:101190001537E3D964FF635B0400931729003E947D
:1011A00019040509E3DF24FD6FF02F86B30799408A
:1011B0008A073E942904FD14EDB75687A6864A8611
:1011C000D2854E85C53D635A0400931729003E948D
:1011D00019040509E3D324FFC1BFB30799408A0767
:1011E0003E942904FD14F5B7EFE2FFFE79718545C1
:1011F0003705040002CA02CC02CE02D002D202D4C9
:1012000002D602C602C8EF10D03685452145EF1040
:1012100070343714014093070040FC820D49E147C8
:101220004C08130504C04ACC3ECE056AEF10E076A8
:1012300093070A8091494C08130504C0FC824ECEE6
:10124000EF10A075F167B7540040938707203ED098
:101250000C10B7070C00138504803ED402D223166D
:101260000102EF1010551385048005469305505276
:10127000EF10905E05469305404213850480EF1001
:10128000B05D930770137C8685475C87680085474F
:101290003EC8EF10100C138504808545EF10705A7E
:1012A00085452145EF10102B4C08130504C0231A67
:1012B00041014ECEEF10606E8967FC824C08C14739
:1012C000130504C03ECE4ACCEF10206D896513058E
:1012D00004C0EF10607945616FE03FF3411126C40F
:1012E000B7540040930550521385048022C6EF1076
:1012F000105B05C5138481891A209307700213853A
:10130000048063E8E704EF1010591A2093071700D0
:101310001EA09387C1A2BA9788A3B7540040930533
:10132000404213850480EF10905719CD1385048037
:10133000EF107056138481890E2099C5138504809F
:10134000EF10F054231004003244A2444101730012
:101350002030EF10505423100400C1B7EFE25FE9D2
:101360000945EF10A07EBD21EFF0214BFD28EFF0E5
:101370006FEFEFF00FA48D3D9D2AEFF04F93316595
:101380009305F0051305F534A12813070080239B6E
:10139000E188EF00E06FEFA02100EFF0C13AEFF03D
:1013A000E144138541A5EF10F059138541A5B744D9
:1013B000014037440040EF10D05893840480130458
:1013C00004401305401FEFF0014B2685930580086C
:1013D000EF10F04B930580082285EF10504BD5B7E6
:1013E000EFE21FE101112E84AA848545054502CA5A
:1013F00002CC231E010002C602C8EF1090174C0851
:1014000037050040E484E082231D0100231B010016
:10141000EF10F0199305000237050040EF10B035CA
:101420000546854537050040EF10D0309307C012C0
:101430007C86680085473EC823070100EF10607175
:10144000854537050040EF10102C05616FE09FDCEB
:10145000854537050040EF10903311C585453705A8
:101460000040EF10503473002030EFE27FD841117C
:101470008545214502C202C402C6EF10B00D854762
:10148000371401407C82C147130504C03EC64C009E
:101490008D473EC4EF106050130504C08545EF1022
:1014A000A05C130440067D1429451374F40FEFF07B
:1014B000813C75F8371501408545130505C0EF10CF
:1014C000605A130680029305F01D13053006EFE005
:1014D0005FF113052003EFF0013A01469305F01D7B
:1014E00013053006EFE0FFEF41016FE0BFD2EFE2FE
:1014F0003FD039711306000281450810EFE05FD23A
:101500008545214502CA02CC02CE02C602C8EF10B0
:101510007004854513050020EF10D0033165EF10EE
:1015200000693715014089474C08130505C0372469
:101530000140FC8202CEEF10404613050440EF103C
:10154000000889673ED60C10A54713050440230AFE
:10155000F10202D002D202D402D8EF10400A85452F
:1015600013050440EF10801C9D460546A545130554
:101570000440EF100014854513050440EF102012BD
:10158000930720227C86680085473EC82307010018
:10159000EF10205C05469305004813050440EF104A
:1015A000600C854513050440EF10C00A8145130502
:1015B0000440EF10001D13050440EF10000C9304CD
:1015C00004402685EF10000C6DFD13050440372400
:1015D0000140EF10A00B930404402685EF10A00BF0
:1015E0006DFD13050440EF10401B239DA188216170
:1015F0006FE05FC20397A18981472A97634F070075
:1016000009CD05669306F6FFB6876358C700AA871B
:101610006305D50093170701C1833E858280EFE201
:101620003FBD1387418056233E234AA336A31EA302
:10163000B697AA970D45B3C7A70285669386A6B449
:101640003E87C207C18363F3D7003687FD77938750
:10165000674BBA97C207C1831307202437040020C1
:101660003E856374F7001305202442054181EF1085
:10167000D25BB757020083A547EFEF106236B7572A
:10168000020083A587EFEF10C260EF105248230DD0
:10169000A4146FE03FB8411122C6372401409305DE
:1016A000004813050440EF10600B01CDD145130530
:1016B0000440EF10E008420541852D3F239EA1889C
:1016C000B93F372501409305004813050540EF1049
:1016D000A00A3244410173002030B71702409843FA
:1016E000B706FFF041111367170098C3D8433706B8
:1016F0000200758FD8C39843B706F7FEFD16758FA5
:1017000098C39843B706FCFFFD16758F98C3D8435E
:10171000B70601FFFD16758FD8C39843B70600ECD6
:10172000FD16758F98C33707FF0098C723A60702D9
:1017300002C402C69843C166558F98C3B7160240CB
:1017400005679C42F18F3EC6A24785073EC4B2475B
:1017500081E7A247E397E7FEB71702409C43139740
:10176000E7006357070685473EC632478547631F34
:10177000F704B7170240D843B706C1FFFD16D8C318
:10178000D843D8C3D84313670740D8C3D843758F0D
:10179000D8C3D843B7062900558FD8C39843B70696
:1017A0000001558F98C3984393166700E3DD06FE4A
:1017B000D843B7160240719BD8C3D843136727009C
:1017C000D8C32147DC42B18BE39EE7FE4101828012
:1017D00002C661BFB7160240D8421146318B9387CB
:1017E000C1806305C70021466308C70237177A0026
:1017F0001307072098C33717024058431183937685
:10180000F700370700201307070036971423984383
:101810003357D70098C38280D842D4424166498367
:101820003D8BF18E1306270015CF3D47630FE6026F
:101830004147630FE602454781456313E600414691
:10184000A1E23747024003270780418B0DC73717B6
:101850007A00130707203306C70290C3C9DD9843F7
:10186000058349BF81454946E1BF85453546C9BF26
:1018700081453D46F1B737173D0013070790E1BF9B
:101880003715024058559316F700585563DF060484
:1018900011833D8B9306170037177A001307072033
:1018A0003357D70298C35455A182BD8A8DE295461D
:1018B0003307D702058398C337170240585794431C
:1018C0003D8B050733D7E60298C3984369B70545B2
:1018D0006394A600E546E9BF3D456396A600D14660
:1018E0003387E602C9BF8906E5BF3D8B9306170023
:1018F00037177A00130707203357D702F1B7EFE203
:101900003F8F371401402A89A144130404C0931760
:101910008901E187054663C307000146C145228569
:10192000EF10C0140146A1452285EF102014FD14CC
:1019300006090546A145228593F4F40F1379F90FA2
:10194000EF10C012E9F46FE0FF8CEFE27F8A3714EA
:101950000140AA840146130504C0A145EF100011FF
:10196000130504C00146C145EF1040100146930520
:10197000000813050440EF10600F2685493719450C
:10198000EFE0116C0146A145130504C0EF10000EF5
:101990000545EFE0F16A130504C00546A145EF10C7
:1019A000E00C130504C00146A145EF10200C41498D
:1019B0008144130404C00146A1452285EF10000BA9
:1019C000A14522850546EF10600A8604C2049305EE
:1019D00000022285C180EF10400801C58504C204C1
:1019E000C1807D191379F90FE31709FC3715014000
:1019F00005469305000813050540EF10200713D591
:101A000044006FE03F81EFE20FFD411140002A8A60
:101A10009309E100A28422895285053F8AA08904A6
:101A2000E39C34FF854715463E8793161700CA96F8
:101A30000E208A226374B5000AA08EA205079316B1
:101A40000701C182E393C6FE85070904E39EC7FC34
:101A500028843C83AA9728854101AA97C207C1839D
:101A60000D4533D5A7026FE04FFAEFE26FF82A84F5
:101A700003C5018141112EC67937AA8403C511819E
:101A80005937B24506A08AA1054541016FE08FF89C
:101A9000EFE20FF64111854513058002371401402E
:101AA000EF10402BE177930480044C00130504C031
:101AB0007C8226C6EF00706E130504C0A165EF009E
:101AC000707A930700024C00130504C07C8226C67E
:101AD000EF00B06C130504C093050002EF0090788E
:101AE000C14741498D444C00130504C07C824AC65D
:101AF00026C4EF00906A130504C0C145EF0090763C
:101B0000930700084C00130504407C824AC626C493
:101B1000EF00B0681305044093050008EF009074CF
:101B2000A1474C00130504C07C824AC626C4EF00BE
:101B3000D066130504C0A145EF00D0723705002020
:101B400013050501930525014105053705454101AB
:101B50006FE04FECEFE2CFE94111AA842E84280018
:101B60009305A100193709E5014541016FE08FEAAE
:101B70009305E1006800D53D65D9308638846368F7
:101B8000C7009307160363D8E700E31FE6FC93073B
:101B90001703E3CBC7FC34873C8563E8D700938504
:101BA000160363D8F500E391F6FC93851703E3CDA4
:101BB000D5FA32970587B6979AA085871EA0054566
:101BC0006DB7EFE2EFE2AA8437150140A165130576
:101BD00005C037040020EF0050681304040141E100
:101BE000B70500203705002093852502130505025F
:101BF00085C08D378307440163C70700930700FC46
:101C00005CA81C485CC44828137505086FE08FE089
:101C100091376DD10A28EF10E2740C4CEF10620777
:101C2000AA8403150402EF10E273AA852685EF004B
:101C30009224EF10C26D0AA82A28EF10A2724C4C11
:101C4000EF102205AA8403152402EF10A271AA85C1
:101C50002685EF005222EF10826B2AA861BF5C2814
:101C60001397870161876356070093F7F7075CA80E
:101C700059BFFD57232604001CC871B7EFE2AFD54A
:101C80002A84239BC1881306D500511542064205BC
:101C9000AE8641824181AE84EFF00FBA9386D400C4
:101CA000938544FF130A140093891400C206C205E9
:101CB000C18222862285C181420AC209EFF0CFB7D4
:101CC000135A0A0193D90901CE8552850146130999
:101CD000F4FFEFF02F91420913590901CE85938942
:101CE000F4FF4A850146C209EFF0CF8F93D909016D
:101CF000CE8552850146EFF0EF8ECE854A850146AE
:101D0000EFF04F8E03D6618901479946A68522855B
:101D1000EFF06FC56FE06FCFEFE2EFCB3E84BA8498
:101D200013070080239BE188B75702004111AA8A5C
:101D30002E8AB28936899387C7EF4147C146130679
:101D4000800C9305C0081305800246C442C6EFF01C
:101D50002FA0B7570200938707F04147C1461306EB
:101D6000800C9305C00813058007EFF06F9EB757EE
:101D70000200938747F04147C1461306800C930544
:101D8000000A13058002EFF0AF9CB757020093875B
:101D900087F04147C1461306800C9305000A1305DE
:101DA0008007EFF0EF9AB75702009387C7F04147DB
:101DB000C1461306800C9305400B13058002EFF01B
:101DC0002F99B7570200938707F14147C146130681
:101DD000800C9305400B13058007EFF06F97B75702
:101DE0000200938747F14147C1461306800C9305D3
:101DF000800C13058002EFF0AF95B7570200938770
:101E000087F14147C1461306800C9305800C1305EA
:101E10008007EFF0EF93B75702009387C7F1414770
:101E2000C1461306800C9305C00D13058002EFF028
:101E30002F925686414791469305C008130500042A
:101E4000EFF08F975286414791469305C0081305DE
:101E50000009EFF06F964E86414791469305000AC0
:101E600013050004EFF04F954A86414791469305CC
:101E7000000A13050009EFF02F942686414791468A
:101E80009305400B13050004EFF00F9322864147A2
:101E900091469305400B13050009EFF0EF9132488E
:101EA0004147914642869305800C13050004EFF0EC
:101EB000AF90A2484147914646869305800C130592
:101EC0000009EFF06F8F0356010341478D469305DC
:101ED000C00D13050006EFF02F8E41016FE0EFB249
:101EE000EFE20FAE4164FD475D717D571305F4FFCE
:101EF000239BF188B7070020239CE714EFE0BFB3D2
:101F0000930700801305F4FF239BF188EFE0BFB235
:101F1000B7570200938787F34147C1461306800CE9
:101F2000930580022945239B0188EFF06F82B75704
:101F30000200938747F54147C1461306800C93057D
:101F400080032945EFF0CF80B7570200938707F74A
:101F50004147C1461306800C930580042945EFE0F4
:101F60003FFFB75702009387C7F84147C1461306A2
:101F7000800C930580052945EFE09FFDB7570200CF
:101F8000938787FA4147C1461306800C9305800664
:101F90002945EFE0FFFB13060480D1455145EFF0E2
:101FA000FFCD37040020930704011307000098CFEA
:101FB000238A0700B757020003A707F383A747F355
:101FC000014981443ED082574EDA130404013ACECF
:101FD0003AD23ED85C40054582975C28130700043E
:101FE00093F6070C639BE60293F7F7FB98085CA84F
:101FF00093972400BA971A28850493F4F40F239832
:10200000E7FE3A282399E7FE89476387F41863E2DD
:10201000970285476382F416014929450509EFE0D7
:1020200091054209135909019307803EE3F427FB08
:10203000E5A98D47638AF4189147E39FF4FC035A9E
:1020400001048359410403592104835A610433056F
:102050003A419357F5413D8D1D8DB307594113D733
:10206000F741B98F998FB387F7023305A5023E95E3
:10207000EF00E259EFE09103EF00A253035B81040C
:10208000835BC104131D05018354A10433057B4107
:10209000035CE1049357F5413D8D1D8DB387844169
:1020A00013D7F741B98F998FB387F702135D0D01ED
:1020B0003305A5023E95EF008255EFE0217FEF004A
:1020C000424F931D05016A85EF10223693DD0D0105
:1020D000AA8C6E85EF100229AA856685EF00521042
:1020E0002AD4EF106241B757020003A687F283A6F5
:1020F000C7F22ADC2EDEEFF0417D63400502625715
:10210000F257724682563A85BE85EFF021716346DA
:10211000A00063040D0063910D0E9387C1A1AE234F
:1021200003D5C1A1C16CB1153115C2054205138695
:10213000FCFFC1814181EFF07FB4D1455145138649
:102140000C80EFF0BFB3B757020083A587EF22558D
:10215000EF003234EF10A21B420541812AC0E28811
:102160005E88A6875A87D6864E86CA855285EFF046
:10217000BFBA01498144B9BD41691306F9FFD14590
:102180005145EFF0BFAF03D5C1A113060980D1457A
:1021900031154205418135A003D5C1A1C16913861E
:1021A000F9FF31154205D1454181EFF03FAD13896B
:1021B000C1A183552900138609805145B115C20577
:1021C000C181EFF0BFAB89BD138AC1A183552A003D
:1021D00041691306F9FFB115C205C1815145EFF000
:1021E000FFA983552A0003D5C1A113060980B115A3
:1021F000C2053115C18171BF33056A419357F5415D
:102200003D8D1D8DB307994013D7F741B98F998F35
:10221000B387F7023305A5023E95EF00423FEFE09A
:10222000E1682AD4338579419356F541358D158D72
:10223000B3868A4113D6F641B18E918EB386D6020B
:102240002ED63305A5023695EF00623CEFE001661D
:102250002257B2572A8DAE8D3A85BE85EF00623582
:1022600042054181EF10621CEE852AD46A85EF0099
:10227000423442054181EF10E20EA257AA853E8505
:10228000EF0002762A8DEF102227B757020003A62F
:1022900087F283A6C7F22AD42ED6EFF00163634CEF
:1022A00005002257B2571256C2563A85BE85EFF046
:1022B000E156635EA0029387C1A1AE2303D5C1A1FD
:1022C000C16CB1153115C20542051386FCFFC181F1
:1022D0004181EFF0BF9AD145514513860C80EFF054
:1022E000FF99B757020083A587EF6A8595B53385B7
:1022F00069419357F5413D8D1D8DB3879A4013D7A2
:10230000F741B98F998FB387F7023305A5023E9540
:10231000EF00E22FEFE081592AD433057A4193563A
:10232000F541358D158DB306894113D6F641B18E31
:10233000918EB386D6022ED63305A5023695EF00D0
:10234000022DEFE0A1562257B2572A8DAE8D3A8565
:10235000BE85EF00022642054181EF10020DEE8599
:102360002AD46A85EF00E22442054181EF00927F82
:10237000A257AA853E85EF00A2662A8DEF10C217EC
:10238000B757020003A687F283A6C7F22AD42ED637
:10239000EFF0A153E34105F22257B2571256C2564D
:1023A0003A85BE85EFF08147E347A0F083DAC1A10B
:1023B0009387C1A113858AFD03DB2700EF00927A82
:1023C000AA8B33854941EF00F279AA855E85EF003B
:1023D0002261AA8B08CC5685EF00D2782A8C33056F
:1023E0003A01EF003278DE85EF00B20AAA856285F5
:1023F000EF005233375A020083254AF2EF00720988
:10240000EF00D26A0AB013058BFDEF00B275AA89FE
:1024100033852441EF001275AA854E85EF00425C9A
:10242000AA8948CC5A85EF00F2732A8C33059900AB
:10243000EF005273CE85EF00D205AA856285EF00CA
:10244000722E83254AF28944EF00B204EF0012662F
:102450002AB05E85EF0092659357F5413D8D1D8D45
:1024600063CBA4004E85EF0072649357F5413D8D18
:102470001D8D63DCA4069305CBFE1385CAFEC164E3
:10248000C20542051386F4FFC1814181EFF00FFFC1
:1024900013860480D1455145EFF04FFEB757020037
:1024A000938787FB4147C1461306800CE945130516
:1024B0008002EFE0FFA9834444021387018193B7B0
:1024C00014002302F4029387118189E8930600F92E
:1024D00014A3130700FD98A30149EDBC930600FD6A
:1024E00014A3130700F998A369B152574164FD473B
:1024F0001305F4FF239BF188EFE0EFD3B7570200F9
:102500009387C7FC4147C1461306800C9305E0063C
:1025100013053002EFE0DFA31305803EEFE0A135A5
:102520001305F4FFEFE02FD161616FD03FCD01A023
:1025300097E1FF1F9381814217E10020130181ACD5
:1025400017E502001305054997E5FF1F938585AB45
:102550001386018963FAC5008322050023A0550074
:1025600011059105E3EAC5FE1385018997750020E1
:102570009385C55D6377B500232005001105E36DE4
:10258000B5FEFD42739002BCAD4273904280B762CB
:102590000000938282087390023097E2FFFF9382DB
:1025A000A2A693E2320073905230EFF00F9397F2AD
:1025B000FFFF9382E2DA7390123473002030EFD27F
:1025C0003FC3B727014093870740631CF50085454B
:1025D00013050020752F814513050020552F6FD05E
:1025E0007FC3B737014093870780E31AF5FE85451F
:1025F00013050040712F814513050040C5B75C41AC
:102600003707F1E01307F7EF944D7D8F9C41D58F8D
:10261000D44DD58FD441A206D58FD98F5CC11C452E
:1026200037F7F1FF1307D77FD4457D8F9C49D58FAE
:1026300094458606D58FD98F1CC55C55370710FF8A
:102640007D177D8FDC29FD1793F7F70FD207D98F00
:102650005CD582801C4589C593E717001CC5828024
:10266000F99BEDBF5C4193F5F50F01C6DD8D4CC1C3
:10267000828093C5F5FFFD8DDDBF1C4593E7870084
:102680001CC5828008450D81058982801C4593E721
:1026900047001CC5828008450981058982801C4548
:1026A00089C52167D98F1CC5828061777D17F98F15
:1026B000DDBFA54763FBB7048D47138765FF33076D
:1026C000F7020328C5009D47B397E70093C7F7FFBC
:1026D000B3F70701B396E600DD8E54C5145D090615
:1026E000154793D746018D8BB307F64093F7F70F45
:1026F000B387E7027D473317F7001347F7FF758F5E
:10270000B395F500D98D0CDD82800D473387E50246
:10271000032805019D47B397E70093C7F7FFB3F779
:102720000701B396E600DD8E14C94DBF1C5D370767
:10273000D0FF7D17FD15F98FD205DD8D0CDD828070
:10274000411102C62AC6B24793878702BE952EC69C
:10275000B24788434101420541818280584114417A
:1027600093D78500F58F99C713F5F50F798D33351C
:10277000A000828001458280A18193C5F5FF0CC134
:1027800082805C4191C537070004D98F5CC182808B
:10279000370700FC7D17F98FD5BFEFD27FA5011158
:1027A0002A8423040100A5441C8463F9F40423044F
:1027B0000100A54621461C8463FFF606231501008F
:1027C0002304010095461C8463F1F60E38853C8590
:1027D00099460D46B3F7D702056513050580B3D7B3
:1027E000C7023357D702BA97C207C1837C853C859D
:1027F00005611D8D420541856FD0DFA11C4493E723
:1028000087001CC42285EFF0FFE76DFD1C4493E7B1
:1028100047001CC42285EFF01FE86DFD78441C843E
:1028200014108607B6972396E7FE1C84850793F756
:10283000F70F5C8495BFA30401009C846378F600C5
:102840001C84850793F7F70F5C84B5B798849C8444
:102850000C100607850786072E97AE970357C7FE0D
:1028600083D7C7FE63FDE7029C848607AE9783D7B4
:10287000C7FE7C859C84988485078607AE9783D5A0
:10288000C7FE931717001810BA972396B7FE9C84BB
:1028900038850C1085078607AE972396E7FE9C8443
:1028A000850793F7F70FDC8449BF1C841010388527
:1028B00089078607B29783D7C7FEBA97C207C18335
:1028C0007C851C84850793F7F70F5C84EDBD144568
:1028D0005C4158450328C502D58FD98F1849370662
:1028E00000A0D98F5849D98F184DD98F584DD98FFD
:1028F0001851D98F5851D98F1855D98F1859B3E716
:102900000701D98F18410A073A961CC2A14763965E
:10291000F6001C4293E707041CC254598C4E9C429B
:10292000CD8FCC429205CD8F8C46A205CD8FCC4663
:10293000C205CD8F8C4AD44AD205CD8FE206D58F01
:102940005CC291676313F802145D904E9C42D18F74
:10295000D04294461206A206D18FD58FB70600A0AA
:102960009386461036971CC38280B70700A09387D2
:1029700047103E97B7070010FD17F5B7B70700A03F
:102980000A053E951C4189C593E717001CC182804A
:10299000370710007917F98FD5BF9C4513F707014A
:1029A00013F8F70001C7D8413368E8008E2113F708
:1029B000F50F39C318418146854E3D4F930F800274
:1029C00093028004214E3396DE00B3F8C5006311F4
:1029D00016039398260033131F011343F3FF337735
:1029E000E300B318180133E7E800639FF70550C907
:1029F0008506E39AC6FD18C11307F00F6375B70487
:102A000054412146854E3D4F930F8002930280042E
:102A1000414EB398CE0033F715016392E8021317C5
:102A2000260001173313EF001343F3FFB376D300EF
:102A30003317E800D98E639DF701232A1501050697
:102A4000E319C6FD54C18280E39457FA10C94DB70B
:102A5000E39757FE23281501DDB708456D8D333503
:102A6000A00082800CC982804CC9828019C20CC926
:102A700082804CC98280B7070140635A0504DC4F4D
:102A800093560501131805013707300013F6F600B9
:102A900013580801B376E50063500506639BE60210
:102AA000930606010D46B316D60093C6F6FFF58FC2
:102AB00099C9135755011377F73F12073317E800E9
:102AC000D98F63570504370701405CCF8280DC4310
:102AD00045BF1317B500635607008D46B396C60071
:102AE000E9B7135755011377F73F12073317E8007B
:102AF0001347F7FFF98F6DBF6390E6023706014079
:102B00005442370700F17D17F98F758F58C2D5F100
:102B1000370701405CC382801317B500635C070070
:102B20008D46B396C60093C6F6FFFD8EB707000F1D
:102B3000D58FF1BF1357550112073317E80013471C
:102B4000F7FF7D8FB707000FD98FD1B723A0A18AD8
:102B5000828003A7018A894710216311F70214318B
:102B60008D4763EDD7003C219A0637E700E09607D2
:102B7000D58F93F7F70F32972300F740544105475D
:102B8000935756003317C70089CA938707048A07EB
:102B9000B7E600E0B69798C3828093870706B7E64A
:102BA00000E08A07B69798C30F1000008280B7161E
:102BB0000240DC4251777D17F98F5D8DC8C282805B
:102BC000371702405C439146B18B6385D700A1461D
:102BD0006382D706B7177A00938707201CC1371680
:102BE00002405C4237070020130787039183BD8BA7
:102BF000BA9794231C41B3D7D7005CC15442A18239
:102C00009D8ABA969422B3D6D70014C55442AD8299
:102C10009D8A36971823B3D7E7005CC5584239839D
:102C2000937637001387418136971823B3D7E7028D
:102C30001CC982805C435843C166C983758FB7F64F
:102C4000FF1F83A6C670BD8B8907139616016348C4
:102C50000600C54601466392D702C94739A889468E
:102C6000638FD702BD46638ED702C146638ED702FB
:102C7000C54601466393D700C1471DEF3747024061
:102C800003270780418B05C737177A0013070720F2
:102C9000B307F7021CC121D61C41858381B70146C9
:102CA0006DBF0546B547D1BF0146BD47F9B73717D8
:102CB0003D0013070790E9BFB7150240D85593169A
:102CC000F700D85563DF060411833D8B9306170088
:102CD00037177A00130707203357D70218C1D45586
:102CE000A182BD8A8DE295463307D702058318C1BC
:102CF00037170240585714413D8B050733D7E6027A
:102D000018C1184171B785456394B600E546E9BF1F
:102D1000BD456396B600D1463387E602C9BF890632
:102D2000E5BF3D8B9306170037177A00130707207E
:102D30003357D702F1B799C5371702405C4B5D8D09
:102D400048CB8280B7170240D84B1345F5FF798DE9
:102D5000C8CB828099C5371702401C4F5D8D08CFC4
:102D60008280B7170240984F1345F5FF798D88CFC1
:102D7000828099C5371702405C4F5D8D48CF8280B5
:102D8000B7170240D84F1345F5FF798DC8CF828021
:102D900099C5371702405C475D8D48C78280B717D9
:102DA0000240D8471345F5FF798DC8C782801E21A0
:102DB00037370140930607C0C207C1836300D504BB
:102DC000B7060040630CD502938606406308D5021F
:102DD000B7160040138606806302C502938606C0BC
:102DE000630ED50013070740630AE500375701401B
:102DF000930607C06304D5006316E500BA2193F774
:102E0000F7F8D98F37170040630CE5001307074028
:102E10006308E50093F7F7CFFA21C207C183D98F82
:102E20001EA1DE215EB59E211EB5B7370140138776
:102E300007C0630EE50093870740630AF500B757A4
:102E40000140138707C06304E5006314F5009C2567
:102E50001EB985475EA982801E3165771307F7CFBB
:102E6000C207C183BD9BC207C1831EB11E3156215B
:102E700003D88500C20713960601162DC18393F768
:102E8000F7FD758F96214182A206558FB621420724
:102E90004183B3E606019206D58FB7360140C207DB
:102EA000138806C0C183630E050193860640630A3A
:102EB000D500B7560140138806C063040501631EA0
:102EC000D502B62593F7F7F703D8C5009206D58F3C
:102ED000D621C207C183920693F7F7FBD58FFD7603
:102EE0009386F63FF18EF225C207C1833366060151
:102EF0000A06D18E13960601418252A11AADFA211B
:102F00001ABD1EB182801E2189C593E717001EA13C
:102F10008280C207C183F99BC207C183CDBF83579B
:102F2000450491C52167D98F2312F5048280C60715
:102F3000C583DDBF5E2501C6DD8D4EA5828093C5AC
:102F4000F5FFFD8DDDBF1E2189C593E707081EA192
:102F50008280C207C18393F7F7F7C207C183C5BF59
:102F60001A2DFD779387F77FF98FA205CD8FC207C2
:102F7000C1831EAD82805E21C207C18393F7F7F83B
:102F8000C207C1835EA15E21DD8D4EA182801E2914
:102F90004A25ED8F4205418189C76D8D3335A000EB
:102FA00082800145828093C5F5FFC205C1810EA9CB
:102FB0008280EFD2EFA31629F577FD17F58FF62162
:102FC000DA257971D58F1EA95625FD779387379F0E
:102FD000F58FD6212A842EC6D58F9625D58FB62576
:102FE000D58F5EA55E29C207C18393F7F7CFD98F2E
:102FF0005EA96808EFF0DFBCB74701409387078000
:10300000B245631EF402A2576547B387E7029841B1
:10301000930640060A07B3D7E70233D7D702B3F7C0
:10302000D7021207920793872703B3D7D702BD8B26
:10303000D98FC207C1831EA445616FD0AF9D92573F
:10304000E1B791C55E250967D98F5EA582805A25B3
:10305000F977FD17F98FD5BF13F7F50F854715835E
:10306000B395B7006319F7009307C500984301CEE5
:10307000D98D8CC38280894693074501E318D7FE1A
:1030800093070501E5B793C5F5FFF98DDDB793F516
:10309000F51F4EA182804A211375F51F828013F718
:1030A000F50F85461583B397B6006311D7025A25ED
:1030B000F98F1A2101454207418381CB0545A18142
:1030C000B315B5006D8F3335E000828089466314F7
:1030D000D7001A29F1BF5A29E1BF99476397F50430
:1030E000EFD20F91EFF0E001EF6021722A84EF80C0
:1030F000416A3C458DEB7C4599C363968702938773
:1031000041A5DC2B138441A581C7138541A5052466
:10311000084805479306803E1306803EA545EF60AC
:10312000217A85475CA06FD0EF8E8280EFD24F8CE2
:103130000841B73500009385A50DEF8001456FD09C
:103140006F8D8280EFD2CF8AB706002091652A84E6
:103150001388060E1387060E0946938565699387C3
:10316000060E130560519386060EEFB020048547C6
:103170005CA05CA8228505280840EF60816D6FD0B7
:103180006F89EFD2EF862E84AA843514EF40001E9B
:103190001374F40F854763E6870085452685EF9015
:1031A00001036FD02F87EFD2AF842A848145014578
:1031B000EF90C11408C08145EF30F07DB7350000B5
:1031C0009384418A9385251888C0EF80013C88400C
:1031D0008545EF80D17F08401306000F930500144A
:1031E000EF90E15A1385C18AEFC091411385C18ADE
:1031F0001306F00F9305C002EFC071601385C18AFA
:10320000014693059002EFC0B15608401386C18A6B
:103210008145EFA0413808408145EF30103248C465
:103220008545EF8041234844B7550200938545FE0C
:10323000EF30D01448441306200393052003EF30E9
:10324000607348448145EF30F0004844130620067F
:1032500093055005EF80B13248441306C002930530
:103260005009EF90C1521385818AEFC07139A16571
:103270001385818A1306F00F9385C50AEFC0315874
:1032800048441386818A8145EFA0E1302285EFF022
:10329000FFE96FC03FF81357350093565500935719
:1032A000350193F6067E7D8BFD8BAE073365D70027
:1032B0005D8D8280EFC2DFF32E84AA843514EF4047
:1032C000E00A1374F40F854763E687008545268579
:1032D000EF80F16F6FC01FF4EFC29FF1B547AE846E
:1032E0006385F5009947639FF5001384018BAA85D8
:1032F0000840EF40C0000840EF80311D0840814584
:10330000EF80F16CD1476385F400B947639FF40007
:103310001384018B08408145EF30707E0840EF80B8
:10332000712008408545EF80916A6FC0BFEEEFC203
:103330009FEA2A8481450145EF80517C08C8814578
:10334000EF307065B73500009384018B9385452B72
:1033500088C0EF80812388408545EF805167084809
:103360001306000F93050014EF9061421385C18B83
:10337000EFC011291306F00F9305C0021385C18B0E
:10338000EFC0F1473755480013058584EFF0BFF0D3
:103390002A86930590021385C18BEFC0713D0848C2
:1033A0001386C18B8145EFA0011F08488145373B3B
:1033B0000000EF70605DB7D5020048CC9385058DA5
:1033C000EF70D064484C93058B2DEF80011C484C66
:1033D00013061003B145EF80911A484C65469305DA
:1033E0008008EF90C13A1385018CEFC0712101452F
:1033F0002169EFF05FEA2A86930599081385018C0D
:10340000EFC01137B70A002013864A069305E90872
:103410001385018CEFC0D147930509081385018CF2
:103420000946EFC0112C1385018C09469305000352
:10343000EFC0312B1306F00F9305C0031385018CE9
:10344000EFC0F13BE9691385192BEFF0DFE42A8621
:10345000930590031385018CEFC091311385018C86
:103460001146C145EFC0F1271385018C1146CD45AA
:10347000EFC031271385018C1146C945EFC0712675
:103480001385018C01468545EFC0B1251385018C5C
:10349000014693050005EFC0D124484C1386018CEA
:1034A0008145EFA0410F1385418CEFC071151306C4
:1034B000F00F9305C0021385418CEFC05134370AD9
:1034C00000011305FAFFEFF01FDD2A869305900235
:1034D0001385418CEFC0D1291385418C0146854568
:1034E000EFC03120484C1386418C93050004EFA0B7
:1034F000810A08488145EF702049B7D5020008D0FD
:103500009385858DEF709050085093058B2DEF803B
:10351000C10708501306C005B145EF805106085099
:10352000654693058008EF9081261385818CEFC056
:10353000310D0145EFF03FD62A8693059908138592
:10354000818CEFC0F12213864A069305E9081385A2
:10355000818CEFC0F133930509081385818C0946EE
:10356000EFC031181385818C094693050003EFC025
:1035700051171306F00F9305C0031385818CEFC01C
:1035800011281385192BEFF01FD12A86930590037C
:103590001385818CEFC0D11D1385818C1146C145E7
:1035A000EFC031141385818C1146CD45EFC07113E6
:1035B0001385818C1146C945EFC0B1121385818CEA
:1035C00001468545EFC0F1111385818C01469305B5
:1035D0000005EFC0111108501386818C8145EF90D2
:1035E000917B1385C18CEFC0B1011306F00F9305D9
:1035F000C0021385C18CEFC091201305FAFFEFF0D4
:103600009FC92A86930590021385C18CEFC051167D
:103610001385C18C01468545EFC0B10C0850138657
:10362000C18C93050004EF90117708488145EF7035
:10363000A035B7D5020048D09385058EEF70103DB8
:10364000485093058B2DEF70517448501306600855
:10365000B145EF80C1724850654693058008EF90F0
:1036600001131385018DEFC0A1790145EFF0BFC2B1
:103670002A86930599081385018DEFC0710F138673
:103680004A069305E9081385018DEFC07120930563
:1036900009081385018D0946EFC0B1041385018D1A
:1036A000094693050003EFC0D1031306F00F9305FD
:1036B000C0031385018DEFC091141385192BEFF012
:1036C0009FBD2A86930590031385018DEFC0510A93
:1036D0001385018D1146C145EFC0B1001385018DE1
:1036E0001146CD45EFC0E17F1385018D1146C945D7
:1036F000EFC0217F1385018D01468545EFC0617EB6
:103700001385018D014693050005EFC0817D48506A
:103710001386018D8145EF9011681385418DEFC0AF
:10372000216E1306F00F9305C0021385418DEFC083
:10373000110D1305FAFFEFF01FB62A8693059002CC
:103740001385418DEFC0D1021385418D014685451A
:10375000EFC0217948501386418D93050004EF9006
:10376000916308488145EF702022B7D5020008D444
:103770009385858EEF709029085493058B2DEF70FB
:10378000D16008541306200BB145EF80415F085407
:10379000654693058008EF80917F1385818DEFC08A
:1037A00021660145EFF03FAF2A86930599081385FE
:1037B000818DEFC0E17B13864A069305E9081385E6
:1037C000818DEFC0F10C930509081385818D0946A1
:1037D000EFC021711385818D094693050003EFC069
:1037E00041701306F00F9305C0031385818DEFC060
:1037F00011011385192BEFF01FAA2A869305900358
:103800001385818DEFC0C1761385818D1146C14529
:10381000EFC0216D1385818D1146CD45EFC0616CE0
:103820001385818D1146C945EFC0A16B1385818D2C
:1038300001468545EFC0E16A1385818D01469305F8
:103840000005EFC0016A08541386818D8145EF9011
:1038500091541385C18DEFC0A15A1306F00F930543
:10386000C0021385C18DEFC081791305FAFFEFF017
:103870009FA22A86930590021385C18DEFC0416FE8
:103880001385C18D01468545EFC0A1650854138697
:10389000C18D93050004EF90115008488145EF0059
:1038A000701648D49305803EEF00D02A4854130682
:1038B00040068145EF00D02F48540146930560042F
:1038C000EF00700B4854394693058011EF80214B6F
:1038D00048541946F545EF80916B1385418BEFC035
:1038E00021521306F00F9305C0021385418BEFC0E0
:1038F000017137D5D4001305957DEFF0DF992A8645
:10390000930590021385418BEFC081661385418B2F
:1039100029468545EFC0E15C1385418B014693053F
:103920000005EFC0015C48541386418B8145EF9040
:1039300091461385818BEFC0A14C1306F00F9305C0
:10394000C0021385818BEFC0816B1385192BEFF0BB
:103950009F942A86930590021385818BEFC0416165
:103960001385818B29468545EFC0A157485413869E
:10397000818B8545EF9031426FC03F895E210A21DE
:1039800085073385A7404205418582807E212A2113
:1039900085073385A740420541858280EFC25F8558
:1039A00000410840EF90B16DFD571EA493074501FB
:1039B0006319F4007E201EA10840EF80612B6FC0C8
:1039C0007F8593070502E319F4FE7E207EA1EDB703
:1039D000EFC21F820EA50841EF8081296FC09F832F
:1039E000EFC21F815D712EC632C43684EF903169FB
:1039F00003178400FD57AA842246B2456317F704D3
:103A0000831706005EA06EA00EA222858145EFC03E
:103A1000501F0808EFC0301AB74700009387079D72
:103A20003ECA930700103ED8B74700009387C79956
:103A30003ECE83970401080822C83EDA02D402D69B
:103A4000EFC0502161616FC0EFFC7E2065BFEFC207
:103A50008FF8A1472A843289639CF5040422EFD0B1
:103A6000001A11E937D50200A28501461305059019
:103A7000EFD0401901A02285EF90716085C0854785
:103A80006385F4022322090083A7418E4A86A1455B
:103A900022858297AA8426856FC02FF7130584029A
:103AA0002322A90075D18544FDB713050503CDBFB9
:103AB00083A7418EAE8982978547AA84E31DF5FCD2
:103AC0009D47639AF900B7D50200938505914A8511
:103AD000EF90317BC1B799476392F90885452285FC
:103AE000EFB0E1093E381397070141876353A70000
:103AF000AA873EB8494681452285EF80F16B4D4645
:103B000081452A892285EF80316BAA89414681450A
:103B10002285EF80716AAA84454681452285EF801F
:103B2000B169CE8763533901CA871397070141876B
:103B300063D3E400A6871397070141876353E50029
:103B4000AA87C207C187E3D007F603172403B30788
:103B5000F04063D3E700BA873EB8B1B7E39509F404
:103B600085452285EF70B16C2285EF9051512A84F2
:103B700081455105EFC0F008814513050402EFC0EF
:103B8000500811BFEFC2CFE3094771716318E60017
:103B900083A7018E82974D616FC04FE62A842E8ADB
:103BA00063150624E808EF20B16113063003814550
:103BB0002285EF80716019C123080106F008814554
:103BC00022852300010A930C0401EF90D16DF008C7
:103BD000D2856685EF2031642285EF90514A2A8D87
:103BE0002285EF802170AA8D2285EF703153AA843F
:103BF0002285EF70D1548346CD0203164D00031782
:103C00002D008D8A85452A893308E6408148639CCA
:103C1000B600635A07006358C00083186D00B3886C
:103C2000E84093B8180049468145228546C442C2FF
:103C3000EF8091584D468145AA8A2285EF80D15761
:103C4000414681452A8B2285EF801157AA8B454634
:103C500081452285EF805156A248124893098D0074
:103C6000930784013EC0CE866687102382470507EE
:103C700090A28506E31BF7FE03578D008356AD0027
:103C8000C20AC20B93DA0A0193DB0B015697DE9648
:103C900013160701939506010357CD008356ED00D7
:103CA000420B131C0501135B0B01135C0C01330762
:103CB0006741B38686414207C20641824183C18182
:103CC000C1822314CD002316ED002315BD00231758
:103CD000DD0063CE240585068D8EC206C1860D47A4
:103CE0006340D70209473347E9023628369742072F
:103CF00041839306E7FF09072315DD002317ED0035
:103D00000317CD0083158D000316ED008316AD005B
:103D100063D024150506158E4206B745000041867E
:103D20001303AD001305ED009385C59835AA05076B
:103D3000118F420741878D46E3C4E6FC094733C72C
:103D4000E40216283697420741839306E7FF0907E6
:103D50002314DD002316ED0065B703176D0033074C
:103D6000E7413307C70233470703A9A283160D00B3
:103D7000B386E641B386C602B3C6060351A223103A
:103D8000B3001AA1DDAAB38605418506C206C18625
:103D900063DCE60016A1831605000317030063DE4B
:103DA000E61C2310D300F1BF1AA12310D300E5B7FE
:103DB0000357ED008357AD00050739A4050B330BFE
:103DC0005B41420B135B0B418D4763CC67318947E5
:103DD000B3C4F4021E28BE94C204C1809387E4FFDA
:103DE0008904FC8623109102EDAC05476304E600CC
:103DF000014555B3130630038145EF80F13B6DD982
:103E0000E808EF20F13BF0088145228523040106F4
:103E100023090108230D0106230301082300010AD9
:103E2000EF907148F008D2851305040191A64E85E4
:103E3000829505476343A71439A616218506B386E4
:103E4000C6412310D3001A213307D7411AA1E5A890
:103E5000130617000D8E4206B74500004186130574
:103E6000CD004E839385C597031E8D027D57031F9A
:103E70002D00E304EEEE03174D023307E74133074D
:103E8000C702B346070303176D023307E741330741
:103E9000C702939E060193DE0E4133470703420794
:103EA00041873307D7413307C703130E0010334749
:103EB000C7033697831ECD014207FD564187E3872E
:103EC000DEEA83168D01B386E641B386C60233CEA1
:103ED00006038316AD01B386E641B386C602131FFF
:103EE0000E01135F0F41B3C60603C206C186B38637
:103EF000E641B386D603930E0010B3C6D603F296FE
:103F0000C206C186139E0601931E0701135E0E01B1
:103F100093DE0E01E3C324F3054F639DED01B30669
:103F2000C0413307D0411A8EC20642072A83C18698
:103F300041877285035E0300F29616A18356030043
:103F400036972310E300E38408EE83162D008315D3
:103F5000050003170300B306D0403386C60233487A
:103F60000603420813580801E3CF24E142974207B1
:103F70004187E356B7E02310E300054681452285DB
:103F8000EF809123931D050193DD0D012687635377
:103F900099004A874207418705876356B701931DF9
:103FA000070193DD0D01E808EF209121F008854518
:103FB0002285EF90512F93961D00E3CB24DF03570A
:103FC000CD0083578D000507B307F740C207C187AF
:103FD00063D2F60403488106834601070347010ABA
:103FE000F008D2854E852A4D42C636C43AC2230413
:103FF0000106230801062300010A02C5EF20B121B2
:104000003248A2461247230401072308D1062300A1
:10401000E10A6AC51E2813960D018146D697FC82D7
:104020005E2841864C08B3876741FC843E284810CF
:10403000DE97FC837E28B3878741FC85EF20212310
:1040400081454810EF20E10303480107834D010A31
:104050002A8D23080106230301082300010AE687AD
:10406000740890230247850790A28506E39BE7FE2C
:10407000BC8603552102BE9ABC87330C8541C20A17
:10408000BE9B83570102C20B420C338B6741420B2C
:1040900093DA0A0193DB0B01135B0B01135C0C0138
:1040A000231E5101231F710123106103231181037A
:1040B000E3C624D1050C330C7C41420C135C0C414B
:1040C0008D4763C0870389473349F9023E283E99EB
:1040D0004209135909019307E9FF0909FC872311D4
:1040E00021030316C1058146CE85880042C0EF201A
:1040F000011881458800EF10D1789308C101AA8486
:10410000F0084685D285EF2011110248F008D285CB
:104110004E85230801072304010623030108230019
:10412000010A02C5EF20310F2685EF10517C6A8508
:10413000EF10F17BF008D2854E852300B10B2308E8
:104140000106EF20510DE808EF209107F0088145A6
:1041500022852304010623080106230301082309FD
:104160000108230D0106EF901114F008D285668531
:10417000EF20710AB5B9EFC2AF872A84AE843289C5
:10418000EFC0F02711E937D50200A28501461305DB
:104190000590EFC0302701A02285EF90416E831675
:1041A00005006388D4047A213E21131607019395F4
:1041B0000701C185418663D3C500BA875A2113160A
:1041C0000701418663D3C400268793950701131620
:1041D0000701C185418663D3C500BA87939507015E
:1041E000C1856388B600631809000EA12285EF70AF
:1041F00031286FC02F82930645012A862285EFF071
:104200002FFEC5BFEFB23FFDAE89EF80210FAA841C
:10421000EFC0F01E11E937D50200A685014613054F
:10422000058FEFC0301E01A0A1C81384418E1C4031
:1042300089E72685EF90A15F08C01384018E1C409A
:1042400089E72685EF90216108C0930580032685C4
:10425000EF70014B2A84EFC0901A11E937D50200A4
:10426000A28501461305058FEFC0D01901A001E812
:104270002685EF902172814426856FB01FF9930740
:1042800040065CC09307800C1EA8FD575EAC1EB4B0
:104290008347C402130904034A85F19B2306F402F1
:1042A0002320040044C8232C040004D02322040249
:1042B000EFB07119B74500009385E5A42685EF702E
:1042C000213DB7450000938545B82685EF708140B4
:1042D0006397090226858145EF70E11726852946F7
:1042E0009305800CEF80A14A8315040026850146C2
:1042F000EFF07FE891452685EF70004FB5BF4E8502
:10430000EF90E15783172500930505033EA083171F
:1043100065007EA0831745005EA0831705001EA0E0
:104320005C554A8513F737008347C402F19BD98F48
:104330002306F402EFB0F17426851306F00F9305FF
:10434000F00FEF90E1128315040001462685EFF08F
:104350009FE21DB7EFB2DFE92A84AE84EFC0300AD6
:1043600011E937D50200A285014613050590EFC07B
:10437000700901A02285EF90815006A96FB09FE9D6
:10438000EFB21FE741112AC6EFC07007B24509E935
:1043900037D50200014613050590EFC0B00601A015
:1043A0002E85EF90C14D485541010D896FB09FE6B4
:1043B000EFB27FE2AA842E89B289EFC0500411E9DE
:1043C00037D50200A685014613050590EFC090037E
:1043D00001A02685EF90A14A831725002A846396C1
:1043E0002701831745006387370523123401231102
:1043F00024012685EFF0DFF889476304F5002313D5
:1044000024018317040063D9F90023103401014605
:10441000CE852685EFF03FD68317040063D92701A8
:10442000231024010146CA852685EFF0DFD42685B6
:10443000EF7011046FB07FDD81472147B386F5002F
:104440009022B306F500850790A2E399E7FE8280EB
:10445000C167FD176389F504EFB29FD94111AA84A2
:104460002E84EF90C1415C41931534000A85BE95BE
:10447000EFF09FFC2C002685EF70A14038843C8033
:1044800034818A85BA977C803C852685BE96748166
:104490003482369778823883BA977C83EF70E178DC
:1044A00041016FB03FD78280EFB29FD141112A8482
:1044B000AE8BEF90C13C8A85AA8A2285EF70613C61
:1044C0002285EF70A145AA892285EF7041474946B0
:1044D00081452A8A2285EF80214E4D4681452A8BCF
:1044E0002285EF80614D41468145AA842285EF8077
:1044F000A14C454681452A892285EF80E14B2A8CD3
:10450000514681452285EF80214B8947B347F5020B
:1045100005896547E54DAA978507C207C1876343AB
:10452000F700BE8DC20DE54793DD0D41268463D3B0
:10453000970065444204E5474184CA8463D3270158
:10454000E544C204E547C184628963D387016549B4
:10455000420913590941B3898940330A2A41014D5F
:104560005A8CE54CF919791A83D74A016372FD0810
:1045700083A74A0093153D002800BE95EFF0DFEBBE
:10458000031781003C80634FEB063E97E28663D3BE
:104590006C01E546158F4207418778840316A10018
:1045A0003881B306C700C206C18263C1C406858EC6
:1045B000C206C18674858316C100B697C207C1833F
:1045C00063C93605A2978316E100C207C1877C86BE
:1045D000B307D700C207C18363CF4603CA97C20798
:1045E000C1870146DE8528007C87EFC0C00F15C556
:1045F00083D74A016394A701416D7D1D6A854101FE
:104600006FB0DFBF3E973307B74171B7B386B6418E
:1046100045B7EE974DBFEE97D9B7050D420D135D27
:104620000D0199B7EFB2DFB939712A84AE89EFC0B5
:10463000005D11E937D50200A285014613050590FA
:10464000EFC0405C01A04E85EFC0605B11E937D53B
:104650000200CE85014613050590EFC0A05A01A0C7
:104660002285EF90C121AA8B8144014937DA0200EB
:1046700093972400CE97884383070500A9E72285F6
:10468000EF90E11F5E29AA8463892709484109C583
:10469000EFC0303F23A20400884409C5EFC0703E3C
:1046A00023A4040013153900EFC0B033C8C0EFC015
:1046B00000551DE5CC4037D5020001461305058F96
:1046C000EFC0405401A093058A91EFB0FFBF09C528
:1046D00005094209135909018504C204C18049BF73
:1046E00013151900EFC0F02F88C4EFC040519C444F
:1046F00011E937D50200BE8501461305058FEFC0CD
:10470000605001A0D84011C391E3014993151900ED
:104710003E85EFD00003239A24014946814523A01A
:104720003B012285EF8041292ACE4D4681452285D5
:10473000EF808128AA84414681452285EF80C127E8
:104740002A8A454681452285EF8001272A895146DC
:1047500081452285EF8041262ACC2285EF70011CFD
:10476000BC86139B0401135B0B0133876701198D12
:104770003EC493170501C1833EC62285031CC100B8
:10478000EF70E11B93170901C18333894701330996
:104790002541420913590901814A854C37DD020040
:1047A00013972A004E970843030705003DEF835AED
:1047B00081011385FCFF93C7F7FF3385AA023ED41E
:1047C0009347FBFF3ED6B3079C40854D3ED833054B
:1047D000A940420513D91C0041854A9533459503EC
:1047E00001497D15131D0501135D0D418144014BE8
:1047F00093972400CE9703AC07003EC8B7D70200BA
:10480000938587916285EFB03FAC83070C0039CD6B
:1048100085EF2285EF70A112A257B38747413E95DD
:10482000131D0501135D0D4199A093058D913EC2A5
:10483000EFB09FA9924709E513851C00937CF50F03
:10484000850A93FAFA0FA9BF03A78B00B307990053
:104850008607BA979C239D8B91E385473E9B8504F1
:10486000420BC204135B0B01C18059B7DDD3228513
:10487000EF7051272AC28DC89307FBFFB387FA0256
:104880003247014CB307F740C207C1873ECAB3079E
:104890009900C207C1833ED2B307AA01C207C187EC
:1048A0003ED092576312F90293871A003E9AC2478C
:1048B0006A9A420A9C43135A0A4183870700EDC74C
:1048C00085048A04A6991DB783A78B0013171900C6
:1048D000BA9703C80700937C780063930C00854C5B
:1048E000D2471387FCFF3387EA029246B3879703C8
:1048F000B3C76703BA975247FD17C207B305EC0267
:10490000C183B3C5650333878A03C205C1814207EA
:104910004183639FB60722853ADE2EDC3EDAEF60E4
:10492000F17FB2577257E2553387E740D257B3054C
:10493000B7409D8DAA95C205C18583A84B00B3865B
:10494000B700630B0904624721EB72476385E500FA
:104950001247631BB701C2074257C187AE97639DD9
:10496000E7029247639AB703131539004695025739
:104970008315C5FFC206C1865286669C0509420C96
:104980004209EFB0F040135C0C011359090111BF4B
:10499000A2463697BA9545B713153900C206025795
:1049A000C18652864695D1BF2285EF70612C216168
:1049B0006FB0DF84EFB2DF8341112EC62A84EFC0CF
:1049C0000024B24511E937D50200A285014613053E
:1049D0000590EFC0202301A022852EC6EF80316A0A
:1049E0005229AA84B24508450606EFC0701A8C40C9
:1049F0002285EFF03FC341016FB0DF81EFB2AFFD21
:104A0000AE89EF70B10F2A84EFC0601F11E937D56E
:104A10000200A28501461305058FEFC0A01E01A06C
:104A200021C09384C18E9C4089E72285EF8031604C
:104A300088C0930500022285EF60914CAA84EFC0E4
:104A4000001C11E937D50200A68501461305058F24
:104A5000EFC0401B01A081E82285EF80B1730144C3
:104A600022856FB08FFAC177DCC8FD579CCCDC2C57
:104A70001389C40023A20400C19BDCAC23A404005E
:104A800023A004004A85EFB0011C9C4893E707204F
:104A90009CC89384818E9C4089E72285EF80B15B1E
:104AA00088C0B7550000938545D72285EF60513EF9
:104AB000B7550000938525682285EF60B141639565
:104AC0000902B7050020228593858507EFF09FB581
:104AD0002285130640069305800CEF70514B9945D3
:104AE0002285EF607050ADBF4E85EF8051590C416B
:104AF000AA842285EFF01FB38C442285EFF09FEB50
:104B00009385C4004A85EFB0C17799BFEFB24FEEED
:104B100041112EC6AA843284EFC0600EB24511E95D
:104B200037D50200A685014613050590EFC0800D1C
:104B300001A026852EC6EF8091545E29B24563FE02
:104B4000F5001C45139715001344F4FFBA97922300
:104B50002685718C82A3EFF0BF8F41016FB08FEB80
:104B6000EFB26FE7AA84AE89EFC0600911E937D5CB
:104B70000200A685014613050590EFC0A00801A01C
:104B80002685EF80D14F2A89014483574901636408
:104B9000F4006FB08FE7A28505044E862685420497
:104BA000EFF0DFF64180D5B7EFB2EFE22A84AE84B2
:104BB0003289EFC0C00411E937D50200A285014651
:104BC00013050590EFC0000401A02285EF80314B52
:104BD0005E29AA8963FDF4025C2D898B99CB9377BA
:104BE000090881CB930500082285EFF07FF7239D0C
:104BF000990083A7890013971400A685BA979A2372
:104C000022853369E90023902701EFF07F846FB09C
:104C1000CFDFEFB2EFDD41112AC6EFB0507EB245D3
:104C200009E937D50200014613050590EFB0907DE4
:104C300001A02E85EF80B1442A2D41016FB08FDD98
:104C4000EFB26FD92A842E8AEFB0707B11E937D585
:104C50000200A285014613050590EFB0B07A01A0CD
:104C60002285EF80D141835A4501AA89014563E03D
:104C70004A038144014437DB0200631C9A0001456A
:104C800063075A0183A709000A043E9408406FB0E5
:104C9000CFD713091400420983A70900135909014A
:104CA00013172900BA9788438504C20493058B9192
:104CB000C180EFB06FE111E5090413190401135924
:104CC00009014A845DBFEFB2AFD22A84EFB03073DE
:104CD00011E937D50200A285014613050590EFB012
:104CE000707201A02285EF8091392E2DC167FD17CA
:104CF00001456385F5002285EFF09FF46FB08FD1F9
:104D0000EFB20FCF2A892E84B284EFB0506F11E931
:104D100037D50200CA85014613050590EFB0906EA5
:104D200001A04A85EF80B1355E2901466379F40020
:104D30000C4506042E940A20E98C33369000328507
:104D40006FB04FCDEFB2CFCA130600082A84AE84ED
:104D5000EFF01FFB2A89930500082285EFF05FE042
:104D60006308090013060008A6852285EFF0DFE33B
:104D70006FB04FCAEFB22FC6A1474111AA84B289C2
:104D8000639CF5040022EFB0906711E937D502006B
:104D9000A685014613050590EFB0D06601A02685D3
:104DA000EF80F12D11CC85476306F40223A20900A0
:104DB00083A7C18E4E86A145268582972A8A39A06F
:104DC0001385840223A2A900054A7DD152854101A1
:104DD0006FB0AFC33105FDB783A7C18E2E8982970F
:104DE00085472A8AE314F5FE9D47631AF900B7D573
:104DF00002009385C5914E85EF80B148C1B72685E5
:104E0000EF80F1272A84631D090085452685EF6020
:104E100011424840EFC0E0460844EFC080467DB7ED
:104E2000914A631759010C402685EFF0AFFF79BF17
:104E3000094B631D69032685EF60512E83D7490016
:104E400003D709008507998FC207C187E31DF5FCC9
:104E50002685EF60D12E83D7690003D72900850707
:104E6000998FC207C187E310F5FC8DB7AD47631773
:104E7000F90A6E292685EFF0AFDDEF50213BEF50A8
:104E8000413B9377D50F639C47072C004E85EF502D
:104E900001422C002685EFF02FE1C167FD172A891A
:104EA0006309F5021C4413171500BA979A23935708
:104EB00037401587D98F858B89EF6E282685EFF0CF
:104EC0002FD9CA85231B2401231D24012685EFF039
:104ED0002FD87A28C167FD17E30AF7EE1C44931612
:104EE0001700B6979E2393D6574013D68740D18E8E
:104EF0008D87D58F858BE39B07EC3AC681AA631615
:104F000065010E2C6EA82EACD1B7E31455FD268595
:104F1000EF807119EF4051786DF565BFB1476318A7
:104F2000F908EF50A1302A89EF50A1307915137597
:104F3000D50FE30D05E84A852C00EF5041372C00D2
:104F40002685EFF06FD66E282A89E301B5E8C167A0
:104F5000FD176385F5002685EFF08FCF231B240115
:104F6000231D24014E85EF508132C167FD17E30FE9
:104F7000F9E41844931919004E971A239357574090
:104F80000D87D98F858BE39307E4CA852685EFF0DB
:104F90002FCC1C44CE979E23A187858BE39807E2F4
:104FA0007000C14526854AC6EF60816A05B5B947DC
:104FB0006317F90A7A29C167FD17E309F7E0931728
:104FC000170018453E971E2393D66740858A85CAE9
:104FD00093D65740858A85E693D67740858AADCEAD
:104FE000542D898AB5EA93F7F7F7C207C1831EA348
:104FF0005C2C898B89C76E282685EFF0BFD46E287C
:105000002685EFF0EFC40E2C2685EFF06FC4EF502D
:10501000E121EF50012279151375D50F19E17E2892
:105020001EACFD57362C7EA81C4413971600BA9769
:105030009A2393578740858BE38A07D89357574025
:105040000D87D98F858BE39307D836C67000C1458D
:105050002685EF60E15F9DB393E7070849BFC1472D
:105060006311F9023A2DC167FD17E301F7D61C451C
:1050700093161700B6979E2393D6474013D65740F2
:10508000BDB5B5476319F900FD577EA93EAC26852D
:10509000EF60113E25BBD9476311F904EF500119A8
:1050A0002A89EF500119631709000145EFD08035B7
:1050B000EF5021189147631EF5002685EF80A17EF1
:1050C000EF40915D01C5232C040009B3FD571EACD0
:1050D000F5B98947E31CF5CEFDB79377D90F55474E
:1050E0006397E7020E2DC167FD176385F5002685DE
:1050F000EFF00FB66E28C167FD176385F5002685B2
:10510000EFF00FB5FD577EA8FD571CCCC1B1E147AC
:105110006313F916838709004D476393E7021E2D39
:10512000C166FD1601476386D700850713970701FF
:1051300041835E281AACFD176347F7061EACA5A095
:105140005147639DE7001A2DC167FD176314F700EF
:10515000231C05001E2CA1CBFD17CDB74947639733
:10516000E708514681452685EF7011051E2C4167E1
:105170007D176395E700231C040035A05840139663
:105180003700035344013A965A2216229398170087
:105190000507158F420741870587369742074187E4
:1051A000B28663E467001E2CD5B5039826008315EC
:1051B000260063D70503839506006343B7028395F2
:1051C0004600AA9563CEE5000C44C69503D80500B9
:1051D0009355584013583840B3E505018589B9DD2A
:1051E0008507C207C183A106890865BF4547E39FBC
:1051F000E7BC514681452685EF70017C1E2C416736
:105200007D17E38AE7F6544093953700C207B695B9
:10521000DA219221C1870507118F4207418705874F
:1052200032974207139637004187B29613960701CB
:10523000E34B06F60398260003962500635AC8023E
:1052400003960600098E6345C70203964600634134
:10525000E6021044139817004296035806001356AE
:1052600058401358384033660601058AE30806ECB7
:10527000FD17E11665BFE547E31AF9B485472380BA
:10528000F900A9B6EFA2DFF641112AC6EFB0301738
:10529000B24509E937D50200014613050590EFB084
:1052A000701601A02E85EF80815D484D8D470981E4
:1052B0000D896313F500014541016FA0BFF5EFA211
:1052C0003FF083A7818E130101DD01462A842EC69B
:1052D00082972285EF80A15A5E29638F0738AA84BE
:1052E0008C002285EF60E159228503C9C401EFF0EB
:1052F0007FF98547137919006318F5181369490078
:1053000085452285034BD403EF60A1748811A30E59
:105310000402EF10E16A8808EFE0B0719011854552
:105320002285EF804178900885452285EF8091564F
:1053300081452285A30E6403A3082107EF606171F4
:10534000414681452285EF7021672AD04546814537
:105350002285EF706166B7070040FD173ED2937754
:105360004B002ACE02C4814D814A8149B7DB02003D
:105370003ED4DE2863F2F93003AC040093972A0090
:105380003EC8E2978843568A93858B91850AC20A64
:10539000EFA09FF393DA0A0175D19C44139C190086
:1053A000E2979E23A18B6391072CDC4093953900F3
:1053B000A800BE95EFF04F88035581040356010401
:1053C0008355A10483562104B307C5002314F104B7
:1053D000B387D5002315F1048357E1040357C104B3
:1053E000BE9685078D8FC207C1873A963ECC0507CA
:1053F0009C44098F42074187E2972316C104231773
:10540000D1043ACA9A239357774013770702858BC2
:1054100019C393E70702FA286314370193E70701DA
:105420009A2C6319370722576305072493E767000F
:10543000130700026392E7102247631C0714A30EB0
:10544000F40285452285EF60C1602803EF104157C3
:105450002809EFE0105E300385452285EF80A164C6
:10546000300985452285EF80F1428145A30E640312
:105470002285A30C210BEF60C15D8547930C810948
:10548000130D81183EC48DA08947E31BF5E613690F
:105490008900BDB56385070E0547E39BE7F8639573
:1054A0000D0EA30EF40285452285EF60815A481A3D
:1054B000EF100151C818EFE0D057501A85452285EA
:1054C000EF80615ED01885452285EF80B13C814533
:1054D000A30E64032285A30A2109930C4107EF6000
:1054E0004157130D4113854D031C2D0113770C01FA
:1054F0006304070E0317240182578316A1043E9705
:105500006396E6001377DCFF2319ED0003176401AF
:10551000F2478316E1041D8F6397E60003572D01C0
:10552000799B2319ED009440631A0A0603572D0155
:105530006D9B2319ED0041A0A30EF4028545228541
:10554000EF602151E80BEF10A1476819EFE0704EB2
:10555000F00B85452285EF80015570198545228520
:10556000EF8051338145A30E64032285A30E210DE4
:10557000930CC10BEF60E14D130DC11DB5B7930C3A
:105580000105130D010E8DB7930C4107130D411347
:10559000A1BF930C8109130D8118B9B79257938558
:1055A0008B9136D63307FA000A0736970843EFA0E7
:1055B000BFD1B25625DD050A0A0AD29688420307F2
:1055C000050011C793858B91EFA01FD011E50357FC
:1055D0002D015D9B2319ED00B2456A86A800EF10EE
:1055E000814342479C4083960C0103A68C00BA97E6
:1055F00003AA07008357410403570104D285850796
:10560000998F0397EC00C207C18768184A8823194D
:105610008D01EFC0D00C0316C103D2478945831614
:10562000E1033387C7403347B70283578104A8009B
:105630003E97E24742074183958FB3C7B702835530
:10564000A1042314E10432972316E104668601477E
:10565000AE97C207B245C1832315F104B697D2862F
:105660002317F104EFE030408509C20993D90901FD
:1056700009B393E727006DBB0145130101236FA018
:10568000FFB7EFA2FFB609476319E60083A7818E33
:1056900082972A8422856FA0FFB701E6EFF03FC210
:1056A000CDBF05470144E317E6FE83A7818E8297AD
:1056B000D5B781472147B386F5009022B306F500A0
:1056C000850790A2E399E7FE8280EFA2FFAF011168
:1056D00085452A84EF70811F631705202285EF809E
:1056E000011A1C212A8993F7070F89E71C31BD8B0A
:1056F000638B071E1387818F1C43938A818F8507D5
:105700001CC32947634CF71C2285EF60E104AA897A
:10571000930505010808EFF0DFF9494681454E85FC
:10572000EF708129BC804D4681453E95E8804E85CD
:10573000EF708128BC82414681453385A740E882CD
:105740004E85EF706127BC81454681453E95E881D5
:105750004E85EF706126BC832C00130B440033850B
:10576000A740E8832285EF60C1118A852285EF601A
:1057700041115A85EFB0B01213451500137AF50F99
:10578000630A0A06B787187C938787C13EC0B7872C
:10579000E8839387873E5A853EC2EFB0A070AA8403
:1057A000930B0002130C0008894C214D63900414E4
:1057B000494681452285EF7021203C804D46814538
:1057C0003385A74068802285EF70011F3C824146E7
:1057D00081453E9568822285EF70011E3C814546D9
:1057E00081453385A74068812285EF70E11C3C83A9
:1057F0003E9568832C002808EFF0BFEB8347090033
:10580000894613D747000D8B630CD71863ECE61855
:1058100085466314D7003880F884998309476382EA
:10582000E71A6362F71A05476394E7003C82FC8637
:105830008347190009478D8B6386E71A6366F71A59
:1058400005476394E7003C81FC85834719000947BD
:1058500089838D8B6389E71A6369F71A0547639417
:10586000E7003C83FC87031704018317810163145D
:10587000F702031724018317A101631EF700031722
:1058800044018317C1016318F700031764018317EC
:10589000E1016305F7042285EF60813D2C081305C3
:1058A0000401EFF01FE12285EF60813C5C4C300089
:1058B00089452285829783A7C901228685454E8521
:1058C00082972285EF60C10901C52285EF607109C9
:1058D0005A85EFB0205D2A846318051483A70A0057
:1058E000FD1723A0FA0005616FA09F912685EF6048
:1058F00021274DE18347090093F70703638177036D
:105900005D4681452685EF70210B839704010317BF
:1059100001003385A7406353A7003A856880834719
:10592000090093F7070C638087036146814526854C
:10593000EF70810883974401031741003E9563533C
:10594000E5003A856882834719008D8B6381970350
:10595000554681452685EF7021068397240103175C
:1059600021003385A7406353A7003A8568818347A8
:105970001900B18B6380A703594681452685EF70D6
:10598000A10383976401031761003E956353E5000B
:105990003A856883A6855A85EFB00052AA8439B546
:1059A000B8809DBD03170101E3080AE63480139611
:1059B000060141866353C700BA86139706014187E3
:1059C000A1BDBC82ADB583174101E3020AE638826E
:1059D00093160701C18663D3F6003E87931707012C
:1059E000C187B1B5BC818DB583172101E30E0AE4EF
:1059F000388193160701C18663D3D7003E8793177A
:105A00000701C18791B5BC83B1BD83176101E30B69
:105A10000AE4388393160701C18663D3F6003E87F4
:105A200093170701C1873DBD5C4C30008D45228531
:105A30008297A2855A85EFB0204871BDEFA2AFF9D9
:105A4000AA892E89EF60910B2A84EFB0401B11E9DF
:105A500037D50200A28501461305058FEFB0801AE5
:105A600001A015CC9384418F9C4089E72285EF707B
:105A7000115C88C09384018F9C4089E72285EF7078
:105A8000915D88C089452285EF5091472285EF704E
:105A9000115FAA8401E92285EF70D16F014422854C
:105AA0006FA0AFF6EFB0A01511E937D50200A685BB
:105AB00001461305058FEFB0E01401A09C30B765D7
:105AC000000023800400C19B9CB09385852922851A
:105AD000EF50113C63190900E38309FCAD452285B1
