:040000006F2010312C
:1000040000000000000000009C0400009E040000AA
:10001400000000000E2B00000000000000000000A3
:100024000E2B00000E2B000000000000000000005A
:100034000E2B0000000000000E2B0000000000004A
:100044000E2B00000E2B00000E2B00000E2B0000C8
:100054000E2B00000E2B00000E2B00000E2B0000B8
:100064000E2B00000E2B00000E2B00000E2B0000A8
:100074000E2B00000E2B00000E2B00000E2B000098
:100084000E2B00000E2B0000761C00000E2B00002F
:100094000E2B00000E2B00000E2B00000E2B000078
:1000A4000E2B00000E2B00000E2B00000E2B000068
:1000B4001C1A00000E2B00000E2B00000E2B00005B
:1000C4000E2B00000E2B00000E2B00000E2B000048
:1000D4000E2B0000AA0B00002A0C0000641800007C
:1000E4000E2B00000E2B00000E2B00000E2B000028
:1000F4000E2B00000E2B00000E2B00000E2B000018
:10010400000000000E2B00000E2B00000E2B000040
:100114000E2B0000540500000E2B00000E2B0000D7
:100124000E2B00000E2B00000E2B00000E2B0000E7
:100134000E2B00000E2B00000E2B00000E2B0000D7
:100144000E2B00000E2B00000E2B00000E2B0000C7
:100154000E2B00000E2B00000E2B00000E2B0000B7
:100164000E2B00000E2B00000E2B00000E2B0000A7
:100174000E2B00000E2B00000E2B00000E2B000097
:100184000E2B00000E2B00000E2B00000E2B000087
:100194000E2B00000E2B00000E2B00000E2B000077
:1001A400000000000000000000000000000000004B
:0C01B4000000000000000000000000003F
:1001C000397101436EC619A0397141536AC866CAB4
:1001D00062CC5ECE19A0397101535AD056D252D496
:1001E0004ED64AD826DA22DC06DE3301614082820E
:1001F00041114AC026C222C406C68282B24D4101C4
:10020000024D924C224CB24B4101024B924A224A7F
:10021000B2494101024992442244B24041018280E4
:100220003D432A876373C3029377F700BDEFADE5C3
:10023000937606FF3D8ABA960CC34CC30CC74CC7D5
:100240004107E36BD7FE11E28280B306C3408A0602
:100250009702000096966780A6002307B700A306C2
:10026000B7002306B700A305B7002305B700A30412
:10027000B7002304B700A303B7002303B700A3020A
:10028000B7002302B700A301B7002301B700A30002
:10029000B7002300B700828093F5F50F9396850091
:1002A000D58D93960501D58D61B79396270097025A
:1002B000000096968682E78086FA9680C1171D8F89
:1002C0003E96E374C3F8A5B73367B500FD530D8BB5
:1002D00079E7B7877F7F9387F7F710419441B3722F
:1002E000F6003363F600BE92B3E262006395720CCF
:1002F0006318D6065041D441B372F6003363F6005A
:10030000BE92B3E262006396720A631BD604104584
:100310009445B372F6003363F600BE92B3E2620016
:10032000639F7208631ED6025045D445B372F6002F
:100330003363F600BE92B3E2620063987208631101
:10034000D60210499449B372F6003363F600BE92A8
:10035000B3E26200639172085105D105E30FD6F64E
:100360001317060193970601631CF7001357060144
:1003700093D706013305F7409375F50F91E9828015
:100380004183C1833305F7409375F50F91E1828076
:100390001377F70F93F7F70F3305F740828010219B
:1003A0009421050585056313D60075FA3305D640FB
:1003B000828011059105E314D6FE01458280210556
:1003C000A105E31ED6FC014582803105B105E31885
:1003D000D6FC014582804105C105E312D6FC0145EA
:1003E0008280EFF2FFE03971AA842E841305100297
:1003F000854532C602D202D402D602D802DA02DC25
:1004000002DE02CC02CE23100102EF20B07285453D
:100410001145EF20107485450565EF20D0438967AD
:100420002312F10237150140E1473ED64C108D47AB
:10043000130505403ED4EF205034E08437140040CB
:100440002C0813050480E486231F0100231D0100EE
:10045000EF20F0733246C167938707070C18130526
:1004600004803ED8231BC102231C0102EF20D07C54
:10047000130504808545EF3080081305048081450D
:10048000EF30000C130504808545EF30C009854529
:1004900013050480EF3020052161ADBB01A0B70733
:1004A000EFBE37E700E0938707083CC701A0EFF2F3
:1004B0003FD4797185453705100002CA02CC02CEBF
:1004C00002D002D202D402D602C602C8EF2070685F
:1004D000854513050003EF20F0658567FC828D4795
:1004E0003ECC4C08E147371501403ECEEF20F028C6
:1004F000914737150140FC824C0891471305054090
:100500003ECEEF209027F167938707203ED00C1056
:10051000B7070C00375500403ED402D22316010223
:10052000EF30200705469305505237550040EF3015
:10053000A010930750147C8685475C876800854728
:100540003EC8EF20103F854537550040EF30600D25
:100550004561C9B14111930550523755004022C63B
:1005600026C44AC24EC0EF3020126302050E375532
:100570000040EF3040101375F50F2389A1889306D2
:10058000400213873189938701896319D50C854609
:1005900014A396239384C19813861600A69688A266
:1005A00092A39306A0021384C1986312D50A2390E4
:1005B00007009C3023000700130740076395E70AF4
:1005C000D430130710036390E60AFC20130540069D
:1005D0002947938707FDB387A702E830130505FD78
:1005E0003305E502AA978824130505FD3E95EF0023
:1005F00022012A89A824AE89130505FDEF004200D7
:10060000B727020003A6879083A6C790EFF0613654
:100610002A86AE864A85CE85EFE021512A89A83404
:10062000AE89130505FDEFF0B17DB727020003A6E3
:10063000079183A64791EFF0C1332A86AE864A859B
:10064000CE85EFE0814EEF00527C23AAA19A32447E
:10065000A24412498249410173002030142395FAC3
:1006600023900700EDB73820930620076315D70CB9
:100670005030930610036310D60C7C2061676830FD
:100680001307076A938707FDB387E7020967130714
:100690000771130505FD3305E5021307803EAA9790
:1006A0000824130505FD3305E50213074006AA9744
:1006B0000834130505FD3305E5022947AA972824C8
:1006C000130505FD3305E502AA972834130505FD3A
:1006D0003E95EFF0F1722A894834AE89130505FD85
:1006E000EFF01172B727020003A6879083A6C79088
:1006F000EFF021282A86AE864A85CE85EFE0E142DA
:100700002A896824AE89130505FDEFF0716FB727BC
:10071000020003A6079183A64791EFF081252A8660
:10072000AE864A85CE85EFE04140EF00126E93879A
:10073000419BC8C329BF93068006639BD7085C30E2
:10074000130710036398E7147C201305400629471C
:10075000938707FDB387A7026830130505FD3305AE
:10076000E502AA970824130505FD3E95EFF05169AF
:100770002A892824AE89130505FDEFF07168B72793
:10078000020003A6879083A6C790EFF0811E2A86F9
:10079000AE864A85CE85EFE041392A892834AE8974
:1007A000130505FDEFF0D165B727020003A60791F9
:1007B00083A64791EFF0E11B2A86AE864A85CE8557
:1007C000EFE0A136EF0072649387419B88C741B583
:1007D000930670066395D70E7C2061676830130717
:1007E000076A938707FDB387E70209671307077155
:1007F000130505FD3305E5021307803EAA9708247B
:10080000130505FD3305E50213074006AA970834D2
:10081000130505FD3305E5022947AA97282413058A
:1008200005FD3305E502AA972834130505FD3E951D
:10083000EFF0115D2A894834AE89130505FDEFF00C
:10084000315CB727020003A6879083A6C790EFF01C
:1008500041122A86AE864A85CE85EFE0012D2A898F
:100860006824AE89130505FDEFF09159B727020002
:1008700003A6079183A64791EFF0A10F2A86AE86C3
:100880004A85CE85EFE0612AEF0032589387419B7D
:10089000C8C775BB13072003E39BE7DA7C20130767
:1008A0004006A946B387E702182413070703BA973F
:1008B00078303307D702BA972382F19C49BB93065D
:1008C00040076398D7025430930720036396F608D5
:1008D0007C2013074006A946B387E70218241307B4
:1008E0000703BA9778303307D702BA97A382F19CEF
:1008F000B9BB930630046391D7067C206177130758
:10090000076A938707FDB387E702383489669386C1
:100910000671130707FDBA977830130707FD3307F1
:10092000D70293064006BA971834130707FD33071A
:10093000D7029306803EBA971824130707FD3307A2
:10094000D702A946BA973824130707FD3307D70201
:10095000BA972393F19CE5B993077006E319F7CE94
:10096000583093071003E314F7CE7C206177130708
:10097000076A938707FDB387E70238348966938651
:100980000671130707FDBA977830130707FD330781
:10099000D70293064006BA971834130707FD3307AA
:1009A000D7029306803EBA971824130707FD330732
:1009B000D702A946BA973824130707FD3307D70291
:1009C000BA972394F19C61B1EFF21F8011657971A0
:1009D000854511053714014002CA02CC02CE02D06F
:1009E00002D202D402D602C602C8EF20B0148D444F
:1009F00093070020E14B4C0813050480FC8226CCB1
:100A00005ECEEF2080579307004011494C08130534
:100A10000480FC82374A01404ACEF169EF20E0555C
:100A200093890920370B0C000C1013050A804ED057
:100A30005AD402D223160102EF20B03513050A80E2
:100A4000054693055052EF20303F0546930540423E
:100A500013050A80EF20503E93075013854A7C8689
:100A6000680085475C8756C8EF20A06C13050A8094
:100A70008545EF20103B854537050200EF20700DBE
:100A800085451145EF20100B4C0813050480231AEF
:100A9000210126CC5ECEEF20404EA1474C08130525
:100AA0000480FC824ACEEF20404D4ED0B749004032
:100AB0000C10138509405AD402D223160102EF20EC
:100AC000502D13850940054693055052EF20D0362E
:100AD00005469305404213850940EF20F035930702
:100AE000601368007C862307510156C8EF206064BC
:100AF000138509408545EF20D03285455145EF20CB
:100B00007003414A4C0837150140231A41014ACE6F
:100B1000EF20A046930900024C0837150140231A24
:100B200031014ACEEF20604541494C08130504804D
:100B3000231A41014ACE26CCEF202044130504801D
:100B4000C145EF2020504C0813050480231A3101C1
:100B50004ACE26CCEF2060421305048093050002A4
:100B6000EF20404E930700044C0813050480FC82DC
:100B70004ACE26CCEF206040130504809305000484
:100B8000EF20404C930700084C0813050480FC82BA
:100B90004ACE26CCEF20603E930500081305048062
:100BA000EF20404A45616FF0AFE5411126C4B744DC
:100BB0000140930550521385048022C6EF20D02CAB
:100BC00005C5138441891A20930770021385048098
:100BD00063E8E704EF20302A1A20930717001EA0CD
:100BE0009387C19CBA9788A3B744014093054042BC
:100BF00013850480EF20502919CD13850480EF2040
:100C00009027138441890E2099C513850480EF2015
:100C10001026231004003244A24441017300203006
:100C2000EF20702523100400C1B7411126C4B7443A
:100C30000040930550521385044022C6EF20D02473
:100C400005C5138461891A20930770021385044037
:100C500063E8E704EF2030221A20930717001EA054
:100C60009387419FBA9788A3B744004093054042B9
:100C700013850440EF20502119CD13850440EF2047
:100C8000901F138461890E2099C513850440EF20BD
:100C9000101E231004003244A2444101730020308E
:100CA000EF20701D23100400C1B7B7070460F917C7
:100CB000BE234111C207C1837C87288741018280FE
:100CC00003D741A2B7070460239FE7FE8280938782
:100CD000C1A1D6232567130717346396E602B2270E
:100CE000B7060460239FC6FE1356850092A21375B3
:100CF000F50F8AA2DE27239FF6FE93D785009EA2DA
:100D000093F5F50F8EA282801387C1A16C23562321
:100D1000054625679387C1A1130717346399C50456
:100D20006399E6041D476366A7001387C1833A955C
:100D300008217D151375F50F9946014763E6A60056
:100D4000138741843A951821B706046013056003A0
:100D5000239FA6FE936587008EA213770702962332
:100D6000B22309CB63FAC60092A3B6A331A0E382F3
:100D7000E6FC8280E36AD6FEB62737060460231FAE
:100D8000D6FE23100600231006009623FD1693D5E9
:100D90008640C205C1810EA293F6F60F16A2D62791
:100DA000231FD6FE2310060023100600BE23FD17C6
:100DB00093D68740C206C18216A293F7F70F1EA2F0
:100DC0004DBFEFF2EFC21387C1A156239387C1A194
:100DD0000DE937074001238307001307070F98C366
:100DE000256713071734639AE60037072A001307AD
:100DF000C70298C71307B002DAA7014531376FF071
:100E00006FC10547F8A33707F00013070714C1BFE8
:100E1000EFF20FBE41118545114502C202C402C660
:100E2000EF204051E177371401407C82C1473EC634
:100E30004C008D47130504803EC4EF200014A165CB
:100E400013050480EF20002041016FF0AFBCEFF2EA
:100E50002FBA9387C1A19A23A2238145AA84014571
:100E60003304E402AD35A93D81473707046063943C
:100E700087006FF02FBA06A38507D5BFEFF2AFB595
:100E80001971371401406937A16513050480EF20FB
:100E9000A01B13054006EFC0915013050480A16507
:100EA000EF20401A854513050010EF20C046854508
:100EB00013058006EF2000488D449167C149130552
:100EC00004C08A857C804EC426C2EF20000BF177D7
:100ED00093873773614A130504408A857C8052C426
:100EE00026C2EF20800937250140930700F88A8544
:100EF000130505807C8052C426C2EF20000813052C
:100F0000044005698A852310210152C426C2EF20BE
:100F1000C00613050440130909808A8523102101A6
:100F20004EC4056926C2EF204005930509801305CC
:100F30000440EF20601185473EC6BD473ECA916719
:100F4000BED87C00BEDCC8003C10BEDE02C802CCAD
:100F500002D202D402D626D802DA02DC02DE82C035
:100F600082C282C482C6CEC882CA82CE82CC82D0DD
:100F700082D2CAD482D682DAEF10707385450145D9
:100F8000EF10D07D13052003EFC07141B707046057
:100F9000239F07FE193B9387C1A1130715F0CAA32E
:100FA0004207C16741839387F7EF1384C1A163E7C9
:100FB000E700A567938707306313F502B70704605E
:100FC0001307300D239FE7FECD314AA0F9394AA01F
:100FD000E93922054AA0D1395E205D8D4AA05A2008
:100FE000A56793871734631CF71E37040460130743
:100FF000F00C9307E4FF231FE4FE23910700130680
:10100000100CB2A313070003BAA39306D00E231F3C
:10101000D4FE93064006B6A38D46B6A3C946B6A332
:1010200093061008B6A39306800E231FD4FE9306E2
:101030005008B6A3C146B6A39305A007AEA3930577
:10104000B00C231FB4FE93059003AEA39305C0021A
:10105000AEA32391070093054003AEA38945AEA339
:101060009305700F231FB4FE93050002AEA39305F2
:10107000A00E231FB4FE23910700239107009305C0
:10108000000C231FB4FEED45AEA3231FC4FE05468E
:10109000B2A39305500C231FB4FEBAA3BAA313073F
:1010A000700C231FE4FE1307700BBAA31307600331
:1010B000231FE4FE13078004BAA31307A003231F12
:1010C000E4FE13075005BAA31307100B231FE4FE19
:1010D000239107006947BAA31307600B231FE4FE9F
:1010E000A945AEA31307200ABAA31307200F231F95
:1010F000E4FE2391070013076002231FE4FEB2A35E
:101100001307000E231FE4FE3D47BAA31305A002F8
:10111000AAA3130880022391070121482391070104
:10112000B948239117012391070113084005239122
:1011300007011308900A2391070113083004239133
:101140000701AEA3BAA323910700239107002391BF
:101150000700239107009305100E231FB4FE23916F
:101160000700D545AEA3DD45AEA39D45AEA3C5455D
:10117000AEA31948239107011308B0022391070178
:1011800093086005239117019308C0032391170169
:10119000954823911701B6A3BAA39306F003B6A30B
:1011A000B6A3BAA3231F04FF2391070023910700CE
:1011B000B2A3B6A3231FA4FE239107002391070027
:1011C000239107001307F00EBAA3231FB4FE1305E3
:1011D0008007EFC0D11C93079002231FF4FE014546
:1011E000CD36371501409165130505C0EF109065A8
:1011F00041657D15A93909616FF02F811387C1A160
:1012000056232567130717349387C1A1639AE60213
:1012100003D8A700B70604601387E6FF239F06FFE5
:1012200013588500239006011375F50F8AA2CA276B
:10123000239FA6FE93D6850036A393F5F50F2EA324
:101240009627B7070460239FD7FE92A38280EFE220
:101250003FF793F4760093D73600B3349000BE94F2
:1012600093D71600B384F402130906FE1379F90F1D
:101270004111930A40023146372B0200B72B02007E
:10128000372C020093F7F40F3EC0B30A59039317AB
:101290004900AA892E8D3EC22E84814C130BCB3778
:1012A000938BCBD8130C8C913309C902138AC1A13B
:1012B000024693F7FC0F63E5C70041016FE01FF49E
:1012C000B1476395F606B3872C01E29713038400B8
:1012D0008423931D030193DD0D0113968401618620
:1012E0006354060603D68189A2854E853AC636C464
:1012F0003137A2463247050403562A004204939729
:101300001400418093F4F70FE379C4FA3306A44143
:101310006319D604850983570A00C20993D90901C4
:10132000E3FDF9F8EA8D850C6E8459B7C1476396E1
:10133000F6009247E697DE9751BFE147E39FF6F646
:10134000B3875C01DA9759B75DF7B707002003D67A
:101350008715A2854E853AC636C44D353247A2461A
:1013600059BFE39C8DF6C1B7EFE21FE62A96AE9611
:1013700013190601939906014111AE84135909010D
:1013800093D909013A8A135B17002A84930AE0056E
:10139000937BF50F9023130706FE1377F70F63F582
:1013A000EA0041016FE0DFE563662401D294C204E4
:1013B0005E84C1803EC6E3F634FF22850147D286B3
:1013C000A6857135B2475A94420441808507D9B742
:1013D000EFE29FDF138AF6FF2A8CAE89B28B3A8D3B
:1013E000135B17001374FA0F814C01499304F00F3B
:1013F000A94A631694046FE0BFE0B38757037D17D3
:101400001377F70FE31B97FEB3D7FB02B3F757032E
:1014100013F6F70F6319090263D74C0385E70147F9
:10142000EA861306000262855A9CCE85420C7D1422
:10143000393D850C135C0C011374F40F5DBF2287DA
:10144000854775BF05490147EA8613060603E1BFD4
:10145000EFE29FD73304A6402A8BAE8CB384B6400C
:10146000854B63478000814B01C43304C540FD5B5D
:10147000054C63479000014C81C4B384D5407D5C2A
:101480002289635394002689814A014A8149130DB8
:10149000190063543D016FE0BFD693950C011315FD
:1014A0000B010146C1814181229A893BA69A63556D
:1014B0004901330A2A415E9B63555901B38A2A4187
:1014C000E29C8509C20993D90901E1B7EFE2DFCFB8
:1014D000139B060113140501131A060193940501C9
:1014E000135A0A01135B0B014180C180B30B440105
:1014F000B38A6401C20BC20A93DB0B0193DA0A01BF
:101500003A86D6855E85B30944413A89C209FD31E0
:1015100093D90901D685B38A64414A864E85C20AA9
:10152000F13993DA0A014A86D6855E85C139D685B6
:101530004E85B30A9A00B30964014A86C209C20AF9
:10154000753993D9090193DA0A01330464414A8653
:10155000D6854E8542045D314180B38444414A863C
:10156000D6852285C2045939C1804A86A6854E8512
:1015700071314A86A685228551316FE07FC8EFE23E
:101580009FC5939716000D44AA892E8AB28AB68405
:101590001D8C3A8921CF014915A04A8BDA865687DE
:1015A0004A86D2854E85050B1537E3D964FF635B08
:1015B0000400931729003E9419040509E3DF24FD74
:1015C0006FE0BFC4B30799408A073E942904FD1415
:1015D000EDB75687A6864A86D2854E85C53D635AA5
:1015E0000400931729003E9419040509E3D324FF4E
:1015F000C1BFB30799408A073E942904FD14F5B78B
:10160000EFE27FBD797185453705040002CA02CC3F
:1016100002CE02D002D202D402D602C602C8EF1015
:10162000505385452145EF10F05037140140930782
:101630000040FC820D49E1474C08130504C04ACC28
:101640003ECE056AEF10701393070A8091494C084B
:10165000130504C0FC824ECEEF103012F167B75470
:101660000040938707203ED00C10B7070C0013856D
:1016700004803ED402D223160102EF10907113852C
:101680000480054693055052EF10107B05469305E4
:10169000404213850480EF10307A930770137C86E4
:1016A00085475C87680085473EC8EF109028138502
:1016B00004808545EF10F07685452145EF10904771
:1016C0004C08130504C0231A41014ECEEF10F00A56
:1016D0008967FC824C08C147130504C03ECE4ACC42
:1016E000EF10B0098965130504C0EF10F0154561CE
:1016F0006FE0BFB1EFE2DFAF371501408965130539
:1017000005C0EF1030146FE0FFB0EFE27FAE371589
:1017100001408965130505C0EF1010136FE09FAFFE
:10172000EFE21FAD371501408565130505C0EF10C9
:10173000D0106FE03FAEEFE2BFAB83C7E1899946BF
:101740002A849D8BFD1793F7F70F9384E18963EC4F
:10175000F600B73602009386860D8A07B697944343
:101760009387419B828603A5419BEFF0515FAE8634
:10177000B73502002A869385450F2285EFC0B14612
:101780009C2085079CA06FE0FFA8C843EFF0315D67
:10179000AE86B73502002A8693854510F9BF884783
:1017A000EFF0F15BAE86B73502002A8693854511CE
:1017B000E9B7C847EFF0B15AAE86B73502002A86BE
:1017C000938545125DBF902BB73502009385451375
:1017D0002285EFC051416DB7B7350200903B93852C
:1017E0000514FDB7B7350200B22B9385C514CDB7EC
:1017F000B7350200D22B93858515D9BFEFE25F9FE5
:101800000111680002C602C802CA02CC02CE253706
:10181000375500406C0013050580C92005616FE055
:101820007F9FEFE2FF9C1387C1891C231384C1892A
:1018300085071CA3F53501C5D1372300040083C7F4
:10184000D1899384D18981C7C93585479CA0182047
:10185000F9476317F700793D85479CA023000400F2
:101860006FE05F9B411126C4B7540040930550526E
:101870001385048022C6EF10306105C51384A18949
:101880001A20930770021385048063E4E704EF10C5
:10189000905E1A20930717001EA09387C1A2BA97E3
:1018A00088A3375400409305404213050480EF108D
:1018B000B05D19C913050480EF10F05B9387A1890F
:1018C0009A2319C3239007003244A24441017300B4
:1018D0002030EF10505A23100400E1B7EFE25F917F
:1018E0002A89AE840144930500044A85EF103059DB
:1018F0007DD9B3878400838507004A850504C20526
:10190000C181EF10D0561374F40FB387840083871E
:101910000700F1FB6FE01F90EFE2FF8B0945EF102E
:10192000F0004929EFC0E1210D22EFF02FD5EFF0B3
:10193000AF89F931692AEFE09FB731659305F0056A
:101940001305F534A52013070080239CE188EF00E0
:101950002072EF60B17EEFC08111EFC0A11B138533
:1019600041A5EF105069138541A537090020EF10FC
:1019700070688144138441A5B73902001309090135
:101980000858850493F4F40F268693854916EF5082
:1019900030282945EFC0A1202945EFE0000BEFD00A
:1019A000A0368327490001458297D9BFEFE25F84C3
:1019B00001112E84AA848545054502CA02CC231E46
:1019C000010002C602C8EF10D0184C0837050040CD
:1019D000E484E082231D0100231B0100EF10301B73
:1019E0009305000237050040EF10F03605468545A7
:1019F00037050040EF1010329307C0127C86680054
:101A000085473EC823070100EF10A07285453705C2
:101A10000040EF10502D05616FE0CFFF8545370581
:101A20000040EF10D03405C11387F1891C23D14643
:101A30008507B3E7D7021CA391E3E5338545370556
:101A40000040EF10503473002030EFE26FFA411184
:101A50008545214502C202C402C6EF10B00D85477C
:101A6000371401407C82C147130504C03EC64C00B8
:101A70008D473EC4EF106050130504C08545EF103C
:101A8000A05C130440067D1429451374F40FEFC0C5
:101A9000011175F8371501408545130505C0EF1094
:101AA000605A130680029305F01D13053006EFE01F
:101AB0005F9313052003EFC0810E01469305F01DCF
:101AC00013053006EFE0FF9141016FE0AFF4EFE264
:101AD0002FF239711306000281450810EFE04FF430
:101AE0008545214502CA02CC02CE02C602C8EF10CB
:101AF0007004854513050020EF10D0033165EF1009
:101B000000693715014089474C08130505C0372483
:101B10000140FC8202CEEF10404613050440EF1056
:101B2000000889673ED60C10A54713050440230A18
:101B3000F10202D002D202D402D8EF10400A854549
:101B400013050440EF10801C9D460546A54513056E
:101B50000440EF100014854513050440EF102012D7
:101B6000930720227C86680085473EC82307010032
:101B7000EF10205C05469305004813050440EF1064
:101B8000600C854513050440EF10C00A814513051C
:101B90000440EF10001D13050440EF10000C9304E7
:101BA00004402685EF10000C6DFD1305044037241A
:101BB0000140EF10A00B930404402685EF10A00B0A
:101BC0006DFD13050440EF10401B2390A18A216195
:101BD0006FE04FE40397018A81472A97634F07001C
:101BE00009CD05669306F6FFB6876358C700AA8736
:101BF0006305D50093170701C1833E858280EFE21C
:101C00002FDF1387418056233E234AA336A31EA30A
:101C1000B697AA970D45B3C7A70285669386A6B463
:101C20003E87C207C18363F3D7003687FD7793876A
:101C3000674BBA97C207C1831307202437040020DB
:101C40003E856374F7001305202442054181EFF0BF
:101C50003104B737020083A5C716EFE0B15EB7378E
:101C6000020083A50717EFF00109EFF0A170230D23
:101C7000A4146FE02FDA411122C6372401409305E6
:101C8000004813050440EF10600B01CDD14513054A
:101C90000440EF10E008420541852D3F2391A18AC1
:101CA000B93F372501409305004813050540EF1063
:101CB000A00A3244410173002030B7170240984314
:101CC000B706FFF041111367170098C3D8433706D2
:101CD0000200758FD8C39843B706F7FEFD16758FBF
:101CE00098C39843B706FCFFFD16758F98C3D84379
:101CF000B70601FFFD16758FD8C39843B70600ECF1
:101D0000FD16758F98C33707FF0098C723A60702F3
:101D100002C402C69843C166558F98C3B7160240E5
:101D200005679C42F18F3EC6A24785073EC4B24775
:101D300081E7A247E397E7FEB71702409C4313975A
:101D4000E7006357070685473EC632478547631F4E
:101D5000F704B7170240D843B706C1FFFD16D8C332
:101D6000D843D8C3D84313670740D8C3D843758F27
:101D7000D8C3D843B7062900558FD8C39843B706B0
:101D80000001558F98C3984393166700E3DD06FE64
:101D9000D843B7160240719BD8C3D84313672700B6
:101DA000D8C32147DC42B18BE39EE7FE410182802C
:101DB00002C661BFB7160240D8421146318B9387E5
:101DC000C1806305C70021466308C70237177A0040
:101DD0001307072098C3371702405843118393769F
:101DE000F70037070020130707003697142398439E
:101DF0003357D70098C38280D842D4424166498382
:101E00003D8BF18E1306270015CF3D47630FE60289
:101E10004147630FE602454781456313E6004146AB
:101E2000A1E23747024003270780418B0DC73717D0
:101E30007A00130707203306C70290C3C9DD984311
:101E4000058349BF81454946E1BF85453546C9BF40
:101E500081453D46F1B737173D0013070790E1BFB5
:101E60003715024058559316F700585563DF06049E
:101E700011833D8B9306170037177A00130707204D
:101E80003357D70298C35455A182BD8A8DE2954637
:101E90003307D702058398C3371702405857944336
:101EA0003D8B050733D7E60298C3984369B70545CC
:101EB0006394A600E546E9BF3D456396A600D1467A
:101EC0003387E602C9BF8906E5BF3D8B930617003D
:101ED00037177A00130707203357D702F1B7EFE21D
:101EE0002FB1371401402A89A144130404C0931769
:101EF0008901E187054663C307000146C145228584
:101F0000EF10C0140146A1452285EF102014FD14E6
:101F100006090546A145228593F4F40F1379F90FBC
:101F2000EF10C012E9F46FE0EFAEEFE26FAC3714E0
:101F30000140AA840146130504C0A145EF10001119
:101F4000130504C00146C145EF104010014693053A
:101F5000000813050440EF10600F26854937194526
:101F6000EFB091400146A145130504C0EF10000EEB
:101F70000545EFB0713F130504C00546A145EF10BC
:101F8000E00C130504C00146A145EF10200C4149A7
:101F90008144130404C00146A1452285EF10000BC3
:101FA000A14522850546EF10600A8604C204930508
:101FB00000022285C180EF10400801C58504C204DB
:101FC000C1807D191379F90FE31709FC371501401A
:101FD00005469305000813050540EF10200713D5AB
:101FE00044006FE02FA3EFE20F9F411140002A8AC7
:101FF0009309E100A28422895285053F8AA08904C1
:10200000E39C34FF854715463E8793161700CA9612
:102010000E208A226374B5000AA08EA205079316CB
:102020000701C182E393C6FE85070904E39EC7FC4E
:1020300028843C83AA9728854101AA97C207C183B7
:102040000D4533D5A7026FE04F9CEFE26F9A2A84CB
:1020500003C5018141112EC67937AA8403C51181B8
:102060005937B24506A08AA1054541016FE08F9A14
:10207000EFE20F98411185451305800237140140A6
:10208000EF10402BE177930480044C00130504C04B
:102090007C8226C6EF00706E130504C0A165EF00B8
:1020A000707A930700024C00130504C07C8226C698
:1020B000EF00B06C130504C093050002EF009078A8
:1020C000C14741498D444C00130504C07C824AC677
:1020D00026C4EF00906A130504C0C145EF00907656
:1020E000930700084C00130504407C824AC626C4AE
:1020F000EF00B0681305044093050008EF009074EA
:10210000A1474C00130504C07C824AC626C4EF00D8
:10211000D066130504C0A145EF00D072370500203A
:1021200013050501930525014105053705454101C5
:102130006FE04F8EEFE2CF8B4111AA842E842800EE
:102140009305A100193709E5014541016FE08F8C26
:102150009305E1006800D53D65D930863884636811
:10216000C7009307160363D8E700E31FE6FC930755
:102170001703E3CBC7FC34873C8563E8D70093851E
:10218000160363D8F500E391F6FC93851703E3CDBE
:10219000D5FA32970587B6979AA085871EA0054580
:1021A0006DB7EFE2EF84AA8437150140A1651305EE
:1021B00005C037040020EF0050681304040141E11A
:1021C000B705002037050020938525021305050279
:1021D00085C08D378307440163C70700930700FC60
:1021E0005CA81C485CC44828137505086FE08F8202
:1021F00091376DD10A28EFF0411D0C4CEFE0B12F63
:10220000AA8403150402EFF0411CAA852685EFE09D
:10221000C14CEFF021160AA82A28EFF0011B4C4C04
:10222000EFE0712DAA8403152402EFF0011AAA85AC
:102230002685EFE0814AEFF0E1132AA861BF5C2810
:102240001397870161876356070093F7F7075CA828
:1022500059BFFD57232604001CC871B7EFD2BFF742
:102260002A84239CC1881306D500511542064205D5
:10227000AE8641824181AE84EFF08F9D9386D4007B
:10228000938544FF130A140093891400C206C20503
:10229000C18222862285C181420AC209EFF04F9B8A
:1022A000135A0A0193D90901CE85528501461309B3
:1022B000F4FFEFE0BFF4420913590901CE85938979
:1022C000F4FF4A850146C209EFE05FF393D90901A3
:1022D000CE8552850146EFE07FF2CE854A850146E4
:1022E000EFE0DFF103D6818901479946A685228573
:1022F000EFF0EFA86FD07FF1EFD2FFED3E84BA840C
:1023000013070080239CE188B73702004111AA8A95
:102310002E8AB2893689938747174147C1461306EB
:10232000800C9305C0081305800246C442C6EFF036
:10233000AF83B7370200938787174147C14613061B
:10234000800C9305C00813058007EFF0EF81B737C5
:1023500002009387C7174147C1461306800C9305B7
:10236000000A13058002EFF02F80B7370200938731
:1023700007184147C1461306800C9305000A130550
:102380008007EFE07FFEB737020093874718414789
:10239000C1461306800C9305400B13058002EFE045
:1023A000BFFCB7370200938787184147C146130621
:1023B000800C9305400B13058007EFE0FFFAB73759
:1023C00002009387C7184147C1461306800C930546
:1023D000800C13058002EFE03FF9B73702009387C6
:1023E00007194147C1461306800C9305800C13055D
:1023F0008007EFE07FF7B73702009387471941471F
:10240000C1461306800C9305C00D13058002EFE052
:10241000BFF55686414791469305C0081305000451
:10242000EFE01FFB5286414791469305C008130514
:102430000009EFE0FFF94E86414791469305000AF7
:1024400013050004EFE0DFF84A8641479146930503
:10245000000A13050009EFE0BFF7268641479146C1
:102460009305400B13050004EFE09FF622864147D9
:1024700091469305400B13050009EFE07FF53248C4
:102480004147914642869305800C13050004EFE016
:102490003FF4A2484147914646869305800C1305B8
:1024A0000009EFE0FFF20356010341478D46930513
:1024B000C00D13050006EFE0BFF141016FD0FFD45E
:1024C000EFD21FD04164FD475D717D571305F4FFC6
:1024D000239CF188B7070020239CE714EFE03F9787
:1024E000930700801305F4FF239CF188EFE03F96EB
:1024F000B73702009387071B4147C1461306800C7C
:10250000930580022945239C0188EFE0FFE5B7375A
:1025100002009387C71C4147C1461306800C9305F0
:1025200080032945EFE05FE4B73702009387871EF9
:102530004147C1461306800C930580042945EFE00E
:10254000BFE2B7370200938747204147C1461306D1
:10255000800C930580052945EFE01FE1B7370200A5
:10256000938707224147C1461306800C93058006D6
:102570002945EFE07FDF13060480D1455145EFF098
:10258000FFCD37040020930704011307000098CF04
:10259000238A0700B737020003A7871A83A7C71A41
:1025A000014981443ED082574EDA130404013ACEE9
:1025B0003AD23ED85C40054582975C281307000458
:1025C00093F6070C639BE60293F7F7FB98085CA869
:1025D00093972400BA971A28850493F4F40F23984C
:1025E000E7FE3A282399E7FE89476387F41863E2F8
:1025F000970285476382F416014929450509EFB022
:10260000015A4209135909019307803EE3F427FB5D
:10261000E5A98D47638AF4189147E39FF4FC035AB8
:1026200001048359410403592104835A6104330589
:102630003A419357F5413D8D1D8DB307594113D74D
:10264000F741B98F998FB387F7023305A5023E95FD
:10265000EFE02102EFB0E15BEFD0D174035B8104C6
:10266000835BC104131D05018354A10433057B4121
:10267000035CE1049357F5413D8D1D8DB387844183
:1026800013D7F741B98F998FB387F702135D0D0107
:102690003305A5023E95EFD0D17DEFB08157EFD045
:1026A0007170931D05016A85EFE0915E93DD0D0168
:1026B000AA8C6E85EFE07151AA856685EFE08138BE
:1026C0002AD4EFE0D169B737020003A6071A83A620
:1026D000471A2ADC2EDEEFD0611E634005026257E6
:1026E000F257724682563A85BE85EFD04112634654
:1026F000A00063040D0063910D0E9387C1A1AE236A
:1027000003D5C1A1C16CB1153115C20542051386AF
:10271000FCFFC1814181EFF07FB4D1455145138663
:102720000C80EFF0BFB3B737020083A5071722551F
:10273000EFE0615CEFE01144420541812AC0E2888C
:102740005E88A6875A87D6864E86CA855285EFF060
:10275000BFBA01498144B9BD41691306F9FFD145AA
:102760005145EFF0BFAF03D5C1A113060980D14594
:1027700031154205418135A003D5C1A1C169138638
:10278000F9FF31154205D1454181EFF03FAD138985
:10279000C1A183552900138609805145B115C20591
:1027A000C181EFF0BFAB89BD138AC1A183552A0057
:1027B00041691306F9FFB115C205C1815145EFF01A
:1027C000FFA983552A0003D5C1A113060980B115BD
:1027D000C2053115C18171BF33056A419357F54177
:1027E0003D8D1D8DB307994013D7F741B98F998F50
:1027F000B387F7023305A5023E95EFD09167EFB09E
:1028000041412AD4338579419356F541358D158D53
:10281000B3868A4113D6F641B18E918EB386D60225
:102820002ED63305A5023695EFD0B164EFB0613EE8
:102830002257B2572A8DAE8D3A85BE85EFD091567C
:1028400042054181EFE0D144EE852AD46A85EFD07C
:10285000715542054181EFE05137A257AA853E8567
:10286000EFE0411E2A8DEFE0914FB737020003A63B
:10287000071A83A6471A2AD42ED6EFD02104634C18
:1028800005002257B2571256C2563A85BE85EFC090
:102890001178635EA0029387C1A1AE2303D5C1A1C5
:1028A000C16CB1153115C20542051386FCFFC1810B
:1028B0004181EFF0BF9AD145514513860C80EFF06E
:1028C000FF99B737020083A507176A8595B5338549
:1028D00069419357F5413D8D1D8DB3879A4013D7BC
:1028E000F741B98F998FB387F7023305A5023E955B
:1028F000EFD03158EFB0E1312AD433057A41935605
:10290000F541358D158DB306894113D6F641B18E4B
:10291000918EB386D6022ED63305A5023695EFD01A
:102920005155EFB0012F2257B2572A8DAE8D3A85FF
:10293000BE85EFD0314742054181EFE07135EE852C
:102940002AD46A85EFD0114642054181EFE0F12794
:10295000A257AA853E85EFE0E10E2A8DEFE03140D7
:10296000B737020003A6071A83A6471A2AD42ED621
:10297000EFC0D174E34105F22257B2571256C25646
:102980003A85BE85EFC0B168E347A0F083DAC1A104
:102990009387C1A113858AFD03DB2700EFE0F122B5
:1029A000AA8B33854941EFE05122AA855E85EFE08D
:1029B0006109AA8B08CC5685EFE031212A8C3305BA
:1029C0003A01EFE09120DE85EFE0E132AA856285F1
:1029D000EFE0A15B373A02008325CA19EFE0A1318D
:1029E000EFE031130AB013058BFDEFE0111EAA8949
:1029F00033852441EFE0711DAA854E85EFE0810407
:102A0000AA8948CC5A85EFE0511C2A8C33059900DD
:102A1000EFE0B11BCE85EFE0012EAA856285EFE0E5
:102A2000C1568325CA198944EFE0E12CEFE0710E0D
:102A30002AB05E85EFE0F10D9357F5413D8D1D8D78
:102A400063CBA4004E85EFE0D10C9357F5413D8D4B
:102A50001D8D63DCA4069305CBFE1385CAFEC164FD
:102A6000C20542051386F4FFC1814181EFF00FFFDB
:102A700013860480D1455145EFF04FFEB737020071
:102A8000938707234147C1461306800CE945130588
:102A90008002EFE07F8D834444021387018193B766
:102AA00014002302F4029387118189E8930600F948
:102AB00014A3130700FD98A30149EDBC930600FD84
:102AC00014A3130700F998A369B152574164FD4755
:102AD0001305F4FF239CF188EFE06FB7B7370200CE
:102AE000938747244147C1461306800C9305E006AF
:102AF00013053002EFE05F871305803EEFB0210A37
:102B00001305F4FFEFE0AFB461616FD02FEF01A0C8
:102B100097E1FF1F938181E417D100201301814EBB
:102B2000177502001305C54297D5FF1F9385854D84
:102B30001386018963FAC5008322050023A055008E
:102B400011059105E3EAC5FE1385018997750020FB
:102B5000938585006377B500232005001105E36D9B
:102B6000B5FEFD42739002BCAD4273904280B762E5
:102B70000000938282087390023097D2FFFF938205
:102B8000A24893E2320073905230EFF00F9397F225
:102B9000FFFF9382A2D87390123473002030EFD2DB
:102BA0002FE5B727014093870740631CF500854553
:102BB00013050020752F814513050020552F6FD078
:102BC0006FE5B737014093870780E31AF5FE854527
:102BD00013050040712F814513050040C5B75C41C6
:102BE0003707F1E01307F7EF944D7D8F9C41D58FA8
:102BF000D44DD58FD441A206D58FD98F5CC11C4549
:102C000037F7F1FF1307D77FD4457D8F9C49D58FC8
:102C100094458606D58FD98F1CC55C55370710FFA4
:102C20007D177D8FDC29FD1793F7F70FD207D98F1A
:102C30005CD582801C4589C593E717001CC582803E
:102C4000F99BEDBF5C4193F5F50F01C6DD8D4CC1DD
:102C5000828093C5F5FFFD8DDDBF1C4593E787009E
:102C60001CC5828008450D81058982801C4593E73B
:102C700047001CC5828008450981058982801C4562
:102C800089C52167D98F1CC5828061777D17F98F2F
:102C9000DDBFA54763FBB7048D47138765FF330787
:102CA000F7020328C5009D47B397E70093C7F7FFD6
:102CB000B3F70701B396E600DD8E54C5145D09062F
:102CC000154793D746018D8BB307F64093F7F70F5F
:102CD000B387E7027D473317F7001347F7FF758F78
:102CE000B395F500D98D0CDD82800D473387E50261
:102CF000032805019D47B397E70093C7F7FFB3F794
:102D00000701B396E600DD8E14C94DBF1C5D370781
:102D1000D0FF7D17FD15F98FD205DD8D0CDD82808A
:102D2000411102C62AC6B24793878702BE952EC6B6
:102D3000B247884341014205418182805841144194
:102D400093D78500F58F99C713F5F50F798D333536
:102D5000A000828001458280A18193C5F5FF0CC14E
:102D600082805C4191C537070004D98F5CC18280A5
:102D7000370700FC7D17F98FD5BFEFD26FC7011160
:102D80002A8423040100A5441C8463F9F404230469
:102D90000100A54621461C8463FFF60623150100A9
:102DA0002304010095461C8463F1F60E38853C85AA
:102DB00099460D46B3F7D702056513050580B3D7CD
:102DC000C7023357D702BA97C207C1837C853C85B7
:102DD00005611D8D420541856FD0CFC31C4493E72B
:102DE00087001CC42285EFF0FFE76DFD1C4493E7CC
:102DF00047001CC42285EFF01FE86DFD78441C8459
:102E000014108607B6972396E7FE1C84850793F770
:102E1000F70F5C8495BFA30401009C846378F600DF
:102E20001C84850793F7F70F5C84B5B798849C845E
:102E30000C100607850786072E97AE970357C7FE27
:102E400083D7C7FE63FDE7029C848607AE9783D7CE
:102E5000C7FE7C859C84988485078607AE9783D5BA
:102E6000C7FE931717001810BA972396B7FE9C84D5
:102E700038850C1085078607AE972396E7FE9C845D
:102E8000850793F7F70FDC8449BF1C841010388541
:102E900089078607B29783D7C7FEBA97C207C1834F
:102EA0007C851C84850793F7F70F5C84EDBD144582
:102EB0005C4158450328C502D58FD98F184937067C
:102EC00000A0D98F5849D98F184DD98F584DD98F17
:102ED0001851D98F5851D98F1855D98F1859B3E730
:102EE0000701D98F18410A073A961CC2A147639679
:102EF000F6001C4293E707041CC254598C4E9C42B6
:102F0000CD8FCC429205CD8F8C46A205CD8FCC467D
:102F1000C205CD8F8C4AD44AD205CD8FE206D58F1B
:102F20005CC291676313F802145D904E9C42D18F8E
:102F3000D04294461206A206D18FD58FB70600A0C4
:102F40009386461036971CC38280B70700A09387EC
:102F500047103E97B7070010FD17F5B7B70700A059
:102F60000A053E951C4189C593E717001CC1828064
:102F7000370710007917F98FD5BF9C4513F7070164
:102F800013F8F70001C7D8413368E8008E2113F722
:102F9000F50F39C318418146854E3D4F930F80028E
:102FA00093028004214E3396DE00B3F8C50063110E
:102FB00016039398260033131F011343F3FF33774F
:102FC000E300B318180133E7E800639FF70550C921
:102FD0008506E39AC6FD18C11307F00F6375B704A1
:102FE00054412146854E3D4F930F80029302800449
:102FF000414EB398CE0033F715016392E8021317E0
:10300000260001173313EF001343F3FFB376D30009
:103010003317E800D98E639DF701232A15010506B1
:10302000E319C6FD54C18280E39457FA10C94DB725
:10303000E39757FE23281501DDB708456D8D33351D
:10304000A00082800CC982804CC9828019C20CC940
:1030500082804CC98280B7070140635A0504DC4F67
:1030600093560501131805013707300013F6F600D3
:1030700013580801B376E50063500506639BE6022A
:10308000930606010D46B316D60093C6F6FFF58FDC
:1030900099C9135755011377F73F12073317E80003
:1030A000D98F63570504370701405CCF8280DC432A
:1030B00045BF1317B500635607008D46B396C6008B
:1030C000E9B7135755011377F73F12073317E80095
:1030D0001347F7FFF98F6DBF6390E6023706014093
:1030E0005442370700F17D17F98F758F58C2D5F11B
:1030F000370701405CC382801317B500635C07008B
:103100008D46B396C60093C6F6FFFD8EB707000F37
:10311000D58FF1BF1357550112073317E800134736
:10312000F7FF7D8FB707000FD98FD1B723A2A18AF0
:10313000828003A7418A894710216311F702143165
:103140008D4763EDD7003C219A0637E700E09607EC
:10315000D58F93F7F70F32972300F7405441054777
:10316000935756003317C70089CA938707048A0705
:10317000B7E600E0B69798C3828093870706B7E664
:1031800000E08A07B69798C30F1000008280B71638
:103190000240DC4251777D17F98F5D8DC8C2828075
:1031A000371702405C439146B18B6385D700A14637
:1031B0006382D706B7177A00938707201CC137169A
:1031C00002405C4237070020130787039183BD8BC1
:1031D000BA9794231C41B3D7D7005CC15442A18253
:1031E0009D8ABA969422B3D6D70014C55442AD82B4
:1031F0009D8A36971823B3D7E7005CC558423983B8
:10320000937637001387418136971823B3D7E702A7
:103210001CC982805C435843C166C983758FB7F669
:10322000FF1F83A6C670BD8B8907139616016348DE
:103230000600C54601466392D702C94739A88946A8
:10324000638FD702BD46638ED702C146638ED70215
:10325000C54601466393D700C1471DEF374702407B
:1032600003270780418B05C737177A00130707200C
:10327000B307F7021CC121D61C41858381B70146E3
:103280006DBF0546B547D1BF0146BD47F9B73717F2
:103290003D0013070790E9BFB7150240D8559316B4
:1032A000F700D85563DF060411833D8B93061700A2
:1032B00037177A00130707203357D70218C1D455A0
:1032C000A182BD8A8DE295463307D702058318C1D6
:1032D00037170240585714413D8B050733D7E60294
:1032E00018C1184171B785456394B600E546E9BF3A
:1032F000BD456396B600D1463387E602C9BF89064D
:10330000E5BF3D8B9306170037177A001307072098
:103310003357D702F1B799C5371702405C4B5D8D23
:1033200048CB8280B7170240D84B1345F5FF798D03
:10333000C8CB828099C5371702401C4F5D8D08CFDE
:103340008280B7170240984F1345F5FF798D88CFDB
:10335000828099C5371702405C4F5D8D48CF8280CF
:10336000B7170240D84F1345F5FF798DC8CF82803B
:1033700099C5371702405C475D8D48C78280B717F3
:103380000240D8471345F5FF798DC8C782801E21BA
:1033900037370140930607C0C207C1836300D504D5
:1033A000B7060040630CD502938606406308D50239
:1033B000B7160040138606806302C502938606C0D6
:1033C000630ED50013070740630AE5003757014035
:1033D000930607C06304D5006316E500BA2193F78E
:1033E000F7F8D98F37170040630CE5001307074043
:1033F0006308E50093F7F7CFFA21C207C183D98F9D
:103400001EA1DE215EB59E211EB5B7370140138790
:1034100007C0630EE50093870740630AF500B757BE
:103420000140138707C06304E5006314F5009C2581
:103430001EB985475EA982801E3165771307F7CFD5
:10344000C207C183BD9BC207C1831EB11E31562175
:1034500003D88500C20713960601162DC18393F782
:10346000F7FD758F96214182A206558FB62142073E
:103470004183B3E606019206D58FB7360140C207F5
:10348000138806C0C183630E050193860640630A54
:10349000D500B7560140138806C063040501631EBA
:1034A000D502B62593F7F7F703D8C5009206D58F56
:1034B000D621C207C183920693F7F7FBD58FFD761D
:1034C0009386F63FF18EF225C207C183336606016B
:1034D0000A06D18E13960601418252A11AADFA2135
:1034E0001ABD1EB182801E2189C593E717001EA157
:1034F0008280C207C183F99BC207C183CDBF8357B6
:10350000450491C52167D98F2312F5048280C6072F
:10351000C583DDBF5E2501C6DD8D4EA5828093C5C6
:10352000F5FFFD8DDDBF1E2189C593E707081EA1AC
:103530008280C207C18393F7F7F7C207C183C5BF73
:103540001A2DFD779387F77FF98FA205CD8FC207DC
:10355000C1831EAD82805E21C207C18393F7F7F855
:10356000C207C1835EA15E21DD8D4EA182801E292E
:103570004A25ED8F4205418189C76D8D3335A00005
:1035800082800145828093C5F5FFC205C1810EA9E5
:103590008280EFC2FFC51629F577FD17F58FF6215A
:1035A000DA257971D58F1EA95625FD779387379F28
:1035B000F58FD6212A842EC6D58F9625D58FB62590
:1035C000D58F5EA55E29C207C18393F7F7CFD98F48
:1035D0005EA96808EFF0DFBCB7470140938707801A
:1035E000B245631EF402A2576547B387E7029841CC
:1035F000930640060A07B3D7E70233D7D702B3F7DB
:10360000D7021207920793872703B3D7D702BD8B40
:10361000D98FC207C1831EA445616FC0BFBF925737
:10362000E1B791C55E250967D98F5EA582805A25CD
:10363000F977FD17F98FD5BF13F7F50F8547158378
:10364000B395B7006319F7009307C500984301CEFF
:10365000D98D8CC38280894693074501E318D7FE34
:1036600093070501E5B793C5F5FFF98DDDB793F530
:10367000F51F4EA182804A211375F51F82800A2111
:103680006D8D3335A000828013F7F50F85461583C5
:10369000B397B6006311D7025A25F98F1A21014555
:1036A0004207418381CB0545A181B315B5006D8FDC
:1036B0003335E000828089466314D7001A29F1BFB0
:1036C0005A29E1BF8280EFC2BFB2EFC08001EF3064
:1036D000C1726FC03FB499476395F504EFC25FB103
:1036E000EFF07FFE2A84EF5021573C458DEB7C455F
:1036F00099C363968702938741A59C2B138441A5A8
:1037000081C7138541A529244844054793064006EF
:1037100013064006A545EF30A17985475CA06FC030
:103720007FAF8280EFC2DFAC938741A583C747029A
:10373000138441A581C7138541A5B12108500547D0
:103740009306400613064006A545EF30617685478F
:103750001CA86FC03FAC99476393F502EFC25FA905
:10376000EFF07FF62A84EF50214F3C4599E77C45E6
:1037700099C363948700EFF0FFFA6FC0BFA98280FE
:1037800099476393F502EFC2BFA6EFF0DFF32A84F7
:10379000EF50814C3C4599E77C4599C36394870081
:1037A000EFF05FF86FC01FA78280EFC27FA40841CF
:1037B000B73500009385656DEF50E1296FC09FA577
:1037C000EFC21FA32A844845B735000093850578CA
:1037D000EF506128084CB73500009385456CEF50D9
:1037E0008127484CB735000093856575EF50A126B9
:1037F0006FC05FA28280EFC2BF9FB70600209165B5
:103800002A841388060E1387060E09469385656978
:103810009387060E130560519386060EEF700055D0
:1038200085475CA01CA82302F40222852528228556
:10383000C5202285892E0840EF30A1606FC09F9D72
:10384000EFC21F9B2E84AA843514EF20300B137413
:10385000F40F854763E6870085452685EF50F15DC7
:103860006FC05F9BEFC2DF982A8481450145EF500E
:10387000B16F08C08145EF20006BB745000093840D
:10388000818A9385058488C0EF50E11C8840854576
:10389000EF50B15A08401306000F93050014EF6073
:1038A000C1271385C18AEF9031081385C18A01466B
:1038B0009305C002EF90312708401386C18A8145E5
:1038C000EF7021062285EFF05FEE6FC0BF941357B3
:1038D0003500935655009357350193F6067E7D8B40
:1038E000FD8BAE073365D7005D8D8280EFC25F90A0
:1038F0002E84AA843514EF2070001374F40F8547CA
:1039000063E6870085452685EF5031536FC09F9051
:10391000EFC21F8E2A8481450145EF50F16448C4EF
:103920008145EF204060B74500009384018B93856B
:10393000C58E88C0EF50211288408545EF50F14F69
:1039400048441306000F93050014EF60011D138512
:10395000C18BEF90617D1385C18B01469305C00239
:10396000EF90711C48441386C18B8145EF60717BD9
:1039700048448145EF10D03E08CC8145EF504104CA
:10398000084C81452169EF10B04D084C0147814634
:1039900001468145EF103051084C01468145EF50FA
:1039A000D104084C1306000F93050014EF60E116D4
:1039B0001385418BEF9041771306F00F9305C002FA
:1039C0001385418BEF9031160145EFF05FF02A86A9
:1039D000930590021385418BEF90110C1385418B59
:1039E000054693050003EF9051021306F00F93056F
:1039F000C0031385418BEF90111337A59900130570
:103A00009599EFF0DFEC2A86930590031385418B9F
:103A1000EF9091081385418B01468545EF90E17E3B
:103A20001385418B014693050005EF90017E084CFC
:103A30001386418B8145EF60D16E084C8145EF3094
:103A4000303BB765020048CC938585E6EF30B00384
:103A5000484C8545EF20B02A484C13065006930584
:103A6000F004EF508178484C9305200AEF60C117AD
:103A70001385818BEF90416B014685451385818BC2
:103A8000EF90A178370500017D15EFF05FE42A86FD
:103A9000930599081385818BEF901100370600205C
:103AA0009305E9081385818B13064606EF90D11024
:103AB000930509081385818B0946EF9001759305DD
:103AC00019081385818B0146EF9021741306F00FBE
:103AD0009305C0021385818BEF90F1040145EFF04F
:103AE0001FDF2A86930590021385818BEF90C17AA0
:103AF0001385818B0146C145EF9021711385818B20
:103B00000146CD45EF9061701385818B0146C54517
:103B1000EF90A16F1385818B0146C945EF90E16E4F
:103B20001385818B014693050005EF90016E484C8B
:103B30001386818B8145EF60D15E2285EFF05FC8EF
:103B40006FC04FED1357350093565500935735010D
:103B500093F6067E7D8BFD8BAE073365D7005D8DBA
:103B60008280EFC2EFE82E84AA843514EF2000593A
:103B70001374F40F854763E6870085452685EF506B
:103B8000D12B6FC02FE9EFC20FE52A848145014593
:103B9000EF50913D08D08145EF20E038B745000057
:103BA0009384018C938525B688C0EF40D16A884004
:103BB0008545EF50912808501306000F9305001417
:103BC000EF50B1751385418DEF9001561385418DEE
:103BD00001469305C002EF90017508501386418D90
:103BE0008145EF60115408508145EF10701748D49B
:103BF0008145EF40F15C485481452169EF10502622
:103C000048540147814601468145EF10D029485468
:103C100001468145EF50615D48541306000F93053E
:103C20000014EF50916F1385418CEF90E14F130614
:103C3000F00F9305C0021385418CEF90C16E37F5EC
:103C4000C6001305F5BFEFF0FFEF2A86930590023B
:103C50001385418CEF9041641385418C0546930593
:103C60000003EF90815A1306F00F9305C0031385EC
:103C7000418CEF90416B37A5990013059599EFF0B2
:103C80007FEC2A86930590031385418CEF90C160E9
:103C90001385418C01468545EF9021571385418C52
:103CA000014693050005EF90415648541386418C18
:103CB0008145EF60114748548145EF307013B76577
:103CC000020008D8938545E8EF30E05B0858854549
:103CD000B7090020EF20B00208587D46F545EF50A7
:103CE000C150085893054006EF5011701385818C20
:103CF000EF908143014685451385818CEF90E1501B
:103D00000145EFF03FE42A86930599081385818CDD
:103D1000EF908158138649069305E9081385818C35
:103D2000EF908169930509081385818C0946EF900E
:103D3000C14D930519081385818C0146EF90E14C24
:103D40001385818C01469305C002EF90C15D1385F8
:103D5000818C0146C145EF90414B1385818C014612
:103D6000CD45EF90814A1385818C0146C545EF9082
:103D7000C1491385818C0146C945EF9001491385DE
:103D8000818C014693050005EF9021480858138661
:103D9000818C8145EF60F13848548145EF30500502
:103DA000B765020048D8938505E9EF30C04D485803
:103DB0008545EF20C074485813062004F545EF50A0
:103DC000C142485893054006EF5011621385C18CDB
:103DD000EF908135014685451385C18CEF90E14216
:103DE0000145EFF03FD62A86930599081385C18CCB
:103DF000EF90814A138649069305E9081385C18C23
:103E0000EF90815B930509081385C18C0946EF90FB
:103E1000C13F930519081385C18C0146EF90E13E1F
:103E20001385C18C01469305C002EF90C14F1385E5
:103E3000C18C0146C145EF90413D1385C18C0146BF
:103E4000CD45EF90813C1385C18C0146C545EF906F
:103E5000C13B1385C18C0146C945EF90013B1385D9
:103E6000C18C014693050005EF90213A485813860E
:103E7000C18C8145EF60F12A48548145EF3040778D
:103E8000B765020008DC9385C5E9EF30C03F085CE8
:103E90008545EF20C066085C13064006F545EF50E7
:103EA000C134085C93054006EF5011541385018D11
:103EB000EF908127014685451385018DEF90E13410
:103EC0000145EFF03FC82A86930599081385018DB7
:103ED000EF90813C138649069305E9081385018D0F
:103EE000EF90814D930509081385018D0946EF90E8
:103EF000C131930519081385018D0146EF90E1301A
:103F00001385018D01469305C002EF90C1411385D1
:103F1000018D0146C145EF90412F1385018D01466A
:103F2000CD45EF90812E1385018D0146C545EF905B
:103F3000C12D1385018D0146C945EF90012D1385D3
:103F4000018D014693050005EF90212C085C138636
:103F5000018D8145EF60F11C6FC02FAB8147214778
:103F6000B386F5009022B306F500850790A2E39989
:103F7000E7FE8280C167FD176389F504EFC24FA792
:103F80004111AA842E84EF6051485C41931534009E
:103F90000A85BE95EFF09FFC2C002685EF40D15A94
:103FA00038843C8034818A85BA977C803C8526851C
:103FB000BE9674813482369778823883BA977C8330
:103FC000EF50011341016FC0EFA48280EFC24F9FF9
:103FD00041112A84AE8BEF6051438A85AA8A2285DB
:103FE000EF4091562285EF40D15FAA892285EF40AC
:103FF0007161494681452A8A2285EF50B1544D4668
:1040000081452A8B2285EF50F15341468145AA8490
:104010002285EF503153454681452A892285EF504C
:1040200071522A8C514681452285EF50B151894702
:10403000B347F50205896547E54DAA978507C2078D
:10404000C1876343F700BE8DC20DE54793DD0D4187
:10405000268463D3970065444204E5474184CA84BB
:1040600063D32701E544C204E547C184628963D371
:1040700087016549420913590941B3898940330AC7
:104080002A41014D5A8CE54CF919791A83D74A0116
:104090006372FD0883A74A0093153D002800BE9572
:1040A000EFF0DFEB031781003C80634FEB063E9798
:1040B000E28663D36C01E546158F42074187788419
:1040C0000316A1003881B306C700C206C18263C1CE
:1040D000C406858EC206C18674858316C100B69754
:1040E000C207C18363C93605A2978316E100C207E0
:1040F000C1877C86B307D700C207C18363CF46035D
:10410000CA97C207C1870146DE8528007C87EF90E9
:10411000C01615C583D74A016394A701416D7D1D63
:104120006A8541016FC08F8D3E973307B74171B7E4
:10413000B386B64145B7EE974DBFEE97D9B7050D9B
:10414000420D135D0D0199B7EFC28F8739712A8433
:10415000AE89EF90006411E937650200A28501463F
:10416000130585EAEF90406301A04E85EF906062F1
:1041700011E937650200CE850146130585EAEF9007
:10418000A06101A02285EF605128AA8B81440149DA
:10419000376A020093972400CE978843830705006F
:1041A000A9E72285EF6071265E29AA846389270921
:1041B000484109C5EF90304623A20400884409C550
:1041C000EF90704523A4040013153900EF90B03A26
:1041D000C8C0EF90005C1DE5CC4037650200014689
:1041E0001305C5EBEF90405B01A093058AEBEFC090
:1041F000AF8D09C505094209135909018504C20497
:10420000C18049BF13151900EF90F03688C4EF90B4
:1042100040589C4411E937650200BE8501461305EC
:10422000C5EBEF90605701A0D84011C391E301495D
:10423000931519003E85EFA0000A239A24014946F0
:10424000814523A03B012285EF50D12F2ACE4D4638
:1042500081452285EF50112FAA8441468145228550
:10426000EF50512E2A8A454681452285EF50912DE7
:104270002A89514681452285EF50D12C2ACC2285AE
:10428000EF403136BC86139B0401135B0B0133876F
:104290006701198D3EC493170501C1833EC622856F
:1042A000031CC100EF40113693170901C183338904
:1042B000470133092541420913590901814A854CB7
:1042C000376D020013972A004E9708430307050035
:1042D0003DEF835A81011385FCFF93C7F7FF3385B8
:1042E000AA023ED49347FBFF3ED6B3079C40854DC0
:1042F0003ED83305A940420513D91C0041854A9593
:104300003345950301497D15131D0501135D0D41CD
:104310008144014B93972400CE9703AC07003EC81D
:10432000B7670200938587EB6285EFB0FFF98307DB
:104330000C0039CD85EF2285EF40D12CA257B387F1
:1043400047413E95131D0501135D0D4199A093054D
:104350008DEB3EC2EFB05FF7924709E513851C0075
:10436000937CF50F850A93FAFA0FA9BF03A78B0078
:10437000B30799008607BA979C239D8B91E38547E5
:104380003E9B8504420BC204135B0B01C18059B7ED
:10439000DDD32285EF50C13B2AC28DC89307FBFFB6
:1043A000B387FA023247014CB307F740C207C1870F
:1043B0003ECAB3079900C207C1833ED2B307AA0120
:1043C000C207C1873ED092576312F90293871A0041
:1043D0003E9AC2476A9A420A9C43135A0A4183870B
:1043E0000700EDC785048A04A6991DB783A78B0033
:1043F00013171900BA9703C80700937C78006393DA
:104400000C00854CD2471387FCFF3387EA029246A3
:10441000B3879703B3C76703BA975247FD17C2071D
:10442000B305EC02C183B3C5650333878A03C205B4
:10443000C18142074183639FB60722853ADE2EDCA5
:104440003EDAEF40111AB2577257E2553387E74010
:10445000D257B305B7409D8DAA95C205C18583A8E3
:104460004B00B386B700630B0904624721EB724728
:104470006385E5001247631BB701C2074257C18736
:10448000AE97639DE7029247639AB703131539000D
:10449000469502578315C5FFC206C1865286669CA3
:1044A0000509420C4209EF80704A135C0C01135954
:1044B000090111BFA2463697BA9545B713153900C1
:1044C000C2060257C18652864695D1BF2285EF406B
:1044D000914621616FB09FD2EFB29FD141112EC69C
:1044E0002A84EF90002BB24511E937650200A285BE
:1044F0000146130585EAEF90202A01A022852EC6E9
:10450000EF60A1705229AA84B24508450606EF90D3
:1045100070218C402285EFF03FC341016FB09FCFE7
:10452000EFB27FCBAE89EF5021242A84EF90602632
:1045300011E937650200A28501461305C5EBEF902E
:10454000A02501A021C09384C18D9C4089E72285CC
:10455000EF60A16688C0930500022285EF40A16646
:10456000AA84EF90002311E937650200A685014671
:104570001305C5EBEF90402201A081E82285EF6092
:10458000217A014422856FB05FC8C177DCC8FD572E
:104590009CCCDC2C1389C40023A20400C19BDCAC9E
:1045A00023A4040023A004004A85EF80511C9C48EA
:1045B00093E707209CC89384818D9C4089E72285DE
:1045C000EF60216288C0B7550000938585892285F8
:1045D000EF406158B75500009385651A2285EF407A
:1045E000C15B63950902B705002022859385850785
:1045F000EFF09FB52285130640069305800CEF501F
:10460000C15199452285EF30305AADBF4E85EF60DC
:10461000C15F0C41AA842285EFF01FB38C44228530
:10462000EFF09FEB9385C4004A85EF80117899BF26
:10463000EFB21FBC41112EC6AA843284EF906015E0
:10464000B24511E937650200A6850146130585EAE2
:10465000EF90801401A026852EC6EF60015B5E29D5
:10466000B24563FEF5001C45139715001344F4FF93
:10467000BA9792232685718C82A3EFF0BF8F4101F8
:104680006FB05FB9EFB23FB5AA84AE89EF9060100A
:1046900011E937650200A6850146130585EAEF900A
:1046A000A00F01A02685EF6041562A890144835757
:1046B00049016364F4006FB05FB5A28505044E86BE
:1046C00026854204EFF0DFF64180D5B7EFB2BFB0E8
:1046D0002A84AE843289EF90C00B11E9376502005D
:1046E000A2850146130585EAEF90000B01A0228503
:1046F000EF60A1515E29AA8963FDF4025C2D898BCC
:1047000099CB9377090881CB930500082285EFF0B8
:104710007FF7239D990083A7890013971400A6852E
:10472000BA979A2322853369E90023902701EFF095
:104730007F846FB09FADEFB2BFAB41112AC6EF903F
:104740004005B24509E9376502000146130585EACF
:10475000EF90800401A02E85EF60214B2A2D4101AE
:104760006FB05FABEFB23FA72A842E8AEF90600252
:1047700011E937650200A2850146130585EAEF902D
:10478000A00101A02285EF604148835A4501AA8912
:10479000014563E04A0381440144376B0200631C16
:1047A0009A00014563075A0183A709000A043E9451
:1047B00008406FB09FA513091400420983A70900A0
:1047C0001359090113172900BA9788438504C204B5
:1047D00093058BEBC180EFB03FAF11E509041319CE
:1047E0000401135909014A845DBFEFB27FA02A84F6
:1047F000EF80307A11E937650200A2850146130582
:1048000085EAEF80707901A02285EF6001402E2DAE
:10481000C167FD1701456385F5002285EFF09FF420
:104820006FB05F9FEFB2DF9C2A892E84B284EF8045
:10483000507611E937650200CA850146130585EAFD
:10484000EF80907501A04A85EF60213C5E2901460A
:104850006379F4000C4506042E940A20E98C333663
:10486000900032856FB01F9BEFB29F98130600082F
:104870002A84AE84EFF01FFB2A8993050008228565
:10488000EFF05FE06308090013060008A6852285A3
:10489000EFF0DFE36FB01F98EFB2FF93A147411134
:1048A000AA84B289639CF5040022EF80906E11E91E
:1048B00037650200A6850146130585EAEF80D06DB5
:1048C00001A02685EF60613411CC85476306F402B0
:1048D00023A2090083A7C18D4E86A1452685829714
:1048E0002A8A39A01385840223A2A900054A7DD112
:1048F000528541016FB07F913105FDB783A7C18D0E
:104900002E89829785472A8AE314F5FE9D47631A0C
:10491000F900B76502009385C5EC4E85EF60214F25
:10492000C1B72685EF60612E2A84631D0900854585
:104930002685EF40215C4840EF90E04D0844EF9021
:10494000804D7DB7914A631759010C402685EFF0E1
:10495000AFFF79BF094B631D69032685EF406148AE
:1049600083D7490003D709008507998FC207C187FC
:10497000E31DF5FC2685EF40E14883D7690003D7A6
:1049800029008507998FC207C187E310F5FC8DB711
:10499000AD476317F90A6E292685EFF0AFDDEF20EA
:1049A000F167EF2011689377D50F639C47072C00C0
:1049B0004E85EF20D16E2C002685EFF02FE1C167E8
:1049C000FD172A896309F5021C4413171500BA97CD
:1049D0009A23935737401587D98F858B89EF6E2897
:1049E0002685EFF02FD9CA85231B2401231D24011E
:1049F0002685EFF02FD87A28C167FD17E30AF7EE76
:104A00001C4493161700B6979E2393D6574013D68F
:104A10008740D18E8D87D58F858BE39B07EC3AC677
:104A200081AA631665010E2C6EA82EACD1B7E314D3
:104A300055FD2685EF60E11FEF2011256DF565BF5F
:104A4000B1476318F908EF20715D2A89EF20715D85
:104A500079151375D50FE30D05E84A852C00EF2075
:104A600011642C002685EFF06FD66E282A89E301A9
:104A7000B5E8C167FD176385F5002685EFF08FCF98
:104A8000231B2401231D24014E85EF20515FC167A4
:104A9000FD17E30FF9E41844931919004E971A23F0
:104AA000935757400D87D98F858BE39307E4CA85C9
:104AB0002685EFF02FCC1C44CE979E23A187858BB3
:104AC000E39807E27000C14526854AC6EF4001051C
:104AD00005B5B9476317F90A7A29C167FD17E309D4
:104AE000F7E09317170018453E971E2393D66740AB
:104AF000858A85CA93D65740858A85E693D67740BE
:104B0000858AADCE542D898AB5EA93F7F7F7C207A7
:104B1000C1831EA35C2C898B89C76E282685EFF084
:104B2000BFD46E282685EFF0EFC40E2C2685EFF05B
:104B30006FC4EF20B14EEF20D14E79151375D50F0C
:104B400019E17E281EACFD57362C7EA81C44139715
:104B50001600BA979A2393578740858BE38A07D824
:104B6000935757400D87D98F858BE39307D836C667
:104B70007000C1452685EF30717A9DB393E7070831
:104B800049BFC1476311F9023A2DC167FD17E3011F
:104B9000F7D61C4593161700B6979E2393D6474029
:104BA00013D65740BDB5B5476319F900FD577EA927
:104BB0003EAC2685EF40215825BBD9476311F90447
:104BC000EF20D1452A89EF20D1456317090001451F
:104BD000EFA05061EF20F1449147631EF500268558
:104BE000EF602105EF20510A01C5232C040009B311
:104BF000FD571EACF5B98947E31CF5CEFDB7937799
:104C0000D90F55476397E7020E2DC167FD176385DE
:104C1000F5002685EFF00FB66E28C167FD17638596
:104C2000F5002685EFF00FB5FD577EA8FD571CCC8B
:104C3000C1B1E1476313F916838709004D476393B8
:104C4000E7021E2DC166FD1601476386D700850762
:104C50001397070141835E281AACFD176347F706D7
:104C60001EACA5A05147639DE7001A2DC167FD1733
:104C70006314F700231C05001E2CA1CBFD17CDB734
:104C800049476397E708514681452685EF50810BD8
:104C90001E2C41677D176395E700231C040035A097
:104CA000584013963700035344013A965A2216226D
:104CB000939817000507158F420741870587369798
:104CC00042074187B28663E467001E2CD5B503987E
:104CD00026008315260063D70503839506006343EA
:104CE000B70283954600AA9563CEE5000C44C695AD
:104CF00003D805009355584013583840B3E50501D3
:104D00008589B9DD8507C207C183A106890865BF0A
:104D10004547E39FE7BC514681452685EF50810218
:104D20001E2C41677D17E38AE7F6544093953700C0
:104D3000C207B695DA219221C1870507118F420774
:104D40004187058732974207139637004187B2960D
:104D500013960701E34B06F60398260003962500F9
:104D6000635AC80203960600098E6345C70203967C
:104D700046006341E6021044139817004296035818
:104D80000600135658401358384033660601058A0A
:104D9000E30806ECFD17E11665BFE547E31AF9B431
:104DA00085472380F900A9B6EFB28FC441112AC606
:104DB000EF80301EB24509E9376502000146130550
:104DC00085EAEF80701D01A02E85EF501164484DDB
:104DD0008D4709810D896313F500014541016FB0CD
:104DE0006FC3EFB2EFBD83A7818D130101DD0146D3
:104DF0002A842EC682972285EF5031615E29638F07
:104E00000738AA848C002285EF301174228503C9EB
:104E1000C401EFF07FF98547137919006318F5187D
:104E20001369490085452285034BD403EF40C10E29
:104E30008811A30E0402EFF0A0178808EFC0701EBF
:104E4000901185452285EF50D17E900885452285B9
:104E5000EF60015D81452285A30E6403A30821074D
:104E6000EF40810B414681452285EF40B16D2AD04C
:104E7000454681452285EF40F16CB7070040FD179C
:104E80003ED293774B002ACE02C4814D814A81499C
:104E9000B76B02003ED4DE2863F2F93003AC0400A5
:104EA00093972A003EC8E2978843568A93858BEBF6
:104EB000850AC20AEFB04FC193DA0A0175D19C444A
:104EC000139C1900E2979E23A18B6391072CDC4071
:104ED00093953900A800BE95EFF04F8803558104E3
:104EE000035601048355A10483562104B307C5006A
:104EF0002314F104B387D5002315F1048357E1048B
:104F00000357C104BE9685078D8FC207C1873A96A5
:104F10003ECC05079C44098F42074187E297231640
:104F2000C1042317D1043ACA9A23935777401377C1
:104F30000702858B19C393E70702FA286314370128
:104F400093E707019A2C6319370722576305072453
:104F500093E76700130700026392E7102247631C80
:104F60000714A30EF40285452285EF30F17A280359
:104F7000EFF000042809EFC0D00A300385452285F0
:104F8000EF50316B300985452285EF6061498145DD
:104F9000A30E64032285A30C210BEF30F177854724
:104FA000930C8109130D81183EC48DA08947E31B22
:104FB000F5E613698900BDB56385070E0547E39BD8
:104FC000E7F863950D0EA30EF40285452285EF30B8
:104FD000B174481AEFE0D07DC818EFC09004501AA1
:104FE00085452285EF50F164D01885452285EF6014
:104FF00021438145A30E64032285A30A2109930C52
:105000004107EF307171130D4113854D031C2D01C4
:1050100013770C016304070E0317240182578316CC
:10502000A1043E976396E6001377DCFF2319ED0099
:1050300003176401F2478316E1041D8F6397E600AE
:1050400003572D01799B2319ED009440631A0A063A
:1050500003572D016D9B2319ED0041A0A30EF4020F
:1050600085452285EF30516BE80BEFE070746819CD
:10507000EFC0207BF00B85452285EF50915B7019C6
:1050800085452285EF60C1398145A30E64032285E1
:10509000A30E210D930CC10BEF301168130DC11D30
:1050A000B5B7930C0105130D010E8DB7930C410795
:1050B000130D4113A1BF930C8109130D8118B9B7CA
:1050C000925793858BEB36D63307FA000A0736974B
:1050D0000843EFB06F9FB25625DD050A0A0AD29643
:1050E00088420307050011C793858BEBEFB0CF9D76
:1050F00011E503572D015D9B2319ED00B2456A862A
:10510000A800EFE0507042479C4083960C0103A634
:105110008C00BA9703AA0700835741040357010480
:10512000D2858507998F0397EC00C207C18768185D
:105130004A8823198D01EFA0E0320316C103D2473C
:1051400089458316E1033387C7403347B702835746
:105150008104A8003E97E24742074183958FB3C779
:10516000B7028355A1042314E10432972316E10406
:1051700066860147AE97C207B245C1832315F10485
:10518000B697D2862317F104EFC0E06C8509C209F7
:1051900093D9090109B393E727006DBB01451301BA
:1051A00001236FB0AF85EFB2AF8409476319E60002
:1051B00083A7818D82972A8422856FB0AF8501E60F
:1051C000EFF03FC2CDBF05470144E317E6FE83A7DA
:1051D000818D8297D5B781472147B386F50090220C
:1051E000B306F500850790A2E399E7FE8280EFA25F
:1051F000BFFD011185452A84EF4011266317052064
:105200002285EF5091201C212A8993F7070F89E707
:105210001C31BD8B638B071E1387818E1C43938AC1
:10522000818E85071CC32947634CF71C2285EF300C
:10523000111FAA89930505010808EFF0DFF9494617
:1052400081454E85EF401130BC804D4681453E95ED
:10525000E8804E85EF40112FBC8241468145338561
:10526000A740E8824E85EF40F12DBC81454681453F
:105270003E95E8814E85EF40F12CBC832C00130B4A
:1052800044003385A740E8832285EF30F12B8A85DF
:105290002285EF30712B5A85EF80B0191345150028
:1052A000137AF50F630A0A06B787187C938787C1BC
:1052B0003EC0B787E8839387873E5A853EC2EF801A
:1052C000A077AA84930B0002130C0008894C214D8F
:1052D00063900414494681452285EF40B1263C8005
:1052E0004D4681453385A74068802285EF40912552
:1052F0003C82414681453E9568822285EF4091245B
:105300003C81454681453385A74068812285EF4031
:1053100071233C833E9568832C002808EFF0BFEB97
:1053200083470900894613D747000D8B630CD718B4
:1053300063ECE61885466314D7003880F8849983B7
:1053400009476382E71A6362F71A05476394E70027
:105350003C82FC868347190009478D8B6386E71AD8
:105360006366F71A05476394E7003C81FC85834731
:105370001900094789838D8B6389E71A6369F71AD6
:1053800005476394E7003C83FC87031704018317F8
:1053900081016314F702031724018317A101631E1F
:1053A000F700031744018317C1016318F7000317BF
:1053B00064018317E1016305F7042285EF30B157DB
:1053C0002C0813050401EFF01FE12285EF30B156E0
:1053D0005C4C300089452285829783A7C9012286CB
:1053E00085454E8582972285EF30F12301C52285C0
:1053F000EF40E11D5A85EF8020642A84631805146C
:1054000083A70A00FD1723A0FA0005616FA05FDFE4
:105410002685EF3051414DE18347090093F707039B
:10542000638177035D4681452685EF40B1118397FF
:105430000401031701003385A7406353A7003A8591
:1054400068808347090093F7070C638087036146F0
:1054500081452685EF40110F8397440103174100D2
:105460003E956353E5003A856882834719008D8B2A
:1054700063819703554681452685EF40B10C83979C
:105480002401031721003385A7406353A7003A8501
:10549000688183471900B18B6380A7035946814512
:1054A0002685EF40310A83976401031761003E951A
:1054B0006353E5003A856883A6855A85EF800059D5
:1054C000AA8439B5B8809DBD03170101E3080AE637
:1054D00034801396060141866353C700BA8613973A
:1054E00006014187A1BDBC82ADB583174101E3022E
:1054F0000AE6388293160701C18663D3F6003E8719
:1055000093170701C187B1B5BC818DB58317210100
:10551000E30E0AE4388193160701C18663D3D700EE
:105520003E8793170701C18791B5BC83B1BD83172F
:105530006101E30B0AE4388393160701C18663D344
:10554000F6003E8793170701C1873DBD5C4C3000D4
:105550008D4522858297A2855A85EF80204F71BDA7
:10556000EFA27FC7AA892E89EF4001202A84EF800D
:10557000402211E937650200A28501461305C5EBFB
:10558000EF80802101A015CC9384418E9C4089E757
:105590002285EF50816288C09384018E9C4089E708
:1055A0002285EF50016488C089452285EF30A161D2
:1055B0002285EF508165AA8401E92285EF5041766A
:1055C000014422856FA07FC4EF80A01C11E93765DC
:1055D0000200A68501461305C5EBEF80E01B01A084
:1055E0009C30B765000023800400C19B9CB093856C
:1055F00025E02285EF30215663190900E38309FC79
:10560000AD452285EF20505A6DBF4A85EF50E15FCE
:1056100018211306F00F9305F00F937707039820D6
:105620001377F7FC5D8F98A01C2193F6070C9377F6
:10563000F703D58F9CA01831C19B93763700983023
:10564000719B558F98B014314D9BB18A558F98B08E
:10565000182122853D8BD98F9CA0EF50211A95B738
:10566000EFA21FB92A84AE84EF80A01211E937653A
:105670000200A2850146130585EAEF80E01101A032
:105680002285EF5081581C2113F7F700630B970018
:10569000BD88C19BC58F1CA15C4C014685452285F8
:1056A00082976FA03FB7EFA21FB32A89AE84328AD8
:1056B000B6893A84EF80E00D11E937650200CA85AA
:1056C0000146130585EAEF80200D01A04A85EF30E1
:1056D00091264A85EF5061531C2113D747000D8B4B
:1056E000631E97009983639B47011C318D8B6397E1
:1056F0003701183109830D8B630087041C3103487F
:10570000050093F9390093F7070F0D888D880A0477
:10571000B3E73701C18F92041378F8001CB11A0A5D
:10572000336898008327C9013368480123000501C5
:10573000014685454A8582976FA03FADEFA25FABDA
:1057400041112AC6EF80E004B24509E9376502003D
:105750000146130585EAEF80200401A02E85EF5055
:10576000C14A082141013D896FA0DFAAEFA25FA5D0
:10577000011185452A84EF40214E25ED2285EFF069
:10578000FFFBAA8481452285EF3061523DC1B5C03F
:1057900085496390340F514681452285EF40815AF7
:1057A00013094400AA894A85EF8000292A8A814486
:1057B000814A63130A04638E0A02B3843441C2042B
:1057C00085452285C180EF304122C2048947C184CA
:1057D000B3C4F4024A85EF80C0262A8A894AB304FA
:1057E0009040C204C18463100A0485452285EF30CD
:1057F000012305616FA09FA05285EF30D10211ED0A
:1058000091455285EF40414509E95285EF30815F6E
:105810004E95AA94C204C184850AD2854A85EF8038
:10582000E0222A8A79B75285EF30E17F0DED91456C
:105830005285EF40614205E95285EF30A15C334764
:105840005503C204C18081460146A2855285269730
:1058500042074187EF3091335285EF30A15A4E9580
:10586000AA94C204C184D2854A85EF80001F2A8A87
:105870009DBF9387E4FF93F7F70F094A6366FA0E1B
:10588000494681452285EF40E14B4D468145AA8935
:105890002285EF40214B41468145AA842285EF4075
:1058A000614A514681452A892285EF40A1492A8BC8
:1058B0002285EFF0BFE88D476305F50A9147630B3A
:1058C000F508854A63034501814922858545EF3006
:1058D000C111130A44005285EF80A016AA84E30682
:1058E00005F02685EF3021742DE191452685EF40A6
:1058F000A13621ED554681452685EF40A144AA8B6E
:10590000594681452685EF40E1432A8C5D46814515
:1059100026854209EF4001431359090133077901F4
:10592000B386A9004207C2064187C1865686A28572
:105930002685EF30B1252685EF30C14C5A955E950E
:1059400062952A99420913590941A6855285EF802B
:10595000C01069B7B3099040C20993D909418D4A73
:10596000ADB78149894A95B79387B4FF93F7F70F8D
:105970006360FA102285EFF07FDCAA842285EF3085
:10598000315D9947AA8A6383F4029D476386F402D6
:1059900095476397F40C414681452285EF40813A53
:1059A0002A898D4463893A03854435A001499D4481
:1059B00063133503A14405A0454681452285EF4088
:1059C00061383305A0401319050113590941994461
:1059D00063833A01914485452285EF300101854773
:1059E0004D466383FA00494681452285EF40813563
:1059F000514681452A8A2285EF40C134930B4400E9
:105A00002A8C5E85EF80E003AA89854CE38F09DC50
:105A10004E85EF3041611DED91454E85EF40C1232C
:105A200015E9131B0A01135B0B0163909A05B3067A
:105A30006041C2064A87C1862686A2854E85EF3020
:105A4000F1144E85EF30E139330A85015A9A420A42
:105A5000135A0A41CE855E85EF802000AA897DB762
:105A600001498D44E31235F5BDB74A87D286E9B7BF
:105A7000938784FF93F7F70F6362FA262285EFF08E
:105A8000FFCB2A8D2285EF30C1352AC241468145A0
:105A90002285EF40212B930A44002A8A5685EF7015
:105AA000507AAA84E30705D485452285EF20F17357
:105AB000494681452285EF40E1282AC44D4681456B
:105AC0002285EF4021282A89514681452285EF40D1
:105AD0006127A247AA8D3E9993170901C1873ECC41
