:040000006F205028F5
:100004000000000000000000380300003A03000074
:1000140000000000822A0000000000000000000030
:10002400822A0000822A0000000000000000000074
:10003400822A000000000000822A00000000000064
:10004400822A0000822A0000822A0000822A0000FC
:10005400822A0000822A0000822A0000822A0000EC
:10006400822A0000822A0000822A0000822A0000DC
:10007400822A0000822A0000822A0000822A0000CC
:10008400822A0000822A0000221C0000822A00002A
:10009400822A0000822A0000822A0000822A0000AC
:1000A400822A0000822A0000822A0000822A00009C
:1000B4006A180000822A0000822A0000822A0000B6
:1000C400822A0000822A0000822A0000822A00007C
:1000D400822A00006A0A0000EA0A0000CC16000026
:1000E400822A0000822A0000822A0000822A00005C
:1000F400822A0000822A0000822A0000822A00004C
:1001040000000000822A0000822A0000822A0000E7
:10011400822A0000EC030000822A0000822A0000E8
:10012400822A0000822A0000822A0000822A00001B
:10013400822A0000822A0000822A0000822A00000B
:10014400822A0000822A0000822A0000822A0000FB
:10015400822A0000822A0000822A0000822A0000EB
:10016400822A0000822A0000822A0000822A0000DB
:10017400822A0000822A0000822A0000822A0000CB
:10018400822A0000822A0000822A0000822A0000BB
:10019400822A0000822A0000822A0000822A0000AB
:1001A400000000000000000000000000000000004B
:0C01B4000000000000000000000000003F
:1001C000397101436EC619A0397141536AC866CAB4
:1001D00062CC5ECE19A0397101535AD056D252D496
:1001E0004ED64AD826DA22DC06DE3301614082820E
:1001F00041114AC026C222C406C68282B24D4101C4
:10020000024D924C224CB24B4101024B924A224A7F
:10021000B2494101024992442244B24041018280E4
:100220002A8309CA83830500230073007D16050312
:1002300085056DFA828015C22A8385466367B500FD
:10024000FD561307F6FF3A93BA9583830500230002
:1002500073007D163693B6956DFA82802A8311C697
:100260002300B3007D16050365FE828010219421D2
:10027000050585056313D60075FA3305D6408280DF
:10028000EFF21FF779712A892E8413051002854534
:10029000B28402CA02CC02CE02D002D202D402D66A
:1002A00002C402C623180100EF30C0008545114585
:1002B000EF30200285450565EF2050528967FC82AA
:1002C00037150140E1473ECE4C088D4713050540E8
:1002D0003ECCEF2010436084371400402C001305FF
:1002E0000480231621012317010023150100EF309C
:1002F0000002C167938707070C10130504803ED0E6
:100300002313910223140102EF30200D1305048002
:100310008545EF30C018130504808145EF30401C3F
:10032000130504808545EF30001A854513050480C8
:10033000EF3060154561F9BD01A0B707EFBE37E7A3
:1003400000E0938707083CC701A0EFF27FEA7971CC
:1003500085453705100002CA02CC02CE02D002D277
:1003600002D402D602C602C8EF20B0768545130536
:100370000003EF2030748567FC828D473ECC4C082B
:10038000E147371501403ECEEF20B0373715014029
:1003900091474C0813050540FC823ECEEF20703695
:1003A000F167938707203ED00C10B7070C00375534
:1003B00000403ED402D223160102EF3080170546DA
:1003C0009305505237550040EF30C020930750142A
:1003D0007C86680085475C873EC8EF20704F854566
:1003E00037550040EF30C01D45612DB541119305D3
:1003F00050523755004022C626C44AC24EC0EF3084
:10040000802215CD37550040EF30C0201375F50F11
:100410002388A18A13074002631AE5020547A388CF
:10042000E18AA389E18A2389018A03D7418B930654
:100430001700239AD18A938781A8BA9788A3324458
:10044000A2441249824941017300203003C7118B35
:10045000630A07420546A389C18A2389018A03D713
:10046000418B938481A813061700269708A3239A2B
:10047000C18A1307A002138481A8E312E5FC239A22
:10048000018A1C30A388018A130740076390E70C98
:100490005C3013071003638CE702382093062007B3
:1004A0006311D73613072003E39BE7F87C2013077B
:1004B0004006A946B387E702182413070703BA9733
:1004C00078303307D702BA97A380F1AC8DBFFC20F8
:1004D00013074006A946938707FDB387E702F83064
:1004E0008824130707FD130505FD3307D702BA97C4
:1004F0003E95EFC0115D2A89A8242E84130505FDC1
:10050000EFC0315C03A6818483A6C184EFC0010AD9
:100510002A86AE864A85A285EFB041282A89A8346A
:100520002E84130505FDEFC0D15903A6018583A6CE
:100530004185EFC0A1072A86AE864A85A285EFB025
:10054000E125EFE0410623A8A1AAD5BDB820930676
:100550002007631CD712D43013071003639CE60AEC
:10056000FC2061671307076A938707FDB387E702DB
:10057000F830896693860671130707FDA834138443
:1005800001AB130505FD3307D7029306803EBA97EA
:100590009824130707FD3307D70293064006BA973E
:1005A0009834130707FD3307D702A946BA97B82432
:1005B000130707FD3307D702BA973E95EFC0715076
:1005C000AA89C8342E89130505FDEFC0914F03A6F3
:1005D000818483A6C184EFB0717D2A86AE864E8564
:1005E000CA85EFB0A11BAA89E8242E89130505FD51
:1005F000EFC0314D03A6018583A64185EFB0117B85
:100600002A86AE864E85CA85EFB04119EFD0B17902
:1006100048C035B513078006638DE70613077006DB
:100620006387E71213073004E39BE7E07C206177E0
:100630001307076A938707FDB387E7023834896693
:1006400093860671130707FDBA977830130707FDE5
:100650003307D70293064006BA971834130707FDED
:100660003307D7029306803EBA971824130707FD75
:100670003307D702A946BA973824130707FD330773
:10068000D702BA972391F1AC5DBB93068006639CB9
:10069000D70A5C30130710036387E70213072003B0
:1006A000E39FE7D87C2013074006A946B387E702FB
:1006B000182413070703BA9778303307D702BA977D
:1006C0002380F1ACADBB7C2013074006A94693877D
:1006D00007FDB387E70278300824130707FD1305E9
:1006E00005FD938401AB3307D702BA973E95EFC05F
:1006F000513DAA8928242E89130505FDEFC0713CC0
:1007000003A6818483A6C184EFB0516A2A86AE868F
:100710004E85CA85EFB08108AA8928342E89130531
:1007200005FDEFC0113A03A6018583A64185EFB010
:10073000F1672A86AE864E85CA85EFB02106EFD0D6
:10074000916688C4EDB9930670066398D7127C2031
:1007500061671307076A938707FDB387E70278305D
:10076000896693860671130707FD2834938401ABCD
:10077000130505FD3307D7029306803EBA97182468
:10078000130707FD3307D70293064006BA971834BC
:10079000130707FD3307D702A946BA973824130772
:1007A00007FD3307D702BA973E95EFC09131AA896A
:1007B00048342E89130505FDEFC0B13003A68184AE
:1007C00083A6C184EFB0915E2A86AE864E85CA8527
:1007D000EFA0D17CAA8968242E89130505FDEFC0FE
:1007E000512E03A6018583A64185EFB0315C2A8690
:1007F000AE864E85CA85EFA0717AEFD0D15AC8C4B3
:100800003DB993062003E383D7CA93077006E31824
:10081000F7C2583093071003E313F7C27C206177C7
:100820001307076A938707FDB387E70238348966A1
:1008300093860671130707FDBA977830130707FDF3
:100840003307D70293064006BA971834130707FDFB
:100850003307D7029306803EBA971824130707FD83
:100860003307D702A946BA973824130707FD330781
:10087000D702BA972392F1ACD9B693063004E38736
:10088000D7DA61B7239A018A5DBEEFF2FF93116553
:100890007971854511053714014002CA02CC02CE98
:1008A00002D002D202D402D602C602C8EF209020A3
:1008B0008D4493070020E14B4C0813050480FC8213
:1008C00026CC5ECEEF20E0639307004091494C08B0
:1008D00013050480FC82B74A01404ECE7169EF20B7
:1008E000406213090920370B0C000C1013850A8095
:1008F0004AD05AD402D223160102EF209043138526
:100900000A80054693055052EF20D04C05469305CA
:10091000404213850A80EF20F04B93075013054A9D
:1009200068007C862307410152C8EF20607A138556
:100930000A808545EF20D048854537050200EF2025
:10094000501985451145EF20F0164C081305048019
:10095000231A310126CC5ECEEF20A05AA1474C08C5
:1009600013050480FC824ECEEF20A0594AD03749AF
:1009700000400C10130509405AD402D2231601027C
:10098000EF20303B13050940054693055052EF20F8
:10099000704405469305404213050940EF209043FB
:1009A0009307601368007C862307410152C8EF203B
:1009B0002072130509408545EF209040854551453B
:1009C000EF20500F41494C0837150140231A2101EF
:1009D0004ECEEF200053130A00024C083715014099
:1009E000231A41014ECEEF20C0514C08130504805C
:1009F000231A21014ACE26CCEF20A05013050480F3
:100A0000C145EF20805C4C0813050480231A410186
:100A10004ACE26CCEF20E04E130504809305000259
:100A2000EF20A05A930700044C0813050480FC82B1
:100A30004ACE26CCEF20E04C130504809305000439
:100A4000EF20A058930700084C0813050480FC828F
:100A50004ACE26CCEF20E04A930500081305048017
:100A6000EF20A05645616FF0AFF9411126C4B7449D
:100A70000140930550521385048022C6EF20B03AFE
:100A80000DC503D7818B930770021385048063E93A
:100A9000E704EF20303803D7818B93071700239C9E
:100AA000F18A938701AFBA9788A337440140930531
:100AB000404213050480EF20103711CD1305048048
:100AC000EF20503583D5818B99C513050480EF2025
:100AD000F033239C018A3244A24441017300203048
:100AE000EF205033239C018AC9B7411126C4B74473
:100AF0000040930550521385044022C6EF20B032C7
:100B00000DC503D7618B930770021385044063E919
:100B1000E704EF20303003D7618B93071700239B46
:100B2000F18A938781ACBA9788A337440040930534
:100B3000404213050440EF20102F11CD130504404F
:100B4000EF20502D83D5618B99C513050440EF200C
:100B5000F02B239B018A3244A244410173002030D0
:100B6000EF20502B239B018AC9B7B7070460F91700
:100B7000BE234111C207C1837C872887410182803F
:100B800003D701B2B7070460239FE7FE82809387F3
:100B900081B1D6232567130717346396E602B2277F
:100BA000B7060460239FC6FE1356850092A21375F4
:100BB000F50F8AA2DE27239FF6FE93D785009EA21B
:100BC00093F5F50F8EA28280138781B16C23562393
:100BD00005462567938781B1130717346394C504CD
:100BE0006394E6041D47636EA7001387C1872A97A5
:100BF00008237D151375F50F19479223AE236376ED
:100C0000A70237070460130660039306E7FF231F5C
:100C1000C7FE2147BAA29A23B62363FEE60296A333
:100C2000BAA315A8E387E6FC8280138741872A9739
:100C3000182337050460930860039366870093F6D2
:100C4000F60F231F15FF16A11377070269D76374E8
:100C5000B6008EA3B2A3B62737060460231FD6FEC4
:100C600023100600231006009623FD1693D5864018
:100C7000C205C1810EA293F6F60F16A2D627231F36
:100C8000D6FE2310060023100600BE23FD1793D6C0
:100C90008740C206C18216A293F7F70F1EA269B75A
:100CA000138781B1522305E9B706400123030700EA
:100CB0009386060F23ACD1B0A56793871734631AC8
:100CC000F600B7072A009387C7021CC79307B00234
:100CD0005EA70145D5BD854674A3B706F00093868F
:100CE0000614C9BFEFF2CFD041118545114502C2AC
:100CF00002C402C6EF20005CE177371401407C8219
:100D0000C1473EC64C008D47130504803EC4EF200A
:100D1000401FA16513050480EF20202B41016FF0D7
:100D20006FCFEFF2EFCC938781B19A23A223814555
:100D3000AA8401453304E402993D99358147370778
:100D40000460639487006FF0EFCC06A38507D5BFDE
:100D5000EFF26FC81971371401406937A1651305A7
:100D60000480EF20C02613054006EF9031061305DE
:100D70000480A165EF206025854513050010EF2054
:100D80008051854513058006EF20C0528D44C1492E
:100D9000130504C0916A8A85231051014EC426C2EE
:100DA000EF202016F177614A9387377313050440CB
:100DB0008A857C8052C426C2EF20A01437250140CA
:100DC000930700F88A85130505807C8052C426C2EB
:100DD000EF2020130569130504408A8552C42310AF
:100DE000210126C2EF20E01113050440130A0980F7
:100DF0008A85231041014EC426C2EF208010D2857F
:100E000013050440EF20A01C85473EC6BD473ECADF
:100E10007C00BEDCC8003C10BEDE02C802CC02D2A0
:100E200002D402D626D802DA02DC02DE82C082C2F6
:100E300082C482C6CEC882CA82CE82CC82D082D2FE
:100E4000CAD482D6D6D882DAEF10F07E8545014525
:100E5000EF20400913052003EF904177B7070460A6
:100E6000239F07FE1933938781B1130715F0CAA397
:100E70004207C16741839387F7EF138481B163E72A
:100E8000E700A567938707306310F502B707046092
:100E90001307300D239FE7FEC939C139F931AA8400
:100EA000A204E131458D4AA05A20A56793871734E3
:100EB000631CF71E370404601307F00C9307E4FF6C
:100EC000231FE4FE239107001306100CB2A313079F
:100ED0000003BAA39306D00E231FD4FE9306400648
:100EE000B6A38D46B6A3C946B6A393061008B6A30B
:100EF0009306800E231FD4FE93065008B6A3C14666
:100F0000B6A39305A007AEA39305B00C231FB4FEB0
:100F100093059003AEA39305C002AEA323910700EF
:100F200093054003AEA38945AEA39305700F231F1D
:100F3000B4FE93050002AEA39305A00E231FB4FEDA
:100F400023910700239107009305000C231FB4FE93
:100F5000ED45AEA3231FC4FE0546B2A39305500C76
:100F6000231FB4FEBAA3BAA31307700C231FE4FE19
:100F70001307700BBAA313076003231FE4FE1307C4
:100F80008004BAA31307A003231FE4FE1307500530
:100F9000BAA31307100B231FE4FE23910700694730
:100FA000BAA31307600B231FE4FEA945AEA31307E2
:100FB000200ABAA31307200F231FE4FE2391070082
:100FC00013076002231FE4FEB2A31307000E231FC2
:100FD000E4FE3D47BAA31305A002AAA313088002AA
:100FE00023910701214823910701B9482391170153
:100FF0002391070113084005239107011308900A64
:10100000239107011308300423910701AEA3BAA36B
:1010100023910700239107002391070023910700E4
:101020009305100E231FB4FE23910700D545AEA3F0
:10103000DD45AEA39D45AEA3C545AEA3194823919A
:1010400007011308B002239107019308600523915B
:1010500017019308C00323911701954823911701A5
:10106000B6A3BAA39306F003B6A3B6A3BAA3231FED
:1010700004FF2391070023910700B2A3B6A3231F07
:10108000A4FE239107002391070023910700130773
:10109000F00EBAA3231FB4FE13058007EF9001538F
:1010A00093079002231FF4FE0145DD3E37150140F2
:1010B0009165130505C0EF10507141657D1595319F
:1010C00009616FF08F94138781B156232567130749
:1010D0001734938781B1639AE60203D8A700B70655
:1010E00004601387E6FF239F06FF135885002390B3
:1010F00006011375F50F8AA2CA27239FA6FE93D671
:10110000850036A393F5F50F2EA39627B707046045
:10111000239FD7FE92A38280EFF28F8A93F476000A
:1011200093D73600B3349000BE9493D71600B3849F
:10113000F4024111930A4002314B796CB70C020062
:101140002A89AE8DB68993F7F40F3EC4930706FE45
:1011500013FDF70FB3075D033AC62E84814B130CC2
:101160004C7C938C0CB1138A81B1330B6D033EC25E
:10117000A24713F7FB0F6365F70041016FF00F887B
:1011800031476391E90633077B0166979308840032
:10119000834A070093940801C18013968A016186EF
:1011A0006356060603D6A18BA2854A85293F05040E
:1011B00003562A00420413971A004180937AF70FCE
:1011C000E37DC4FA3306B4416319360505090357B4
:1011D0000A00420913590901E371E9FAEE84850B0B
:1011E000268479B74147639BE90013174D0037F612
:1011F00001005E9713060652329749BF6147E39E8E
:10120000E9F6924733877701629749B7B247C5F34A
:10121000B707002003D6871A41BFE39084F8C1B70F
:10122000EFE29FFA2A96338AB60093190601420A22
:101230002A84AE843E8993D90901135A0A01BA8AD5
:10124000935B1700130BE005137CF50F03460900B1
:10125000930706FE93F7F70F6374FB006FE05FFAE6
:1012600063663401D694C2046284C180E3F844FF0B
:1012700022855E940147D686A6854204713D418051
:101280000509E9B7EFE25FF49389F6FF2A842E8916
:10129000328ABA8C135C170093F4F90F014D014B9D
:1012A000930AF00FA94B639554056FE07FF5B38760
:1012B00077037D171377F70FE31B57FFB357FA0236
:1012C000B3F7770313F6F70F63180B0263563D036A
:1012D0009DE30147E6861306000222856294CA85D3
:1012E0004204FD14153D050D418093F4F40F65BFD4
:1012F000268785477DBF054B0147E6861306060313
:10130000E9BFEFE27FECB304A6402A84AE8C3389B8
:10131000B640854B63479000814B81C4B304C54000
:10132000FD5B054C63482001014C630509003389CE
:10133000D5407D5CA68963D32401CA89014B814ACB
:10134000014A138D190063544D016FE07FEB9395B3
:101350000C01131504010146C1814181A69AA533F0
:101360004A9B63D55901B38A3A415E9463D56901BA
:10137000330B3B41E29C050A420A135A0A01E1B7CA
:10138000EFE27FE51314050193190601139A060194
:1013900093D90901418093940501C180135A0A0130
:1013A000330B3401B3854401420B135B0B01C205BF
:1013B00041113A86C1815A853A892EC6B30A344111
:1013C0001933B245C20A93DA0A014A865685E539CD
:1013D000B3854441C205C1814A865A852EC6E5318E
:1013E000B2454A865685C531B30A4401B385990092
:1013F000C20A93DA0A01C205C1814A8656852EC601
:1014000033044441C931B245420441804A862285B1
:101410005D39B3853441C205C1814A8656852EC6E1
:101420005D31B2454A862285793941016FE0FFDDA1
:10143000EFE27FDA939716000D44AA892E8AB28ACA
:10144000B6841D8C3A8921CF014915A04A8BDA86D2
:1014500056874A86D2854E85050B1D37E3D964FF32
:10146000635B0400931729003E9419040509E3DF28
:1014700024FD6FE09FD9B30799408A073E94290461
:10148000FD14EDB75687A6864A86D2854E85CD3D9A
:10149000635A0400931729003E9419040509E3D305
:1014A00024FFC1BFB30799408A073E942904FD1465
:1014B000F5B7EFE25FD2797185453705040002CABE
:1014C00002CC02CE02D002D202D402D602C602C898
:1014D000EF10306085452145EF10D05D3714014095
:1014E00093070040FC820D49E1474C08130504C0F6
:1014F0004ACC3ECE056AEF10D02093070A8091496E
:101500004C08130504C0FC824ECEEF10901FF1670B
:10151000B7540040938707203ED00C10B7070C004B
:10152000138504803ED402D223160102EF2060000E
:1015300013850480054693055052EF20A009054607
:101540009305404213850480EF20C0089307701371
:101550007C86680085475C873EC8EF10703713852E
:1015600004808545EF20C00585452145EF10905446
:101570004C08130504C0231A41014ECEEF10701819
:101580008967FC824C08C147130504C03ECE4ACC93
:10159000EF1030178965130504C0EF105023456123
:1015A0006FE0BFC6371501408965130505C06F1090
:1015B000D021371501408965130505C06F10302112
:1015C000371501408565130505C06F10501FEFE208
:1015D0009FC0138401ABAA8448407971EFC0517257
:1015E0001828AA8A08443AD62E8AEFC071713E287C
:1015F000AA8948443ECE5E282E893ECCEFC0517069
:101600001C382AC808403EC42ECAEFC0716F32573A
:101610002EC2B70502002AC05688D2884E86CA86D6
:10162000938545F82685EF90912145616FE0FFBDD8
:10163000EFE21FBC55711306400C8145680002C4DF
:10164000EFE0DFC128006137375500402C0013055B
:101650000580E52869616FE0FFBBEFE27FB983C7D2
:10166000D18B8507A38EF18AA13F9387C1B821C191
:1016700003A5C70EB705020093850502EF8020631E
:10168000453FA38E018A83C7C18B89C71D37854714
:10169000238EF18A03C7D18BF9476318F7001937F6
:1016A0008547238EF18AA38E018A6FE0BFB603A51A
:1016B000C70EB70502009385C502EF80405FE1B712
:1016C0009305250003A541C86F80605E411126C4C3
:1016D000B7540040930550521385048022C6EF1082
:1016E00090740DC503D7E18B9307300613850480F2
:1016F00063E8E704EF10107203D7E18B930717003C
:10170000239FF18A938781B2BA9788A33754004008
:101710009305404213050480EF10F07009CD1305C6
:101720000480EF10306F83D5E18B91C5138581B2B2
:10173000413F239F018A3244A2444101730020307B
:10174000EF10506D239F018AD1B7EFE27FAA2A895B
:10175000AE840144930500044A85EF10306C7DD9B6
:10176000B3878400838507004A850504C205C181CB
:10177000EF10D0691374F40FB387840083870700D8
:10178000F1FB6FE03FA9EFE2BFA60945EF10F013B0
:10179000C12BEF80F15D9D24EFF08FDBEFF0EF8E3A
:1017A000093BF92CEFE07FBA31659305F00513058D
:1017B000F534A12013070080239DE18AEF00B004D7
:1017C000EF40E127EF80514EEF80D1571385C1B82C
:1017D000EF2060400547370400202381E18C13048B
:1017E00004012945EF80915E2945EFE08067EFD045
:1017F000902D5C4001458297EDB7EFE27F9F01118C
:101800002E84AA848545054502CA02CC231E010008
:1018100002C602C8EF10F02B4C0837050040E484E4
:10182000E082231D0100231B0100EF10502E9305C1
:10183000000237050040EF10104C0546854537057E
:101840000040EF1030479307C0127C866800854740
:101850003EC823070100EF10B0078545370500405B
:10186000EF10704205616FE0FF9A01118545370561
:10187000004022CE26CC4ACA4EC852C6EF1030498C
:101880006306051683C7218CA1C3938401AB13841F
:10189000C1B890282858B70502009385C503EF808A
:1018A000804E90386854B705020093854504EF8058
:1018B000804DC840EFC031212A86685CB705020020
:1018C00093858504EF80204C83C7118CD146850712
:1018D000B3E7D702A380F18CB9E3413383C7218BEF
:1018E000954611468507B3E7D7022389F18A138706
:1018F000C1B8639BC700A389018AB705020003250D
:1019000087119385C50211A883C7318B03258711E1
:10191000EDD7B705020093850502EF80403983C7F4
:10192000018C930680028507B3E7D7022380F18CF0
:10193000CDEB1389C1B803C6A18003254905B709BA
:1019400002009385090593040908EF80C04303C68C
:10195000A180C84893850905EF80E04203C6A180B5
:10196000885C93850905EF80004203C6A180A84CDE
:1019700093850905EF80204103C6A18088409385A7
:101980000905EF80404003C6A180032549109385D7
:101990000905EF80403F83C5A18003250905014665
:1019A000EF50A06083C5A18088480146EF50E05FFA
:1019B00083C5A180C85C0146EF50205F83C5A1802C
:1019C000E84C0146EF50605E83C5A180C8400146E7
:1019D000EF50A05D83C5A180032589100146EF501B
:1019E000C05C854537050040EF10F0337244E24497
:1019F0005249C249324A056173002030EFE24FFF7D
:101A000041118545214502C202C402C6EF10900A69
:101A10008547371401407C82C147130504C03EC688
:101A20004C008D473EC4EF10C04D130504C08545E2
:101A3000EF10E059130440067D1429451374F40F88
:101A4000EF80D13875F8371501408545130505C07D
:101A5000EF10A057130680029305F01D1305300602
:101A6000EFE01F8213052003EF80513601469305F6
:101A7000F01D13053006EFE0BF8041016FE08FF9E4
:101A8000EFE20FF739711306000281450810EFE00D
:101A9000EFFC8545214502CA02CC02CE02C602C82F
:101AA000EF105001854513050020EF10B00031659F
:101AB000EF10C0673715014089474C08130505C072
:101AC00037240140FC8202CEEF10A04313050440EE
:101AD000EF10000489673ED60C10A547130504409B
:101AE000230AF10202D002D202D402D8EF1060061B
:101AF000854513050440EF10C0189D460546A545D1
:101B000013050440EF104010854513050440EF1005
:101B1000600E930720227C86680085473EC8230715
:101B20000100EF10E05A05469305004813050440F4
:101B3000EF108008854513050440EF10E00681454D
:101B400013050440EF10001913050440EF1040087E
:101B5000930404402685EF1040086DFD13050440F2
:101B600037240140EF10E007930404402685EF106E
:101B7000E0076DFD13050440EF1040172392A18C80
:101B800021616FE02FE90397418CAA872A970145CD
:101B90006340070291CF05669306F6FF36856359C9
:101BA000C7003E856386D7001315070141818280F7
:101BB0008280EFE2EFE3370700201307C71A3E23C6
:101BC00056234AA31EA3B6973E958D473345F5028B
:101BD00036A305671307A7B4AA874205418163733B
:101BE000E500BA877D771307674BBA97C207C183B1
:101BF000130720243E856374F70013052024420553
:101C00004181EFC0310483A58186EFB0B15683A531
:101C1000C186EFC0C104EFC001712385A1806FE0D0
:101C20006FDF411122C63724014093050048130598
:101C30000440EF10000801CDD14513050440EF101A
:101C400080054205418581372393A18C9D37372537
:101C500001409305004813050540EF10000732448A
:101C6000410173002030B71702409843B706FFF0D8
:101C700041111367170098C3D84337060200758FC8
:101C8000D8C39843B706F7FEFD16758F98C39843DF
:101C9000B706FCFFFD16758F98C3D843B70601FF42
:101CA000FD16758FD8C39843B70600ECFD16758FE7
:101CB00098C33707FF0098C723A6070202C402C6CD
:101CC0009843C166558F98C3B716024005679C427A
:101CD000F18F3EC6A24785073EC4B24781E7A247BF
:101CE000E397E7FEB71702409C4337070200F98FDE
:101CF000B5C785473EC632478547631FF704B71708
:101D00000240D843B706C1FFFD16D8C3D843D8C395
:101D1000D84313670740D8C3D843758FD8C3D84377
:101D2000B7062900558FD8C39843B7060001558FD1
:101D300098C3B70600029843758F75DFD843B7166E
:101D40000240719BD8C3D84313672700D8C32147EB
:101D5000DC42B18BE39EE7FE4101828002C661BF97
:101D6000371702405C43A146B18B638AD702B7178D
:101D70007A009387072023A6F180B7170240D84343
:101D8000B70700209387070011833D8BBA979823EC
:101D900083A7C180B3D7E70023A6F18082805C438C
:101DA00054434167C983BD8BF98E1387270085CFC4
:101DB000BD47630CF702C147630CF702C547630CCC
:101DC000F7028145A9E2B747024083A70780C18B8C
:101DD00095C7B7177A00938707203307F702C9E939
:101DE00023A6E18059BF4947E9BF85453547D9BF9B
:101DF00081453D47C1BF81454147E9B7B7173D0020
:101E000093870790D9BF371502405C55C166F58F9F
:101E10005455A1CB9182BD8AB7177A008506938766
:101E20000720B3D7D7025455A182BD8A89EE9546C3
:101E3000B387D7028583B7160240D456BD8A85067C
:101E4000B3D7D70259BF05456394A600E546CDB781
:101E50003D456396A600D146B387F602E9BF8906E1
:101E6000E5BFBD8AB7177A00850693870720C9BFEB
:101E70000583BDB7EFE2CFB7B71401402A842149EB
:101E8000938404C093178401E187054663C3070068
:101E90000146C1452685EF10C0130146A1452685A0
:101EA000EF1020137D1906040546A14526851379F8
:101EB000F90F1374F40FEF10C011E31509FC6FE074
:101EC0006FB5EFE2EFB237140140AA840146130563
:101ED00004C0A145EF10E00F130504C00146C14541
:101EE000EF10200F01469305000813050440EF1082
:101EF000400E268541371945EF80E1690146A1452D
:101F0000130504C0EF10E00C0545EF80C168130510
:101F100004C00546A145EF10C00B130504C00146DF
:101F2000A145EF10000B41498144130404C0014650
:101F3000A1452285EF10E009A14522850546EF1055
:101F400040098604C204930500022285C180EF1077
:101F5000000701C58504C204C1807D191379F90FFA
:101F6000E31709FC371501400546930500081305E2
:101F70000540EF10000613D544006FE0AFA9EFE273
:101F80008FA5411140002A899309E100A2844A8566
:101F90000D3F8AA08904E39C34FF8147954811488E
:101FA0008507C207C18322860904A2863E870E22C6
:101FB0008A226374B5000AA28EA2050742074183F4
:101FC0008906E31617FFE39D07FD38843C830D4522
:101FD000BA9738854101BA97C207C18333D5A702A2
:101FE0006FE0AFA2EFE2CFA0AA8403C511812E84D7
:101FF00079372A8903C501815937239024010AA022
:1020000005456FE02FA1EFE2AF9E41118545130515
:10201000800237140140EF10E029E1779304800437
:102020004C00130504C07C8226C6EF00906D13059A
:1020300004C0A165EF007079930700024C001305FE
:1020400004C07C8226C6EF00D06B130504C0930544
:102050000002EF009077C1440D494C00130504C005
:10206000648226C64AC4EF00D069130504C0C14586
:10207000EF00B075930700084C00130504407C8204
:1020800026C64AC4EF00F067130504409305000814
:10209000EF00B073A1474C00130504C07C8226C634
:1020A0004AC4EF001066130504C0A145EF00F071AB
:1020B000B70500203705002093852502130505028A
:1020C0001537054541016FE0EF94EFE26F92411142
:1020D000AA842E8428009305A100293709E501452B
:1020E00041016FE02F939305E1006800E53D65D95C
:1020F000308638846368C7009307160363D8E70007
:10210000E31FE6FC93071703E3CBC7FC34873C854A
:1021100063E8D7009385160363D8F500E391F6FCD6
:1021200093851703E3CDD5FA32970587B6979AA022
:1021300085871EA005456DB7EFE28F8BAA84371502
:102140000140A165130505C037040020EF0030678A
:102150001304040141E1B7050020370500209385F1
:1021600025021305050285C08D378307440163C727
:102170000700930700FC5CA81C485CC44828137542
:1021800005086FE02F8991376DD10A28EFC0C11E75
:102190000C4CEFB0D12CAA8403150402EFC0C11D72
:1021A000AA852685EFB08146EFC0E1170AA82A2844
:1021B000EFC0811C4C4CEFB0912AAA840315240275
:1021C000EFC0811BAA852685EFB04144EFC0A11561
:1021D0002AA861BF5C2813978701618763560700AF
:1021E00093F7F7075CA859BFFD57232604001CC8C6
:1021F00071B7EFD25FFE2A84239DC18A1306D500F2
:102200005115420642054111AE8641824181AE849C
:10221000EFF02F8F9386D400938544FFC206C2054A
:10222000C18222862285C181EFF0AF8D930914000F
:1022300093851400C20993D90901C205C1814E8555
:1022400001462EC61309F4FFEFE0FFE7B24542094D
:10225000135909014A850146EFE0FFE69385F4FF33
:10226000C205C1814E8501462EC6EFE0DFE5B245CD
:102270004A850146EFE03FE503D6A18B0147994629
:10228000A6852285EFF0CF9A41016FD01FF8EFD2DB
:10229000BFF3BA893E8913070080239DE18AB707FF
:1022A0000200AA8B2E8BB28A368A93878705414714
:1022B000C1461306800C9305C008130580024684AE
:1022C000C284EFE0FFF5B70702009387C7054147D7
:1022D000C1461306800C9305C00813058007EFE084
:1022E0003FF4B7070200938707064147C14613062C
:1022F000800C9305000A13058002EFE07FF2B70718
:102300000200938747064147C1461306800C930598
:10231000000A13058007EFE0BFF0B70702009387BC
:1023200087064147C1461306800C9305400B1305F1
:102330008002EFE0FFEEB70702009387C706414730
:10234000C1461306800C9305400B13058007EFE090
:102350003FEDB7070200938707074147C1461306C1
:10236000800C9305800C13058002EFE07FEBB7072C
:102370000200938747074147C1461306800C930527
:10238000800C13058007EFE0BFE9B70702009387D1
:1023900087074147C1461306800C9305C00D1305FE
:1023A0008002EFE0FFE75E86414791469305C00853
:1023B00013050004EFE01FED5A864147914693054F
:1023C000C00813050009EFE0FFEB56864147914630
:1023D0009305000A13050004EFE0DFEA5286414747
:1023E00091469305000A13050009EFE0BFE94E8608
:1023F000414791469305400B13050004EFE09FE829
:102400004A86414791469305400B13050009EFE0CA
:102410007FE72686414791469305800C130500040B
:10242000EFE05FE62286414791469305800C130555
:102430000009EFE03FE50356010341478D46930550
:10244000C00D13050006EFE0FFE36FD07FDBEFD296
:102450003FD74164FD4739717D571305F4FF239D34
:10246000F18AB70700202394E71AEFE09F8B9307C8
:1024700000801305F4FF239DF18AEFE09F8AB707E0
:102480000200938707084147C1461306800C930555
:1024900080022945239D018AEFE09FD8B7070200FB
:1024A0009387C7094147C1461306800C93058003F3
:1024B0002945EFE0FFD6B70702009387870B414716
:1024C000C1461306800C930580042945EFE05FD5D3
:1024D000B70702009387470D4147C1461306800C9A
:1024E000930580052945EFE0BFD3B7070200938726
:1024F000070F4147C1461306800C93058006294506
:10250000EFE01FD213060480D1455145EFF07FCE96
:10251000370900209307090113070000238A0700E9
:1025200098CF83A7C1868144014413090901938987
:1025300081B13ED2832749000545829783474901EF
:102540001307000493F6070C6392E65293F7F7FB28
:10255000230AF90003270901931724009387070230
:102560001410B697050423A8E7FE1374F40F8D47E3
:102570006306F41A63ED87008547630BF4148947FB
:102580006308F4162945EF806104854465B79147D7
:10259000E31AF4FE835B0103035B4103835A2103C7
:1025A000035C6103B3876B4113D7F741B98F338560
:1025B0008A41998F1357F541398D198DB387F702E9
:1025C0003305A5023E95EFA0D156EF806107EFA03D
:1025D000D14993170501C1833ECE83578103035A26
:1025E000A103835CE1033ECA8357C10333059A41CB
:1025F0003ECC6247D247998F13D7F741B98F998F55
:102600001357F541398D198DB387F7023305A502AC
:102610003E95EFA01152EF80A102EFA01145931D4E
:102620000501724593DD0D01EFB0D1612A846E85FD
:10263000EFB09154AA852285EFB0C1332AD0EFB014
:10264000316C03A6818583A6C18503D4090083D498
:1026500029002AD62ED4EF90B1696342050203A661
:10266000018683A641863257A2573A85BE85EF90F0
:10267000515C6346A000F24799C363970D0C1305A4
:10268000C4FE9385C4FE4164C20542051306F4FFEF
:10269000C1814181EFF0FFB5D1455145130604805A
:1026A000EFF03FB592550255EFB0615BEFB0B14727
:1026B00042056248524741812AC0E688D287E286B5
:1026C0005A86D6855E85EFF09FBC814401449DB556
:1026D000C1641386F4FFD1455145EFF09FB103D596
:1026E000090013860480D14531154205418125A09A
:1026F00003D50900C1641386F4FF31154205D145A5
:102700004181EFF01FAF83D5290013860480514526
:10271000B115C205C181EFF0DFADADB583D529009C
:10272000C1641386F4FFB115C205C1815145EFF0B4
:102730005FAC83D5290003D5090013860480B11549
:10274000C2053115C18155B7D24733854A41B38798
:10275000FB4013D7F741B98F998F1357F541398D46
:10276000198DB387F7023305A5023E95EFA0713CA2
:10277000EF70116DE2472AD4AE8DB307FB4013D73B
:10278000F741B98F998F33079C411356F741318F29
:10279000118F3307E702B387F7023305F700EFA085
:1027A0005139EF70F169A2562AD02ECE3685EE85CA
:1027B000EFA0B12B42054181EFB0D148F24702575B
:1027C000AA8DBE853A85EFA0512A42054181EFB01E
:1027D000B13AAA856E85EFB0E1192ACEEFB0515219
:1027E00003A6818583A6C1852AD0AE8DEF90515076
:1027F000634D0500025703A6018683A641863A85EC
:10280000EE85EF9011436359A0021305C4FE938532
:10281000C4FE4164C20542051306F4FFC181418133
:10282000EFF03F9DD145514513060480EFF07F9CAA
:1028300083A5C18672458DBDD24733054C41B30790
:10284000FB4013D7F741B98F998F1357F541398D55
:10285000198DB387F7023305A5023E95EFA0712DC0
:10286000EF70115EE2472AD4AE8DB387FB4013D7D9
:10287000F741B98F998F33879A411356F741318FBA
:10288000118F3307E702B387F7023305F700EFA094
:10289000512AEF70F15AA2562AD02ECE3685EE85F7
:1028A000EFA0B11C42054181EFB0D139F247025788
:1028B000AA8DBE853A85EFA0511B42054181EFB03C
:1028C000B12BAA856E85EFB0E10A2ACEEFB0514355
:1028D00003A6818583A6C1852AD0AE8DEF90514194
:1028E000E34505F2025703A6018683A641863A8591
:1028F000EE85EF901134E34AA0F0130584FDEFB0AC
:10290000B1272A8C33057B41EFB01127AA85628558
:10291000EFB041062A8C232CA9002285EFB0D125E7
:10292000AA8C33856B01EFB03125E285EFB02133FE
:10293000AA856685EFB0616083A50187EFB021327B
:10294000EFB071182310A902138584FDEFB0D122D6
:102950002A8B33055A41EFB03122AA855A85EFB050
:1029600061012A8B232EA9002685EFB0F120AA8BC6
:1029700033854A01EFB05120DA85EFB0412EAA85A8
:102980005E85EFB0815B83A50187094AEFB0212DF9
:10299000EFB071132311A9026285EFB0D1129357E2
:1029A000F5413D8D1D8D634BAA005A85EFB0B111E5
:1029B0009357F5413D8D1D8D6359AA061305C4FE3D
:1029C0009385C4FE4164C20542051306F4FFC1812C
:1029D0004181EFF01F8213060480D1455145EFF08D
:1029E0005F81B7070200938707104147C14613066E
:1029F000800CE94513058002EFE09F82834649027F
:102A000093B716002302F90291EA930600F9A3880E
:102A1000D180130700FD2388E18045B9930600FDAE
:102A2000A388D180130700F9FDB74164FD47130562
:102A3000F4FF239DF18AEFE0CFAEB7070200938742
:102A400047114147C1461306800C9305E006130564
:102A50003002EFE0EFFC1305803EEF7031371305D5
:102A6000F4FFEFE00FAC21616FD04FF929458504E9
:102A7000EF70D135C204C1809307903EE39CF4AA65
:102A8000DDB701A097E1FF1F938141F217D100202C
:102A900013014157179503001305C5AC97D5FF1FC8
:102AA000938545561386018B63FAC5008322050082
:102AB00023A0550011059105E3EAC5FE1385018B9E
:102AC000977500209385452F6377B5002320050077
:102AD0001105E36DB5FEFD42739002BCAD427390EB
:102AE00042809962938282087390023097D2FFFFEE
:102AF0009382825193E2320073905230EFF0AF969E
:102B000097F2FFFF938262C87390123473002030F3
:102B1000EFD20FEEB727014093870740631DF50002
:102B2000854513050020EF00A07C8145130500209A
:102B3000C1276FD02FEEB737014093870780E31A84
:102B4000F5FE8545130500406527814513050040C6
:102B5000C5B75841B707F1E09387F7EF944D7D8FE4
:102B60009C41D58FD44DD58FD441A206D58FD98F16
:102B70005CC11845B7F7F1FF9387D77FD4457D8FA8
:102B80009C49D58F94458606D58FD98F1CC558553D
:102B9000B70710FFFD177D8FDC29FD1793F7F70F9F
:102BA000D207D98F5CD582801C4589C593E7170071
:102BB0001CC58280F99BEDBF5C4193F5F50F01C602
:102BC000CD8F5CC1828093C5F5FFFD8D4CC18280A5
:102BD0001C4593E787001CC5828008450D81058947
:102BE00082801C4593E747001CC582800845098107
:102BF000058982801C4589C52167D98F1CC58280C3
:102C000061777D17F98FDDBFA54763FBB7048D475B
:102C1000138765FF3307F7020328C5009D47B39765
:102C2000E70093C7F7FFB3F70701B396E600DD8E21
:102C300054C5145D9307260013D746010D8B998F59
:102C400093F7F70F1547B387E7027D473317F70070
:102C50001347F7FF758FB395F500D98D0CDD828092
:102C60000D473387E502032805019D47B397E70029
:102C700093C7F7FFB3F70701B396E600DD8E14C9DB
:102C80004DBF1C5D3707D0FF7D17FD15F98FD205AD
:102C9000DD8D0CDD8280411102C62AC6B2479387C2
:102CA0008702AE973EC6B247884341014205418143
:102CB00082805C41184113D58500798D11C593F54B
:102CC000F50FFD8D3335B0008280A18193C5F5FFEE
:102CD0000CC182805C4191C537070004D98F5CC16B
:102CE0008280370700FC7D17F98FD5BFEFD24FD018
:102CF00001112A8423040100A5441C8463F9F4040F
:102D000023040100A54621461C8463F0F608231520
:102D100001002304010095461C8463FBF60E3885F0
:102D20003C8599460D46B3F7D70205651305058026
:102D3000B3D7C7023357D702BA97C207C1837C857E
:102D40003C8505611D8D420541856FD0AFCC1C448B
:102D500093E787001CC42285EFF03FE86DFD1C441B
:102D600093E747001CC42285EFF05FE86DFD7844CF
:102D70001C848607938707028A972396E7FE1C84A4
:102D8000850793F7F70F5C848DBFA30401009C8433
:102D90006378F6001C84850793F7F70F5C84ADB762
:102DA00098849C8406078507860713070702938784
:102DB00007020A978A970357C7FE83D7C7FE63F3B4
:102DC000E7049C848607938707028A9783D7C7FE08
:102DD0007C859C84988485078607938707028A9759
:102DE00083D5C7FE93171700938707028A97239608
:102DF000B7FE9C84388585078607938707028A97E4
:102E00002396E7FE9C84850793F7F70FDC8441B790
:102E10001C84388589078607938707028A9783D79A
:102E2000C7FEBA97C207C1837C851C84850793F7C8
:102E3000F70F5C84D5B514455C4158450328C5029D
:102E4000D58FD98F1849370600A0D98F5849D98F07
:102E5000184DD98F584DD98F1851D98F5851D98FB6
:102E60001855D98F1859B3E70701D98F18410A07A8
:102E70003A961CC2A1476396F6001C4293E70704EA
:102E80001CC254598C4E9C42CD8FCC429205CD8FA2
:102E90008C46A205CD8FCC46C205CD8F8C4AD44A34
:102EA000D205CD8FE206D58F5CC291676313F8021D
:102EB000145D904E9C42D18FD04294461206A206D9
:102EC000D18FD58FB70600A09386461036971CC3C6
:102ED0008280B70700A0938747103E97B70700107E
:102EE000FD17F5B70A05B70700A0AA97984389C54B
:102EF0001367170098C38280B7061000F916758F04
:102F0000D5BF9C4513F7070113F8F70001C7D84157
:102F10003368E8008E2113F7F50F31C3184181465D
:102F2000054E930E80023D4F930F800421433316CC
:102F3000DE00B3F8C50063101603639AD70750C9C3
:102F400013962600B318CF0093C8F8FF33F7E800B4
:102F50003316C800518F8506E39B66FC18C1130722
:102F6000F00F6375B70454410146054E930E80027D
:102F7000130F80042143130786003317EE00B3F8C4
:102F8000E500631117036398D70358C99318260007
:102F90003D47331717011347F7FFF98EB318180190
:102FA000B3E6D8000506E31866FC54C18280E399B5
:102FB000F7F910C971B7E39BE7FD18C9C1BF1C45FC
:102FC00033F5F5003335A00082800CC982804CC9EE
:102FD000828019C20CC982804CC98280B708300037
:102FE000935605011317050133731501BD8A4183FB
:102FF00063530502B7070140DC4F63151305C10693
:103000000D46B316D60093C6F6FFF58FC5E9370710
:1030100001405CCF828037080140032648006312DC
:103020001307B70600F1FD16B377D6000326480054
:10303000F18E2322D800BDCD558112053315A7008E
:10304000C98F8DA837061000698E05C20D46B316CC
:10305000D60093C6F6FFF58FDDD955811375F53F80
:1030600012053315A700C98F5DB755811375F53F5C
:1030700012053317A7009346F7FFF58FC9D9D98FEB
:1030800079B7B7071000E98F99CB8D47B397D70071
:1030900093C7F7FFF18FB706000FD58F69BF558132
:1030A00012053315A7009347F5FFF18F3707000F7F
:1030B000D98FD9F5370701405CC3828055811375DC
:1030C000F53F12053317A7005DBF23A4A18C8280B2
:1030D00003A7818C894714216311F70218318D47AA
:1030E00063EDE7003C211A079607D98F37E700E028
:1030F00093F7F70F36972300F740054793D756000D
:103100003317D700544189CA938707048A07B7E663
:1031100000E0B69798C3828093870706B7E600E081
:103120008A07B69798C30F1000008280B716024036
:10313000DC4251777D17F98FC98FDCC28280371747
:1031400002405C43A146B18B6381D706B7177A0072
:10315000938707201CC1371602405C4237070020C6
:10316000130787039183BD8BBA9794231C41B3D770
:10317000D7005CC15442A1829D8ABA969422B3D6EC
:10318000D70014C55442AD829D8A36971823938682
:103190004181B3D7E7005CC5584239830D8B369720
:1031A0001823B3D7E7021CC982805C435843C16629
:1031B000C983758FB7F6FF1F03A6C6709166BD8BD6
:1031C000F18E890795E6C54601466393D700C94746
:1031D00031EF3747024003270780418B39C3371748
:1031E0007A0013070720B387E7022DD685839DB7A2
:1031F0008946638DD700BD46638CD700C146638C7A
:10320000D700C546638CD7000146D9B7C947EDBF83
:103210000546B54775BF0146BD475DBF0146C1477D
:1032200045BF37173D001307079075BFB71502401C
:10323000D855C166758FD45521CB9182BD8A371779
:103240007A008506130707203357D702D455A18289
:10325000BD8A89EE95463307D7020583B71602402B
:10326000D456BD8A85063357D702B5BF85456394CA
:10327000B600E546CDB7BD456396B600D146338767
:10328000E602E9BF8906E5BFBD8A37177A008506E1
:1032900013070720C9BF99C5371702405C4BC98F78
:1032A0005CCB8280B7170240D84B1345F5FF798D70
:1032B000C8CB828099C5371702401C4FC98F1CCFDD
:1032C0008280B7170240984F1345F5FF798D88CF5C
:1032D000828099C5371702405C4FC98F5CCF8280CE
:1032E000B7170240D84F1345F5FF798DC8CF8280BC
:1032F00099C5371702405C47C98F5CC78280B717F2
:103300000240D8471345F5FF798DC8C782801E213A
:1033100037380140130708C0C2079621D221C18364
:103320006316E502BA2193F7F7F8D98FFA2193F7DC
:10333000F7CFD98F1EA152B5B737014016B5938785
:1033400007C0631DF5069C251EB9A1A037070040E4
:10335000E30AE5FC13070740E306E5FC37170040E6
:1033600093080780E30015FD930807C0E30C15FBE5
:1033700013080840E30805FB37580140930808C0CC
:10338000E30215FBE30005FB6318E5001EA152B53F
:1033900016B585475EA98280130707406319E500CB
:1033A000B71500402390F54052B716B7DDB7FA21A4
:1033B00093F7F7CFD98F1EA152B516B5B737014095
:1033C00093870740E301F5F8B7570140138707C01B
:1033D000E30BE5F6E309F5F66DBF1E31E57693865E
:1033E000F6CFC207C183BD9BC207C1831EB11E3188
:1033F00052211A2D03D88500C207758F9621C183EB
:1034000093F7F7FDA206558FB62142064207B3E6B1
:1034100006019206D58FB7360140C207138806C051
:1034200041824183C183630E050193860640630A8E
:10343000D500B7560140138806C063040501631E1A
:10344000D502B62593F7F7F703D8C5009206D58FB6
:10345000D621C207C183920693F7F7FBD58FFD767D
:103460009386F63FF18EF225C207C18333660601CB
:103470000A06D18E13960601418252A11AADFA2195
:103480001ABD1EB182801E2189C593E717001EA1B7
:103490008280C207C183F99BC207C183CDBF835716
:1034A000450491C52167D98F2312F5048280C60790
:1034B000C583DDBF5E2501C6CD8F5EA5828093C525
:1034C000F5FFED8FDDBF1E2189C593E707081EA11B
:1034D0008280C207C18393F7F7F7C207C183C5BFD4
:1034E0001E2D7D771307F77FF98FA205CD8FC207B9
:1034F000C1831EAD82805E21C207C18393F7F7F8B6
:10350000C207C1835EA15E21CD8F5EA182801E298C
:103510004A25ED8F4205418189C76D8D3335A00065
:1035200082800145828093C5F5FFC205C1810EA945
:103530008280EFC2FFCB1629F577FD17FD8EFE21A5
:10354000DA250111D58F1EA95625FD779387379F60
:10355000FD8EDE212A84AE84D58F9625D58FB625A3
:10356000D58F5EA55E29C207C18393F7F7CFD98FA8
:103570005EA96800EFF0BFBCB747014093870780A2
:10358000631EF402E2476547B387E702984093065B
:1035900040060A07B3D7E70233D7D702B3F7D702FB
:1035A0001207920793872703B3D7D702BD8BD98F12
:1035B000C207C1831EA405616FC0DFC5D247E1B752
:1035C0005E2589C50967D98F5EA5828079777D17C9
:1035D000F98FDDBF13F7F50F85471583B395B70056
:1035E0006319F7009307C500984301CE4D8F98C328
:1035F0008280894693074501E318D7FE93070501AA
:10360000E5B793C5F5FFF98D8CC3828093F5F51F5F
:103610004EA182804A211375F51F82800A216D8D8B
:103620003335A000828093F6F50F054695822A87F0
:10363000B317B6006391C602562533F5F6001E2374
:10364000C207C18301C9A18105473317B700F98FAC
:103650003335F000828009466394C6001629F1BF15
:103660005629E1BF8280EFC2BFB8EFC0205BEF10E8
:10367000412F6FC03FBA99476394F504EFC25FB71B
:10368000EFF07FFE2A84EF2081783C4585EB7C4576
:1036900099C3639587029387C1B8DC271384C1B8A7
:1036A00089C71385C1B8EF10007D08440147A946BA
:1036B0002946A545EF10C134230204006FC09FB511
:1036C000828099476395F504EFC29FB2EFF0BFF98E
:1036D0002A84EF20C1733C458DEB7C4599C36396EA
:1036E00087029387C1B883C707021384C1B889C70B
:1036F0001385C1B8EF200027484C0147A946294649
:10370000A545EF10E12F230604006FC0BFB08280F3
:103710006FF03FFB99476395F504EFC27FADEFF083
:103720009FF42A84EF20A16E3C458DEB7C4599C324
:10373000639687029387C1B883C707021384C1B811
:1037400089C71385C1B8EF20E021484C0147A9463D
:103750002946A545EF10C12A230E04046FC09FAB74
:10376000828099476395F504EFC29FA8EFF0BFEF01
:103770002A84EF20C1693C458DEB7C4599C3639653
:1037800087029387C1B883C707021384C1B889C76A
:103790001385C1B8EF20001D484C0147A9462946B2
:1037A000A545EF10E125230604086FC0BFA682805F
:1037B00099476395F504EFC2BFA3EFF0DFEA2A84CF
:1037C000EF20E1643C458DEB7C4599C3639687020D
:1037D0009387C1B883C707021384C1B889C713850B
:1037E000C1B8EF202018484C0147A9462946A545F5
:1037F000EF100121230A040A6FC0DFA182809947DC
:103800006395F504EFC2DF9EEFF0FFE52A84EF2019
:1038100001603C458DEB7C4599C363968702938795
:10382000C1B883C707021384C1B889C71385C1B85B
:10383000EF204013484C0147A9462946A545EF1003
:10384000211C230A040C6FC0FF9C8280994763955A
:10385000F504EFC2FF99EFF01FE12A84EF20215B0E
:103860003C458DEB7C4599C3639687029387C1B82D
:1038700083C707021384C1B889C71385C1B8EF2075
:10388000600E484C0147A9462946A545EF1041174F
:10389000230004106FC01F98828099476397F50436
:1038A000EFC21F95EFF03FDC2A84EF2041563C45E4
:1038B0009DEB7C4599C3639887029387C1B883C702
:1038C000C7051384C1B889C71385C1B8EF10D001EB
:1038D000284C05479306400613064006A545EF1001
:1038E000211285475CA46FC0FF928280994763953F
:1038F000F504EFC2FF8FEFF01FD72A84EF2021518C
:103900003C458DEB7C4599C3639687029387C1B88C
:1039100083C7C7051384C1B889C71385C1B8EF1021
:10392000A07C284C0147A9462946A545EF10410D2A
:10393000230004026FC01F8E828099476395F504AF
:10394000EFC21F8BEFF03FD22A84EF20414C3C4561
:103950008DEB7C4599C3639687029387C1B883C773
:10396000470B1384C1B881C71385C1B8ED24032563
:10397000040B0147A9462946A545EF10610823001D
:1039800004026FC03F89828099476396F504EFC2B5
:103990003F86EFF05FCD2A84EF2061473C4595EBF1
:1039A0007C4599C3639787029387C1B883C7C708CB
:1039B0001384C1B889C71385C1B8EF00100103256E
:1039C00084080147A9462946A545EF106103230055
:1039D00004026FC03F84828099476396F504EFC26A
:1039E0003F81EFF05FC82A84EF2061423C4595EBB0
:1039F0007C4599C3639787029387C1B883C7470DF6
:103A00001384C1B889C71385C1B8EF00D058032506
:103A1000040D0147A9462946A545EF00717E230004
:103A200004026FC02FFF828099476396F504EFC2AE
:103A30002FFCEFF05FC32A84EF20613D3C4595EBFE
:103A40007C4599C3639787029387C1B883C70710E2
:103A50001384C1B889C71385C1B8EF20C06C032592
:103A6000C40F0147A9462946A545EF0071792300F7
:103A700004026FC02FFA82808280828082808280DE
:103A8000828008418D65938565676F208119EFC23B
:103A90002FF62A8408458D659385256CEF206118E3
:103AA00008488D6593854566EF20A11748489165C4
:103AB0009385A589EF20E116084C8D6593850571E6
:103AC000EF2021166FC00FF5EFC28FF22A84485104
:103AD00091659385C5A7EF20C1140854916593851E
:103AE00085A2EF200114085891659385859DEF20EC
:103AF0004113085C91659385C58EEF2081122840A3
:103B0000916593858598EF20C1112844916593852F
:103B1000A593EF2001116FC0EFEF68598D65938574
:103B200045716F200110EFC2AFEC2A84032585098F
:103B30008D6593852576EF20C10E0325040A9165D6
:103B40009385E5A7EF20E10D6FC0CFEC0325050CB1
:103B50008D659385057B6F20C10CEFC26FE92A84C8
:103B60000325050E8D659385E57FEF20810B0325E9
:103B7000040F9165938505A8EF20A10A6FC08FE916
:103B8000EFC20FE72A840325C51091659385C5848C
:103B9000EF2021090325C4119165938585A7EF20A6
:103BA00041080325441291659385A5A7EF2061077D
:103BB0006FC04FE62302050023060500230005021F
:103BC000230E050423060508230A050A230A050C0B
:103BD000230005108280EFC2AFE1B7060020916597
:103BE0002A841388861193878611138786110946C4
:103BF000938686119385656913056051EF70107582
:103C00002285EFF03FFB2285EF10E0262285A120E0
:103C10002285652B2285EF0010382285EF102021A8
:103C20002285EF10604C2285EF10D0532285EF20C3
:103C3000804F0844EF00B1566FC0CFDD9357550059
:103C4000135735004D817D8B93F7077E7D89D98F82
:103C50002E055D8D8280EFC20FD8AA89814501456E
:103C600013840908EF20312F08D81306000F93059D
:103C70000014EF20F1711385C18EEF50517113853F
:103C8000C18E01469305C002EF60411108581386AA
:103C9000C18E8145EF30D13508588145EF60202C29
:103CA000B785030008DC9385C59DEF604000085C84
:103CB00085452169EF500050085C2146930520128C
:103CC000EF202179085CF945B7DAD400EF201178AC
:103CD0001385818EEF50B16B014685451385818E2A
:103CE000EF5051790145EFF07FF52A869305990849
:103CF0001385818EEF604101370600209305E908A6
:103D00001385818E1306860DEF60C1129305090895
:103D10001385818E0946EF50F175930519081385B7
:103D2000818E0146EF5011751385818E01469305F2
:103D3000C002EF60A1061385818E0146C145EF5098
:103D400071731385818E0146CD45EF50B172138595
:103D5000818E0146C545EF50F1711385818E014674
:103D6000C945EF5031711385818E014693050005D9
:103D7000EF505170085C1386818E8145EF305127DA
:103D800008588145EF30602A48DC9305803EEF30CB
:103D9000603E485C130640068145EF306047485C52
:103DA000014693052003EF304020485C25469305EB
:103DB0009010EF20016A485C1946D145EF20515D13
:103DC0001385418EEF50B15C1306F00F9305C002CE
:103DD0001385418EEF50917C13859A7DEFF01FE69D
:103DE0002A86930590021385418EEF50F171138559
:103DF000418E29468545EF50F1671385418E014676
:103E000093050005EF501167485C1386418E81458C
:103E1000EF30111E1385018EEF5071571306F00F0E
:103E20009305C0021385018EEF505177696B13051E
:103E30001B2BEFF0BFE02A86930590021385018EBD
:103E4000EF50916C1385018E29468545EF509162A4
:103E5000485C1386018E8545EF30911908588145DD
:103E6000EF30004628C08145EF60600FB785030042
:103E700068C09385459EEF50906368408545370A3A
:103E80000001EF50203328402146A145EF20615C1E
:103E9000284079469305D002EF20914F1385C18DBC
:103EA000EF50F14E0145EFF07FD92A86930599082E
:103EB0001385C18DEF505165370600209305E90841
:103EC0001385C18D13068604EF50D1761306F00FCB
:103ED0009305C0021385C18DEF50516C1305FAFF95
:103EE000EFF0DFD52A86930590021385C18DEF5040
:103EF000B1611385C18D094693050003EF509157B9
:103F00001306F00F9305C0031385C18DEF5011699F
:103F100013051B2BEFF09FD22A8693059003138580
:103F2000C18DEF50715E1385C18D13062003854549
:103F3000EF5051541385C18D014693050005EF5094
:103F4000715328401386C18D8145EF30710A08589E
:103F50008145EF70A05428C4130620039305401038
:103F6000EF20214F2844514693058002EF20514213
:103F70001385818DEF50B1411306F00F9305C002F8
:103F80001385818DEF50916113859A7DEFF01FCBE2
:103F90002A86930590021385818DEF50F156138583
:103FA000818D014693050003EF50D14C1306F00FAD
:103FB0009305C0031385818DEF50515EB79A2100A0
:103FC00013856A5FEFF09FC72A86930590031385D8
:103FD000818DEF5071531385818D29468545EF50B2
:103FE00071491385818D014693050005EF50914875
:103FF00028441386818D8145EF30817F1385418D63
:10400000EF50F1381306F00F9305C0021385418D70
:10401000EF50D15829651305551BEFF03FC22A8692
:10402000930590021385418DEF50114E1385418DFC
:10403000014693050003EF50F1431306F00F93057B
:10404000C0031385418DEF50715513856A5FEFF002
:10405000FFBE2A86930590031385418DEF50D14A08
:104060001385418D130640068545EF50B140284425
:104070001386418D8545EF30A1771385018DEF5073
:1040800011311306F00F9305C0021385018DEF5017
:10409000F1501305FAFFEFF07FBA2A8693059002DC
:1040A0001385018DEF5051461385018D130640068F
:1040B0008545EF50313C28441386018D8945EF300A
:1040C000217308588145EF509069B785030068C493
:1040D0009385C59EEF50B03D68448545EF50800DF7
:1040E000684413062003F945EF20A1366844930580
:1040F0006009EF20B1351385C18CEF50512901467D
:1041000085451385C18CEF50F1360145EFF01FB3A3
:104110002A86930599081385C18CEF50F13E370626
:1041200000209305E9081385C18C13068607EF501C
:104130007150930509081385C18C0946EF509133DE
:10414000930519081385C18C0146EF50B1321385D0
:10415000C18C01469305C002EF5051441385C18CB8
:104160000146C145EF5011311385C18C0146CD4543
:10417000EF5051301385C18C0146C545EF50912F4A
:104180001385C18C0146C945EF50D12E1385C18CD2
:10419000014693050005EF50F12D68441386C18C4C
:1041A0008145EF30E1644E85EFF05F9A6FC0EF8597
:1041B00093575500135735004D817D8B93F7077E3C
:1041C0007D89D98F2E055D8D8280EFB2FFFFAA8990
:1041D0008145014513840908EF20E15708C41306FF
:1041E000000F93050014EF20B11A13850191EF50D1
:1041F000111A1385019101469305C002EF50113A3F
:104200000844138601918145EF30815E0844814561
:10421000EF20B06108C89305803EEF20B0750848D4
:10422000130640068145EF20B07E084801469305FD
:104230002003EF2090570848254693059010EF2063
:10424000412108481946D145EF2091141385C190AA
:10425000EF50F1131306F00F9305C0021385C190C0
:10426000EF50D13337DBD40013059B7DEFF05FF4C3
:104270002A86930590021385C190EF50F12813858B
:10428000C19029468545EF50F11E1385C190014626
:1042900093050005EF50111E08481386C190814513
:1042A000EF30015513858190EF50710E1306F00F1A
:1042B0009305C00213858190EF50512E696A130552
:1042C0001A2BEFF0FFEE2A8693059002138581905A
:1042D000EF5091231385819029468545EF50911920
:1042E0000848138681908545EF3081500844814508
:1042F000EF50F046B785030048C89385C59DEF5041
:10430000101B484885452169EF40D06A484821463E
:1043100093052012EF20E1134848F945B70A002021
:10432000EF20D11213854190EF507106014685456B
:1043300013854190EF5011140145EFF07FE72A8675
:104340009305990813854190EF50111C3706002002
:104350009305E908138541901306860DEF50912DC2
:1043600093050908138541900946EF50B110930554
:104370001908138541900146EF50D10F13854190E4
:1043800001469305C002EF5071211385419001460B
:10439000C145EF50310E138541900146CD45EF5098
:1043A000710D138541900146C545EF50B10C138541
:1043B00041900146C945EF50F10B138541900146EC
:1043C00093050005EF50110B484813864190814535
:1043D000EF30014208448145EF20906E08CC8145C2
:1043E000EF50F037B785030048CC9385459EEF50DA
:1043F000100C484C8545B70B0001EF40B05B084CF2
:104400002146A145EF20E104084C79469305D002EE
:10441000EF20017813850190EF5061770145EFF0AF
:104420003FD92A869305990813850190EF50D10D45
:1044300013868A049305E90813850190EF50911FB4
:104440001306F00F9305C00213850190EF5011156C
:104450001385FBFFEFF0DFD52A86930590021385C5
:104460000190EF50710A13850190094693050003EE
:10447000EF5051001306F00F9305C0031385019010
:10448000EF50D11113051A2BEFF09FD22A86930516
:10449000900313850190EF503107138501901306A7
:1044A00020038545EF50017D13850190014693055A
:1044B0000005EF50217C084C138601908145EF30B8
:1044C000213308448145EF20B05F08D08145EF508B
:1044D0001029B785030048D09385C59FEF50207DF4
:1044E00048508545EF40104D0850130630049305A1
:1044F000E006EF10117608501306200393054006DE
:10450000EF2001691385C18FEF5061680145EFF01D
:104510003FCA2A86930599081385C18FEF50C17E43
:1045200013868A049305E9081385C18FEF50911013
:104530001306F00F9305C0021385C18FEF501106CB
:104540001385FBFFEFF0DFC62A86930590021385E3
:10455000C18FEF50617B1385C18F0946930500031E
:10456000EF5041711306F00F9305C0031385C18FFF
:10457000EF50D10213051A2BEFF09FC32A86930543
:1045800090031385C18FEF5021781385C18F1306D7
:1045900020038545EF50016E1385C18F01469305B9
:1045A0000005EF50216D08501386C18F8145EF3013
:1045B000212408448145EF20502708D49305803EEC
:1045C000EF20503B0854130640068145EF2050442D
:1045D0000854014693052003EF20301D08541306AC
:1045E000500993058002EF10D166085429469305BF
:1045F000000FEF20E1591385818FEF5041591306C9
:10460000F00F9305C0021385818FEF5021791305B8
:104610009B7DEFF0FFB92A86930590021385818F69
:10462000EF50816E1385818F29468545EF50816457
:104630001385818F014693050005EF50A16308544F
:104640001386818F8145EF30A11A1385418FEF507A
:1046500001541306F00F9305C0021385418FEF50EC
:10466000E17313051A2BEFF0BFB42A86930590026D
:104670001385418FEF5041691385418F2946854548
:10468000EF50415F08541386418F8545EF30411646
:1046900008448145EF50B00CB785030048D493859A
:1046A000C5A0EF50C06048548545EF40B030485435
:1046B0001306400B93058002EF10B159485493053F
:1046C000000FEF20A1581385018FEF50414C014698
:1046D00085451385018FEF50E1590145EFF05FAD3E
:1046E0002A86930599081385018FEF50E16113869F
:1046F0008A049305E9081385018FEF50A173930590
:1047000009081385018F0946EF50C1569305190812
:104710001385018F0146EF50E1551385018F014646
:104720009305C002EF5081671385018F0146C14593
:10473000EF5041541385018F0146CD45EF50815311
:104740001385018F0146C545EF50C1521385018F76
:104750000146C945EF5001521385018F014693056B
:104760000005EF50215148541386018F8145EF30E9
:1047700021084E85EFF02FBB6FB09FA893575500CF
:10478000135735004D817D8B93F7077E7D89D98F37
:104790002E055D8D8280EFB23FA3AA898145014538
:1047A00013840908EF10317B28C81306000F930506
:1047B0000014EF20E13D13854193EF50413D1385F7
:1047C000419301469305C002EF50415D284813868E
:1047D00041938145EF30C10128488145EF50207851
:1047E000B785030028CC9385C59DEF50404C284CDD
:1047F0008545A164EF40101C284C214693052012EA
:10480000EF103145284CF945E96AEF202144138522
:104810000193EF50C1370146854513850193EF5051
:1048200061450145EFF09FF52A869385940813852D
:104830000193EF50614D370600209385E4081385FE
:1048400001931306860DEF50E15E938504081385EE
:1048500001930946EF500142938514081385019393
:104860000146EF5021411385019301469305C00293
:10487000EF50C152138501930146C145EF50813F6E
:10488000138501930146CD45EF50C13E1385019339
:104890000146C545EF50013E138501930146C945C8
:1048A000EF50413D13850193014693050005EF50FC
:1048B000613C284C138601938145EF207173284891
:1048C0008145EF20807668CC9305803EEF20900AEA
:1048D000684C130640068145EF209013684C014652
:1048E00093052003EF20606C684C254693059010DB
:1048F000EF103136684C1946D145EF2061291385F8
:10490000C192EF50C1281306F00F9305C002138522
:10491000C192EF50A14837D5D4001305957DEFF033
:10492000FFE52A86930590021385C192EF50C13DA1
:104930001385C19229468545EF50C1331385C19235
:10494000014693050005EF50E132684C1386C19291
:104950008145EF20F16913858192EF5041231306C1
:10496000F00F9305C00213858192EF502143138508
:104970001A2BEFF0BFE02A869305900213858192EF
:10498000EF5081381385819229468545EF50812E5D
:10499000684C138681928545EF20916528488145B2
:1049A000EF20101228D08145EF50605BB7850300DF
:1049B00068D09385459EEF50802F68508545370A13
:1049C0000020EF40207F28502146A145EF1071289C
:1049D000285079469305D002EF20811B1385419220
:1049E000EF50E11A13062003854513854192EF50DD
:1049F00061280145EFF09FD82A8693859408138596
:104A00004192EF50613013068A049385E4081385C0
:104A10004192EF5021421306F00F9305C002138517
:104A20004192EF50A137370B00011305FBFFEFF068
:104A3000FFD42A869305900213854192EF50C12C32
:104A400013854192014693050005EF50A12213857D
:104A50004192094693050003EF50C1211306F00F60
:104A60009305C00313854192EF50413313851A2BF0
:104A7000EFF0DFD02A869305900313854192EF5023
:104A8000A1282850138641928145EF20715628486D
:104A90008145EF50C04CB785030028D4938545A1CC
:104AA000EF50E02028548545B70B0020EF40807080
:104AB000285413061004A145EF10B119285493058A
:104AC000F009EF20A11813850192EF50410C1385D6
:104AD000019201469305C002EF50412C13850192CB
:104AE00001468545EF5001190146930500051385E0
:104AF0000192EF5021180145EFF05FC82A86938597
:104B0000940813850192EF50212013868B0793851B
:104B1000E40813850192EF50E13193850408138571
:104B200001920946EF5001159385140813850192EF
:104B30000146EF502114138501920146C145EF5003
:104B40006113138501920146CD45EF50A1121385E3
:104B500001920146C545EF50E111138501920146CE
:104B6000C945EF5021112854138601928145EF2049
:104B7000314828488145EF50803EB705020068D48F
:104B80009385C502EF50A01268548545EF408062BE
:104B90006854130610049305A00AEF10910B685493
:104BA00093051009EF20810A1385C191EF40317EF2
:104BB0000145EFF0BFBC2A86938594081385C19107
:104BC000EF50811413868B079385E4081385C191F8
:104BD000EF504126938504081385C1910946EF5093
:104BE0006109938514081385C1910146EF5081082E
:104BF0001385C19101469305C002EF50211A138518
:104C0000C19101468545EF50E1061385C1910146EA
:104C100093050005EF5001061385C1910146C1457A
:104C2000EF5041051385C1910146CD45EF508104F8
:104C30001385C1910146C545EF50C1031385C1914C
:104C40000146C945EF50010368541386C19181455F
:104C5000EF20113A28488145EF20806628D8814509
:104C6000EF50E02FB785030068D8938545A2EF5039
:104C7000000468588545EF40E05328581306E006C5
:104C80009305E006EF10E17C2858130620039305F6
:104C90004006EF10F16F13858191EF40516F1306BD
:104CA0002003854513858191EF40D17C0145EFF0CC
:104CB000FFAC2A869385940813858191EF50C10437
:104CC00013068A049385E40813858191EF508116B9
:104CD0001306F00F9305C00213858191EF50010C6C
:104CE0001305FBFFEFF09FA92A8693059002138519
:104CF0008191EF5061011385819101469305000573
:104D0000EF40517713858191094693050003EF40E9
:104D100071761306F00F9305C00313858191EF5050
:104D2000E10713851A2BEFF07FA52A8693059003E0
:104D300013858191EF40517D2858138681918145DB
:104D4000EF20112B28488145EF506021B7850300E3
:104D500028DC938585A3EF409075285C9145EF5042
:104D60002011285C1306400BD145EF10816E285CA2
:104D700093058011EF10916D13854191EF403161E2
:104D80000146854513854191EF40D16E0145EFF015
:104D9000FF9E2A869385940813854191EF40D17632
:104DA00013068A049385E40813854191EF50810826
:104DB00093850408138541910946EF40B16B9385B3
:104DC0001408138541910146EF40D16A1385419142
:104DD00001469305C002EF40717C13854191014665
:104DE000C145EF403169138541910146CD45EF4002
:104DF0007168138541910146C545EF40B167138540
:104E000041910146C945EF40F16613854191014644
:104E100093050005EF401166285C1386419181459A
:104E2000EF20111D4E85EFE05FD36FB06FBDEFB285
:104E30002FBC2A8481450145EF10F11108C01306EB
:104E4000000F93050014EF10B15413858193EF40C8
:104E500011541385819301469305C002EF401174EC
:104E60000840138681938145EF2091182285EFE059
:104E70005FC16FB02FBAEFB2AFB72A848145014549
:104E8000EF10710D08C41306000F93050014EF1006
:104E9000315013858194EF40914F138581940146E1
:104EA0009305C002EF40916F0844138681948145B9
:104EB000EF20111408448145EF20F02608C88145F1
:104EC000EF003145084881452169EF203036084818
:104ED0000147814601468145EF20B0390848014627
:104EE0008145EF10015708481306000F9305001481
:104EF000EF10114A13854194EF4071491385419495
:104F00001306F00F9305C002EF40516913854194D9
:104F1000014693059002EF40315F138541940546A9
:104F200093050003EF401155138541941306F00FCC
:104F30009305C003EF40916669761385419413068B
:104F400036CD93059003EF40315C138541940146C3
:104F50008545EF4031521385419401469305000584
:104F6000EF4051510848138641948145EF20510884
:104F700008488145EF40B07EB785030048C8938557
:104F800005A5EF40D05248488545EF40A02248484B
:104F9000130620089305F004EF10A14B4848930531
:104FA000200AEF10B14A13850194EF40513E13855A
:104FB000019401468545EF40F14B9305990813850F
:104FC00001947D56EF405154370600209305E908BF
:104FD0001385019413068604EF40D16593050908F3
:104FE000138501940946EF40F1489305190813858C
:104FF00001940146EF401148138501940146930541
:10500000C002EF40B159138501940146C145EF40FC
:105010007146138501940146CD45EF40B145138596
:1050200001940146C545EF40F144138501940146C2
:10503000C945EF40314413850194014693050005AD
:10504000EF4051434848138601948145EF20417A4F
:1050500008488145EF30B03F08CC8545EF00712B03
:10506000084CB70502009385C512EF309023084C19
:105070001306200393052003EF30F001084C81450F
:10508000EF30900F084C1306000593059005EF10C4
:10509000413C084C130630029305E008EF10512FF5
:1050A0001385C193EF40B12E9305C90A1385C193AF
:1050B0001306F00FEF40914E084C1386C1938145C3
:1050C000EF2001732285EFE09F9C6FB0AF94935760
:1050D0005500135735004D817D8B93F7077E7D89F1
:1050E000D98F2E055D8D8280EFB2EF8E2A848145A7
:1050F0000145EF10416628CC1306000F93050014FC
:10510000EF10112913854197EF40712813854197BE
:1051100001469305C002EF407148284C1386419721
:105120008145EF20E16C284C8145EF405063B78505
:10513000030028D09385C5A6EF40703728508545D9
:10514000A164EF40200728501306A002F545EF1098
:105150004130285093056004B7090020EF10112F4B
:1051600013850197EF40B1220146854513850197CC
:10517000EF4051300145EFF09FF52A869385940862
:1051800013850197EF405138138689079385E4080A
:1051900013850197EF40114A938504081385019701
:1051A0000946EF40312D9385140813850197014678
:1051B000EF40512C1385019701469305C002EF4043
:1051C000F13D138501970146C145EF40B12A138592
:1051D00001970146CD45EF40F1291385019701461E
:1051E000C545EF403129138501970146C945EF4078
:1051F000712813850197014693050005EF4091271B
:105200002850138601978145EF20815E284C814507
:10521000EF40F054B785030068D0938545A7EF4071
:10522000102968508545696AEF30D07868501306B8
:105230009004F545EF10E121685093056004EF10EC
:10524000F1201385C196EF409114014685451385E1
:10525000C196EF4031220145EFF07FE72A86938522
:1052600094081385C196EF40312A138689079385E8
:10527000E4081385C196EF40F13B9385040813853C
:10528000C1960946EF40111F938514081385C196F6
:105290000146EF40311E1385C19601469305C002B9
:1052A000EF40D12F1385C1960146C145EF40911CB7
:1052B0001385C1960146CD45EF40D11B1385C1969C
:1052C0000146C545EF40111B1385C1960146C945EE
:1052D000EF40511A1385C196014693050005EF4032
:1052E000711968501386C1968145EF206150284C92
:1052F0008145EF40D046B785030028D4938585A724
:10530000EF40F01A28548545EF30D06A2854130630
:105310008006F545EF10E113285493056004EF1063
:10532000F11213858196EF4091060146854513855C
:105330008196EF4031140145EFF07FD92A8693859D
:10534000940813858196EF40311C13868907938555
:10535000E40813858196EF40F12D938504081385A9
:1053600081960946EF4011119385140813858196A3
:105370000146EF4031101385819601469305C00226
:10538000EF40D121138581960146C145EF40910E32
:10539000138581960146CD45EF40D10D1385819649
:1053A0000146C545EF40110D138581960146C9455B
:1053B000EF40510C13858196014693050005EF409F
:1053C000710B2854138681968145EF206142284C49
:1053D0008145EF40D038B785030068D4938505A890
:1053E000EF40F00C68548545EF30D05C68541306EC
:1053F000A0029305E006EF10C1056854930540062E
:10540000EF10D10413854196EF4061780146854540
:1054100013854196EF4011060145EFF05FCB2A86D8
:105420009385940813854196EF40110E13868907E2
:105430009385E40813854196EF40D11F93850408B6
:10544000138541960946EF40F102938514081385B0
:1054500041960146EF40110213854196014693059E
:10546000C002EF40B113138541960146C145EF409C
:105470007100138541960146CD45EF40A17F13850C
:1054800041960146C545EF40E17E138541960146B0
:10549000C945EF40217E13854196014693050005DD
:1054A000EF40417D6854138641968145EF20413499
:1054B000284C8145EF40B02AB785030028D8938552
:1054C00085A8EF40C07E28588545EF30B04E28585B
:1054D000130690049305E006EF00B1772858930572
:1054E0004006EF10A17613850196EF40416A014610
:1054F000854513850196EF40E1770145EFF03FBD0B
:105500002A869385940813850196EF40E17F1386E0
:1055100089079385E40813850196EF40B1119385BF
:105520000408138501960946EF40C1749385140859
:10553000138501960146EF40E173138501960146FC
:105540009305C002EF409105138501960146C145C0
:10555000EF404172138501960146CD45EF408171C0
:10556000138501960146C545EF40C170138501962C
:105570000146C945EF400170138501960146930528
:105580000005EF40216F2858138601968145EF20D2
:105590002126284C8145EF10B05268D88145EF4054
:1055A000101CB785030028DC9385459EEF402070D2
:1055B000285C8545EF30104068582146A145EF0032
:1055C0005169685879469305D002EF10615C1385E4
:1055D000C195EF40C15B0145EFF07FAF2A8693850F
:1055E00094081385C195EF402172370600209385FA
:1055F000E4081385C19513068604EF40B103130632
:10560000F00F9305C0021385C195EF40217937054E
:1056100000017D15EFF0BFAB2A869305900213853C
:10562000C195EF40616E1385C1950946930500034E
:10563000EF4041641306F00F9305C0031385C19535
:10564000EF40C17513051A2BEFF07FA82A8693054A
:1056500090031385C195EF40216B1385C195130607
:1056600020038545EF4001611385C19501469305EF
:105670000005EF40216068581386C1958145EF20F1
:105680002117284C8145EF40900DB785030068DC59
:105690009385C5A8EF40A061685C8545EF309031E7
:1056A000685C130680069305E006EF00915A685C7B
:1056B00093054006EF10815913858195EF40214DE8
:1056C0000146854513858195EF40C15A0145EFF0AC
:1056D0001FA02A869385940813858195EF40C162A7
:1056E000138689079385E40813858195EF408174BB
:1056F00093850408138581950946EF40A15793854A
:105700001408138581950146EF40C1561385819594
:1057100001469305C002EF406168138581950146FB
:10572000C145EF402155138581950146CD45EF4098
:105730006154138581950146C545EF40A1531385FA
:1057400081950146C945EF40E15213858195014697
:1057500093050005EF400152685C138681958145F1
:10576000EF200109284C8145EF40607FB785030099
:105770002320A4089385C59DEF40605303250408AA
:10578000854593090408EF30F022032504082146DB
:1057900093052012EF00F14B03250408F945EF10A3
:1057A000E14A13854195EF40813E014685451385C9
:1057B0004195EF40214C0145EFF07F912A8693857A
:1057C000940813854195EF402154370600209385B6
:1057D000E408138541951306860DEF40A165938576
:1057E0000408138541950946EF40C1489385140884
:1057F000138541950146EF40E147138541950146E8
:105800009305C002EF408159138541950146C1457A
:10581000EF404146138541950146CD45EF40814516
:10582000138541950146C545EF40C1441385419517
:105830000146C945EF400144138541950146930552
:105840000005EF4021430325040813864195814557
:10585000EF10117A284C8145EF10207D2322A408F7
:105860009305803EEF1010110325440813064006EF
:105870008145EF10F01903254408014693052003E4
:10588000EF10A07203254408254693059010EF0001
:10589000513C032544081946D145EF10612F13856B
:1058A0000195EF40C12E1306F00F9305C00213853A
:1058B0000195EF40A14E37D5D4001305957DEFF04B
:1058C0001F812A869305900213850195EF40C143FD
:1058D0001385019529468545EF40C139138501950A
:1058E000014693050005EF40E1380325440813867F
:1058F00001958145EF10D16F1385C194EF402129A7
:105900001306F00F9305C0021385C194EF400149BF
:1059100013051A2BEFF0AFFB2A869305900213852F
:10592000C194EF40613E1385C19429468545EF40FF
:105930006134032544081386C1948545EF10516BEB
:105940002285EFE08F9D6FA05F8C93575500135712
:1059500035004D817D8B93F7077E7D89D98F2E058C
:105960005D8D8280EFA23F872A8481450145EF004B
:10597000915E48CC1306000F93050014EF104121EF
:105980001385C199EF40A1201385C1990146930564
:10599000C002EF40A140484C1386C1998145EF10E9
:1059A0003165484C8145EF40D07448D08145EF4087
:1059B000306D4850B70A0001EF50400D8145EF208F
:1059C000E0064850370B0020696AEF50200C014771
:1059D000814601468145EF20C00948500146814576
:1059E000EF00312748501306000F93050014EF1005
:1059F000211A13858199EF4081191306F00F930541
:105A0000C00213858199EF4061391385FAFFEFF0E9
:105A1000DFF32A869305900213858199EF40C12E0A
:105A20001385819901468545EF40C12413858199ED
:105A3000014693050005EF40E12313858199054652
:105A400093050003EF4001231306F00F9305C003F5
:105A500013858199EF40813437A5990013059599F5
:105A6000EFF0BFEE2A869305900313858199EF40EE
:105A7000A1294850138681998145EF1071574850EC
:105A8000A164EF50A0001306C00D9305004BAA8936
:105A9000EF10011081454E85EF10900208D481452A
:105AA000EF40E04BB785030048D4938585A9EF40CC
:105AB000002048548545EF30E06F0854130620025B
:105AC000F945EF00111908541306000A9305800CDC
:105AD000EF10010C13854199EF40610B0145EFF088
